{
  "contractName": "PRETSD",
  "abi": [
    {
      "constant": true,
      "inputs": [],
      "name": "name",
      "outputs": [
        {
          "name": "",
          "type": "string"
        }
      ],
      "payable": false,
      "stateMutability": "view",
      "type": "function"
    },
    {
      "constant": true,
      "inputs": [],
      "name": "ethExchangeRate",
      "outputs": [
        {
          "name": "",
          "type": "uint256"
        }
      ],
      "payable": false,
      "stateMutability": "view",
      "type": "function"
    },
    {
      "constant": true,
      "inputs": [],
      "name": "totalSupply",
      "outputs": [
        {
          "name": "",
          "type": "uint256"
        }
      ],
      "payable": false,
      "stateMutability": "view",
      "type": "function"
    },
    {
      "constant": true,
      "inputs": [],
      "name": "decimalMultiplier",
      "outputs": [
        {
          "name": "",
          "type": "uint256"
        }
      ],
      "payable": false,
      "stateMutability": "view",
      "type": "function"
    },
    {
      "constant": true,
      "inputs": [],
      "name": "decimals",
      "outputs": [
        {
          "name": "",
          "type": "uint256"
        }
      ],
      "payable": false,
      "stateMutability": "view",
      "type": "function"
    },
    {
      "constant": true,
      "inputs": [],
      "name": "endTime",
      "outputs": [
        {
          "name": "",
          "type": "uint256"
        }
      ],
      "payable": false,
      "stateMutability": "view",
      "type": "function"
    },
    {
      "constant": true,
      "inputs": [],
      "name": "minPurchase",
      "outputs": [
        {
          "name": "",
          "type": "uint256"
        }
      ],
      "payable": false,
      "stateMutability": "view",
      "type": "function"
    },
    {
      "constant": true,
      "inputs": [],
      "name": "exchangeRate",
      "outputs": [
        {
          "name": "",
          "type": "uint256"
        }
      ],
      "payable": false,
      "stateMutability": "view",
      "type": "function"
    },
    {
      "constant": true,
      "inputs": [],
      "name": "TSDContractAddress",
      "outputs": [
        {
          "name": "",
          "type": "address"
        }
      ],
      "payable": false,
      "stateMutability": "view",
      "type": "function"
    },
    {
      "constant": true,
      "inputs": [],
      "name": "million",
      "outputs": [
        {
          "name": "",
          "type": "uint256"
        }
      ],
      "payable": false,
      "stateMutability": "view",
      "type": "function"
    },
    {
      "constant": true,
      "inputs": [],
      "name": "tokensAvailable",
      "outputs": [
        {
          "name": "",
          "type": "bool"
        }
      ],
      "payable": false,
      "stateMutability": "view",
      "type": "function"
    },
    {
      "constant": true,
      "inputs": [],
      "name": "currentDistributionIndex",
      "outputs": [
        {
          "name": "",
          "type": "uint256"
        }
      ],
      "payable": false,
      "stateMutability": "view",
      "type": "function"
    },
    {
      "constant": false,
      "inputs": [],
      "name": "renounceOwnership",
      "outputs": [],
      "payable": false,
      "stateMutability": "nonpayable",
      "type": "function"
    },
    {
      "constant": true,
      "inputs": [],
      "name": "startTime",
      "outputs": [
        {
          "name": "",
          "type": "uint256"
        }
      ],
      "payable": false,
      "stateMutability": "view",
      "type": "function"
    },
    {
      "constant": true,
      "inputs": [],
      "name": "tokenPrice",
      "outputs": [
        {
          "name": "",
          "type": "uint256"
        }
      ],
      "payable": false,
      "stateMutability": "view",
      "type": "function"
    },
    {
      "constant": true,
      "inputs": [],
      "name": "owner",
      "outputs": [
        {
          "name": "",
          "type": "address"
        }
      ],
      "payable": false,
      "stateMutability": "view",
      "type": "function"
    },
    {
      "constant": true,
      "inputs": [],
      "name": "preFundsWallet",
      "outputs": [
        {
          "name": "",
          "type": "address"
        }
      ],
      "payable": false,
      "stateMutability": "view",
      "type": "function"
    },
    {
      "constant": true,
      "inputs": [],
      "name": "symbol",
      "outputs": [
        {
          "name": "",
          "type": "string"
        }
      ],
      "payable": false,
      "stateMutability": "view",
      "type": "function"
    },
    {
      "constant": true,
      "inputs": [
        {
          "name": "",
          "type": "uint256"
        }
      ],
      "name": "icoParticipants",
      "outputs": [
        {
          "name": "",
          "type": "address"
        }
      ],
      "payable": false,
      "stateMutability": "view",
      "type": "function"
    },
    {
      "constant": true,
      "inputs": [],
      "name": "tokensReleaseDate",
      "outputs": [
        {
          "name": "",
          "type": "uint256"
        }
      ],
      "payable": false,
      "stateMutability": "view",
      "type": "function"
    },
    {
      "constant": true,
      "inputs": [],
      "name": "totalEthRaised",
      "outputs": [
        {
          "name": "",
          "type": "uint256"
        }
      ],
      "payable": false,
      "stateMutability": "view",
      "type": "function"
    },
    {
      "constant": false,
      "inputs": [
        {
          "name": "newOwner",
          "type": "address"
        }
      ],
      "name": "transferOwnership",
      "outputs": [],
      "payable": false,
      "stateMutability": "nonpayable",
      "type": "function"
    },
    {
      "constant": true,
      "inputs": [
        {
          "name": "",
          "type": "address"
        }
      ],
      "name": "whiteListed",
      "outputs": [
        {
          "name": "",
          "type": "bool"
        }
      ],
      "payable": false,
      "stateMutability": "view",
      "type": "function"
    },
    {
      "inputs": [
        {
          "name": "_ethExchangeRate",
          "type": "uint256"
        }
      ],
      "payable": false,
      "stateMutability": "nonpayable",
      "type": "constructor"
    },
    {
      "payable": true,
      "stateMutability": "payable",
      "type": "fallback"
    },
    {
      "anonymous": false,
      "inputs": [
        {
          "indexed": false,
          "name": "oldEthRaisedVal",
          "type": "uint256"
        },
        {
          "indexed": false,
          "name": "newEthRaisedVal",
          "type": "uint256"
        }
      ],
      "name": "EthRaisedUpdated",
      "type": "event"
    },
    {
      "anonymous": false,
      "inputs": [
        {
          "indexed": false,
          "name": "prevExchangeRate",
          "type": "uint256"
        },
        {
          "indexed": false,
          "name": "newExchangeRate",
          "type": "uint256"
        }
      ],
      "name": "ExchangeRateUpdated",
      "type": "event"
    },
    {
      "anonymous": false,
      "inputs": [
        {
          "indexed": false,
          "name": "_presd",
          "type": "address"
        },
        {
          "indexed": false,
          "name": "_tsd",
          "type": "address"
        }
      ],
      "name": "DistributedAllBalancesToTSDContract",
      "type": "event"
    },
    {
      "anonymous": false,
      "inputs": [
        {
          "indexed": false,
          "name": "from",
          "type": "address"
        },
        {
          "indexed": false,
          "name": "to",
          "type": "address"
        },
        {
          "indexed": false,
          "name": "value",
          "type": "uint256"
        }
      ],
      "name": "Transfer",
      "type": "event"
    },
    {
      "anonymous": false,
      "inputs": [
        {
          "indexed": false,
          "name": "oldSupply",
          "type": "uint256"
        },
        {
          "indexed": false,
          "name": "newSupply",
          "type": "uint256"
        }
      ],
      "name": "UpdatedTotalSupply",
      "type": "event"
    },
    {
      "anonymous": false,
      "inputs": [
        {
          "indexed": true,
          "name": "previousOwner",
          "type": "address"
        }
      ],
      "name": "OwnershipRenounced",
      "type": "event"
    },
    {
      "anonymous": false,
      "inputs": [
        {
          "indexed": true,
          "name": "previousOwner",
          "type": "address"
        },
        {
          "indexed": true,
          "name": "newOwner",
          "type": "address"
        }
      ],
      "name": "OwnershipTransferred",
      "type": "event"
    },
    {
      "constant": true,
      "inputs": [],
      "name": "currentTime",
      "outputs": [
        {
          "name": "",
          "type": "uint256"
        }
      ],
      "payable": false,
      "stateMutability": "view",
      "type": "function"
    },
    {
      "constant": true,
      "inputs": [
        {
          "name": "_address",
          "type": "address"
        }
      ],
      "name": "balanceOf",
      "outputs": [
        {
          "name": "",
          "type": "uint256"
        }
      ],
      "payable": false,
      "stateMutability": "view",
      "type": "function"
    },
    {
      "constant": false,
      "inputs": [
        {
          "name": "_addresses",
          "type": "address[]"
        }
      ],
      "name": "createWhiteListedMapping",
      "outputs": [],
      "payable": false,
      "stateMutability": "nonpayable",
      "type": "function"
    },
    {
      "constant": false,
      "inputs": [
        {
          "name": "_address",
          "type": "address"
        }
      ],
      "name": "removeFromWhitelist",
      "outputs": [],
      "payable": false,
      "stateMutability": "nonpayable",
      "type": "function"
    },
    {
      "constant": false,
      "inputs": [
        {
          "name": "_newAddress",
          "type": "address"
        }
      ],
      "name": "changeOracleAddress",
      "outputs": [],
      "payable": false,
      "stateMutability": "nonpayable",
      "type": "function"
    },
    {
      "constant": false,
      "inputs": [
        {
          "name": "_newRate",
          "type": "uint256"
        }
      ],
      "name": "updateTheExchangeRate",
      "outputs": [
        {
          "name": "",
          "type": "bool"
        }
      ],
      "payable": false,
      "stateMutability": "nonpayable",
      "type": "function"
    },
    {
      "constant": true,
      "inputs": [
        {
          "name": "_address",
          "type": "address"
        }
      ],
      "name": "isWhiteListed",
      "outputs": [
        {
          "name": "",
          "type": "bool"
        }
      ],
      "payable": false,
      "stateMutability": "view",
      "type": "function"
    },
    {
      "constant": false,
      "inputs": [],
      "name": "buyTokens",
      "outputs": [],
      "payable": true,
      "stateMutability": "payable",
      "type": "function"
    },
    {
      "constant": true,
      "inputs": [],
      "name": "calculateTotalRemainingTokenCost",
      "outputs": [
        {
          "name": "",
          "type": "uint256"
        }
      ],
      "payable": false,
      "stateMutability": "view",
      "type": "function"
    },
    {
      "constant": true,
      "inputs": [
        {
          "name": "_ethAmount",
          "type": "uint256"
        }
      ],
      "name": "calculateTokenAmountWithDiscounts",
      "outputs": [
        {
          "name": "",
          "type": "uint256"
        }
      ],
      "payable": false,
      "stateMutability": "view",
      "type": "function"
    },
    {
      "constant": false,
      "inputs": [
        {
          "name": "_t",
          "type": "address"
        }
      ],
      "name": "setMainContractAddress",
      "outputs": [],
      "payable": false,
      "stateMutability": "nonpayable",
      "type": "function"
    },
    {
      "constant": false,
      "inputs": [],
      "name": "burnRemainingTokens",
      "outputs": [
        {
          "name": "",
          "type": "bool"
        }
      ],
      "payable": false,
      "stateMutability": "nonpayable",
      "type": "function"
    },
    {
      "constant": false,
      "inputs": [
        {
          "name": "_numberOfTransfers",
          "type": "uint256"
        }
      ],
      "name": "distributeTokens",
      "outputs": [
        {
          "name": "",
          "type": "bool"
        }
      ],
      "payable": false,
      "stateMutability": "nonpayable",
      "type": "function"
    },
    {
      "constant": false,
      "inputs": [
        {
          "name": "_startTime",
          "type": "uint256"
        }
      ],
      "name": "setStartTime",
      "outputs": [
        {
          "name": "",
          "type": "bool"
        }
      ],
      "payable": false,
      "stateMutability": "nonpayable",
      "type": "function"
    },
    {
      "constant": false,
      "inputs": [
        {
          "name": "_endTime",
          "type": "uint256"
        }
      ],
      "name": "setEndTime",
      "outputs": [
        {
          "name": "",
          "type": "bool"
        }
      ],
      "payable": false,
      "stateMutability": "nonpayable",
      "type": "function"
    },
    {
      "constant": false,
      "inputs": [],
      "name": "selfDestruct",
      "outputs": [],
      "payable": false,
      "stateMutability": "nonpayable",
      "type": "function"
    }
  ],
  "bytecode": "0x60806040526040805190810160405280600c81526020017f5052452054534420434f494e0000000000000000000000000000000000000000815250600490805190602001906200005192919062000576565b506040805190810160405280600681526020017f5052455453440000000000000000000000000000000000000000000000000000815250600590805190602001906200009f92919062000576565b506012600655600654600a0a600755600754620f42400260085560085460a5026009556207a120600a556032600d556000600e55650164f0a36f00600f556501655cc8fb0060105565016c48549b0060115560806040519081016040528061032061ffff16815260200161034861ffff16815260200161037061ffff16815260200161039d61ffff1681525060169060046200013d929190620005fd565b506200016460046009546200039264010000000002620030ac179091906401000000009004565b6017556001601860006101000a81548160ff02191690831515021790555060006019553480156200019457600080fd5b506040516020806200390383398101806040528101908080519060200190929190505050336000806101000a81548173ffffffffffffffffffffffffffffffffffffffff021916908373ffffffffffffffffffffffffffffffffffffffff1602179055506000809054906101000a900473ffffffffffffffffffffffffffffffffffffffff16601260006101000a81548173ffffffffffffffffffffffffffffffffffffffff021916908373ffffffffffffffffffffffffffffffffffffffff16021790555060095460156000601260009054906101000a900473ffffffffffffffffffffffffffffffffffffffff1673ffffffffffffffffffffffffffffffffffffffff1673ffffffffffffffffffffffffffffffffffffffff168152602001908152602001600020819055507fddf252ad1be2c89b69c2b068fc378daa952ba7f163c4a11628f55a4df523b3ef6000601260009054906101000a900473ffffffffffffffffffffffffffffffffffffffff16600954604051808473ffffffffffffffffffffffffffffffffffffffff1681526020018373ffffffffffffffffffffffffffffffffffffffff1673ffffffffffffffffffffffffffffffffffffffff168152602001828152602001935050505060405180910390a16200038a81620003a9640100000000026401000000009004565b5050620006fd565b60008183811515620003a057fe5b04905092915050565b6000806000806000809054906101000a900473ffffffffffffffffffffffffffffffffffffffff1673ffffffffffffffffffffffffffffffffffffffff163373ffffffffffffffffffffffffffffffffffffffff161480620004585750600360009054906101000a900473ffffffffffffffffffffffffffffffffffffffff1673ffffffffffffffffffffffffffffffffffffffff163373ffffffffffffffffffffffffffffffffffffffff16145b15156200046457600080fd5b84600c81905550600b54925064e8d4a510009150620004c285620004a5620f4240600d546200053a6401000000000262003074179091906401000000009004565b6200039264010000000002620030ac179091906401000000009004565b9050620004e781836200053a6401000000000262003074179091906401000000009004565b600b819055507fc8d1043f24843c0a1c9251fdc30017d84e87498fbcf232af9f86816b5e182bde83600b54604051808381526020018281526020019250505060405180910390a160019350505050919050565b6000808314156200054f576000905062000570565b81830290508183828115156200056157fe5b041415156200056c57fe5b8090505b92915050565b828054600181600116156101000203166002900490600052602060002090601f016020900481019282601f10620005b957805160ff1916838001178555620005ea565b82800160010185558215620005ea579182015b82811115620005e9578251825591602001919060010190620005cc565b5b509050620005f99190620006a1565b5090565b826004600f016010900481019282156200068e5791602002820160005b838211156200065c57835183826101000a81548161ffff021916908361ffff16021790555092602001926002016020816001010492830192600103026200061a565b80156200068c5782816101000a81549061ffff02191690556002016020816001010492830192600103026200065c565b505b5090506200069d9190620006c9565b5090565b620006c691905b80821115620006c2576000816000905550600101620006a8565b5090565b90565b620006fa91905b80821115620006f657600081816101000a81549061ffff021916905550600101620006d0565b5090565b90565b6131f6806200070d6000396000f3006080604052600436106101e3576000357c0100000000000000000000000000000000000000000000000000000000900463ffffffff16806306fdde03146101ed5780630b961e481461027d57806318160ddd146102a85780633082538f146102d3578063313ce567146102fe5780633197cbb61461032957806333b5b62e146103545780633ba0b9a91461037f5780633e0a322d146103aa5780634a54839d146103ef5780634e9c6b1f1461044657806360659a92146104715780636f9170f6146104a05780636ff85ea9146104fb57806370a0823114610526578063715018a61461057d5780637366794e1461059457806378e97925146105d95780637ff9b5961461060457806383408d731461062f5780638ab1d6811461065e5780638da5cb5b146106a157806391974d8e146106f857806395d89b411461074f5780639cb8a26a146107df578063a229c614146107f6578063a256ea3a1461083b578063a5e5cdba146108a8578063afe07f59146108d3578063b9cdd19b146108fe578063c9e904be14610939578063ccb98ffc14610964578063d0febe4c146109a9578063d18e81b3146109b3578063e0181ade146109de578063ec9da59e14610a1f578063f2fde38b14610a62578063fa0fca8414610aa5578063fb349dbd14610b00575b6101eb610b43565b005b3480156101f957600080fd5b50610202611501565b6040518080602001828103825283818151815260200191508051906020019080838360005b83811015610242578082015181840152602081019050610227565b50505050905090810190601f16801561026f5780820380516001836020036101000a031916815260200191505b509250505060405180910390f35b34801561028957600080fd5b5061029261159f565b6040518082815260200191505060405180910390f35b3480156102b457600080fd5b506102bd6115a5565b6040518082815260200191505060405180910390f35b3480156102df57600080fd5b506102e86115ab565b6040518082815260200191505060405180910390f35b34801561030a57600080fd5b506103136115b1565b6040518082815260200191505060405180910390f35b34801561033557600080fd5b5061033e6115b7565b6040518082815260200191505060405180910390f35b34801561036057600080fd5b506103696115bd565b6040518082815260200191505060405180910390f35b34801561038b57600080fd5b506103946115c3565b6040518082815260200191505060405180910390f35b3480156103b657600080fd5b506103d5600480360381019080803590602001909291905050506115c9565b604051808215151515815260200191505060405180910390f35b3480156103fb57600080fd5b50610404611646565b604051808273ffffffffffffffffffffffffffffffffffffffff1673ffffffffffffffffffffffffffffffffffffffff16815260200191505060405180910390f35b34801561045257600080fd5b5061045b61166c565b6040518082815260200191505060405180910390f35b34801561047d57600080fd5b50610486611672565b604051808215151515815260200191505060405180910390f35b3480156104ac57600080fd5b506104e1600480360381019080803573ffffffffffffffffffffffffffffffffffffffff169060200190929190505050611685565b604051808215151515815260200191505060405180910390f35b34801561050757600080fd5b506105106116db565b6040518082815260200191505060405180910390f35b34801561053257600080fd5b50610567600480360381019080803573ffffffffffffffffffffffffffffffffffffffff1690602001909291905050506116e1565b6040518082815260200191505060405180910390f35b34801561058957600080fd5b5061059261172a565b005b3480156105a057600080fd5b506105bf6004803603810190808035906020019092919050505061182c565b604051808215151515815260200191505060405180910390f35b3480156105e557600080fd5b506105ee611eb0565b6040518082815260200191505060405180910390f35b34801561061057600080fd5b50610619611eb6565b6040518082815260200191505060405180910390f35b34801561063b57600080fd5b50610644611ebc565b604051808215151515815260200191505060405180910390f35b34801561066a57600080fd5b5061069f600480360381019080803573ffffffffffffffffffffffffffffffffffffffff1690602001909291905050506120ce565b005b3480156106ad57600080fd5b506106b66121d3565b604051808273ffffffffffffffffffffffffffffffffffffffff1673ffffffffffffffffffffffffffffffffffffffff16815260200191505060405180910390f35b34801561070457600080fd5b5061070d6121f8565b604051808273ffffffffffffffffffffffffffffffffffffffff1673ffffffffffffffffffffffffffffffffffffffff16815260200191505060405180910390f35b34801561075b57600080fd5b5061076461221e565b6040518080602001828103825283818151815260200191508051906020019080838360005b838110156107a4578082015181840152602081019050610789565b50505050905090810190601f1680156107d15780820380516001836020036101000a031916815260200191505b509250505060405180910390f35b3480156107eb57600080fd5b506107f46122bc565b005b34801561080257600080fd5b5061082160048036038101908080359060200190929190505050612351565b604051808215151515815260200191505060405180910390f35b34801561084757600080fd5b50610866600480360381019080803590602001909291905050506124b0565b604051808273ffffffffffffffffffffffffffffffffffffffff1673ffffffffffffffffffffffffffffffffffffffff16815260200191505060405180910390f35b3480156108b457600080fd5b506108bd6124ee565b6040518082815260200191505060405180910390f35b3480156108df57600080fd5b506108e861273f565b6040518082815260200191505060405180910390f35b34801561090a57600080fd5b50610937600480360381019080803590602001908201803590602001919091929391929390505050612745565b005b34801561094557600080fd5b5061094e6128b2565b6040518082815260200191505060405180910390f35b34801561097057600080fd5b5061098f600480360381019080803590602001909291905050506128b8565b604051808215151515815260200191505060405180910390f35b6109b1610b43565b005b3480156109bf57600080fd5b506109c8612947565b6040518082815260200191505060405180910390f35b3480156109ea57600080fd5b50610a0960048036038101908080359060200190929190505050612953565b6040518082815260200191505060405180910390f35b348015610a2b57600080fd5b50610a60600480360381019080803573ffffffffffffffffffffffffffffffffffffffff169060200190929190505050612d80565b005b348015610a6e57600080fd5b50610aa3600480360381019080803573ffffffffffffffffffffffffffffffffffffffff169060200190929190505050612e60565b005b348015610ab157600080fd5b50610ae6600480360381019080803573ffffffffffffffffffffffffffffffffffffffff169060200190929190505050612fb5565b604051808215151515815260200191505060405180910390f35b348015610b0c57600080fd5b50610b41600480360381019080803573ffffffffffffffffffffffffffffffffffffffff169060200190929190505050612fd5565b005b600080600080600080600080610b57612947565b9750610b84600c54610b76600754600a5461307490919063ffffffff16565b6130ac90919063ffffffff16565b9650601860009054906101000a900460ff161515610ba157600080fd5b600f548810158015610bb557506010548811155b1515610bc057600080fd5b601460003373ffffffffffffffffffffffffffffffffffffffff1673ffffffffffffffffffffffffffffffffffffffff16815260200190815260200160002060009054906101000a900460ff161515610c1857600080fd5b863410151515610c2757600080fd5b349550610c3386612953565b9450600e5493506000925060156000601260009054906101000a900473ffffffffffffffffffffffffffffffffffffffff1673ffffffffffffffffffffffffffffffffffffffff1673ffffffffffffffffffffffffffffffffffffffff1681526020019081526020016000205485141561115357610caf6124ee565b9150610cc482876130c290919063ffffffff16565b9250610cd983876130c290919063ffffffff16565b955060156000601260009054906101000a900473ffffffffffffffffffffffffffffffffffffffff1673ffffffffffffffffffffffffffffffffffffffff1673ffffffffffffffffffffffffffffffffffffffff168152602001908152602001600020549050610db38160156000601260009054906101000a900473ffffffffffffffffffffffffffffffffffffffff1673ffffffffffffffffffffffffffffffffffffffff1673ffffffffffffffffffffffffffffffffffffffff168152602001908152602001600020546130c290919063ffffffff16565b60156000601260009054906101000a900473ffffffffffffffffffffffffffffffffffffffff1673ffffffffffffffffffffffffffffffffffffffff1673ffffffffffffffffffffffffffffffffffffffff168152602001908152602001600020819055506000601560003373ffffffffffffffffffffffffffffffffffffffff1673ffffffffffffffffffffffffffffffffffffffff168152602001908152602001600020541415610ec75760133390806001815401808255809150509060018203906000526020600020016000909192909190916101000a81548173ffffffffffffffffffffffffffffffffffffffff021916908373ffffffffffffffffffffffffffffffffffffffff160217905550505b610f1981601560003373ffffffffffffffffffffffffffffffffffffffff1673ffffffffffffffffffffffffffffffffffffffff168152602001908152602001600020546130db90919063ffffffff16565b601560003373ffffffffffffffffffffffffffffffffffffffff1673ffffffffffffffffffffffffffffffffffffffff168152602001908152602001600020819055507fddf252ad1be2c89b69c2b068fc378daa952ba7f163c4a11628f55a4df523b3ef601260009054906101000a900473ffffffffffffffffffffffffffffffffffffffff163383604051808473ffffffffffffffffffffffffffffffffffffffff1673ffffffffffffffffffffffffffffffffffffffff1681526020018373ffffffffffffffffffffffffffffffffffffffff1673ffffffffffffffffffffffffffffffffffffffff168152602001828152602001935050505060405180910390a1600083111561106e573373ffffffffffffffffffffffffffffffffffffffff166108fc849081150290604051600060405180830381858888f1935050505015801561106c573d6000803e3d6000fd5b505b601260009054906101000a900473ffffffffffffffffffffffffffffffffffffffff1673ffffffffffffffffffffffffffffffffffffffff166108fc879081150290604051600060405180830381858888f193505050501580156110d6573d6000803e3d6000fd5b506110ec86600e546130db90919063ffffffff16565b600e819055507f4014ce514c76bad08328a2a6046bac14007f7aad2c56c84c66acf8ca1c64bee884600e54604051808381526020018281526020019250505060405180910390a16000601860006101000a81548160ff0219169083151502179055506114f7565b6000601560003373ffffffffffffffffffffffffffffffffffffffff1673ffffffffffffffffffffffffffffffffffffffff1681526020019081526020016000205414156112025760133390806001815401808255809150509060018203906000526020600020016000909192909190916101000a81548173ffffffffffffffffffffffffffffffffffffffff021916908373ffffffffffffffffffffffffffffffffffffffff160217905550505b6112768560156000601260009054906101000a900473ffffffffffffffffffffffffffffffffffffffff1673ffffffffffffffffffffffffffffffffffffffff1673ffffffffffffffffffffffffffffffffffffffff168152602001908152602001600020546130c290919063ffffffff16565b60156000601260009054906101000a900473ffffffffffffffffffffffffffffffffffffffff1673ffffffffffffffffffffffffffffffffffffffff1673ffffffffffffffffffffffffffffffffffffffff1681526020019081526020016000208190555061132d85601560003373ffffffffffffffffffffffffffffffffffffffff1673ffffffffffffffffffffffffffffffffffffffff168152602001908152602001600020546130db90919063ffffffff16565b601560003373ffffffffffffffffffffffffffffffffffffffff1673ffffffffffffffffffffffffffffffffffffffff168152602001908152602001600020819055507fddf252ad1be2c89b69c2b068fc378daa952ba7f163c4a11628f55a4df523b3ef601260009054906101000a900473ffffffffffffffffffffffffffffffffffffffff163387604051808473ffffffffffffffffffffffffffffffffffffffff1673ffffffffffffffffffffffffffffffffffffffff1681526020018373ffffffffffffffffffffffffffffffffffffffff1673ffffffffffffffffffffffffffffffffffffffff168152602001828152602001935050505060405180910390a1601260009054906101000a900473ffffffffffffffffffffffffffffffffffffffff1673ffffffffffffffffffffffffffffffffffffffff166108fc879081150290604051600060405180830381858888f19350505050158015611499573d6000803e3d6000fd5b506114af86600e546130db90919063ffffffff16565b600e819055507f4014ce514c76bad08328a2a6046bac14007f7aad2c56c84c66acf8ca1c64bee884600e54604051808381526020018281526020019250505060405180910390a15b5050505050505050565b60048054600181600116156101000203166002900480601f0160208091040260200160405190810160405280929190818152602001828054600181600116156101000203166002900480156115975780601f1061156c57610100808354040283529160200191611597565b820191906000526020600020905b81548152906001019060200180831161157a57829003601f168201915b505050505081565b600c5481565b60095481565b60075481565b60065481565b60105481565b600a5481565b600b5481565b60008060009054906101000a900473ffffffffffffffffffffffffffffffffffffffff1673ffffffffffffffffffffffffffffffffffffffff163373ffffffffffffffffffffffffffffffffffffffff1614151561162657600080fd5b6010548210151561163657600080fd5b81600f8190555060019050919050565b600260009054906101000a900473ffffffffffffffffffffffffffffffffffffffff1681565b60085481565b601860009054906101000a900460ff1681565b6000601460008373ffffffffffffffffffffffffffffffffffffffff1673ffffffffffffffffffffffffffffffffffffffff16815260200190815260200160002060009054906101000a900460ff169050919050565b60195481565b6000601560008373ffffffffffffffffffffffffffffffffffffffff1673ffffffffffffffffffffffffffffffffffffffff168152602001908152602001600020549050919050565b6000809054906101000a900473ffffffffffffffffffffffffffffffffffffffff1673ffffffffffffffffffffffffffffffffffffffff163373ffffffffffffffffffffffffffffffffffffffff1614151561178557600080fd5b6000809054906101000a900473ffffffffffffffffffffffffffffffffffffffff1673ffffffffffffffffffffffffffffffffffffffff167ff8df31144d9c2f0f6b59d69b8b98abd5459d07f2742c4df920b25aae33c6482060405160405180910390a260008060006101000a81548173ffffffffffffffffffffffffffffffffffffffff021916908373ffffffffffffffffffffffffffffffffffffffff160217905550565b6000806000806000809054906101000a900473ffffffffffffffffffffffffffffffffffffffff1673ffffffffffffffffffffffffffffffffffffffff163373ffffffffffffffffffffffffffffffffffffffff1614151561188d57600080fd5b601154611898612947565b101515156118a557600080fd5b600160009054906101000a900473ffffffffffffffffffffffffffffffffffffffff1673ffffffffffffffffffffffffffffffffffffffff1663dadf17296040518163ffffffff167c0100000000000000000000000000000000000000000000000000000000028152600401602060405180830381600087803b15801561192b57600080fd5b505af115801561193f573d6000803e3d6000fd5b505050506040513d602081101561195557600080fd5b8101908080519060200190929190505050925061197d856019546130db90919063ffffffff16565b915060195490505b81811015611de35760138054905081141561199f57611ea8565b6000601560006013848154811015156119b457fe5b9060005260206000200160009054906101000a900473ffffffffffffffffffffffffffffffffffffffff1673ffffffffffffffffffffffffffffffffffffffff1673ffffffffffffffffffffffffffffffffffffffff16815260200190815260200160002054141515611dd657600160009054906101000a900473ffffffffffffffffffffffffffffffffffffffff1673ffffffffffffffffffffffffffffffffffffffff166323b872dd84601384815481101515611a6f57fe5b9060005260206000200160009054906101000a900473ffffffffffffffffffffffffffffffffffffffff1660156000601387815481101515611aad57fe5b9060005260206000200160009054906101000a900473ffffffffffffffffffffffffffffffffffffffff1673ffffffffffffffffffffffffffffffffffffffff1673ffffffffffffffffffffffffffffffffffffffff168152602001908152602001600020546040518463ffffffff167c0100000000000000000000000000000000000000000000000000000000028152600401808473ffffffffffffffffffffffffffffffffffffffff1673ffffffffffffffffffffffffffffffffffffffff1681526020018373ffffffffffffffffffffffffffffffffffffffff1673ffffffffffffffffffffffffffffffffffffffff1681526020018281526020019350505050602060405180830381600087803b158015611bcb57600080fd5b505af1158015611bdf573d6000803e3d6000fd5b505050506040513d6020811015611bf557600080fd5b8101908080519060200190929190505050507fddf252ad1be2c89b69c2b068fc378daa952ba7f163c4a11628f55a4df523b3ef83601383815481101515611c3857fe5b9060005260206000200160009054906101000a900473ffffffffffffffffffffffffffffffffffffffff1660156000601386815481101515611c7657fe5b9060005260206000200160009054906101000a900473ffffffffffffffffffffffffffffffffffffffff1673ffffffffffffffffffffffffffffffffffffffff1673ffffffffffffffffffffffffffffffffffffffff16815260200190815260200160002054604051808473ffffffffffffffffffffffffffffffffffffffff1673ffffffffffffffffffffffffffffffffffffffff1681526020018373ffffffffffffffffffffffffffffffffffffffff1673ffffffffffffffffffffffffffffffffffffffff168152602001828152602001935050505060405180910390a1600060156000601384815481101515611d6c57fe5b9060005260206000200160009054906101000a900473ffffffffffffffffffffffffffffffffffffffff1673ffffffffffffffffffffffffffffffffffffffff1673ffffffffffffffffffffffffffffffffffffffff168152602001908152602001600020819055505b8080600101915050611985565b816019819055507f5fc214609a6cb66e8182b2a4d291dda75b365e02c065872483a7a875e54d7e1830600260009054906101000a900473ffffffffffffffffffffffffffffffffffffffff16604051808373ffffffffffffffffffffffffffffffffffffffff1673ffffffffffffffffffffffffffffffffffffffff1681526020018273ffffffffffffffffffffffffffffffffffffffff1673ffffffffffffffffffffffffffffffffffffffff1681526020019250505060405180910390a1600193505b505050919050565b600f5481565b600d5481565b6000806000809054906101000a900473ffffffffffffffffffffffffffffffffffffffff1673ffffffffffffffffffffffffffffffffffffffff163373ffffffffffffffffffffffffffffffffffffffff16141515611f1a57600080fd5b601054611f25612947565b10151515611f3257600080fd5b600060156000601260009054906101000a900473ffffffffffffffffffffffffffffffffffffffff1673ffffffffffffffffffffffffffffffffffffffff1673ffffffffffffffffffffffffffffffffffffffff1681526020019081526020016000205411156120c657600954905061201760156000601260009054906101000a900473ffffffffffffffffffffffffffffffffffffffff1673ffffffffffffffffffffffffffffffffffffffff1673ffffffffffffffffffffffffffffffffffffffff168152602001908152602001600020546009546130c290919063ffffffff16565b600981905550600060156000601260009054906101000a900473ffffffffffffffffffffffffffffffffffffffff1673ffffffffffffffffffffffffffffffffffffffff1673ffffffffffffffffffffffffffffffffffffffff168152602001908152602001600020819055507f8a96e7229e5b018dff0425d91c96d3f7d93cae0b891ff020eef8b1686e1a6a1081600954604051808381526020018281526020019250505060405180910390a15b600191505090565b6000809054906101000a900473ffffffffffffffffffffffffffffffffffffffff1673ffffffffffffffffffffffffffffffffffffffff163373ffffffffffffffffffffffffffffffffffffffff1614806121765750600360009054906101000a900473ffffffffffffffffffffffffffffffffffffffff1673ffffffffffffffffffffffffffffffffffffffff163373ffffffffffffffffffffffffffffffffffffffff16145b151561218157600080fd5b601460008273ffffffffffffffffffffffffffffffffffffffff1673ffffffffffffffffffffffffffffffffffffffff16815260200190815260200160002060006101000a81549060ff021916905550565b6000809054906101000a900473ffffffffffffffffffffffffffffffffffffffff1681565b601260009054906101000a900473ffffffffffffffffffffffffffffffffffffffff1681565b60058054600181600116156101000203166002900480601f0160208091040260200160405190810160405280929190818152602001828054600181600116156101000203166002900480156122b45780601f10612289576101008083540402835291602001916122b4565b820191906000526020600020905b81548152906001019060200180831161229757829003601f168201915b505050505081565b6000809054906101000a900473ffffffffffffffffffffffffffffffffffffffff1673ffffffffffffffffffffffffffffffffffffffff163373ffffffffffffffffffffffffffffffffffffffff1614151561231757600080fd5b6000809054906101000a900473ffffffffffffffffffffffffffffffffffffffff1673ffffffffffffffffffffffffffffffffffffffff16ff5b6000806000806000809054906101000a900473ffffffffffffffffffffffffffffffffffffffff1673ffffffffffffffffffffffffffffffffffffffff163373ffffffffffffffffffffffffffffffffffffffff1614806123ff5750600360009054906101000a900473ffffffffffffffffffffffffffffffffffffffff1673ffffffffffffffffffffffffffffffffffffffff163373ffffffffffffffffffffffffffffffffffffffff16145b151561240a57600080fd5b84600c81905550600b54925064e8d4a5100091506124488561243a620f4240600d5461307490919063ffffffff16565b6130ac90919063ffffffff16565b905061245d818361307490919063ffffffff16565b600b819055507fc8d1043f24843c0a1c9251fdc30017d84e87498fbcf232af9f86816b5e182bde83600b54604051808381526020018281526020019250505060405180910390a160019350505050919050565b6013818154811015156124bf57fe5b906000526020600020016000915054906101000a900473ffffffffffffffffffffffffffffffffffffffff1681565b600080600080600080935061256f60156000601260009054906101000a900473ffffffffffffffffffffffffffffffffffffffff1673ffffffffffffffffffffffffffffffffffffffff1673ffffffffffffffffffffffffffffffffffffffff168152602001908152602001600020546009546130c290919063ffffffff16565b9250601754612589846009546130c290919063ffffffff16565b81151561259257fe5b069150600082146125a357816125a7565b6017545b9150600083146125f1576125ec6017546125de6125cf856017546130c290919063ffffffff16565b866130c290919063ffffffff16565b6130ac90919063ffffffff16565b6125f4565b60005b90506003811015612649576126466126376017546016600360048110151561261857fe5b601091828204019190066002029054906101000a900461ffff166130f7565b856130db90919063ffffffff16565b93505b600281101561269c5761269961268a6017546016600260048110151561266b57fe5b601091828204019190066002029054906101000a900461ffff166130f7565b856130db90919063ffffffff16565b93505b60018110156126ef576126ec6126dd601754601660016004811015156126be57fe5b601091828204019190066002029054906101000a900461ffff166130f7565b856130db90919063ffffffff16565b93505b6127336127248360168460048110151561270557fe5b601091828204019190066002029054906101000a900461ffff166130f7565b856130db90919063ffffffff16565b93508394505050505090565b60115481565b60008060009054906101000a900473ffffffffffffffffffffffffffffffffffffffff1673ffffffffffffffffffffffffffffffffffffffff163373ffffffffffffffffffffffffffffffffffffffff1614806127ef5750600360009054906101000a900473ffffffffffffffffffffffffffffffffffffffff1673ffffffffffffffffffffffffffffffffffffffff163373ffffffffffffffffffffffffffffffffffffffff16145b15156127fa57600080fd5b600090505b828290508167ffffffffffffffff1610156128ad5760016014600085858567ffffffffffffffff16818110151561283257fe5b9050602002013573ffffffffffffffffffffffffffffffffffffffff1673ffffffffffffffffffffffffffffffffffffffff1673ffffffffffffffffffffffffffffffffffffffff16815260200190815260200160002060006101000a81548160ff02191690831515021790555080806001019150506127ff565b505050565b600e5481565b60008060009054906101000a900473ffffffffffffffffffffffffffffffffffffffff1673ffffffffffffffffffffffffffffffffffffffff163373ffffffffffffffffffffffffffffffffffffffff1614151561291557600080fd5b600f548211801561292c5750612929612947565b82115b151561293757600080fd5b8160108190555060019050919050565b60006103e84202905090565b6000806000806000806000809550600094508793506129de60156000601260009054906101000a900473ffffffffffffffffffffffffffffffffffffffff1673ffffffffffffffffffffffffffffffffffffffff1673ffffffffffffffffffffffffffffffffffffffff168152602001908152602001600020546009546130c290919063ffffffff16565b92506017546129f8846009546130c290919063ffffffff16565b811515612a0157fe5b06915060008214612a125781612a16565b6017545b915060008314612a6057612a5b601754612a4d612a3e856017546130c290919063ffffffff16565b866130c290919063ffffffff16565b6130ac90919063ffffffff16565b612a63565b60005b90508060001415612b3357612aa982612aa486601685600481101515612a8557fe5b601091828204019190066002029054906101000a900461ffff16613154565b6131b1565b9450612abe85876130db90919063ffffffff16565b9550612b04612af586601684600481101515612ad657fe5b601091828204019190066002029054906101000a900461ffff166130f7565b856130c290919063ffffffff16565b93506000841415612b1757859650612d75565b6017549150612b306001826130db90919063ffffffff16565b90505b8060011415612c0157612b7782612b7286601685600481101515612b5357fe5b601091828204019190066002029054906101000a900461ffff16613154565b6131b1565b9450612b8c85876130db90919063ffffffff16565b9550612bd2612bc386601684600481101515612ba457fe5b601091828204019190066002029054906101000a900461ffff166130f7565b856130c290919063ffffffff16565b93506000841415612be557859650612d75565b6017549150612bfe6001826130db90919063ffffffff16565b90505b8060021415612ccf57612c4582612c4086601685600481101515612c2157fe5b601091828204019190066002029054906101000a900461ffff16613154565b6131b1565b9450612c5a85876130db90919063ffffffff16565b9550612ca0612c9186601684600481101515612c7257fe5b601091828204019190066002029054906101000a900461ffff166130f7565b856130c290919063ffffffff16565b93506000841415612cb357859650612d75565b6017549150612ccc6001826130db90919063ffffffff16565b90505b8060031415612d7157612d1382612d0e86601685600481101515612cef57fe5b601091828204019190066002029054906101000a900461ffff16613154565b6131b1565b9450612d2885876130db90919063ffffffff16565b9550612d6e612d5f86601684600481101515612d4057fe5b601091828204019190066002029054906101000a900461ffff166130f7565b856130c290919063ffffffff16565b93505b8596505b505050505050919050565b6000809054906101000a900473ffffffffffffffffffffffffffffffffffffffff1673ffffffffffffffffffffffffffffffffffffffff163373ffffffffffffffffffffffffffffffffffffffff16141515612ddb57600080fd5b80600160006101000a81548173ffffffffffffffffffffffffffffffffffffffff021916908373ffffffffffffffffffffffffffffffffffffffff16021790555080600260006101000a81548173ffffffffffffffffffffffffffffffffffffffff021916908373ffffffffffffffffffffffffffffffffffffffff16021790555050565b6000809054906101000a900473ffffffffffffffffffffffffffffffffffffffff1673ffffffffffffffffffffffffffffffffffffffff163373ffffffffffffffffffffffffffffffffffffffff16141515612ebb57600080fd5b600073ffffffffffffffffffffffffffffffffffffffff168173ffffffffffffffffffffffffffffffffffffffff1614151515612ef757600080fd5b8073ffffffffffffffffffffffffffffffffffffffff166000809054906101000a900473ffffffffffffffffffffffffffffffffffffffff1673ffffffffffffffffffffffffffffffffffffffff167f8be0079c531659141344cd1fd0a4f28419497f9722a3daafe3b4186f6b6457e060405160405180910390a3806000806101000a81548173ffffffffffffffffffffffffffffffffffffffff021916908373ffffffffffffffffffffffffffffffffffffffff16021790555050565b60146020528060005260406000206000915054906101000a900460ff1681565b6000809054906101000a900473ffffffffffffffffffffffffffffffffffffffff1673ffffffffffffffffffffffffffffffffffffffff163373ffffffffffffffffffffffffffffffffffffffff1614151561303057600080fd5b80600360006101000a81548173ffffffffffffffffffffffffffffffffffffffff021916908373ffffffffffffffffffffffffffffffffffffffff16021790555050565b60008083141561308757600090506130a6565b818302905081838281151561309857fe5b041415156130a257fe5b8090505b92915050565b600081838115156130b957fe5b04905092915050565b60008282111515156130d057fe5b818303905092915050565b600081830190508281101515156130ee57fe5b80905092915050565b600061314c60075461313e600b546131306103e86131228861ffff168a61307490919063ffffffff16565b6130ac90919063ffffffff16565b61307490919063ffffffff16565b6130ac90919063ffffffff16565b905092915050565b60006131a9600b5461319b60075461318d8661ffff1661317f6103e88a61307490919063ffffffff16565b6130ac90919063ffffffff16565b61307490919063ffffffff16565b6130ac90919063ffffffff16565b905092915050565b60008183106131c057816131c2565b825b9050929150505600a165627a7a72305820fd76ee20a923658949d746a9dc66beff677417cd96d3e61581ece684f60637b50029",
  "source": "pragma solidity ^0.4.23;\n\nimport \"./FoundationContracts/Ownable.sol\";\nimport \"./FoundationContracts/Math.sol\";\nimport \"./TSD.sol\";\n\ncontract PRETSD is Ownable {\n    using SafeMath for uint256;\n    using Math for uint256;\n    // set up access to main contract for the future distribution\n    TSD dc;\n    // when the connection is set to the main contract, save a reference for event purposes\n    address public TSDContractAddress;\n    address private oracleAddress;\n\n    string public name = \"PRE TSD COIN\";\n    string public symbol = \"PRETSD\";\n    uint256 public decimals = 18;\n     // Helper value from 1 million and 1 thousand\n    uint256 public decimalMultiplier = uint256(10) ** decimals;\n    uint256 public million = 1000000 * decimalMultiplier;\n    uint256 public totalSupply = 165 * million;\n    uint256 public minPurchase = 500000; // 5,000.00 USD in cents\n    uint256 public exchangeRate;\n    uint256 public ethExchangeRate;\n    uint256 public tokenPrice = 50; // 50 cents (USD)\n    uint256 public totalEthRaised = 0;\n\n    // Coordinated Universal Time (abbreviated to UTC) is the primary time standard by which the world regulates clocks and time.\n\n    // Start time \"Wed Aug 01 2018 00:00:00 GMT+1000 (AEST)\"\n    // new Date(1533045600000).toUTCString() => \"Tue, 31 Jul 2018 14:00:00 GMT\"\n    uint256 public startTime = 1533045600000;\n    // Start time \"Tue Aug 21 2018 00:00:00 GMT+1000 (AEST)\"\n    // new Date(1534860000000).toUTCString() => \"Tue, 21 Aug 2018 14:00:00 GMT\"\n    uint256 public endTime = 1534860000000;\n    // Token release date 12 month post end date\n    // \"Thu Aug 01 2019 00:00:00 GMT+1000 (AEST)\"\n    // new Date(1564581600000).toUTCString() => \"Wed, 31 Jul 2019 14:00:00 GMT\"\n    uint256 public tokensReleaseDate = 1564581600000;\n\n    // Wallets\n    address public preFundsWallet;\n\n    // Array of participants used when distributing tokens to main contract\n    address[] public icoParticipants;\n\n    // whitelisted addresses\n    mapping (address => bool) public whiteListed;\n\n    // balances\n    mapping(address => uint256) balances;\n\n    // tranche discounts\n    uint16[4] tranches = [800, 840, 880, 925];\n    // tranche token size\n    uint256 trancheMaxTokenSize = totalSupply.div(tranches.length);\n\n    // When all tokens are sold this value will be set to false\n    bool public tokensAvailable = true;\n\n    // current distribution Index\n    uint256 public currentDistributionIndex = 0;\n\n    // Events\n    event EthRaisedUpdated(uint256 oldEthRaisedVal, uint256 newEthRaisedVal);\n    event ExchangeRateUpdated(uint256 prevExchangeRate, uint256 newExchangeRate);\n    event DistributedAllBalancesToTSDContract(address _presd, address _tsd);\n    event Transfer(address from, address to, uint256 value);\n    event UpdatedTotalSupply(uint256 oldSupply, uint256 newSupply);\n\n    constructor(\n        uint256 _ethExchangeRate\n    ) public {\n        preFundsWallet = owner;\n\n        // transfer suppy to the funds wallet\n        balances[preFundsWallet] = totalSupply;\n        emit Transfer(0x0, preFundsWallet, totalSupply);\n\n        // set exchange rate\n        updateTheExchangeRate(_ethExchangeRate);\n    }\n\n    // Contract utility functions\n    function currentTime() public view returns (uint256) {\n        return now * 1000;\n    }\n\n    // Checks the balance of the address. ERC20 standard.\n    function balanceOf(address _address) public view returns (uint256) {\n        return balances[_address];\n    }\n\n    // Called externally to create whitelist for  sale.\n    // Only whitelisted addresses can participate in the ico.\n    function createWhiteListedMapping(address[] _addresses) external onlyRestricted {\n        for (uint64 i = 0; i < _addresses.length; i++) {\n            whiteListed[_addresses[i]] = true;\n        }\n    }\n\n    // Called to remove addresses from whitelist\n    function removeFromWhitelist(address _address) external onlyRestricted {\n        delete whiteListed[_address];\n    }\n\n    // Called externally to change the address of the oracle.\n    // The oracle updates the exchange rate based on the current ETH value.\n    function changeOracleAddress(address _newAddress) external onlyOwner {\n        oracleAddress = _newAddress;\n    }\n\n    // Usage:\n    // Pass in the amount of tokens and the discount rate.\n    // If no discount is required pass in 100 as the rate value.\n    function tokenToEth(uint256 _tokens, uint16 _discountRate) internal view returns(uint256) {\n        //Using previous exchangerate\n        return _tokens.mul(_discountRate).div(1000).mul(exchangeRate).div(decimalMultiplier);\n    }\n\n\n    // Pass in the amount of eth and the discount rate.\n    // If no discount is required pass in 100 as the rate value.\n    function ethToToken(uint256 _eth, uint16 _discountRate) internal view returns(uint256) {\n        //return ((_eth / _rate * 100) * decimalMultiplier).div(exchangeRate);\n        return _eth.mul(1000).div(_discountRate).mul(decimalMultiplier).div(exchangeRate);\n    }\n\n     // Updates the ETH => TSD exchange rate\n     // The exchange rate is in USD cents to ETH.\n     // Example: 1 ETH = 500 USD then enter 50000 as the param.\n    function updateTheExchangeRate(uint256 _newRate) public onlyRestricted returns (bool) {\n        ethExchangeRate = _newRate;\n        uint256 currentRate = exchangeRate;\n        uint256 oneSzabo = 1 szabo;\n        uint256 tokenPriceInSzabo = tokenPrice.mul(1000000).div(_newRate);\n        // The exchangerate is saved in Szabo.\n        exchangeRate = oneSzabo.mul(tokenPriceInSzabo);\n        emit ExchangeRateUpdated(currentRate, exchangeRate);\n        return true;\n    }\n\n    // Can check to see if an address is whitelisted\n    function isWhiteListed(address _address) external view returns (bool) {\n        return whiteListed[_address];\n    }\n\n    // Buy functions\n    // This is an un-named fallback function that is set to payable to accept ether.\n    function() payable public {\n        buyTokens();\n    }\n\n    function buyTokens() payable public {\n        uint256 _currentTime = currentTime();\n        uint256 _minPurchaseInWei = minPurchase.mul(decimalMultiplier).div(ethExchangeRate);\n        require(tokensAvailable);\n        require(_currentTime >= startTime && _currentTime <= endTime);\n        require(whiteListed[msg.sender]);\n        require(msg.value >= _minPurchaseInWei);\n\n        uint256 ethAmount = msg.value;\n        uint256 tokenAmount = calculateTokenAmountWithDiscounts(ethAmount);\n        uint256 currentEthRaised = totalEthRaised;\n        uint256 ethRefund = 0;\n\n\n        // The tranching algorithm will only ever return a value equal or lower than the remainingTokens.\n        // If the tokenAmount is equal to the remaining tokens we know its the last purchase.\n        if (tokenAmount == balances[preFundsWallet]) {\n            // recalculate the amount of eth that can be spent for the remaining tokens.\n            uint256 totalRemainingCostOfTokens = calculateTotalRemainingTokenCost();\n            // determine the refund by subtracting the the new ethamount from what was originally sent in\n            ethRefund = ethAmount.sub(totalRemainingCostOfTokens);\n            ethAmount = ethAmount.sub(ethRefund);\n            // make the token purchase\n            // sub general token amount\n            uint256 remainingTokens = balances[preFundsWallet];\n            balances[preFundsWallet] = balances[preFundsWallet].sub(remainingTokens);\n\n            // adding the buyer to the icoParticipants ONLY if they haven't already bought before\n            if (balances[msg.sender] == 0) {\n                icoParticipants.push(msg.sender);\n            }\n            \n            // sub bonus token amount\n            balances[msg.sender] = balances[msg.sender].add(remainingTokens);\n            emit Transfer(preFundsWallet, msg.sender, remainingTokens);\n            \n            // refund\n            if (ethRefund > 0) {\n                msg.sender.transfer(ethRefund);\n            }\n            // transfer ether to funds wallet\n            preFundsWallet.transfer(ethAmount);\n            totalEthRaised = totalEthRaised.add(ethAmount);\n            emit EthRaisedUpdated(currentEthRaised, totalEthRaised);\n            // close token sale as tokens are sold out\n            tokensAvailable = false;\n        } else {\n            if (balances[msg.sender] == 0) {\n                icoParticipants.push(msg.sender);\n            }\n            // make the token purchase\n            // sub general token amount\n            balances[preFundsWallet] = balances[preFundsWallet].sub(tokenAmount);\n            balances[msg.sender] = balances[msg.sender].add(tokenAmount);\n\n            emit Transfer(preFundsWallet, msg.sender, tokenAmount);\n\n            // transfer ether to the wallet and emit and event regarding eth raised\n            preFundsWallet.transfer(ethAmount);\n            totalEthRaised = totalEthRaised.add(ethAmount);\n            emit EthRaisedUpdated(currentEthRaised, totalEthRaised);\n        }\n    }\n\n    function calculateTotalRemainingTokenCost() public view returns(uint256) {\n        uint256 totalCost = 0;\n        uint256 sold = totalSupply.sub(balances[preFundsWallet]);\n        // Calculate the remaining tranche tokens.\n        uint256 currentTrancheRemainder = totalSupply.sub(sold) % trancheMaxTokenSize;\n        // On the first initialisation we need to set the current tranche to a full tranche;\n        currentTrancheRemainder = currentTrancheRemainder == 0 ? trancheMaxTokenSize : currentTrancheRemainder;\n        // Calculate the current tranche we are in.\n        uint256 currentTranche = sold == 0 ? 0 : sold.sub(trancheMaxTokenSize.sub(currentTrancheRemainder)).div(trancheMaxTokenSize);\n        // Check all tranches to see if they are full.\n        // If they are full. Add the calculated tranche cost to the totalCost.\n        if (currentTranche < 3) {\n            totalCost = totalCost.add(tokenToEth(trancheMaxTokenSize, tranches[3]));\n        }\n        if (currentTranche < 2) {\n            totalCost = totalCost.add(tokenToEth(trancheMaxTokenSize, tranches[2]));\n        }\n        if (currentTranche < 1) {\n            totalCost = totalCost.add(tokenToEth(trancheMaxTokenSize, tranches[1]));\n        }\n        // Add the calculated tranche remainder costs to the totalCost.\n        totalCost = totalCost.add(tokenToEth(currentTrancheRemainder, tranches[currentTranche]));\n        return totalCost;\n    }\n\n    function calculateTokenAmountWithDiscounts(uint256 _ethAmount) public view returns(uint256) {\n        uint256 returnTokens = 0;\n        uint256 tokensFromTranche = 0;\n        uint256 ethRemaining = _ethAmount;\n        uint256 sold = totalSupply.sub(balances[preFundsWallet]);\n\n        // Calculate the remaining tranche tokens.\n        uint256 currentTrancheRemainder = totalSupply.sub(sold) % trancheMaxTokenSize;\n        // On the first initialisation we need to set the current tranche to a full tranche;\n        currentTrancheRemainder = currentTrancheRemainder == 0 ? trancheMaxTokenSize : currentTrancheRemainder;\n        // Calculate the current tranche we are in.\n        uint256 currentTranche = sold == 0 ? 0 : sold.sub(trancheMaxTokenSize.sub(currentTrancheRemainder)).div(trancheMaxTokenSize);\n\n        // Find the first tranche that matches the current tranche.\n        if (0 == currentTranche) {\n            // Find the lowest value tokens of the current tranche.\n            // Either return the total tranche tokens or the the tokens we can purchase with our ether.\n            tokensFromTranche = Math.min256(currentTrancheRemainder, ethToToken(ethRemaining, tranches[currentTranche]));\n            // Add the tokens to our return value.\n            returnTokens = returnTokens.add(tokensFromTranche);\n            // Subtract the ether we've spent on the tokens from the total ether we supplied.\n            ethRemaining = ethRemaining.sub(tokenToEth(tokensFromTranche, tranches[currentTranche]));\n            // Return the tokens if ether has reached 0;\n            if (ethRemaining == 0) return returnTokens;\n            // Otherwise set the next tranche remainder to a full tranche;\n            currentTrancheRemainder = trancheMaxTokenSize;\n            // Move us up one tranche.\n            currentTranche = currentTranche.add(1);\n        }\n        if (1 == currentTranche) {\n            tokensFromTranche = Math.min256(currentTrancheRemainder, ethToToken(ethRemaining, tranches[currentTranche]));\n            returnTokens = returnTokens.add(tokensFromTranche);\n            ethRemaining = ethRemaining.sub(tokenToEth(tokensFromTranche, tranches[currentTranche]));\n            if (ethRemaining == 0) return returnTokens;\n            currentTrancheRemainder = trancheMaxTokenSize;\n            currentTranche = currentTranche.add(1);\n        }\n        if (2 == currentTranche) {\n            tokensFromTranche = Math.min256(currentTrancheRemainder, ethToToken(ethRemaining, tranches[currentTranche]));\n            returnTokens = returnTokens.add(tokensFromTranche);\n            ethRemaining = ethRemaining.sub(tokenToEth(tokensFromTranche, tranches[currentTranche]));\n            if (ethRemaining == 0) return returnTokens;\n            currentTrancheRemainder = trancheMaxTokenSize;\n            currentTranche = currentTranche.add(1);\n        }\n        if (3 == currentTranche) {\n            tokensFromTranche = Math.min256(currentTrancheRemainder, ethToToken(ethRemaining, tranches[currentTranche]));\n            returnTokens = returnTokens.add(tokensFromTranche);\n            ethRemaining = ethRemaining.sub(tokenToEth(tokensFromTranche, tranches[currentTranche]));\n        }\n        return returnTokens;\n    }\n\n    // After close functions\n\n    // Create an instance of the main contract\n    function setMainContractAddress(address _t) external onlyOwner {\n        dc = TSD(_t);\n        TSDContractAddress = _t;\n    }\n\n    // Burn any remaining tokens\n    function burnRemainingTokens() external onlyOwner returns (bool) {\n        require(currentTime() >= endTime);\n        if (balances[preFundsWallet] > 0) {\n            // Subtracting the unsold tokens from the total supply.\n            uint256 oldSupply = totalSupply;\n            totalSupply = totalSupply.sub(balances[preFundsWallet]);\n            balances[preFundsWallet] = 0;\n            emit UpdatedTotalSupply(oldSupply, totalSupply);\n        }\n\n        return true;\n    }\n\n    // This can only be called by the owner on or after the token release date.\n    // This will be a two step process.\n    // This function will be called by the preSaleTokenWallet\n    // This wallet will need to be approved in the main contract to make these distributions\n    function distributeTokens(uint256 _numberOfTransfers) external onlyOwner returns (bool) {\n        require(currentTime() >= tokensReleaseDate);\n        address preSaleTokenWallet = dc.preSaleTokenWallet();\n        uint256 finalDistributionIndex = currentDistributionIndex.add(_numberOfTransfers);\n\n        for (uint256 i = currentDistributionIndex; i < finalDistributionIndex; i++) {\n            // end for loop when currentDistributionIndex reaches the length of the icoParticipants array\n            if (i == icoParticipants.length) {\n                return;\n            }\n            // skip transfer if balances are empty\n            if (balances[icoParticipants[i]] != 0) {\n                dc.transferFrom(preSaleTokenWallet, icoParticipants[i], balances[icoParticipants[i]]);\n                emit Transfer(preSaleTokenWallet, icoParticipants[i], balances[icoParticipants[i]]);\n                \n                // set balances to 0 to prevent re-transfer\n                balances[icoParticipants[i]] = 0;\n            }\n        }\n        // after distribution is complete set the currentDistributionIndex to the latest finalDistributionIndex\n        currentDistributionIndex = finalDistributionIndex;\n\n        // Event to say distribution is complete\n        emit DistributedAllBalancesToTSDContract(address(this), TSDContractAddress);\n\n        // Boolean is returned to give us a success state.\n        return true;\n    }\n\n    // sets start and end times\n    function setStartTime(uint256 _startTime) external onlyOwner returns (bool) {\n        // ensure the start time is before the end time\n        require(_startTime < endTime);\n        startTime = _startTime;\n        return true;\n    }\n\n    function setEndTime(uint256 _endTime) external onlyOwner returns (bool) {\n        // ensure the end time is after the start time\n        // and that is after the current time\n        require(_endTime > startTime && _endTime > currentTime());\n        endTime = _endTime;\n        return true;\n    }\n\n    // Destroys the contract\n    function selfDestruct() external onlyOwner {\n        selfdestruct(owner);\n    }\n\n    modifier onlyRestricted () {\n        require(msg.sender == owner || msg.sender == oracleAddress);\n        _;\n    }\n\n}\n",
  "sourcePath": "/Users/venkateshnamburi/Desktop/521/Projects/Transcendence/tsd_dapp/contracts/PRETSD.sol",
  "compiler": {
    "name": "solc",
    "version": "0.4.24+commit.e67f0147.Emscripten.clang"
  },
  "schemaVersion": "2.0.0",
  "updatedAt": "2018-06-27T16:44:40.342Z"
}