{
  "contractName": "PRETSD",
  "abi": [
    {
      "constant": true,
      "inputs": [],
      "name": "name",
      "outputs": [
        {
          "name": "",
          "type": "string"
        }
      ],
      "payable": false,
      "stateMutability": "view",
      "type": "function"
    },
    {
      "constant": true,
      "inputs": [],
      "name": "ethExchangeRate",
      "outputs": [
        {
          "name": "",
          "type": "uint256"
        }
      ],
      "payable": false,
      "stateMutability": "view",
      "type": "function"
    },
    {
      "constant": true,
      "inputs": [],
      "name": "totalSupply",
      "outputs": [
        {
          "name": "",
          "type": "uint256"
        }
      ],
      "payable": false,
      "stateMutability": "view",
      "type": "function"
    },
    {
      "constant": true,
      "inputs": [],
      "name": "decimalMultiplier",
      "outputs": [
        {
          "name": "",
          "type": "uint256"
        }
      ],
      "payable": false,
      "stateMutability": "view",
      "type": "function"
    },
    {
      "constant": true,
      "inputs": [],
      "name": "decimals",
      "outputs": [
        {
          "name": "",
          "type": "uint256"
        }
      ],
      "payable": false,
      "stateMutability": "view",
      "type": "function"
    },
    {
      "constant": true,
      "inputs": [],
      "name": "endTime",
      "outputs": [
        {
          "name": "",
          "type": "uint256"
        }
      ],
      "payable": false,
      "stateMutability": "view",
      "type": "function"
    },
    {
      "constant": true,
      "inputs": [],
      "name": "minPurchase",
      "outputs": [
        {
          "name": "",
          "type": "uint256"
        }
      ],
      "payable": false,
      "stateMutability": "view",
      "type": "function"
    },
    {
      "constant": true,
      "inputs": [],
      "name": "exchangeRate",
      "outputs": [
        {
          "name": "",
          "type": "uint256"
        }
      ],
      "payable": false,
      "stateMutability": "view",
      "type": "function"
    },
    {
      "constant": false,
      "inputs": [
        {
          "name": "_startTime",
          "type": "uint256"
        }
      ],
      "name": "setStartTime",
      "outputs": [
        {
          "name": "",
          "type": "bool"
        }
      ],
      "payable": false,
      "stateMutability": "nonpayable",
      "type": "function"
    },
    {
      "constant": false,
      "inputs": [
        {
          "name": "_to",
          "type": "address"
        },
        {
          "name": "_value",
          "type": "uint256"
        }
      ],
      "name": "safeTransfer",
      "outputs": [
        {
          "name": "",
          "type": "bool"
        }
      ],
      "payable": false,
      "stateMutability": "nonpayable",
      "type": "function"
    },
    {
      "constant": true,
      "inputs": [],
      "name": "TSDContractAddress",
      "outputs": [
        {
          "name": "",
          "type": "address"
        }
      ],
      "payable": false,
      "stateMutability": "view",
      "type": "function"
    },
    {
      "constant": true,
      "inputs": [],
      "name": "million",
      "outputs": [
        {
          "name": "",
          "type": "uint256"
        }
      ],
      "payable": false,
      "stateMutability": "view",
      "type": "function"
    },
    {
      "constant": true,
      "inputs": [],
      "name": "tokensAvailable",
      "outputs": [
        {
          "name": "",
          "type": "bool"
        }
      ],
      "payable": false,
      "stateMutability": "view",
      "type": "function"
    },
    {
      "constant": true,
      "inputs": [
        {
          "name": "_address",
          "type": "address"
        }
      ],
      "name": "isWhiteListed",
      "outputs": [
        {
          "name": "",
          "type": "bool"
        }
      ],
      "payable": false,
      "stateMutability": "view",
      "type": "function"
    },
    {
      "constant": true,
      "inputs": [],
      "name": "currentDistributionIndex",
      "outputs": [
        {
          "name": "",
          "type": "uint256"
        }
      ],
      "payable": false,
      "stateMutability": "view",
      "type": "function"
    },
    {
      "constant": true,
      "inputs": [
        {
          "name": "_address",
          "type": "address"
        }
      ],
      "name": "balanceOf",
      "outputs": [
        {
          "name": "",
          "type": "uint256"
        }
      ],
      "payable": false,
      "stateMutability": "view",
      "type": "function"
    },
    {
      "constant": false,
      "inputs": [],
      "name": "renounceOwnership",
      "outputs": [],
      "payable": false,
      "stateMutability": "nonpayable",
      "type": "function"
    },
    {
      "constant": true,
      "inputs": [],
      "name": "startTime",
      "outputs": [
        {
          "name": "",
          "type": "uint256"
        }
      ],
      "payable": false,
      "stateMutability": "view",
      "type": "function"
    },
    {
      "constant": true,
      "inputs": [],
      "name": "tokenPrice",
      "outputs": [
        {
          "name": "",
          "type": "uint256"
        }
      ],
      "payable": false,
      "stateMutability": "view",
      "type": "function"
    },
    {
      "constant": false,
      "inputs": [
        {
          "name": "_address",
          "type": "address"
        }
      ],
      "name": "removeFromWhitelist",
      "outputs": [],
      "payable": false,
      "stateMutability": "nonpayable",
      "type": "function"
    },
    {
      "constant": true,
      "inputs": [],
      "name": "owner",
      "outputs": [
        {
          "name": "",
          "type": "address"
        }
      ],
      "payable": false,
      "stateMutability": "view",
      "type": "function"
    },
    {
      "constant": true,
      "inputs": [],
      "name": "preFundsWallet",
      "outputs": [
        {
          "name": "",
          "type": "address"
        }
      ],
      "payable": false,
      "stateMutability": "view",
      "type": "function"
    },
    {
      "constant": true,
      "inputs": [],
      "name": "symbol",
      "outputs": [
        {
          "name": "",
          "type": "string"
        }
      ],
      "payable": false,
      "stateMutability": "view",
      "type": "function"
    },
    {
      "constant": false,
      "inputs": [],
      "name": "selfDestruct",
      "outputs": [],
      "payable": false,
      "stateMutability": "nonpayable",
      "type": "function"
    },
    {
      "constant": false,
      "inputs": [
        {
          "name": "_newRate",
          "type": "uint256"
        }
      ],
      "name": "updateTheExchangeRate",
      "outputs": [
        {
          "name": "",
          "type": "bool"
        }
      ],
      "payable": false,
      "stateMutability": "nonpayable",
      "type": "function"
    },
    {
      "constant": true,
      "inputs": [
        {
          "name": "",
          "type": "uint256"
        }
      ],
      "name": "icoParticipants",
      "outputs": [
        {
          "name": "",
          "type": "address"
        }
      ],
      "payable": false,
      "stateMutability": "view",
      "type": "function"
    },
    {
      "constant": true,
      "inputs": [],
      "name": "tokensReleaseDate",
      "outputs": [
        {
          "name": "",
          "type": "uint256"
        }
      ],
      "payable": false,
      "stateMutability": "view",
      "type": "function"
    },
    {
      "constant": false,
      "inputs": [
        {
          "name": "_addresses",
          "type": "address[]"
        }
      ],
      "name": "createWhiteListedMapping",
      "outputs": [],
      "payable": false,
      "stateMutability": "nonpayable",
      "type": "function"
    },
    {
      "constant": true,
      "inputs": [],
      "name": "totalEthRaised",
      "outputs": [
        {
          "name": "",
          "type": "uint256"
        }
      ],
      "payable": false,
      "stateMutability": "view",
      "type": "function"
    },
    {
      "constant": false,
      "inputs": [
        {
          "name": "_endTime",
          "type": "uint256"
        }
      ],
      "name": "setEndTime",
      "outputs": [
        {
          "name": "",
          "type": "bool"
        }
      ],
      "payable": false,
      "stateMutability": "nonpayable",
      "type": "function"
    },
    {
      "constant": true,
      "inputs": [],
      "name": "currentTime",
      "outputs": [
        {
          "name": "",
          "type": "uint256"
        }
      ],
      "payable": false,
      "stateMutability": "view",
      "type": "function"
    },
    {
      "constant": true,
      "inputs": [],
      "name": "dc",
      "outputs": [
        {
          "name": "",
          "type": "address"
        }
      ],
      "payable": false,
      "stateMutability": "view",
      "type": "function"
    },
    {
      "constant": false,
      "inputs": [
        {
          "name": "_t",
          "type": "address"
        }
      ],
      "name": "setMainContractAddress",
      "outputs": [],
      "payable": false,
      "stateMutability": "nonpayable",
      "type": "function"
    },
    {
      "constant": false,
      "inputs": [
        {
          "name": "newOwner",
          "type": "address"
        }
      ],
      "name": "transferOwnership",
      "outputs": [],
      "payable": false,
      "stateMutability": "nonpayable",
      "type": "function"
    },
    {
      "constant": true,
      "inputs": [
        {
          "name": "",
          "type": "address"
        }
      ],
      "name": "whiteListed",
      "outputs": [
        {
          "name": "",
          "type": "bool"
        }
      ],
      "payable": false,
      "stateMutability": "view",
      "type": "function"
    },
    {
      "constant": false,
      "inputs": [
        {
          "name": "_newAddress",
          "type": "address"
        }
      ],
      "name": "changeOracleAddress",
      "outputs": [],
      "payable": false,
      "stateMutability": "nonpayable",
      "type": "function"
    },
    {
      "inputs": [
        {
          "name": "_ethExchangeRate",
          "type": "uint256"
        }
      ],
      "payable": false,
      "stateMutability": "nonpayable",
      "type": "constructor"
    },
    {
      "payable": true,
      "stateMutability": "payable",
      "type": "fallback"
    },
    {
      "anonymous": false,
      "inputs": [
        {
          "indexed": false,
          "name": "oldEthRaisedVal",
          "type": "uint256"
        },
        {
          "indexed": false,
          "name": "newEthRaisedVal",
          "type": "uint256"
        }
      ],
      "name": "EthRaisedUpdated",
      "type": "event"
    },
    {
      "anonymous": false,
      "inputs": [
        {
          "indexed": false,
          "name": "prevExchangeRate",
          "type": "uint256"
        },
        {
          "indexed": false,
          "name": "newExchangeRate",
          "type": "uint256"
        }
      ],
      "name": "ExchangeRateUpdated",
      "type": "event"
    },
    {
      "anonymous": false,
      "inputs": [
        {
          "indexed": false,
          "name": "_presd",
          "type": "address"
        },
        {
          "indexed": false,
          "name": "_tsd",
          "type": "address"
        }
      ],
      "name": "DistributedAllBalancesToTSDContract",
      "type": "event"
    },
    {
      "anonymous": false,
      "inputs": [
        {
          "indexed": false,
          "name": "from",
          "type": "address"
        },
        {
          "indexed": false,
          "name": "to",
          "type": "address"
        },
        {
          "indexed": false,
          "name": "value",
          "type": "uint256"
        }
      ],
      "name": "Transfer",
      "type": "event"
    },
    {
      "anonymous": false,
      "inputs": [
        {
          "indexed": false,
          "name": "oldSupply",
          "type": "uint256"
        },
        {
          "indexed": false,
          "name": "newSupply",
          "type": "uint256"
        }
      ],
      "name": "UpdatedTotalSupply",
      "type": "event"
    },
    {
      "anonymous": false,
      "inputs": [
        {
          "indexed": true,
          "name": "previousOwner",
          "type": "address"
        }
      ],
      "name": "OwnershipRenounced",
      "type": "event"
    },
    {
      "anonymous": false,
      "inputs": [
        {
          "indexed": true,
          "name": "previousOwner",
          "type": "address"
        },
        {
          "indexed": true,
          "name": "newOwner",
          "type": "address"
        }
      ],
      "name": "OwnershipTransferred",
      "type": "event"
    },
    {
      "constant": false,
      "inputs": [],
      "name": "buyTokens",
      "outputs": [],
      "payable": true,
      "stateMutability": "payable",
      "type": "function"
    },
    {
      "constant": true,
      "inputs": [],
      "name": "calculateTotalRemainingTokenCost",
      "outputs": [
        {
          "name": "",
          "type": "uint256"
        }
      ],
      "payable": false,
      "stateMutability": "view",
      "type": "function"
    },
    {
      "constant": true,
      "inputs": [
        {
          "name": "_ethAmount",
          "type": "uint256"
        }
      ],
      "name": "calculateTokenAmountWithDiscounts",
      "outputs": [
        {
          "name": "",
          "type": "uint256"
        }
      ],
      "payable": false,
      "stateMutability": "view",
      "type": "function"
    },
    {
      "constant": false,
      "inputs": [],
      "name": "burnRemainingTokens",
      "outputs": [
        {
          "name": "",
          "type": "bool"
        }
      ],
      "payable": false,
      "stateMutability": "nonpayable",
      "type": "function"
    },
    {
      "constant": false,
      "inputs": [
        {
          "name": "_numberOfTransfers",
          "type": "uint256"
        }
      ],
      "name": "distributeTokens",
      "outputs": [
        {
          "name": "",
          "type": "bool"
        }
      ],
      "payable": false,
      "stateMutability": "nonpayable",
      "type": "function"
    }
  ],
  "bytecode": "0x60806040526012600455600454600a0a600555600554620f42400260065560326007556000600a556001601160006101000a81548160ff02191690831515021790555060006012556040805190810160405280600c81526020017f5052452054534420434f494e000000000000000000000000000000000000000081525060139080519060200190620000949291906200057f565b506040805190810160405280600681526020017f505245545344000000000000000000000000000000000000000000000000000081525060149080519060200190620000e29291906200057f565b5060065460f0026015556207a12060165560806040519081016040528061032061ffff16815260200161034861ffff16815260200161037061ffff16815260200161039d61ffff1681525060189060046200013f92919062000606565b506200016660046015546200039b6401000000000262003873179091906401000000009004565b6019553480156200017657600080fd5b50604051602080620040d383398101806040528101908080519060200190929190505050336000806101000a81548173ffffffffffffffffffffffffffffffffffffffff021916908373ffffffffffffffffffffffffffffffffffffffff1602179055506000809054906101000a900473ffffffffffffffffffffffffffffffffffffffff16601760006101000a81548173ffffffffffffffffffffffffffffffffffffffff021916908373ffffffffffffffffffffffffffffffffffffffff16021790555060155460106000601760009054906101000a900473ffffffffffffffffffffffffffffffffffffffff1673ffffffffffffffffffffffffffffffffffffffff1673ffffffffffffffffffffffffffffffffffffffff168152602001908152602001600020819055507fddf252ad1be2c89b69c2b068fc378daa952ba7f163c4a11628f55a4df523b3ef6000601760009054906101000a900473ffffffffffffffffffffffffffffffffffffffff16601554604051808473ffffffffffffffffffffffffffffffffffffffff1681526020018373ffffffffffffffffffffffffffffffffffffffff1673ffffffffffffffffffffffffffffffffffffffff168152602001828152602001935050505060405180910390a16200036c81620003b2640100000000026401000000009004565b50650164f0a36f00600b819055506501655cc8fb00600c8190555065016c48549b00600d819055505062000706565b60008183811515620003a957fe5b04905092915050565b6000806000806000809054906101000a900473ffffffffffffffffffffffffffffffffffffffff1673ffffffffffffffffffffffffffffffffffffffff163373ffffffffffffffffffffffffffffffffffffffff161480620004615750600360009054906101000a900473ffffffffffffffffffffffffffffffffffffffff1673ffffffffffffffffffffffffffffffffffffffff163373ffffffffffffffffffffffffffffffffffffffff16145b15156200046d57600080fd5b84600881905550600954925064e8d4a510009150620004cb85620004ae620f424060075462000543640100000000026200383b179091906401000000009004565b6200039b6401000000000262003873179091906401000000009004565b9050620004f0818362000543640100000000026200383b179091906401000000009004565b6009819055507fc8d1043f24843c0a1c9251fdc30017d84e87498fbcf232af9f86816b5e182bde83600954604051808381526020018281526020019250505060405180910390a160019350505050919050565b60008083141562000558576000905062000579565b81830290508183828115156200056a57fe5b041415156200057557fe5b8090505b92915050565b828054600181600116156101000203166002900490600052602060002090601f016020900481019282601f10620005c257805160ff1916838001178555620005f3565b82800160010185558215620005f3579182015b82811115620005f2578251825591602001919060010190620005d5565b5b509050620006029190620006aa565b5090565b826004600f01601090048101928215620006975791602002820160005b838211156200066557835183826101000a81548161ffff021916908361ffff160217905550926020019260020160208160010104928301926001030262000623565b8015620006955782816101000a81549061ffff021916905560020160208160010104928301926001030262000665565b505b509050620006a69190620006d2565b5090565b620006cf91905b80821115620006cb576000816000905550600101620006b1565b5090565b90565b6200070391905b80821115620006ff57600081816101000a81549061ffff021916905550600101620006d9565b5090565b90565b6139bd80620007166000396000f3006080604052600436106101f9576000357c0100000000000000000000000000000000000000000000000000000000900463ffffffff16806306fdde03146102035780630b961e481461029357806318160ddd146102be5780633082538f146102e9578063313ce567146103145780633197cbb61461033f57806333b5b62e1461036a5780633ba0b9a9146103955780633e0a322d146103c0578063423f6cef146104055780634a54839d1461046a5780634e9c6b1f146104c157806360659a92146104ec5780636f9170f61461051b5780636ff85ea91461057657806370a08231146105a1578063715018a6146105f85780637366794e1461060f57806378e97925146106545780637ff9b5961461067f57806383408d73146106aa5780638ab1d681146106d95780638da5cb5b1461071c57806391974d8e1461077357806395d89b41146107ca5780639cb8a26a1461085a578063a229c61414610871578063a256ea3a146108b6578063a5e5cdba14610923578063afe07f591461094e578063b9cdd19b14610979578063c9e904be146109b4578063ccb98ffc146109df578063d0febe4c14610a24578063d18e81b314610a2e578063d8a531a614610a59578063e0181ade14610ab0578063ec9da59e14610af1578063f2fde38b14610b34578063fa0fca8414610b77578063fb349dbd14610bd2575b610201610c15565b005b34801561020f57600080fd5b506102186117c3565b6040518080602001828103825283818151815260200191508051906020019080838360005b8381101561025857808201518184015260208101905061023d565b50505050905090810190601f1680156102855780820380516001836020036101000a031916815260200191505b509250505060405180910390f35b34801561029f57600080fd5b506102a8611861565b6040518082815260200191505060405180910390f35b3480156102ca57600080fd5b506102d3611867565b6040518082815260200191505060405180910390f35b3480156102f557600080fd5b506102fe61186d565b6040518082815260200191505060405180910390f35b34801561032057600080fd5b50610329611873565b6040518082815260200191505060405180910390f35b34801561034b57600080fd5b50610354611879565b6040518082815260200191505060405180910390f35b34801561037657600080fd5b5061037f61187f565b6040518082815260200191505060405180910390f35b3480156103a157600080fd5b506103aa611885565b6040518082815260200191505060405180910390f35b3480156103cc57600080fd5b506103eb6004803603810190808035906020019092919050505061188b565b604051808215151515815260200191505060405180910390f35b34801561041157600080fd5b50610450600480360381019080803573ffffffffffffffffffffffffffffffffffffffff16906020019092919080359060200190929190505050611908565b604051808215151515815260200191505060405180910390f35b34801561047657600080fd5b5061047f611c71565b604051808273ffffffffffffffffffffffffffffffffffffffff1673ffffffffffffffffffffffffffffffffffffffff16815260200191505060405180910390f35b3480156104cd57600080fd5b506104d6611c97565b6040518082815260200191505060405180910390f35b3480156104f857600080fd5b50610501611c9d565b604051808215151515815260200191505060405180910390f35b34801561052757600080fd5b5061055c600480360381019080803573ffffffffffffffffffffffffffffffffffffffff169060200190929190505050611cb0565b604051808215151515815260200191505060405180910390f35b34801561058257600080fd5b5061058b611d06565b6040518082815260200191505060405180910390f35b3480156105ad57600080fd5b506105e2600480360381019080803573ffffffffffffffffffffffffffffffffffffffff169060200190929190505050611d0c565b6040518082815260200191505060405180910390f35b34801561060457600080fd5b5061060d611d55565b005b34801561061b57600080fd5b5061063a60048036038101908080359060200190929190505050611e57565b604051808215151515815260200191505060405180910390f35b34801561066057600080fd5b506106696125c2565b6040518082815260200191505060405180910390f35b34801561068b57600080fd5b506106946125c8565b6040518082815260200191505060405180910390f35b3480156106b657600080fd5b506106bf6125ce565b604051808215151515815260200191505060405180910390f35b3480156106e557600080fd5b5061071a600480360381019080803573ffffffffffffffffffffffffffffffffffffffff16906020019092919050505061286f565b005b34801561072857600080fd5b50610731612974565b604051808273ffffffffffffffffffffffffffffffffffffffff1673ffffffffffffffffffffffffffffffffffffffff16815260200191505060405180910390f35b34801561077f57600080fd5b50610788612999565b604051808273ffffffffffffffffffffffffffffffffffffffff1673ffffffffffffffffffffffffffffffffffffffff16815260200191505060405180910390f35b3480156107d657600080fd5b506107df6129bf565b6040518080602001828103825283818151815260200191508051906020019080838360005b8381101561081f578082015181840152602081019050610804565b50505050905090810190601f16801561084c5780820380516001836020036101000a031916815260200191505b509250505060405180910390f35b34801561086657600080fd5b5061086f612a5d565b005b34801561087d57600080fd5b5061089c60048036038101908080359060200190929190505050612af2565b604051808215151515815260200191505060405180910390f35b3480156108c257600080fd5b506108e160048036038101908080359060200190929190505050612c51565b604051808273ffffffffffffffffffffffffffffffffffffffff1673ffffffffffffffffffffffffffffffffffffffff16815260200191505060405180910390f35b34801561092f57600080fd5b50610938612c8f565b6040518082815260200191505060405180910390f35b34801561095a57600080fd5b50610963612ee0565b6040518082815260200191505060405180910390f35b34801561098557600080fd5b506109b2600480360381019080803590602001908201803590602001919091929391929390505050612ee6565b005b3480156109c057600080fd5b506109c9613053565b6040518082815260200191505060405180910390f35b3480156109eb57600080fd5b50610a0a60048036038101908080359060200190929190505050613059565b604051808215151515815260200191505060405180910390f35b610a2c610c15565b005b348015610a3a57600080fd5b50610a436130e8565b6040518082815260200191505060405180910390f35b348015610a6557600080fd5b50610a6e6130f4565b604051808273ffffffffffffffffffffffffffffffffffffffff1673ffffffffffffffffffffffffffffffffffffffff16815260200191505060405180910390f35b348015610abc57600080fd5b50610adb6004803603810190808035906020019092919050505061311a565b6040518082815260200191505060405180910390f35b348015610afd57600080fd5b50610b32600480360381019080803573ffffffffffffffffffffffffffffffffffffffff169060200190929190505050613547565b005b348015610b4057600080fd5b50610b75600480360381019080803573ffffffffffffffffffffffffffffffffffffffff169060200190929190505050613627565b005b348015610b8357600080fd5b50610bb8600480360381019080803573ffffffffffffffffffffffffffffffffffffffff16906020019092919050505061377c565b604051808215151515815260200191505060405180910390f35b348015610bde57600080fd5b50610c13600480360381019080803573ffffffffffffffffffffffffffffffffffffffff16906020019092919050505061379c565b005b600080600080600080600080610c296130e8565b9750610c56600854610c4860055460165461383b90919063ffffffff16565b61387390919063ffffffff16565b9650601160009054906101000a900460ff161515610cdc576040517f08c379a00000000000000000000000000000000000000000000000000000000081526004018080602001828103825260188152602001807f6e6f206d6f726520746f6b656e7320617661696c61626c65000000000000000081525060200191505060405180910390fd5b600b548810158015610cf05750600c548811155b1515610d8a576040517f08c379a00000000000000000000000000000000000000000000000000000000081526004018080602001828103825260308152602001807f63757272656e742074696d65206973206e6f7420696e2074686520707572636881526020017f6173652077696e646f77206672616d650000000000000000000000000000000081525060400191505060405180910390fd5b600f60003373ffffffffffffffffffffffffffffffffffffffff1673ffffffffffffffffffffffffffffffffffffffff16815260200190815260200160002060009054906101000a900460ff161515610e71576040517f08c379a00000000000000000000000000000000000000000000000000000000081526004018080602001828103825260258152602001807f616d6f756e742073656e742069732062656c6f77206d696e696d756d2070757281526020017f636861736500000000000000000000000000000000000000000000000000000081525060400191505060405180910390fd5b863410151515610ee9576040517f08c379a00000000000000000000000000000000000000000000000000000000081526004018080602001828103825260178152602001807f75736572206973206e6f742077686974656c697374656400000000000000000081525060200191505060405180910390fd5b349550610ef58661311a565b9450600a5493506000925060106000601760009054906101000a900473ffffffffffffffffffffffffffffffffffffffff1673ffffffffffffffffffffffffffffffffffffffff1673ffffffffffffffffffffffffffffffffffffffff1681526020019081526020016000205485141561141557610f71612c8f565b9150610f86828761388990919063ffffffff16565b9250610f9b838761388990919063ffffffff16565b955060106000601760009054906101000a900473ffffffffffffffffffffffffffffffffffffffff1673ffffffffffffffffffffffffffffffffffffffff1673ffffffffffffffffffffffffffffffffffffffff1681526020019081526020016000205490506110758160106000601760009054906101000a900473ffffffffffffffffffffffffffffffffffffffff1673ffffffffffffffffffffffffffffffffffffffff1673ffffffffffffffffffffffffffffffffffffffff1681526020019081526020016000205461388990919063ffffffff16565b60106000601760009054906101000a900473ffffffffffffffffffffffffffffffffffffffff1673ffffffffffffffffffffffffffffffffffffffff1673ffffffffffffffffffffffffffffffffffffffff168152602001908152602001600020819055506000601060003373ffffffffffffffffffffffffffffffffffffffff1673ffffffffffffffffffffffffffffffffffffffff16815260200190815260200160002054141561118957600e3390806001815401808255809150509060018203906000526020600020016000909192909190916101000a81548173ffffffffffffffffffffffffffffffffffffffff021916908373ffffffffffffffffffffffffffffffffffffffff160217905550505b6111db81601060003373ffffffffffffffffffffffffffffffffffffffff1673ffffffffffffffffffffffffffffffffffffffff168152602001908152602001600020546138a290919063ffffffff16565b601060003373ffffffffffffffffffffffffffffffffffffffff1673ffffffffffffffffffffffffffffffffffffffff168152602001908152602001600020819055507fddf252ad1be2c89b69c2b068fc378daa952ba7f163c4a11628f55a4df523b3ef601760009054906101000a900473ffffffffffffffffffffffffffffffffffffffff163383604051808473ffffffffffffffffffffffffffffffffffffffff1673ffffffffffffffffffffffffffffffffffffffff1681526020018373ffffffffffffffffffffffffffffffffffffffff1673ffffffffffffffffffffffffffffffffffffffff168152602001828152602001935050505060405180910390a16000831115611330573373ffffffffffffffffffffffffffffffffffffffff166108fc849081150290604051600060405180830381858888f1935050505015801561132e573d6000803e3d6000fd5b505b601760009054906101000a900473ffffffffffffffffffffffffffffffffffffffff1673ffffffffffffffffffffffffffffffffffffffff166108fc879081150290604051600060405180830381858888f19350505050158015611398573d6000803e3d6000fd5b506113ae86600a546138a290919063ffffffff16565b600a819055507f4014ce514c76bad08328a2a6046bac14007f7aad2c56c84c66acf8ca1c64bee884600a54604051808381526020018281526020019250505060405180910390a16000601160006101000a81548160ff0219169083151502179055506117b9565b6000601060003373ffffffffffffffffffffffffffffffffffffffff1673ffffffffffffffffffffffffffffffffffffffff1681526020019081526020016000205414156114c457600e3390806001815401808255809150509060018203906000526020600020016000909192909190916101000a81548173ffffffffffffffffffffffffffffffffffffffff021916908373ffffffffffffffffffffffffffffffffffffffff160217905550505b6115388560106000601760009054906101000a900473ffffffffffffffffffffffffffffffffffffffff1673ffffffffffffffffffffffffffffffffffffffff1673ffffffffffffffffffffffffffffffffffffffff1681526020019081526020016000205461388990919063ffffffff16565b60106000601760009054906101000a900473ffffffffffffffffffffffffffffffffffffffff1673ffffffffffffffffffffffffffffffffffffffff1673ffffffffffffffffffffffffffffffffffffffff168152602001908152602001600020819055506115ef85601060003373ffffffffffffffffffffffffffffffffffffffff1673ffffffffffffffffffffffffffffffffffffffff168152602001908152602001600020546138a290919063ffffffff16565b601060003373ffffffffffffffffffffffffffffffffffffffff1673ffffffffffffffffffffffffffffffffffffffff168152602001908152602001600020819055507fddf252ad1be2c89b69c2b068fc378daa952ba7f163c4a11628f55a4df523b3ef601760009054906101000a900473ffffffffffffffffffffffffffffffffffffffff163387604051808473ffffffffffffffffffffffffffffffffffffffff1673ffffffffffffffffffffffffffffffffffffffff1681526020018373ffffffffffffffffffffffffffffffffffffffff1673ffffffffffffffffffffffffffffffffffffffff168152602001828152602001935050505060405180910390a1601760009054906101000a900473ffffffffffffffffffffffffffffffffffffffff1673ffffffffffffffffffffffffffffffffffffffff166108fc879081150290604051600060405180830381858888f1935050505015801561175b573d6000803e3d6000fd5b5061177186600a546138a290919063ffffffff16565b600a819055507f4014ce514c76bad08328a2a6046bac14007f7aad2c56c84c66acf8ca1c64bee884600a54604051808381526020018281526020019250505060405180910390a15b5050505050505050565b60138054600181600116156101000203166002900480601f0160208091040260200160405190810160405280929190818152602001828054600181600116156101000203166002900480156118595780601f1061182e57610100808354040283529160200191611859565b820191906000526020600020905b81548152906001019060200180831161183c57829003601f168201915b505050505081565b60085481565b60155481565b60055481565b60045481565b600c5481565b60165481565b60095481565b60008060009054906101000a900473ffffffffffffffffffffffffffffffffffffffff1673ffffffffffffffffffffffffffffffffffffffff163373ffffffffffffffffffffffffffffffffffffffff161415156118e857600080fd5b600c54821015156118f857600080fd5b81600b8190555060019050919050565b60008060009054906101000a900473ffffffffffffffffffffffffffffffffffffffff1673ffffffffffffffffffffffffffffffffffffffff163373ffffffffffffffffffffffffffffffffffffffff1614151561196557600080fd5b600073ffffffffffffffffffffffffffffffffffffffff168373ffffffffffffffffffffffffffffffffffffffff16141515156119a157600080fd5b601060003373ffffffffffffffffffffffffffffffffffffffff1673ffffffffffffffffffffffffffffffffffffffff1681526020019081526020016000205482111515156119ef57600080fd5b6000601060003373ffffffffffffffffffffffffffffffffffffffff1673ffffffffffffffffffffffffffffffffffffffff168152602001908152602001600020541415611a9e57600e3390806001815401808255809150509060018203906000526020600020016000909192909190916101000a81548173ffffffffffffffffffffffffffffffffffffffff021916908373ffffffffffffffffffffffffffffffffffffffff160217905550505b611af082601060003373ffffffffffffffffffffffffffffffffffffffff1673ffffffffffffffffffffffffffffffffffffffff1681526020019081526020016000205461388990919063ffffffff16565b601060003373ffffffffffffffffffffffffffffffffffffffff1673ffffffffffffffffffffffffffffffffffffffff16815260200190815260200160002081905550611b8582601060008673ffffffffffffffffffffffffffffffffffffffff1673ffffffffffffffffffffffffffffffffffffffff168152602001908152602001600020546138a290919063ffffffff16565b601060008573ffffffffffffffffffffffffffffffffffffffff1673ffffffffffffffffffffffffffffffffffffffff168152602001908152602001600020819055507fddf252ad1be2c89b69c2b068fc378daa952ba7f163c4a11628f55a4df523b3ef338484604051808473ffffffffffffffffffffffffffffffffffffffff1673ffffffffffffffffffffffffffffffffffffffff1681526020018373ffffffffffffffffffffffffffffffffffffffff1673ffffffffffffffffffffffffffffffffffffffff168152602001828152602001935050505060405180910390a16001905092915050565b600260009054906101000a900473ffffffffffffffffffffffffffffffffffffffff1681565b60065481565b601160009054906101000a900460ff1681565b6000600f60008373ffffffffffffffffffffffffffffffffffffffff1673ffffffffffffffffffffffffffffffffffffffff16815260200190815260200160002060009054906101000a900460ff169050919050565b60125481565b6000601060008373ffffffffffffffffffffffffffffffffffffffff1673ffffffffffffffffffffffffffffffffffffffff168152602001908152602001600020549050919050565b6000809054906101000a900473ffffffffffffffffffffffffffffffffffffffff1673ffffffffffffffffffffffffffffffffffffffff163373ffffffffffffffffffffffffffffffffffffffff16141515611db057600080fd5b6000809054906101000a900473ffffffffffffffffffffffffffffffffffffffff1673ffffffffffffffffffffffffffffffffffffffff167ff8df31144d9c2f0f6b59d69b8b98abd5459d07f2742c4df920b25aae33c6482060405160405180910390a260008060006101000a81548173ffffffffffffffffffffffffffffffffffffffff021916908373ffffffffffffffffffffffffffffffffffffffff160217905550565b6000806000806000809054906101000a900473ffffffffffffffffffffffffffffffffffffffff1673ffffffffffffffffffffffffffffffffffffffff163373ffffffffffffffffffffffffffffffffffffffff161480611f055750600360009054906101000a900473ffffffffffffffffffffffffffffffffffffffff1673ffffffffffffffffffffffffffffffffffffffff163373ffffffffffffffffffffffffffffffffffffffff16145b1515611f1057600080fd5b600d54611f1b6130e8565b10151515611fb7576040517f08c379a000000000000000000000000000000000000000000000000000000000815260040180806020018281038252602b8152602001807f63616e206f6e6c79206469737472696275746520616674657220746f6b656e7381526020017f52656c656173654461746500000000000000000000000000000000000000000081525060400191505060405180910390fd5b600160009054906101000a900473ffffffffffffffffffffffffffffffffffffffff1673ffffffffffffffffffffffffffffffffffffffff1663dadf17296040518163ffffffff167c0100000000000000000000000000000000000000000000000000000000028152600401602060405180830381600087803b15801561203d57600080fd5b505af1158015612051573d6000803e3d6000fd5b505050506040513d602081101561206757600080fd5b8101908080519060200190929190505050925061208f856012546138a290919063ffffffff16565b915060125490505b818110156124f557600e805490508114156120b1576125ba565b600060106000600e848154811015156120c657fe5b9060005260206000200160009054906101000a900473ffffffffffffffffffffffffffffffffffffffff1673ffffffffffffffffffffffffffffffffffffffff1673ffffffffffffffffffffffffffffffffffffffff168152602001908152602001600020541415156124e857600160009054906101000a900473ffffffffffffffffffffffffffffffffffffffff1673ffffffffffffffffffffffffffffffffffffffff166323b872dd84600e8481548110151561218157fe5b9060005260206000200160009054906101000a900473ffffffffffffffffffffffffffffffffffffffff1660106000600e878154811015156121bf57fe5b9060005260206000200160009054906101000a900473ffffffffffffffffffffffffffffffffffffffff1673ffffffffffffffffffffffffffffffffffffffff1673ffffffffffffffffffffffffffffffffffffffff168152602001908152602001600020546040518463ffffffff167c0100000000000000000000000000000000000000000000000000000000028152600401808473ffffffffffffffffffffffffffffffffffffffff1673ffffffffffffffffffffffffffffffffffffffff1681526020018373ffffffffffffffffffffffffffffffffffffffff1673ffffffffffffffffffffffffffffffffffffffff1681526020018281526020019350505050602060405180830381600087803b1580156122dd57600080fd5b505af11580156122f1573d6000803e3d6000fd5b505050506040513d602081101561230757600080fd5b8101908080519060200190929190505050507fddf252ad1be2c89b69c2b068fc378daa952ba7f163c4a11628f55a4df523b3ef83600e8381548110151561234a57fe5b9060005260206000200160009054906101000a900473ffffffffffffffffffffffffffffffffffffffff1660106000600e8681548110151561238857fe5b9060005260206000200160009054906101000a900473ffffffffffffffffffffffffffffffffffffffff1673ffffffffffffffffffffffffffffffffffffffff1673ffffffffffffffffffffffffffffffffffffffff16815260200190815260200160002054604051808473ffffffffffffffffffffffffffffffffffffffff1673ffffffffffffffffffffffffffffffffffffffff1681526020018373ffffffffffffffffffffffffffffffffffffffff1673ffffffffffffffffffffffffffffffffffffffff168152602001828152602001935050505060405180910390a1600060106000600e8481548110151561247e57fe5b9060005260206000200160009054906101000a900473ffffffffffffffffffffffffffffffffffffffff1673ffffffffffffffffffffffffffffffffffffffff1673ffffffffffffffffffffffffffffffffffffffff168152602001908152602001600020819055505b8080600101915050612097565b816012819055507f5fc214609a6cb66e8182b2a4d291dda75b365e02c065872483a7a875e54d7e1830600260009054906101000a900473ffffffffffffffffffffffffffffffffffffffff16604051808373ffffffffffffffffffffffffffffffffffffffff1673ffffffffffffffffffffffffffffffffffffffff1681526020018273ffffffffffffffffffffffffffffffffffffffff1673ffffffffffffffffffffffffffffffffffffffff1681526020019250505060405180910390a1600193505b505050919050565b600b5481565b60075481565b6000806000809054906101000a900473ffffffffffffffffffffffffffffffffffffffff1673ffffffffffffffffffffffffffffffffffffffff163373ffffffffffffffffffffffffffffffffffffffff1614151561262c57600080fd5b600c546126376130e8565b101515156126d3576040517f08c379a00000000000000000000000000000000000000000000000000000000081526004018080602001828103825260338152602001807f63616e206f6e6c79206275726e20746f6b656e7320616674657220746f6b656e81526020017f2073616c652068617320636f6e636c756465640000000000000000000000000081525060400191505060405180910390fd5b600060106000601760009054906101000a900473ffffffffffffffffffffffffffffffffffffffff1673ffffffffffffffffffffffffffffffffffffffff1673ffffffffffffffffffffffffffffffffffffffff1681526020019081526020016000205411156128675760155490506127b860106000601760009054906101000a900473ffffffffffffffffffffffffffffffffffffffff1673ffffffffffffffffffffffffffffffffffffffff1673ffffffffffffffffffffffffffffffffffffffff1681526020019081526020016000205460155461388990919063ffffffff16565b601581905550600060106000601760009054906101000a900473ffffffffffffffffffffffffffffffffffffffff1673ffffffffffffffffffffffffffffffffffffffff1673ffffffffffffffffffffffffffffffffffffffff168152602001908152602001600020819055507f8a96e7229e5b018dff0425d91c96d3f7d93cae0b891ff020eef8b1686e1a6a1081601554604051808381526020018281526020019250505060405180910390a15b600191505090565b6000809054906101000a900473ffffffffffffffffffffffffffffffffffffffff1673ffffffffffffffffffffffffffffffffffffffff163373ffffffffffffffffffffffffffffffffffffffff1614806129175750600360009054906101000a900473ffffffffffffffffffffffffffffffffffffffff1673ffffffffffffffffffffffffffffffffffffffff163373ffffffffffffffffffffffffffffffffffffffff16145b151561292257600080fd5b600f60008273ffffffffffffffffffffffffffffffffffffffff1673ffffffffffffffffffffffffffffffffffffffff16815260200190815260200160002060006101000a81549060ff021916905550565b6000809054906101000a900473ffffffffffffffffffffffffffffffffffffffff1681565b601760009054906101000a900473ffffffffffffffffffffffffffffffffffffffff1681565b60148054600181600116156101000203166002900480601f016020809104026020016040519081016040528092919081815260200182805460018160011615610100020316600290048015612a555780601f10612a2a57610100808354040283529160200191612a55565b820191906000526020600020905b815481529060010190602001808311612a3857829003601f168201915b505050505081565b6000809054906101000a900473ffffffffffffffffffffffffffffffffffffffff1673ffffffffffffffffffffffffffffffffffffffff163373ffffffffffffffffffffffffffffffffffffffff16141515612ab857600080fd5b6000809054906101000a900473ffffffffffffffffffffffffffffffffffffffff1673ffffffffffffffffffffffffffffffffffffffff16ff5b6000806000806000809054906101000a900473ffffffffffffffffffffffffffffffffffffffff1673ffffffffffffffffffffffffffffffffffffffff163373ffffffffffffffffffffffffffffffffffffffff161480612ba05750600360009054906101000a900473ffffffffffffffffffffffffffffffffffffffff1673ffffffffffffffffffffffffffffffffffffffff163373ffffffffffffffffffffffffffffffffffffffff16145b1515612bab57600080fd5b84600881905550600954925064e8d4a510009150612be985612bdb620f424060075461383b90919063ffffffff16565b61387390919063ffffffff16565b9050612bfe818361383b90919063ffffffff16565b6009819055507fc8d1043f24843c0a1c9251fdc30017d84e87498fbcf232af9f86816b5e182bde83600954604051808381526020018281526020019250505060405180910390a160019350505050919050565b600e81815481101515612c6057fe5b906000526020600020016000915054906101000a900473ffffffffffffffffffffffffffffffffffffffff1681565b6000806000806000809350612d1060106000601760009054906101000a900473ffffffffffffffffffffffffffffffffffffffff1673ffffffffffffffffffffffffffffffffffffffff1673ffffffffffffffffffffffffffffffffffffffff1681526020019081526020016000205460155461388990919063ffffffff16565b9250601954612d2a8460155461388990919063ffffffff16565b811515612d3357fe5b06915060008214612d445781612d48565b6019545b915060008314612d9257612d8d601954612d7f612d708560195461388990919063ffffffff16565b8661388990919063ffffffff16565b61387390919063ffffffff16565b612d95565b60005b90506003811015612dea57612de7612dd860195460186003600481101515612db957fe5b601091828204019190066002029054906101000a900461ffff166138be565b856138a290919063ffffffff16565b93505b6002811015612e3d57612e3a612e2b60195460186002600481101515612e0c57fe5b601091828204019190066002029054906101000a900461ffff166138be565b856138a290919063ffffffff16565b93505b6001811015612e9057612e8d612e7e60195460186001600481101515612e5f57fe5b601091828204019190066002029054906101000a900461ffff166138be565b856138a290919063ffffffff16565b93505b612ed4612ec583601884600481101515612ea657fe5b601091828204019190066002029054906101000a900461ffff166138be565b856138a290919063ffffffff16565b93508394505050505090565b600d5481565b60008060009054906101000a900473ffffffffffffffffffffffffffffffffffffffff1673ffffffffffffffffffffffffffffffffffffffff163373ffffffffffffffffffffffffffffffffffffffff161480612f905750600360009054906101000a900473ffffffffffffffffffffffffffffffffffffffff1673ffffffffffffffffffffffffffffffffffffffff163373ffffffffffffffffffffffffffffffffffffffff16145b1515612f9b57600080fd5b600090505b828290508167ffffffffffffffff16101561304e576001600f600085858567ffffffffffffffff168181101515612fd357fe5b9050602002013573ffffffffffffffffffffffffffffffffffffffff1673ffffffffffffffffffffffffffffffffffffffff1673ffffffffffffffffffffffffffffffffffffffff16815260200190815260200160002060006101000a81548160ff0219169083151502179055508080600101915050612fa0565b505050565b600a5481565b60008060009054906101000a900473ffffffffffffffffffffffffffffffffffffffff1673ffffffffffffffffffffffffffffffffffffffff163373ffffffffffffffffffffffffffffffffffffffff161415156130b657600080fd5b600b54821180156130cd57506130ca6130e8565b82115b15156130d857600080fd5b81600c8190555060019050919050565b60006103e84202905090565b600160009054906101000a900473ffffffffffffffffffffffffffffffffffffffff1681565b6000806000806000806000809550600094508793506131a560106000601760009054906101000a900473ffffffffffffffffffffffffffffffffffffffff1673ffffffffffffffffffffffffffffffffffffffff1673ffffffffffffffffffffffffffffffffffffffff1681526020019081526020016000205460155461388990919063ffffffff16565b92506019546131bf8460155461388990919063ffffffff16565b8115156131c857fe5b069150600082146131d957816131dd565b6019545b915060008314613227576132226019546132146132058560195461388990919063ffffffff16565b8661388990919063ffffffff16565b61387390919063ffffffff16565b61322a565b60005b905080600014156132fa576132708261326b8660188560048110151561324c57fe5b601091828204019190066002029054906101000a900461ffff1661391b565b613978565b945061328585876138a290919063ffffffff16565b95506132cb6132bc8660188460048110151561329d57fe5b601091828204019190066002029054906101000a900461ffff166138be565b8561388990919063ffffffff16565b935060008414156132de5785965061353c565b60195491506132f76001826138a290919063ffffffff16565b90505b80600114156133c85761333e826133398660188560048110151561331a57fe5b601091828204019190066002029054906101000a900461ffff1661391b565b613978565b945061335385876138a290919063ffffffff16565b955061339961338a8660188460048110151561336b57fe5b601091828204019190066002029054906101000a900461ffff166138be565b8561388990919063ffffffff16565b935060008414156133ac5785965061353c565b60195491506133c56001826138a290919063ffffffff16565b90505b80600214156134965761340c82613407866018856004811015156133e857fe5b601091828204019190066002029054906101000a900461ffff1661391b565b613978565b945061342185876138a290919063ffffffff16565b95506134676134588660188460048110151561343957fe5b601091828204019190066002029054906101000a900461ffff166138be565b8561388990919063ffffffff16565b9350600084141561347a5785965061353c565b60195491506134936001826138a290919063ffffffff16565b90505b8060031415613538576134da826134d5866018856004811015156134b657fe5b601091828204019190066002029054906101000a900461ffff1661391b565b613978565b94506134ef85876138a290919063ffffffff16565b95506135356135268660188460048110151561350757fe5b601091828204019190066002029054906101000a900461ffff166138be565b8561388990919063ffffffff16565b93505b8596505b505050505050919050565b6000809054906101000a900473ffffffffffffffffffffffffffffffffffffffff1673ffffffffffffffffffffffffffffffffffffffff163373ffffffffffffffffffffffffffffffffffffffff161415156135a257600080fd5b80600160006101000a81548173ffffffffffffffffffffffffffffffffffffffff021916908373ffffffffffffffffffffffffffffffffffffffff16021790555080600260006101000a81548173ffffffffffffffffffffffffffffffffffffffff021916908373ffffffffffffffffffffffffffffffffffffffff16021790555050565b6000809054906101000a900473ffffffffffffffffffffffffffffffffffffffff1673ffffffffffffffffffffffffffffffffffffffff163373ffffffffffffffffffffffffffffffffffffffff1614151561368257600080fd5b600073ffffffffffffffffffffffffffffffffffffffff168173ffffffffffffffffffffffffffffffffffffffff16141515156136be57600080fd5b8073ffffffffffffffffffffffffffffffffffffffff166000809054906101000a900473ffffffffffffffffffffffffffffffffffffffff1673ffffffffffffffffffffffffffffffffffffffff167f8be0079c531659141344cd1fd0a4f28419497f9722a3daafe3b4186f6b6457e060405160405180910390a3806000806101000a81548173ffffffffffffffffffffffffffffffffffffffff021916908373ffffffffffffffffffffffffffffffffffffffff16021790555050565b600f6020528060005260406000206000915054906101000a900460ff1681565b6000809054906101000a900473ffffffffffffffffffffffffffffffffffffffff1673ffffffffffffffffffffffffffffffffffffffff163373ffffffffffffffffffffffffffffffffffffffff161415156137f757600080fd5b80600360006101000a81548173ffffffffffffffffffffffffffffffffffffffff021916908373ffffffffffffffffffffffffffffffffffffffff16021790555050565b60008083141561384e576000905061386d565b818302905081838281151561385f57fe5b0414151561386957fe5b8090505b92915050565b6000818381151561388057fe5b04905092915050565b600082821115151561389757fe5b818303905092915050565b600081830190508281101515156138b557fe5b80905092915050565b60006139136005546139056009546138f76103e86138e98861ffff168a61383b90919063ffffffff16565b61387390919063ffffffff16565b61383b90919063ffffffff16565b61387390919063ffffffff16565b905092915050565b60006139706009546139626005546139548661ffff166139466103e88a61383b90919063ffffffff16565b61387390919063ffffffff16565b61383b90919063ffffffff16565b61387390919063ffffffff16565b905092915050565b60008183106139875781613989565b825b9050929150505600a165627a7a72305820fd7e11fe1c92a177b3a227b3f4c1d53f60688319ca7239c55ea21c342d9152b40029",
  "source": "pragma solidity ^0.4.23;\n\nimport \"./FoundationContracts/SecondarySaleBaseContract.sol\";\nimport \"./FoundationContracts/Math.sol\";\n\ncontract PRETSD is SecondarySaleBaseContract {\n    using Math for uint256;\n\n    string public name = \"PRE TSD COIN\";\n    string public symbol = \"PRETSD\";\n    uint256 public totalSupply = 240 * million;\n    uint256 public minPurchase = 500000; // 5,000.00 USD in cents\n\n    // Wallets\n    address public preFundsWallet;\n\n    // tranche discounts\n    uint16[4] tranches = [800, 840, 880, 925];\n    // tranche token size\n    uint256 trancheMaxTokenSize = totalSupply.div(tranches.length);\n\n    constructor(\n        uint256 _ethExchangeRate\n    ) public {\n        preFundsWallet = owner;\n\n        // transfer suppy to the funds wallet\n        balances[preFundsWallet] = totalSupply;\n        emit Transfer(0x0, preFundsWallet, totalSupply);\n\n        // set exchange rate\n        updateTheExchangeRate(_ethExchangeRate);\n\n        // Start time \"Wed Aug 01 2018 00:00:00 GMT+1000 (AEST)\"\n        // new Date(1533045600000).toUTCString() => \"Tue, 31 Jul 2018 14:00:00 GMT\"\n        startTime = 1533045600000;\n        // End time \"Tue Aug 21 2018 00:00:00 GMT+1000 (AEST)\"\n        // new Date(1534860000000).toUTCString() => \"Tue, 21 Aug 2018 14:00:00 GMT\"\n        endTime = 1534860000000;\n        // Token release date 12 month post end date\n        // \"Thu Aug 01 2019 00:00:00 GMT+1000 (AEST)\"\n        // new Date(1564581600000).toUTCString() => \"Wed, 31 Jul 2019 14:00:00 GMT\"\n        tokensReleaseDate = 1564581600000;\n    }\n\n    // Usage:\n    // Pass in the amount of tokens and the discount rate.\n    // If no discount is required pass in 100 as the rate value.\n    function tokenToEth(uint256 _tokens, uint16 _discountRate) internal view returns(uint256) {\n        //Using previous exchangerate\n        return _tokens.mul(_discountRate).div(1000).mul(exchangeRate).div(decimalMultiplier);\n    }\n\n\n    // Pass in the amount of eth and the discount rate.\n    // If no discount is required pass in 100 as the rate value.\n    function ethToToken(uint256 _eth, uint16 _discountRate) internal view returns(uint256) {\n        //return ((_eth / _rate * 100) * decimalMultiplier).div(exchangeRate);\n        return _eth.mul(1000).div(_discountRate).mul(decimalMultiplier).div(exchangeRate);\n    }\n\n    // Buy functions\n    // This is an un-named fallback function that is set to payable to accept ether.\n    function() payable public {\n        buyTokens();\n    }\n\n    function buyTokens() payable public {\n        uint256 _currentTime = currentTime();\n        uint256 _minPurchaseInWei = minPurchase.mul(decimalMultiplier).div(ethExchangeRate);\n        require(tokensAvailable, \"no more tokens available\");\n        require(_currentTime >= startTime && _currentTime <= endTime, \"current time is not in the purchase window frame\");\n        require(whiteListed[msg.sender], \"amount sent is below minimum purchase\");\n        require(msg.value >= _minPurchaseInWei, \"user is not whitelisted\");\n\n        uint256 ethAmount = msg.value;\n        uint256 tokenAmount = calculateTokenAmountWithDiscounts(ethAmount);\n        uint256 currentEthRaised = totalEthRaised;\n        uint256 ethRefund = 0;\n\n\n        // The tranching algorithm will only ever return a value equal or lower than the remainingTokens.\n        // If the tokenAmount is equal to the remaining tokens we know its the last purchase.\n        if (tokenAmount == balances[preFundsWallet]) {\n            // recalculate the amount of eth that can be spent for the remaining tokens.\n            uint256 totalRemainingCostOfTokens = calculateTotalRemainingTokenCost();\n            // determine the refund by subtracting the the new ethamount from what was originally sent in\n            ethRefund = ethAmount.sub(totalRemainingCostOfTokens);\n            ethAmount = ethAmount.sub(ethRefund);\n            // make the token purchase\n            // sub general token amount\n            uint256 remainingTokens = balances[preFundsWallet];\n            balances[preFundsWallet] = balances[preFundsWallet].sub(remainingTokens);\n\n            // adding the buyer to the icoParticipants ONLY if they haven't already bought before\n            if (balances[msg.sender] == 0) {\n                icoParticipants.push(msg.sender);\n            }\n            \n            // sub bonus token amount\n            balances[msg.sender] = balances[msg.sender].add(remainingTokens);\n            emit Transfer(preFundsWallet, msg.sender, remainingTokens);\n            \n            // refund\n            if (ethRefund > 0) {\n                msg.sender.transfer(ethRefund);\n            }\n            // transfer ether to funds wallet\n            preFundsWallet.transfer(ethAmount);\n            totalEthRaised = totalEthRaised.add(ethAmount);\n            emit EthRaisedUpdated(currentEthRaised, totalEthRaised);\n            // close token sale as tokens are sold out\n            tokensAvailable = false;\n        } else {\n            if (balances[msg.sender] == 0) {\n                icoParticipants.push(msg.sender);\n            }\n            // make the token purchase\n            // sub general token amount\n            balances[preFundsWallet] = balances[preFundsWallet].sub(tokenAmount);\n            balances[msg.sender] = balances[msg.sender].add(tokenAmount);\n\n            emit Transfer(preFundsWallet, msg.sender, tokenAmount);\n\n            // transfer ether to the wallet and emit and event regarding eth raised\n            preFundsWallet.transfer(ethAmount);\n            totalEthRaised = totalEthRaised.add(ethAmount);\n            emit EthRaisedUpdated(currentEthRaised, totalEthRaised);\n        }\n    }\n\n    function calculateTotalRemainingTokenCost() public view returns(uint256) {\n        uint256 totalCost = 0;\n        uint256 sold = totalSupply.sub(balances[preFundsWallet]);\n        // Calculate the remaining tranche tokens.\n        uint256 currentTrancheRemainder = totalSupply.sub(sold) % trancheMaxTokenSize;\n        // On the first initialisation we need to set the current tranche to a full tranche;\n        currentTrancheRemainder = currentTrancheRemainder == 0 ? trancheMaxTokenSize : currentTrancheRemainder;\n        // Calculate the current tranche we are in.\n        uint256 currentTranche = sold == 0 ? 0 : sold.sub(trancheMaxTokenSize.sub(currentTrancheRemainder)).div(trancheMaxTokenSize);\n        // Check all tranches to see if they are full.\n        // If they are full. Add the calculated tranche cost to the totalCost.\n        if (currentTranche < 3) {\n            totalCost = totalCost.add(tokenToEth(trancheMaxTokenSize, tranches[3]));\n        }\n        if (currentTranche < 2) {\n            totalCost = totalCost.add(tokenToEth(trancheMaxTokenSize, tranches[2]));\n        }\n        if (currentTranche < 1) {\n            totalCost = totalCost.add(tokenToEth(trancheMaxTokenSize, tranches[1]));\n        }\n        // Add the calculated tranche remainder costs to the totalCost.\n        totalCost = totalCost.add(tokenToEth(currentTrancheRemainder, tranches[currentTranche]));\n        return totalCost;\n    }\n\n    function calculateTokenAmountWithDiscounts(uint256 _ethAmount) public view returns(uint256) {\n        uint256 returnTokens = 0;\n        uint256 tokensFromTranche = 0;\n        uint256 ethRemaining = _ethAmount;\n        uint256 sold = totalSupply.sub(balances[preFundsWallet]);\n\n        // Calculate the remaining tranche tokens.\n        uint256 currentTrancheRemainder = totalSupply.sub(sold) % trancheMaxTokenSize;\n        // On the first initialisation we need to set the current tranche to a full tranche;\n        currentTrancheRemainder = currentTrancheRemainder == 0 ? trancheMaxTokenSize : currentTrancheRemainder;\n        // Calculate the current tranche we are in.\n        uint256 currentTranche = sold == 0 ? 0 : sold.sub(trancheMaxTokenSize.sub(currentTrancheRemainder)).div(trancheMaxTokenSize);\n\n        // Find the first tranche that matches the current tranche.\n        if (0 == currentTranche) {\n            // Find the lowest value tokens of the current tranche.\n            // Either return the total tranche tokens or the the tokens we can purchase with our ether.\n            tokensFromTranche = Math.min256(currentTrancheRemainder, ethToToken(ethRemaining, tranches[currentTranche]));\n            // Add the tokens to our return value.\n            returnTokens = returnTokens.add(tokensFromTranche);\n            // Subtract the ether we've spent on the tokens from the total ether we supplied.\n            ethRemaining = ethRemaining.sub(tokenToEth(tokensFromTranche, tranches[currentTranche]));\n            // Return the tokens if ether has reached 0;\n            if (ethRemaining == 0) return returnTokens;\n            // Otherwise set the next tranche remainder to a full tranche;\n            currentTrancheRemainder = trancheMaxTokenSize;\n            // Move us up one tranche.\n            currentTranche = currentTranche.add(1);\n        }\n        if (1 == currentTranche) {\n            tokensFromTranche = Math.min256(currentTrancheRemainder, ethToToken(ethRemaining, tranches[currentTranche]));\n            returnTokens = returnTokens.add(tokensFromTranche);\n            ethRemaining = ethRemaining.sub(tokenToEth(tokensFromTranche, tranches[currentTranche]));\n            if (ethRemaining == 0) return returnTokens;\n            currentTrancheRemainder = trancheMaxTokenSize;\n            currentTranche = currentTranche.add(1);\n        }\n        if (2 == currentTranche) {\n            tokensFromTranche = Math.min256(currentTrancheRemainder, ethToToken(ethRemaining, tranches[currentTranche]));\n            returnTokens = returnTokens.add(tokensFromTranche);\n            ethRemaining = ethRemaining.sub(tokenToEth(tokensFromTranche, tranches[currentTranche]));\n            if (ethRemaining == 0) return returnTokens;\n            currentTrancheRemainder = trancheMaxTokenSize;\n            currentTranche = currentTranche.add(1);\n        }\n        if (3 == currentTranche) {\n            tokensFromTranche = Math.min256(currentTrancheRemainder, ethToToken(ethRemaining, tranches[currentTranche]));\n            returnTokens = returnTokens.add(tokensFromTranche);\n            ethRemaining = ethRemaining.sub(tokenToEth(tokensFromTranche, tranches[currentTranche]));\n        }\n        return returnTokens;\n    }\n\n    // After close functions\n\n    // Burn any remaining tokens\n    function burnRemainingTokens() external onlyOwner returns (bool) {\n        require(currentTime() >= endTime, \"can only burn tokens after token sale has concluded\");\n        if (balances[preFundsWallet] > 0) {\n            // Subtracting the unsold tokens from the total supply.\n            uint256 oldSupply = totalSupply;\n            totalSupply = totalSupply.sub(balances[preFundsWallet]);\n            balances[preFundsWallet] = 0;\n            emit UpdatedTotalSupply(oldSupply, totalSupply);\n        }\n\n        return true;\n    }\n\n    // This can only be called by the owner on or after the token release date.\n    // This will be a two step process.\n    // This function will be called by the preSaleTokenWallet\n    // This wallet will need to be approved in the main contract to make these distributions\n    function distributeTokens(uint256 _numberOfTransfers) external onlyRestricted returns (bool) {\n        require(currentTime() >= tokensReleaseDate, \"can only distribute after tokensReleaseDate\");\n        address preSaleTokenWallet = dc.preSaleTokenWallet();\n        uint256 finalDistributionIndex = currentDistributionIndex.add(_numberOfTransfers);\n\n        for (uint256 i = currentDistributionIndex; i < finalDistributionIndex; i++) {\n            // end for loop when currentDistributionIndex reaches the length of the icoParticipants array\n            if (i == icoParticipants.length) {\n                return;\n            }\n            // skip transfer if balances are empty\n            if (balances[icoParticipants[i]] != 0) {\n                dc.transferFrom(preSaleTokenWallet, icoParticipants[i], balances[icoParticipants[i]]);\n                emit Transfer(preSaleTokenWallet, icoParticipants[i], balances[icoParticipants[i]]);\n                \n                // set balances to 0 to prevent re-transfer\n                balances[icoParticipants[i]] = 0;\n            }\n        }\n        // after distribution is complete set the currentDistributionIndex to the latest finalDistributionIndex\n        currentDistributionIndex = finalDistributionIndex;\n\n        // Event to say distribution is complete\n        emit DistributedAllBalancesToTSDContract(address(this), TSDContractAddress);\n\n        // Boolean is returned to give us a success state.\n        return true;\n    }\n}\n",
  "sourcePath": "/Users/venkateshnamburi/Desktop/521/Projects/Transcendence/tsd_dapp/contracts/PRETSD.sol",
  "compiler": {
    "name": "solc",
    "version": "0.4.24+commit.e67f0147.Emscripten.clang"
  },
  "schemaVersion": "2.0.0",
  "updatedAt": "2018-07-02T15:34:25.194Z"
}