{
  "contractName": "PRETSD",
  "abi": [
    {
      "constant": true,
      "inputs": [],
      "name": "bonusAllocation",
      "outputs": [
        {
          "name": "",
          "type": "uint256"
        }
      ],
      "payable": false,
      "stateMutability": "view",
      "type": "function"
    },
    {
      "constant": true,
      "inputs": [],
      "name": "name",
      "outputs": [
        {
          "name": "",
          "type": "string"
        }
      ],
      "payable": false,
      "stateMutability": "view",
      "type": "function"
    },
    {
      "constant": false,
      "inputs": [
        {
          "name": "_spender",
          "type": "address"
        },
        {
          "name": "_value",
          "type": "uint256"
        }
      ],
      "name": "approve",
      "outputs": [
        {
          "name": "",
          "type": "bool"
        }
      ],
      "payable": false,
      "stateMutability": "nonpayable",
      "type": "function"
    },
    {
      "constant": true,
      "inputs": [],
      "name": "totalSupply",
      "outputs": [
        {
          "name": "",
          "type": "uint256"
        }
      ],
      "payable": false,
      "stateMutability": "view",
      "type": "function"
    },
    {
      "constant": true,
      "inputs": [],
      "name": "preSaleBonusWallet",
      "outputs": [
        {
          "name": "",
          "type": "address"
        }
      ],
      "payable": false,
      "stateMutability": "view",
      "type": "function"
    },
    {
      "constant": false,
      "inputs": [
        {
          "name": "_from",
          "type": "address"
        },
        {
          "name": "_to",
          "type": "address"
        },
        {
          "name": "_value",
          "type": "uint256"
        }
      ],
      "name": "transferFrom",
      "outputs": [
        {
          "name": "",
          "type": "bool"
        }
      ],
      "payable": false,
      "stateMutability": "nonpayable",
      "type": "function"
    },
    {
      "constant": true,
      "inputs": [
        {
          "name": "",
          "type": "address"
        }
      ],
      "name": "balances",
      "outputs": [
        {
          "name": "",
          "type": "uint256"
        }
      ],
      "payable": false,
      "stateMutability": "view",
      "type": "function"
    },
    {
      "constant": true,
      "inputs": [],
      "name": "decimals",
      "outputs": [
        {
          "name": "",
          "type": "uint256"
        }
      ],
      "payable": false,
      "stateMutability": "view",
      "type": "function"
    },
    {
      "constant": true,
      "inputs": [],
      "name": "endTime",
      "outputs": [
        {
          "name": "",
          "type": "uint256"
        }
      ],
      "payable": false,
      "stateMutability": "view",
      "type": "function"
    },
    {
      "constant": true,
      "inputs": [],
      "name": "minPurchase",
      "outputs": [
        {
          "name": "",
          "type": "uint256"
        }
      ],
      "payable": false,
      "stateMutability": "view",
      "type": "function"
    },
    {
      "constant": true,
      "inputs": [],
      "name": "exchangeRate",
      "outputs": [
        {
          "name": "",
          "type": "uint256"
        }
      ],
      "payable": false,
      "stateMutability": "view",
      "type": "function"
    },
    {
      "constant": true,
      "inputs": [],
      "name": "TSDContractAddress",
      "outputs": [
        {
          "name": "",
          "type": "address"
        }
      ],
      "payable": false,
      "stateMutability": "view",
      "type": "function"
    },
    {
      "constant": true,
      "inputs": [],
      "name": "million",
      "outputs": [
        {
          "name": "",
          "type": "uint256"
        }
      ],
      "payable": false,
      "stateMutability": "view",
      "type": "function"
    },
    {
      "constant": true,
      "inputs": [],
      "name": "thousand",
      "outputs": [
        {
          "name": "",
          "type": "uint256"
        }
      ],
      "payable": false,
      "stateMutability": "view",
      "type": "function"
    },
    {
      "constant": false,
      "inputs": [
        {
          "name": "_spender",
          "type": "address"
        },
        {
          "name": "_subtractedValue",
          "type": "uint256"
        }
      ],
      "name": "decreaseApproval",
      "outputs": [
        {
          "name": "",
          "type": "bool"
        }
      ],
      "payable": false,
      "stateMutability": "nonpayable",
      "type": "function"
    },
    {
      "constant": true,
      "inputs": [
        {
          "name": "_owner",
          "type": "address"
        }
      ],
      "name": "balanceOf",
      "outputs": [
        {
          "name": "",
          "type": "uint256"
        }
      ],
      "payable": false,
      "stateMutability": "view",
      "type": "function"
    },
    {
      "constant": true,
      "inputs": [],
      "name": "startTime",
      "outputs": [
        {
          "name": "",
          "type": "uint256"
        }
      ],
      "payable": false,
      "stateMutability": "view",
      "type": "function"
    },
    {
      "constant": true,
      "inputs": [],
      "name": "owner",
      "outputs": [
        {
          "name": "",
          "type": "address"
        }
      ],
      "payable": false,
      "stateMutability": "view",
      "type": "function"
    },
    {
      "constant": true,
      "inputs": [],
      "name": "preFundsWallet",
      "outputs": [
        {
          "name": "",
          "type": "address"
        }
      ],
      "payable": false,
      "stateMutability": "view",
      "type": "function"
    },
    {
      "constant": true,
      "inputs": [],
      "name": "symbol",
      "outputs": [
        {
          "name": "",
          "type": "string"
        }
      ],
      "payable": false,
      "stateMutability": "view",
      "type": "function"
    },
    {
      "constant": true,
      "inputs": [
        {
          "name": "",
          "type": "uint256"
        }
      ],
      "name": "icoParticipants",
      "outputs": [
        {
          "name": "",
          "type": "address"
        }
      ],
      "payable": false,
      "stateMutability": "view",
      "type": "function"
    },
    {
      "constant": false,
      "inputs": [
        {
          "name": "_to",
          "type": "address"
        },
        {
          "name": "_value",
          "type": "uint256"
        }
      ],
      "name": "transfer",
      "outputs": [
        {
          "name": "",
          "type": "bool"
        }
      ],
      "payable": false,
      "stateMutability": "nonpayable",
      "type": "function"
    },
    {
      "constant": true,
      "inputs": [],
      "name": "tokensReleaseDate",
      "outputs": [
        {
          "name": "",
          "type": "uint256"
        }
      ],
      "payable": false,
      "stateMutability": "view",
      "type": "function"
    },
    {
      "constant": true,
      "inputs": [],
      "name": "totalEthRaised",
      "outputs": [
        {
          "name": "",
          "type": "uint256"
        }
      ],
      "payable": false,
      "stateMutability": "view",
      "type": "function"
    },
    {
      "constant": false,
      "inputs": [
        {
          "name": "_spender",
          "type": "address"
        },
        {
          "name": "_addedValue",
          "type": "uint256"
        }
      ],
      "name": "increaseApproval",
      "outputs": [
        {
          "name": "",
          "type": "bool"
        }
      ],
      "payable": false,
      "stateMutability": "nonpayable",
      "type": "function"
    },
    {
      "constant": true,
      "inputs": [
        {
          "name": "_owner",
          "type": "address"
        },
        {
          "name": "_spender",
          "type": "address"
        }
      ],
      "name": "allowance",
      "outputs": [
        {
          "name": "",
          "type": "uint256"
        }
      ],
      "payable": false,
      "stateMutability": "view",
      "type": "function"
    },
    {
      "constant": false,
      "inputs": [
        {
          "name": "newOwner",
          "type": "address"
        }
      ],
      "name": "transferOwnership",
      "outputs": [],
      "payable": false,
      "stateMutability": "nonpayable",
      "type": "function"
    },
    {
      "constant": true,
      "inputs": [
        {
          "name": "",
          "type": "address"
        }
      ],
      "name": "whiteListed",
      "outputs": [
        {
          "name": "",
          "type": "bool"
        }
      ],
      "payable": false,
      "stateMutability": "view",
      "type": "function"
    },
    {
      "inputs": [
        {
          "name": "_exchangeRate",
          "type": "uint256"
        },
        {
          "name": "_whitelistAddresses",
          "type": "address[]"
        },
        {
          "name": "_preSaleBonusWallet",
          "type": "address"
        }
      ],
      "payable": false,
      "stateMutability": "nonpayable",
      "type": "constructor"
    },
    {
      "payable": true,
      "stateMutability": "payable",
      "type": "fallback"
    },
    {
      "anonymous": false,
      "inputs": [
        {
          "indexed": false,
          "name": "oldEthRaisedVal",
          "type": "uint256"
        },
        {
          "indexed": false,
          "name": "newEthRaisedVal",
          "type": "uint256"
        }
      ],
      "name": "EthRaisedUpdated",
      "type": "event"
    },
    {
      "anonymous": false,
      "inputs": [
        {
          "indexed": false,
          "name": "prevExchangeRate",
          "type": "uint256"
        },
        {
          "indexed": false,
          "name": "newExchangeRate",
          "type": "uint256"
        }
      ],
      "name": "ExhangeRateUpdated",
      "type": "event"
    },
    {
      "anonymous": false,
      "inputs": [
        {
          "indexed": false,
          "name": "_presd",
          "type": "address"
        },
        {
          "indexed": false,
          "name": "_tsd",
          "type": "address"
        }
      ],
      "name": "DistributedAllBalancesToTSDContract",
      "type": "event"
    },
    {
      "anonymous": false,
      "inputs": [
        {
          "indexed": true,
          "name": "previousOwner",
          "type": "address"
        },
        {
          "indexed": true,
          "name": "newOwner",
          "type": "address"
        }
      ],
      "name": "OwnershipTransferred",
      "type": "event"
    },
    {
      "anonymous": false,
      "inputs": [
        {
          "indexed": true,
          "name": "owner",
          "type": "address"
        },
        {
          "indexed": true,
          "name": "spender",
          "type": "address"
        },
        {
          "indexed": false,
          "name": "value",
          "type": "uint256"
        }
      ],
      "name": "Approval",
      "type": "event"
    },
    {
      "anonymous": false,
      "inputs": [
        {
          "indexed": true,
          "name": "from",
          "type": "address"
        },
        {
          "indexed": true,
          "name": "to",
          "type": "address"
        },
        {
          "indexed": false,
          "name": "value",
          "type": "uint256"
        }
      ],
      "name": "Transfer",
      "type": "event"
    },
    {
      "constant": true,
      "inputs": [],
      "name": "currentTime",
      "outputs": [
        {
          "name": "",
          "type": "uint256"
        }
      ],
      "payable": false,
      "stateMutability": "view",
      "type": "function"
    },
    {
      "constant": false,
      "inputs": [
        {
          "name": "_newRate",
          "type": "uint256"
        }
      ],
      "name": "updateTheExchangeRate",
      "outputs": [
        {
          "name": "",
          "type": "bool"
        }
      ],
      "payable": false,
      "stateMutability": "nonpayable",
      "type": "function"
    },
    {
      "constant": false,
      "inputs": [],
      "name": "buyTokens",
      "outputs": [],
      "payable": true,
      "stateMutability": "payable",
      "type": "function"
    },
    {
      "constant": true,
      "inputs": [
        {
          "name": "_tokenAmount",
          "type": "uint256"
        }
      ],
      "name": "calculateBonus",
      "outputs": [
        {
          "name": "",
          "type": "uint256"
        }
      ],
      "payable": false,
      "stateMutability": "view",
      "type": "function"
    },
    {
      "constant": false,
      "inputs": [
        {
          "name": "_t",
          "type": "address"
        }
      ],
      "name": "setMainContractAddress",
      "outputs": [],
      "payable": false,
      "stateMutability": "nonpayable",
      "type": "function"
    },
    {
      "constant": false,
      "inputs": [],
      "name": "burnRemainingTokens",
      "outputs": [
        {
          "name": "",
          "type": "bool"
        }
      ],
      "payable": false,
      "stateMutability": "nonpayable",
      "type": "function"
    },
    {
      "constant": false,
      "inputs": [],
      "name": "distrubuteTokens",
      "outputs": [],
      "payable": false,
      "stateMutability": "nonpayable",
      "type": "function"
    }
  ],
  "bytecode": "0x60806040526040805190810160405280600c81526020017f5052452054534420434f494e00000000000000000000000000000000000000008152506006908051906020019062000051929190620006a7565b506040805190810160405280600681526020017f5052455453440000000000000000000000000000000000000000000000000000815250600790805190602001906200009f929190620006a7565b506012600855600854600a0a620f424002600955600854600a0a6103e802600a5560095460a502600b55620000f7600a54610271026009546014026200039d640100000000026200361a179091906401000000009004565b600c55674563918244f40000600d556000600f55650164f0a36f006010556501655cc8fb0060115565016c48549b006012553480156200013657600080fd5b5060405162003e0138038062003e0183398101806040528101908080519060200190929190805182019291906020018051906020019092919050505033600360006101000a81548173ffffffffffffffffffffffffffffffffffffffff021916908373ffffffffffffffffffffffffffffffffffffffff160217905550600360009054906101000a900473ffffffffffffffffffffffffffffffffffffffff16601360006101000a81548173ffffffffffffffffffffffffffffffffffffffff021916908373ffffffffffffffffffffffffffffffffffffffff16021790555082600e8190555080601460006101000a81548173ffffffffffffffffffffffffffffffffffffffff021916908373ffffffffffffffffffffffffffffffffffffffff160217905550600b5460176000601360009054906101000a900473ffffffffffffffffffffffffffffffffffffffff1673ffffffffffffffffffffffffffffffffffffffff1673ffffffffffffffffffffffffffffffffffffffff16815260200190815260200160002081905550601360009054906101000a900473ffffffffffffffffffffffffffffffffffffffff1673ffffffffffffffffffffffffffffffffffffffff1660007fddf252ad1be2c89b69c2b068fc378daa952ba7f163c4a11628f55a4df523b3ef600b546040518082815260200191505060405180910390a362000379601460009054906101000a900473ffffffffffffffffffffffffffffffffffffffff16600c54620003ba640100000000026401000000009004565b506200039482620005fb640100000000026401000000009004565b50505062000756565b60008183019050828110151515620003b157fe5b80905092915050565b60008073ffffffffffffffffffffffffffffffffffffffff168373ffffffffffffffffffffffffffffffffffffffff1614151515620003f857600080fd5b6000803373ffffffffffffffffffffffffffffffffffffffff1673ffffffffffffffffffffffffffffffffffffffff1681526020019081526020016000205482111515156200044657600080fd5b620004a7826000803373ffffffffffffffffffffffffffffffffffffffff1673ffffffffffffffffffffffffffffffffffffffff168152602001908152602001600020546200068d6401000000000262003601179091906401000000009004565b6000803373ffffffffffffffffffffffffffffffffffffffff1673ffffffffffffffffffffffffffffffffffffffff168152602001908152602001600020819055506200054a826000808673ffffffffffffffffffffffffffffffffffffffff1673ffffffffffffffffffffffffffffffffffffffff168152602001908152602001600020546200039d640100000000026200361a179091906401000000009004565b6000808573ffffffffffffffffffffffffffffffffffffffff1673ffffffffffffffffffffffffffffffffffffffff168152602001908152602001600020819055508273ffffffffffffffffffffffffffffffffffffffff163373ffffffffffffffffffffffffffffffffffffffff167fddf252ad1be2c89b69c2b068fc378daa952ba7f163c4a11628f55a4df523b3ef846040518082815260200191505060405180910390a36001905092915050565b60008090505b8151811015620006895760016016600084848151811015156200062057fe5b9060200190602002015173ffffffffffffffffffffffffffffffffffffffff1673ffffffffffffffffffffffffffffffffffffffff16815260200190815260200160002060006101000a81548160ff021916908315150217905550808060010191505062000601565b5050565b60008282111515156200069c57fe5b818303905092915050565b828054600181600116156101000203166002900490600052602060002090601f016020900481019282601f10620006ea57805160ff19168380011785556200071b565b828001600101855582156200071b579182015b828111156200071a578251825591602001919060010190620006fd565b5b5090506200072a91906200072e565b5090565b6200075391905b808211156200074f57600081600090555060010162000735565b5090565b90565b61369b80620007666000396000f3006080604052600436106101b7576000357c0100000000000000000000000000000000000000000000000000000000900463ffffffff168063016211b5146101c157806306fdde03146101ec578063095ea7b31461027c57806318160ddd146102e15780631abacfc81461030c57806323b872dd1461036357806327e235e3146103e8578063313ce5671461043f5780633197cbb61461046a57806333b5b62e146104955780633ba0b9a9146104c05780634a54839d146104eb5780634e9c6b1f146105425780635db134761461056d5780636081f5cb1461059857806366188463146105d957806370a082311461063e57806378e979251461069557806383408d73146106c05780638da5cb5b146106ef57806391974d8e1461074657806395d89b411461079d578063a229c6141461082d578063a256ea3a14610872578063a9059cbb146108df578063afe07f5914610944578063b48544131461096f578063c9e904be14610986578063d0febe4c146109b1578063d18e81b3146109bb578063d73dd623146109e6578063dd62ed3e14610a4b578063ec9da59e14610ac2578063f2fde38b14610b05578063fa0fca8414610b48575b6101bf610ba3565b005b3480156101cd57600080fd5b506101d661166b565b6040518082815260200191505060405180910390f35b3480156101f857600080fd5b50610201611671565b6040518080602001828103825283818151815260200191508051906020019080838360005b83811015610241578082015181840152602081019050610226565b50505050905090810190601f16801561026e5780820380516001836020036101000a031916815260200191505b509250505060405180910390f35b34801561028857600080fd5b506102c7600480360381019080803573ffffffffffffffffffffffffffffffffffffffff1690602001909291908035906020019092919050505061170f565b604051808215151515815260200191505060405180910390f35b3480156102ed57600080fd5b506102f6611801565b6040518082815260200191505060405180910390f35b34801561031857600080fd5b50610321611807565b604051808273ffffffffffffffffffffffffffffffffffffffff1673ffffffffffffffffffffffffffffffffffffffff16815260200191505060405180910390f35b34801561036f57600080fd5b506103ce600480360381019080803573ffffffffffffffffffffffffffffffffffffffff169060200190929190803573ffffffffffffffffffffffffffffffffffffffff1690602001909291908035906020019092919050505061182d565b604051808215151515815260200191505060405180910390f35b3480156103f457600080fd5b50610429600480360381019080803573ffffffffffffffffffffffffffffffffffffffff169060200190929190505050611be7565b6040518082815260200191505060405180910390f35b34801561044b57600080fd5b50610454611bff565b6040518082815260200191505060405180910390f35b34801561047657600080fd5b5061047f611c05565b6040518082815260200191505060405180910390f35b3480156104a157600080fd5b506104aa611c0b565b6040518082815260200191505060405180910390f35b3480156104cc57600080fd5b506104d5611c11565b6040518082815260200191505060405180910390f35b3480156104f757600080fd5b50610500611c17565b604051808273ffffffffffffffffffffffffffffffffffffffff1673ffffffffffffffffffffffffffffffffffffffff16815260200191505060405180910390f35b34801561054e57600080fd5b50610557611c3d565b6040518082815260200191505060405180910390f35b34801561057957600080fd5b50610582611c43565b6040518082815260200191505060405180910390f35b3480156105a457600080fd5b506105c360048036038101908080359060200190929190505050611c49565b6040518082815260200191505060405180910390f35b3480156105e557600080fd5b50610624600480360381019080803573ffffffffffffffffffffffffffffffffffffffff16906020019092919080359060200190929190505050611f32565b604051808215151515815260200191505060405180910390f35b34801561064a57600080fd5b5061067f600480360381019080803573ffffffffffffffffffffffffffffffffffffffff1690602001909291905050506121c3565b6040518082815260200191505060405180910390f35b3480156106a157600080fd5b506106aa61220b565b6040518082815260200191505060405180910390f35b3480156106cc57600080fd5b506106d5612211565b604051808215151515815260200191505060405180910390f35b3480156106fb57600080fd5b50610704612360565b604051808273ffffffffffffffffffffffffffffffffffffffff1673ffffffffffffffffffffffffffffffffffffffff16815260200191505060405180910390f35b34801561075257600080fd5b5061075b612386565b604051808273ffffffffffffffffffffffffffffffffffffffff1673ffffffffffffffffffffffffffffffffffffffff16815260200191505060405180910390f35b3480156107a957600080fd5b506107b26123ac565b6040518080602001828103825283818151815260200191508051906020019080838360005b838110156107f25780820151818401526020810190506107d7565b50505050905090810190601f16801561081f5780820380516001836020036101000a031916815260200191505b509250505060405180910390f35b34801561083957600080fd5b506108586004803603810190808035906020019092919050505061244a565b604051808215151515815260200191505060405180910390f35b34801561087e57600080fd5b5061089d600480360381019080803590602001909291905050506124fa565b604051808273ffffffffffffffffffffffffffffffffffffffff1673ffffffffffffffffffffffffffffffffffffffff16815260200191505060405180910390f35b3480156108eb57600080fd5b5061092a600480360381019080803573ffffffffffffffffffffffffffffffffffffffff16906020019092919080359060200190929190505050612538565b604051808215151515815260200191505060405180910390f35b34801561095057600080fd5b50610959612757565b6040518082815260200191505060405180910390f35b34801561097b57600080fd5b5061098461275d565b005b34801561099257600080fd5b5061099b6130db565b6040518082815260200191505060405180910390f35b6109b9610ba3565b005b3480156109c757600080fd5b506109d06130e1565b6040518082815260200191505060405180910390f35b3480156109f257600080fd5b50610a31600480360381019080803573ffffffffffffffffffffffffffffffffffffffff169060200190929190803590602001909291905050506130ed565b604051808215151515815260200191505060405180910390f35b348015610a5757600080fd5b50610aac600480360381019080803573ffffffffffffffffffffffffffffffffffffffff169060200190929190803573ffffffffffffffffffffffffffffffffffffffff1690602001909291905050506132e9565b6040518082815260200191505060405180910390f35b348015610ace57600080fd5b50610b03600480360381019080803573ffffffffffffffffffffffffffffffffffffffff169060200190929190505050613370565b005b348015610b1157600080fd5b50610b46600480360381019080803573ffffffffffffffffffffffffffffffffffffffff169060200190929190505050613451565b005b348015610b5457600080fd5b50610b89600480360381019080803573ffffffffffffffffffffffffffffffffffffffff1690602001909291905050506135a9565b604051808215151515815260200191505060405180910390f35b6000806000806000806000601054610bb96130e1565b10158015610bd05750601154610bcd6130e1565b11155b1515610bdb57600080fd5b601660003373ffffffffffffffffffffffffffffffffffffffff1673ffffffffffffffffffffffffffffffffffffffff16815260200190815260200160002060009054906101000a900460ff161515610c3357600080fd5b349650610c4b600e54346135c990919063ffffffff16565b9550610c5686611c49565b9450600f5491506000905060176000601360009054906101000a900473ffffffffffffffffffffffffffffffffffffffff1673ffffffffffffffffffffffffffffffffffffffff1673ffffffffffffffffffffffffffffffffffffffff168152602001908152602001600020548611156111e857610d3e60176000601360009054906101000a900473ffffffffffffffffffffffffffffffffffffffff1673ffffffffffffffffffffffffffffffffffffffff1673ffffffffffffffffffffffffffffffffffffffff168152602001908152602001600020548761360190919063ffffffff16565b9350610d4984611c49565b9450610d5e858561361a90919063ffffffff16565b9250610d87600e54610d79868961360190919063ffffffff16565b61363690919063ffffffff16565b9050610d9c818861360190919063ffffffff16565b9650610e128460176000601360009054906101000a900473ffffffffffffffffffffffffffffffffffffffff1673ffffffffffffffffffffffffffffffffffffffff1673ffffffffffffffffffffffffffffffffffffffff1681526020019081526020016000205461360190919063ffffffff16565b60176000601360009054906101000a900473ffffffffffffffffffffffffffffffffffffffff1673ffffffffffffffffffffffffffffffffffffffff1673ffffffffffffffffffffffffffffffffffffffff16815260200190815260200160002081905550610eeb8560176000601460009054906101000a900473ffffffffffffffffffffffffffffffffffffffff1673ffffffffffffffffffffffffffffffffffffffff1673ffffffffffffffffffffffffffffffffffffffff1681526020019081526020016000205461360190919063ffffffff16565b60176000601460009054906101000a900473ffffffffffffffffffffffffffffffffffffffff1673ffffffffffffffffffffffffffffffffffffffff1673ffffffffffffffffffffffffffffffffffffffff16815260200190815260200160002081905550610fa283601760003373ffffffffffffffffffffffffffffffffffffffff1673ffffffffffffffffffffffffffffffffffffffff1681526020019081526020016000205461361a90919063ffffffff16565b601760003373ffffffffffffffffffffffffffffffffffffffff1673ffffffffffffffffffffffffffffffffffffffff168152602001908152602001600020819055503373ffffffffffffffffffffffffffffffffffffffff16601360009054906101000a900473ffffffffffffffffffffffffffffffffffffffff1673ffffffffffffffffffffffffffffffffffffffff167fddf252ad1be2c89b69c2b068fc378daa952ba7f163c4a11628f55a4df523b3ef856040518082815260200191505060405180910390a360153390806001815401808255809150509060018203906000526020600020016000909192909190916101000a81548173ffffffffffffffffffffffffffffffffffffffff021916908373ffffffffffffffffffffffffffffffffffffffff160217905550506000811115611123573373ffffffffffffffffffffffffffffffffffffffff166108fc829081150290604051600060405180830381858888f19350505050158015611121573d6000803e3d6000fd5b505b601360009054906101000a900473ffffffffffffffffffffffffffffffffffffffff1673ffffffffffffffffffffffffffffffffffffffff166108fc889081150290604051600060405180830381858888f1935050505015801561118b573d6000803e3d6000fd5b506111a187600f5461361a90919063ffffffff16565b507f4014ce514c76bad08328a2a6046bac14007f7aad2c56c84c66acf8ca1c64bee882600f54604051808381526020018281526020019250505060405180910390a1611662565b8560176000601360009054906101000a900473ffffffffffffffffffffffffffffffffffffffff1673ffffffffffffffffffffffffffffffffffffffff1673ffffffffffffffffffffffffffffffffffffffff168152602001908152602001600020541015151561125857600080fd5b61126b858761361a90919063ffffffff16565b92506112e18660176000601360009054906101000a900473ffffffffffffffffffffffffffffffffffffffff1673ffffffffffffffffffffffffffffffffffffffff1673ffffffffffffffffffffffffffffffffffffffff1681526020019081526020016000205461360190919063ffffffff16565b60176000601360009054906101000a900473ffffffffffffffffffffffffffffffffffffffff1673ffffffffffffffffffffffffffffffffffffffff1673ffffffffffffffffffffffffffffffffffffffff168152602001908152602001600020819055506113ba8560176000601460009054906101000a900473ffffffffffffffffffffffffffffffffffffffff1673ffffffffffffffffffffffffffffffffffffffff1673ffffffffffffffffffffffffffffffffffffffff1681526020019081526020016000205461360190919063ffffffff16565b60176000601460009054906101000a900473ffffffffffffffffffffffffffffffffffffffff1673ffffffffffffffffffffffffffffffffffffffff1673ffffffffffffffffffffffffffffffffffffffff1681526020019081526020016000208190555061147183601760003373ffffffffffffffffffffffffffffffffffffffff1673ffffffffffffffffffffffffffffffffffffffff1681526020019081526020016000205461361a90919063ffffffff16565b601760003373ffffffffffffffffffffffffffffffffffffffff1673ffffffffffffffffffffffffffffffffffffffff1681526020019081526020016000208190555060153390806001815401808255809150509060018203906000526020600020016000909192909190916101000a81548173ffffffffffffffffffffffffffffffffffffffff021916908373ffffffffffffffffffffffffffffffffffffffff160217905550503373ffffffffffffffffffffffffffffffffffffffff16601360009054906101000a900473ffffffffffffffffffffffffffffffffffffffff1673ffffffffffffffffffffffffffffffffffffffff167fddf252ad1be2c89b69c2b068fc378daa952ba7f163c4a11628f55a4df523b3ef856040518082815260200191505060405180910390a3601360009054906101000a900473ffffffffffffffffffffffffffffffffffffffff1673ffffffffffffffffffffffffffffffffffffffff166108fc889081150290604051600060405180830381858888f19350505050158015611609573d6000803e3d6000fd5b5061161f87600f5461361a90919063ffffffff16565b507f4014ce514c76bad08328a2a6046bac14007f7aad2c56c84c66acf8ca1c64bee882600f54604051808381526020018281526020019250505060405180910390a15b50505050505050565b600c5481565b60068054600181600116156101000203166002900480601f0160208091040260200160405190810160405280929190818152602001828054600181600116156101000203166002900480156117075780601f106116dc57610100808354040283529160200191611707565b820191906000526020600020905b8154815290600101906020018083116116ea57829003601f168201915b505050505081565b600081600260003373ffffffffffffffffffffffffffffffffffffffff1673ffffffffffffffffffffffffffffffffffffffff16815260200190815260200160002060008573ffffffffffffffffffffffffffffffffffffffff1673ffffffffffffffffffffffffffffffffffffffff168152602001908152602001600020819055508273ffffffffffffffffffffffffffffffffffffffff163373ffffffffffffffffffffffffffffffffffffffff167f8c5be1e5ebec7d5bd14f71427d1e84f3dd0314c0f7b2291e5b200ac8c7c3b925846040518082815260200191505060405180910390a36001905092915050565b600b5481565b601460009054906101000a900473ffffffffffffffffffffffffffffffffffffffff1681565b60008073ffffffffffffffffffffffffffffffffffffffff168373ffffffffffffffffffffffffffffffffffffffff161415151561186a57600080fd5b6000808573ffffffffffffffffffffffffffffffffffffffff1673ffffffffffffffffffffffffffffffffffffffff1681526020019081526020016000205482111515156118b757600080fd5b600260008573ffffffffffffffffffffffffffffffffffffffff1673ffffffffffffffffffffffffffffffffffffffff16815260200190815260200160002060003373ffffffffffffffffffffffffffffffffffffffff1673ffffffffffffffffffffffffffffffffffffffff16815260200190815260200160002054821115151561194257600080fd5b611993826000808773ffffffffffffffffffffffffffffffffffffffff1673ffffffffffffffffffffffffffffffffffffffff1681526020019081526020016000205461360190919063ffffffff16565b6000808673ffffffffffffffffffffffffffffffffffffffff1673ffffffffffffffffffffffffffffffffffffffff16815260200190815260200160002081905550611a26826000808673ffffffffffffffffffffffffffffffffffffffff1673ffffffffffffffffffffffffffffffffffffffff1681526020019081526020016000205461361a90919063ffffffff16565b6000808573ffffffffffffffffffffffffffffffffffffffff1673ffffffffffffffffffffffffffffffffffffffff16815260200190815260200160002081905550611af782600260008773ffffffffffffffffffffffffffffffffffffffff1673ffffffffffffffffffffffffffffffffffffffff16815260200190815260200160002060003373ffffffffffffffffffffffffffffffffffffffff1673ffffffffffffffffffffffffffffffffffffffff1681526020019081526020016000205461360190919063ffffffff16565b600260008673ffffffffffffffffffffffffffffffffffffffff1673ffffffffffffffffffffffffffffffffffffffff16815260200190815260200160002060003373ffffffffffffffffffffffffffffffffffffffff1673ffffffffffffffffffffffffffffffffffffffff168152602001908152602001600020819055508273ffffffffffffffffffffffffffffffffffffffff168473ffffffffffffffffffffffffffffffffffffffff167fddf252ad1be2c89b69c2b068fc378daa952ba7f163c4a11628f55a4df523b3ef846040518082815260200191505060405180910390a3600190509392505050565b60176020528060005260406000206000915090505481565b60085481565b60115481565b600d5481565b600e5481565b600560009054906101000a900473ffffffffffffffffffffffffffffffffffffffff1681565b60095481565b600a5481565b600080611c5461364c565b600080600060049450608060405190810160405280601460ff168152602001600f60ff168152602001600a60ff168152602001600560ff16815250935060009250611cab6004600b5461363690919063ffffffff16565b9150611d2360176000601360009054906101000a900473ffffffffffffffffffffffffffffffffffffffff1673ffffffffffffffffffffffffffffffffffffffff1673ffffffffffffffffffffffffffffffffffffffff16815260200190815260200160002054600b5461360190919063ffffffff16565b905081811015611d365760019450611d7c565b611d4a6002836135c990919063ffffffff16565b811015611d5a5760029450611d7b565b611d6e6003836135c990919063ffffffff16565b811015611d7a57600394505b5b5b611db8846001870360ff16600481101515611d9357fe5b602002015160ff16838910611da85783611daa565b885b6135c990919063ffffffff16565b8301925081871080611dcd575060048560ff16145b15611dda57829550611f28565b611ded828861360190919063ffffffff16565b50600185019450611e30846001870360ff16600481101515611e0b57fe5b602002015160ff16838910611e205783611e22565b885b6135c990919063ffffffff16565b8301925081871080611e45575060048560ff16145b15611e5257829550611f28565b611e65828861360190919063ffffffff16565b50600185019450611ea8846001870360ff16600481101515611e8357fe5b602002015160ff16838910611e985783611e9a565b885b6135c990919063ffffffff16565b8301925081871080611ebd575060048560ff16145b15611eca57829550611f28565b611edd828861360190919063ffffffff16565b50600185019450611f20846001870360ff16600481101515611efb57fe5b602002015160ff16838910611f105783611f12565b885b6135c990919063ffffffff16565b830192508295505b5050505050919050565b600080600260003373ffffffffffffffffffffffffffffffffffffffff1673ffffffffffffffffffffffffffffffffffffffff16815260200190815260200160002060008573ffffffffffffffffffffffffffffffffffffffff1673ffffffffffffffffffffffffffffffffffffffff16815260200190815260200160002054905080831115612043576000600260003373ffffffffffffffffffffffffffffffffffffffff1673ffffffffffffffffffffffffffffffffffffffff16815260200190815260200160002060008673ffffffffffffffffffffffffffffffffffffffff1673ffffffffffffffffffffffffffffffffffffffff168152602001908152602001600020819055506120d7565b612056838261360190919063ffffffff16565b600260003373ffffffffffffffffffffffffffffffffffffffff1673ffffffffffffffffffffffffffffffffffffffff16815260200190815260200160002060008673ffffffffffffffffffffffffffffffffffffffff1673ffffffffffffffffffffffffffffffffffffffff168152602001908152602001600020819055505b8373ffffffffffffffffffffffffffffffffffffffff163373ffffffffffffffffffffffffffffffffffffffff167f8c5be1e5ebec7d5bd14f71427d1e84f3dd0314c0f7b2291e5b200ac8c7c3b925600260003373ffffffffffffffffffffffffffffffffffffffff1673ffffffffffffffffffffffffffffffffffffffff16815260200190815260200160002060008873ffffffffffffffffffffffffffffffffffffffff1673ffffffffffffffffffffffffffffffffffffffff168152602001908152602001600020546040518082815260200191505060405180910390a3600191505092915050565b60008060008373ffffffffffffffffffffffffffffffffffffffff1673ffffffffffffffffffffffffffffffffffffffff168152602001908152602001600020549050919050565b60105481565b6000600360009054906101000a900473ffffffffffffffffffffffffffffffffffffffff1673ffffffffffffffffffffffffffffffffffffffff163373ffffffffffffffffffffffffffffffffffffffff1614151561226f57600080fd5b60115461227a6130e1565b1015151561228757600080fd5b600060176000601360009054906101000a900473ffffffffffffffffffffffffffffffffffffffff1673ffffffffffffffffffffffffffffffffffffffff1673ffffffffffffffffffffffffffffffffffffffff16815260200190815260200160002054111561235957600060176000601360009054906101000a900473ffffffffffffffffffffffffffffffffffffffff1673ffffffffffffffffffffffffffffffffffffffff1673ffffffffffffffffffffffffffffffffffffffff168152602001908152602001600020819055505b6001905090565b600360009054906101000a900473ffffffffffffffffffffffffffffffffffffffff1681565b601360009054906101000a900473ffffffffffffffffffffffffffffffffffffffff1681565b60078054600181600116156101000203166002900480601f0160208091040260200160405190810160405280929190818152602001828054600181600116156101000203166002900480156124425780601f1061241757610100808354040283529160200191612442565b820191906000526020600020905b81548152906001019060200180831161242557829003601f168201915b505050505081565b600080600360009054906101000a900473ffffffffffffffffffffffffffffffffffffffff1673ffffffffffffffffffffffffffffffffffffffff163373ffffffffffffffffffffffffffffffffffffffff161415156124a957600080fd5b600e54905082600e819055507f9a4a0b4ec1a5f7ce40f0bbb5afddc8a88ed1279508f5d92b5056dcffdff438d98184604051808381526020018281526020019250505060405180910390a150919050565b60158181548110151561250957fe5b906000526020600020016000915054906101000a900473ffffffffffffffffffffffffffffffffffffffff1681565b60008073ffffffffffffffffffffffffffffffffffffffff168373ffffffffffffffffffffffffffffffffffffffff161415151561257557600080fd5b6000803373ffffffffffffffffffffffffffffffffffffffff1673ffffffffffffffffffffffffffffffffffffffff1681526020019081526020016000205482111515156125c257600080fd5b612613826000803373ffffffffffffffffffffffffffffffffffffffff1673ffffffffffffffffffffffffffffffffffffffff1681526020019081526020016000205461360190919063ffffffff16565b6000803373ffffffffffffffffffffffffffffffffffffffff1673ffffffffffffffffffffffffffffffffffffffff168152602001908152602001600020819055506126a6826000808673ffffffffffffffffffffffffffffffffffffffff1673ffffffffffffffffffffffffffffffffffffffff1681526020019081526020016000205461361a90919063ffffffff16565b6000808573ffffffffffffffffffffffffffffffffffffffff1673ffffffffffffffffffffffffffffffffffffffff168152602001908152602001600020819055508273ffffffffffffffffffffffffffffffffffffffff163373ffffffffffffffffffffffffffffffffffffffff167fddf252ad1be2c89b69c2b068fc378daa952ba7f163c4a11628f55a4df523b3ef846040518082815260200191505060405180910390a36001905092915050565b60125481565b600080600080600360009054906101000a900473ffffffffffffffffffffffffffffffffffffffff1673ffffffffffffffffffffffffffffffffffffffff163373ffffffffffffffffffffffffffffffffffffffff161415156127bf57600080fd5b6012546127ca6130e1565b101515156127d757600080fd5b600460009054906101000a900473ffffffffffffffffffffffffffffffffffffffff1673ffffffffffffffffffffffffffffffffffffffff1663dadf17296040518163ffffffff167c0100000000000000000000000000000000000000000000000000000000028152600401602060405180830381600087803b15801561285d57600080fd5b505af1158015612871573d6000803e3d6000fd5b505050506040513d602081101561288757600080fd5b81019080805190602001909291905050509350600460009054906101000a900473ffffffffffffffffffffffffffffffffffffffff1673ffffffffffffffffffffffffffffffffffffffff16632194f3a26040518163ffffffff167c0100000000000000000000000000000000000000000000000000000000028152600401602060405180830381600087803b15801561292057600080fd5b505af1158015612934573d6000803e3d6000fd5b505050506040513d602081101561294a57600080fd5b81019080805190602001909291905050509250600091505b6015805490508260ff161015612c8757600460009054906101000a900473ffffffffffffffffffffffffffffffffffffffff1673ffffffffffffffffffffffffffffffffffffffff166323b872dd8560158560ff168154811015156129c357fe5b9060005260206000200160009054906101000a900473ffffffffffffffffffffffffffffffffffffffff166017600060158860ff16815481101515612a0457fe5b9060005260206000200160009054906101000a900473ffffffffffffffffffffffffffffffffffffffff1673ffffffffffffffffffffffffffffffffffffffff1673ffffffffffffffffffffffffffffffffffffffff168152602001908152602001600020546040518463ffffffff167c0100000000000000000000000000000000000000000000000000000000028152600401808473ffffffffffffffffffffffffffffffffffffffff1673ffffffffffffffffffffffffffffffffffffffff1681526020018373ffffffffffffffffffffffffffffffffffffffff1673ffffffffffffffffffffffffffffffffffffffff1681526020018281526020019350505050602060405180830381600087803b158015612b2257600080fd5b505af1158015612b36573d6000803e3d6000fd5b505050506040513d6020811015612b4c57600080fd5b81019080805190602001909291905050505060158260ff16815481101515612b7057fe5b9060005260206000200160009054906101000a900473ffffffffffffffffffffffffffffffffffffffff1673ffffffffffffffffffffffffffffffffffffffff168473ffffffffffffffffffffffffffffffffffffffff167fddf252ad1be2c89b69c2b068fc378daa952ba7f163c4a11628f55a4df523b3ef6017600060158760ff16815481101515612bff57fe5b9060005260206000200160009054906101000a900473ffffffffffffffffffffffffffffffffffffffff1673ffffffffffffffffffffffffffffffffffffffff1673ffffffffffffffffffffffffffffffffffffffff168152602001908152602001600020546040518082815260200191505060405180910390a38180600101925050612962565b6000600460009054906101000a900473ffffffffffffffffffffffffffffffffffffffff1673ffffffffffffffffffffffffffffffffffffffff166370a08231866040518263ffffffff167c0100000000000000000000000000000000000000000000000000000000028152600401808273ffffffffffffffffffffffffffffffffffffffff1673ffffffffffffffffffffffffffffffffffffffff168152602001915050602060405180830381600087803b158015612d4657600080fd5b505af1158015612d5a573d6000803e3d6000fd5b505050506040513d6020811015612d7057600080fd5b8101908080519060200190929190505050111561301c57600460009054906101000a900473ffffffffffffffffffffffffffffffffffffffff1673ffffffffffffffffffffffffffffffffffffffff166370a08231856040518263ffffffff167c0100000000000000000000000000000000000000000000000000000000028152600401808273ffffffffffffffffffffffffffffffffffffffff1673ffffffffffffffffffffffffffffffffffffffff168152602001915050602060405180830381600087803b158015612e4457600080fd5b505af1158015612e58573d6000803e3d6000fd5b505050506040513d6020811015612e6e57600080fd5b81019080805190602001909291905050509050600460009054906101000a900473ffffffffffffffffffffffffffffffffffffffff1673ffffffffffffffffffffffffffffffffffffffff166323b872dd8585846040518463ffffffff167c0100000000000000000000000000000000000000000000000000000000028152600401808473ffffffffffffffffffffffffffffffffffffffff1673ffffffffffffffffffffffffffffffffffffffff1681526020018373ffffffffffffffffffffffffffffffffffffffff1673ffffffffffffffffffffffffffffffffffffffff1681526020018281526020019350505050602060405180830381600087803b158015612f7a57600080fd5b505af1158015612f8e573d6000803e3d6000fd5b505050506040513d6020811015612fa457600080fd5b8101908080519060200190929190505050508273ffffffffffffffffffffffffffffffffffffffff168473ffffffffffffffffffffffffffffffffffffffff167fddf252ad1be2c89b69c2b068fc378daa952ba7f163c4a11628f55a4df523b3ef836040518082815260200191505060405180910390a35b7f5fc214609a6cb66e8182b2a4d291dda75b365e02c065872483a7a875e54d7e1830600560009054906101000a900473ffffffffffffffffffffffffffffffffffffffff16604051808373ffffffffffffffffffffffffffffffffffffffff1673ffffffffffffffffffffffffffffffffffffffff1681526020018273ffffffffffffffffffffffffffffffffffffffff1673ffffffffffffffffffffffffffffffffffffffff1681526020019250505060405180910390a150505050565b600f5481565b60006103e84202905090565b600061317e82600260003373ffffffffffffffffffffffffffffffffffffffff1673ffffffffffffffffffffffffffffffffffffffff16815260200190815260200160002060008673ffffffffffffffffffffffffffffffffffffffff1673ffffffffffffffffffffffffffffffffffffffff1681526020019081526020016000205461361a90919063ffffffff16565b600260003373ffffffffffffffffffffffffffffffffffffffff1673ffffffffffffffffffffffffffffffffffffffff16815260200190815260200160002060008573ffffffffffffffffffffffffffffffffffffffff1673ffffffffffffffffffffffffffffffffffffffff168152602001908152602001600020819055508273ffffffffffffffffffffffffffffffffffffffff163373ffffffffffffffffffffffffffffffffffffffff167f8c5be1e5ebec7d5bd14f71427d1e84f3dd0314c0f7b2291e5b200ac8c7c3b925600260003373ffffffffffffffffffffffffffffffffffffffff1673ffffffffffffffffffffffffffffffffffffffff16815260200190815260200160002060008773ffffffffffffffffffffffffffffffffffffffff1673ffffffffffffffffffffffffffffffffffffffff168152602001908152602001600020546040518082815260200191505060405180910390a36001905092915050565b6000600260008473ffffffffffffffffffffffffffffffffffffffff1673ffffffffffffffffffffffffffffffffffffffff16815260200190815260200160002060008373ffffffffffffffffffffffffffffffffffffffff1673ffffffffffffffffffffffffffffffffffffffff16815260200190815260200160002054905092915050565b600360009054906101000a900473ffffffffffffffffffffffffffffffffffffffff1673ffffffffffffffffffffffffffffffffffffffff163373ffffffffffffffffffffffffffffffffffffffff161415156133cc57600080fd5b80600460006101000a81548173ffffffffffffffffffffffffffffffffffffffff021916908373ffffffffffffffffffffffffffffffffffffffff16021790555080600560006101000a81548173ffffffffffffffffffffffffffffffffffffffff021916908373ffffffffffffffffffffffffffffffffffffffff16021790555050565b600360009054906101000a900473ffffffffffffffffffffffffffffffffffffffff1673ffffffffffffffffffffffffffffffffffffffff163373ffffffffffffffffffffffffffffffffffffffff161415156134ad57600080fd5b600073ffffffffffffffffffffffffffffffffffffffff168173ffffffffffffffffffffffffffffffffffffffff16141515156134e957600080fd5b8073ffffffffffffffffffffffffffffffffffffffff16600360009054906101000a900473ffffffffffffffffffffffffffffffffffffffff1673ffffffffffffffffffffffffffffffffffffffff167f8be0079c531659141344cd1fd0a4f28419497f9722a3daafe3b4186f6b6457e060405160405180910390a380600360006101000a81548173ffffffffffffffffffffffffffffffffffffffff021916908373ffffffffffffffffffffffffffffffffffffffff16021790555050565b60166020528060005260406000206000915054906101000a900460ff1681565b6000808314156135dc57600090506135fb565b81830290508183828115156135ed57fe5b041415156135f757fe5b8090505b92915050565b600082821115151561360f57fe5b818303905092915050565b6000818301905082811015151561362d57fe5b80905092915050565b6000818381151561364357fe5b04905092915050565b6080604051908101604052806004906020820280388339808201915050905050905600a165627a7a723058203d85d18ab114dba60207c8cf26c26ad95e8c2c0547ab128c79f9fbfbf3c7612c0029",
  "source": "pragma solidity ^0.4.23;\n\nimport \"../node_modules/openzeppelin-solidity/contracts/ownership/Ownable.sol\";\nimport \"../node_modules/openzeppelin-solidity/contracts/token/ERC20/StandardToken.sol\";\nimport \"../node_modules/openzeppelin-solidity/contracts/math/Math.sol\";\nimport \"./TSD.sol\";\n\ncontract PRETSD is StandardToken, Ownable {\n    using SafeMath for uint256;\n    // set up access to main contract for the future distribution\n    TSD dc;\n    // when the connection is set to the main contract, save a reference for event purposes\n    address public TSDContractAddress;\n\n    string public name = \"PRE TSD COIN\";\n    string public symbol = \"PRETSD\";\n    uint256 public decimals = 18;\n     // Helper value from 1 million and 1 thousand\n    uint256 public million = 1000000 * (uint256(10) ** decimals);\n    uint256 public thousand = 1000 * (uint256(10) ** decimals);\n\n    uint256 public totalSupply = 165 * million;\n    uint256 public bonusAllocation = (20 * million).add(625 * thousand);\n    uint256 public minPurchase = 5 ether;\n    uint256 public exchangeRate;\n    uint256 public totalEthRaised = 0;\n\n    // Coordinated Universal Time (abbreviated to UTC) is the primary time standard by which the world regulates clocks and time.\n\n    // Start time \"Wed Aug 01 2018 00:00:00 GMT+1000 (AEST)\"\n    // new Date(1533045600000).toUTCString() => \"Tue, 31 Jul 2018 14:00:00 GMT\"\n    uint256 public startTime = 1533045600000;\n    // Start time \"Wed Aug 01 2018 00:00:00 GMT+1000 (AEST)\"\n    // new Date(1534860000000).toUTCString() => \"Tue, 21 Aug 2018 14:00:00 GMT\"\n    uint256 public endTime = 1534860000000;\n    // Token release date 12 month post end date\n    // \"Thu Aug 01 2019 00:00:00 GMT+1000 (AEST)\"\n    // new Date(1564581600000).toUTCString() => \"Wed, 31 Jul 2019 14:00:00 GMT\"\n    uint256 public tokensReleaseDate = 1564581600000;\n\n    // Wallets\n    address public preFundsWallet;\n    address public preSaleBonusWallet;\n    \n      // Array of participants used when distributing tokens to main contract\n    address[] public icoParticipants;\n    \n        // whitelisted addresses\n    mapping (address => bool) public whiteListed;\n    \n    // token balances\n    mapping (address => uint256) public balances;\n    \n    // Events\n    event EthRaisedUpdated(uint256 oldEthRaisedVal, uint256 newEthRaisedVal);\n    event ExhangeRateUpdated(uint256 prevExchangeRate, uint256 newExchangeRate);\n    event DistributedAllBalancesToTSDContract(address _presd, address _tsd);\n    \n    constructor(\n        uint256 _exchangeRate,\n        address[] _whitelistAddresses,\n        address _preSaleBonusWallet\n    ) public {\n        preFundsWallet = owner;\n        exchangeRate = _exchangeRate;\n        preSaleBonusWallet = _preSaleBonusWallet;\n        \n        // transfer suppy to the funds wallet\n        balances[preFundsWallet] = totalSupply;\n        emit Transfer(0x0, preFundsWallet, totalSupply);\n\n        // transfer bonus allocations\n        // transfer event emited by inherited transfer function\n        transfer(preSaleBonusWallet, bonusAllocation);\n        // set up the white listing mapping\n        createWhiteListedMapping(_whitelistAddresses);\n    }\n\n    // Contract utility functions\n    \n    function currentTime() public view returns (uint256) {\n        return now * 1000;\n    }\n    \n    function createWhiteListedMapping(address[] _addresses) private {\n        for (uint256 i = 0; i < _addresses.length; i++) {\n            whiteListed[_addresses[i]] = true;\n        }\n    }\n\n    // Updates the ETH => TSD exchange rate\n    function updateTheExchangeRate(uint256 _newRate) public onlyOwner returns (bool) {\n        uint256 currentRate = exchangeRate;\n        exchangeRate = _newRate;\n        emit ExhangeRateUpdated(currentRate, _newRate);\n    }\n\n    // Buy functions\n\n    function() payable public {\n        buyTokens();\n    }\n    \n    function buyTokens() payable public {\n        require(currentTime() >= startTime && currentTime() <= endTime);\n        require(whiteListed[msg.sender]);\n        uint256 ethAmount = msg.value;\n        uint256 tokenAmount = msg.value.mul(exchangeRate);\n        uint256 bonusAmount = calculateBonus(tokenAmount);\n        uint256 availableTokens;\n        uint256 finalTokenAmount;\n        uint256 currentEthRaised = totalEthRaised;\n        uint256 ethRefund = 0;\n        \n        \n        if (tokenAmount > balances[preFundsWallet]) {\n            // subtract the remaining bal from the original token amount\n            availableTokens = tokenAmount.sub(balances[preFundsWallet]);\n            // calculate new bonus amount\n            bonusAmount = calculateBonus(availableTokens);\n            // calculate the final token sale amount\n            finalTokenAmount = availableTokens.add(bonusAmount);\n            // determine the unused ether amount by seeing how many tokens where\n            // unavailable and dividing by the exchange rate\n            ethRefund = tokenAmount.sub(availableTokens).div(exchangeRate);\n            // subtract the refund amount from the eth amount received by the tx\n            ethAmount = ethAmount.sub(ethRefund);\n            // make the token purchase\n            // sub general token amount\n            balances[preFundsWallet] = balances[preFundsWallet].sub(availableTokens);\n            // sub bonus token amoutn\n            balances[preSaleBonusWallet] = balances[preSaleBonusWallet].sub(bonusAmount);\n            balances[msg.sender] = balances[msg.sender].add(finalTokenAmount);\n            emit Transfer(preFundsWallet, msg.sender, finalTokenAmount);\n            icoParticipants.push(msg.sender);\n            // refund\n            if (ethRefund > 0) {\n                msg.sender.transfer(ethRefund);\n            }\n            // transfer ether to funds wallet\n            preFundsWallet.transfer(ethAmount);\n            totalEthRaised.add(ethAmount);\n            emit EthRaisedUpdated(currentEthRaised, totalEthRaised);\n        } else {\n            require(balances[preFundsWallet] >= tokenAmount);\n            // calculate the final token sale amount\n            finalTokenAmount = tokenAmount.add(bonusAmount);\n            // make the token purchase\n            // sub general token amount\n            balances[preFundsWallet] = balances[preFundsWallet].sub(tokenAmount);\n            // sub bonus token amoutn\n            balances[preSaleBonusWallet] = balances[preSaleBonusWallet].sub(bonusAmount);\n            balances[msg.sender] = balances[msg.sender].add(finalTokenAmount);\n            icoParticipants.push(msg.sender);\n            emit Transfer(preFundsWallet, msg.sender, finalTokenAmount);\n            \n            // transfer ether to the wallet and emit and event regarding eth raised\n            preFundsWallet.transfer(ethAmount);\n            totalEthRaised.add(ethAmount);\n            emit EthRaisedUpdated(currentEthRaised, totalEthRaised);  \n        }\n    }\n\n    function calculateBonus(uint256 _tokenAmount) public view returns (uint256) {\n        uint8 bonusStage = 4;\n        // Tranche rounds are 20%, 15%, 10%, 5%\n        uint8[4] memory bonusRewards = [20, 15, 10, 5];\n        uint256 bonusAmount = 0;\n        uint256 trancheSize = totalSupply.div(4);\n        uint256 sold = totalSupply.sub(balances[preFundsWallet]);\n\n        // Calculate the bucket index based on amount of tokens sold\n        if (sold < trancheSize) {\n            bonusStage = 1;\n        } else {\n            if (sold < trancheSize.mul(2)) {\n                bonusStage = 2;\n            } else {\n                if (sold < trancheSize.mul(3)) {\n                    bonusStage = 3;\n                }\n            }\n        }\n\n        // Begin building the bonus\n        // Accounting for zero indexed array re: \n        // if the bonus stage is 1 then the referene will be [bonusStage - 1] to account for the zeroth index in the bonusRewards array\n        // there are 4 bonus rounds\n        // one call could potentially run through each\n        // this function will potentially break out after determining the bonus for each bonus round\n\n        // begin accumulating the bonus amounts for the requested token amount\n        bonusAmount += (_tokenAmount < trancheSize ? _tokenAmount : trancheSize).mul(bonusRewards[bonusStage - 1]);\n        \n        // if the bonus amount didn't cross a bonus stage then return the bonus\n        if (_tokenAmount < trancheSize || bonusStage == 4) return bonusAmount;\n        // if it did cross a bonus round then subtract the tranche size amount from the amount of tokens requested\n        _tokenAmount.sub(trancheSize);\n        // increase the bonus round by 1\n        bonusStage += 1;\n\n        // with the remaining amount of tokens calculate the bonus allocation for this bonus stage\n        // repeat sequence\n        bonusAmount += (_tokenAmount < trancheSize ? _tokenAmount : trancheSize).mul(bonusRewards[bonusStage - 1]);\n        if (_tokenAmount < trancheSize || bonusStage == 4) return bonusAmount;\n        _tokenAmount.sub(trancheSize);\n        bonusStage += 1;\n\n        // Do the same again for the next bonus round\n        bonusAmount += (_tokenAmount < trancheSize ? _tokenAmount : trancheSize).mul(bonusRewards[bonusStage - 1]);\n        if (_tokenAmount < trancheSize || bonusStage == 4) return bonusAmount;\n        _tokenAmount.sub(trancheSize);\n        bonusStage += 1;\n\n        bonusAmount += (_tokenAmount < trancheSize ? _tokenAmount : trancheSize).mul(bonusRewards[bonusStage - 1]);\n\n        return bonusAmount;\n    }\n\n    // After close functions\n\n    // Create an instance of the main contract\n    function setMainContractAddress(address _t) onlyOwner public {\n        dc = TSD(_t);\n        TSDContractAddress = _t;\n    }\n\n    // Burn any remaining tokens \n    function burnRemainingTokens() public onlyOwner returns (bool) {\n        require(currentTime() >= endTime);\n        if (balances[preFundsWallet] > 0) {\n            balances[preFundsWallet] = 0;\n        }\n\n        return true;\n    }\n    \n    // This can only be called by the owner on or after the token release date.\n    // This will be a two step process.\n    // This function will be called by the preSaleTokenWallet\n    // This wallet will need to be approved in the main contract to make these distributions\n    \n    function distrubuteTokens() onlyOwner public {\n        require(currentTime() >= tokensReleaseDate);\n        address preSaleTokenWallet = dc.preSaleTokenWallet();\n        address mainContractFundsWallet = dc.fundsWallet();\n        for (uint8 i = 0; i < icoParticipants.length; i++) {\n            dc.transferFrom(preSaleTokenWallet, icoParticipants[i], balances[icoParticipants[i]]);\n            emit Transfer(preSaleTokenWallet, icoParticipants[i], balances[icoParticipants[i]]);\n        }\n\n        if (dc.balanceOf(preSaleTokenWallet) > 0) {\n            uint256 remainingBalace = dc.balanceOf(preSaleTokenWallet);\n            dc.transferFrom(preSaleTokenWallet, mainContractFundsWallet, remainingBalace);\n            emit Transfer(preSaleTokenWallet, mainContractFundsWallet, remainingBalace);\n        }\n        // Event to say distribution is complete\n        emit DistributedAllBalancesToTSDContract(address(this), TSDContractAddress);\n    }\n    \n}",
  "sourcePath": "/Users/spencerdezartsmith/Documents/five2one/tsd_dapp/contracts/PRETSD.sol",
  "compiler": {
    "name": "solc",
    "version": "0.4.23+commit.124ca40d.Emscripten.clang"
  },
  "schemaVersion": "2.0.0",
  "updatedAt": "2018-05-24T23:24:07.869Z"
}