{
  "contractName": "PRETSDMock",
  "abi": [
    {
      "constant": true,
      "inputs": [],
      "name": "name",
      "outputs": [
        {
          "name": "",
          "type": "string"
        }
      ],
      "payable": false,
      "stateMutability": "view",
      "type": "function"
    },
    {
      "constant": true,
      "inputs": [],
      "name": "ethExchangeRate",
      "outputs": [
        {
          "name": "",
          "type": "uint256"
        }
      ],
      "payable": false,
      "stateMutability": "view",
      "type": "function"
    },
    {
      "constant": true,
      "inputs": [],
      "name": "totalSupply",
      "outputs": [
        {
          "name": "",
          "type": "uint256"
        }
      ],
      "payable": false,
      "stateMutability": "view",
      "type": "function"
    },
    {
      "constant": false,
      "inputs": [
        {
          "name": "_distributionWallet",
          "type": "address"
        }
      ],
      "name": "setDistributionWallet",
      "outputs": [],
      "payable": false,
      "stateMutability": "nonpayable",
      "type": "function"
    },
    {
      "constant": true,
      "inputs": [],
      "name": "decimalMultiplier",
      "outputs": [
        {
          "name": "",
          "type": "uint256"
        }
      ],
      "payable": false,
      "stateMutability": "view",
      "type": "function"
    },
    {
      "constant": true,
      "inputs": [],
      "name": "decimals",
      "outputs": [
        {
          "name": "",
          "type": "uint256"
        }
      ],
      "payable": false,
      "stateMutability": "view",
      "type": "function"
    },
    {
      "constant": true,
      "inputs": [],
      "name": "endTime",
      "outputs": [
        {
          "name": "",
          "type": "uint256"
        }
      ],
      "payable": false,
      "stateMutability": "view",
      "type": "function"
    },
    {
      "constant": true,
      "inputs": [],
      "name": "minPurchase",
      "outputs": [
        {
          "name": "",
          "type": "uint256"
        }
      ],
      "payable": false,
      "stateMutability": "view",
      "type": "function"
    },
    {
      "constant": true,
      "inputs": [],
      "name": "exchangeRate",
      "outputs": [
        {
          "name": "",
          "type": "uint256"
        }
      ],
      "payable": false,
      "stateMutability": "view",
      "type": "function"
    },
    {
      "constant": false,
      "inputs": [
        {
          "name": "_startTime",
          "type": "uint256"
        }
      ],
      "name": "setStartTime",
      "outputs": [
        {
          "name": "",
          "type": "bool"
        }
      ],
      "payable": false,
      "stateMutability": "nonpayable",
      "type": "function"
    },
    {
      "constant": false,
      "inputs": [
        {
          "name": "_to",
          "type": "address"
        },
        {
          "name": "_value",
          "type": "uint256"
        }
      ],
      "name": "safeTransfer",
      "outputs": [
        {
          "name": "",
          "type": "bool"
        }
      ],
      "payable": false,
      "stateMutability": "nonpayable",
      "type": "function"
    },
    {
      "constant": true,
      "inputs": [],
      "name": "distributionWallet",
      "outputs": [
        {
          "name": "",
          "type": "address"
        }
      ],
      "payable": false,
      "stateMutability": "view",
      "type": "function"
    },
    {
      "constant": true,
      "inputs": [],
      "name": "TSDContractAddress",
      "outputs": [
        {
          "name": "",
          "type": "address"
        }
      ],
      "payable": false,
      "stateMutability": "view",
      "type": "function"
    },
    {
      "constant": true,
      "inputs": [],
      "name": "million",
      "outputs": [
        {
          "name": "",
          "type": "uint256"
        }
      ],
      "payable": false,
      "stateMutability": "view",
      "type": "function"
    },
    {
      "constant": true,
      "inputs": [],
      "name": "tokensAvailable",
      "outputs": [
        {
          "name": "",
          "type": "bool"
        }
      ],
      "payable": false,
      "stateMutability": "view",
      "type": "function"
    },
    {
      "constant": true,
      "inputs": [],
      "name": "currentDistributionIndex",
      "outputs": [
        {
          "name": "",
          "type": "uint256"
        }
      ],
      "payable": false,
      "stateMutability": "view",
      "type": "function"
    },
    {
      "constant": true,
      "inputs": [
        {
          "name": "_address",
          "type": "address"
        }
      ],
      "name": "balanceOf",
      "outputs": [
        {
          "name": "",
          "type": "uint256"
        }
      ],
      "payable": false,
      "stateMutability": "view",
      "type": "function"
    },
    {
      "constant": false,
      "inputs": [],
      "name": "renounceOwnership",
      "outputs": [],
      "payable": false,
      "stateMutability": "nonpayable",
      "type": "function"
    },
    {
      "constant": false,
      "inputs": [
        {
          "name": "_numberOfTransfers",
          "type": "uint256"
        }
      ],
      "name": "distributeTokens",
      "outputs": [
        {
          "name": "",
          "type": "bool"
        }
      ],
      "payable": false,
      "stateMutability": "nonpayable",
      "type": "function"
    },
    {
      "constant": true,
      "inputs": [],
      "name": "startTime",
      "outputs": [
        {
          "name": "",
          "type": "uint256"
        }
      ],
      "payable": false,
      "stateMutability": "view",
      "type": "function"
    },
    {
      "constant": true,
      "inputs": [],
      "name": "tokenPrice",
      "outputs": [
        {
          "name": "",
          "type": "uint256"
        }
      ],
      "payable": false,
      "stateMutability": "view",
      "type": "function"
    },
    {
      "constant": false,
      "inputs": [],
      "name": "burnRemainingTokens",
      "outputs": [
        {
          "name": "",
          "type": "bool"
        }
      ],
      "payable": false,
      "stateMutability": "nonpayable",
      "type": "function"
    },
    {
      "constant": false,
      "inputs": [
        {
          "name": "_address",
          "type": "address"
        }
      ],
      "name": "removeFromWhitelist",
      "outputs": [],
      "payable": false,
      "stateMutability": "nonpayable",
      "type": "function"
    },
    {
      "constant": true,
      "inputs": [],
      "name": "owner",
      "outputs": [
        {
          "name": "",
          "type": "address"
        }
      ],
      "payable": false,
      "stateMutability": "view",
      "type": "function"
    },
    {
      "constant": true,
      "inputs": [],
      "name": "symbol",
      "outputs": [
        {
          "name": "",
          "type": "string"
        }
      ],
      "payable": false,
      "stateMutability": "view",
      "type": "function"
    },
    {
      "constant": true,
      "inputs": [],
      "name": "tokenFundsWallet",
      "outputs": [
        {
          "name": "",
          "type": "address"
        }
      ],
      "payable": false,
      "stateMutability": "view",
      "type": "function"
    },
    {
      "constant": false,
      "inputs": [
        {
          "name": "_newRate",
          "type": "uint256"
        }
      ],
      "name": "updateTheExchangeRate",
      "outputs": [
        {
          "name": "",
          "type": "bool"
        }
      ],
      "payable": false,
      "stateMutability": "nonpayable",
      "type": "function"
    },
    {
      "constant": true,
      "inputs": [
        {
          "name": "",
          "type": "uint256"
        }
      ],
      "name": "icoParticipants",
      "outputs": [
        {
          "name": "",
          "type": "address"
        }
      ],
      "payable": false,
      "stateMutability": "view",
      "type": "function"
    },
    {
      "constant": true,
      "inputs": [],
      "name": "tokensReleaseDate",
      "outputs": [
        {
          "name": "",
          "type": "uint256"
        }
      ],
      "payable": false,
      "stateMutability": "view",
      "type": "function"
    },
    {
      "constant": true,
      "inputs": [],
      "name": "_now",
      "outputs": [
        {
          "name": "",
          "type": "uint256"
        }
      ],
      "payable": false,
      "stateMutability": "view",
      "type": "function"
    },
    {
      "constant": false,
      "inputs": [
        {
          "name": "_addresses",
          "type": "address[]"
        }
      ],
      "name": "createWhiteListedMapping",
      "outputs": [],
      "payable": false,
      "stateMutability": "nonpayable",
      "type": "function"
    },
    {
      "constant": true,
      "inputs": [],
      "name": "totalEthRaised",
      "outputs": [
        {
          "name": "",
          "type": "uint256"
        }
      ],
      "payable": false,
      "stateMutability": "view",
      "type": "function"
    },
    {
      "constant": false,
      "inputs": [
        {
          "name": "_endTime",
          "type": "uint256"
        }
      ],
      "name": "setEndTime",
      "outputs": [
        {
          "name": "",
          "type": "bool"
        }
      ],
      "payable": false,
      "stateMutability": "nonpayable",
      "type": "function"
    },
    {
      "constant": false,
      "inputs": [],
      "name": "buyTokens",
      "outputs": [],
      "payable": true,
      "stateMutability": "payable",
      "type": "function"
    },
    {
      "constant": true,
      "inputs": [],
      "name": "dc",
      "outputs": [
        {
          "name": "",
          "type": "address"
        }
      ],
      "payable": false,
      "stateMutability": "view",
      "type": "function"
    },
    {
      "constant": false,
      "inputs": [
        {
          "name": "_t",
          "type": "address"
        }
      ],
      "name": "setMainContractAddress",
      "outputs": [],
      "payable": false,
      "stateMutability": "nonpayable",
      "type": "function"
    },
    {
      "constant": false,
      "inputs": [
        {
          "name": "newOwner",
          "type": "address"
        }
      ],
      "name": "transferOwnership",
      "outputs": [],
      "payable": false,
      "stateMutability": "nonpayable",
      "type": "function"
    },
    {
      "constant": true,
      "inputs": [
        {
          "name": "",
          "type": "address"
        }
      ],
      "name": "whiteListed",
      "outputs": [
        {
          "name": "",
          "type": "bool"
        }
      ],
      "payable": false,
      "stateMutability": "view",
      "type": "function"
    },
    {
      "constant": false,
      "inputs": [
        {
          "name": "_newAddress",
          "type": "address"
        }
      ],
      "name": "changeOracleAddress",
      "outputs": [],
      "payable": false,
      "stateMutability": "nonpayable",
      "type": "function"
    },
    {
      "inputs": [
        {
          "name": "_currentTime",
          "type": "uint256"
        },
        {
          "name": "_exchangeRate",
          "type": "uint256"
        }
      ],
      "payable": false,
      "stateMutability": "nonpayable",
      "type": "constructor"
    },
    {
      "payable": true,
      "stateMutability": "payable",
      "type": "fallback"
    },
    {
      "anonymous": false,
      "inputs": [
        {
          "indexed": false,
          "name": "oldSupply",
          "type": "uint256"
        },
        {
          "indexed": false,
          "name": "newSupply",
          "type": "uint256"
        }
      ],
      "name": "UpdatedTotalSupply",
      "type": "event"
    },
    {
      "anonymous": false,
      "inputs": [
        {
          "indexed": false,
          "name": "_presd",
          "type": "address"
        },
        {
          "indexed": false,
          "name": "_tsd",
          "type": "address"
        },
        {
          "indexed": false,
          "name": "startIndex",
          "type": "uint256"
        },
        {
          "indexed": false,
          "name": "endIndex",
          "type": "uint256"
        }
      ],
      "name": "DistributedBalancesToTSDContract",
      "type": "event"
    },
    {
      "anonymous": false,
      "inputs": [
        {
          "indexed": false,
          "name": "_presd",
          "type": "address"
        },
        {
          "indexed": false,
          "name": "_tsd",
          "type": "address"
        },
        {
          "indexed": false,
          "name": "_finalWallet",
          "type": "address"
        }
      ],
      "name": "FinalDistributionToTSDContract",
      "type": "event"
    },
    {
      "anonymous": false,
      "inputs": [
        {
          "indexed": false,
          "name": "oldEthRaisedVal",
          "type": "uint256"
        },
        {
          "indexed": false,
          "name": "newEthRaisedVal",
          "type": "uint256"
        }
      ],
      "name": "EthRaisedUpdated",
      "type": "event"
    },
    {
      "anonymous": false,
      "inputs": [
        {
          "indexed": false,
          "name": "prevExchangeRate",
          "type": "uint256"
        },
        {
          "indexed": false,
          "name": "newExchangeRate",
          "type": "uint256"
        }
      ],
      "name": "ExchangeRateUpdated",
      "type": "event"
    },
    {
      "anonymous": false,
      "inputs": [
        {
          "indexed": false,
          "name": "from",
          "type": "address"
        },
        {
          "indexed": false,
          "name": "to",
          "type": "address"
        },
        {
          "indexed": false,
          "name": "value",
          "type": "uint256"
        }
      ],
      "name": "Transfer",
      "type": "event"
    },
    {
      "anonymous": false,
      "inputs": [
        {
          "indexed": false,
          "name": "from",
          "type": "address"
        },
        {
          "indexed": false,
          "name": "to",
          "type": "address"
        },
        {
          "indexed": false,
          "name": "value",
          "type": "uint256"
        }
      ],
      "name": "SafeTransfer",
      "type": "event"
    },
    {
      "anonymous": false,
      "inputs": [
        {
          "indexed": true,
          "name": "previousOwner",
          "type": "address"
        }
      ],
      "name": "OwnershipRenounced",
      "type": "event"
    },
    {
      "anonymous": false,
      "inputs": [
        {
          "indexed": true,
          "name": "previousOwner",
          "type": "address"
        },
        {
          "indexed": true,
          "name": "newOwner",
          "type": "address"
        }
      ],
      "name": "OwnershipTransferred",
      "type": "event"
    },
    {
      "constant": true,
      "inputs": [],
      "name": "currentTime",
      "outputs": [
        {
          "name": "",
          "type": "uint256"
        }
      ],
      "payable": false,
      "stateMutability": "view",
      "type": "function"
    },
    {
      "constant": false,
      "inputs": [
        {
          "name": "_newTime",
          "type": "uint256"
        }
      ],
      "name": "changeTime",
      "outputs": [],
      "payable": false,
      "stateMutability": "nonpayable",
      "type": "function"
    }
  ],
  "bytecode": "0x60806040526012600555600554600a0a600655600654620f42400260075560326008556000600b556001601260006101000a81548160ff02191690831515021790555060006014556040805190810160405280600c81526020017f5052452054534420434f494e00000000000000000000000000000000000000008152506015908051906020019062000094929190620006b3565b506040805190810160405280600681526020017f505245545344000000000000000000000000000000000000000000000000000081525060169080519060200190620000e2929190620006b3565b506207a12060175560806040519081016040528061032061ffff16815260200161034861ffff16815260200161037061ffff16815260200161039861ffff168152506018906004620001369291906200073a565b503480156200014457600080fd5b5060405160408062004811833981018060405281019080805190602001909291908051906020019092919050505080336000806101000a81548173ffffffffffffffffffffffffffffffffffffffff021916908373ffffffffffffffffffffffffffffffffffffffff16021790555060075460f002600281905550620001e56004600254620003b564010000000002620037ff179091906401000000009004565b6019819055506000809054906101000a900473ffffffffffffffffffffffffffffffffffffffff16601260016101000a81548173ffffffffffffffffffffffffffffffffffffffff021916908373ffffffffffffffffffffffffffffffffffffffff16021790555060025460116000601260019054906101000a900473ffffffffffffffffffffffffffffffffffffffff1673ffffffffffffffffffffffffffffffffffffffff1673ffffffffffffffffffffffffffffffffffffffff168152602001908152602001600020819055507fddf252ad1be2c89b69c2b068fc378daa952ba7f163c4a11628f55a4df523b3ef6000601260019054906101000a900473ffffffffffffffffffffffffffffffffffffffff16600254604051808473ffffffffffffffffffffffffffffffffffffffff1681526020018373ffffffffffffffffffffffffffffffffffffffff1673ffffffffffffffffffffffffffffffffffffffff168152602001828152602001935050505060405180910390a16200037d81620003cc640100000000026401000000009004565b50650164f0a36f00600c819055506501655cc8fb00600d8190555065016c48549b00600e819055505081601a8190555050506200083a565b60008183811515620003c357fe5b04905092915050565b60008060008073ffffffffffffffffffffffffffffffffffffffff163373ffffffffffffffffffffffffffffffffffffffff16141515156200040d57600080fd5b6000809054906101000a900473ffffffffffffffffffffffffffffffffffffffff1673ffffffffffffffffffffffffffffffffffffffff163373ffffffffffffffffffffffffffffffffffffffff161480620004b65750600460009054906101000a900473ffffffffffffffffffffffffffffffffffffffff1673ffffffffffffffffffffffffffffffffffffffff163373ffffffffffffffffffffffffffffffffffffffff16145b15156200052b576040517f08c379a00000000000000000000000000000000000000000000000000000000081526004018080602001828103825260138152602001807f556e617574686f72697a65642077616c6c65740000000000000000000000000081525060200191505060405180910390fd5b60008414151515620005a5576040517f08c379a000000000000000000000000000000000000000000000000000000000815260040180806020018281038252601d8152602001807f6e6577204554483d3e55534420726174652063616e6e6f74206265203000000081525060200191505060405180910390fd5b83600981905550600a54915064e8d4a510009050620006258462000608620f4240620005eb600854866200067764010000000002620037c7179091906401000000009004565b6200067764010000000002620037c7179091906401000000009004565b620003b564010000000002620037ff179091906401000000009004565b600a819055507fc8d1043f24843c0a1c9251fdc30017d84e87498fbcf232af9f86816b5e182bde82600a54604051808381526020018281526020019250505060405180910390a1600192505050919050565b6000808314156200068c5760009050620006ad565b81830290508183828115156200069e57fe5b04141515620006a957fe5b8090505b92915050565b828054600181600116156101000203166002900490600052602060002090601f016020900481019282601f10620006f657805160ff191683800117855562000727565b8280016001018555821562000727579182015b828111156200072657825182559160200191906001019062000709565b5b509050620007369190620007de565b5090565b826004600f01601090048101928215620007cb5791602002820160005b838211156200079957835183826101000a81548161ffff021916908361ffff160217905550926020019260020160208160010104928301926001030262000757565b8015620007c95782816101000a81549061ffff021916905560020160208160010104928301926001030262000799565b505b509050620007da919062000806565b5090565b6200080391905b80821115620007ff576000816000905550600101620007e5565b5090565b90565b6200083791905b808211156200083357600081816101000a81549061ffff0219169055506001016200080d565b5090565b90565b613fc7806200084a6000396000f3006080604052600436106101f9576000357c0100000000000000000000000000000000000000000000000000000000900463ffffffff16806306fdde03146102035780630b961e481461029357806318160ddd146102be57806319ecb166146102e95780633082538f1461032c578063313ce567146103575780633197cbb61461038257806333b5b62e146103ad5780633ba0b9a9146103d85780633e0a322d14610403578063423f6cef14610448578063467d0119146104ad5780634a54839d146105045780634e9c6b1f1461055b57806360659a92146105865780636ff85ea9146105b557806370a08231146105e0578063715018a6146106375780637366794e1461064e57806378e97925146106935780637974f8fe146106be5780637ff9b596146106eb57806383408d73146107165780638ab1d681146107455780638da5cb5b1461078857806395d89b41146107df578063972f3d331461086f578063a229c614146108c6578063a256ea3a1461090b578063afe07f5914610978578063b3bb8cd4146109a3578063b9cdd19b146109ce578063c9e904be14610a09578063ccb98ffc14610a34578063d0febe4c14610a79578063d18e81b314610a83578063d8a531a614610aae578063ec9da59e14610b05578063f2fde38b14610b48578063fa0fca8414610b8b578063fb349dbd14610be6575b610201610c29565b005b34801561020f57600080fd5b506102186117d7565b6040518080602001828103825283818151815260200191508051906020019080838360005b8381101561025857808201518184015260208101905061023d565b50505050905090810190601f1680156102855780820380516001836020036101000a031916815260200191505b509250505060405180910390f35b34801561029f57600080fd5b506102a8611875565b6040518082815260200191505060405180910390f35b3480156102ca57600080fd5b506102d361187b565b6040518082815260200191505060405180910390f35b3480156102f557600080fd5b5061032a600480360381019080803573ffffffffffffffffffffffffffffffffffffffff169060200190929190505050611881565b005b34801561033857600080fd5b50610341611920565b6040518082815260200191505060405180910390f35b34801561036357600080fd5b5061036c611926565b6040518082815260200191505060405180910390f35b34801561038e57600080fd5b5061039761192c565b6040518082815260200191505060405180910390f35b3480156103b957600080fd5b506103c2611932565b6040518082815260200191505060405180910390f35b3480156103e457600080fd5b506103ed611938565b6040518082815260200191505060405180910390f35b34801561040f57600080fd5b5061042e6004803603810190808035906020019092919050505061193e565b604051808215151515815260200191505060405180910390f35b34801561045457600080fd5b50610493600480360381019080803573ffffffffffffffffffffffffffffffffffffffff169060200190929190803590602001909291905050506119bb565b604051808215151515815260200191505060405180910390f35b3480156104b957600080fd5b506104c2611e2c565b604051808273ffffffffffffffffffffffffffffffffffffffff1673ffffffffffffffffffffffffffffffffffffffff16815260200191505060405180910390f35b34801561051057600080fd5b50610519611e52565b604051808273ffffffffffffffffffffffffffffffffffffffff1673ffffffffffffffffffffffffffffffffffffffff16815260200191505060405180910390f35b34801561056757600080fd5b50610570611e78565b6040518082815260200191505060405180910390f35b34801561059257600080fd5b5061059b611e7e565b604051808215151515815260200191505060405180910390f35b3480156105c157600080fd5b506105ca611e91565b6040518082815260200191505060405180910390f35b3480156105ec57600080fd5b50610621600480360381019080803573ffffffffffffffffffffffffffffffffffffffff169060200190929190505050611e97565b6040518082815260200191505060405180910390f35b34801561064357600080fd5b5061064c611ee0565b005b34801561065a57600080fd5b5061067960048036038101908080359060200190929190505050611fe2565b604051808215151515815260200191505060405180910390f35b34801561069f57600080fd5b506106a86129f2565b6040518082815260200191505060405180910390f35b3480156106ca57600080fd5b506106e9600480360381019080803590602001909291905050506129f8565b005b3480156106f757600080fd5b50610700612a02565b6040518082815260200191505060405180910390f35b34801561072257600080fd5b5061072b612a08565b604051808215151515815260200191505060405180910390f35b34801561075157600080fd5b50610786600480360381019080803573ffffffffffffffffffffffffffffffffffffffff169060200190929190505050612ca9565b005b34801561079457600080fd5b5061079d612e53565b604051808273ffffffffffffffffffffffffffffffffffffffff1673ffffffffffffffffffffffffffffffffffffffff16815260200191505060405180910390f35b3480156107eb57600080fd5b506107f4612e78565b6040518080602001828103825283818151815260200191508051906020019080838360005b83811015610834578082015181840152602081019050610819565b50505050905090810190601f1680156108615780820380516001836020036101000a031916815260200191505b509250505060405180910390f35b34801561087b57600080fd5b50610884612f16565b604051808273ffffffffffffffffffffffffffffffffffffffff1673ffffffffffffffffffffffffffffffffffffffff16815260200191505060405180910390f35b3480156108d257600080fd5b506108f160048036038101908080359060200190929190505050612f3c565b604051808215151515815260200191505060405180910390f35b34801561091757600080fd5b50610936600480360381019080803590602001909291905050506131b3565b604051808273ffffffffffffffffffffffffffffffffffffffff1673ffffffffffffffffffffffffffffffffffffffff16815260200191505060405180910390f35b34801561098457600080fd5b5061098d6131f1565b6040518082815260200191505060405180910390f35b3480156109af57600080fd5b506109b86131f7565b6040518082815260200191505060405180910390f35b3480156109da57600080fd5b50610a076004803603810190808035906020019082018035906020019190919293919293905050506131fd565b005b348015610a1557600080fd5b50610a1e61340e565b6040518082815260200191505060405180910390f35b348015610a4057600080fd5b50610a5f60048036038101908080359060200190929190505050613414565b604051808215151515815260200191505060405180910390f35b610a81610c29565b005b348015610a8f57600080fd5b50610a986134a3565b6040518082815260200191505060405180910390f35b348015610aba57600080fd5b50610ac36134ad565b604051808273ffffffffffffffffffffffffffffffffffffffff1673ffffffffffffffffffffffffffffffffffffffff16815260200191505060405180910390f35b348015610b1157600080fd5b50610b46600480360381019080803573ffffffffffffffffffffffffffffffffffffffff1690602001909291905050506134d3565b005b348015610b5457600080fd5b50610b89600480360381019080803573ffffffffffffffffffffffffffffffffffffffff1690602001909291905050506135b3565b005b348015610b9757600080fd5b50610bcc600480360381019080803573ffffffffffffffffffffffffffffffffffffffff169060200190929190505050613708565b604051808215151515815260200191505060405180910390f35b348015610bf257600080fd5b50610c27600480360381019080803573ffffffffffffffffffffffffffffffffffffffff169060200190929190505050613728565b005b600080600080600080600080610c3d6134a3565b9750610c6a600954610c5c6006546017546137c790919063ffffffff16565b6137ff90919063ffffffff16565b9650601260009054906101000a900460ff161515610cf0576040517f08c379a00000000000000000000000000000000000000000000000000000000081526004018080602001828103825260188152602001807f6e6f206d6f726520746f6b656e7320617661696c61626c65000000000000000081525060200191505060405180910390fd5b600c548810158015610d045750600d548811155b1515610d9e576040517f08c379a00000000000000000000000000000000000000000000000000000000081526004018080602001828103825260308152602001807f63757272656e742074696d65206973206e6f7420696e2074686520707572636881526020017f6173652077696e646f77206672616d650000000000000000000000000000000081525060400191505060405180910390fd5b601060003373ffffffffffffffffffffffffffffffffffffffff1673ffffffffffffffffffffffffffffffffffffffff16815260200190815260200160002060009054906101000a900460ff161515610e5f576040517f08c379a00000000000000000000000000000000000000000000000000000000081526004018080602001828103825260178152602001807f75736572206973206e6f742077686974656c697374656400000000000000000081525060200191505060405180910390fd5b863410151515610efd576040517f08c379a00000000000000000000000000000000000000000000000000000000081526004018080602001828103825260258152602001807f616d6f756e742073656e742069732062656c6f77206d696e696d756d2070757281526020017f636861736500000000000000000000000000000000000000000000000000000081525060400191505060405180910390fd5b349550610f0986613815565b9450600b5493506000925060116000601260019054906101000a900473ffffffffffffffffffffffffffffffffffffffff1673ffffffffffffffffffffffffffffffffffffffff1673ffffffffffffffffffffffffffffffffffffffff1681526020019081526020016000205485141561142957610f85613c42565b9150610f9a8287613e9390919063ffffffff16565b9250610faf8387613e9390919063ffffffff16565b955060116000601260019054906101000a900473ffffffffffffffffffffffffffffffffffffffff1673ffffffffffffffffffffffffffffffffffffffff1673ffffffffffffffffffffffffffffffffffffffff1681526020019081526020016000205490506110898160116000601260019054906101000a900473ffffffffffffffffffffffffffffffffffffffff1673ffffffffffffffffffffffffffffffffffffffff1673ffffffffffffffffffffffffffffffffffffffff16815260200190815260200160002054613e9390919063ffffffff16565b60116000601260019054906101000a900473ffffffffffffffffffffffffffffffffffffffff1673ffffffffffffffffffffffffffffffffffffffff1673ffffffffffffffffffffffffffffffffffffffff168152602001908152602001600020819055506000601160003373ffffffffffffffffffffffffffffffffffffffff1673ffffffffffffffffffffffffffffffffffffffff16815260200190815260200160002054141561119d57600f3390806001815401808255809150509060018203906000526020600020016000909192909190916101000a81548173ffffffffffffffffffffffffffffffffffffffff021916908373ffffffffffffffffffffffffffffffffffffffff160217905550505b6111ef81601160003373ffffffffffffffffffffffffffffffffffffffff1673ffffffffffffffffffffffffffffffffffffffff16815260200190815260200160002054613eac90919063ffffffff16565b601160003373ffffffffffffffffffffffffffffffffffffffff1673ffffffffffffffffffffffffffffffffffffffff168152602001908152602001600020819055507fddf252ad1be2c89b69c2b068fc378daa952ba7f163c4a11628f55a4df523b3ef601260019054906101000a900473ffffffffffffffffffffffffffffffffffffffff163383604051808473ffffffffffffffffffffffffffffffffffffffff1673ffffffffffffffffffffffffffffffffffffffff1681526020018373ffffffffffffffffffffffffffffffffffffffff1673ffffffffffffffffffffffffffffffffffffffff168152602001828152602001935050505060405180910390a16000831115611344573373ffffffffffffffffffffffffffffffffffffffff166108fc849081150290604051600060405180830381858888f19350505050158015611342573d6000803e3d6000fd5b505b601260019054906101000a900473ffffffffffffffffffffffffffffffffffffffff1673ffffffffffffffffffffffffffffffffffffffff166108fc879081150290604051600060405180830381858888f193505050501580156113ac573d6000803e3d6000fd5b506113c286600b54613eac90919063ffffffff16565b600b819055507f4014ce514c76bad08328a2a6046bac14007f7aad2c56c84c66acf8ca1c64bee884600b54604051808381526020018281526020019250505060405180910390a16000601260006101000a81548160ff0219169083151502179055506117cd565b6000601160003373ffffffffffffffffffffffffffffffffffffffff1673ffffffffffffffffffffffffffffffffffffffff1681526020019081526020016000205414156114d857600f3390806001815401808255809150509060018203906000526020600020016000909192909190916101000a81548173ffffffffffffffffffffffffffffffffffffffff021916908373ffffffffffffffffffffffffffffffffffffffff160217905550505b61154c8560116000601260019054906101000a900473ffffffffffffffffffffffffffffffffffffffff1673ffffffffffffffffffffffffffffffffffffffff1673ffffffffffffffffffffffffffffffffffffffff16815260200190815260200160002054613e9390919063ffffffff16565b60116000601260019054906101000a900473ffffffffffffffffffffffffffffffffffffffff1673ffffffffffffffffffffffffffffffffffffffff1673ffffffffffffffffffffffffffffffffffffffff1681526020019081526020016000208190555061160385601160003373ffffffffffffffffffffffffffffffffffffffff1673ffffffffffffffffffffffffffffffffffffffff16815260200190815260200160002054613eac90919063ffffffff16565b601160003373ffffffffffffffffffffffffffffffffffffffff1673ffffffffffffffffffffffffffffffffffffffff168152602001908152602001600020819055507fddf252ad1be2c89b69c2b068fc378daa952ba7f163c4a11628f55a4df523b3ef601260019054906101000a900473ffffffffffffffffffffffffffffffffffffffff163387604051808473ffffffffffffffffffffffffffffffffffffffff1673ffffffffffffffffffffffffffffffffffffffff1681526020018373ffffffffffffffffffffffffffffffffffffffff1673ffffffffffffffffffffffffffffffffffffffff168152602001828152602001935050505060405180910390a1601260019054906101000a900473ffffffffffffffffffffffffffffffffffffffff1673ffffffffffffffffffffffffffffffffffffffff166108fc879081150290604051600060405180830381858888f1935050505015801561176f573d6000803e3d6000fd5b5061178586600b54613eac90919063ffffffff16565b600b819055507f4014ce514c76bad08328a2a6046bac14007f7aad2c56c84c66acf8ca1c64bee884600b54604051808381526020018281526020019250505060405180910390a15b5050505050505050565b60158054600181600116156101000203166002900480601f01602080910402602001604051908101604052809291908181526020018280546001816001161561010002031660029004801561186d5780601f106118425761010080835404028352916020019161186d565b820191906000526020600020905b81548152906001019060200180831161185057829003601f168201915b505050505081565b60095481565b60025481565b6000809054906101000a900473ffffffffffffffffffffffffffffffffffffffff1673ffffffffffffffffffffffffffffffffffffffff163373ffffffffffffffffffffffffffffffffffffffff161415156118dc57600080fd5b80601360006101000a81548173ffffffffffffffffffffffffffffffffffffffff021916908373ffffffffffffffffffffffffffffffffffffffff16021790555050565b60065481565b60055481565b600d5481565b60175481565b600a5481565b60008060009054906101000a900473ffffffffffffffffffffffffffffffffffffffff1673ffffffffffffffffffffffffffffffffffffffff163373ffffffffffffffffffffffffffffffffffffffff1614151561199b57600080fd5b600d54821015156119ab57600080fd5b81600c8190555060019050919050565b60008060009054906101000a900473ffffffffffffffffffffffffffffffffffffffff1673ffffffffffffffffffffffffffffffffffffffff163373ffffffffffffffffffffffffffffffffffffffff16141515611a1857600080fd5b600073ffffffffffffffffffffffffffffffffffffffff168373ffffffffffffffffffffffffffffffffffffffff1614151515611a5457600080fd5b601160003373ffffffffffffffffffffffffffffffffffffffff1673ffffffffffffffffffffffffffffffffffffffff168152602001908152602001600020548211151515611b0b576040517f08c379a000000000000000000000000000000000000000000000000000000000815260040180806020018281038252600f8152602001807f62616c616e636520746f6f206c6f77000000000000000000000000000000000081525060200191505060405180910390fd5b6000601160008573ffffffffffffffffffffffffffffffffffffffff1673ffffffffffffffffffffffffffffffffffffffff168152602001908152602001600020541415611bba57600f8390806001815401808255809150509060018203906000526020600020016000909192909190916101000a81548173ffffffffffffffffffffffffffffffffffffffff021916908373ffffffffffffffffffffffffffffffffffffffff160217905550505b611c0c82601160003373ffffffffffffffffffffffffffffffffffffffff1673ffffffffffffffffffffffffffffffffffffffff16815260200190815260200160002054613e9390919063ffffffff16565b601160003373ffffffffffffffffffffffffffffffffffffffff1673ffffffffffffffffffffffffffffffffffffffff16815260200190815260200160002081905550611ca182601160008673ffffffffffffffffffffffffffffffffffffffff1673ffffffffffffffffffffffffffffffffffffffff16815260200190815260200160002054613eac90919063ffffffff16565b601160008573ffffffffffffffffffffffffffffffffffffffff1673ffffffffffffffffffffffffffffffffffffffff168152602001908152602001600020819055507fddf252ad1be2c89b69c2b068fc378daa952ba7f163c4a11628f55a4df523b3ef338484604051808473ffffffffffffffffffffffffffffffffffffffff1673ffffffffffffffffffffffffffffffffffffffff1681526020018373ffffffffffffffffffffffffffffffffffffffff1673ffffffffffffffffffffffffffffffffffffffff168152602001828152602001935050505060405180910390a17ff1e4d924660e3140f9ee5a4c60b903dbb2788763230b3033aa2cfc07a9bfe163338484604051808473ffffffffffffffffffffffffffffffffffffffff1673ffffffffffffffffffffffffffffffffffffffff1681526020018373ffffffffffffffffffffffffffffffffffffffff1673ffffffffffffffffffffffffffffffffffffffff168152602001828152602001935050505060405180910390a16001905092915050565b601360009054906101000a900473ffffffffffffffffffffffffffffffffffffffff1681565b600360009054906101000a900473ffffffffffffffffffffffffffffffffffffffff1681565b60075481565b601260009054906101000a900460ff1681565b60145481565b6000601160008373ffffffffffffffffffffffffffffffffffffffff1673ffffffffffffffffffffffffffffffffffffffff168152602001908152602001600020549050919050565b6000809054906101000a900473ffffffffffffffffffffffffffffffffffffffff1673ffffffffffffffffffffffffffffffffffffffff163373ffffffffffffffffffffffffffffffffffffffff16141515611f3b57600080fd5b6000809054906101000a900473ffffffffffffffffffffffffffffffffffffffff1673ffffffffffffffffffffffffffffffffffffffff167ff8df31144d9c2f0f6b59d69b8b98abd5459d07f2742c4df920b25aae33c6482060405160405180910390a260008060006101000a81548173ffffffffffffffffffffffffffffffffffffffff021916908373ffffffffffffffffffffffffffffffffffffffff160217905550565b60008060008073ffffffffffffffffffffffffffffffffffffffff163373ffffffffffffffffffffffffffffffffffffffff161415151561202257600080fd5b6000809054906101000a900473ffffffffffffffffffffffffffffffffffffffff1673ffffffffffffffffffffffffffffffffffffffff163373ffffffffffffffffffffffffffffffffffffffff1614806120ca5750600460009054906101000a900473ffffffffffffffffffffffffffffffffffffffff1673ffffffffffffffffffffffffffffffffffffffff163373ffffffffffffffffffffffffffffffffffffffff16145b151561213e576040517f08c379a00000000000000000000000000000000000000000000000000000000081526004018080602001828103825260138152602001807f556e617574686f72697a65642077616c6c65740000000000000000000000000081525060200191505060405180910390fd5b600e546121496134a3565b101515156121e5576040517f08c379a000000000000000000000000000000000000000000000000000000000815260040180806020018281038252602b8152602001807f63616e206f6e6c79206469737472696275746520616674657220746f6b656e7381526020017f52656c656173654461746500000000000000000000000000000000000000000081525060400191505060405180910390fd5b600084111515612283576040517f08c379a000000000000000000000000000000000000000000000000000000000815260040180806020018281038252602a8152602001807f6e756d626572206f66207472616e7366657273206d757374206265206d6f726581526020017f207468616e207a65726f0000000000000000000000000000000000000000000081525060400191505060405180910390fd5b600f80549050601454101515612327576040517f08c379a00000000000000000000000000000000000000000000000000000000081526004018080602001828103825260288152602001807f616c6c20746f6b656e732068617665206265656e20646973747269627574656481526020017f20616c726561647900000000000000000000000000000000000000000000000081525060400191505060405180910390fd5b61233c84601454613eac90919063ffffffff16565b915060145490505b8181101561291557600060116000600f8481548110151561236157fe5b9060005260206000200160009054906101000a900473ffffffffffffffffffffffffffffffffffffffff1673ffffffffffffffffffffffffffffffffffffffff1673ffffffffffffffffffffffffffffffffffffffff168152602001908152602001600020541415156127c757600160009054906101000a900473ffffffffffffffffffffffffffffffffffffffff1673ffffffffffffffffffffffffffffffffffffffff166323b872dd601360009054906101000a900473ffffffffffffffffffffffffffffffffffffffff16600f8481548110151561243e57fe5b9060005260206000200160009054906101000a900473ffffffffffffffffffffffffffffffffffffffff1660116000600f8781548110151561247c57fe5b9060005260206000200160009054906101000a900473ffffffffffffffffffffffffffffffffffffffff1673ffffffffffffffffffffffffffffffffffffffff1673ffffffffffffffffffffffffffffffffffffffff168152602001908152602001600020546040518463ffffffff167c0100000000000000000000000000000000000000000000000000000000028152600401808473ffffffffffffffffffffffffffffffffffffffff1673ffffffffffffffffffffffffffffffffffffffff1681526020018373ffffffffffffffffffffffffffffffffffffffff1673ffffffffffffffffffffffffffffffffffffffff1681526020018281526020019350505050602060405180830381600087803b15801561259a57600080fd5b505af11580156125ae573d6000803e3d6000fd5b505050506040513d60208110156125c457600080fd5b8101908080519060200190929190505050507fddf252ad1be2c89b69c2b068fc378daa952ba7f163c4a11628f55a4df523b3ef601360009054906101000a900473ffffffffffffffffffffffffffffffffffffffff16600f8381548110151561262957fe5b9060005260206000200160009054906101000a900473ffffffffffffffffffffffffffffffffffffffff1660116000600f8681548110151561266757fe5b9060005260206000200160009054906101000a900473ffffffffffffffffffffffffffffffffffffffff1673ffffffffffffffffffffffffffffffffffffffff1673ffffffffffffffffffffffffffffffffffffffff16815260200190815260200160002054604051808473ffffffffffffffffffffffffffffffffffffffff1673ffffffffffffffffffffffffffffffffffffffff1681526020018373ffffffffffffffffffffffffffffffffffffffff1673ffffffffffffffffffffffffffffffffffffffff168152602001828152602001935050505060405180910390a1600060116000600f8481548110151561275d57fe5b9060005260206000200160009054906101000a900473ffffffffffffffffffffffffffffffffffffffff1673ffffffffffffffffffffffffffffffffffffffff1673ffffffffffffffffffffffffffffffffffffffff168152602001908152602001600020819055505b6001600f8054905003811415612908577fd897b6acc1a2f53be7cca2c1199adbf53022b417c7d694535317c7f7fd0cfab730600360009054906101000a900473ffffffffffffffffffffffffffffffffffffffff16600f8481548110151561282b57fe5b9060005260206000200160009054906101000a900473ffffffffffffffffffffffffffffffffffffffff16604051808473ffffffffffffffffffffffffffffffffffffffff1673ffffffffffffffffffffffffffffffffffffffff1681526020018373ffffffffffffffffffffffffffffffffffffffff1673ffffffffffffffffffffffffffffffffffffffff1681526020018273ffffffffffffffffffffffffffffffffffffffff1673ffffffffffffffffffffffffffffffffffffffff168152602001935050505060405180910390a1600181019150612915565b8080600101915050612344565b7fb602d53c9c2dd706fac86a91d5aa373a8a92beeedbb88d91b0bcdf061edfbf1b30600360009054906101000a900473ffffffffffffffffffffffffffffffffffffffff1660145485604051808573ffffffffffffffffffffffffffffffffffffffff1673ffffffffffffffffffffffffffffffffffffffff1681526020018473ffffffffffffffffffffffffffffffffffffffff1673ffffffffffffffffffffffffffffffffffffffff16815260200183815260200182815260200194505050505060405180910390a181601481905550600192505050919050565b600c5481565b80601a8190555050565b60085481565b6000806000809054906101000a900473ffffffffffffffffffffffffffffffffffffffff1673ffffffffffffffffffffffffffffffffffffffff163373ffffffffffffffffffffffffffffffffffffffff16141515612a6657600080fd5b600d54612a716134a3565b10151515612b0d576040517f08c379a00000000000000000000000000000000000000000000000000000000081526004018080602001828103825260338152602001807f63616e206f6e6c79206275726e20746f6b656e7320616674657220746f6b656e81526020017f2073616c652068617320636f6e636c756465640000000000000000000000000081525060400191505060405180910390fd5b600060116000601260019054906101000a900473ffffffffffffffffffffffffffffffffffffffff1673ffffffffffffffffffffffffffffffffffffffff1673ffffffffffffffffffffffffffffffffffffffff168152602001908152602001600020541115612ca1576002549050612bf260116000601260019054906101000a900473ffffffffffffffffffffffffffffffffffffffff1673ffffffffffffffffffffffffffffffffffffffff1673ffffffffffffffffffffffffffffffffffffffff16815260200190815260200160002054600254613e9390919063ffffffff16565b600281905550600060116000601260019054906101000a900473ffffffffffffffffffffffffffffffffffffffff1673ffffffffffffffffffffffffffffffffffffffff1673ffffffffffffffffffffffffffffffffffffffff168152602001908152602001600020819055507f8a96e7229e5b018dff0425d91c96d3f7d93cae0b891ff020eef8b1686e1a6a1081600254604051808381526020018281526020019250505060405180910390a15b600191505090565b600073ffffffffffffffffffffffffffffffffffffffff163373ffffffffffffffffffffffffffffffffffffffff1614151515612ce557600080fd5b6000809054906101000a900473ffffffffffffffffffffffffffffffffffffffff1673ffffffffffffffffffffffffffffffffffffffff163373ffffffffffffffffffffffffffffffffffffffff161480612d8d5750600460009054906101000a900473ffffffffffffffffffffffffffffffffffffffff1673ffffffffffffffffffffffffffffffffffffffff163373ffffffffffffffffffffffffffffffffffffffff16145b1515612e01576040517f08c379a00000000000000000000000000000000000000000000000000000000081526004018080602001828103825260138152602001807f556e617574686f72697a65642077616c6c65740000000000000000000000000081525060200191505060405180910390fd5b601060008273ffffffffffffffffffffffffffffffffffffffff1673ffffffffffffffffffffffffffffffffffffffff16815260200190815260200160002060006101000a81549060ff021916905550565b6000809054906101000a900473ffffffffffffffffffffffffffffffffffffffff1681565b60168054600181600116156101000203166002900480601f016020809104026020016040519081016040528092919081815260200182805460018160011615610100020316600290048015612f0e5780601f10612ee357610100808354040283529160200191612f0e565b820191906000526020600020905b815481529060010190602001808311612ef157829003601f168201915b505050505081565b601260019054906101000a900473ffffffffffffffffffffffffffffffffffffffff1681565b60008060008073ffffffffffffffffffffffffffffffffffffffff163373ffffffffffffffffffffffffffffffffffffffff1614151515612f7c57600080fd5b6000809054906101000a900473ffffffffffffffffffffffffffffffffffffffff1673ffffffffffffffffffffffffffffffffffffffff163373ffffffffffffffffffffffffffffffffffffffff1614806130245750600460009054906101000a900473ffffffffffffffffffffffffffffffffffffffff1673ffffffffffffffffffffffffffffffffffffffff163373ffffffffffffffffffffffffffffffffffffffff16145b1515613098576040517f08c379a00000000000000000000000000000000000000000000000000000000081526004018080602001828103825260138152602001807f556e617574686f72697a65642077616c6c65740000000000000000000000000081525060200191505060405180910390fd5b60008414151515613111576040517f08c379a000000000000000000000000000000000000000000000000000000000815260040180806020018281038252601d8152602001807f6e6577204554483d3e55534420726174652063616e6e6f74206265203000000081525060200191505060405180910390fd5b83600981905550600a54915064e8d4a51000905061316184613153620f4240613145600854866137c790919063ffffffff16565b6137c790919063ffffffff16565b6137ff90919063ffffffff16565b600a819055507fc8d1043f24843c0a1c9251fdc30017d84e87498fbcf232af9f86816b5e182bde82600a54604051808381526020018281526020019250505060405180910390a1600192505050919050565b600f818154811015156131c257fe5b906000526020600020016000915054906101000a900473ffffffffffffffffffffffffffffffffffffffff1681565b600e5481565b601a5481565b60008073ffffffffffffffffffffffffffffffffffffffff163373ffffffffffffffffffffffffffffffffffffffff161415151561323a57600080fd5b6000809054906101000a900473ffffffffffffffffffffffffffffffffffffffff1673ffffffffffffffffffffffffffffffffffffffff163373ffffffffffffffffffffffffffffffffffffffff1614806132e25750600460009054906101000a900473ffffffffffffffffffffffffffffffffffffffff1673ffffffffffffffffffffffffffffffffffffffff163373ffffffffffffffffffffffffffffffffffffffff16145b1515613356576040517f08c379a00000000000000000000000000000000000000000000000000000000081526004018080602001828103825260138152602001807f556e617574686f72697a65642077616c6c65740000000000000000000000000081525060200191505060405180910390fd5b600090505b828290508167ffffffffffffffff1610156134095760016010600085858567ffffffffffffffff16818110151561338e57fe5b9050602002013573ffffffffffffffffffffffffffffffffffffffff1673ffffffffffffffffffffffffffffffffffffffff1673ffffffffffffffffffffffffffffffffffffffff16815260200190815260200160002060006101000a81548160ff021916908315150217905550808060010191505061335b565b505050565b600b5481565b60008060009054906101000a900473ffffffffffffffffffffffffffffffffffffffff1673ffffffffffffffffffffffffffffffffffffffff163373ffffffffffffffffffffffffffffffffffffffff1614151561347157600080fd5b600c548211801561348857506134856134a3565b82115b151561349357600080fd5b81600d8190555060019050919050565b6000601a54905090565b600160009054906101000a900473ffffffffffffffffffffffffffffffffffffffff1681565b6000809054906101000a900473ffffffffffffffffffffffffffffffffffffffff1673ffffffffffffffffffffffffffffffffffffffff163373ffffffffffffffffffffffffffffffffffffffff1614151561352e57600080fd5b80600160006101000a81548173ffffffffffffffffffffffffffffffffffffffff021916908373ffffffffffffffffffffffffffffffffffffffff16021790555080600360006101000a81548173ffffffffffffffffffffffffffffffffffffffff021916908373ffffffffffffffffffffffffffffffffffffffff16021790555050565b6000809054906101000a900473ffffffffffffffffffffffffffffffffffffffff1673ffffffffffffffffffffffffffffffffffffffff163373ffffffffffffffffffffffffffffffffffffffff1614151561360e57600080fd5b600073ffffffffffffffffffffffffffffffffffffffff168173ffffffffffffffffffffffffffffffffffffffff161415151561364a57600080fd5b8073ffffffffffffffffffffffffffffffffffffffff166000809054906101000a900473ffffffffffffffffffffffffffffffffffffffff1673ffffffffffffffffffffffffffffffffffffffff167f8be0079c531659141344cd1fd0a4f28419497f9722a3daafe3b4186f6b6457e060405160405180910390a3806000806101000a81548173ffffffffffffffffffffffffffffffffffffffff021916908373ffffffffffffffffffffffffffffffffffffffff16021790555050565b60106020528060005260406000206000915054906101000a900460ff1681565b6000809054906101000a900473ffffffffffffffffffffffffffffffffffffffff1673ffffffffffffffffffffffffffffffffffffffff163373ffffffffffffffffffffffffffffffffffffffff1614151561378357600080fd5b80600460006101000a81548173ffffffffffffffffffffffffffffffffffffffff021916908373ffffffffffffffffffffffffffffffffffffffff16021790555050565b6000808314156137da57600090506137f9565b81830290508183828115156137eb57fe5b041415156137f557fe5b8090505b92915050565b6000818381151561380c57fe5b04905092915050565b6000806000806000806000809550600094508793506138a060116000601260019054906101000a900473ffffffffffffffffffffffffffffffffffffffff1673ffffffffffffffffffffffffffffffffffffffff1673ffffffffffffffffffffffffffffffffffffffff16815260200190815260200160002054600254613e9390919063ffffffff16565b92506019546138ba84600254613e9390919063ffffffff16565b8115156138c357fe5b069150600082146138d457816138d8565b6019545b9150600083146139225761391d60195461390f61390085601954613e9390919063ffffffff16565b86613e9390919063ffffffff16565b6137ff90919063ffffffff16565b613925565b60005b905080600014156139f55761396b826139668660188560048110151561394757fe5b601091828204019190066002029054906101000a900461ffff16613ec8565b613f25565b94506139808587613eac90919063ffffffff16565b95506139c66139b78660188460048110151561399857fe5b601091828204019190066002029054906101000a900461ffff16613f3e565b85613e9390919063ffffffff16565b935060008414156139d957859650613c37565b60195491506139f2600182613eac90919063ffffffff16565b90505b8060011415613ac357613a3982613a3486601885600481101515613a1557fe5b601091828204019190066002029054906101000a900461ffff16613ec8565b613f25565b9450613a4e8587613eac90919063ffffffff16565b9550613a94613a8586601884600481101515613a6657fe5b601091828204019190066002029054906101000a900461ffff16613f3e565b85613e9390919063ffffffff16565b93506000841415613aa757859650613c37565b6019549150613ac0600182613eac90919063ffffffff16565b90505b8060021415613b9157613b0782613b0286601885600481101515613ae357fe5b601091828204019190066002029054906101000a900461ffff16613ec8565b613f25565b9450613b1c8587613eac90919063ffffffff16565b9550613b62613b5386601884600481101515613b3457fe5b601091828204019190066002029054906101000a900461ffff16613f3e565b85613e9390919063ffffffff16565b93506000841415613b7557859650613c37565b6019549150613b8e600182613eac90919063ffffffff16565b90505b8060031415613c3357613bd582613bd086601885600481101515613bb157fe5b601091828204019190066002029054906101000a900461ffff16613ec8565b613f25565b9450613bea8587613eac90919063ffffffff16565b9550613c30613c2186601884600481101515613c0257fe5b601091828204019190066002029054906101000a900461ffff16613f3e565b85613e9390919063ffffffff16565b93505b8596505b505050505050919050565b6000806000806000809350613cc360116000601260019054906101000a900473ffffffffffffffffffffffffffffffffffffffff1673ffffffffffffffffffffffffffffffffffffffff1673ffffffffffffffffffffffffffffffffffffffff16815260200190815260200160002054600254613e9390919063ffffffff16565b9250601954613cdd84600254613e9390919063ffffffff16565b811515613ce657fe5b06915060008214613cf75781613cfb565b6019545b915060008314613d4557613d40601954613d32613d2385601954613e9390919063ffffffff16565b86613e9390919063ffffffff16565b6137ff90919063ffffffff16565b613d48565b60005b90506003811015613d9d57613d9a613d8b60195460186003600481101515613d6c57fe5b601091828204019190066002029054906101000a900461ffff16613f3e565b85613eac90919063ffffffff16565b93505b6002811015613df057613ded613dde60195460186002600481101515613dbf57fe5b601091828204019190066002029054906101000a900461ffff16613f3e565b85613eac90919063ffffffff16565b93505b6001811015613e4357613e40613e3160195460186001600481101515613e1257fe5b601091828204019190066002029054906101000a900461ffff16613f3e565b85613eac90919063ffffffff16565b93505b613e87613e7883601884600481101515613e5957fe5b601091828204019190066002029054906101000a900461ffff16613f3e565b85613eac90919063ffffffff16565b93508394505050505090565b6000828211151515613ea157fe5b818303905092915050565b60008183019050828110151515613ebf57fe5b80905092915050565b6000613f1d600a54613f0f600654613f018661ffff16613ef36103e88a6137c790919063ffffffff16565b6137ff90919063ffffffff16565b6137c790919063ffffffff16565b6137ff90919063ffffffff16565b905092915050565b6000818310613f345781613f36565b825b905092915050565b6000613f93600654613f85600a54613f776103e8613f698861ffff168a6137c790919063ffffffff16565b6137ff90919063ffffffff16565b6137c790919063ffffffff16565b6137ff90919063ffffffff16565b9050929150505600a165627a7a723058202b103aa5e8e22a0ec64123e857ee41a3885fb060b6cf871d8103db3df13a0edc0029",
  "source": "pragma solidity ^0.4.18;\n\nimport \"./PRETSD.sol\";\n\ncontract PRETSDMock is PRETSD {\n    uint256 public _now;\n\n    constructor (\n        uint256 _currentTime,\n        uint256 _exchangeRate\n    ) PRETSD (_exchangeRate) public {\n        _now = _currentTime;\n    }\n\n    function currentTime() public view returns (uint256) {\n        return _now;\n    }\n\n    function changeTime(uint256 _newTime) public {\n        _now = _newTime;\n    }\n}\n",
  "sourcePath": "/Users/venkateshnamburi/Desktop/521 2/Projects/Transcendence/tsd_contracts/contracts/PRETSDMock.sol",
  "compiler": {
    "name": "solc",
    "version": "0.4.24+commit.e67f0147.Emscripten.clang"
  },
  "schemaVersion": "2.0.0",
  "updatedAt": "2018-11-06T11:09:20.227Z"
}