{
  "contractName": "PRETSD",
  "abi": [
    {
      "constant": true,
      "inputs": [],
      "name": "name",
      "outputs": [
        {
          "name": "",
          "type": "string"
        }
      ],
      "payable": false,
      "stateMutability": "view",
      "type": "function"
    },
    {
      "constant": true,
      "inputs": [],
      "name": "ethExchangeRate",
      "outputs": [
        {
          "name": "",
          "type": "uint256"
        }
      ],
      "payable": false,
      "stateMutability": "view",
      "type": "function"
    },
    {
      "constant": true,
      "inputs": [],
      "name": "totalSupply",
      "outputs": [
        {
          "name": "",
          "type": "uint256"
        }
      ],
      "payable": false,
      "stateMutability": "view",
      "type": "function"
    },
    {
      "constant": true,
      "inputs": [],
      "name": "decimalMultiplier",
      "outputs": [
        {
          "name": "",
          "type": "uint256"
        }
      ],
      "payable": false,
      "stateMutability": "view",
      "type": "function"
    },
    {
      "constant": true,
      "inputs": [],
      "name": "decimals",
      "outputs": [
        {
          "name": "",
          "type": "uint256"
        }
      ],
      "payable": false,
      "stateMutability": "view",
      "type": "function"
    },
    {
      "constant": true,
      "inputs": [],
      "name": "endTime",
      "outputs": [
        {
          "name": "",
          "type": "uint256"
        }
      ],
      "payable": false,
      "stateMutability": "view",
      "type": "function"
    },
    {
      "constant": true,
      "inputs": [],
      "name": "minPurchase",
      "outputs": [
        {
          "name": "",
          "type": "uint256"
        }
      ],
      "payable": false,
      "stateMutability": "view",
      "type": "function"
    },
    {
      "constant": true,
      "inputs": [],
      "name": "exchangeRate",
      "outputs": [
        {
          "name": "",
          "type": "uint256"
        }
      ],
      "payable": false,
      "stateMutability": "view",
      "type": "function"
    },
    {
      "constant": true,
      "inputs": [],
      "name": "TSDContractAddress",
      "outputs": [
        {
          "name": "",
          "type": "address"
        }
      ],
      "payable": false,
      "stateMutability": "view",
      "type": "function"
    },
    {
      "constant": true,
      "inputs": [],
      "name": "million",
      "outputs": [
        {
          "name": "",
          "type": "uint256"
        }
      ],
      "payable": false,
      "stateMutability": "view",
      "type": "function"
    },
    {
      "constant": true,
      "inputs": [],
      "name": "tokensAvailable",
      "outputs": [
        {
          "name": "",
          "type": "bool"
        }
      ],
      "payable": false,
      "stateMutability": "view",
      "type": "function"
    },
    {
      "constant": false,
      "inputs": [],
      "name": "renounceOwnership",
      "outputs": [],
      "payable": false,
      "stateMutability": "nonpayable",
      "type": "function"
    },
    {
      "constant": true,
      "inputs": [],
      "name": "startTime",
      "outputs": [
        {
          "name": "",
          "type": "uint256"
        }
      ],
      "payable": false,
      "stateMutability": "view",
      "type": "function"
    },
    {
      "constant": true,
      "inputs": [],
      "name": "tokenPrice",
      "outputs": [
        {
          "name": "",
          "type": "uint256"
        }
      ],
      "payable": false,
      "stateMutability": "view",
      "type": "function"
    },
    {
      "constant": true,
      "inputs": [],
      "name": "owner",
      "outputs": [
        {
          "name": "",
          "type": "address"
        }
      ],
      "payable": false,
      "stateMutability": "view",
      "type": "function"
    },
    {
      "constant": true,
      "inputs": [],
      "name": "preFundsWallet",
      "outputs": [
        {
          "name": "",
          "type": "address"
        }
      ],
      "payable": false,
      "stateMutability": "view",
      "type": "function"
    },
    {
      "constant": true,
      "inputs": [],
      "name": "symbol",
      "outputs": [
        {
          "name": "",
          "type": "string"
        }
      ],
      "payable": false,
      "stateMutability": "view",
      "type": "function"
    },
    {
      "constant": true,
      "inputs": [
        {
          "name": "",
          "type": "uint256"
        }
      ],
      "name": "icoParticipants",
      "outputs": [
        {
          "name": "",
          "type": "address"
        }
      ],
      "payable": false,
      "stateMutability": "view",
      "type": "function"
    },
    {
      "constant": true,
      "inputs": [],
      "name": "tokensReleaseDate",
      "outputs": [
        {
          "name": "",
          "type": "uint256"
        }
      ],
      "payable": false,
      "stateMutability": "view",
      "type": "function"
    },
    {
      "constant": true,
      "inputs": [],
      "name": "totalEthRaised",
      "outputs": [
        {
          "name": "",
          "type": "uint256"
        }
      ],
      "payable": false,
      "stateMutability": "view",
      "type": "function"
    },
    {
      "constant": false,
      "inputs": [
        {
          "name": "newOwner",
          "type": "address"
        }
      ],
      "name": "transferOwnership",
      "outputs": [],
      "payable": false,
      "stateMutability": "nonpayable",
      "type": "function"
    },
    {
      "constant": true,
      "inputs": [
        {
          "name": "",
          "type": "address"
        }
      ],
      "name": "whiteListed",
      "outputs": [
        {
          "name": "",
          "type": "bool"
        }
      ],
      "payable": false,
      "stateMutability": "view",
      "type": "function"
    },
    {
      "inputs": [
        {
          "name": "_exchangeRate",
          "type": "uint256"
        }
      ],
      "payable": false,
      "stateMutability": "nonpayable",
      "type": "constructor"
    },
    {
      "payable": true,
      "stateMutability": "payable",
      "type": "fallback"
    },
    {
      "anonymous": false,
      "inputs": [
        {
          "indexed": false,
          "name": "oldEthRaisedVal",
          "type": "uint256"
        },
        {
          "indexed": false,
          "name": "newEthRaisedVal",
          "type": "uint256"
        }
      ],
      "name": "EthRaisedUpdated",
      "type": "event"
    },
    {
      "anonymous": false,
      "inputs": [
        {
          "indexed": false,
          "name": "prevExchangeRate",
          "type": "uint256"
        },
        {
          "indexed": false,
          "name": "newExchangeRate",
          "type": "uint256"
        }
      ],
      "name": "ExhangeRateUpdated",
      "type": "event"
    },
    {
      "anonymous": false,
      "inputs": [
        {
          "indexed": false,
          "name": "_presd",
          "type": "address"
        },
        {
          "indexed": false,
          "name": "_tsd",
          "type": "address"
        }
      ],
      "name": "DistributedAllBalancesToTSDContract",
      "type": "event"
    },
    {
      "anonymous": false,
      "inputs": [
        {
          "indexed": false,
          "name": "from",
          "type": "address"
        },
        {
          "indexed": false,
          "name": "to",
          "type": "address"
        },
        {
          "indexed": false,
          "name": "value",
          "type": "uint256"
        }
      ],
      "name": "Transfer",
      "type": "event"
    },
    {
      "anonymous": false,
      "inputs": [
        {
          "indexed": false,
          "name": "oldSupply",
          "type": "uint256"
        },
        {
          "indexed": false,
          "name": "newSupply",
          "type": "uint256"
        }
      ],
      "name": "UpdatedTotalSupply",
      "type": "event"
    },
    {
      "anonymous": false,
      "inputs": [
        {
          "indexed": true,
          "name": "previousOwner",
          "type": "address"
        }
      ],
      "name": "OwnershipRenounced",
      "type": "event"
    },
    {
      "anonymous": false,
      "inputs": [
        {
          "indexed": true,
          "name": "previousOwner",
          "type": "address"
        },
        {
          "indexed": true,
          "name": "newOwner",
          "type": "address"
        }
      ],
      "name": "OwnershipTransferred",
      "type": "event"
    },
    {
      "constant": true,
      "inputs": [],
      "name": "currentTime",
      "outputs": [
        {
          "name": "",
          "type": "uint256"
        }
      ],
      "payable": false,
      "stateMutability": "view",
      "type": "function"
    },
    {
      "constant": true,
      "inputs": [
        {
          "name": "_address",
          "type": "address"
        }
      ],
      "name": "balanceOf",
      "outputs": [
        {
          "name": "",
          "type": "uint256"
        }
      ],
      "payable": false,
      "stateMutability": "view",
      "type": "function"
    },
    {
      "constant": false,
      "inputs": [
        {
          "name": "_addresses",
          "type": "address[]"
        }
      ],
      "name": "createWhiteListedMapping",
      "outputs": [],
      "payable": false,
      "stateMutability": "nonpayable",
      "type": "function"
    },
    {
      "constant": false,
      "inputs": [
        {
          "name": "_newAddress",
          "type": "address"
        }
      ],
      "name": "changeOracleAddress",
      "outputs": [],
      "payable": false,
      "stateMutability": "nonpayable",
      "type": "function"
    },
    {
      "constant": false,
      "inputs": [
        {
          "name": "_newRate",
          "type": "uint256"
        }
      ],
      "name": "updateTheExchangeRate",
      "outputs": [
        {
          "name": "",
          "type": "bool"
        }
      ],
      "payable": false,
      "stateMutability": "nonpayable",
      "type": "function"
    },
    {
      "constant": true,
      "inputs": [
        {
          "name": "_address",
          "type": "address"
        }
      ],
      "name": "isWhiteListed",
      "outputs": [
        {
          "name": "",
          "type": "bool"
        }
      ],
      "payable": false,
      "stateMutability": "view",
      "type": "function"
    },
    {
      "constant": false,
      "inputs": [],
      "name": "buyTokens",
      "outputs": [],
      "payable": true,
      "stateMutability": "payable",
      "type": "function"
    },
    {
      "constant": true,
      "inputs": [],
      "name": "calculateTotalRemainingTokenCost",
      "outputs": [
        {
          "name": "",
          "type": "uint256"
        }
      ],
      "payable": false,
      "stateMutability": "view",
      "type": "function"
    },
    {
      "constant": true,
      "inputs": [
        {
          "name": "_ethAmount",
          "type": "uint256"
        }
      ],
      "name": "calculateTokenAmountWithDiscounts",
      "outputs": [
        {
          "name": "",
          "type": "uint256"
        }
      ],
      "payable": false,
      "stateMutability": "view",
      "type": "function"
    },
    {
      "constant": false,
      "inputs": [
        {
          "name": "_t",
          "type": "address"
        }
      ],
      "name": "setMainContractAddress",
      "outputs": [],
      "payable": false,
      "stateMutability": "nonpayable",
      "type": "function"
    },
    {
      "constant": false,
      "inputs": [],
      "name": "burnRemainingTokens",
      "outputs": [
        {
          "name": "",
          "type": "bool"
        }
      ],
      "payable": false,
      "stateMutability": "nonpayable",
      "type": "function"
    },
    {
      "constant": false,
      "inputs": [],
      "name": "distributeTokens",
      "outputs": [
        {
          "name": "",
          "type": "bool"
        }
      ],
      "payable": false,
      "stateMutability": "nonpayable",
      "type": "function"
    },
    {
      "constant": false,
      "inputs": [],
      "name": "selfDestruct",
      "outputs": [],
      "payable": false,
      "stateMutability": "nonpayable",
      "type": "function"
    }
  ],
  "bytecode": "0x60806040526040805190810160405280600c81526020017f5052452054534420434f494e0000000000000000000000000000000000000000815250600490805190602001906200005192919062000571565b506040805190810160405280600681526020017f5052455453440000000000000000000000000000000000000000000000000000815250600590805190602001906200009f92919062000571565b506012600655600654600a0a600755600754620f42400260085560085460a5026009556207a120600a556032600d556000600e55650164f0a36f00600f556501655cc8fb0060105565016c48549b0060115560806040519081016040528061032061ffff16815260200161034861ffff16815260200161037061ffff16815260200161039d61ffff1681525060169060046200013d929190620005f8565b506200016460046009546200038d6401000000000262002bda179091906401000000009004565b6017556001601860006101000a81548160ff0219169083151502179055503480156200018f57600080fd5b506040516020806200342c83398101806040528101908080519060200190929190505050336000806101000a81548173ffffffffffffffffffffffffffffffffffffffff021916908373ffffffffffffffffffffffffffffffffffffffff1602179055506000809054906101000a900473ffffffffffffffffffffffffffffffffffffffff16601260006101000a81548173ffffffffffffffffffffffffffffffffffffffff021916908373ffffffffffffffffffffffffffffffffffffffff16021790555060095460156000601260009054906101000a900473ffffffffffffffffffffffffffffffffffffffff1673ffffffffffffffffffffffffffffffffffffffff1673ffffffffffffffffffffffffffffffffffffffff168152602001908152602001600020819055507fddf252ad1be2c89b69c2b068fc378daa952ba7f163c4a11628f55a4df523b3ef6000601260009054906101000a900473ffffffffffffffffffffffffffffffffffffffff16600954604051808473ffffffffffffffffffffffffffffffffffffffff1681526020018373ffffffffffffffffffffffffffffffffffffffff1673ffffffffffffffffffffffffffffffffffffffff168152602001828152602001935050505060405180910390a16200038581620003a4640100000000026401000000009004565b5050620006f8565b600081838115156200039b57fe5b04905092915050565b6000806000806000809054906101000a900473ffffffffffffffffffffffffffffffffffffffff1673ffffffffffffffffffffffffffffffffffffffff163373ffffffffffffffffffffffffffffffffffffffff161480620004535750600360009054906101000a900473ffffffffffffffffffffffffffffffffffffffff1673ffffffffffffffffffffffffffffffffffffffff163373ffffffffffffffffffffffffffffffffffffffff16145b15156200045f57600080fd5b84600c81905550600b54925064e8d4a510009150620004bd85620004a0620f4240600d54620005356401000000000262002ba2179091906401000000009004565b6200038d6401000000000262002bda179091906401000000009004565b9050620004e28183620005356401000000000262002ba2179091906401000000009004565b600b819055507f9a4a0b4ec1a5f7ce40f0bbb5afddc8a88ed1279508f5d92b5056dcffdff438d983600b54604051808381526020018281526020019250505060405180910390a160019350505050919050565b6000808314156200054a57600090506200056b565b81830290508183828115156200055c57fe5b041415156200056757fe5b8090505b92915050565b828054600181600116156101000203166002900490600052602060002090601f016020900481019282601f10620005b457805160ff1916838001178555620005e5565b82800160010185558215620005e5579182015b82811115620005e4578251825591602001919060010190620005c7565b5b509050620005f491906200069c565b5090565b826004600f01601090048101928215620006895791602002820160005b838211156200065757835183826101000a81548161ffff021916908361ffff160217905550926020019260020160208160010104928301926001030262000615565b8015620006875782816101000a81549061ffff021916905560020160208160010104928301926001030262000657565b505b509050620006989190620006c4565b5090565b620006c191905b80821115620006bd576000816000905550600101620006a3565b5090565b90565b620006f591905b80821115620006f157600081816101000a81549061ffff021916905550600101620006cb565b5090565b90565b612d2480620007086000396000f3006080604052600436106101b7576000357c0100000000000000000000000000000000000000000000000000000000900463ffffffff16806306fdde03146101c15780630b961e481461025157806318160ddd1461027c5780633082538f146102a7578063313ce567146102d25780633197cbb6146102fd57806333b5b62e146103285780633ba0b9a9146103535780634a54839d1461037e5780634e9c6b1f146103d557806360659a92146104005780636f9170f61461042f57806370a082311461048a578063715018a6146104e157806378e97925146104f85780637ff9b5961461052357806383408d731461054e5780638da5cb5b1461057d57806391974d8e146105d457806395d89b411461062b5780639ab1b484146106bb5780639cb8a26a146106ea578063a229c61414610701578063a256ea3a14610746578063a5e5cdba146107b3578063afe07f59146107de578063b9cdd19b14610809578063c9e904be14610844578063d0febe4c1461086f578063d18e81b314610879578063e0181ade146108a4578063ec9da59e146108e5578063f2fde38b14610928578063fa0fca841461096b578063fb349dbd146109c6575b6101bf610a09565b005b3480156101cd57600080fd5b506101d6611335565b6040518080602001828103825283818151815260200191508051906020019080838360005b838110156102165780820151818401526020810190506101fb565b50505050905090810190601f1680156102435780820380516001836020036101000a031916815260200191505b509250505060405180910390f35b34801561025d57600080fd5b506102666113d3565b6040518082815260200191505060405180910390f35b34801561028857600080fd5b506102916113d9565b6040518082815260200191505060405180910390f35b3480156102b357600080fd5b506102bc6113df565b6040518082815260200191505060405180910390f35b3480156102de57600080fd5b506102e76113e5565b6040518082815260200191505060405180910390f35b34801561030957600080fd5b506103126113eb565b6040518082815260200191505060405180910390f35b34801561033457600080fd5b5061033d6113f1565b6040518082815260200191505060405180910390f35b34801561035f57600080fd5b506103686113f7565b6040518082815260200191505060405180910390f35b34801561038a57600080fd5b506103936113fd565b604051808273ffffffffffffffffffffffffffffffffffffffff1673ffffffffffffffffffffffffffffffffffffffff16815260200191505060405180910390f35b3480156103e157600080fd5b506103ea611423565b6040518082815260200191505060405180910390f35b34801561040c57600080fd5b50610415611429565b604051808215151515815260200191505060405180910390f35b34801561043b57600080fd5b50610470600480360381019080803573ffffffffffffffffffffffffffffffffffffffff16906020019092919050505061143c565b604051808215151515815260200191505060405180910390f35b34801561049657600080fd5b506104cb600480360381019080803573ffffffffffffffffffffffffffffffffffffffff1690602001909291905050506114a3565b6040518082815260200191505060405180910390f35b3480156104ed57600080fd5b506104f66114ec565b005b34801561050457600080fd5b5061050d6115ee565b6040518082815260200191505060405180910390f35b34801561052f57600080fd5b506105386115f4565b6040518082815260200191505060405180910390f35b34801561055a57600080fd5b506105636115fa565b604051808215151515815260200191505060405180910390f35b34801561058957600080fd5b5061059261180c565b604051808273ffffffffffffffffffffffffffffffffffffffff1673ffffffffffffffffffffffffffffffffffffffff16815260200191505060405180910390f35b3480156105e057600080fd5b506105e9611831565b604051808273ffffffffffffffffffffffffffffffffffffffff1673ffffffffffffffffffffffffffffffffffffffff16815260200191505060405180910390f35b34801561063757600080fd5b50610640611857565b6040518080602001828103825283818151815260200191508051906020019080838360005b83811015610680578082015181840152602081019050610665565b50505050905090810190601f1680156106ad5780820380516001836020036101000a031916815260200191505b509250505060405180910390f35b3480156106c757600080fd5b506106d06118f5565b604051808215151515815260200191505060405180910390f35b3480156106f657600080fd5b506106ff611e79565b005b34801561070d57600080fd5b5061072c60048036038101908080359060200190929190505050611f0e565b604051808215151515815260200191505060405180910390f35b34801561075257600080fd5b506107716004803603810190808035906020019092919050505061206d565b604051808273ffffffffffffffffffffffffffffffffffffffff1673ffffffffffffffffffffffffffffffffffffffff16815260200191505060405180910390f35b3480156107bf57600080fd5b506107c86120ab565b6040518082815260200191505060405180910390f35b3480156107ea57600080fd5b506107f36122fc565b6040518082815260200191505060405180910390f35b34801561081557600080fd5b50610842600480360381019080803590602001908201803590602001919091929391929390505050612302565b005b34801561085057600080fd5b5061085961246f565b6040518082815260200191505060405180910390f35b610877610a09565b005b34801561088557600080fd5b5061088e612475565b6040518082815260200191505060405180910390f35b3480156108b057600080fd5b506108cf60048036038101908080359060200190929190505050612481565b6040518082815260200191505060405180910390f35b3480156108f157600080fd5b50610926600480360381019080803573ffffffffffffffffffffffffffffffffffffffff1690602001909291905050506128ae565b005b34801561093457600080fd5b50610969600480360381019080803573ffffffffffffffffffffffffffffffffffffffff16906020019092919050505061298e565b005b34801561097757600080fd5b506109ac600480360381019080803573ffffffffffffffffffffffffffffffffffffffff169060200190929190505050612ae3565b604051808215151515815260200191505060405180910390f35b3480156109d257600080fd5b50610a07600480360381019080803573ffffffffffffffffffffffffffffffffffffffff169060200190929190505050612b03565b005b600080600080600080600080610a1d612475565b9750610a4a600c54610a3c600754600a54612ba290919063ffffffff16565b612bda90919063ffffffff16565b9650601860009054906101000a900460ff161515610a6757600080fd5b600f548810158015610a7b57506010548811155b1515610a8657600080fd5b601460003373ffffffffffffffffffffffffffffffffffffffff1673ffffffffffffffffffffffffffffffffffffffff16815260200190815260200160002060009054906101000a900460ff161515610ade57600080fd5b863410151515610aed57600080fd5b349550610af986612481565b9450600e5493506000925060156000601260009054906101000a900473ffffffffffffffffffffffffffffffffffffffff1673ffffffffffffffffffffffffffffffffffffffff1673ffffffffffffffffffffffffffffffffffffffff16815260200190815260200160002054851415610fd057610b756120ab565b9150610b8a8287612bf090919063ffffffff16565b9250610b9f8387612bf090919063ffffffff16565b955060156000601260009054906101000a900473ffffffffffffffffffffffffffffffffffffffff1673ffffffffffffffffffffffffffffffffffffffff1673ffffffffffffffffffffffffffffffffffffffff168152602001908152602001600020549050610c798160156000601260009054906101000a900473ffffffffffffffffffffffffffffffffffffffff1673ffffffffffffffffffffffffffffffffffffffff1673ffffffffffffffffffffffffffffffffffffffff16815260200190815260200160002054612bf090919063ffffffff16565b60156000601260009054906101000a900473ffffffffffffffffffffffffffffffffffffffff1673ffffffffffffffffffffffffffffffffffffffff1673ffffffffffffffffffffffffffffffffffffffff16815260200190815260200160002081905550610d3081601560003373ffffffffffffffffffffffffffffffffffffffff1673ffffffffffffffffffffffffffffffffffffffff16815260200190815260200160002054612c0990919063ffffffff16565b601560003373ffffffffffffffffffffffffffffffffffffffff1673ffffffffffffffffffffffffffffffffffffffff168152602001908152602001600020819055507fddf252ad1be2c89b69c2b068fc378daa952ba7f163c4a11628f55a4df523b3ef601260009054906101000a900473ffffffffffffffffffffffffffffffffffffffff163383604051808473ffffffffffffffffffffffffffffffffffffffff1673ffffffffffffffffffffffffffffffffffffffff1681526020018373ffffffffffffffffffffffffffffffffffffffff1673ffffffffffffffffffffffffffffffffffffffff168152602001828152602001935050505060405180910390a160133390806001815401808255809150509060018203906000526020600020016000909192909190916101000a81548173ffffffffffffffffffffffffffffffffffffffff021916908373ffffffffffffffffffffffffffffffffffffffff160217905550506000831115610eeb573373ffffffffffffffffffffffffffffffffffffffff166108fc849081150290604051600060405180830381858888f19350505050158015610ee9573d6000803e3d6000fd5b505b601260009054906101000a900473ffffffffffffffffffffffffffffffffffffffff1673ffffffffffffffffffffffffffffffffffffffff166108fc879081150290604051600060405180830381858888f19350505050158015610f53573d6000803e3d6000fd5b50610f6986600e54612c0990919063ffffffff16565b600e819055507f4014ce514c76bad08328a2a6046bac14007f7aad2c56c84c66acf8ca1c64bee884600e54604051808381526020018281526020019250505060405180910390a16000601860006101000a81548160ff02191690831515021790555061132b565b6110448560156000601260009054906101000a900473ffffffffffffffffffffffffffffffffffffffff1673ffffffffffffffffffffffffffffffffffffffff1673ffffffffffffffffffffffffffffffffffffffff16815260200190815260200160002054612bf090919063ffffffff16565b60156000601260009054906101000a900473ffffffffffffffffffffffffffffffffffffffff1673ffffffffffffffffffffffffffffffffffffffff1673ffffffffffffffffffffffffffffffffffffffff168152602001908152602001600020819055506110fb85601560003373ffffffffffffffffffffffffffffffffffffffff1673ffffffffffffffffffffffffffffffffffffffff16815260200190815260200160002054612c0990919063ffffffff16565b601560003373ffffffffffffffffffffffffffffffffffffffff1673ffffffffffffffffffffffffffffffffffffffff1681526020019081526020016000208190555060133390806001815401808255809150509060018203906000526020600020016000909192909190916101000a81548173ffffffffffffffffffffffffffffffffffffffff021916908373ffffffffffffffffffffffffffffffffffffffff160217905550507fddf252ad1be2c89b69c2b068fc378daa952ba7f163c4a11628f55a4df523b3ef601260009054906101000a900473ffffffffffffffffffffffffffffffffffffffff163387604051808473ffffffffffffffffffffffffffffffffffffffff1673ffffffffffffffffffffffffffffffffffffffff1681526020018373ffffffffffffffffffffffffffffffffffffffff1673ffffffffffffffffffffffffffffffffffffffff168152602001828152602001935050505060405180910390a1601260009054906101000a900473ffffffffffffffffffffffffffffffffffffffff1673ffffffffffffffffffffffffffffffffffffffff166108fc879081150290604051600060405180830381858888f193505050501580156112cd573d6000803e3d6000fd5b506112e386600e54612c0990919063ffffffff16565b600e819055507f4014ce514c76bad08328a2a6046bac14007f7aad2c56c84c66acf8ca1c64bee884600e54604051808381526020018281526020019250505060405180910390a15b5050505050505050565b60048054600181600116156101000203166002900480601f0160208091040260200160405190810160405280929190818152602001828054600181600116156101000203166002900480156113cb5780601f106113a0576101008083540402835291602001916113cb565b820191906000526020600020905b8154815290600101906020018083116113ae57829003601f168201915b505050505081565b600c5481565b60095481565b60075481565b60065481565b60105481565b600a5481565b600b5481565b600260009054906101000a900473ffffffffffffffffffffffffffffffffffffffff1681565b60085481565b601860009054906101000a900460ff1681565b6000601460008373ffffffffffffffffffffffffffffffffffffffff1673ffffffffffffffffffffffffffffffffffffffff16815260200190815260200160002060009054906101000a900460ff1615611499576001905061149e565b600090505b919050565b6000601560008373ffffffffffffffffffffffffffffffffffffffff1673ffffffffffffffffffffffffffffffffffffffff168152602001908152602001600020549050919050565b6000809054906101000a900473ffffffffffffffffffffffffffffffffffffffff1673ffffffffffffffffffffffffffffffffffffffff163373ffffffffffffffffffffffffffffffffffffffff1614151561154757600080fd5b6000809054906101000a900473ffffffffffffffffffffffffffffffffffffffff1673ffffffffffffffffffffffffffffffffffffffff167ff8df31144d9c2f0f6b59d69b8b98abd5459d07f2742c4df920b25aae33c6482060405160405180910390a260008060006101000a81548173ffffffffffffffffffffffffffffffffffffffff021916908373ffffffffffffffffffffffffffffffffffffffff160217905550565b600f5481565b600d5481565b6000806000809054906101000a900473ffffffffffffffffffffffffffffffffffffffff1673ffffffffffffffffffffffffffffffffffffffff163373ffffffffffffffffffffffffffffffffffffffff1614151561165857600080fd5b601054611663612475565b1015151561167057600080fd5b600060156000601260009054906101000a900473ffffffffffffffffffffffffffffffffffffffff1673ffffffffffffffffffffffffffffffffffffffff1673ffffffffffffffffffffffffffffffffffffffff16815260200190815260200160002054111561180457600954905061175560156000601260009054906101000a900473ffffffffffffffffffffffffffffffffffffffff1673ffffffffffffffffffffffffffffffffffffffff1673ffffffffffffffffffffffffffffffffffffffff16815260200190815260200160002054600954612bf090919063ffffffff16565b600981905550600060156000601260009054906101000a900473ffffffffffffffffffffffffffffffffffffffff1673ffffffffffffffffffffffffffffffffffffffff1673ffffffffffffffffffffffffffffffffffffffff168152602001908152602001600020819055507f8a96e7229e5b018dff0425d91c96d3f7d93cae0b891ff020eef8b1686e1a6a1081600954604051808381526020018281526020019250505060405180910390a15b600191505090565b6000809054906101000a900473ffffffffffffffffffffffffffffffffffffffff1681565b601260009054906101000a900473ffffffffffffffffffffffffffffffffffffffff1681565b60058054600181600116156101000203166002900480601f0160208091040260200160405190810160405280929190818152602001828054600181600116156101000203166002900480156118ed5780601f106118c2576101008083540402835291602001916118ed565b820191906000526020600020905b8154815290600101906020018083116118d057829003601f168201915b505050505081565b60008060008060009054906101000a900473ffffffffffffffffffffffffffffffffffffffff1673ffffffffffffffffffffffffffffffffffffffff163373ffffffffffffffffffffffffffffffffffffffff1614151561195557600080fd5b601154611960612475565b1015151561196d57600080fd5b600160009054906101000a900473ffffffffffffffffffffffffffffffffffffffff1673ffffffffffffffffffffffffffffffffffffffff1663dadf17296040518163ffffffff167c0100000000000000000000000000000000000000000000000000000000028152600401602060405180830381600087803b1580156119f357600080fd5b505af1158015611a07573d6000803e3d6000fd5b505050506040513d6020811015611a1d57600080fd5b81019080805190602001909291905050509150600090505b6013805490508167ffffffffffffffff161015611db757600160009054906101000a900473ffffffffffffffffffffffffffffffffffffffff1673ffffffffffffffffffffffffffffffffffffffff166323b872dd8360138467ffffffffffffffff16815481101515611aa457fe5b9060005260206000200160009054906101000a900473ffffffffffffffffffffffffffffffffffffffff166015600060138767ffffffffffffffff16815481101515611aec57fe5b9060005260206000200160009054906101000a900473ffffffffffffffffffffffffffffffffffffffff1673ffffffffffffffffffffffffffffffffffffffff1673ffffffffffffffffffffffffffffffffffffffff168152602001908152602001600020546040518463ffffffff167c0100000000000000000000000000000000000000000000000000000000028152600401808473ffffffffffffffffffffffffffffffffffffffff1673ffffffffffffffffffffffffffffffffffffffff1681526020018373ffffffffffffffffffffffffffffffffffffffff1673ffffffffffffffffffffffffffffffffffffffff1681526020018281526020019350505050602060405180830381600087803b158015611c0a57600080fd5b505af1158015611c1e573d6000803e3d6000fd5b505050506040513d6020811015611c3457600080fd5b8101908080519060200190929190505050507fddf252ad1be2c89b69c2b068fc378daa952ba7f163c4a11628f55a4df523b3ef8260138367ffffffffffffffff16815481101515611c8157fe5b9060005260206000200160009054906101000a900473ffffffffffffffffffffffffffffffffffffffff166015600060138667ffffffffffffffff16815481101515611cc957fe5b9060005260206000200160009054906101000a900473ffffffffffffffffffffffffffffffffffffffff1673ffffffffffffffffffffffffffffffffffffffff1673ffffffffffffffffffffffffffffffffffffffff16815260200190815260200160002054604051808473ffffffffffffffffffffffffffffffffffffffff1673ffffffffffffffffffffffffffffffffffffffff1681526020018373ffffffffffffffffffffffffffffffffffffffff1673ffffffffffffffffffffffffffffffffffffffff168152602001828152602001935050505060405180910390a18080600101915050611a35565b7f5fc214609a6cb66e8182b2a4d291dda75b365e02c065872483a7a875e54d7e1830600260009054906101000a900473ffffffffffffffffffffffffffffffffffffffff16604051808373ffffffffffffffffffffffffffffffffffffffff1673ffffffffffffffffffffffffffffffffffffffff1681526020018273ffffffffffffffffffffffffffffffffffffffff1673ffffffffffffffffffffffffffffffffffffffff1681526020019250505060405180910390a160019250505090565b6000809054906101000a900473ffffffffffffffffffffffffffffffffffffffff1673ffffffffffffffffffffffffffffffffffffffff163373ffffffffffffffffffffffffffffffffffffffff16141515611ed457600080fd5b6000809054906101000a900473ffffffffffffffffffffffffffffffffffffffff1673ffffffffffffffffffffffffffffffffffffffff16ff5b6000806000806000809054906101000a900473ffffffffffffffffffffffffffffffffffffffff1673ffffffffffffffffffffffffffffffffffffffff163373ffffffffffffffffffffffffffffffffffffffff161480611fbc5750600360009054906101000a900473ffffffffffffffffffffffffffffffffffffffff1673ffffffffffffffffffffffffffffffffffffffff163373ffffffffffffffffffffffffffffffffffffffff16145b1515611fc757600080fd5b84600c81905550600b54925064e8d4a51000915061200585611ff7620f4240600d54612ba290919063ffffffff16565b612bda90919063ffffffff16565b905061201a8183612ba290919063ffffffff16565b600b819055507f9a4a0b4ec1a5f7ce40f0bbb5afddc8a88ed1279508f5d92b5056dcffdff438d983600b54604051808381526020018281526020019250505060405180910390a160019350505050919050565b60138181548110151561207c57fe5b906000526020600020016000915054906101000a900473ffffffffffffffffffffffffffffffffffffffff1681565b600080600080600080935061212c60156000601260009054906101000a900473ffffffffffffffffffffffffffffffffffffffff1673ffffffffffffffffffffffffffffffffffffffff1673ffffffffffffffffffffffffffffffffffffffff16815260200190815260200160002054600954612bf090919063ffffffff16565b925060175461214684600954612bf090919063ffffffff16565b81151561214f57fe5b069150600082146121605781612164565b6017545b9150600083146121ae576121a960175461219b61218c85601754612bf090919063ffffffff16565b86612bf090919063ffffffff16565b612bda90919063ffffffff16565b6121b1565b60005b90506003811015612206576122036121f4601754601660036004811015156121d557fe5b601091828204019190066002029054906101000a900461ffff16612c25565b85612c0990919063ffffffff16565b93505b6002811015612259576122566122476017546016600260048110151561222857fe5b601091828204019190066002029054906101000a900461ffff16612c25565b85612c0990919063ffffffff16565b93505b60018110156122ac576122a961229a6017546016600160048110151561227b57fe5b601091828204019190066002029054906101000a900461ffff16612c25565b85612c0990919063ffffffff16565b93505b6122f06122e1836016846004811015156122c257fe5b601091828204019190066002029054906101000a900461ffff16612c25565b85612c0990919063ffffffff16565b93508394505050505090565b60115481565b60008060009054906101000a900473ffffffffffffffffffffffffffffffffffffffff1673ffffffffffffffffffffffffffffffffffffffff163373ffffffffffffffffffffffffffffffffffffffff1614806123ac5750600360009054906101000a900473ffffffffffffffffffffffffffffffffffffffff1673ffffffffffffffffffffffffffffffffffffffff163373ffffffffffffffffffffffffffffffffffffffff16145b15156123b757600080fd5b600090505b828290508167ffffffffffffffff16101561246a5760016014600085858567ffffffffffffffff1681811015156123ef57fe5b9050602002013573ffffffffffffffffffffffffffffffffffffffff1673ffffffffffffffffffffffffffffffffffffffff1673ffffffffffffffffffffffffffffffffffffffff16815260200190815260200160002060006101000a81548160ff02191690831515021790555080806001019150506123bc565b505050565b600e5481565b60006103e84202905090565b60008060008060008060008095506000945087935061250c60156000601260009054906101000a900473ffffffffffffffffffffffffffffffffffffffff1673ffffffffffffffffffffffffffffffffffffffff1673ffffffffffffffffffffffffffffffffffffffff16815260200190815260200160002054600954612bf090919063ffffffff16565b925060175461252684600954612bf090919063ffffffff16565b81151561252f57fe5b069150600082146125405781612544565b6017545b91506000831461258e5761258960175461257b61256c85601754612bf090919063ffffffff16565b86612bf090919063ffffffff16565b612bda90919063ffffffff16565b612591565b60005b90508060001415612661576125d7826125d2866016856004811015156125b357fe5b601091828204019190066002029054906101000a900461ffff16612c82565b612cdf565b94506125ec8587612c0990919063ffffffff16565b95506126326126238660168460048110151561260457fe5b601091828204019190066002029054906101000a900461ffff16612c25565b85612bf090919063ffffffff16565b93506000841415612645578596506128a3565b601754915061265e600182612c0990919063ffffffff16565b90505b806001141561272f576126a5826126a08660168560048110151561268157fe5b601091828204019190066002029054906101000a900461ffff16612c82565b612cdf565b94506126ba8587612c0990919063ffffffff16565b95506127006126f1866016846004811015156126d257fe5b601091828204019190066002029054906101000a900461ffff16612c25565b85612bf090919063ffffffff16565b93506000841415612713578596506128a3565b601754915061272c600182612c0990919063ffffffff16565b90505b80600214156127fd576127738261276e8660168560048110151561274f57fe5b601091828204019190066002029054906101000a900461ffff16612c82565b612cdf565b94506127888587612c0990919063ffffffff16565b95506127ce6127bf866016846004811015156127a057fe5b601091828204019190066002029054906101000a900461ffff16612c25565b85612bf090919063ffffffff16565b935060008414156127e1578596506128a3565b60175491506127fa600182612c0990919063ffffffff16565b90505b806003141561289f576128418261283c8660168560048110151561281d57fe5b601091828204019190066002029054906101000a900461ffff16612c82565b612cdf565b94506128568587612c0990919063ffffffff16565b955061289c61288d8660168460048110151561286e57fe5b601091828204019190066002029054906101000a900461ffff16612c25565b85612bf090919063ffffffff16565b93505b8596505b505050505050919050565b6000809054906101000a900473ffffffffffffffffffffffffffffffffffffffff1673ffffffffffffffffffffffffffffffffffffffff163373ffffffffffffffffffffffffffffffffffffffff1614151561290957600080fd5b80600160006101000a81548173ffffffffffffffffffffffffffffffffffffffff021916908373ffffffffffffffffffffffffffffffffffffffff16021790555080600260006101000a81548173ffffffffffffffffffffffffffffffffffffffff021916908373ffffffffffffffffffffffffffffffffffffffff16021790555050565b6000809054906101000a900473ffffffffffffffffffffffffffffffffffffffff1673ffffffffffffffffffffffffffffffffffffffff163373ffffffffffffffffffffffffffffffffffffffff161415156129e957600080fd5b600073ffffffffffffffffffffffffffffffffffffffff168173ffffffffffffffffffffffffffffffffffffffff1614151515612a2557600080fd5b8073ffffffffffffffffffffffffffffffffffffffff166000809054906101000a900473ffffffffffffffffffffffffffffffffffffffff1673ffffffffffffffffffffffffffffffffffffffff167f8be0079c531659141344cd1fd0a4f28419497f9722a3daafe3b4186f6b6457e060405160405180910390a3806000806101000a81548173ffffffffffffffffffffffffffffffffffffffff021916908373ffffffffffffffffffffffffffffffffffffffff16021790555050565b60146020528060005260406000206000915054906101000a900460ff1681565b6000809054906101000a900473ffffffffffffffffffffffffffffffffffffffff1673ffffffffffffffffffffffffffffffffffffffff163373ffffffffffffffffffffffffffffffffffffffff16141515612b5e57600080fd5b80600360006101000a81548173ffffffffffffffffffffffffffffffffffffffff021916908373ffffffffffffffffffffffffffffffffffffffff16021790555050565b600080831415612bb55760009050612bd4565b8183029050818382811515612bc657fe5b04141515612bd057fe5b8090505b92915050565b60008183811515612be757fe5b04905092915050565b6000828211151515612bfe57fe5b818303905092915050565b60008183019050828110151515612c1c57fe5b80905092915050565b6000612c7a600754612c6c600b54612c5e6103e8612c508861ffff168a612ba290919063ffffffff16565b612bda90919063ffffffff16565b612ba290919063ffffffff16565b612bda90919063ffffffff16565b905092915050565b6000612cd7600b54612cc9600754612cbb8661ffff16612cad6103e88a612ba290919063ffffffff16565b612bda90919063ffffffff16565b612ba290919063ffffffff16565b612bda90919063ffffffff16565b905092915050565b6000818310612cee5781612cf0565b825b9050929150505600a165627a7a72305820f2726f4a845a1a7acf57a31de96deaf5e499ce9be9545233faf340ee56e25d1c0029",
  "source": "pragma solidity ^0.4.23;\n\nimport \"./FoundationContracts/Ownable.sol\";\nimport \"./FoundationContracts/Math.sol\";\nimport \"./TSD.sol\";\n\ncontract PRETSD is Ownable {\n    using SafeMath for uint256;\n    using Math for uint256;\n    // set up access to main contract for the future distribution\n    TSD dc;\n    // when the connection is set to the main contract, save a reference for event purposes\n    address public TSDContractAddress;\n    address private oracleAddress;\n\n    string public name = \"PRE TSD COIN\";\n    string public symbol = \"PRETSD\";\n    uint256 public decimals = 18;\n     // Helper value from 1 million and 1 thousand\n    uint256 public decimalMultiplier = uint256(10) ** decimals;\n    uint256 public million = 1000000 * decimalMultiplier;\n    uint256 public totalSupply = 165 * million;\n    uint256 public minPurchase = 500000; // 5,000.00 USD in cents\n    uint256 public exchangeRate;\n    uint256 public ethExchangeRate;\n    uint256 public tokenPrice = 50; // 50 cents (USD)\n    uint256 public totalEthRaised = 0;\n\n    // Coordinated Universal Time (abbreviated to UTC) is the primary time standard by which the world regulates clocks and time.\n\n    // Start time \"Wed Aug 01 2018 00:00:00 GMT+1000 (AEST)\"\n    // new Date(1533045600000).toUTCString() => \"Tue, 31 Jul 2018 14:00:00 GMT\"\n    uint256 public startTime = 1533045600000;\n    // Start time \"Tue Aug 21 2018 00:00:00 GMT+1000 (AEST)\"\n    // new Date(1534860000000).toUTCString() => \"Tue, 21 Aug 2018 14:00:00 GMT\"\n    uint256 public endTime = 1534860000000;\n    // Token release date 12 month post end date\n    // \"Thu Aug 01 2019 00:00:00 GMT+1000 (AEST)\"\n    // new Date(1564581600000).toUTCString() => \"Wed, 31 Jul 2019 14:00:00 GMT\"\n    uint256 public tokensReleaseDate = 1564581600000;\n\n    // Wallets\n    address public preFundsWallet;\n\n    // Array of participants used when distributing tokens to main contract\n    address[] public icoParticipants;\n\n    // whitelisted addresses\n    mapping (address => bool) public whiteListed;\n\n    // balances\n    mapping(address => uint256) balances;\n\n    // tranche discounts\n    uint16[4] tranches = [800, 840, 880, 925];\n    // tranche token size\n    uint256 trancheMaxTokenSize = totalSupply.div(tranches.length);\n\n    // When all tokens are sold this value will be set to false\n    bool public tokensAvailable = true;\n\n    // Events\n    event EthRaisedUpdated(uint256 oldEthRaisedVal, uint256 newEthRaisedVal);\n    event ExhangeRateUpdated(uint256 prevExchangeRate, uint256 newExchangeRate);\n    event DistributedAllBalancesToTSDContract(address _presd, address _tsd);\n    event Transfer(address from, address to, uint256 value);\n    event UpdatedTotalSupply(uint256 oldSupply, uint256 newSupply);\n\n    constructor(\n        uint256 _exchangeRate\n    ) public {\n        preFundsWallet = owner;\n\n        // transfer suppy to the funds wallet\n        balances[preFundsWallet] = totalSupply;\n        emit Transfer(0x0, preFundsWallet, totalSupply);\n\n        // set exchange rate\n        updateTheExchangeRate(_exchangeRate);\n    }\n\n    // Contract utility functions\n    function currentTime() public view returns (uint256) {\n        return now * 1000;\n    }\n\n    // Checks the balance of the address. ERC20 standard.\n    function balanceOf(address _address) public view returns (uint256) {\n        return balances[_address];\n    }\n\n    // Called externally to create whitelist for  sale.\n    // Only whitelisted addresses can participate in the ico.\n    function createWhiteListedMapping(address[] _addresses) external onlyRestricted {\n        for (uint64 i = 0; i < _addresses.length; i++) {\n            whiteListed[_addresses[i]] = true;\n        }\n    }\n\n    // Called externally to change the address of the oracle.\n    // The oracle updates the exchange rate based on the current ETH value.\n    function changeOracleAddress(address _newAddress) external onlyOwner {\n        oracleAddress = _newAddress;\n    }\n\n    // Usage:\n    // Pass in the amount of tokens and the discount rate.\n    // If no discount is required pass in 100 as the rate value.\n    function tokenToEth(uint256 _tokens, uint16 _discountRate) internal view returns(uint256) {\n        //Using previous exchangerate\n        return _tokens.mul(_discountRate).div(1000).mul(exchangeRate).div(decimalMultiplier);\n    }\n\n\n    // Pass in the amount of eth and the discount rate.\n    // If no discount is required pass in 100 as the rate value.\n    function ethToToken(uint256 _eth, uint16 _discountRate) internal view returns(uint256) {\n        //return ((_eth / _rate * 100) * decimalMultiplier).div(exchangeRate);\n        return _eth.mul(1000).div(_discountRate).mul(decimalMultiplier).div(exchangeRate);\n    }\n\n     // Updates the ETH => TSD exchange rate\n     // The exchange rate is in USD cents to ETH.\n     // Example: 1 ETH = 500 USD then enter 50000 as the param.\n    function updateTheExchangeRate(uint256 _newRate) public onlyRestricted returns (bool) {\n        ethExchangeRate = _newRate;\n        uint256 currentRate = exchangeRate;\n        uint256 oneSzabo = 1 szabo;\n        uint256 tokenPriceInSzabo = tokenPrice.mul(1000000).div(_newRate);\n        // The exchangerate is saved in Szabo.\n        exchangeRate = oneSzabo.mul(tokenPriceInSzabo);\n        emit ExhangeRateUpdated(currentRate, exchangeRate);\n        return true;\n    }\n\n    // Can check to see if an address is whitelisted\n    function isWhiteListed(address _address) external view returns (bool) {\n        if (whiteListed[_address]) {\n            return true;\n        } else {\n            return false;\n        }\n    }\n\n    // Buy functions\n    // This is an un-named fallback function that is set to payable to accept ether.\n    function() payable public {\n        buyTokens();\n    }\n\n    function buyTokens() payable public {\n        uint256 _currentTime = currentTime();\n        uint256 _minPurchaseInWei = minPurchase.mul(decimalMultiplier).div(ethExchangeRate);\n        require(tokensAvailable);\n        require(_currentTime >= startTime && _currentTime <= endTime);\n        require(whiteListed[msg.sender]);\n        require(msg.value >= _minPurchaseInWei);\n\n        uint256 ethAmount = msg.value;\n        uint256 tokenAmount = calculateTokenAmountWithDiscounts(ethAmount);\n        uint256 currentEthRaised = totalEthRaised;\n        uint256 ethRefund = 0;\n\n\n        // The tranching algorithm will only ever return a value equal or lower than the remainingTokens.\n        // If the tokenAmount is equal to the remaining tokens we know its the last purchase.\n        if (tokenAmount == balances[preFundsWallet]) {\n            // recalculate the amount of eth that can be spent for the remaining tokens.\n            uint256 totalRemainingCostOfTokens = calculateTotalRemainingTokenCost();\n            // determine the refund by subtracting the the new ethamount from what was originally sent in\n            ethRefund = ethAmount.sub(totalRemainingCostOfTokens);\n            ethAmount = ethAmount.sub(ethRefund);\n            // make the token purchase\n            // sub general token amount\n            uint256 remainingTokens = balances[preFundsWallet];\n            balances[preFundsWallet] = balances[preFundsWallet].sub(remainingTokens);\n            // sub bonus token amoutn\n            balances[msg.sender] = balances[msg.sender].add(remainingTokens);\n            emit Transfer(preFundsWallet, msg.sender, remainingTokens);\n            // adding the buyer to the icoParticipants\n            icoParticipants.push(msg.sender);\n            // refund\n            if (ethRefund > 0) {\n                msg.sender.transfer(ethRefund);\n            }\n            // transfer ether to funds wallet\n            preFundsWallet.transfer(ethAmount);\n            totalEthRaised = totalEthRaised.add(ethAmount);\n            emit EthRaisedUpdated(currentEthRaised, totalEthRaised);\n            // close token sale as tokens are sold out\n            tokensAvailable = false;\n        } else {\n            // make the token purchase\n            // sub general token amount\n            balances[preFundsWallet] = balances[preFundsWallet].sub(tokenAmount);\n            balances[msg.sender] = balances[msg.sender].add(tokenAmount);\n            icoParticipants.push(msg.sender);\n            emit Transfer(preFundsWallet, msg.sender, tokenAmount);\n\n            // transfer ether to the wallet and emit and event regarding eth raised\n            preFundsWallet.transfer(ethAmount);\n            totalEthRaised = totalEthRaised.add(ethAmount);\n            emit EthRaisedUpdated(currentEthRaised, totalEthRaised);\n        }\n    }\n\n    function calculateTotalRemainingTokenCost() public view returns(uint256) {\n        uint256 totalCost = 0;\n        uint256 sold = totalSupply.sub(balances[preFundsWallet]);\n        // Calculate the remaining tranche tokens.\n        uint256 currentTrancheRemainder = totalSupply.sub(sold) % trancheMaxTokenSize;\n        // On the first initialisation we need to set the current tranche to a full tranche;\n        currentTrancheRemainder = currentTrancheRemainder == 0 ? trancheMaxTokenSize : currentTrancheRemainder;\n        // Calculate the current tranche we are in.\n        uint256 currentTranche = sold == 0 ? 0 : sold.sub(trancheMaxTokenSize.sub(currentTrancheRemainder)).div(trancheMaxTokenSize);\n        // Check all tranches to see if they are full.\n        // If they are full. Add the calculated tranche cost to the totalCost.\n        if (currentTranche < 3) {\n            totalCost = totalCost.add(tokenToEth(trancheMaxTokenSize, tranches[3]));\n        }\n        if (currentTranche < 2) {\n            totalCost = totalCost.add(tokenToEth(trancheMaxTokenSize, tranches[2]));\n        }\n        if (currentTranche < 1) {\n            totalCost = totalCost.add(tokenToEth(trancheMaxTokenSize, tranches[1]));\n        }\n        // Add the calculated tranche remainder costs to the totalCost.\n        totalCost = totalCost.add(tokenToEth(currentTrancheRemainder, tranches[currentTranche]));\n        return totalCost;\n    }\n\n    function calculateTokenAmountWithDiscounts(uint256 _ethAmount) public view returns(uint256) {\n        uint256 returnTokens = 0;\n        uint256 tokensFromTranche = 0;\n        uint256 ethRemaining = _ethAmount;\n        uint256 sold = totalSupply.sub(balances[preFundsWallet]);\n\n        // Calculate the remaining tranche tokens.\n        uint256 currentTrancheRemainder = totalSupply.sub(sold) % trancheMaxTokenSize;\n        // On the first initialisation we need to set the current tranche to a full tranche;\n        currentTrancheRemainder = currentTrancheRemainder == 0 ? trancheMaxTokenSize : currentTrancheRemainder;\n        // Calculate the current tranche we are in.\n        uint256 currentTranche = sold == 0 ? 0 : sold.sub(trancheMaxTokenSize.sub(currentTrancheRemainder)).div(trancheMaxTokenSize);\n\n        // Find the first tranche that matches the current tranche.\n        if (0 == currentTranche) {\n            // Find the lowest value tokens of the current tranche.\n            // Either return the total tranche tokens or the the tokens we can purchase with our ether.\n            tokensFromTranche = Math.min256(currentTrancheRemainder, ethToToken(ethRemaining, tranches[currentTranche]));\n            // Add the tokens to our return value.\n            returnTokens = returnTokens.add(tokensFromTranche);\n            // Subtract the ether we've spent on the tokens from the total ether we supplied.\n            ethRemaining = ethRemaining.sub(tokenToEth(tokensFromTranche, tranches[currentTranche]));\n            // Return the tokens if ether has reached 0;\n            if (ethRemaining == 0) return returnTokens;\n            // Otherwise set the next tranche remainder to a full tranche;\n            currentTrancheRemainder = trancheMaxTokenSize;\n            // Move us up one tranche.\n            currentTranche = currentTranche.add(1);\n        }\n        if (1 == currentTranche) {\n            tokensFromTranche = Math.min256(currentTrancheRemainder, ethToToken(ethRemaining, tranches[currentTranche]));\n            returnTokens = returnTokens.add(tokensFromTranche);\n            ethRemaining = ethRemaining.sub(tokenToEth(tokensFromTranche, tranches[currentTranche]));\n            if (ethRemaining == 0) return returnTokens;\n            currentTrancheRemainder = trancheMaxTokenSize;\n            currentTranche = currentTranche.add(1);\n        }\n        if (2 == currentTranche) {\n            tokensFromTranche = Math.min256(currentTrancheRemainder, ethToToken(ethRemaining, tranches[currentTranche]));\n            returnTokens = returnTokens.add(tokensFromTranche);\n            ethRemaining = ethRemaining.sub(tokenToEth(tokensFromTranche, tranches[currentTranche]));\n            if (ethRemaining == 0) return returnTokens;\n            currentTrancheRemainder = trancheMaxTokenSize;\n            currentTranche = currentTranche.add(1);\n        }\n        if (3 == currentTranche) {\n            tokensFromTranche = Math.min256(currentTrancheRemainder, ethToToken(ethRemaining, tranches[currentTranche]));\n            returnTokens = returnTokens.add(tokensFromTranche);\n            ethRemaining = ethRemaining.sub(tokenToEth(tokensFromTranche, tranches[currentTranche]));\n        }\n        return returnTokens;\n    }\n\n    // After close functions\n\n    // Create an instance of the main contract\n    function setMainContractAddress(address _t) external onlyOwner {\n        dc = TSD(_t);\n        TSDContractAddress = _t;\n    }\n\n    // Burn any remaining tokens\n    function burnRemainingTokens() external onlyOwner returns (bool) {\n        require(currentTime() >= endTime);\n        if (balances[preFundsWallet] > 0) {\n            // Subtracting the unsold tokens from the total supply.\n            uint256 oldSupply = totalSupply;\n            totalSupply = totalSupply.sub(balances[preFundsWallet]);\n            balances[preFundsWallet] = 0;\n            emit UpdatedTotalSupply(oldSupply, totalSupply);\n        }\n\n        return true;\n    }\n\n    // This can only be called by the owner on or after the token release date.\n    // This will be a two step process.\n    // This function will be called by the preSaleTokenWallet\n    // This wallet will need to be approved in the main contract to make these distributions\n    function distributeTokens() external onlyOwner returns (bool) {\n        require(currentTime() >= tokensReleaseDate);\n        address preSaleTokenWallet = dc.preSaleTokenWallet();\n        for (uint64 i = 0; i < icoParticipants.length; i++) {\n            dc.transferFrom(preSaleTokenWallet, icoParticipants[i], balances[icoParticipants[i]]);\n            emit Transfer(preSaleTokenWallet, icoParticipants[i], balances[icoParticipants[i]]);\n        }\n\n        // Event to say distribution is complete\n        emit DistributedAllBalancesToTSDContract(address(this), TSDContractAddress);\n\n        // Boolean is returned to give us a success state.\n        return true;\n    }\n\n    // Destroys the contract\n    function selfDestruct() external onlyOwner {\n        selfdestruct(owner);\n    }\n\n    modifier onlyRestricted () {\n        require(msg.sender == owner || msg.sender == oracleAddress);\n        _;\n    }\n\n}\n",
  "sourcePath": "/Users/dandrory521/Documents/01-projects/tsd_dapp/contracts/PRETSD.sol",
  "compiler": {
    "name": "solc",
    "version": "0.4.23+commit.124ca40d.Emscripten.clang"
  },
  "schemaVersion": "2.0.0",
  "updatedAt": "2018-06-13T08:07:30.742Z"
}