{
  "contractName": "PRETSD",
  "abi": [
    {
      "constant": true,
      "inputs": [],
      "name": "name",
      "outputs": [
        {
          "name": "",
          "type": "string"
        }
      ],
      "payable": false,
      "stateMutability": "view",
      "type": "function"
    },
    {
      "constant": true,
      "inputs": [],
      "name": "ethExchangeRate",
      "outputs": [
        {
          "name": "",
          "type": "uint256"
        }
      ],
      "payable": false,
      "stateMutability": "view",
      "type": "function"
    },
    {
      "constant": true,
      "inputs": [],
      "name": "totalSupply",
      "outputs": [
        {
          "name": "",
          "type": "uint256"
        }
      ],
      "payable": false,
      "stateMutability": "view",
      "type": "function"
    },
    {
      "constant": false,
      "inputs": [
        {
          "name": "_distributionWallet",
          "type": "address"
        }
      ],
      "name": "setDistributionWallet",
      "outputs": [],
      "payable": false,
      "stateMutability": "nonpayable",
      "type": "function"
    },
    {
      "constant": true,
      "inputs": [],
      "name": "decimalMultiplier",
      "outputs": [
        {
          "name": "",
          "type": "uint256"
        }
      ],
      "payable": false,
      "stateMutability": "view",
      "type": "function"
    },
    {
      "constant": true,
      "inputs": [],
      "name": "decimals",
      "outputs": [
        {
          "name": "",
          "type": "uint256"
        }
      ],
      "payable": false,
      "stateMutability": "view",
      "type": "function"
    },
    {
      "constant": true,
      "inputs": [],
      "name": "endTime",
      "outputs": [
        {
          "name": "",
          "type": "uint256"
        }
      ],
      "payable": false,
      "stateMutability": "view",
      "type": "function"
    },
    {
      "constant": true,
      "inputs": [],
      "name": "minPurchase",
      "outputs": [
        {
          "name": "",
          "type": "uint256"
        }
      ],
      "payable": false,
      "stateMutability": "view",
      "type": "function"
    },
    {
      "constant": true,
      "inputs": [],
      "name": "exchangeRate",
      "outputs": [
        {
          "name": "",
          "type": "uint256"
        }
      ],
      "payable": false,
      "stateMutability": "view",
      "type": "function"
    },
    {
      "constant": false,
      "inputs": [
        {
          "name": "_startTime",
          "type": "uint256"
        }
      ],
      "name": "setStartTime",
      "outputs": [
        {
          "name": "",
          "type": "bool"
        }
      ],
      "payable": false,
      "stateMutability": "nonpayable",
      "type": "function"
    },
    {
      "constant": false,
      "inputs": [
        {
          "name": "_to",
          "type": "address"
        },
        {
          "name": "_value",
          "type": "uint256"
        }
      ],
      "name": "safeTransfer",
      "outputs": [
        {
          "name": "",
          "type": "bool"
        }
      ],
      "payable": false,
      "stateMutability": "nonpayable",
      "type": "function"
    },
    {
      "constant": true,
      "inputs": [],
      "name": "distributionWallet",
      "outputs": [
        {
          "name": "",
          "type": "address"
        }
      ],
      "payable": false,
      "stateMutability": "view",
      "type": "function"
    },
    {
      "constant": true,
      "inputs": [],
      "name": "TSDContractAddress",
      "outputs": [
        {
          "name": "",
          "type": "address"
        }
      ],
      "payable": false,
      "stateMutability": "view",
      "type": "function"
    },
    {
      "constant": true,
      "inputs": [],
      "name": "million",
      "outputs": [
        {
          "name": "",
          "type": "uint256"
        }
      ],
      "payable": false,
      "stateMutability": "view",
      "type": "function"
    },
    {
      "constant": true,
      "inputs": [],
      "name": "tokensAvailable",
      "outputs": [
        {
          "name": "",
          "type": "bool"
        }
      ],
      "payable": false,
      "stateMutability": "view",
      "type": "function"
    },
    {
      "constant": true,
      "inputs": [],
      "name": "currentDistributionIndex",
      "outputs": [
        {
          "name": "",
          "type": "uint256"
        }
      ],
      "payable": false,
      "stateMutability": "view",
      "type": "function"
    },
    {
      "constant": true,
      "inputs": [
        {
          "name": "_address",
          "type": "address"
        }
      ],
      "name": "balanceOf",
      "outputs": [
        {
          "name": "",
          "type": "uint256"
        }
      ],
      "payable": false,
      "stateMutability": "view",
      "type": "function"
    },
    {
      "constant": false,
      "inputs": [],
      "name": "renounceOwnership",
      "outputs": [],
      "payable": false,
      "stateMutability": "nonpayable",
      "type": "function"
    },
    {
      "constant": false,
      "inputs": [
        {
          "name": "_numberOfTransfers",
          "type": "uint256"
        }
      ],
      "name": "distributeTokens",
      "outputs": [
        {
          "name": "",
          "type": "bool"
        }
      ],
      "payable": false,
      "stateMutability": "nonpayable",
      "type": "function"
    },
    {
      "constant": true,
      "inputs": [],
      "name": "startTime",
      "outputs": [
        {
          "name": "",
          "type": "uint256"
        }
      ],
      "payable": false,
      "stateMutability": "view",
      "type": "function"
    },
    {
      "constant": true,
      "inputs": [],
      "name": "tokenPrice",
      "outputs": [
        {
          "name": "",
          "type": "uint256"
        }
      ],
      "payable": false,
      "stateMutability": "view",
      "type": "function"
    },
    {
      "constant": false,
      "inputs": [],
      "name": "burnRemainingTokens",
      "outputs": [
        {
          "name": "",
          "type": "bool"
        }
      ],
      "payable": false,
      "stateMutability": "nonpayable",
      "type": "function"
    },
    {
      "constant": false,
      "inputs": [
        {
          "name": "_address",
          "type": "address"
        }
      ],
      "name": "removeFromWhitelist",
      "outputs": [],
      "payable": false,
      "stateMutability": "nonpayable",
      "type": "function"
    },
    {
      "constant": true,
      "inputs": [],
      "name": "owner",
      "outputs": [
        {
          "name": "",
          "type": "address"
        }
      ],
      "payable": false,
      "stateMutability": "view",
      "type": "function"
    },
    {
      "constant": true,
      "inputs": [],
      "name": "symbol",
      "outputs": [
        {
          "name": "",
          "type": "string"
        }
      ],
      "payable": false,
      "stateMutability": "view",
      "type": "function"
    },
    {
      "constant": true,
      "inputs": [],
      "name": "tokenFundsWallet",
      "outputs": [
        {
          "name": "",
          "type": "address"
        }
      ],
      "payable": false,
      "stateMutability": "view",
      "type": "function"
    },
    {
      "constant": false,
      "inputs": [
        {
          "name": "_newRate",
          "type": "uint256"
        }
      ],
      "name": "updateTheExchangeRate",
      "outputs": [
        {
          "name": "",
          "type": "bool"
        }
      ],
      "payable": false,
      "stateMutability": "nonpayable",
      "type": "function"
    },
    {
      "constant": true,
      "inputs": [
        {
          "name": "",
          "type": "uint256"
        }
      ],
      "name": "icoParticipants",
      "outputs": [
        {
          "name": "",
          "type": "address"
        }
      ],
      "payable": false,
      "stateMutability": "view",
      "type": "function"
    },
    {
      "constant": true,
      "inputs": [],
      "name": "tokensReleaseDate",
      "outputs": [
        {
          "name": "",
          "type": "uint256"
        }
      ],
      "payable": false,
      "stateMutability": "view",
      "type": "function"
    },
    {
      "constant": false,
      "inputs": [
        {
          "name": "_addresses",
          "type": "address[]"
        }
      ],
      "name": "createWhiteListedMapping",
      "outputs": [],
      "payable": false,
      "stateMutability": "nonpayable",
      "type": "function"
    },
    {
      "constant": true,
      "inputs": [],
      "name": "totalEthRaised",
      "outputs": [
        {
          "name": "",
          "type": "uint256"
        }
      ],
      "payable": false,
      "stateMutability": "view",
      "type": "function"
    },
    {
      "constant": false,
      "inputs": [
        {
          "name": "_endTime",
          "type": "uint256"
        }
      ],
      "name": "setEndTime",
      "outputs": [
        {
          "name": "",
          "type": "bool"
        }
      ],
      "payable": false,
      "stateMutability": "nonpayable",
      "type": "function"
    },
    {
      "constant": true,
      "inputs": [],
      "name": "currentTime",
      "outputs": [
        {
          "name": "",
          "type": "uint256"
        }
      ],
      "payable": false,
      "stateMutability": "view",
      "type": "function"
    },
    {
      "constant": true,
      "inputs": [],
      "name": "dc",
      "outputs": [
        {
          "name": "",
          "type": "address"
        }
      ],
      "payable": false,
      "stateMutability": "view",
      "type": "function"
    },
    {
      "constant": false,
      "inputs": [
        {
          "name": "_t",
          "type": "address"
        }
      ],
      "name": "setMainContractAddress",
      "outputs": [],
      "payable": false,
      "stateMutability": "nonpayable",
      "type": "function"
    },
    {
      "constant": false,
      "inputs": [
        {
          "name": "newOwner",
          "type": "address"
        }
      ],
      "name": "transferOwnership",
      "outputs": [],
      "payable": false,
      "stateMutability": "nonpayable",
      "type": "function"
    },
    {
      "constant": true,
      "inputs": [
        {
          "name": "",
          "type": "address"
        }
      ],
      "name": "whiteListed",
      "outputs": [
        {
          "name": "",
          "type": "bool"
        }
      ],
      "payable": false,
      "stateMutability": "view",
      "type": "function"
    },
    {
      "constant": false,
      "inputs": [
        {
          "name": "_newAddress",
          "type": "address"
        }
      ],
      "name": "changeOracleAddress",
      "outputs": [],
      "payable": false,
      "stateMutability": "nonpayable",
      "type": "function"
    },
    {
      "inputs": [
        {
          "name": "_ethExchangeRate",
          "type": "uint256"
        }
      ],
      "payable": false,
      "stateMutability": "nonpayable",
      "type": "constructor"
    },
    {
      "payable": true,
      "stateMutability": "payable",
      "type": "fallback"
    },
    {
      "anonymous": false,
      "inputs": [
        {
          "indexed": false,
          "name": "oldSupply",
          "type": "uint256"
        },
        {
          "indexed": false,
          "name": "newSupply",
          "type": "uint256"
        }
      ],
      "name": "UpdatedTotalSupply",
      "type": "event"
    },
    {
      "anonymous": false,
      "inputs": [
        {
          "indexed": false,
          "name": "_presd",
          "type": "address"
        },
        {
          "indexed": false,
          "name": "_tsd",
          "type": "address"
        },
        {
          "indexed": false,
          "name": "startIndex",
          "type": "uint256"
        },
        {
          "indexed": false,
          "name": "endIndex",
          "type": "uint256"
        }
      ],
      "name": "DistributedBalancesToTSDContract",
      "type": "event"
    },
    {
      "anonymous": false,
      "inputs": [
        {
          "indexed": false,
          "name": "_presd",
          "type": "address"
        },
        {
          "indexed": false,
          "name": "_tsd",
          "type": "address"
        },
        {
          "indexed": false,
          "name": "_finalWallet",
          "type": "address"
        }
      ],
      "name": "FinalDistributionToTSDContract",
      "type": "event"
    },
    {
      "anonymous": false,
      "inputs": [
        {
          "indexed": false,
          "name": "oldEthRaisedVal",
          "type": "uint256"
        },
        {
          "indexed": false,
          "name": "newEthRaisedVal",
          "type": "uint256"
        }
      ],
      "name": "EthRaisedUpdated",
      "type": "event"
    },
    {
      "anonymous": false,
      "inputs": [
        {
          "indexed": false,
          "name": "prevExchangeRate",
          "type": "uint256"
        },
        {
          "indexed": false,
          "name": "newExchangeRate",
          "type": "uint256"
        }
      ],
      "name": "ExchangeRateUpdated",
      "type": "event"
    },
    {
      "anonymous": false,
      "inputs": [
        {
          "indexed": false,
          "name": "from",
          "type": "address"
        },
        {
          "indexed": false,
          "name": "to",
          "type": "address"
        },
        {
          "indexed": false,
          "name": "value",
          "type": "uint256"
        }
      ],
      "name": "Transfer",
      "type": "event"
    },
    {
      "anonymous": false,
      "inputs": [
        {
          "indexed": false,
          "name": "from",
          "type": "address"
        },
        {
          "indexed": false,
          "name": "to",
          "type": "address"
        },
        {
          "indexed": false,
          "name": "value",
          "type": "uint256"
        }
      ],
      "name": "SafeTransfer",
      "type": "event"
    },
    {
      "anonymous": false,
      "inputs": [
        {
          "indexed": true,
          "name": "previousOwner",
          "type": "address"
        }
      ],
      "name": "OwnershipRenounced",
      "type": "event"
    },
    {
      "anonymous": false,
      "inputs": [
        {
          "indexed": true,
          "name": "previousOwner",
          "type": "address"
        },
        {
          "indexed": true,
          "name": "newOwner",
          "type": "address"
        }
      ],
      "name": "OwnershipTransferred",
      "type": "event"
    },
    {
      "constant": false,
      "inputs": [],
      "name": "buyTokens",
      "outputs": [],
      "payable": true,
      "stateMutability": "payable",
      "type": "function"
    }
  ],
  "bytecode": "0x60806040526012600555600554600a0a600655600654620f42400260075560326008556000600b556001601260006101000a81548160ff02191690831515021790555060006014556040805190810160405280600c81526020017f5052452054534420434f494e000000000000000000000000000000000000000081525060159080519060200190620000949291906200069f565b506040805190810160405280600681526020017f505245545344000000000000000000000000000000000000000000000000000081525060169080519060200190620000e29291906200069f565b506207a12060175560806040519081016040528061032061ffff16815260200161034861ffff16815260200161037061ffff16815260200161039861ffff1681525060189060046200013692919062000726565b503480156200014457600080fd5b506040516020806200478183398101806040528101908080519060200190929190505050336000806101000a81548173ffffffffffffffffffffffffffffffffffffffff021916908373ffffffffffffffffffffffffffffffffffffffff16021790555060075460f002600281905550620001da6004600254620003a16401000000000262003783179091906401000000009004565b6019819055506000809054906101000a900473ffffffffffffffffffffffffffffffffffffffff16601260016101000a81548173ffffffffffffffffffffffffffffffffffffffff021916908373ffffffffffffffffffffffffffffffffffffffff16021790555060025460116000601260019054906101000a900473ffffffffffffffffffffffffffffffffffffffff1673ffffffffffffffffffffffffffffffffffffffff1673ffffffffffffffffffffffffffffffffffffffff168152602001908152602001600020819055507fddf252ad1be2c89b69c2b068fc378daa952ba7f163c4a11628f55a4df523b3ef6000601260019054906101000a900473ffffffffffffffffffffffffffffffffffffffff16600254604051808473ffffffffffffffffffffffffffffffffffffffff1681526020018373ffffffffffffffffffffffffffffffffffffffff1673ffffffffffffffffffffffffffffffffffffffff168152602001828152602001935050505060405180910390a16200037281620003b8640100000000026401000000009004565b50650164f0a36f00600c819055506501655cc8fb00600d8190555065016c48549b00600e819055505062000826565b60008183811515620003af57fe5b04905092915050565b60008060008073ffffffffffffffffffffffffffffffffffffffff163373ffffffffffffffffffffffffffffffffffffffff1614151515620003f957600080fd5b6000809054906101000a900473ffffffffffffffffffffffffffffffffffffffff1673ffffffffffffffffffffffffffffffffffffffff163373ffffffffffffffffffffffffffffffffffffffff161480620004a25750600460009054906101000a900473ffffffffffffffffffffffffffffffffffffffff1673ffffffffffffffffffffffffffffffffffffffff163373ffffffffffffffffffffffffffffffffffffffff16145b151562000517576040517f08c379a00000000000000000000000000000000000000000000000000000000081526004018080602001828103825260138152602001807f556e617574686f72697a65642077616c6c65740000000000000000000000000081525060200191505060405180910390fd5b6000841415151562000591576040517f08c379a000000000000000000000000000000000000000000000000000000000815260040180806020018281038252601d8152602001807f6e6577204554483d3e55534420726174652063616e6e6f74206265203000000081525060200191505060405180910390fd5b83600981905550600a54915064e8d4a5100090506200061184620005f4620f4240620005d76008548662000663640100000000026200374b179091906401000000009004565b62000663640100000000026200374b179091906401000000009004565b620003a16401000000000262003783179091906401000000009004565b600a819055507fc8d1043f24843c0a1c9251fdc30017d84e87498fbcf232af9f86816b5e182bde82600a54604051808381526020018281526020019250505060405180910390a1600192505050919050565b60008083141562000678576000905062000699565b81830290508183828115156200068a57fe5b041415156200069557fe5b8090505b92915050565b828054600181600116156101000203166002900490600052602060002090601f016020900481019282601f10620006e257805160ff191683800117855562000713565b8280016001018555821562000713579182015b8281111562000712578251825591602001919060010190620006f5565b5b509050620007229190620007ca565b5090565b826004600f01601090048101928215620007b75791602002820160005b838211156200078557835183826101000a81548161ffff021916908361ffff160217905550926020019260020160208160010104928301926001030262000743565b8015620007b55782816101000a81549061ffff021916905560020160208160010104928301926001030262000785565b505b509050620007c69190620007f2565b5090565b620007ef91905b80821115620007eb576000816000905550600101620007d1565b5090565b90565b6200082391905b808211156200081f57600081816101000a81549061ffff021916905550600101620007f9565b5090565b90565b613f4b80620008366000396000f3006080604052600436106101e3576000357c0100000000000000000000000000000000000000000000000000000000900463ffffffff16806306fdde03146101ed5780630b961e481461027d57806318160ddd146102a857806319ecb166146102d35780633082538f14610316578063313ce567146103415780633197cbb61461036c57806333b5b62e146103975780633ba0b9a9146103c25780633e0a322d146103ed578063423f6cef14610432578063467d0119146104975780634a54839d146104ee5780634e9c6b1f1461054557806360659a92146105705780636ff85ea91461059f57806370a08231146105ca578063715018a6146106215780637366794e1461063857806378e979251461067d5780637ff9b596146106a857806383408d73146106d35780638ab1d681146107025780638da5cb5b1461074557806395d89b411461079c578063972f3d331461082c578063a229c61414610883578063a256ea3a146108c8578063afe07f5914610935578063b9cdd19b14610960578063c9e904be1461099b578063ccb98ffc146109c6578063d0febe4c14610a0b578063d18e81b314610a15578063d8a531a614610a40578063ec9da59e14610a97578063f2fde38b14610ada578063fa0fca8414610b1d578063fb349dbd14610b78575b6101eb610bbb565b005b3480156101f957600080fd5b50610202611769565b6040518080602001828103825283818151815260200191508051906020019080838360005b83811015610242578082015181840152602081019050610227565b50505050905090810190601f16801561026f5780820380516001836020036101000a031916815260200191505b509250505060405180910390f35b34801561028957600080fd5b50610292611807565b6040518082815260200191505060405180910390f35b3480156102b457600080fd5b506102bd61180d565b6040518082815260200191505060405180910390f35b3480156102df57600080fd5b50610314600480360381019080803573ffffffffffffffffffffffffffffffffffffffff169060200190929190505050611813565b005b34801561032257600080fd5b5061032b6118b2565b6040518082815260200191505060405180910390f35b34801561034d57600080fd5b506103566118b8565b6040518082815260200191505060405180910390f35b34801561037857600080fd5b506103816118be565b6040518082815260200191505060405180910390f35b3480156103a357600080fd5b506103ac6118c4565b6040518082815260200191505060405180910390f35b3480156103ce57600080fd5b506103d76118ca565b6040518082815260200191505060405180910390f35b3480156103f957600080fd5b50610418600480360381019080803590602001909291905050506118d0565b604051808215151515815260200191505060405180910390f35b34801561043e57600080fd5b5061047d600480360381019080803573ffffffffffffffffffffffffffffffffffffffff1690602001909291908035906020019092919050505061194d565b604051808215151515815260200191505060405180910390f35b3480156104a357600080fd5b506104ac611dbe565b604051808273ffffffffffffffffffffffffffffffffffffffff1673ffffffffffffffffffffffffffffffffffffffff16815260200191505060405180910390f35b3480156104fa57600080fd5b50610503611de4565b604051808273ffffffffffffffffffffffffffffffffffffffff1673ffffffffffffffffffffffffffffffffffffffff16815260200191505060405180910390f35b34801561055157600080fd5b5061055a611e0a565b6040518082815260200191505060405180910390f35b34801561057c57600080fd5b50610585611e10565b604051808215151515815260200191505060405180910390f35b3480156105ab57600080fd5b506105b4611e23565b6040518082815260200191505060405180910390f35b3480156105d657600080fd5b5061060b600480360381019080803573ffffffffffffffffffffffffffffffffffffffff169060200190929190505050611e29565b6040518082815260200191505060405180910390f35b34801561062d57600080fd5b50610636611e72565b005b34801561064457600080fd5b5061066360048036038101908080359060200190929190505050611f74565b604051808215151515815260200191505060405180910390f35b34801561068957600080fd5b50610692612984565b6040518082815260200191505060405180910390f35b3480156106b457600080fd5b506106bd61298a565b6040518082815260200191505060405180910390f35b3480156106df57600080fd5b506106e8612990565b604051808215151515815260200191505060405180910390f35b34801561070e57600080fd5b50610743600480360381019080803573ffffffffffffffffffffffffffffffffffffffff169060200190929190505050612c31565b005b34801561075157600080fd5b5061075a612ddb565b604051808273ffffffffffffffffffffffffffffffffffffffff1673ffffffffffffffffffffffffffffffffffffffff16815260200191505060405180910390f35b3480156107a857600080fd5b506107b1612e00565b6040518080602001828103825283818151815260200191508051906020019080838360005b838110156107f15780820151818401526020810190506107d6565b50505050905090810190601f16801561081e5780820380516001836020036101000a031916815260200191505b509250505060405180910390f35b34801561083857600080fd5b50610841612e9e565b604051808273ffffffffffffffffffffffffffffffffffffffff1673ffffffffffffffffffffffffffffffffffffffff16815260200191505060405180910390f35b34801561088f57600080fd5b506108ae60048036038101908080359060200190929190505050612ec4565b604051808215151515815260200191505060405180910390f35b3480156108d457600080fd5b506108f36004803603810190808035906020019092919050505061313b565b604051808273ffffffffffffffffffffffffffffffffffffffff1673ffffffffffffffffffffffffffffffffffffffff16815260200191505060405180910390f35b34801561094157600080fd5b5061094a613179565b6040518082815260200191505060405180910390f35b34801561096c57600080fd5b5061099960048036038101908080359060200190820180359060200191909192939192939050505061317f565b005b3480156109a757600080fd5b506109b0613390565b6040518082815260200191505060405180910390f35b3480156109d257600080fd5b506109f160048036038101908080359060200190929190505050613396565b604051808215151515815260200191505060405180910390f35b610a13610bbb565b005b348015610a2157600080fd5b50610a2a613425565b6040518082815260200191505060405180910390f35b348015610a4c57600080fd5b50610a55613431565b604051808273ffffffffffffffffffffffffffffffffffffffff1673ffffffffffffffffffffffffffffffffffffffff16815260200191505060405180910390f35b348015610aa357600080fd5b50610ad8600480360381019080803573ffffffffffffffffffffffffffffffffffffffff169060200190929190505050613457565b005b348015610ae657600080fd5b50610b1b600480360381019080803573ffffffffffffffffffffffffffffffffffffffff169060200190929190505050613537565b005b348015610b2957600080fd5b50610b5e600480360381019080803573ffffffffffffffffffffffffffffffffffffffff16906020019092919050505061368c565b604051808215151515815260200191505060405180910390f35b348015610b8457600080fd5b50610bb9600480360381019080803573ffffffffffffffffffffffffffffffffffffffff1690602001909291905050506136ac565b005b600080600080600080600080610bcf613425565b9750610bfc600954610bee60065460175461374b90919063ffffffff16565b61378390919063ffffffff16565b9650601260009054906101000a900460ff161515610c82576040517f08c379a00000000000000000000000000000000000000000000000000000000081526004018080602001828103825260188152602001807f6e6f206d6f726520746f6b656e7320617661696c61626c65000000000000000081525060200191505060405180910390fd5b600c548810158015610c965750600d548811155b1515610d30576040517f08c379a00000000000000000000000000000000000000000000000000000000081526004018080602001828103825260308152602001807f63757272656e742074696d65206973206e6f7420696e2074686520707572636881526020017f6173652077696e646f77206672616d650000000000000000000000000000000081525060400191505060405180910390fd5b601060003373ffffffffffffffffffffffffffffffffffffffff1673ffffffffffffffffffffffffffffffffffffffff16815260200190815260200160002060009054906101000a900460ff161515610df1576040517f08c379a00000000000000000000000000000000000000000000000000000000081526004018080602001828103825260178152602001807f75736572206973206e6f742077686974656c697374656400000000000000000081525060200191505060405180910390fd5b863410151515610e8f576040517f08c379a00000000000000000000000000000000000000000000000000000000081526004018080602001828103825260258152602001807f616d6f756e742073656e742069732062656c6f77206d696e696d756d2070757281526020017f636861736500000000000000000000000000000000000000000000000000000081525060400191505060405180910390fd5b349550610e9b86613799565b9450600b5493506000925060116000601260019054906101000a900473ffffffffffffffffffffffffffffffffffffffff1673ffffffffffffffffffffffffffffffffffffffff1673ffffffffffffffffffffffffffffffffffffffff168152602001908152602001600020548514156113bb57610f17613bc6565b9150610f2c8287613e1790919063ffffffff16565b9250610f418387613e1790919063ffffffff16565b955060116000601260019054906101000a900473ffffffffffffffffffffffffffffffffffffffff1673ffffffffffffffffffffffffffffffffffffffff1673ffffffffffffffffffffffffffffffffffffffff16815260200190815260200160002054905061101b8160116000601260019054906101000a900473ffffffffffffffffffffffffffffffffffffffff1673ffffffffffffffffffffffffffffffffffffffff1673ffffffffffffffffffffffffffffffffffffffff16815260200190815260200160002054613e1790919063ffffffff16565b60116000601260019054906101000a900473ffffffffffffffffffffffffffffffffffffffff1673ffffffffffffffffffffffffffffffffffffffff1673ffffffffffffffffffffffffffffffffffffffff168152602001908152602001600020819055506000601160003373ffffffffffffffffffffffffffffffffffffffff1673ffffffffffffffffffffffffffffffffffffffff16815260200190815260200160002054141561112f57600f3390806001815401808255809150509060018203906000526020600020016000909192909190916101000a81548173ffffffffffffffffffffffffffffffffffffffff021916908373ffffffffffffffffffffffffffffffffffffffff160217905550505b61118181601160003373ffffffffffffffffffffffffffffffffffffffff1673ffffffffffffffffffffffffffffffffffffffff16815260200190815260200160002054613e3090919063ffffffff16565b601160003373ffffffffffffffffffffffffffffffffffffffff1673ffffffffffffffffffffffffffffffffffffffff168152602001908152602001600020819055507fddf252ad1be2c89b69c2b068fc378daa952ba7f163c4a11628f55a4df523b3ef601260019054906101000a900473ffffffffffffffffffffffffffffffffffffffff163383604051808473ffffffffffffffffffffffffffffffffffffffff1673ffffffffffffffffffffffffffffffffffffffff1681526020018373ffffffffffffffffffffffffffffffffffffffff1673ffffffffffffffffffffffffffffffffffffffff168152602001828152602001935050505060405180910390a160008311156112d6573373ffffffffffffffffffffffffffffffffffffffff166108fc849081150290604051600060405180830381858888f193505050501580156112d4573d6000803e3d6000fd5b505b601260019054906101000a900473ffffffffffffffffffffffffffffffffffffffff1673ffffffffffffffffffffffffffffffffffffffff166108fc879081150290604051600060405180830381858888f1935050505015801561133e573d6000803e3d6000fd5b5061135486600b54613e3090919063ffffffff16565b600b819055507f4014ce514c76bad08328a2a6046bac14007f7aad2c56c84c66acf8ca1c64bee884600b54604051808381526020018281526020019250505060405180910390a16000601260006101000a81548160ff02191690831515021790555061175f565b6000601160003373ffffffffffffffffffffffffffffffffffffffff1673ffffffffffffffffffffffffffffffffffffffff16815260200190815260200160002054141561146a57600f3390806001815401808255809150509060018203906000526020600020016000909192909190916101000a81548173ffffffffffffffffffffffffffffffffffffffff021916908373ffffffffffffffffffffffffffffffffffffffff160217905550505b6114de8560116000601260019054906101000a900473ffffffffffffffffffffffffffffffffffffffff1673ffffffffffffffffffffffffffffffffffffffff1673ffffffffffffffffffffffffffffffffffffffff16815260200190815260200160002054613e1790919063ffffffff16565b60116000601260019054906101000a900473ffffffffffffffffffffffffffffffffffffffff1673ffffffffffffffffffffffffffffffffffffffff1673ffffffffffffffffffffffffffffffffffffffff1681526020019081526020016000208190555061159585601160003373ffffffffffffffffffffffffffffffffffffffff1673ffffffffffffffffffffffffffffffffffffffff16815260200190815260200160002054613e3090919063ffffffff16565b601160003373ffffffffffffffffffffffffffffffffffffffff1673ffffffffffffffffffffffffffffffffffffffff168152602001908152602001600020819055507fddf252ad1be2c89b69c2b068fc378daa952ba7f163c4a11628f55a4df523b3ef601260019054906101000a900473ffffffffffffffffffffffffffffffffffffffff163387604051808473ffffffffffffffffffffffffffffffffffffffff1673ffffffffffffffffffffffffffffffffffffffff1681526020018373ffffffffffffffffffffffffffffffffffffffff1673ffffffffffffffffffffffffffffffffffffffff168152602001828152602001935050505060405180910390a1601260019054906101000a900473ffffffffffffffffffffffffffffffffffffffff1673ffffffffffffffffffffffffffffffffffffffff166108fc879081150290604051600060405180830381858888f19350505050158015611701573d6000803e3d6000fd5b5061171786600b54613e3090919063ffffffff16565b600b819055507f4014ce514c76bad08328a2a6046bac14007f7aad2c56c84c66acf8ca1c64bee884600b54604051808381526020018281526020019250505060405180910390a15b5050505050505050565b60158054600181600116156101000203166002900480601f0160208091040260200160405190810160405280929190818152602001828054600181600116156101000203166002900480156117ff5780601f106117d4576101008083540402835291602001916117ff565b820191906000526020600020905b8154815290600101906020018083116117e257829003601f168201915b505050505081565b60095481565b60025481565b6000809054906101000a900473ffffffffffffffffffffffffffffffffffffffff1673ffffffffffffffffffffffffffffffffffffffff163373ffffffffffffffffffffffffffffffffffffffff1614151561186e57600080fd5b80601360006101000a81548173ffffffffffffffffffffffffffffffffffffffff021916908373ffffffffffffffffffffffffffffffffffffffff16021790555050565b60065481565b60055481565b600d5481565b60175481565b600a5481565b60008060009054906101000a900473ffffffffffffffffffffffffffffffffffffffff1673ffffffffffffffffffffffffffffffffffffffff163373ffffffffffffffffffffffffffffffffffffffff1614151561192d57600080fd5b600d548210151561193d57600080fd5b81600c8190555060019050919050565b60008060009054906101000a900473ffffffffffffffffffffffffffffffffffffffff1673ffffffffffffffffffffffffffffffffffffffff163373ffffffffffffffffffffffffffffffffffffffff161415156119aa57600080fd5b600073ffffffffffffffffffffffffffffffffffffffff168373ffffffffffffffffffffffffffffffffffffffff16141515156119e657600080fd5b601160003373ffffffffffffffffffffffffffffffffffffffff1673ffffffffffffffffffffffffffffffffffffffff168152602001908152602001600020548211151515611a9d576040517f08c379a000000000000000000000000000000000000000000000000000000000815260040180806020018281038252600f8152602001807f62616c616e636520746f6f206c6f77000000000000000000000000000000000081525060200191505060405180910390fd5b6000601160008573ffffffffffffffffffffffffffffffffffffffff1673ffffffffffffffffffffffffffffffffffffffff168152602001908152602001600020541415611b4c57600f8390806001815401808255809150509060018203906000526020600020016000909192909190916101000a81548173ffffffffffffffffffffffffffffffffffffffff021916908373ffffffffffffffffffffffffffffffffffffffff160217905550505b611b9e82601160003373ffffffffffffffffffffffffffffffffffffffff1673ffffffffffffffffffffffffffffffffffffffff16815260200190815260200160002054613e1790919063ffffffff16565b601160003373ffffffffffffffffffffffffffffffffffffffff1673ffffffffffffffffffffffffffffffffffffffff16815260200190815260200160002081905550611c3382601160008673ffffffffffffffffffffffffffffffffffffffff1673ffffffffffffffffffffffffffffffffffffffff16815260200190815260200160002054613e3090919063ffffffff16565b601160008573ffffffffffffffffffffffffffffffffffffffff1673ffffffffffffffffffffffffffffffffffffffff168152602001908152602001600020819055507fddf252ad1be2c89b69c2b068fc378daa952ba7f163c4a11628f55a4df523b3ef338484604051808473ffffffffffffffffffffffffffffffffffffffff1673ffffffffffffffffffffffffffffffffffffffff1681526020018373ffffffffffffffffffffffffffffffffffffffff1673ffffffffffffffffffffffffffffffffffffffff168152602001828152602001935050505060405180910390a17ff1e4d924660e3140f9ee5a4c60b903dbb2788763230b3033aa2cfc07a9bfe163338484604051808473ffffffffffffffffffffffffffffffffffffffff1673ffffffffffffffffffffffffffffffffffffffff1681526020018373ffffffffffffffffffffffffffffffffffffffff1673ffffffffffffffffffffffffffffffffffffffff168152602001828152602001935050505060405180910390a16001905092915050565b601360009054906101000a900473ffffffffffffffffffffffffffffffffffffffff1681565b600360009054906101000a900473ffffffffffffffffffffffffffffffffffffffff1681565b60075481565b601260009054906101000a900460ff1681565b60145481565b6000601160008373ffffffffffffffffffffffffffffffffffffffff1673ffffffffffffffffffffffffffffffffffffffff168152602001908152602001600020549050919050565b6000809054906101000a900473ffffffffffffffffffffffffffffffffffffffff1673ffffffffffffffffffffffffffffffffffffffff163373ffffffffffffffffffffffffffffffffffffffff16141515611ecd57600080fd5b6000809054906101000a900473ffffffffffffffffffffffffffffffffffffffff1673ffffffffffffffffffffffffffffffffffffffff167ff8df31144d9c2f0f6b59d69b8b98abd5459d07f2742c4df920b25aae33c6482060405160405180910390a260008060006101000a81548173ffffffffffffffffffffffffffffffffffffffff021916908373ffffffffffffffffffffffffffffffffffffffff160217905550565b60008060008073ffffffffffffffffffffffffffffffffffffffff163373ffffffffffffffffffffffffffffffffffffffff1614151515611fb457600080fd5b6000809054906101000a900473ffffffffffffffffffffffffffffffffffffffff1673ffffffffffffffffffffffffffffffffffffffff163373ffffffffffffffffffffffffffffffffffffffff16148061205c5750600460009054906101000a900473ffffffffffffffffffffffffffffffffffffffff1673ffffffffffffffffffffffffffffffffffffffff163373ffffffffffffffffffffffffffffffffffffffff16145b15156120d0576040517f08c379a00000000000000000000000000000000000000000000000000000000081526004018080602001828103825260138152602001807f556e617574686f72697a65642077616c6c65740000000000000000000000000081525060200191505060405180910390fd5b600e546120db613425565b10151515612177576040517f08c379a000000000000000000000000000000000000000000000000000000000815260040180806020018281038252602b8152602001807f63616e206f6e6c79206469737472696275746520616674657220746f6b656e7381526020017f52656c656173654461746500000000000000000000000000000000000000000081525060400191505060405180910390fd5b600084111515612215576040517f08c379a000000000000000000000000000000000000000000000000000000000815260040180806020018281038252602a8152602001807f6e756d626572206f66207472616e7366657273206d757374206265206d6f726581526020017f207468616e207a65726f0000000000000000000000000000000000000000000081525060400191505060405180910390fd5b600f805490506014541015156122b9576040517f08c379a00000000000000000000000000000000000000000000000000000000081526004018080602001828103825260288152602001807f616c6c20746f6b656e732068617665206265656e20646973747269627574656481526020017f20616c726561647900000000000000000000000000000000000000000000000081525060400191505060405180910390fd5b6122ce84601454613e3090919063ffffffff16565b915060145490505b818110156128a757600060116000600f848154811015156122f357fe5b9060005260206000200160009054906101000a900473ffffffffffffffffffffffffffffffffffffffff1673ffffffffffffffffffffffffffffffffffffffff1673ffffffffffffffffffffffffffffffffffffffff1681526020019081526020016000205414151561275957600160009054906101000a900473ffffffffffffffffffffffffffffffffffffffff1673ffffffffffffffffffffffffffffffffffffffff166323b872dd601360009054906101000a900473ffffffffffffffffffffffffffffffffffffffff16600f848154811015156123d057fe5b9060005260206000200160009054906101000a900473ffffffffffffffffffffffffffffffffffffffff1660116000600f8781548110151561240e57fe5b9060005260206000200160009054906101000a900473ffffffffffffffffffffffffffffffffffffffff1673ffffffffffffffffffffffffffffffffffffffff1673ffffffffffffffffffffffffffffffffffffffff168152602001908152602001600020546040518463ffffffff167c0100000000000000000000000000000000000000000000000000000000028152600401808473ffffffffffffffffffffffffffffffffffffffff1673ffffffffffffffffffffffffffffffffffffffff1681526020018373ffffffffffffffffffffffffffffffffffffffff1673ffffffffffffffffffffffffffffffffffffffff1681526020018281526020019350505050602060405180830381600087803b15801561252c57600080fd5b505af1158015612540573d6000803e3d6000fd5b505050506040513d602081101561255657600080fd5b8101908080519060200190929190505050507fddf252ad1be2c89b69c2b068fc378daa952ba7f163c4a11628f55a4df523b3ef601360009054906101000a900473ffffffffffffffffffffffffffffffffffffffff16600f838154811015156125bb57fe5b9060005260206000200160009054906101000a900473ffffffffffffffffffffffffffffffffffffffff1660116000600f868154811015156125f957fe5b9060005260206000200160009054906101000a900473ffffffffffffffffffffffffffffffffffffffff1673ffffffffffffffffffffffffffffffffffffffff1673ffffffffffffffffffffffffffffffffffffffff16815260200190815260200160002054604051808473ffffffffffffffffffffffffffffffffffffffff1673ffffffffffffffffffffffffffffffffffffffff1681526020018373ffffffffffffffffffffffffffffffffffffffff1673ffffffffffffffffffffffffffffffffffffffff168152602001828152602001935050505060405180910390a1600060116000600f848154811015156126ef57fe5b9060005260206000200160009054906101000a900473ffffffffffffffffffffffffffffffffffffffff1673ffffffffffffffffffffffffffffffffffffffff1673ffffffffffffffffffffffffffffffffffffffff168152602001908152602001600020819055505b6001600f805490500381141561289a577fd897b6acc1a2f53be7cca2c1199adbf53022b417c7d694535317c7f7fd0cfab730600360009054906101000a900473ffffffffffffffffffffffffffffffffffffffff16600f848154811015156127bd57fe5b9060005260206000200160009054906101000a900473ffffffffffffffffffffffffffffffffffffffff16604051808473ffffffffffffffffffffffffffffffffffffffff1673ffffffffffffffffffffffffffffffffffffffff1681526020018373ffffffffffffffffffffffffffffffffffffffff1673ffffffffffffffffffffffffffffffffffffffff1681526020018273ffffffffffffffffffffffffffffffffffffffff1673ffffffffffffffffffffffffffffffffffffffff168152602001935050505060405180910390a16001810191506128a7565b80806001019150506122d6565b7fb602d53c9c2dd706fac86a91d5aa373a8a92beeedbb88d91b0bcdf061edfbf1b30600360009054906101000a900473ffffffffffffffffffffffffffffffffffffffff1660145485604051808573ffffffffffffffffffffffffffffffffffffffff1673ffffffffffffffffffffffffffffffffffffffff1681526020018473ffffffffffffffffffffffffffffffffffffffff1673ffffffffffffffffffffffffffffffffffffffff16815260200183815260200182815260200194505050505060405180910390a181601481905550600192505050919050565b600c5481565b60085481565b6000806000809054906101000a900473ffffffffffffffffffffffffffffffffffffffff1673ffffffffffffffffffffffffffffffffffffffff163373ffffffffffffffffffffffffffffffffffffffff161415156129ee57600080fd5b600d546129f9613425565b10151515612a95576040517f08c379a00000000000000000000000000000000000000000000000000000000081526004018080602001828103825260338152602001807f63616e206f6e6c79206275726e20746f6b656e7320616674657220746f6b656e81526020017f2073616c652068617320636f6e636c756465640000000000000000000000000081525060400191505060405180910390fd5b600060116000601260019054906101000a900473ffffffffffffffffffffffffffffffffffffffff1673ffffffffffffffffffffffffffffffffffffffff1673ffffffffffffffffffffffffffffffffffffffff168152602001908152602001600020541115612c29576002549050612b7a60116000601260019054906101000a900473ffffffffffffffffffffffffffffffffffffffff1673ffffffffffffffffffffffffffffffffffffffff1673ffffffffffffffffffffffffffffffffffffffff16815260200190815260200160002054600254613e1790919063ffffffff16565b600281905550600060116000601260019054906101000a900473ffffffffffffffffffffffffffffffffffffffff1673ffffffffffffffffffffffffffffffffffffffff1673ffffffffffffffffffffffffffffffffffffffff168152602001908152602001600020819055507f8a96e7229e5b018dff0425d91c96d3f7d93cae0b891ff020eef8b1686e1a6a1081600254604051808381526020018281526020019250505060405180910390a15b600191505090565b600073ffffffffffffffffffffffffffffffffffffffff163373ffffffffffffffffffffffffffffffffffffffff1614151515612c6d57600080fd5b6000809054906101000a900473ffffffffffffffffffffffffffffffffffffffff1673ffffffffffffffffffffffffffffffffffffffff163373ffffffffffffffffffffffffffffffffffffffff161480612d155750600460009054906101000a900473ffffffffffffffffffffffffffffffffffffffff1673ffffffffffffffffffffffffffffffffffffffff163373ffffffffffffffffffffffffffffffffffffffff16145b1515612d89576040517f08c379a00000000000000000000000000000000000000000000000000000000081526004018080602001828103825260138152602001807f556e617574686f72697a65642077616c6c65740000000000000000000000000081525060200191505060405180910390fd5b601060008273ffffffffffffffffffffffffffffffffffffffff1673ffffffffffffffffffffffffffffffffffffffff16815260200190815260200160002060006101000a81549060ff021916905550565b6000809054906101000a900473ffffffffffffffffffffffffffffffffffffffff1681565b60168054600181600116156101000203166002900480601f016020809104026020016040519081016040528092919081815260200182805460018160011615610100020316600290048015612e965780601f10612e6b57610100808354040283529160200191612e96565b820191906000526020600020905b815481529060010190602001808311612e7957829003601f168201915b505050505081565b601260019054906101000a900473ffffffffffffffffffffffffffffffffffffffff1681565b60008060008073ffffffffffffffffffffffffffffffffffffffff163373ffffffffffffffffffffffffffffffffffffffff1614151515612f0457600080fd5b6000809054906101000a900473ffffffffffffffffffffffffffffffffffffffff1673ffffffffffffffffffffffffffffffffffffffff163373ffffffffffffffffffffffffffffffffffffffff161480612fac5750600460009054906101000a900473ffffffffffffffffffffffffffffffffffffffff1673ffffffffffffffffffffffffffffffffffffffff163373ffffffffffffffffffffffffffffffffffffffff16145b1515613020576040517f08c379a00000000000000000000000000000000000000000000000000000000081526004018080602001828103825260138152602001807f556e617574686f72697a65642077616c6c65740000000000000000000000000081525060200191505060405180910390fd5b60008414151515613099576040517f08c379a000000000000000000000000000000000000000000000000000000000815260040180806020018281038252601d8152602001807f6e6577204554483d3e55534420726174652063616e6e6f74206265203000000081525060200191505060405180910390fd5b83600981905550600a54915064e8d4a5100090506130e9846130db620f42406130cd6008548661374b90919063ffffffff16565b61374b90919063ffffffff16565b61378390919063ffffffff16565b600a819055507fc8d1043f24843c0a1c9251fdc30017d84e87498fbcf232af9f86816b5e182bde82600a54604051808381526020018281526020019250505060405180910390a1600192505050919050565b600f8181548110151561314a57fe5b906000526020600020016000915054906101000a900473ffffffffffffffffffffffffffffffffffffffff1681565b600e5481565b60008073ffffffffffffffffffffffffffffffffffffffff163373ffffffffffffffffffffffffffffffffffffffff16141515156131bc57600080fd5b6000809054906101000a900473ffffffffffffffffffffffffffffffffffffffff1673ffffffffffffffffffffffffffffffffffffffff163373ffffffffffffffffffffffffffffffffffffffff1614806132645750600460009054906101000a900473ffffffffffffffffffffffffffffffffffffffff1673ffffffffffffffffffffffffffffffffffffffff163373ffffffffffffffffffffffffffffffffffffffff16145b15156132d8576040517f08c379a00000000000000000000000000000000000000000000000000000000081526004018080602001828103825260138152602001807f556e617574686f72697a65642077616c6c65740000000000000000000000000081525060200191505060405180910390fd5b600090505b828290508167ffffffffffffffff16101561338b5760016010600085858567ffffffffffffffff16818110151561331057fe5b9050602002013573ffffffffffffffffffffffffffffffffffffffff1673ffffffffffffffffffffffffffffffffffffffff1673ffffffffffffffffffffffffffffffffffffffff16815260200190815260200160002060006101000a81548160ff02191690831515021790555080806001019150506132dd565b505050565b600b5481565b60008060009054906101000a900473ffffffffffffffffffffffffffffffffffffffff1673ffffffffffffffffffffffffffffffffffffffff163373ffffffffffffffffffffffffffffffffffffffff161415156133f357600080fd5b600c548211801561340a5750613407613425565b82115b151561341557600080fd5b81600d8190555060019050919050565b60006103e84202905090565b600160009054906101000a900473ffffffffffffffffffffffffffffffffffffffff1681565b6000809054906101000a900473ffffffffffffffffffffffffffffffffffffffff1673ffffffffffffffffffffffffffffffffffffffff163373ffffffffffffffffffffffffffffffffffffffff161415156134b257600080fd5b80600160006101000a81548173ffffffffffffffffffffffffffffffffffffffff021916908373ffffffffffffffffffffffffffffffffffffffff16021790555080600360006101000a81548173ffffffffffffffffffffffffffffffffffffffff021916908373ffffffffffffffffffffffffffffffffffffffff16021790555050565b6000809054906101000a900473ffffffffffffffffffffffffffffffffffffffff1673ffffffffffffffffffffffffffffffffffffffff163373ffffffffffffffffffffffffffffffffffffffff1614151561359257600080fd5b600073ffffffffffffffffffffffffffffffffffffffff168173ffffffffffffffffffffffffffffffffffffffff16141515156135ce57600080fd5b8073ffffffffffffffffffffffffffffffffffffffff166000809054906101000a900473ffffffffffffffffffffffffffffffffffffffff1673ffffffffffffffffffffffffffffffffffffffff167f8be0079c531659141344cd1fd0a4f28419497f9722a3daafe3b4186f6b6457e060405160405180910390a3806000806101000a81548173ffffffffffffffffffffffffffffffffffffffff021916908373ffffffffffffffffffffffffffffffffffffffff16021790555050565b60106020528060005260406000206000915054906101000a900460ff1681565b6000809054906101000a900473ffffffffffffffffffffffffffffffffffffffff1673ffffffffffffffffffffffffffffffffffffffff163373ffffffffffffffffffffffffffffffffffffffff1614151561370757600080fd5b80600460006101000a81548173ffffffffffffffffffffffffffffffffffffffff021916908373ffffffffffffffffffffffffffffffffffffffff16021790555050565b60008083141561375e576000905061377d565b818302905081838281151561376f57fe5b0414151561377957fe5b8090505b92915050565b6000818381151561379057fe5b04905092915050565b60008060008060008060008095506000945087935061382460116000601260019054906101000a900473ffffffffffffffffffffffffffffffffffffffff1673ffffffffffffffffffffffffffffffffffffffff1673ffffffffffffffffffffffffffffffffffffffff16815260200190815260200160002054600254613e1790919063ffffffff16565b925060195461383e84600254613e1790919063ffffffff16565b81151561384757fe5b06915060008214613858578161385c565b6019545b9150600083146138a6576138a160195461389361388485601954613e1790919063ffffffff16565b86613e1790919063ffffffff16565b61378390919063ffffffff16565b6138a9565b60005b90508060001415613979576138ef826138ea866018856004811015156138cb57fe5b601091828204019190066002029054906101000a900461ffff16613e4c565b613ea9565b94506139048587613e3090919063ffffffff16565b955061394a61393b8660188460048110151561391c57fe5b601091828204019190066002029054906101000a900461ffff16613ec2565b85613e1790919063ffffffff16565b9350600084141561395d57859650613bbb565b6019549150613976600182613e3090919063ffffffff16565b90505b8060011415613a47576139bd826139b88660188560048110151561399957fe5b601091828204019190066002029054906101000a900461ffff16613e4c565b613ea9565b94506139d28587613e3090919063ffffffff16565b9550613a18613a09866018846004811015156139ea57fe5b601091828204019190066002029054906101000a900461ffff16613ec2565b85613e1790919063ffffffff16565b93506000841415613a2b57859650613bbb565b6019549150613a44600182613e3090919063ffffffff16565b90505b8060021415613b1557613a8b82613a8686601885600481101515613a6757fe5b601091828204019190066002029054906101000a900461ffff16613e4c565b613ea9565b9450613aa08587613e3090919063ffffffff16565b9550613ae6613ad786601884600481101515613ab857fe5b601091828204019190066002029054906101000a900461ffff16613ec2565b85613e1790919063ffffffff16565b93506000841415613af957859650613bbb565b6019549150613b12600182613e3090919063ffffffff16565b90505b8060031415613bb757613b5982613b5486601885600481101515613b3557fe5b601091828204019190066002029054906101000a900461ffff16613e4c565b613ea9565b9450613b6e8587613e3090919063ffffffff16565b9550613bb4613ba586601884600481101515613b8657fe5b601091828204019190066002029054906101000a900461ffff16613ec2565b85613e1790919063ffffffff16565b93505b8596505b505050505050919050565b6000806000806000809350613c4760116000601260019054906101000a900473ffffffffffffffffffffffffffffffffffffffff1673ffffffffffffffffffffffffffffffffffffffff1673ffffffffffffffffffffffffffffffffffffffff16815260200190815260200160002054600254613e1790919063ffffffff16565b9250601954613c6184600254613e1790919063ffffffff16565b811515613c6a57fe5b06915060008214613c7b5781613c7f565b6019545b915060008314613cc957613cc4601954613cb6613ca785601954613e1790919063ffffffff16565b86613e1790919063ffffffff16565b61378390919063ffffffff16565b613ccc565b60005b90506003811015613d2157613d1e613d0f60195460186003600481101515613cf057fe5b601091828204019190066002029054906101000a900461ffff16613ec2565b85613e3090919063ffffffff16565b93505b6002811015613d7457613d71613d6260195460186002600481101515613d4357fe5b601091828204019190066002029054906101000a900461ffff16613ec2565b85613e3090919063ffffffff16565b93505b6001811015613dc757613dc4613db560195460186001600481101515613d9657fe5b601091828204019190066002029054906101000a900461ffff16613ec2565b85613e3090919063ffffffff16565b93505b613e0b613dfc83601884600481101515613ddd57fe5b601091828204019190066002029054906101000a900461ffff16613ec2565b85613e3090919063ffffffff16565b93508394505050505090565b6000828211151515613e2557fe5b818303905092915050565b60008183019050828110151515613e4357fe5b80905092915050565b6000613ea1600a54613e93600654613e858661ffff16613e776103e88a61374b90919063ffffffff16565b61378390919063ffffffff16565b61374b90919063ffffffff16565b61378390919063ffffffff16565b905092915050565b6000818310613eb85781613eba565b825b905092915050565b6000613f17600654613f09600a54613efb6103e8613eed8861ffff168a61374b90919063ffffffff16565b61378390919063ffffffff16565b61374b90919063ffffffff16565b61378390919063ffffffff16565b9050929150505600a165627a7a72305820922c8a636eaa5f5e2f53adbd6045b35fbb05f7e280b3d446f8001a62f3f975ae0029",
  "source": "pragma solidity ^0.4.23;\n\nimport \"./FoundationContracts/SecondaryCrowdsaleContract.sol\";\nimport \"./FoundationContracts/Math.sol\";\n\ncontract PRETSD is SecondaryCrowdsaleContract {\n    using Math for uint256;\n\n    string public name = \"PRE TSD COIN\";\n    string public symbol = \"PRETSD\";\n    uint256 public minPurchase = 500000; // 5,000.00 USD in cents\n\n    // tranche discounts\n    uint16[4] tranches = [800, 840, 880, 920];\n\n    // tranche token size\n    uint256 trancheMaxTokenSize;\n\n    constructor(\n        uint256 _ethExchangeRate\n    ) public {\n        // Set the Total Supply\n        totalSupply = 240 * million;\n\n        trancheMaxTokenSize = totalSupply.div(tranches.length);\n\n        tokenFundsWallet = owner;\n\n        // transfer suppy to the funds wallet\n        balances[tokenFundsWallet] = totalSupply;\n        emit Transfer(0x0, tokenFundsWallet, totalSupply);\n\n        // set exchange rate\n        updateTheExchangeRate(_ethExchangeRate);\n\n        startTime = 1533045600000;\n        endTime = 1534860000000;\n        // Token release date 12 month post end date\n        tokensReleaseDate = 1564581600000;\n    }\n\n    // Usage:\n    // Pass in the amount of tokens and the discount rate.\n    // If no discount is required pass in 100 as the rate value.\n    function tokenToEth(uint256 _tokens, uint16 _discountRate) internal view returns(uint256) {\n        //Using previous exchangerate\n        return _tokens.mul(_discountRate).div(1000).mul(exchangeRate).div(decimalMultiplier);\n    }\n\n\n    // Pass in the amount of eth and the discount rate.\n    // If no discount is required pass in 100 as the rate value.\n    function ethToToken(uint256 _eth, uint16 _discountRate) internal view returns(uint256) {\n        //return ((_eth / _rate * 100) * decimalMultiplier).div(exchangeRate);\n        return _eth.mul(1000).div(_discountRate).mul(decimalMultiplier).div(exchangeRate);\n    }\n\n    // Buy functions\n    // This is an un-named fallback function that is set to payable to accept ether.\n    function() payable public {\n        buyTokens();\n    }\n\n    function buyTokens() payable public {\n        uint256 _currentTime = currentTime();\n        uint256 _minPurchaseInWei = minPurchase.mul(decimalMultiplier).div(ethExchangeRate);\n        require(tokensAvailable, \"no more tokens available\");\n        require(_currentTime >= startTime && _currentTime <= endTime, \"current time is not in the purchase window frame\");\n        require(whiteListed[msg.sender], \"user is not whitelisted\");\n        require(msg.value >= _minPurchaseInWei, \"amount sent is below minimum purchase\");\n\n        uint256 ethAmount = msg.value;\n        uint256 tokenAmount = calculateTokenAmountWithDiscounts(ethAmount);\n        uint256 currentEthRaised = totalEthRaised;\n        uint256 ethRefund = 0;\n\n\n        // The tranching algorithm will only ever return a value equal or lower than the remainingTokens.\n        // If the tokenAmount is equal to the remaining tokens we know its the last purchase.\n        if (tokenAmount == balances[tokenFundsWallet]) {\n            // recalculate the amount of eth that can be spent for the remaining tokens.\n            uint256 totalRemainingCostOfTokens = calculateTotalRemainingTokenCost();\n            // determine the refund by subtracting the the new ethamount from what was originally sent in\n            ethRefund = ethAmount.sub(totalRemainingCostOfTokens);\n            ethAmount = ethAmount.sub(ethRefund);\n            // make the token purchase\n            // sub general token amount\n            uint256 remainingTokens = balances[tokenFundsWallet];\n            balances[tokenFundsWallet] = balances[tokenFundsWallet].sub(remainingTokens);\n\n            // adding the buyer to the icoParticipants ONLY if they haven't already bought before\n            if (balances[msg.sender] == 0) {\n                icoParticipants.push(msg.sender);\n            }\n            \n            // sub bonus token amount\n            balances[msg.sender] = balances[msg.sender].add(remainingTokens);\n            emit Transfer(tokenFundsWallet, msg.sender, remainingTokens);\n            \n            // refund\n            if (ethRefund > 0) {\n                msg.sender.transfer(ethRefund);\n            }\n            // transfer ether to funds wallet\n            tokenFundsWallet.transfer(ethAmount);\n            totalEthRaised = totalEthRaised.add(ethAmount);\n            emit EthRaisedUpdated(currentEthRaised, totalEthRaised);\n            // close token sale as tokens are sold out\n            tokensAvailable = false;\n        } else {\n            if (balances[msg.sender] == 0) {\n                icoParticipants.push(msg.sender);\n            }\n            // make the token purchase\n            // sub general token amount\n            balances[tokenFundsWallet] = balances[tokenFundsWallet].sub(tokenAmount);\n            balances[msg.sender] = balances[msg.sender].add(tokenAmount);\n\n            emit Transfer(tokenFundsWallet, msg.sender, tokenAmount);\n\n            // transfer ether to the wallet and emit and event regarding eth raised\n            tokenFundsWallet.transfer(ethAmount);\n            totalEthRaised = totalEthRaised.add(ethAmount);\n            emit EthRaisedUpdated(currentEthRaised, totalEthRaised);\n        }\n    }\n\n    function calculateTotalRemainingTokenCost() internal view returns(uint256) {\n        uint256 totalCost = 0;\n        uint256 sold = totalSupply.sub(balances[tokenFundsWallet]);\n        // Calculate the remaining tranche tokens.\n        uint256 currentTrancheRemainder = totalSupply.sub(sold) % trancheMaxTokenSize;\n        // On the first initialisation we need to set the current tranche to a full tranche;\n        currentTrancheRemainder = currentTrancheRemainder == 0 ? trancheMaxTokenSize : currentTrancheRemainder;\n        // Calculate the current tranche we are in.\n        uint256 currentTranche = sold == 0 ? 0 : sold.sub(trancheMaxTokenSize.sub(currentTrancheRemainder)).div(trancheMaxTokenSize);\n        // Check all tranches to see if they are full.\n        // If they are full. Add the calculated tranche cost to the totalCost.\n        if (currentTranche < 3) {\n            totalCost = totalCost.add(tokenToEth(trancheMaxTokenSize, tranches[3]));\n        }\n        if (currentTranche < 2) {\n            totalCost = totalCost.add(tokenToEth(trancheMaxTokenSize, tranches[2]));\n        }\n        if (currentTranche < 1) {\n            totalCost = totalCost.add(tokenToEth(trancheMaxTokenSize, tranches[1]));\n        }\n        // Add the calculated tranche remainder costs to the totalCost.\n        totalCost = totalCost.add(tokenToEth(currentTrancheRemainder, tranches[currentTranche]));\n        return totalCost;\n    }\n\n    function calculateTokenAmountWithDiscounts(uint256 _ethAmount) internal view returns(uint256) {\n        uint256 returnTokens = 0;\n        uint256 tokensFromTranche = 0;\n        uint256 ethRemaining = _ethAmount;\n        uint256 sold = totalSupply.sub(balances[tokenFundsWallet]);\n\n        // Calculate the remaining tranche tokens.\n        uint256 currentTrancheRemainder = totalSupply.sub(sold) % trancheMaxTokenSize;\n        // On the first initialisation we need to set the current tranche to a full tranche;\n        currentTrancheRemainder = currentTrancheRemainder == 0 ? trancheMaxTokenSize : currentTrancheRemainder;\n        // Calculate the current tranche we are in.\n        uint256 currentTranche = sold == 0 ? 0 : sold.sub(trancheMaxTokenSize.sub(currentTrancheRemainder)).div(trancheMaxTokenSize);\n\n        // Find the first tranche that matches the current tranche.\n        if (0 == currentTranche) {\n            // Find the lowest value tokens of the current tranche.\n            // Either return the total tranche tokens or the the tokens we can purchase with our ether.\n            tokensFromTranche = Math.min256(currentTrancheRemainder, ethToToken(ethRemaining, tranches[currentTranche]));\n            // Add the tokens to our return value.\n            returnTokens = returnTokens.add(tokensFromTranche);\n            // Subtract the ether we've spent on the tokens from the total ether we supplied.\n            ethRemaining = ethRemaining.sub(tokenToEth(tokensFromTranche, tranches[currentTranche]));\n            // Return the tokens if ether has reached 0;\n            if (ethRemaining == 0) return returnTokens;\n            // Otherwise set the next tranche remainder to a full tranche;\n            currentTrancheRemainder = trancheMaxTokenSize;\n            // Move us up one tranche.\n            currentTranche = currentTranche.add(1);\n        }\n        if (1 == currentTranche) {\n            tokensFromTranche = Math.min256(currentTrancheRemainder, ethToToken(ethRemaining, tranches[currentTranche]));\n            returnTokens = returnTokens.add(tokensFromTranche);\n            ethRemaining = ethRemaining.sub(tokenToEth(tokensFromTranche, tranches[currentTranche]));\n            if (ethRemaining == 0) return returnTokens;\n            currentTrancheRemainder = trancheMaxTokenSize;\n            currentTranche = currentTranche.add(1);\n        }\n        if (2 == currentTranche) {\n            tokensFromTranche = Math.min256(currentTrancheRemainder, ethToToken(ethRemaining, tranches[currentTranche]));\n            returnTokens = returnTokens.add(tokensFromTranche);\n            ethRemaining = ethRemaining.sub(tokenToEth(tokensFromTranche, tranches[currentTranche]));\n            if (ethRemaining == 0) return returnTokens;\n            currentTrancheRemainder = trancheMaxTokenSize;\n            currentTranche = currentTranche.add(1);\n        }\n        if (3 == currentTranche) {\n            tokensFromTranche = Math.min256(currentTrancheRemainder, ethToToken(ethRemaining, tranches[currentTranche]));\n            returnTokens = returnTokens.add(tokensFromTranche);\n            ethRemaining = ethRemaining.sub(tokenToEth(tokensFromTranche, tranches[currentTranche]));\n        }\n        return returnTokens;\n    }\n}\n",
  "sourcePath": "/Users/venkateshnamburi/Desktop/521 2/Projects/Transcendence/tsd_contracts/contracts/PRETSD.sol",
  "compiler": {
    "name": "solc",
    "version": "0.4.24+commit.e67f0147.Emscripten.clang"
  },
  "schemaVersion": "2.0.0",
  "updatedAt": "2018-11-06T11:09:20.224Z"
}