{
  "contractName": "PRETSD",
  "abi": [
    {
      "constant": true,
      "inputs": [],
      "name": "name",
      "outputs": [
        {
          "name": "",
          "type": "string"
        }
      ],
      "payable": false,
      "stateMutability": "view",
      "type": "function"
    },
    {
      "constant": false,
      "inputs": [
        {
          "name": "_spender",
          "type": "address"
        },
        {
          "name": "_value",
          "type": "uint256"
        }
      ],
      "name": "approve",
      "outputs": [
        {
          "name": "",
          "type": "bool"
        }
      ],
      "payable": false,
      "stateMutability": "nonpayable",
      "type": "function"
    },
    {
      "constant": true,
      "inputs": [],
      "name": "totalSupply",
      "outputs": [
        {
          "name": "",
          "type": "uint256"
        }
      ],
      "payable": false,
      "stateMutability": "view",
      "type": "function"
    },
    {
      "constant": true,
      "inputs": [],
      "name": "preSaleBonusWallet",
      "outputs": [
        {
          "name": "",
          "type": "address"
        }
      ],
      "payable": false,
      "stateMutability": "view",
      "type": "function"
    },
    {
      "constant": false,
      "inputs": [
        {
          "name": "_from",
          "type": "address"
        },
        {
          "name": "_to",
          "type": "address"
        },
        {
          "name": "_value",
          "type": "uint256"
        }
      ],
      "name": "transferFrom",
      "outputs": [
        {
          "name": "",
          "type": "bool"
        }
      ],
      "payable": false,
      "stateMutability": "nonpayable",
      "type": "function"
    },
    {
      "constant": true,
      "inputs": [],
      "name": "decimalMultiplier",
      "outputs": [
        {
          "name": "",
          "type": "uint256"
        }
      ],
      "payable": false,
      "stateMutability": "view",
      "type": "function"
    },
    {
      "constant": true,
      "inputs": [],
      "name": "decimals",
      "outputs": [
        {
          "name": "",
          "type": "uint256"
        }
      ],
      "payable": false,
      "stateMutability": "view",
      "type": "function"
    },
    {
      "constant": true,
      "inputs": [],
      "name": "endTime",
      "outputs": [
        {
          "name": "",
          "type": "uint256"
        }
      ],
      "payable": false,
      "stateMutability": "view",
      "type": "function"
    },
    {
      "constant": true,
      "inputs": [],
      "name": "minPurchase",
      "outputs": [
        {
          "name": "",
          "type": "uint256"
        }
      ],
      "payable": false,
      "stateMutability": "view",
      "type": "function"
    },
    {
      "constant": true,
      "inputs": [],
      "name": "exchangeRate",
      "outputs": [
        {
          "name": "",
          "type": "uint256"
        }
      ],
      "payable": false,
      "stateMutability": "view",
      "type": "function"
    },
    {
      "constant": true,
      "inputs": [],
      "name": "TSDContractAddress",
      "outputs": [
        {
          "name": "",
          "type": "address"
        }
      ],
      "payable": false,
      "stateMutability": "view",
      "type": "function"
    },
    {
      "constant": true,
      "inputs": [],
      "name": "million",
      "outputs": [
        {
          "name": "",
          "type": "uint256"
        }
      ],
      "payable": false,
      "stateMutability": "view",
      "type": "function"
    },
    {
      "constant": false,
      "inputs": [
        {
          "name": "_spender",
          "type": "address"
        },
        {
          "name": "_subtractedValue",
          "type": "uint256"
        }
      ],
      "name": "decreaseApproval",
      "outputs": [
        {
          "name": "",
          "type": "bool"
        }
      ],
      "payable": false,
      "stateMutability": "nonpayable",
      "type": "function"
    },
    {
      "constant": true,
      "inputs": [
        {
          "name": "_owner",
          "type": "address"
        }
      ],
      "name": "balanceOf",
      "outputs": [
        {
          "name": "",
          "type": "uint256"
        }
      ],
      "payable": false,
      "stateMutability": "view",
      "type": "function"
    },
    {
      "constant": false,
      "inputs": [],
      "name": "renounceOwnership",
      "outputs": [],
      "payable": false,
      "stateMutability": "nonpayable",
      "type": "function"
    },
    {
      "constant": true,
      "inputs": [],
      "name": "startTime",
      "outputs": [
        {
          "name": "",
          "type": "uint256"
        }
      ],
      "payable": false,
      "stateMutability": "view",
      "type": "function"
    },
    {
      "constant": true,
      "inputs": [],
      "name": "owner",
      "outputs": [
        {
          "name": "",
          "type": "address"
        }
      ],
      "payable": false,
      "stateMutability": "view",
      "type": "function"
    },
    {
      "constant": true,
      "inputs": [],
      "name": "preFundsWallet",
      "outputs": [
        {
          "name": "",
          "type": "address"
        }
      ],
      "payable": false,
      "stateMutability": "view",
      "type": "function"
    },
    {
      "constant": true,
      "inputs": [],
      "name": "icoOpen",
      "outputs": [
        {
          "name": "",
          "type": "bool"
        }
      ],
      "payable": false,
      "stateMutability": "view",
      "type": "function"
    },
    {
      "constant": true,
      "inputs": [],
      "name": "symbol",
      "outputs": [
        {
          "name": "",
          "type": "string"
        }
      ],
      "payable": false,
      "stateMutability": "view",
      "type": "function"
    },
    {
      "constant": true,
      "inputs": [
        {
          "name": "",
          "type": "uint256"
        }
      ],
      "name": "icoParticipants",
      "outputs": [
        {
          "name": "",
          "type": "address"
        }
      ],
      "payable": false,
      "stateMutability": "view",
      "type": "function"
    },
    {
      "constant": false,
      "inputs": [
        {
          "name": "_to",
          "type": "address"
        },
        {
          "name": "_value",
          "type": "uint256"
        }
      ],
      "name": "transfer",
      "outputs": [
        {
          "name": "",
          "type": "bool"
        }
      ],
      "payable": false,
      "stateMutability": "nonpayable",
      "type": "function"
    },
    {
      "constant": true,
      "inputs": [],
      "name": "tokensReleaseDate",
      "outputs": [
        {
          "name": "",
          "type": "uint256"
        }
      ],
      "payable": false,
      "stateMutability": "view",
      "type": "function"
    },
    {
      "constant": true,
      "inputs": [],
      "name": "totalEthRaised",
      "outputs": [
        {
          "name": "",
          "type": "uint256"
        }
      ],
      "payable": false,
      "stateMutability": "view",
      "type": "function"
    },
    {
      "constant": false,
      "inputs": [
        {
          "name": "_spender",
          "type": "address"
        },
        {
          "name": "_addedValue",
          "type": "uint256"
        }
      ],
      "name": "increaseApproval",
      "outputs": [
        {
          "name": "",
          "type": "bool"
        }
      ],
      "payable": false,
      "stateMutability": "nonpayable",
      "type": "function"
    },
    {
      "constant": true,
      "inputs": [
        {
          "name": "_owner",
          "type": "address"
        },
        {
          "name": "_spender",
          "type": "address"
        }
      ],
      "name": "allowance",
      "outputs": [
        {
          "name": "",
          "type": "uint256"
        }
      ],
      "payable": false,
      "stateMutability": "view",
      "type": "function"
    },
    {
      "constant": false,
      "inputs": [
        {
          "name": "newOwner",
          "type": "address"
        }
      ],
      "name": "transferOwnership",
      "outputs": [],
      "payable": false,
      "stateMutability": "nonpayable",
      "type": "function"
    },
    {
      "constant": true,
      "inputs": [
        {
          "name": "",
          "type": "address"
        }
      ],
      "name": "whiteListed",
      "outputs": [
        {
          "name": "",
          "type": "bool"
        }
      ],
      "payable": false,
      "stateMutability": "view",
      "type": "function"
    },
    {
      "inputs": [
        {
          "name": "_exchangeRate",
          "type": "uint256"
        },
        {
          "name": "_whitelistAddresses",
          "type": "address[]"
        }
      ],
      "payable": false,
      "stateMutability": "nonpayable",
      "type": "constructor"
    },
    {
      "payable": true,
      "stateMutability": "payable",
      "type": "fallback"
    },
    {
      "anonymous": false,
      "inputs": [
        {
          "indexed": false,
          "name": "oldEthRaisedVal",
          "type": "uint256"
        },
        {
          "indexed": false,
          "name": "newEthRaisedVal",
          "type": "uint256"
        }
      ],
      "name": "EthRaisedUpdated",
      "type": "event"
    },
    {
      "anonymous": false,
      "inputs": [
        {
          "indexed": false,
          "name": "prevExchangeRate",
          "type": "uint256"
        },
        {
          "indexed": false,
          "name": "newExchangeRate",
          "type": "uint256"
        }
      ],
      "name": "ExhangeRateUpdated",
      "type": "event"
    },
    {
      "anonymous": false,
      "inputs": [
        {
          "indexed": false,
          "name": "_presd",
          "type": "address"
        },
        {
          "indexed": false,
          "name": "_tsd",
          "type": "address"
        }
      ],
      "name": "DistributedAllBalancesToTSDContract",
      "type": "event"
    },
    {
      "anonymous": false,
      "inputs": [
        {
          "indexed": false,
          "name": "nameOfValue",
          "type": "string"
        },
        {
          "indexed": false,
          "name": "amount",
          "type": "uint256"
        }
      ],
      "name": "DebuggingAmounts",
      "type": "event"
    },
    {
      "anonymous": false,
      "inputs": [
        {
          "indexed": true,
          "name": "previousOwner",
          "type": "address"
        }
      ],
      "name": "OwnershipRenounced",
      "type": "event"
    },
    {
      "anonymous": false,
      "inputs": [
        {
          "indexed": true,
          "name": "previousOwner",
          "type": "address"
        },
        {
          "indexed": true,
          "name": "newOwner",
          "type": "address"
        }
      ],
      "name": "OwnershipTransferred",
      "type": "event"
    },
    {
      "anonymous": false,
      "inputs": [
        {
          "indexed": true,
          "name": "owner",
          "type": "address"
        },
        {
          "indexed": true,
          "name": "spender",
          "type": "address"
        },
        {
          "indexed": false,
          "name": "value",
          "type": "uint256"
        }
      ],
      "name": "Approval",
      "type": "event"
    },
    {
      "anonymous": false,
      "inputs": [
        {
          "indexed": false,
          "name": "from",
          "type": "address"
        },
        {
          "indexed": false,
          "name": "to",
          "type": "address"
        },
        {
          "indexed": false,
          "name": "value",
          "type": "uint256"
        }
      ],
      "name": "Transfer",
      "type": "event"
    },
    {
      "anonymous": false,
      "inputs": [
        {
          "indexed": false,
          "name": "variable",
          "type": "string"
        },
        {
          "indexed": false,
          "name": "value",
          "type": "uint256"
        }
      ],
      "name": "DebuggingAmts",
      "type": "event"
    },
    {
      "anonymous": false,
      "inputs": [
        {
          "indexed": false,
          "name": "variable",
          "type": "string"
        }
      ],
      "name": "DebuggingStrings",
      "type": "event"
    },
    {
      "anonymous": false,
      "inputs": [
        {
          "indexed": false,
          "name": "variable",
          "type": "string"
        },
        {
          "indexed": false,
          "name": "value",
          "type": "address"
        }
      ],
      "name": "DebuggingAddresses",
      "type": "event"
    },
    {
      "constant": true,
      "inputs": [],
      "name": "currentTime",
      "outputs": [
        {
          "name": "",
          "type": "uint256"
        }
      ],
      "payable": false,
      "stateMutability": "view",
      "type": "function"
    },
    {
      "constant": false,
      "inputs": [
        {
          "name": "_addresses",
          "type": "address[]"
        }
      ],
      "name": "createWhiteListedMapping",
      "outputs": [],
      "payable": false,
      "stateMutability": "nonpayable",
      "type": "function"
    },
    {
      "constant": false,
      "inputs": [
        {
          "name": "_newRate",
          "type": "uint256"
        }
      ],
      "name": "updateTheExchangeRate",
      "outputs": [
        {
          "name": "",
          "type": "bool"
        }
      ],
      "payable": false,
      "stateMutability": "nonpayable",
      "type": "function"
    },
    {
      "constant": true,
      "inputs": [
        {
          "name": "_address",
          "type": "address"
        }
      ],
      "name": "isWhiteListed",
      "outputs": [
        {
          "name": "",
          "type": "bool"
        }
      ],
      "payable": false,
      "stateMutability": "view",
      "type": "function"
    },
    {
      "constant": false,
      "inputs": [],
      "name": "buyTokens",
      "outputs": [],
      "payable": true,
      "stateMutability": "payable",
      "type": "function"
    },
    {
      "constant": true,
      "inputs": [],
      "name": "calculateTotalRemainingTokenCost",
      "outputs": [
        {
          "name": "",
          "type": "uint256"
        }
      ],
      "payable": false,
      "stateMutability": "view",
      "type": "function"
    },
    {
      "constant": false,
      "inputs": [
        {
          "name": "_t",
          "type": "address"
        }
      ],
      "name": "setMainContractAddress",
      "outputs": [],
      "payable": false,
      "stateMutability": "nonpayable",
      "type": "function"
    },
    {
      "constant": false,
      "inputs": [],
      "name": "burnRemainingTokens",
      "outputs": [
        {
          "name": "",
          "type": "bool"
        }
      ],
      "payable": false,
      "stateMutability": "nonpayable",
      "type": "function"
    },
    {
      "constant": false,
      "inputs": [],
      "name": "distrubuteTokens",
      "outputs": [],
      "payable": false,
      "stateMutability": "nonpayable",
      "type": "function"
    }
  ],
  "bytecode": "0x60806040526040805190810160405280600c81526020017f5052452054534420434f494e00000000000000000000000000000000000000008152506005908051906020019062000051929190620005a5565b506040805190810160405280600681526020017f5052455453440000000000000000000000000000000000000000000000000000815250600690805190602001906200009f929190620005a5565b506012600755600754600a0a600855600854620f42400260095560095460a502600a55674563918244f40000600b556000600d55650164f0a36f00600e556501655cc8fb00600f5565016c48549b00601055608060405190810160405280605060ff168152602001605560ff168152602001605a60ff168152602001605f60ff168152506015906004620001359291906200062c565b506004600a548115156200014557fe5b046016556001601760006101000a81548160ff0219169083151502179055503480156200017157600080fd5b506040516200422838038062004228833981018060405281019080805190602001909291908051820192919050505033600260006101000a81548173ffffffffffffffffffffffffffffffffffffffff021916908373ffffffffffffffffffffffffffffffffffffffff160217905550600260009054906101000a900473ffffffffffffffffffffffffffffffffffffffff16601160006101000a81548173ffffffffffffffffffffffffffffffffffffffff021916908373ffffffffffffffffffffffffffffffffffffffff160217905550600a5460016000601160009054906101000a900473ffffffffffffffffffffffffffffffffffffffff1673ffffffffffffffffffffffffffffffffffffffff1673ffffffffffffffffffffffffffffffffffffffff168152602001908152602001600020819055507fddf252ad1be2c89b69c2b068fc378daa952ba7f163c4a11628f55a4df523b3ef6000601160009054906101000a900473ffffffffffffffffffffffffffffffffffffffff16600a54604051808473ffffffffffffffffffffffffffffffffffffffff1681526020018373ffffffffffffffffffffffffffffffffffffffff1673ffffffffffffffffffffffffffffffffffffffff168152602001828152602001935050505060405180910390a1620003748162000397640100000000026401000000009004565b6200038e8262000487640100000000026401000000009004565b50505062000728565b6000600260009054906101000a900473ffffffffffffffffffffffffffffffffffffffff1673ffffffffffffffffffffffffffffffffffffffff163373ffffffffffffffffffffffffffffffffffffffff16141515620003f657600080fd5b600090505b8151811015620004835760016014600084848151811015156200041a57fe5b9060200190602002015173ffffffffffffffffffffffffffffffffffffffff1673ffffffffffffffffffffffffffffffffffffffff16815260200190815260200160002060006101000a81548160ff0219169083151502179055508080600101915050620003fb565b5050565b6000806000600260009054906101000a900473ffffffffffffffffffffffffffffffffffffffff1673ffffffffffffffffffffffffffffffffffffffff163373ffffffffffffffffffffffffffffffffffffffff16141515620004e957600080fd5b600c54915064e8d4a5100090506200051984826200056964010000000002620039f5179091906401000000009004565b600c819055507f9a4a0b4ec1a5f7ce40f0bbb5afddc8a88ed1279508f5d92b5056dcffdff438d98285604051808381526020018281526020019250505060405180910390a1600192505050919050565b6000808314156200057e57600090506200059f565b81830290508183828115156200059057fe5b041415156200059b57fe5b8090505b92915050565b828054600181600116156101000203166002900490600052602060002090601f016020900481019282601f10620005e857805160ff191683800117855562000619565b8280016001018555821562000619579182015b8281111562000618578251825591602001919060010190620005fb565b5b509050620006289190620006cd565b5090565b826004601f01602090048101928215620006ba5791602002820160005b838211156200068957835183826101000a81548160ff021916908360ff160217905550926020019260010160208160000104928301926001030262000649565b8015620006b85782816101000a81549060ff021916905560010160208160000104928301926001030262000689565b505b509050620006c99190620006f5565b5090565b620006f291905b80821115620006ee576000816000905550600101620006d4565b5090565b90565b6200072591905b808211156200072157600081816101000a81549060ff021916905550600101620006fc565b5090565b90565b613af080620007386000396000f3006080604052600436106101cd576000357c0100000000000000000000000000000000000000000000000000000000900463ffffffff16806306fdde03146101d7578063095ea7b31461026757806318160ddd146102cc5780631abacfc8146102f757806323b872dd1461034e5780633082538f146103d3578063313ce567146103fe5780633197cbb61461042957806333b5b62e146104545780633ba0b9a91461047f5780634a54839d146104aa5780634e9c6b1f14610501578063661884631461052c5780636f9170f61461059157806370a08231146105ec578063715018a61461064357806378e979251461065a57806383408d73146106855780638da5cb5b146106b457806391974d8e1461070b578063927a90da1461076257806395d89b4114610791578063a229c61414610821578063a256ea3a14610866578063a5e5cdba146108d3578063a9059cbb146108fe578063afe07f5914610963578063b48544131461098e578063b9cdd19b146109a5578063c9e904be14610a0b578063d0febe4c14610a36578063d18e81b314610a40578063d73dd62314610a6b578063dd62ed3e14610ad0578063ec9da59e14610b47578063f2fde38b14610b8a578063fa0fca8414610bcd575b6101d5610c28565b005b3480156101e357600080fd5b506101ec611528565b6040518080602001828103825283818151815260200191508051906020019080838360005b8381101561022c578082015181840152602081019050610211565b50505050905090810190601f1680156102595780820380516001836020036101000a031916815260200191505b509250505060405180910390f35b34801561027357600080fd5b506102b2600480360381019080803573ffffffffffffffffffffffffffffffffffffffff169060200190929190803590602001909291905050506115c6565b604051808215151515815260200191505060405180910390f35b3480156102d857600080fd5b506102e16116b7565b6040518082815260200191505060405180910390f35b34801561030357600080fd5b5061030c6116bd565b604051808273ffffffffffffffffffffffffffffffffffffffff1673ffffffffffffffffffffffffffffffffffffffff16815260200191505060405180910390f35b34801561035a57600080fd5b506103b9600480360381019080803573ffffffffffffffffffffffffffffffffffffffff169060200190929190803573ffffffffffffffffffffffffffffffffffffffff169060200190929190803590602001909291905050506116e3565b604051808215151515815260200191505060405180910390f35b3480156103df57600080fd5b506103e8611ad9565b6040518082815260200191505060405180910390f35b34801561040a57600080fd5b50610413611adf565b6040518082815260200191505060405180910390f35b34801561043557600080fd5b5061043e611ae5565b6040518082815260200191505060405180910390f35b34801561046057600080fd5b50610469611aeb565b6040518082815260200191505060405180910390f35b34801561048b57600080fd5b50610494611af1565b6040518082815260200191505060405180910390f35b3480156104b657600080fd5b506104bf611af7565b604051808273ffffffffffffffffffffffffffffffffffffffff1673ffffffffffffffffffffffffffffffffffffffff16815260200191505060405180910390f35b34801561050d57600080fd5b50610516611b1d565b6040518082815260200191505060405180910390f35b34801561053857600080fd5b50610577600480360381019080803573ffffffffffffffffffffffffffffffffffffffff16906020019092919080359060200190929190505050611b23565b604051808215151515815260200191505060405180910390f35b34801561059d57600080fd5b506105d2600480360381019080803573ffffffffffffffffffffffffffffffffffffffff169060200190929190505050611db0565b604051808215151515815260200191505060405180910390f35b3480156105f857600080fd5b5061062d600480360381019080803573ffffffffffffffffffffffffffffffffffffffff169060200190929190505050611e17565b6040518082815260200191505060405180910390f35b34801561064f57600080fd5b50610658611e60565b005b34801561066657600080fd5b5061066f611f65565b6040518082815260200191505060405180910390f35b34801561069157600080fd5b5061069a611f6b565b604051808215151515815260200191505060405180910390f35b3480156106c057600080fd5b506106c96120ba565b604051808273ffffffffffffffffffffffffffffffffffffffff1673ffffffffffffffffffffffffffffffffffffffff16815260200191505060405180910390f35b34801561071757600080fd5b506107206120e0565b604051808273ffffffffffffffffffffffffffffffffffffffff1673ffffffffffffffffffffffffffffffffffffffff16815260200191505060405180910390f35b34801561076e57600080fd5b50610777612106565b604051808215151515815260200191505060405180910390f35b34801561079d57600080fd5b506107a6612119565b6040518080602001828103825283818151815260200191508051906020019080838360005b838110156107e65780820151818401526020810190506107cb565b50505050905090810190601f1680156108135780820380516001836020036101000a031916815260200191505b509250505060405180910390f35b34801561082d57600080fd5b5061084c600480360381019080803590602001909291905050506121b7565b604051808215151515815260200191505060405180910390f35b34801561087257600080fd5b5061089160048036038101908080359060200190929190505050612288565b604051808273ffffffffffffffffffffffffffffffffffffffff1673ffffffffffffffffffffffffffffffffffffffff16815260200191505060405180910390f35b3480156108df57600080fd5b506108e86122c6565b6040518082815260200191505060405180910390f35b34801561090a57600080fd5b50610949600480360381019080803573ffffffffffffffffffffffffffffffffffffffff1690602001909291908035906020019092919050505061247c565b604051808215151515815260200191505060405180910390f35b34801561096f57600080fd5b506109786126da565b6040518082815260200191505060405180910390f35b34801561099a57600080fd5b506109a36126e0565b005b3480156109b157600080fd5b50610a09600480360381019080803590602001908201803590602001908080602002602001604051908101604052809392919081815260200183836020028082843782019150505050505091929192905050506130d2565b005b348015610a1757600080fd5b50610a206131be565b6040518082815260200191505060405180910390f35b610a3e610c28565b005b348015610a4c57600080fd5b50610a556131c4565b6040518082815260200191505060405180910390f35b348015610a7757600080fd5b50610ab6600480360381019080803573ffffffffffffffffffffffffffffffffffffffff169060200190929190803590602001909291905050506131d0565b604051808215151515815260200191505060405180910390f35b348015610adc57600080fd5b50610b31600480360381019080803573ffffffffffffffffffffffffffffffffffffffff169060200190929190803573ffffffffffffffffffffffffffffffffffffffff1690602001909291905050506133c9565b6040518082815260200191505060405180910390f35b348015610b5357600080fd5b50610b88600480360381019080803573ffffffffffffffffffffffffffffffffffffffff16906020019092919050505061344f565b005b348015610b9657600080fd5b50610bcb600480360381019080803573ffffffffffffffffffffffffffffffffffffffff169060200190929190505050613530565b005b348015610bd957600080fd5b50610c0e600480360381019080803573ffffffffffffffffffffffffffffffffffffffff169060200190929190505050613688565b604051808215151515815260200191505060405180910390f35b600080600080600080601760009054906101000a900460ff161515610c4c57600080fd5b600e54610c576131c4565b10158015610c6e5750600f54610c6b6131c4565b11155b1515610c7957600080fd5b601460003373ffffffffffffffffffffffffffffffffffffffff1673ffffffffffffffffffffffffffffffffffffffff16815260200190815260200160002060009054906101000a900460ff161515610cd157600080fd5b600b543410151515610ce257600080fd5b349550610cee866136a8565b9450600d5493506000925060016000601160009054906101000a900473ffffffffffffffffffffffffffffffffffffffff1673ffffffffffffffffffffffffffffffffffffffff1673ffffffffffffffffffffffffffffffffffffffff168152602001908152602001600020548514156111c557610d6a6122c6565b9150610d7f82346139c090919063ffffffff16565b9250610d9483876139c090919063ffffffff16565b955060016000601160009054906101000a900473ffffffffffffffffffffffffffffffffffffffff1673ffffffffffffffffffffffffffffffffffffffff1673ffffffffffffffffffffffffffffffffffffffff168152602001908152602001600020549050610e6e8160016000601160009054906101000a900473ffffffffffffffffffffffffffffffffffffffff1673ffffffffffffffffffffffffffffffffffffffff1673ffffffffffffffffffffffffffffffffffffffff168152602001908152602001600020546139c090919063ffffffff16565b60016000601160009054906101000a900473ffffffffffffffffffffffffffffffffffffffff1673ffffffffffffffffffffffffffffffffffffffff1673ffffffffffffffffffffffffffffffffffffffff16815260200190815260200160002081905550610f2581600160003373ffffffffffffffffffffffffffffffffffffffff1673ffffffffffffffffffffffffffffffffffffffff168152602001908152602001600020546139d990919063ffffffff16565b600160003373ffffffffffffffffffffffffffffffffffffffff1673ffffffffffffffffffffffffffffffffffffffff168152602001908152602001600020819055507fddf252ad1be2c89b69c2b068fc378daa952ba7f163c4a11628f55a4df523b3ef601160009054906101000a900473ffffffffffffffffffffffffffffffffffffffff163383604051808473ffffffffffffffffffffffffffffffffffffffff1673ffffffffffffffffffffffffffffffffffffffff1681526020018373ffffffffffffffffffffffffffffffffffffffff1673ffffffffffffffffffffffffffffffffffffffff168152602001828152602001935050505060405180910390a160133390806001815401808255809150509060018203906000526020600020016000909192909190916101000a81548173ffffffffffffffffffffffffffffffffffffffff021916908373ffffffffffffffffffffffffffffffffffffffff1602179055505060008311156110e0573373ffffffffffffffffffffffffffffffffffffffff166108fc849081150290604051600060405180830381858888f193505050501580156110de573d6000803e3d6000fd5b505b601160009054906101000a900473ffffffffffffffffffffffffffffffffffffffff1673ffffffffffffffffffffffffffffffffffffffff166108fc879081150290604051600060405180830381858888f19350505050158015611148573d6000803e3d6000fd5b5061115e86600d546139d990919063ffffffff16565b600d819055507f4014ce514c76bad08328a2a6046bac14007f7aad2c56c84c66acf8ca1c64bee884600d54604051808381526020018281526020019250505060405180910390a16000601760006101000a81548160ff021916908315150217905550611520565b6112398560016000601160009054906101000a900473ffffffffffffffffffffffffffffffffffffffff1673ffffffffffffffffffffffffffffffffffffffff1673ffffffffffffffffffffffffffffffffffffffff168152602001908152602001600020546139c090919063ffffffff16565b60016000601160009054906101000a900473ffffffffffffffffffffffffffffffffffffffff1673ffffffffffffffffffffffffffffffffffffffff1673ffffffffffffffffffffffffffffffffffffffff168152602001908152602001600020819055506112f085600160003373ffffffffffffffffffffffffffffffffffffffff1673ffffffffffffffffffffffffffffffffffffffff168152602001908152602001600020546139d990919063ffffffff16565b600160003373ffffffffffffffffffffffffffffffffffffffff1673ffffffffffffffffffffffffffffffffffffffff1681526020019081526020016000208190555060133390806001815401808255809150509060018203906000526020600020016000909192909190916101000a81548173ffffffffffffffffffffffffffffffffffffffff021916908373ffffffffffffffffffffffffffffffffffffffff160217905550507fddf252ad1be2c89b69c2b068fc378daa952ba7f163c4a11628f55a4df523b3ef601160009054906101000a900473ffffffffffffffffffffffffffffffffffffffff163387604051808473ffffffffffffffffffffffffffffffffffffffff1673ffffffffffffffffffffffffffffffffffffffff1681526020018373ffffffffffffffffffffffffffffffffffffffff1673ffffffffffffffffffffffffffffffffffffffff168152602001828152602001935050505060405180910390a1601160009054906101000a900473ffffffffffffffffffffffffffffffffffffffff1673ffffffffffffffffffffffffffffffffffffffff166108fc879081150290604051600060405180830381858888f193505050501580156114c2573d6000803e3d6000fd5b506114d886600d546139d990919063ffffffff16565b600d819055507f4014ce514c76bad08328a2a6046bac14007f7aad2c56c84c66acf8ca1c64bee884600d54604051808381526020018281526020019250505060405180910390a15b505050505050565b60058054600181600116156101000203166002900480601f0160208091040260200160405190810160405280929190818152602001828054600181600116156101000203166002900480156115be5780601f10611593576101008083540402835291602001916115be565b820191906000526020600020905b8154815290600101906020018083116115a157829003601f168201915b505050505081565b6000816000803373ffffffffffffffffffffffffffffffffffffffff1673ffffffffffffffffffffffffffffffffffffffff16815260200190815260200160002060008573ffffffffffffffffffffffffffffffffffffffff1673ffffffffffffffffffffffffffffffffffffffff168152602001908152602001600020819055508273ffffffffffffffffffffffffffffffffffffffff163373ffffffffffffffffffffffffffffffffffffffff167f8c5be1e5ebec7d5bd14f71427d1e84f3dd0314c0f7b2291e5b200ac8c7c3b925846040518082815260200191505060405180910390a36001905092915050565b600a5481565b601260009054906101000a900473ffffffffffffffffffffffffffffffffffffffff1681565b60008073ffffffffffffffffffffffffffffffffffffffff168373ffffffffffffffffffffffffffffffffffffffff161415151561172057600080fd5b600160008573ffffffffffffffffffffffffffffffffffffffff1673ffffffffffffffffffffffffffffffffffffffff16815260200190815260200160002054821115151561176e57600080fd5b6000808573ffffffffffffffffffffffffffffffffffffffff1673ffffffffffffffffffffffffffffffffffffffff16815260200190815260200160002060003373ffffffffffffffffffffffffffffffffffffffff1673ffffffffffffffffffffffffffffffffffffffff1681526020019081526020016000205482111515156117f857600080fd5b61184a82600160008773ffffffffffffffffffffffffffffffffffffffff1673ffffffffffffffffffffffffffffffffffffffff168152602001908152602001600020546139c090919063ffffffff16565b600160008673ffffffffffffffffffffffffffffffffffffffff1673ffffffffffffffffffffffffffffffffffffffff168152602001908152602001600020819055506118df82600160008673ffffffffffffffffffffffffffffffffffffffff1673ffffffffffffffffffffffffffffffffffffffff168152602001908152602001600020546139d990919063ffffffff16565b600160008573ffffffffffffffffffffffffffffffffffffffff1673ffffffffffffffffffffffffffffffffffffffff168152602001908152602001600020819055506119b0826000808773ffffffffffffffffffffffffffffffffffffffff1673ffffffffffffffffffffffffffffffffffffffff16815260200190815260200160002060003373ffffffffffffffffffffffffffffffffffffffff1673ffffffffffffffffffffffffffffffffffffffff168152602001908152602001600020546139c090919063ffffffff16565b6000808673ffffffffffffffffffffffffffffffffffffffff1673ffffffffffffffffffffffffffffffffffffffff16815260200190815260200160002060003373ffffffffffffffffffffffffffffffffffffffff1673ffffffffffffffffffffffffffffffffffffffff168152602001908152602001600020819055507fddf252ad1be2c89b69c2b068fc378daa952ba7f163c4a11628f55a4df523b3ef848484604051808473ffffffffffffffffffffffffffffffffffffffff1673ffffffffffffffffffffffffffffffffffffffff1681526020018373ffffffffffffffffffffffffffffffffffffffff1673ffffffffffffffffffffffffffffffffffffffff168152602001828152602001935050505060405180910390a1600190509392505050565b60085481565b60075481565b600f5481565b600b5481565b600c5481565b600460009054906101000a900473ffffffffffffffffffffffffffffffffffffffff1681565b60095481565b6000806000803373ffffffffffffffffffffffffffffffffffffffff1673ffffffffffffffffffffffffffffffffffffffff16815260200190815260200160002060008573ffffffffffffffffffffffffffffffffffffffff1673ffffffffffffffffffffffffffffffffffffffff16815260200190815260200160002054905080831115611c325760008060003373ffffffffffffffffffffffffffffffffffffffff1673ffffffffffffffffffffffffffffffffffffffff16815260200190815260200160002060008673ffffffffffffffffffffffffffffffffffffffff1673ffffffffffffffffffffffffffffffffffffffff16815260200190815260200160002081905550611cc5565b611c4583826139c090919063ffffffff16565b6000803373ffffffffffffffffffffffffffffffffffffffff1673ffffffffffffffffffffffffffffffffffffffff16815260200190815260200160002060008673ffffffffffffffffffffffffffffffffffffffff1673ffffffffffffffffffffffffffffffffffffffff168152602001908152602001600020819055505b8373ffffffffffffffffffffffffffffffffffffffff163373ffffffffffffffffffffffffffffffffffffffff167f8c5be1e5ebec7d5bd14f71427d1e84f3dd0314c0f7b2291e5b200ac8c7c3b9256000803373ffffffffffffffffffffffffffffffffffffffff1673ffffffffffffffffffffffffffffffffffffffff16815260200190815260200160002060008873ffffffffffffffffffffffffffffffffffffffff1673ffffffffffffffffffffffffffffffffffffffff168152602001908152602001600020546040518082815260200191505060405180910390a3600191505092915050565b6000601460008373ffffffffffffffffffffffffffffffffffffffff1673ffffffffffffffffffffffffffffffffffffffff16815260200190815260200160002060009054906101000a900460ff1615611e0d5760019050611e12565b600090505b919050565b6000600160008373ffffffffffffffffffffffffffffffffffffffff1673ffffffffffffffffffffffffffffffffffffffff168152602001908152602001600020549050919050565b600260009054906101000a900473ffffffffffffffffffffffffffffffffffffffff1673ffffffffffffffffffffffffffffffffffffffff163373ffffffffffffffffffffffffffffffffffffffff16141515611ebc57600080fd5b600260009054906101000a900473ffffffffffffffffffffffffffffffffffffffff1673ffffffffffffffffffffffffffffffffffffffff167ff8df31144d9c2f0f6b59d69b8b98abd5459d07f2742c4df920b25aae33c6482060405160405180910390a26000600260006101000a81548173ffffffffffffffffffffffffffffffffffffffff021916908373ffffffffffffffffffffffffffffffffffffffff160217905550565b600e5481565b6000600260009054906101000a900473ffffffffffffffffffffffffffffffffffffffff1673ffffffffffffffffffffffffffffffffffffffff163373ffffffffffffffffffffffffffffffffffffffff16141515611fc957600080fd5b600f54611fd46131c4565b10151515611fe157600080fd5b600060016000601160009054906101000a900473ffffffffffffffffffffffffffffffffffffffff1673ffffffffffffffffffffffffffffffffffffffff1673ffffffffffffffffffffffffffffffffffffffff1681526020019081526020016000205411156120b357600060016000601160009054906101000a900473ffffffffffffffffffffffffffffffffffffffff1673ffffffffffffffffffffffffffffffffffffffff1673ffffffffffffffffffffffffffffffffffffffff168152602001908152602001600020819055505b6001905090565b600260009054906101000a900473ffffffffffffffffffffffffffffffffffffffff1681565b601160009054906101000a900473ffffffffffffffffffffffffffffffffffffffff1681565b601760009054906101000a900460ff1681565b60068054600181600116156101000203166002900480601f0160208091040260200160405190810160405280929190818152602001828054600181600116156101000203166002900480156121af5780601f10612184576101008083540402835291602001916121af565b820191906000526020600020905b81548152906001019060200180831161219257829003601f168201915b505050505081565b6000806000600260009054906101000a900473ffffffffffffffffffffffffffffffffffffffff1673ffffffffffffffffffffffffffffffffffffffff163373ffffffffffffffffffffffffffffffffffffffff1614151561221857600080fd5b600c54915064e8d4a51000905061223884826139f590919063ffffffff16565b600c819055507f9a4a0b4ec1a5f7ce40f0bbb5afddc8a88ed1279508f5d92b5056dcffdff438d98285604051808381526020018281526020019250505060405180910390a1600192505050919050565b60138181548110151561229757fe5b906000526020600020016000915054906101000a900473ffffffffffffffffffffffffffffffffffffffff1681565b600080600080600080935061234760016000601160009054906101000a900473ffffffffffffffffffffffffffffffffffffffff1673ffffffffffffffffffffffffffffffffffffffff1673ffffffffffffffffffffffffffffffffffffffff16815260200190815260200160002054600a546139c090919063ffffffff16565b925060165483600a540381151561235a57fe5b06915060165482840381151561236c57fe5b0490506000821461237d5781612381565b6016545b915060038110156123c2576123bd601654601560036004811015156123a257fe5b602091828204019190069054906101000a900460ff16613a2d565b840193505b6002811015612401576123fc601654601560026004811015156123e157fe5b602091828204019190069054906101000a900460ff16613a2d565b840193505b60018110156124405761243b6016546015600160048110151561242057fe5b602091828204019190069054906101000a900460ff16613a2d565b840193505b61246e8260158360048110151561245357fe5b602091828204019190069054906101000a900460ff16613a2d565b840193508394505050505090565b60008073ffffffffffffffffffffffffffffffffffffffff168373ffffffffffffffffffffffffffffffffffffffff16141515156124b957600080fd5b600160003373ffffffffffffffffffffffffffffffffffffffff1673ffffffffffffffffffffffffffffffffffffffff16815260200190815260200160002054821115151561250757600080fd5b61255982600160003373ffffffffffffffffffffffffffffffffffffffff1673ffffffffffffffffffffffffffffffffffffffff168152602001908152602001600020546139c090919063ffffffff16565b600160003373ffffffffffffffffffffffffffffffffffffffff1673ffffffffffffffffffffffffffffffffffffffff168152602001908152602001600020819055506125ee82600160008673ffffffffffffffffffffffffffffffffffffffff1673ffffffffffffffffffffffffffffffffffffffff168152602001908152602001600020546139d990919063ffffffff16565b600160008573ffffffffffffffffffffffffffffffffffffffff1673ffffffffffffffffffffffffffffffffffffffff168152602001908152602001600020819055507fddf252ad1be2c89b69c2b068fc378daa952ba7f163c4a11628f55a4df523b3ef338484604051808473ffffffffffffffffffffffffffffffffffffffff1673ffffffffffffffffffffffffffffffffffffffff1681526020018373ffffffffffffffffffffffffffffffffffffffff1673ffffffffffffffffffffffffffffffffffffffff168152602001828152602001935050505060405180910390a16001905092915050565b60105481565b600080600080600260009054906101000a900473ffffffffffffffffffffffffffffffffffffffff1673ffffffffffffffffffffffffffffffffffffffff163373ffffffffffffffffffffffffffffffffffffffff1614151561274257600080fd5b60105461274d6131c4565b1015151561275a57600080fd5b600360009054906101000a900473ffffffffffffffffffffffffffffffffffffffff1673ffffffffffffffffffffffffffffffffffffffff1663dadf17296040518163ffffffff167c0100000000000000000000000000000000000000000000000000000000028152600401602060405180830381600087803b1580156127e057600080fd5b505af11580156127f4573d6000803e3d6000fd5b505050506040513d602081101561280a57600080fd5b81019080805190602001909291905050509350600360009054906101000a900473ffffffffffffffffffffffffffffffffffffffff1673ffffffffffffffffffffffffffffffffffffffff16632194f3a26040518163ffffffff167c0100000000000000000000000000000000000000000000000000000000028152600401602060405180830381600087803b1580156128a357600080fd5b505af11580156128b7573d6000803e3d6000fd5b505050506040513d60208110156128cd57600080fd5b81019080805190602001909291905050509250600091505b6013805490508260ff161015612c4457600360009054906101000a900473ffffffffffffffffffffffffffffffffffffffff1673ffffffffffffffffffffffffffffffffffffffff166323b872dd8560138560ff1681548110151561294657fe5b9060005260206000200160009054906101000a900473ffffffffffffffffffffffffffffffffffffffff166001600060138860ff1681548110151561298757fe5b9060005260206000200160009054906101000a900473ffffffffffffffffffffffffffffffffffffffff1673ffffffffffffffffffffffffffffffffffffffff1673ffffffffffffffffffffffffffffffffffffffff168152602001908152602001600020546040518463ffffffff167c0100000000000000000000000000000000000000000000000000000000028152600401808473ffffffffffffffffffffffffffffffffffffffff1673ffffffffffffffffffffffffffffffffffffffff1681526020018373ffffffffffffffffffffffffffffffffffffffff1673ffffffffffffffffffffffffffffffffffffffff1681526020018281526020019350505050602060405180830381600087803b158015612aa557600080fd5b505af1158015612ab9573d6000803e3d6000fd5b505050506040513d6020811015612acf57600080fd5b8101908080519060200190929190505050507fddf252ad1be2c89b69c2b068fc378daa952ba7f163c4a11628f55a4df523b3ef8460138460ff16815481101515612b1557fe5b9060005260206000200160009054906101000a900473ffffffffffffffffffffffffffffffffffffffff166001600060138760ff16815481101515612b5657fe5b9060005260206000200160009054906101000a900473ffffffffffffffffffffffffffffffffffffffff1673ffffffffffffffffffffffffffffffffffffffff1673ffffffffffffffffffffffffffffffffffffffff16815260200190815260200160002054604051808473ffffffffffffffffffffffffffffffffffffffff1673ffffffffffffffffffffffffffffffffffffffff1681526020018373ffffffffffffffffffffffffffffffffffffffff1673ffffffffffffffffffffffffffffffffffffffff168152602001828152602001935050505060405180910390a181806001019250506128e5565b6000600360009054906101000a900473ffffffffffffffffffffffffffffffffffffffff1673ffffffffffffffffffffffffffffffffffffffff166370a08231866040518263ffffffff167c0100000000000000000000000000000000000000000000000000000000028152600401808273ffffffffffffffffffffffffffffffffffffffff1673ffffffffffffffffffffffffffffffffffffffff168152602001915050602060405180830381600087803b158015612d0357600080fd5b505af1158015612d17573d6000803e3d6000fd5b505050506040513d6020811015612d2d57600080fd5b8101908080519060200190929190505050111561301357600360009054906101000a900473ffffffffffffffffffffffffffffffffffffffff1673ffffffffffffffffffffffffffffffffffffffff166370a08231856040518263ffffffff167c0100000000000000000000000000000000000000000000000000000000028152600401808273ffffffffffffffffffffffffffffffffffffffff1673ffffffffffffffffffffffffffffffffffffffff168152602001915050602060405180830381600087803b158015612e0157600080fd5b505af1158015612e15573d6000803e3d6000fd5b505050506040513d6020811015612e2b57600080fd5b81019080805190602001909291905050509050600360009054906101000a900473ffffffffffffffffffffffffffffffffffffffff1673ffffffffffffffffffffffffffffffffffffffff166323b872dd8585846040518463ffffffff167c0100000000000000000000000000000000000000000000000000000000028152600401808473ffffffffffffffffffffffffffffffffffffffff1673ffffffffffffffffffffffffffffffffffffffff1681526020018373ffffffffffffffffffffffffffffffffffffffff1673ffffffffffffffffffffffffffffffffffffffff1681526020018281526020019350505050602060405180830381600087803b158015612f3757600080fd5b505af1158015612f4b573d6000803e3d6000fd5b505050506040513d6020811015612f6157600080fd5b8101908080519060200190929190505050507fddf252ad1be2c89b69c2b068fc378daa952ba7f163c4a11628f55a4df523b3ef848483604051808473ffffffffffffffffffffffffffffffffffffffff1673ffffffffffffffffffffffffffffffffffffffff1681526020018373ffffffffffffffffffffffffffffffffffffffff1673ffffffffffffffffffffffffffffffffffffffff168152602001828152602001935050505060405180910390a15b7f5fc214609a6cb66e8182b2a4d291dda75b365e02c065872483a7a875e54d7e1830600460009054906101000a900473ffffffffffffffffffffffffffffffffffffffff16604051808373ffffffffffffffffffffffffffffffffffffffff1673ffffffffffffffffffffffffffffffffffffffff1681526020018273ffffffffffffffffffffffffffffffffffffffff1673ffffffffffffffffffffffffffffffffffffffff1681526020019250505060405180910390a150505050565b6000600260009054906101000a900473ffffffffffffffffffffffffffffffffffffffff1673ffffffffffffffffffffffffffffffffffffffff163373ffffffffffffffffffffffffffffffffffffffff1614151561313057600080fd5b600090505b81518110156131ba57600160146000848481518110151561315257fe5b9060200190602002015173ffffffffffffffffffffffffffffffffffffffff1673ffffffffffffffffffffffffffffffffffffffff16815260200190815260200160002060006101000a81548160ff0219169083151502179055508080600101915050613135565b5050565b600d5481565b60006103e84202905090565b6000613260826000803373ffffffffffffffffffffffffffffffffffffffff1673ffffffffffffffffffffffffffffffffffffffff16815260200190815260200160002060008673ffffffffffffffffffffffffffffffffffffffff1673ffffffffffffffffffffffffffffffffffffffff168152602001908152602001600020546139d990919063ffffffff16565b6000803373ffffffffffffffffffffffffffffffffffffffff1673ffffffffffffffffffffffffffffffffffffffff16815260200190815260200160002060008573ffffffffffffffffffffffffffffffffffffffff1673ffffffffffffffffffffffffffffffffffffffff168152602001908152602001600020819055508273ffffffffffffffffffffffffffffffffffffffff163373ffffffffffffffffffffffffffffffffffffffff167f8c5be1e5ebec7d5bd14f71427d1e84f3dd0314c0f7b2291e5b200ac8c7c3b9256000803373ffffffffffffffffffffffffffffffffffffffff1673ffffffffffffffffffffffffffffffffffffffff16815260200190815260200160002060008773ffffffffffffffffffffffffffffffffffffffff1673ffffffffffffffffffffffffffffffffffffffff168152602001908152602001600020546040518082815260200191505060405180910390a36001905092915050565b60008060008473ffffffffffffffffffffffffffffffffffffffff1673ffffffffffffffffffffffffffffffffffffffff16815260200190815260200160002060008373ffffffffffffffffffffffffffffffffffffffff1673ffffffffffffffffffffffffffffffffffffffff16815260200190815260200160002054905092915050565b600260009054906101000a900473ffffffffffffffffffffffffffffffffffffffff1673ffffffffffffffffffffffffffffffffffffffff163373ffffffffffffffffffffffffffffffffffffffff161415156134ab57600080fd5b80600360006101000a81548173ffffffffffffffffffffffffffffffffffffffff021916908373ffffffffffffffffffffffffffffffffffffffff16021790555080600460006101000a81548173ffffffffffffffffffffffffffffffffffffffff021916908373ffffffffffffffffffffffffffffffffffffffff16021790555050565b600260009054906101000a900473ffffffffffffffffffffffffffffffffffffffff1673ffffffffffffffffffffffffffffffffffffffff163373ffffffffffffffffffffffffffffffffffffffff1614151561358c57600080fd5b600073ffffffffffffffffffffffffffffffffffffffff168173ffffffffffffffffffffffffffffffffffffffff16141515156135c857600080fd5b8073ffffffffffffffffffffffffffffffffffffffff16600260009054906101000a900473ffffffffffffffffffffffffffffffffffffffff1673ffffffffffffffffffffffffffffffffffffffff167f8be0079c531659141344cd1fd0a4f28419497f9722a3daafe3b4186f6b6457e060405160405180910390a380600260006101000a81548173ffffffffffffffffffffffffffffffffffffffff021916908373ffffffffffffffffffffffffffffffffffffffff16021790555050565b60146020528060005260406000206000915054906101000a900460ff1681565b60008060008060008060008095506000945087935061373360016000601160009054906101000a900473ffffffffffffffffffffffffffffffffffffffff1673ffffffffffffffffffffffffffffffffffffffff1673ffffffffffffffffffffffffffffffffffffffff16815260200190815260200160002054600a546139c090919063ffffffff16565b925060165483600a540381151561374657fe5b06915060165482840381151561375857fe5b04905060008214613769578161376d565b6016545b91508060001415613807576137af826137aa8660158560048110151561378f57fe5b602091828204019190069054906101000a900460ff16613a61565b613a95565b945084860195506137e4856015836004811015156137c957fe5b602091828204019190069054906101000a900460ff16613a2d565b8403935060008414156137f9578596506139b5565b601654915080806001019150505b806001141561389f57613847826138428660158560048110151561382757fe5b602091828204019190069054906101000a900460ff16613a61565b613a95565b9450848601955061387c8560158360048110151561386157fe5b602091828204019190069054906101000a900460ff16613a2d565b840393506000841415613891578596506139b5565b601654915080806001019150505b8060021415613937576138df826138da866015856004811015156138bf57fe5b602091828204019190069054906101000a900460ff16613a61565b613a95565b94508486019550613914856015836004811015156138f957fe5b602091828204019190069054906101000a900460ff16613a2d565b840393506000841415613929578596506139b5565b601654915080806001019150505b80600314156139b157613977826139728660158560048110151561395757fe5b602091828204019190069054906101000a900460ff16613a61565b613a95565b945084860195506139ac8560158360048110151561399157fe5b602091828204019190069054906101000a900460ff16613a2d565b840393505b8596505b505050505050919050565b60008282111515156139ce57fe5b818303905092915050565b600081830190508281101515156139ec57fe5b80905092915050565b600080831415613a085760009050613a27565b8183029050818382811515613a1957fe5b04141515613a2357fe5b8090505b92915050565b6000613a59600854600c5460648560ff168702811515613a4957fe5b0402613aae90919063ffffffff16565b905092915050565b6000613a8d600c5460085460648560ff1687811515613a7c57fe5b040202613aae90919063ffffffff16565b905092915050565b6000818310613aa45781613aa6565b825b905092915050565b60008183811515613abb57fe5b049050929150505600a165627a7a72305820d7eb4286858410cfaba65776c33c97fff1be0b5438eb82f4efa4d098bae9fabe0029",
  "source": "pragma solidity ^0.4.23;\n\nimport \"./FoundationContracts/BaseToken.sol\";\nimport \"./FoundationContracts/Ownable.sol\";\nimport \"./FoundationContracts/Math.sol\";\nimport \"./TSD.sol\";\n\ncontract PRETSD is BaseToken, Ownable {\n    using SafeMath for uint256;\n    using Math for uint256;\n    // set up access to main contract for the future distribution\n    TSD dc;\n    // when the connection is set to the main contract, save a reference for event purposes\n    address public TSDContractAddress;\n\n    string public name = \"PRE TSD COIN\";\n    string public symbol = \"PRETSD\";\n    uint256 public decimals = 18;\n     // Helper value from 1 million and 1 thousand\n    uint256 public decimalMultiplier = uint256(10) ** decimals;\n    uint256 public million = 1000000 * decimalMultiplier;\n    uint256 public totalSupply = 165 * million;\n    uint256 public minPurchase = 5 ether;\n    uint256 public exchangeRate;\n    uint256 public totalEthRaised = 0;\n\n    // Coordinated Universal Time (abbreviated to UTC) is the primary time standard by which the world regulates clocks and time.\n\n    // Start time \"Wed Aug 01 2018 00:00:00 GMT+1000 (AEST)\"\n    // new Date(1533045600000).toUTCString() => \"Tue, 31 Jul 2018 14:00:00 GMT\"\n    uint256 public startTime = 1533045600000;\n    // Start time \"Tue Aug 21 2018 00:00:00 GMT+1000 (AEST)\"\n    // new Date(1534860000000).toUTCString() => \"Tue, 21 Aug 2018 14:00:00 GMT\"\n    uint256 public endTime = 1534860000000;\n    // Token release date 12 month post end date\n    // \"Thu Aug 01 2019 00:00:00 GMT+1000 (AEST)\"\n    // new Date(1564581600000).toUTCString() => \"Wed, 31 Jul 2019 14:00:00 GMT\"\n    uint256 public tokensReleaseDate = 1564581600000;\n\n    // Wallets\n    address public preFundsWallet;\n    address public preSaleBonusWallet;\n\n    // Array of participants used when distributing tokens to main contract\n    address[] public icoParticipants;\n\n    // whitelisted addresses\n    mapping (address => bool) public whiteListed;\n\n    // tranche discounts\n    uint8[4] tranches = [80, 85, 90, 95];\n    // tranche token size\n    uint256 trancheMaxTokenSize = totalSupply / tranches.length;\n\n    // ico concluded\n    bool public icoOpen = true;\n\n    // Events\n    event EthRaisedUpdated(uint256 oldEthRaisedVal, uint256 newEthRaisedVal);\n    event ExhangeRateUpdated(uint256 prevExchangeRate, uint256 newExchangeRate);\n    event DistributedAllBalancesToTSDContract(address _presd, address _tsd);\n    event DebuggingAmounts(string nameOfValue, uint256 amount);\n\n    constructor(\n        uint256 _exchangeRate,\n        address[] _whitelistAddresses\n    ) public {\n        preFundsWallet = owner;\n\n        // transfer suppy to the funds wallet\n        balances[preFundsWallet] = totalSupply;\n        emit Transfer(0x0, preFundsWallet, totalSupply);\n\n        // set up the white listing mapping\n        createWhiteListedMapping(_whitelistAddresses);\n\n        updateTheExchangeRate(_exchangeRate);\n    }\n\n    // Contract utility functions\n    function currentTime() public view returns (uint256) {\n        return now * 1000;\n    }\n\n    function createWhiteListedMapping(address[] _addresses) public onlyOwner {\n        for (uint256 i = 0; i < _addresses.length; i++) {\n            whiteListed[_addresses[i]] = true;\n        }\n    }\n\n    // Usage:\n    // Pass in the amount of tokens and the discount rate.\n    // If no discount is required pass in 100 as the rate value.\n    function tokenToEth(uint256 _tokens, uint8 _rate) internal view returns(uint256) {\n      return (( _tokens * _rate ) / 100 * exchangeRate).div(decimalMultiplier);\n    }\n\n    // Usage:\n    // Pass in the amount of eth and the discount rate.\n    // If no discount is required pass in 100 as the rate value.\n    function ethToToken(uint256 _eth, uint8 _rate) internal view returns(uint256) {\n      return ((_eth / _rate * 100) * decimalMultiplier).div(exchangeRate);\n    }\n\n     // Updates the ETH => TSD exchange rate\n     // The exchange rate is in gwei to\n    function updateTheExchangeRate(uint256 _newRate) public onlyOwner returns (bool) {\n        uint256 currentRate = exchangeRate;\n        // 0.000001 ETHER\n        uint256 oneSzabo = 1 szabo;\n        // 0.00001 ETH OTHERWISE 0.000001\n        exchangeRate = (oneSzabo).mul(_newRate);\n        emit ExhangeRateUpdated(currentRate, _newRate);\n        return true;\n    }\n\n    function isWhiteListed(address _address) public view returns (bool) {\n        if (whiteListed[_address]) {\n            return true;\n        } else {\n            return false;\n        }\n    }\n\n    // Buy functions\n    function() payable public {\n        buyTokens();\n    }\n\n    function buyTokens() payable public {\n        require(icoOpen);\n        require(currentTime() >= startTime && currentTime() <= endTime);\n        require(whiteListed[msg.sender]);\n        require(msg.value >= minPurchase);\n\n        uint256 ethAmount = msg.value;\n        uint256 tokenAmount = calculateTokenAmountWithDiscounts(ethAmount);\n        uint256 currentEthRaised = totalEthRaised;\n        uint256 ethRefund = 0;\n\n        if (tokenAmount == balances[preFundsWallet]) {\n            // recalculate the amount of eth that can be spent for the remaining tokens.\n            uint256 totalRemainingCostOfTokens = calculateTotalRemainingTokenCost();\n            // determine the refund by subtracting the the new ethamount from what was originally sent in\n            ethRefund = msg.value.sub(totalRemainingCostOfTokens);\n            ethAmount = ethAmount.sub(ethRefund);\n            // make the token purchase\n            // sub general token amount\n            uint256 remainingTokens = balances[preFundsWallet];\n            balances[preFundsWallet] = balances[preFundsWallet].sub(remainingTokens);\n            // sub bonus token amoutn\n            balances[msg.sender] = balances[msg.sender].add(remainingTokens);\n            emit Transfer(preFundsWallet, msg.sender, remainingTokens);\n            icoParticipants.push(msg.sender);\n            // refund\n            if (ethRefund > 0) {\n                msg.sender.transfer(ethRefund);\n            }\n            // transfer ether to funds wallet\n            preFundsWallet.transfer(ethAmount);\n            totalEthRaised = totalEthRaised.add(ethAmount);\n            emit EthRaisedUpdated(currentEthRaised, totalEthRaised);\n            // close token sale as tokens are sold out\n            icoOpen = false;\n        } else {\n            /* require(balances[preFundsWallet] >= tokenAmount); */\n            // make the token purchase\n            // sub general token amount\n            balances[preFundsWallet] = balances[preFundsWallet].sub(tokenAmount);\n            balances[msg.sender] = balances[msg.sender].add(tokenAmount);\n            icoParticipants.push(msg.sender);\n            emit Transfer(preFundsWallet, msg.sender, tokenAmount);\n\n            // transfer ether to the wallet and emit and event regarding eth raised\n            preFundsWallet.transfer(ethAmount);\n            totalEthRaised = totalEthRaised.add(ethAmount);\n            emit EthRaisedUpdated(currentEthRaised, totalEthRaised);\n        }\n    }\n\n    function calculateTotalRemainingTokenCost() public view returns(uint256) {\n      uint256 totalCost = 0;\n      uint256 sold = totalSupply.sub(balances[preFundsWallet]);\n      // Calculate the remaining tranche tokens.\n      uint256 currentTrancheRemainder = (totalSupply - sold) % trancheMaxTokenSize;\n      // Calculate the current tranche we are in.\n      uint256 currentTranche = ((sold - currentTrancheRemainder) / trancheMaxTokenSize);\n      // On the first initialisation we need to set the current tranche to a full tranche;\n      currentTrancheRemainder = currentTrancheRemainder == 0 ? trancheMaxTokenSize : currentTrancheRemainder;\n      // Check all tranches to see if they are full.\n      // If they are full. Add the calculated tranche cost to the totalCost.\n      if (currentTranche < 3 ){\n        totalCost += tokenToEth(trancheMaxTokenSize, tranches[3]);\n      }\n      if (currentTranche < 2 ){\n        totalCost += tokenToEth(trancheMaxTokenSize, tranches[2]);\n      }\n      if (currentTranche < 1 ){\n        totalCost += tokenToEth(trancheMaxTokenSize, tranches[1]);\n      }\n      // Add the calculated tranche remainder costs to the totalCost.\n      totalCost += tokenToEth(currentTrancheRemainder, tranches[currentTranche]);\n      return totalCost;\n    }\n\n    function calculateTokenAmountWithDiscounts(uint256 _ethAmount) private view returns(uint256) {\n      uint256 returnTokens = 0;\n      uint256 tokensFromTranche = 0;\n      uint256 ethRemaining = _ethAmount;\n      uint256 sold = totalSupply.sub(balances[preFundsWallet]);\n\n      // Calculate the remaining tranche tokens.\n      uint256 currentTrancheRemainder = (totalSupply - sold) % trancheMaxTokenSize;\n      // Calculate the current tranche we are in.\n      uint256 currentTranche = ((sold - currentTrancheRemainder) / trancheMaxTokenSize);\n      // On the first initialisation we need to set the current tranche to a full tranche;\n      currentTrancheRemainder = currentTrancheRemainder == 0 ? trancheMaxTokenSize : currentTrancheRemainder;\n\n      // Find the first tranche that matches the current tranche.\n      if(0 == currentTranche){\n          // Find the lowest value tokens of the current tranche.\n          // Either return the total tranche tokens or the the tokens we can purchase with our ether.\n          tokensFromTranche = Math.min256(currentTrancheRemainder, ethToToken(ethRemaining, tranches[currentTranche]));\n          // Add the tokens to our return value.\n          returnTokens += tokensFromTranche;\n          // Subtract the ether we've spent on the tokens from the total ether we supplied.\n          ethRemaining -= tokenToEth(tokensFromTranche, tranches[currentTranche]);\n          // Return the tokens if ether has reached 0;\n          if (ethRemaining == 0) return returnTokens;\n          // Otherwise set the next tranche remainder to a full tranche;\n          currentTrancheRemainder = trancheMaxTokenSize;\n          // Move us up one tranche.\n          currentTranche++;\n      }\n      if(1 == currentTranche){\n          tokensFromTranche = Math.min256(currentTrancheRemainder, ethToToken(ethRemaining, tranches[currentTranche]));\n          returnTokens += tokensFromTranche;\n          ethRemaining -= tokenToEth(tokensFromTranche, tranches[currentTranche]);\n          if (ethRemaining == 0) return returnTokens;\n          currentTrancheRemainder = trancheMaxTokenSize;\n          currentTranche++;\n      }\n      if(2 == currentTranche){\n          tokensFromTranche = Math.min256(currentTrancheRemainder, ethToToken(ethRemaining, tranches[currentTranche]));\n          returnTokens += tokensFromTranche;\n          ethRemaining -= tokenToEth(tokensFromTranche, tranches[currentTranche]);\n          if (ethRemaining == 0) return returnTokens;\n          currentTrancheRemainder = trancheMaxTokenSize;\n          currentTranche++;\n      }\n      if(3 == currentTranche){\n          tokensFromTranche = Math.min256(currentTrancheRemainder, ethToToken(ethRemaining, tranches[currentTranche]));\n          returnTokens += tokensFromTranche;\n          ethRemaining -= tokenToEth(tokensFromTranche, tranches[currentTranche]);\n      }\n      return returnTokens;\n    }\n    // After close functions\n\n    // Create an instance of the main contract\n    function setMainContractAddress(address _t) onlyOwner public {\n        dc = TSD(_t);\n        TSDContractAddress = _t;\n    }\n\n    // Burn any remaining tokens\n    function burnRemainingTokens() public onlyOwner returns (bool) {\n        require(currentTime() >= endTime);\n        if (balances[preFundsWallet] > 0) {\n            balances[preFundsWallet] = 0;\n        }\n\n        return true;\n    }\n\n    // This can only be called by the owner on or after the token release date.\n    // This will be a two step process.\n    // This function will be called by the preSaleTokenWallet\n    // This wallet will need to be approved in the main contract to make these distributions\n    function distrubuteTokens() onlyOwner public {\n        require(currentTime() >= tokensReleaseDate);\n        address preSaleTokenWallet = dc.preSaleTokenWallet();\n        address mainContractFundsWallet = dc.fundsWallet();\n        for (uint8 i = 0; i < icoParticipants.length; i++) {\n            dc.transferFrom(preSaleTokenWallet, icoParticipants[i], balances[icoParticipants[i]]);\n            emit Transfer(preSaleTokenWallet, icoParticipants[i], balances[icoParticipants[i]]);\n        }\n\n        if (dc.balanceOf(preSaleTokenWallet) > 0) {\n            uint256 remainingBalace = dc.balanceOf(preSaleTokenWallet);\n            dc.transferFrom(preSaleTokenWallet, mainContractFundsWallet, remainingBalace);\n            emit Transfer(preSaleTokenWallet, mainContractFundsWallet, remainingBalace);\n        }\n        // Event to say distribution is complete\n        emit DistributedAllBalancesToTSDContract(address(this), TSDContractAddress);\n    }\n\n}\n",
  "sourcePath": "/Users/dandrory521/Documents/01-projects/tsd_dapp/contracts/PRETSD.sol",
  "compiler": {
    "name": "solc",
    "version": "0.4.23+commit.124ca40d.Emscripten.clang"
  },
  "schemaVersion": "2.0.0",
  "updatedAt": "2018-05-30T05:47:30.946Z"
}