{
  "contractName": "PVTSD",
  "abi": [
    {
      "constant": true,
      "inputs": [],
      "name": "name",
      "outputs": [
        {
          "name": "",
          "type": "string"
        }
      ],
      "payable": false,
      "stateMutability": "view",
      "type": "function"
    },
    {
      "constant": true,
      "inputs": [],
      "name": "ethExchangeRate",
      "outputs": [
        {
          "name": "",
          "type": "uint256"
        }
      ],
      "payable": false,
      "stateMutability": "view",
      "type": "function"
    },
    {
      "constant": true,
      "inputs": [],
      "name": "totalSupply",
      "outputs": [
        {
          "name": "",
          "type": "uint256"
        }
      ],
      "payable": false,
      "stateMutability": "view",
      "type": "function"
    },
    {
      "constant": true,
      "inputs": [],
      "name": "decimalMultiplier",
      "outputs": [
        {
          "name": "",
          "type": "uint256"
        }
      ],
      "payable": false,
      "stateMutability": "view",
      "type": "function"
    },
    {
      "constant": true,
      "inputs": [],
      "name": "decimals",
      "outputs": [
        {
          "name": "",
          "type": "uint256"
        }
      ],
      "payable": false,
      "stateMutability": "view",
      "type": "function"
    },
    {
      "constant": true,
      "inputs": [],
      "name": "endTime",
      "outputs": [
        {
          "name": "",
          "type": "uint256"
        }
      ],
      "payable": false,
      "stateMutability": "view",
      "type": "function"
    },
    {
      "constant": true,
      "inputs": [],
      "name": "minPurchase",
      "outputs": [
        {
          "name": "",
          "type": "uint256"
        }
      ],
      "payable": false,
      "stateMutability": "view",
      "type": "function"
    },
    {
      "constant": true,
      "inputs": [],
      "name": "exchangeRate",
      "outputs": [
        {
          "name": "",
          "type": "uint256"
        }
      ],
      "payable": false,
      "stateMutability": "view",
      "type": "function"
    },
    {
      "constant": true,
      "inputs": [],
      "name": "TSDContractAddress",
      "outputs": [
        {
          "name": "",
          "type": "address"
        }
      ],
      "payable": false,
      "stateMutability": "view",
      "type": "function"
    },
    {
      "constant": true,
      "inputs": [],
      "name": "million",
      "outputs": [
        {
          "name": "",
          "type": "uint256"
        }
      ],
      "payable": false,
      "stateMutability": "view",
      "type": "function"
    },
    {
      "constant": true,
      "inputs": [],
      "name": "tokensAvailable",
      "outputs": [
        {
          "name": "",
          "type": "bool"
        }
      ],
      "payable": false,
      "stateMutability": "view",
      "type": "function"
    },
    {
      "constant": false,
      "inputs": [],
      "name": "renounceOwnership",
      "outputs": [],
      "payable": false,
      "stateMutability": "nonpayable",
      "type": "function"
    },
    {
      "constant": true,
      "inputs": [],
      "name": "startTime",
      "outputs": [
        {
          "name": "",
          "type": "uint256"
        }
      ],
      "payable": false,
      "stateMutability": "view",
      "type": "function"
    },
    {
      "constant": true,
      "inputs": [],
      "name": "tokenPrice",
      "outputs": [
        {
          "name": "",
          "type": "uint256"
        }
      ],
      "payable": false,
      "stateMutability": "view",
      "type": "function"
    },
    {
      "constant": true,
      "inputs": [],
      "name": "owner",
      "outputs": [
        {
          "name": "",
          "type": "address"
        }
      ],
      "payable": false,
      "stateMutability": "view",
      "type": "function"
    },
    {
      "constant": true,
      "inputs": [],
      "name": "symbol",
      "outputs": [
        {
          "name": "",
          "type": "string"
        }
      ],
      "payable": false,
      "stateMutability": "view",
      "type": "function"
    },
    {
      "constant": true,
      "inputs": [
        {
          "name": "",
          "type": "uint256"
        }
      ],
      "name": "icoParticipants",
      "outputs": [
        {
          "name": "",
          "type": "address"
        }
      ],
      "payable": false,
      "stateMutability": "view",
      "type": "function"
    },
    {
      "constant": true,
      "inputs": [],
      "name": "tokensReleaseDate",
      "outputs": [
        {
          "name": "",
          "type": "uint256"
        }
      ],
      "payable": false,
      "stateMutability": "view",
      "type": "function"
    },
    {
      "constant": true,
      "inputs": [],
      "name": "totalEthRaised",
      "outputs": [
        {
          "name": "",
          "type": "uint256"
        }
      ],
      "payable": false,
      "stateMutability": "view",
      "type": "function"
    },
    {
      "constant": true,
      "inputs": [],
      "name": "pvtFundsWallet",
      "outputs": [
        {
          "name": "",
          "type": "address"
        }
      ],
      "payable": false,
      "stateMutability": "view",
      "type": "function"
    },
    {
      "constant": true,
      "inputs": [],
      "name": "dc",
      "outputs": [
        {
          "name": "",
          "type": "address"
        }
      ],
      "payable": false,
      "stateMutability": "view",
      "type": "function"
    },
    {
      "constant": false,
      "inputs": [
        {
          "name": "newOwner",
          "type": "address"
        }
      ],
      "name": "transferOwnership",
      "outputs": [],
      "payable": false,
      "stateMutability": "nonpayable",
      "type": "function"
    },
    {
      "constant": true,
      "inputs": [
        {
          "name": "",
          "type": "address"
        }
      ],
      "name": "whiteListed",
      "outputs": [
        {
          "name": "",
          "type": "bool"
        }
      ],
      "payable": false,
      "stateMutability": "view",
      "type": "function"
    },
    {
      "inputs": [
        {
          "name": "_exchangeRate",
          "type": "uint256"
        }
      ],
      "payable": false,
      "stateMutability": "nonpayable",
      "type": "constructor"
    },
    {
      "payable": true,
      "stateMutability": "payable",
      "type": "fallback"
    },
    {
      "anonymous": false,
      "inputs": [
        {
          "indexed": false,
          "name": "oldEthRaisedVal",
          "type": "uint256"
        },
        {
          "indexed": false,
          "name": "newEthRaisedVal",
          "type": "uint256"
        }
      ],
      "name": "EthRaisedUpdated",
      "type": "event"
    },
    {
      "anonymous": false,
      "inputs": [
        {
          "indexed": false,
          "name": "prevExchangeRate",
          "type": "uint256"
        },
        {
          "indexed": false,
          "name": "newExchangeRate",
          "type": "uint256"
        }
      ],
      "name": "ExhangeRateUpdated",
      "type": "event"
    },
    {
      "anonymous": false,
      "inputs": [
        {
          "indexed": false,
          "name": "_presd",
          "type": "address"
        },
        {
          "indexed": false,
          "name": "_tsd",
          "type": "address"
        }
      ],
      "name": "DistributedAllBalancesToTSDContract",
      "type": "event"
    },
    {
      "anonymous": false,
      "inputs": [
        {
          "indexed": false,
          "name": "from",
          "type": "address"
        },
        {
          "indexed": false,
          "name": "to",
          "type": "address"
        },
        {
          "indexed": false,
          "name": "value",
          "type": "uint256"
        }
      ],
      "name": "Transfer",
      "type": "event"
    },
    {
      "anonymous": false,
      "inputs": [
        {
          "indexed": false,
          "name": "oldSupply",
          "type": "uint256"
        },
        {
          "indexed": false,
          "name": "newSupply",
          "type": "uint256"
        }
      ],
      "name": "UpdatedTotalSupply",
      "type": "event"
    },
    {
      "anonymous": false,
      "inputs": [
        {
          "indexed": true,
          "name": "previousOwner",
          "type": "address"
        }
      ],
      "name": "OwnershipRenounced",
      "type": "event"
    },
    {
      "anonymous": false,
      "inputs": [
        {
          "indexed": true,
          "name": "previousOwner",
          "type": "address"
        },
        {
          "indexed": true,
          "name": "newOwner",
          "type": "address"
        }
      ],
      "name": "OwnershipTransferred",
      "type": "event"
    },
    {
      "constant": true,
      "inputs": [],
      "name": "currentTime",
      "outputs": [
        {
          "name": "",
          "type": "uint256"
        }
      ],
      "payable": false,
      "stateMutability": "view",
      "type": "function"
    },
    {
      "constant": true,
      "inputs": [
        {
          "name": "_address",
          "type": "address"
        }
      ],
      "name": "balanceOf",
      "outputs": [
        {
          "name": "",
          "type": "uint256"
        }
      ],
      "payable": false,
      "stateMutability": "view",
      "type": "function"
    },
    {
      "constant": false,
      "inputs": [
        {
          "name": "_addresses",
          "type": "address[]"
        }
      ],
      "name": "createWhiteListedMapping",
      "outputs": [],
      "payable": false,
      "stateMutability": "nonpayable",
      "type": "function"
    },
    {
      "constant": false,
      "inputs": [
        {
          "name": "_newAddress",
          "type": "address"
        }
      ],
      "name": "changeOracleAddress",
      "outputs": [],
      "payable": false,
      "stateMutability": "nonpayable",
      "type": "function"
    },
    {
      "constant": false,
      "inputs": [
        {
          "name": "_newRate",
          "type": "uint256"
        }
      ],
      "name": "updateTheExchangeRate",
      "outputs": [
        {
          "name": "",
          "type": "bool"
        }
      ],
      "payable": false,
      "stateMutability": "nonpayable",
      "type": "function"
    },
    {
      "constant": true,
      "inputs": [
        {
          "name": "_address",
          "type": "address"
        }
      ],
      "name": "isWhiteListed",
      "outputs": [
        {
          "name": "",
          "type": "bool"
        }
      ],
      "payable": false,
      "stateMutability": "view",
      "type": "function"
    },
    {
      "constant": false,
      "inputs": [],
      "name": "buyTokens",
      "outputs": [],
      "payable": true,
      "stateMutability": "payable",
      "type": "function"
    },
    {
      "constant": false,
      "inputs": [
        {
          "name": "_t",
          "type": "address"
        }
      ],
      "name": "setMainContractAddress",
      "outputs": [],
      "payable": false,
      "stateMutability": "nonpayable",
      "type": "function"
    },
    {
      "constant": false,
      "inputs": [],
      "name": "burnRemainingTokens",
      "outputs": [
        {
          "name": "",
          "type": "bool"
        }
      ],
      "payable": false,
      "stateMutability": "nonpayable",
      "type": "function"
    },
    {
      "constant": false,
      "inputs": [],
      "name": "distributeTokens",
      "outputs": [
        {
          "name": "",
          "type": "bool"
        }
      ],
      "payable": false,
      "stateMutability": "nonpayable",
      "type": "function"
    },
    {
      "constant": false,
      "inputs": [],
      "name": "selfDestruct",
      "outputs": [],
      "payable": false,
      "stateMutability": "nonpayable",
      "type": "function"
    }
  ],
  "bytecode": "0x60806040526040805190810160405280601081526020017f505249564154452054534420434f494e000000000000000000000000000000008152506004908051906020019062000051929190620004ff565b506040805190810160405280600581526020017f5056545344000000000000000000000000000000000000000000000000000000815250600590805190602001906200009f929190620004ff565b506012600655600654600a0a600755600754620f4240026008556007546304ead9a0026009556305f5e100600a556032600d556000600e55650163fe988b00600f556501649917530060105565016a1c25cb006011556001601660006101000a81548160ff0219169083151502179055503480156200011d57600080fd5b5060405160208062002bb083398101806040528101908080519060200190929190505050336000806101000a81548173ffffffffffffffffffffffffffffffffffffffff021916908373ffffffffffffffffffffffffffffffffffffffff1602179055506000809054906101000a900473ffffffffffffffffffffffffffffffffffffffff16601260006101000a81548173ffffffffffffffffffffffffffffffffffffffff021916908373ffffffffffffffffffffffffffffffffffffffff16021790555060095460156000601260009054906101000a900473ffffffffffffffffffffffffffffffffffffffff1673ffffffffffffffffffffffffffffffffffffffff1673ffffffffffffffffffffffffffffffffffffffff168152602001908152602001600020819055507fddf252ad1be2c89b69c2b068fc378daa952ba7f163c4a11628f55a4df523b3ef6000601260009054906101000a900473ffffffffffffffffffffffffffffffffffffffff16600954604051808473ffffffffffffffffffffffffffffffffffffffff1681526020018373ffffffffffffffffffffffffffffffffffffffff1673ffffffffffffffffffffffffffffffffffffffff168152602001828152602001935050505060405180910390a162000313816200031b640100000000026401000000009004565b5050620005ae565b6000806000806000809054906101000a900473ffffffffffffffffffffffffffffffffffffffff1673ffffffffffffffffffffffffffffffffffffffff163373ffffffffffffffffffffffffffffffffffffffff161480620003ca5750600360009054906101000a900473ffffffffffffffffffffffffffffffffffffffff1673ffffffffffffffffffffffffffffffffffffffff163373ffffffffffffffffffffffffffffffffffffffff16145b1515620003d657600080fd5b84600b81905550600c54925064e8d4a510009150620004348562000417620f4240600d54620004ac6401000000000262002543179091906401000000009004565b620004e8640100000000026200257b179091906401000000009004565b9050620004598183620004ac6401000000000262002543179091906401000000009004565b600c819055507f9a4a0b4ec1a5f7ce40f0bbb5afddc8a88ed1279508f5d92b5056dcffdff438d983600c54604051808381526020018281526020019250505060405180910390a160019350505050919050565b600080831415620004c15760009050620004e2565b8183029050818382811515620004d357fe5b04141515620004de57fe5b8090505b92915050565b60008183811515620004f657fe5b04905092915050565b828054600181600116156101000203166002900490600052602060002090601f016020900481019282601f106200054257805160ff191683800117855562000573565b8280016001018555821562000573579182015b828111156200057257825182559160200191906001019062000555565b5b50905062000582919062000586565b5090565b620005ab91905b80821115620005a75760008160009055506001016200058d565b5090565b90565b6125f280620005be6000396000f3006080604052600436106101ac576000357c0100000000000000000000000000000000000000000000000000000000900463ffffffff16806306fdde03146101b65780630b961e481461024657806318160ddd146102715780633082538f1461029c578063313ce567146102c75780633197cbb6146102f257806333b5b62e1461031d5780633ba0b9a9146103485780634a54839d146103735780634e9c6b1f146103ca57806360659a92146103f55780636f9170f61461042457806370a082311461047f578063715018a6146104d657806378e97925146104ed5780637ff9b5961461051857806383408d73146105435780638da5cb5b1461057257806395d89b41146105c95780639ab1b484146106595780639cb8a26a14610688578063a229c6141461069f578063a256ea3a146106e4578063afe07f5914610751578063b9cdd19b1461077c578063c9e904be146107b7578063d0febe4c146107e2578063d18e81b3146107ec578063d45d685014610817578063d8a531a61461086e578063ec9da59e146108c5578063f2fde38b14610908578063fa0fca841461094b578063fb349dbd146109a6575b6101b46109e9565b005b3480156101c257600080fd5b506101cb61132e565b6040518080602001828103825283818151815260200191508051906020019080838360005b8381101561020b5780820151818401526020810190506101f0565b50505050905090810190601f1680156102385780820380516001836020036101000a031916815260200191505b509250505060405180910390f35b34801561025257600080fd5b5061025b6113cc565b6040518082815260200191505060405180910390f35b34801561027d57600080fd5b506102866113d2565b6040518082815260200191505060405180910390f35b3480156102a857600080fd5b506102b16113d8565b6040518082815260200191505060405180910390f35b3480156102d357600080fd5b506102dc6113de565b6040518082815260200191505060405180910390f35b3480156102fe57600080fd5b506103076113e4565b6040518082815260200191505060405180910390f35b34801561032957600080fd5b506103326113ea565b6040518082815260200191505060405180910390f35b34801561035457600080fd5b5061035d6113f0565b6040518082815260200191505060405180910390f35b34801561037f57600080fd5b506103886113f6565b604051808273ffffffffffffffffffffffffffffffffffffffff1673ffffffffffffffffffffffffffffffffffffffff16815260200191505060405180910390f35b3480156103d657600080fd5b506103df61141c565b6040518082815260200191505060405180910390f35b34801561040157600080fd5b5061040a611422565b604051808215151515815260200191505060405180910390f35b34801561043057600080fd5b50610465600480360381019080803573ffffffffffffffffffffffffffffffffffffffff169060200190929190505050611435565b604051808215151515815260200191505060405180910390f35b34801561048b57600080fd5b506104c0600480360381019080803573ffffffffffffffffffffffffffffffffffffffff16906020019092919050505061149c565b6040518082815260200191505060405180910390f35b3480156104e257600080fd5b506104eb6114e5565b005b3480156104f957600080fd5b506105026115e7565b6040518082815260200191505060405180910390f35b34801561052457600080fd5b5061052d6115ed565b6040518082815260200191505060405180910390f35b34801561054f57600080fd5b506105586115f3565b604051808215151515815260200191505060405180910390f35b34801561057e57600080fd5b50610587611805565b604051808273ffffffffffffffffffffffffffffffffffffffff1673ffffffffffffffffffffffffffffffffffffffff16815260200191505060405180910390f35b3480156105d557600080fd5b506105de61182a565b6040518080602001828103825283818151815260200191508051906020019080838360005b8381101561061e578082015181840152602081019050610603565b50505050905090810190601f16801561064b5780820380516001836020036101000a031916815260200191505b509250505060405180910390f35b34801561066557600080fd5b5061066e6118c8565b604051808215151515815260200191505060405180910390f35b34801561069457600080fd5b5061069d611e4c565b005b3480156106ab57600080fd5b506106ca60048036038101908080359060200190929190505050611ee1565b604051808215151515815260200191505060405180910390f35b3480156106f057600080fd5b5061070f60048036038101908080359060200190929190505050612040565b604051808273ffffffffffffffffffffffffffffffffffffffff1673ffffffffffffffffffffffffffffffffffffffff16815260200191505060405180910390f35b34801561075d57600080fd5b5061076661207e565b6040518082815260200191505060405180910390f35b34801561078857600080fd5b506107b5600480360381019080803590602001908201803590602001919091929391929390505050612084565b005b3480156107c357600080fd5b506107cc6121f1565b6040518082815260200191505060405180910390f35b6107ea6109e9565b005b3480156107f857600080fd5b506108016121f7565b6040518082815260200191505060405180910390f35b34801561082357600080fd5b5061082c612203565b604051808273ffffffffffffffffffffffffffffffffffffffff1673ffffffffffffffffffffffffffffffffffffffff16815260200191505060405180910390f35b34801561087a57600080fd5b50610883612229565b604051808273ffffffffffffffffffffffffffffffffffffffff1673ffffffffffffffffffffffffffffffffffffffff16815260200191505060405180910390f35b3480156108d157600080fd5b50610906600480360381019080803573ffffffffffffffffffffffffffffffffffffffff16906020019092919050505061224f565b005b34801561091457600080fd5b50610949600480360381019080803573ffffffffffffffffffffffffffffffffffffffff16906020019092919050505061232f565b005b34801561095757600080fd5b5061098c600480360381019080803573ffffffffffffffffffffffffffffffffffffffff169060200190929190505050612484565b604051808215151515815260200191505060405180910390f35b3480156109b257600080fd5b506109e7600480360381019080803573ffffffffffffffffffffffffffffffffffffffff1690602001909291905050506124a4565b005b60008060008060008060008060006109ff6121f7565b9850610a2c600b54610a1e600754600a5461254390919063ffffffff16565b61257b90919063ffffffff16565b9750601660009054906101000a900460ff161515610a4957600080fd5b600f548910158015610a5d57506010548911155b1515610a6857600080fd5b873410151515610a7757600080fd5b601460003373ffffffffffffffffffffffffffffffffffffffff1673ffffffffffffffffffffffffffffffffffffffff16815260200190815260200160002060009054906101000a900460ff161515610acf57600080fd5b349650610afb6064610aed6046600c5461254390919063ffffffff16565b61257b90919063ffffffff16565b9550610b2486610b166007548a61254390919063ffffffff16565b61257b90919063ffffffff16565b945060156000601260009054906101000a900473ffffffffffffffffffffffffffffffffffffffff1673ffffffffffffffffffffffffffffffffffffffff1673ffffffffffffffffffffffffffffffffffffffff168152602001908152602001600020549350600e5492506000915083851115610fb957610bae848661259190919063ffffffff16565b9050610bd7600754610bc9888461254390919063ffffffff16565b61257b90919063ffffffff16565b9150610bec828861259190919063ffffffff16565b9650610c628460156000601260009054906101000a900473ffffffffffffffffffffffffffffffffffffffff1673ffffffffffffffffffffffffffffffffffffffff1673ffffffffffffffffffffffffffffffffffffffff1681526020019081526020016000205461259190919063ffffffff16565b60156000601260009054906101000a900473ffffffffffffffffffffffffffffffffffffffff1673ffffffffffffffffffffffffffffffffffffffff1673ffffffffffffffffffffffffffffffffffffffff16815260200190815260200160002081905550610d1984601560003373ffffffffffffffffffffffffffffffffffffffff1673ffffffffffffffffffffffffffffffffffffffff168152602001908152602001600020546125aa90919063ffffffff16565b601560003373ffffffffffffffffffffffffffffffffffffffff1673ffffffffffffffffffffffffffffffffffffffff168152602001908152602001600020819055507fddf252ad1be2c89b69c2b068fc378daa952ba7f163c4a11628f55a4df523b3ef601260009054906101000a900473ffffffffffffffffffffffffffffffffffffffff163386604051808473ffffffffffffffffffffffffffffffffffffffff1673ffffffffffffffffffffffffffffffffffffffff1681526020018373ffffffffffffffffffffffffffffffffffffffff1673ffffffffffffffffffffffffffffffffffffffff168152602001828152602001935050505060405180910390a160133390806001815401808255809150509060018203906000526020600020016000909192909190916101000a81548173ffffffffffffffffffffffffffffffffffffffff021916908373ffffffffffffffffffffffffffffffffffffffff160217905550506000821115610ed4573373ffffffffffffffffffffffffffffffffffffffff166108fc839081150290604051600060405180830381858888f19350505050158015610ed2573d6000803e3d6000fd5b505b601260009054906101000a900473ffffffffffffffffffffffffffffffffffffffff1673ffffffffffffffffffffffffffffffffffffffff166108fc889081150290604051600060405180830381858888f19350505050158015610f3c573d6000803e3d6000fd5b50610f5287600e546125aa90919063ffffffff16565b600e819055507f4014ce514c76bad08328a2a6046bac14007f7aad2c56c84c66acf8ca1c64bee883600e54604051808381526020018281526020019250505060405180910390a16000601660006101000a81548160ff021916908315150217905550611323565b838511151515610fc857600080fd5b61103c8560156000601260009054906101000a900473ffffffffffffffffffffffffffffffffffffffff1673ffffffffffffffffffffffffffffffffffffffff1673ffffffffffffffffffffffffffffffffffffffff1681526020019081526020016000205461259190919063ffffffff16565b60156000601260009054906101000a900473ffffffffffffffffffffffffffffffffffffffff1673ffffffffffffffffffffffffffffffffffffffff1673ffffffffffffffffffffffffffffffffffffffff168152602001908152602001600020819055506110f385601560003373ffffffffffffffffffffffffffffffffffffffff1673ffffffffffffffffffffffffffffffffffffffff168152602001908152602001600020546125aa90919063ffffffff16565b601560003373ffffffffffffffffffffffffffffffffffffffff1673ffffffffffffffffffffffffffffffffffffffff1681526020019081526020016000208190555060133390806001815401808255809150509060018203906000526020600020016000909192909190916101000a81548173ffffffffffffffffffffffffffffffffffffffff021916908373ffffffffffffffffffffffffffffffffffffffff16021790555050601260009054906101000a900473ffffffffffffffffffffffffffffffffffffffff1673ffffffffffffffffffffffffffffffffffffffff166108fc889081150290604051600060405180830381858888f19350505050158015611204573d6000803e3d6000fd5b5061121a87600e546125aa90919063ffffffff16565b600e819055507fddf252ad1be2c89b69c2b068fc378daa952ba7f163c4a11628f55a4df523b3ef601260009054906101000a900473ffffffffffffffffffffffffffffffffffffffff163387604051808473ffffffffffffffffffffffffffffffffffffffff1673ffffffffffffffffffffffffffffffffffffffff1681526020018373ffffffffffffffffffffffffffffffffffffffff1673ffffffffffffffffffffffffffffffffffffffff168152602001828152602001935050505060405180910390a17f4014ce514c76bad08328a2a6046bac14007f7aad2c56c84c66acf8ca1c64bee883600e54604051808381526020018281526020019250505060405180910390a15b505050505050505050565b60048054600181600116156101000203166002900480601f0160208091040260200160405190810160405280929190818152602001828054600181600116156101000203166002900480156113c45780601f10611399576101008083540402835291602001916113c4565b820191906000526020600020905b8154815290600101906020018083116113a757829003601f168201915b505050505081565b600b5481565b60095481565b60075481565b60065481565b60105481565b600a5481565b600c5481565b600260009054906101000a900473ffffffffffffffffffffffffffffffffffffffff1681565b60085481565b601660009054906101000a900460ff1681565b6000601460008373ffffffffffffffffffffffffffffffffffffffff1673ffffffffffffffffffffffffffffffffffffffff16815260200190815260200160002060009054906101000a900460ff16156114925760019050611497565b600090505b919050565b6000601560008373ffffffffffffffffffffffffffffffffffffffff1673ffffffffffffffffffffffffffffffffffffffff168152602001908152602001600020549050919050565b6000809054906101000a900473ffffffffffffffffffffffffffffffffffffffff1673ffffffffffffffffffffffffffffffffffffffff163373ffffffffffffffffffffffffffffffffffffffff1614151561154057600080fd5b6000809054906101000a900473ffffffffffffffffffffffffffffffffffffffff1673ffffffffffffffffffffffffffffffffffffffff167ff8df31144d9c2f0f6b59d69b8b98abd5459d07f2742c4df920b25aae33c6482060405160405180910390a260008060006101000a81548173ffffffffffffffffffffffffffffffffffffffff021916908373ffffffffffffffffffffffffffffffffffffffff160217905550565b600f5481565b600d5481565b6000806000809054906101000a900473ffffffffffffffffffffffffffffffffffffffff1673ffffffffffffffffffffffffffffffffffffffff163373ffffffffffffffffffffffffffffffffffffffff1614151561165157600080fd5b60105461165c6121f7565b1015151561166957600080fd5b600060156000601260009054906101000a900473ffffffffffffffffffffffffffffffffffffffff1673ffffffffffffffffffffffffffffffffffffffff1673ffffffffffffffffffffffffffffffffffffffff1681526020019081526020016000205411156117fd57600954905061174e60156000601260009054906101000a900473ffffffffffffffffffffffffffffffffffffffff1673ffffffffffffffffffffffffffffffffffffffff1673ffffffffffffffffffffffffffffffffffffffff1681526020019081526020016000205460095461259190919063ffffffff16565b600981905550600060156000601260009054906101000a900473ffffffffffffffffffffffffffffffffffffffff1673ffffffffffffffffffffffffffffffffffffffff1673ffffffffffffffffffffffffffffffffffffffff168152602001908152602001600020819055507f8a96e7229e5b018dff0425d91c96d3f7d93cae0b891ff020eef8b1686e1a6a1081600954604051808381526020018281526020019250505060405180910390a15b600191505090565b6000809054906101000a900473ffffffffffffffffffffffffffffffffffffffff1681565b60058054600181600116156101000203166002900480601f0160208091040260200160405190810160405280929190818152602001828054600181600116156101000203166002900480156118c05780601f10611895576101008083540402835291602001916118c0565b820191906000526020600020905b8154815290600101906020018083116118a357829003601f168201915b505050505081565b60008060008060009054906101000a900473ffffffffffffffffffffffffffffffffffffffff1673ffffffffffffffffffffffffffffffffffffffff163373ffffffffffffffffffffffffffffffffffffffff1614151561192857600080fd5b6011546119336121f7565b1015151561194057600080fd5b600160009054906101000a900473ffffffffffffffffffffffffffffffffffffffff1673ffffffffffffffffffffffffffffffffffffffff16638fb24c7d6040518163ffffffff167c0100000000000000000000000000000000000000000000000000000000028152600401602060405180830381600087803b1580156119c657600080fd5b505af11580156119da573d6000803e3d6000fd5b505050506040513d60208110156119f057600080fd5b81019080805190602001909291905050509150600090505b6013805490508167ffffffffffffffff161015611d8a57600160009054906101000a900473ffffffffffffffffffffffffffffffffffffffff1673ffffffffffffffffffffffffffffffffffffffff166323b872dd8360138467ffffffffffffffff16815481101515611a7757fe5b9060005260206000200160009054906101000a900473ffffffffffffffffffffffffffffffffffffffff166015600060138767ffffffffffffffff16815481101515611abf57fe5b9060005260206000200160009054906101000a900473ffffffffffffffffffffffffffffffffffffffff1673ffffffffffffffffffffffffffffffffffffffff1673ffffffffffffffffffffffffffffffffffffffff168152602001908152602001600020546040518463ffffffff167c0100000000000000000000000000000000000000000000000000000000028152600401808473ffffffffffffffffffffffffffffffffffffffff1673ffffffffffffffffffffffffffffffffffffffff1681526020018373ffffffffffffffffffffffffffffffffffffffff1673ffffffffffffffffffffffffffffffffffffffff1681526020018281526020019350505050602060405180830381600087803b158015611bdd57600080fd5b505af1158015611bf1573d6000803e3d6000fd5b505050506040513d6020811015611c0757600080fd5b8101908080519060200190929190505050507fddf252ad1be2c89b69c2b068fc378daa952ba7f163c4a11628f55a4df523b3ef8260138367ffffffffffffffff16815481101515611c5457fe5b9060005260206000200160009054906101000a900473ffffffffffffffffffffffffffffffffffffffff166015600060138667ffffffffffffffff16815481101515611c9c57fe5b9060005260206000200160009054906101000a900473ffffffffffffffffffffffffffffffffffffffff1673ffffffffffffffffffffffffffffffffffffffff1673ffffffffffffffffffffffffffffffffffffffff16815260200190815260200160002054604051808473ffffffffffffffffffffffffffffffffffffffff1673ffffffffffffffffffffffffffffffffffffffff1681526020018373ffffffffffffffffffffffffffffffffffffffff1673ffffffffffffffffffffffffffffffffffffffff168152602001828152602001935050505060405180910390a18080600101915050611a08565b7f5fc214609a6cb66e8182b2a4d291dda75b365e02c065872483a7a875e54d7e1830600260009054906101000a900473ffffffffffffffffffffffffffffffffffffffff16604051808373ffffffffffffffffffffffffffffffffffffffff1673ffffffffffffffffffffffffffffffffffffffff1681526020018273ffffffffffffffffffffffffffffffffffffffff1673ffffffffffffffffffffffffffffffffffffffff1681526020019250505060405180910390a160019250505090565b6000809054906101000a900473ffffffffffffffffffffffffffffffffffffffff1673ffffffffffffffffffffffffffffffffffffffff163373ffffffffffffffffffffffffffffffffffffffff16141515611ea757600080fd5b6000809054906101000a900473ffffffffffffffffffffffffffffffffffffffff1673ffffffffffffffffffffffffffffffffffffffff16ff5b6000806000806000809054906101000a900473ffffffffffffffffffffffffffffffffffffffff1673ffffffffffffffffffffffffffffffffffffffff163373ffffffffffffffffffffffffffffffffffffffff161480611f8f5750600360009054906101000a900473ffffffffffffffffffffffffffffffffffffffff1673ffffffffffffffffffffffffffffffffffffffff163373ffffffffffffffffffffffffffffffffffffffff16145b1515611f9a57600080fd5b84600b81905550600c54925064e8d4a510009150611fd885611fca620f4240600d5461254390919063ffffffff16565b61257b90919063ffffffff16565b9050611fed818361254390919063ffffffff16565b600c819055507f9a4a0b4ec1a5f7ce40f0bbb5afddc8a88ed1279508f5d92b5056dcffdff438d983600c54604051808381526020018281526020019250505060405180910390a160019350505050919050565b60138181548110151561204f57fe5b906000526020600020016000915054906101000a900473ffffffffffffffffffffffffffffffffffffffff1681565b60115481565b60008060009054906101000a900473ffffffffffffffffffffffffffffffffffffffff1673ffffffffffffffffffffffffffffffffffffffff163373ffffffffffffffffffffffffffffffffffffffff16148061212e5750600360009054906101000a900473ffffffffffffffffffffffffffffffffffffffff1673ffffffffffffffffffffffffffffffffffffffff163373ffffffffffffffffffffffffffffffffffffffff16145b151561213957600080fd5b600090505b828290508167ffffffffffffffff1610156121ec5760016014600085858567ffffffffffffffff16818110151561217157fe5b9050602002013573ffffffffffffffffffffffffffffffffffffffff1673ffffffffffffffffffffffffffffffffffffffff1673ffffffffffffffffffffffffffffffffffffffff16815260200190815260200160002060006101000a81548160ff021916908315150217905550808060010191505061213e565b505050565b600e5481565b60006103e84202905090565b601260009054906101000a900473ffffffffffffffffffffffffffffffffffffffff1681565b600160009054906101000a900473ffffffffffffffffffffffffffffffffffffffff1681565b6000809054906101000a900473ffffffffffffffffffffffffffffffffffffffff1673ffffffffffffffffffffffffffffffffffffffff163373ffffffffffffffffffffffffffffffffffffffff161415156122aa57600080fd5b80600160006101000a81548173ffffffffffffffffffffffffffffffffffffffff021916908373ffffffffffffffffffffffffffffffffffffffff16021790555080600260006101000a81548173ffffffffffffffffffffffffffffffffffffffff021916908373ffffffffffffffffffffffffffffffffffffffff16021790555050565b6000809054906101000a900473ffffffffffffffffffffffffffffffffffffffff1673ffffffffffffffffffffffffffffffffffffffff163373ffffffffffffffffffffffffffffffffffffffff1614151561238a57600080fd5b600073ffffffffffffffffffffffffffffffffffffffff168173ffffffffffffffffffffffffffffffffffffffff16141515156123c657600080fd5b8073ffffffffffffffffffffffffffffffffffffffff166000809054906101000a900473ffffffffffffffffffffffffffffffffffffffff1673ffffffffffffffffffffffffffffffffffffffff167f8be0079c531659141344cd1fd0a4f28419497f9722a3daafe3b4186f6b6457e060405160405180910390a3806000806101000a81548173ffffffffffffffffffffffffffffffffffffffff021916908373ffffffffffffffffffffffffffffffffffffffff16021790555050565b60146020528060005260406000206000915054906101000a900460ff1681565b6000809054906101000a900473ffffffffffffffffffffffffffffffffffffffff1673ffffffffffffffffffffffffffffffffffffffff163373ffffffffffffffffffffffffffffffffffffffff161415156124ff57600080fd5b80600360006101000a81548173ffffffffffffffffffffffffffffffffffffffff021916908373ffffffffffffffffffffffffffffffffffffffff16021790555050565b6000808314156125565760009050612575565b818302905081838281151561256757fe5b0414151561257157fe5b8090505b92915050565b6000818381151561258857fe5b04905092915050565b600082821115151561259f57fe5b818303905092915050565b600081830190508281101515156125bd57fe5b809050929150505600a165627a7a72305820d5aa8ffe67141f82a04075f5469c3657c702ad7aaf25c53924eab930d3caeea10029",
  "source": "pragma solidity ^0.4.23;\n\n// import \"./FoundationContracts/BaseToken.sol\";\nimport \"./FoundationContracts/Ownable.sol\";\nimport \"./TSD.sol\";\n\ncontract PVTSD is Ownable {\n    using SafeMath for uint256;\n    // set up access to main contract for the future distribution\n    TSD public dc;\n    // when the connection is set to the main contract, save a reference for event purposes\n    address public TSDContractAddress;\n    address private oracleAddress;\n\n    string public name = \"PRIVATE TSD COIN\";\n    string public symbol = \"PVTSD\";\n    uint256 public decimals = 18;\n    uint256 public decimalMultiplier = uint256(10) ** decimals;\n    uint256 public million = 1000000 * decimalMultiplier;\n    uint256 public totalSupply = 82500000 * decimalMultiplier;\n    uint256 public minPurchase = 100000000; // 1,000,000.00 USD in cents\n    uint256 public ethExchangeRate;\n    uint256 public exchangeRate;\n    uint256 public tokenPrice = 50; // 50 cents (USD)\n    uint256 public totalEthRaised = 0;\n    // Coordinated Universal Time (abbreviated to UTC) is the primary time standard by which the world regulates clocks and time.\n\n    // Start time \"Fri Jun 15 2018 00:00:00 GMT+1000 (AEST)\"\n    // new Date(1535724000000).toUTCString() => \"Thu, 14 Jun 2018 14:00:00 GMT\"\n    uint256 public startTime = 1528984800000;\n    // End time \"Fri Jul 15 2018 00:00:00 GMT+1000 (AEST)\"\n    // new Date(1531576800000).toUTCString() => \"Sat, 14 Jul 2018 14:00:00 GMT\"\n    uint256 public endTime = 1531576800000;\n    // Token release date 9 months post end date\n    // \"Mon April 15 2019 00:00:00 GMT+1000 (AEST)\"\n    // new Date(1555250400000).toUTCString() => \"Sun, 14 Apr 2019 14:00:00 GMT\"\n    uint256 public tokensReleaseDate = 1555250400000;\n\n    // Wallets\n    address public pvtFundsWallet;\n\n    // Array of participants used when distributing tokens to main contract\n    address[] public icoParticipants;\n\n    // whitelisted addresses\n    mapping (address => bool) public whiteListed;\n\n    // balances\n    mapping(address => uint256) balances;\n\n    // When all tokens are sold this value will be set to false\n    bool public tokensAvailable = true;\n\n    // Events\n    event EthRaisedUpdated(uint256 oldEthRaisedVal, uint256 newEthRaisedVal);\n    event ExhangeRateUpdated(uint256 prevExchangeRate, uint256 newExchangeRate);\n    event DistributedAllBalancesToTSDContract(address _presd, address _tsd);\n    event Transfer(address from, address to, uint256 value);\n    event UpdatedTotalSupply(uint256 oldSupply, uint256 newSupply);\n\n    constructor(\n        uint256 _exchangeRate\n    ) public {\n        pvtFundsWallet = owner;\n\n        // transfer suppy to the pvtFundsWallet\n        balances[pvtFundsWallet] = totalSupply;\n        emit Transfer(0x0, pvtFundsWallet, totalSupply);\n\n        // set up the exchangeRate\n        updateTheExchangeRate(_exchangeRate);\n    }\n\n    // Contract utility functions\n    function currentTime() public view returns (uint256) {\n        return now * 1000;\n    }\n\n    // Checks the balance of the address. ERC20 standard.\n    function balanceOf(address _address) public view returns (uint256) {\n        return balances[_address];\n    }\n\n    // Called externally to create whitelist for  sale.\n    // Only whitelisted addresses can participate in the ico.\n    function createWhiteListedMapping(address[] _addresses) external onlyRestricted {\n        for (uint64 i = 0; i < _addresses.length; i++) {\n            whiteListed[_addresses[i]] = true;\n        }\n    }\n\n    // Called externally to change the address of the oracle.\n    // The oracle updates the exchange rate based on the current ETH value.\n    function changeOracleAddress(address _newAddress) external onlyOwner {\n        oracleAddress = _newAddress;\n    }\n\n    // Updates the ETH => TSD exchange rate\n    // This is called when the contract is constructed and by the oracle to update the rate periodically\n    function updateTheExchangeRate(uint256 _newRate) public onlyRestricted returns (bool) {\n        ethExchangeRate = _newRate;\n        uint256 currentRate = exchangeRate;\n        uint256 oneSzabo = 1 szabo;\n        uint256 tokenPriceInSzabo = tokenPrice.mul(1000000).div(_newRate);\n        // The exchangerate is saved in Szabo.\n        exchangeRate = oneSzabo.mul(tokenPriceInSzabo);\n        emit ExhangeRateUpdated(currentRate, exchangeRate);\n        return true;\n    }\n\n    // Can check to see if an address is whitelisted\n    function isWhiteListed(address _address) external view returns (bool) {\n        if (whiteListed[_address]) {\n            return true;\n        } else {\n            return false;\n        }\n    }\n\n    // Buy functions\n    // This is an un-named fallback function that is set to payable to accept ether.\n    function() payable public {\n        buyTokens();\n    }\n\n    function buyTokens() payable public {\n        uint256 _currentTime = currentTime();\n        uint256 _minPurchaseInWei = minPurchase.mul(decimalMultiplier).div(ethExchangeRate);\n        require(tokensAvailable);\n        require(_currentTime >= startTime && _currentTime <= endTime);\n        require(msg.value >= _minPurchaseInWei);\n        require(whiteListed[msg.sender]);\n\n        // ETH received by spender\n        uint256 ethAmount = msg.value;\n        // token amount based on ETH / exchangeRate result\n        // exchange rate is 1 TSD => x ETH\n        // with a 40% discount attached\n        uint256 discountedExchangeRate = exchangeRate.mul(70).div(100);\n        // totalTokenAmount is the total tokens offered including the discount\n        // Multiply with the decimalMultiplier to get total tokens (to 18 decimal place)\n        uint256 totalTokenAmount = ethAmount.mul(decimalMultiplier).div(discountedExchangeRate);\n        // tokens avaialble to sell are the remaining tokens in the pvtFundsWallet\n        uint256 availableTokens = balances[pvtFundsWallet];\n        uint256 currentEthRaised = totalEthRaised;\n        uint256 ethRefund = 0;\n        uint256 unavailableTokens;\n\n        if (totalTokenAmount > availableTokens) {\n            // additional tokens that aren't avaialble to be sold\n            // tokenAmount is the tokens requested by buyer (not including the discount)\n            // availableTokens are all the tokens left in the supplying wallet i.e pvtFundsWallet\n            unavailableTokens = totalTokenAmount.sub(availableTokens);\n\n            // determine the unused ether amount by seeing how many tokens were surplus\n            // i.e 'availableTokens' and reverse calculating their ETH equivalent\n            // divide by decimalMultiplier as unavailableTokens are 10^18\n            ethRefund = unavailableTokens.mul(discountedExchangeRate).div(decimalMultiplier);\n            // subtract the refund amount from the eth amount received by the tx\n            ethAmount = ethAmount.sub(ethRefund);\n            // make the token purchase\n            // will equal to 0 after these substractions occur\n            balances[pvtFundsWallet] = balances[pvtFundsWallet].sub(availableTokens);\n\n            // add total tokens to the senders balances and Emit transfer event\n            balances[msg.sender] = balances[msg.sender].add(availableTokens);\n            emit Transfer(pvtFundsWallet, msg.sender, availableTokens);\n            // adding the buyer to the icoParticipants\n            icoParticipants.push(msg.sender);\n            // refund\n            if (ethRefund > 0) {\n                msg.sender.transfer(ethRefund);\n            }\n            // transfer ether to funds wallet\n            pvtFundsWallet.transfer(ethAmount);\n            totalEthRaised = totalEthRaised.add(ethAmount);\n            emit EthRaisedUpdated(currentEthRaised, totalEthRaised);\n            // close token sale as tokens are sold out\n            tokensAvailable = false;\n        } else {\n            require(totalTokenAmount <= availableTokens);\n            // complete transfer and emit an event\n            balances[pvtFundsWallet] = balances[pvtFundsWallet].sub(totalTokenAmount);\n            balances[msg.sender] = balances[msg.sender].add(totalTokenAmount);\n            icoParticipants.push(msg.sender);\n\n            // transfer ether to the wallet and emit and event regarding eth raised\n            pvtFundsWallet.transfer(ethAmount);\n            totalEthRaised = totalEthRaised.add(ethAmount);\n            emit Transfer(pvtFundsWallet, msg.sender, totalTokenAmount);\n            emit EthRaisedUpdated(currentEthRaised, totalEthRaised);\n        }\n    }\n\n    // After close functions\n\n    // Create an instance of the main contract\n    function setMainContractAddress(address _t) external onlyOwner{\n        dc = TSD(_t);\n        TSDContractAddress = _t;\n    }\n\n   // Burn any remaining tokens\n    function burnRemainingTokens() external onlyOwner returns (bool) {\n        require(currentTime() >= endTime);\n        if (balances[pvtFundsWallet] > 0) {\n            // Subtracting the unsold tokens from the total supply.\n            uint256 oldSupply = totalSupply;\n            totalSupply = totalSupply.sub(balances[pvtFundsWallet]);\n            balances[pvtFundsWallet] = 0;\n            emit UpdatedTotalSupply(oldSupply, totalSupply);\n        }\n\n        return true;\n    }\n\n    // This can only be called by the owner on or after the token release date.\n    // This will be a two step process.\n    // This function will be called by the pvtSaleTokenWallet\n    // This wallet will need to be approved in the main contract to make these distributions\n\n    function distributeTokens() external onlyOwner returns (bool) {\n        require(currentTime() >= tokensReleaseDate);\n        address pvtSaleTokenWallet = dc.pvtSaleTokenWallet();\n        for (uint64 i = 0; i < icoParticipants.length; i++) {\n            dc.transferFrom(pvtSaleTokenWallet, icoParticipants[i], balances[icoParticipants[i]]);\n            emit Transfer(pvtSaleTokenWallet, icoParticipants[i], balances[icoParticipants[i]]);\n        }\n\n        // Event to say distribution is complete\n        emit DistributedAllBalancesToTSDContract(address(this), TSDContractAddress);\n\n        // Boolean is returned to give us a success state.\n        return true;\n    }\n\n    // Destroys the contract\n    function selfDestruct() external onlyOwner {\n        selfdestruct(owner);\n    }\n\n    modifier onlyRestricted () {\n        require(msg.sender == owner || msg.sender == oracleAddress);\n        _;\n    }\n}\n",
  "sourcePath": "/Users/dandrory521/Documents/01-projects/tsd_dapp/contracts/PVTSD.sol",
  "compiler": {
    "name": "solc",
    "version": "0.4.23+commit.124ca40d.Emscripten.clang"
  },
  "schemaVersion": "2.0.0",
  "updatedAt": "2018-06-14T01:26:23.559Z"
}