{
  "contractName": "PVTSDMock",
  "abi": [
    {
      "constant": true,
      "inputs": [],
      "name": "name",
      "outputs": [
        {
          "name": "",
          "type": "string"
        }
      ],
      "payable": false,
      "stateMutability": "view",
      "type": "function"
    },
    {
      "constant": true,
      "inputs": [],
      "name": "ethExchangeRate",
      "outputs": [
        {
          "name": "",
          "type": "uint256"
        }
      ],
      "payable": false,
      "stateMutability": "view",
      "type": "function"
    },
    {
      "constant": true,
      "inputs": [],
      "name": "totalSupply",
      "outputs": [
        {
          "name": "",
          "type": "uint256"
        }
      ],
      "payable": false,
      "stateMutability": "view",
      "type": "function"
    },
    {
      "constant": false,
      "inputs": [
        {
          "name": "_distributionWallet",
          "type": "address"
        }
      ],
      "name": "setDistributionWallet",
      "outputs": [],
      "payable": false,
      "stateMutability": "nonpayable",
      "type": "function"
    },
    {
      "constant": true,
      "inputs": [],
      "name": "decimalMultiplier",
      "outputs": [
        {
          "name": "",
          "type": "uint256"
        }
      ],
      "payable": false,
      "stateMutability": "view",
      "type": "function"
    },
    {
      "constant": true,
      "inputs": [],
      "name": "decimals",
      "outputs": [
        {
          "name": "",
          "type": "uint256"
        }
      ],
      "payable": false,
      "stateMutability": "view",
      "type": "function"
    },
    {
      "constant": true,
      "inputs": [],
      "name": "endTime",
      "outputs": [
        {
          "name": "",
          "type": "uint256"
        }
      ],
      "payable": false,
      "stateMutability": "view",
      "type": "function"
    },
    {
      "constant": true,
      "inputs": [],
      "name": "minPurchase",
      "outputs": [
        {
          "name": "",
          "type": "uint256"
        }
      ],
      "payable": false,
      "stateMutability": "view",
      "type": "function"
    },
    {
      "constant": true,
      "inputs": [],
      "name": "exchangeRate",
      "outputs": [
        {
          "name": "",
          "type": "uint256"
        }
      ],
      "payable": false,
      "stateMutability": "view",
      "type": "function"
    },
    {
      "constant": false,
      "inputs": [
        {
          "name": "_startTime",
          "type": "uint256"
        }
      ],
      "name": "setStartTime",
      "outputs": [
        {
          "name": "",
          "type": "bool"
        }
      ],
      "payable": false,
      "stateMutability": "nonpayable",
      "type": "function"
    },
    {
      "constant": false,
      "inputs": [
        {
          "name": "_to",
          "type": "address"
        },
        {
          "name": "_value",
          "type": "uint256"
        }
      ],
      "name": "safeTransfer",
      "outputs": [
        {
          "name": "",
          "type": "bool"
        }
      ],
      "payable": false,
      "stateMutability": "nonpayable",
      "type": "function"
    },
    {
      "constant": true,
      "inputs": [],
      "name": "distributionWallet",
      "outputs": [
        {
          "name": "",
          "type": "address"
        }
      ],
      "payable": false,
      "stateMutability": "view",
      "type": "function"
    },
    {
      "constant": true,
      "inputs": [],
      "name": "TSDContractAddress",
      "outputs": [
        {
          "name": "",
          "type": "address"
        }
      ],
      "payable": false,
      "stateMutability": "view",
      "type": "function"
    },
    {
      "constant": true,
      "inputs": [],
      "name": "million",
      "outputs": [
        {
          "name": "",
          "type": "uint256"
        }
      ],
      "payable": false,
      "stateMutability": "view",
      "type": "function"
    },
    {
      "constant": true,
      "inputs": [],
      "name": "tokensAvailable",
      "outputs": [
        {
          "name": "",
          "type": "bool"
        }
      ],
      "payable": false,
      "stateMutability": "view",
      "type": "function"
    },
    {
      "constant": true,
      "inputs": [],
      "name": "currentDistributionIndex",
      "outputs": [
        {
          "name": "",
          "type": "uint256"
        }
      ],
      "payable": false,
      "stateMutability": "view",
      "type": "function"
    },
    {
      "constant": true,
      "inputs": [
        {
          "name": "_address",
          "type": "address"
        }
      ],
      "name": "balanceOf",
      "outputs": [
        {
          "name": "",
          "type": "uint256"
        }
      ],
      "payable": false,
      "stateMutability": "view",
      "type": "function"
    },
    {
      "constant": false,
      "inputs": [],
      "name": "renounceOwnership",
      "outputs": [],
      "payable": false,
      "stateMutability": "nonpayable",
      "type": "function"
    },
    {
      "constant": false,
      "inputs": [
        {
          "name": "_numberOfTransfers",
          "type": "uint256"
        }
      ],
      "name": "distributeTokens",
      "outputs": [
        {
          "name": "",
          "type": "bool"
        }
      ],
      "payable": false,
      "stateMutability": "nonpayable",
      "type": "function"
    },
    {
      "constant": true,
      "inputs": [],
      "name": "startTime",
      "outputs": [
        {
          "name": "",
          "type": "uint256"
        }
      ],
      "payable": false,
      "stateMutability": "view",
      "type": "function"
    },
    {
      "constant": true,
      "inputs": [],
      "name": "tokenPrice",
      "outputs": [
        {
          "name": "",
          "type": "uint256"
        }
      ],
      "payable": false,
      "stateMutability": "view",
      "type": "function"
    },
    {
      "constant": false,
      "inputs": [],
      "name": "burnRemainingTokens",
      "outputs": [
        {
          "name": "",
          "type": "bool"
        }
      ],
      "payable": false,
      "stateMutability": "nonpayable",
      "type": "function"
    },
    {
      "constant": false,
      "inputs": [
        {
          "name": "_address",
          "type": "address"
        }
      ],
      "name": "removeFromWhitelist",
      "outputs": [],
      "payable": false,
      "stateMutability": "nonpayable",
      "type": "function"
    },
    {
      "constant": true,
      "inputs": [],
      "name": "owner",
      "outputs": [
        {
          "name": "",
          "type": "address"
        }
      ],
      "payable": false,
      "stateMutability": "view",
      "type": "function"
    },
    {
      "constant": true,
      "inputs": [],
      "name": "symbol",
      "outputs": [
        {
          "name": "",
          "type": "string"
        }
      ],
      "payable": false,
      "stateMutability": "view",
      "type": "function"
    },
    {
      "constant": true,
      "inputs": [],
      "name": "tokenFundsWallet",
      "outputs": [
        {
          "name": "",
          "type": "address"
        }
      ],
      "payable": false,
      "stateMutability": "view",
      "type": "function"
    },
    {
      "constant": false,
      "inputs": [
        {
          "name": "_newRate",
          "type": "uint256"
        }
      ],
      "name": "updateTheExchangeRate",
      "outputs": [
        {
          "name": "",
          "type": "bool"
        }
      ],
      "payable": false,
      "stateMutability": "nonpayable",
      "type": "function"
    },
    {
      "constant": true,
      "inputs": [
        {
          "name": "",
          "type": "uint256"
        }
      ],
      "name": "icoParticipants",
      "outputs": [
        {
          "name": "",
          "type": "address"
        }
      ],
      "payable": false,
      "stateMutability": "view",
      "type": "function"
    },
    {
      "constant": true,
      "inputs": [],
      "name": "tokensReleaseDate",
      "outputs": [
        {
          "name": "",
          "type": "uint256"
        }
      ],
      "payable": false,
      "stateMutability": "view",
      "type": "function"
    },
    {
      "constant": true,
      "inputs": [],
      "name": "_now",
      "outputs": [
        {
          "name": "",
          "type": "uint256"
        }
      ],
      "payable": false,
      "stateMutability": "view",
      "type": "function"
    },
    {
      "constant": false,
      "inputs": [
        {
          "name": "_addresses",
          "type": "address[]"
        }
      ],
      "name": "createWhiteListedMapping",
      "outputs": [],
      "payable": false,
      "stateMutability": "nonpayable",
      "type": "function"
    },
    {
      "constant": true,
      "inputs": [],
      "name": "totalEthRaised",
      "outputs": [
        {
          "name": "",
          "type": "uint256"
        }
      ],
      "payable": false,
      "stateMutability": "view",
      "type": "function"
    },
    {
      "constant": false,
      "inputs": [
        {
          "name": "_endTime",
          "type": "uint256"
        }
      ],
      "name": "setEndTime",
      "outputs": [
        {
          "name": "",
          "type": "bool"
        }
      ],
      "payable": false,
      "stateMutability": "nonpayable",
      "type": "function"
    },
    {
      "constant": false,
      "inputs": [],
      "name": "buyTokens",
      "outputs": [],
      "payable": true,
      "stateMutability": "payable",
      "type": "function"
    },
    {
      "constant": true,
      "inputs": [],
      "name": "dc",
      "outputs": [
        {
          "name": "",
          "type": "address"
        }
      ],
      "payable": false,
      "stateMutability": "view",
      "type": "function"
    },
    {
      "constant": false,
      "inputs": [
        {
          "name": "_t",
          "type": "address"
        }
      ],
      "name": "setMainContractAddress",
      "outputs": [],
      "payable": false,
      "stateMutability": "nonpayable",
      "type": "function"
    },
    {
      "constant": false,
      "inputs": [
        {
          "name": "newOwner",
          "type": "address"
        }
      ],
      "name": "transferOwnership",
      "outputs": [],
      "payable": false,
      "stateMutability": "nonpayable",
      "type": "function"
    },
    {
      "constant": true,
      "inputs": [
        {
          "name": "",
          "type": "address"
        }
      ],
      "name": "whiteListed",
      "outputs": [
        {
          "name": "",
          "type": "bool"
        }
      ],
      "payable": false,
      "stateMutability": "view",
      "type": "function"
    },
    {
      "constant": false,
      "inputs": [
        {
          "name": "_newAddress",
          "type": "address"
        }
      ],
      "name": "changeOracleAddress",
      "outputs": [],
      "payable": false,
      "stateMutability": "nonpayable",
      "type": "function"
    },
    {
      "inputs": [
        {
          "name": "_currentTime",
          "type": "uint256"
        },
        {
          "name": "_exchangeRate",
          "type": "uint256"
        }
      ],
      "payable": false,
      "stateMutability": "nonpayable",
      "type": "constructor"
    },
    {
      "payable": true,
      "stateMutability": "payable",
      "type": "fallback"
    },
    {
      "anonymous": false,
      "inputs": [
        {
          "indexed": false,
          "name": "oldSupply",
          "type": "uint256"
        },
        {
          "indexed": false,
          "name": "newSupply",
          "type": "uint256"
        }
      ],
      "name": "UpdatedTotalSupply",
      "type": "event"
    },
    {
      "anonymous": false,
      "inputs": [
        {
          "indexed": false,
          "name": "_presd",
          "type": "address"
        },
        {
          "indexed": false,
          "name": "_tsd",
          "type": "address"
        },
        {
          "indexed": false,
          "name": "startIndex",
          "type": "uint256"
        },
        {
          "indexed": false,
          "name": "endIndex",
          "type": "uint256"
        }
      ],
      "name": "DistributedBalancesToTSDContract",
      "type": "event"
    },
    {
      "anonymous": false,
      "inputs": [
        {
          "indexed": false,
          "name": "_presd",
          "type": "address"
        },
        {
          "indexed": false,
          "name": "_tsd",
          "type": "address"
        },
        {
          "indexed": false,
          "name": "_finalWallet",
          "type": "address"
        }
      ],
      "name": "FinalDistributionToTSDContract",
      "type": "event"
    },
    {
      "anonymous": false,
      "inputs": [
        {
          "indexed": false,
          "name": "oldEthRaisedVal",
          "type": "uint256"
        },
        {
          "indexed": false,
          "name": "newEthRaisedVal",
          "type": "uint256"
        }
      ],
      "name": "EthRaisedUpdated",
      "type": "event"
    },
    {
      "anonymous": false,
      "inputs": [
        {
          "indexed": false,
          "name": "prevExchangeRate",
          "type": "uint256"
        },
        {
          "indexed": false,
          "name": "newExchangeRate",
          "type": "uint256"
        }
      ],
      "name": "ExchangeRateUpdated",
      "type": "event"
    },
    {
      "anonymous": false,
      "inputs": [
        {
          "indexed": false,
          "name": "from",
          "type": "address"
        },
        {
          "indexed": false,
          "name": "to",
          "type": "address"
        },
        {
          "indexed": false,
          "name": "value",
          "type": "uint256"
        }
      ],
      "name": "Transfer",
      "type": "event"
    },
    {
      "anonymous": false,
      "inputs": [
        {
          "indexed": false,
          "name": "from",
          "type": "address"
        },
        {
          "indexed": false,
          "name": "to",
          "type": "address"
        },
        {
          "indexed": false,
          "name": "value",
          "type": "uint256"
        }
      ],
      "name": "SafeTransfer",
      "type": "event"
    },
    {
      "anonymous": false,
      "inputs": [
        {
          "indexed": true,
          "name": "previousOwner",
          "type": "address"
        }
      ],
      "name": "OwnershipRenounced",
      "type": "event"
    },
    {
      "anonymous": false,
      "inputs": [
        {
          "indexed": true,
          "name": "previousOwner",
          "type": "address"
        },
        {
          "indexed": true,
          "name": "newOwner",
          "type": "address"
        }
      ],
      "name": "OwnershipTransferred",
      "type": "event"
    },
    {
      "constant": true,
      "inputs": [],
      "name": "currentTime",
      "outputs": [
        {
          "name": "",
          "type": "uint256"
        }
      ],
      "payable": false,
      "stateMutability": "view",
      "type": "function"
    },
    {
      "constant": false,
      "inputs": [
        {
          "name": "_newTime",
          "type": "uint256"
        }
      ],
      "name": "changeTime",
      "outputs": [],
      "payable": false,
      "stateMutability": "nonpayable",
      "type": "function"
    }
  ],
  "bytecode": "0x60806040526012600555600554600a0a600655600654620f42400260075560326008556000600b556001601260006101000a81548160ff02191690831515021790555060006014556040805190810160405280601081526020017f505249564154452054534420434f494e0000000000000000000000000000000081525060159080519060200190620000949291906200063a565b506040805190810160405280600581526020017f505654534400000000000000000000000000000000000000000000000000000081525060169080519060200190620000e29291906200063a565b50624c4b40601755348015620000f757600080fd5b5060405160408062004017833981018060405281019080805190602001909291908051906020019092919050505080336000806101000a81548173ffffffffffffffffffffffffffffffffffffffff021916908373ffffffffffffffffffffffffffffffffffffffff1602179055506007546090026002819055506000809054906101000a900473ffffffffffffffffffffffffffffffffffffffff16601260016101000a81548173ffffffffffffffffffffffffffffffffffffffff021916908373ffffffffffffffffffffffffffffffffffffffff16021790555060025460116000601260019054906101000a900473ffffffffffffffffffffffffffffffffffffffff1673ffffffffffffffffffffffffffffffffffffffff1673ffffffffffffffffffffffffffffffffffffffff168152602001908152602001600020819055507fddf252ad1be2c89b69c2b068fc378daa952ba7f163c4a11628f55a4df523b3ef6000601260019054906101000a900473ffffffffffffffffffffffffffffffffffffffff16600254604051808473ffffffffffffffffffffffffffffffffffffffff1681526020018373ffffffffffffffffffffffffffffffffffffffff1673ffffffffffffffffffffffffffffffffffffffff168152602001828152602001935050505060405180910390a162000304816200033c640100000000026401000000009004565b50650163fe988b00600c8190555065016499175300600d8190555065016a1c25cb00600e8190555050816018819055505050620006e9565b60008060008073ffffffffffffffffffffffffffffffffffffffff163373ffffffffffffffffffffffffffffffffffffffff16141515156200037d57600080fd5b6000809054906101000a900473ffffffffffffffffffffffffffffffffffffffff1673ffffffffffffffffffffffffffffffffffffffff163373ffffffffffffffffffffffffffffffffffffffff161480620004265750600460009054906101000a900473ffffffffffffffffffffffffffffffffffffffff1673ffffffffffffffffffffffffffffffffffffffff163373ffffffffffffffffffffffffffffffffffffffff16145b15156200049b576040517f08c379a00000000000000000000000000000000000000000000000000000000081526004018080602001828103825260138152602001807f556e617574686f72697a65642077616c6c65740000000000000000000000000081525060200191505060405180910390fd5b6000841415151562000515576040517f08c379a000000000000000000000000000000000000000000000000000000000815260040180806020018281038252601d8152602001807f6e6577204554483d3e55534420726174652063616e6e6f74206265203000000081525060200191505060405180910390fd5b83600981905550600a54915064e8d4a510009050620005958462000578620f42406200055b60085486620005e7640100000000026200386f179091906401000000009004565b620005e7640100000000026200386f179091906401000000009004565b6200062364010000000002620038a7179091906401000000009004565b600a819055507fc8d1043f24843c0a1c9251fdc30017d84e87498fbcf232af9f86816b5e182bde82600a54604051808381526020018281526020019250505060405180910390a1600192505050919050565b600080831415620005fc57600090506200061d565b81830290508183828115156200060e57fe5b041415156200061957fe5b8090505b92915050565b600081838115156200063157fe5b04905092915050565b828054600181600116156101000203166002900490600052602060002090601f016020900481019282601f106200067d57805160ff1916838001178555620006ae565b82800160010185558215620006ae579182015b82811115620006ad57825182559160200191906001019062000690565b5b509050620006bd9190620006c1565b5090565b620006e691905b80821115620006e2576000816000905550600101620006c8565b5090565b90565b61391e80620006f96000396000f3006080604052600436106101f9576000357c0100000000000000000000000000000000000000000000000000000000900463ffffffff16806306fdde03146102035780630b961e481461029357806318160ddd146102be57806319ecb166146102e95780633082538f1461032c578063313ce567146103575780633197cbb61461038257806333b5b62e146103ad5780633ba0b9a9146103d85780633e0a322d14610403578063423f6cef14610448578063467d0119146104ad5780634a54839d146105045780634e9c6b1f1461055b57806360659a92146105865780636ff85ea9146105b557806370a08231146105e0578063715018a6146106375780637366794e1461064e57806378e97925146106935780637974f8fe146106be5780637ff9b596146106eb57806383408d73146107165780638ab1d681146107455780638da5cb5b1461078857806395d89b41146107df578063972f3d331461086f578063a229c614146108c6578063a256ea3a1461090b578063afe07f5914610978578063b3bb8cd4146109a3578063b9cdd19b146109ce578063c9e904be14610a09578063ccb98ffc14610a34578063d0febe4c14610a79578063d18e81b314610a83578063d8a531a614610aae578063ec9da59e14610b05578063f2fde38b14610b48578063fa0fca8414610b8b578063fb349dbd14610be6575b610201610c29565b005b34801561020f57600080fd5b5061021861187f565b6040518080602001828103825283818151815260200191508051906020019080838360005b8381101561025857808201518184015260208101905061023d565b50505050905090810190601f1680156102855780820380516001836020036101000a031916815260200191505b509250505060405180910390f35b34801561029f57600080fd5b506102a861191d565b6040518082815260200191505060405180910390f35b3480156102ca57600080fd5b506102d3611923565b6040518082815260200191505060405180910390f35b3480156102f557600080fd5b5061032a600480360381019080803573ffffffffffffffffffffffffffffffffffffffff169060200190929190505050611929565b005b34801561033857600080fd5b506103416119c8565b6040518082815260200191505060405180910390f35b34801561036357600080fd5b5061036c6119ce565b6040518082815260200191505060405180910390f35b34801561038e57600080fd5b506103976119d4565b6040518082815260200191505060405180910390f35b3480156103b957600080fd5b506103c26119da565b6040518082815260200191505060405180910390f35b3480156103e457600080fd5b506103ed6119e0565b6040518082815260200191505060405180910390f35b34801561040f57600080fd5b5061042e600480360381019080803590602001909291905050506119e6565b604051808215151515815260200191505060405180910390f35b34801561045457600080fd5b50610493600480360381019080803573ffffffffffffffffffffffffffffffffffffffff16906020019092919080359060200190929190505050611a63565b604051808215151515815260200191505060405180910390f35b3480156104b957600080fd5b506104c2611ed4565b604051808273ffffffffffffffffffffffffffffffffffffffff1673ffffffffffffffffffffffffffffffffffffffff16815260200191505060405180910390f35b34801561051057600080fd5b50610519611efa565b604051808273ffffffffffffffffffffffffffffffffffffffff1673ffffffffffffffffffffffffffffffffffffffff16815260200191505060405180910390f35b34801561056757600080fd5b50610570611f20565b6040518082815260200191505060405180910390f35b34801561059257600080fd5b5061059b611f26565b604051808215151515815260200191505060405180910390f35b3480156105c157600080fd5b506105ca611f39565b6040518082815260200191505060405180910390f35b3480156105ec57600080fd5b50610621600480360381019080803573ffffffffffffffffffffffffffffffffffffffff169060200190929190505050611f3f565b6040518082815260200191505060405180910390f35b34801561064357600080fd5b5061064c611f88565b005b34801561065a57600080fd5b506106796004803603810190808035906020019092919050505061208a565b604051808215151515815260200191505060405180910390f35b34801561069f57600080fd5b506106a8612a9a565b6040518082815260200191505060405180910390f35b3480156106ca57600080fd5b506106e960048036038101908080359060200190929190505050612aa0565b005b3480156106f757600080fd5b50610700612aaa565b6040518082815260200191505060405180910390f35b34801561072257600080fd5b5061072b612ab0565b604051808215151515815260200191505060405180910390f35b34801561075157600080fd5b50610786600480360381019080803573ffffffffffffffffffffffffffffffffffffffff169060200190929190505050612d51565b005b34801561079457600080fd5b5061079d612efb565b604051808273ffffffffffffffffffffffffffffffffffffffff1673ffffffffffffffffffffffffffffffffffffffff16815260200191505060405180910390f35b3480156107eb57600080fd5b506107f4612f20565b6040518080602001828103825283818151815260200191508051906020019080838360005b83811015610834578082015181840152602081019050610819565b50505050905090810190601f1680156108615780820380516001836020036101000a031916815260200191505b509250505060405180910390f35b34801561087b57600080fd5b50610884612fbe565b604051808273ffffffffffffffffffffffffffffffffffffffff1673ffffffffffffffffffffffffffffffffffffffff16815260200191505060405180910390f35b3480156108d257600080fd5b506108f160048036038101908080359060200190929190505050612fe4565b604051808215151515815260200191505060405180910390f35b34801561091757600080fd5b506109366004803603810190808035906020019092919050505061325b565b604051808273ffffffffffffffffffffffffffffffffffffffff1673ffffffffffffffffffffffffffffffffffffffff16815260200191505060405180910390f35b34801561098457600080fd5b5061098d613299565b6040518082815260200191505060405180910390f35b3480156109af57600080fd5b506109b861329f565b6040518082815260200191505060405180910390f35b3480156109da57600080fd5b50610a076004803603810190808035906020019082018035906020019190919293919293905050506132a5565b005b348015610a1557600080fd5b50610a1e6134b6565b6040518082815260200191505060405180910390f35b348015610a4057600080fd5b50610a5f600480360381019080803590602001909291905050506134bc565b604051808215151515815260200191505060405180910390f35b610a81610c29565b005b348015610a8f57600080fd5b50610a9861354b565b6040518082815260200191505060405180910390f35b348015610aba57600080fd5b50610ac3613555565b604051808273ffffffffffffffffffffffffffffffffffffffff1673ffffffffffffffffffffffffffffffffffffffff16815260200191505060405180910390f35b348015610b1157600080fd5b50610b46600480360381019080803573ffffffffffffffffffffffffffffffffffffffff16906020019092919050505061357b565b005b348015610b5457600080fd5b50610b89600480360381019080803573ffffffffffffffffffffffffffffffffffffffff16906020019092919050505061365b565b005b348015610b9757600080fd5b50610bcc600480360381019080803573ffffffffffffffffffffffffffffffffffffffff1690602001909291905050506137b0565b604051808215151515815260200191505060405180910390f35b348015610bf257600080fd5b50610c27600480360381019080803573ffffffffffffffffffffffffffffffffffffffff1690602001909291905050506137d0565b005b6000806000806000806000806000610c3f61354b565b9850610c6c600954610c5e60065460175461386f90919063ffffffff16565b6138a790919063ffffffff16565b9750601260009054906101000a900460ff161515610cf2576040517f08c379a00000000000000000000000000000000000000000000000000000000081526004018080602001828103825260188152602001807f6e6f206d6f726520746f6b656e7320617661696c61626c65000000000000000081525060200191505060405180910390fd5b600c548910158015610d065750600d548911155b1515610da0576040517f08c379a00000000000000000000000000000000000000000000000000000000081526004018080602001828103825260308152602001807f63757272656e742074696d65206973206e6f7420696e2074686520707572636881526020017f6173652077696e646f77206672616d650000000000000000000000000000000081525060400191505060405180910390fd5b601060003373ffffffffffffffffffffffffffffffffffffffff1673ffffffffffffffffffffffffffffffffffffffff16815260200190815260200160002060009054906101000a900460ff161515610e61576040517f08c379a00000000000000000000000000000000000000000000000000000000081526004018080602001828103825260178152602001807f75736572206973206e6f742077686974656c697374656400000000000000000081525060200191505060405180910390fd5b873410151515610eff576040517f08c379a00000000000000000000000000000000000000000000000000000000081526004018080602001828103825260258152602001807f616d6f756e742073656e742069732062656c6f77206d696e696d756d2070757281526020017f636861736500000000000000000000000000000000000000000000000000000081525060400191505060405180910390fd5b349650610f2b6064610f1d6046600a5461386f90919063ffffffff16565b6138a790919063ffffffff16565b9550610f5486610f466006548a61386f90919063ffffffff16565b6138a790919063ffffffff16565b945060116000601260019054906101000a900473ffffffffffffffffffffffffffffffffffffffff1673ffffffffffffffffffffffffffffffffffffffff1673ffffffffffffffffffffffffffffffffffffffff168152602001908152602001600020549350600b549250600091508385111561143257610fde84866138bd90919063ffffffff16565b9050611007600654610ff9888461386f90919063ffffffff16565b6138a790919063ffffffff16565b915061101c82886138bd90919063ffffffff16565b96506110928460116000601260019054906101000a900473ffffffffffffffffffffffffffffffffffffffff1673ffffffffffffffffffffffffffffffffffffffff1673ffffffffffffffffffffffffffffffffffffffff168152602001908152602001600020546138bd90919063ffffffff16565b60116000601260019054906101000a900473ffffffffffffffffffffffffffffffffffffffff1673ffffffffffffffffffffffffffffffffffffffff1673ffffffffffffffffffffffffffffffffffffffff168152602001908152602001600020819055506000601160003373ffffffffffffffffffffffffffffffffffffffff1673ffffffffffffffffffffffffffffffffffffffff1681526020019081526020016000205414156111a657600f3390806001815401808255809150509060018203906000526020600020016000909192909190916101000a81548173ffffffffffffffffffffffffffffffffffffffff021916908373ffffffffffffffffffffffffffffffffffffffff160217905550505b6111f884601160003373ffffffffffffffffffffffffffffffffffffffff1673ffffffffffffffffffffffffffffffffffffffff168152602001908152602001600020546138d690919063ffffffff16565b601160003373ffffffffffffffffffffffffffffffffffffffff1673ffffffffffffffffffffffffffffffffffffffff168152602001908152602001600020819055507fddf252ad1be2c89b69c2b068fc378daa952ba7f163c4a11628f55a4df523b3ef601260019054906101000a900473ffffffffffffffffffffffffffffffffffffffff163386604051808473ffffffffffffffffffffffffffffffffffffffff1673ffffffffffffffffffffffffffffffffffffffff1681526020018373ffffffffffffffffffffffffffffffffffffffff1673ffffffffffffffffffffffffffffffffffffffff168152602001828152602001935050505060405180910390a1600082111561134d573373ffffffffffffffffffffffffffffffffffffffff166108fc839081150290604051600060405180830381858888f1935050505015801561134b573d6000803e3d6000fd5b505b601260019054906101000a900473ffffffffffffffffffffffffffffffffffffffff1673ffffffffffffffffffffffffffffffffffffffff166108fc889081150290604051600060405180830381858888f193505050501580156113b5573d6000803e3d6000fd5b506113cb87600b546138d690919063ffffffff16565b600b819055507f4014ce514c76bad08328a2a6046bac14007f7aad2c56c84c66acf8ca1c64bee883600b54604051808381526020018281526020019250505060405180910390a16000601260006101000a81548160ff021916908315150217905550611874565b8385111515156114d0576040517f08c379a00000000000000000000000000000000000000000000000000000000081526004018080602001828103825260308152602001807f746f74616c546f6b656e416d6f756e742069732067726561746572207468616e81526020017f20617661696c61626c65546f6b656e730000000000000000000000000000000081525060400191505060405180910390fd5b6000601160003373ffffffffffffffffffffffffffffffffffffffff1673ffffffffffffffffffffffffffffffffffffffff16815260200190815260200160002054141561157f57600f3390806001815401808255809150509060018203906000526020600020016000909192909190916101000a81548173ffffffffffffffffffffffffffffffffffffffff021916908373ffffffffffffffffffffffffffffffffffffffff160217905550505b6115f38560116000601260019054906101000a900473ffffffffffffffffffffffffffffffffffffffff1673ffffffffffffffffffffffffffffffffffffffff1673ffffffffffffffffffffffffffffffffffffffff168152602001908152602001600020546138bd90919063ffffffff16565b60116000601260019054906101000a900473ffffffffffffffffffffffffffffffffffffffff1673ffffffffffffffffffffffffffffffffffffffff1673ffffffffffffffffffffffffffffffffffffffff168152602001908152602001600020819055506116aa85601160003373ffffffffffffffffffffffffffffffffffffffff1673ffffffffffffffffffffffffffffffffffffffff168152602001908152602001600020546138d690919063ffffffff16565b601160003373ffffffffffffffffffffffffffffffffffffffff1673ffffffffffffffffffffffffffffffffffffffff16815260200190815260200160002081905550601260019054906101000a900473ffffffffffffffffffffffffffffffffffffffff1673ffffffffffffffffffffffffffffffffffffffff166108fc889081150290604051600060405180830381858888f19350505050158015611755573d6000803e3d6000fd5b5061176b87600b546138d690919063ffffffff16565b600b819055507fddf252ad1be2c89b69c2b068fc378daa952ba7f163c4a11628f55a4df523b3ef601260019054906101000a900473ffffffffffffffffffffffffffffffffffffffff163387604051808473ffffffffffffffffffffffffffffffffffffffff1673ffffffffffffffffffffffffffffffffffffffff1681526020018373ffffffffffffffffffffffffffffffffffffffff1673ffffffffffffffffffffffffffffffffffffffff168152602001828152602001935050505060405180910390a17f4014ce514c76bad08328a2a6046bac14007f7aad2c56c84c66acf8ca1c64bee883600b54604051808381526020018281526020019250505060405180910390a15b505050505050505050565b60158054600181600116156101000203166002900480601f0160208091040260200160405190810160405280929190818152602001828054600181600116156101000203166002900480156119155780601f106118ea57610100808354040283529160200191611915565b820191906000526020600020905b8154815290600101906020018083116118f857829003601f168201915b505050505081565b60095481565b60025481565b6000809054906101000a900473ffffffffffffffffffffffffffffffffffffffff1673ffffffffffffffffffffffffffffffffffffffff163373ffffffffffffffffffffffffffffffffffffffff1614151561198457600080fd5b80601360006101000a81548173ffffffffffffffffffffffffffffffffffffffff021916908373ffffffffffffffffffffffffffffffffffffffff16021790555050565b60065481565b60055481565b600d5481565b60175481565b600a5481565b60008060009054906101000a900473ffffffffffffffffffffffffffffffffffffffff1673ffffffffffffffffffffffffffffffffffffffff163373ffffffffffffffffffffffffffffffffffffffff16141515611a4357600080fd5b600d5482101515611a5357600080fd5b81600c8190555060019050919050565b60008060009054906101000a900473ffffffffffffffffffffffffffffffffffffffff1673ffffffffffffffffffffffffffffffffffffffff163373ffffffffffffffffffffffffffffffffffffffff16141515611ac057600080fd5b600073ffffffffffffffffffffffffffffffffffffffff168373ffffffffffffffffffffffffffffffffffffffff1614151515611afc57600080fd5b601160003373ffffffffffffffffffffffffffffffffffffffff1673ffffffffffffffffffffffffffffffffffffffff168152602001908152602001600020548211151515611bb3576040517f08c379a000000000000000000000000000000000000000000000000000000000815260040180806020018281038252600f8152602001807f62616c616e636520746f6f206c6f77000000000000000000000000000000000081525060200191505060405180910390fd5b6000601160008573ffffffffffffffffffffffffffffffffffffffff1673ffffffffffffffffffffffffffffffffffffffff168152602001908152602001600020541415611c6257600f8390806001815401808255809150509060018203906000526020600020016000909192909190916101000a81548173ffffffffffffffffffffffffffffffffffffffff021916908373ffffffffffffffffffffffffffffffffffffffff160217905550505b611cb482601160003373ffffffffffffffffffffffffffffffffffffffff1673ffffffffffffffffffffffffffffffffffffffff168152602001908152602001600020546138bd90919063ffffffff16565b601160003373ffffffffffffffffffffffffffffffffffffffff1673ffffffffffffffffffffffffffffffffffffffff16815260200190815260200160002081905550611d4982601160008673ffffffffffffffffffffffffffffffffffffffff1673ffffffffffffffffffffffffffffffffffffffff168152602001908152602001600020546138d690919063ffffffff16565b601160008573ffffffffffffffffffffffffffffffffffffffff1673ffffffffffffffffffffffffffffffffffffffff168152602001908152602001600020819055507fddf252ad1be2c89b69c2b068fc378daa952ba7f163c4a11628f55a4df523b3ef338484604051808473ffffffffffffffffffffffffffffffffffffffff1673ffffffffffffffffffffffffffffffffffffffff1681526020018373ffffffffffffffffffffffffffffffffffffffff1673ffffffffffffffffffffffffffffffffffffffff168152602001828152602001935050505060405180910390a17ff1e4d924660e3140f9ee5a4c60b903dbb2788763230b3033aa2cfc07a9bfe163338484604051808473ffffffffffffffffffffffffffffffffffffffff1673ffffffffffffffffffffffffffffffffffffffff1681526020018373ffffffffffffffffffffffffffffffffffffffff1673ffffffffffffffffffffffffffffffffffffffff168152602001828152602001935050505060405180910390a16001905092915050565b601360009054906101000a900473ffffffffffffffffffffffffffffffffffffffff1681565b600360009054906101000a900473ffffffffffffffffffffffffffffffffffffffff1681565b60075481565b601260009054906101000a900460ff1681565b60145481565b6000601160008373ffffffffffffffffffffffffffffffffffffffff1673ffffffffffffffffffffffffffffffffffffffff168152602001908152602001600020549050919050565b6000809054906101000a900473ffffffffffffffffffffffffffffffffffffffff1673ffffffffffffffffffffffffffffffffffffffff163373ffffffffffffffffffffffffffffffffffffffff16141515611fe357600080fd5b6000809054906101000a900473ffffffffffffffffffffffffffffffffffffffff1673ffffffffffffffffffffffffffffffffffffffff167ff8df31144d9c2f0f6b59d69b8b98abd5459d07f2742c4df920b25aae33c6482060405160405180910390a260008060006101000a81548173ffffffffffffffffffffffffffffffffffffffff021916908373ffffffffffffffffffffffffffffffffffffffff160217905550565b60008060008073ffffffffffffffffffffffffffffffffffffffff163373ffffffffffffffffffffffffffffffffffffffff16141515156120ca57600080fd5b6000809054906101000a900473ffffffffffffffffffffffffffffffffffffffff1673ffffffffffffffffffffffffffffffffffffffff163373ffffffffffffffffffffffffffffffffffffffff1614806121725750600460009054906101000a900473ffffffffffffffffffffffffffffffffffffffff1673ffffffffffffffffffffffffffffffffffffffff163373ffffffffffffffffffffffffffffffffffffffff16145b15156121e6576040517f08c379a00000000000000000000000000000000000000000000000000000000081526004018080602001828103825260138152602001807f556e617574686f72697a65642077616c6c65740000000000000000000000000081525060200191505060405180910390fd5b600e546121f161354b565b1015151561228d576040517f08c379a000000000000000000000000000000000000000000000000000000000815260040180806020018281038252602b8152602001807f63616e206f6e6c79206469737472696275746520616674657220746f6b656e7381526020017f52656c656173654461746500000000000000000000000000000000000000000081525060400191505060405180910390fd5b60008411151561232b576040517f08c379a000000000000000000000000000000000000000000000000000000000815260040180806020018281038252602a8152602001807f6e756d626572206f66207472616e7366657273206d757374206265206d6f726581526020017f207468616e207a65726f0000000000000000000000000000000000000000000081525060400191505060405180910390fd5b600f805490506014541015156123cf576040517f08c379a00000000000000000000000000000000000000000000000000000000081526004018080602001828103825260288152602001807f616c6c20746f6b656e732068617665206265656e20646973747269627574656481526020017f20616c726561647900000000000000000000000000000000000000000000000081525060400191505060405180910390fd5b6123e4846014546138d690919063ffffffff16565b915060145490505b818110156129bd57600060116000600f8481548110151561240957fe5b9060005260206000200160009054906101000a900473ffffffffffffffffffffffffffffffffffffffff1673ffffffffffffffffffffffffffffffffffffffff1673ffffffffffffffffffffffffffffffffffffffff1681526020019081526020016000205414151561286f57600160009054906101000a900473ffffffffffffffffffffffffffffffffffffffff1673ffffffffffffffffffffffffffffffffffffffff166323b872dd601360009054906101000a900473ffffffffffffffffffffffffffffffffffffffff16600f848154811015156124e657fe5b9060005260206000200160009054906101000a900473ffffffffffffffffffffffffffffffffffffffff1660116000600f8781548110151561252457fe5b9060005260206000200160009054906101000a900473ffffffffffffffffffffffffffffffffffffffff1673ffffffffffffffffffffffffffffffffffffffff1673ffffffffffffffffffffffffffffffffffffffff168152602001908152602001600020546040518463ffffffff167c0100000000000000000000000000000000000000000000000000000000028152600401808473ffffffffffffffffffffffffffffffffffffffff1673ffffffffffffffffffffffffffffffffffffffff1681526020018373ffffffffffffffffffffffffffffffffffffffff1673ffffffffffffffffffffffffffffffffffffffff1681526020018281526020019350505050602060405180830381600087803b15801561264257600080fd5b505af1158015612656573d6000803e3d6000fd5b505050506040513d602081101561266c57600080fd5b8101908080519060200190929190505050507fddf252ad1be2c89b69c2b068fc378daa952ba7f163c4a11628f55a4df523b3ef601360009054906101000a900473ffffffffffffffffffffffffffffffffffffffff16600f838154811015156126d157fe5b9060005260206000200160009054906101000a900473ffffffffffffffffffffffffffffffffffffffff1660116000600f8681548110151561270f57fe5b9060005260206000200160009054906101000a900473ffffffffffffffffffffffffffffffffffffffff1673ffffffffffffffffffffffffffffffffffffffff1673ffffffffffffffffffffffffffffffffffffffff16815260200190815260200160002054604051808473ffffffffffffffffffffffffffffffffffffffff1673ffffffffffffffffffffffffffffffffffffffff1681526020018373ffffffffffffffffffffffffffffffffffffffff1673ffffffffffffffffffffffffffffffffffffffff168152602001828152602001935050505060405180910390a1600060116000600f8481548110151561280557fe5b9060005260206000200160009054906101000a900473ffffffffffffffffffffffffffffffffffffffff1673ffffffffffffffffffffffffffffffffffffffff1673ffffffffffffffffffffffffffffffffffffffff168152602001908152602001600020819055505b6001600f80549050038114156129b0577fd897b6acc1a2f53be7cca2c1199adbf53022b417c7d694535317c7f7fd0cfab730600360009054906101000a900473ffffffffffffffffffffffffffffffffffffffff16600f848154811015156128d357fe5b9060005260206000200160009054906101000a900473ffffffffffffffffffffffffffffffffffffffff16604051808473ffffffffffffffffffffffffffffffffffffffff1673ffffffffffffffffffffffffffffffffffffffff1681526020018373ffffffffffffffffffffffffffffffffffffffff1673ffffffffffffffffffffffffffffffffffffffff1681526020018273ffffffffffffffffffffffffffffffffffffffff1673ffffffffffffffffffffffffffffffffffffffff168152602001935050505060405180910390a16001810191506129bd565b80806001019150506123ec565b7fb602d53c9c2dd706fac86a91d5aa373a8a92beeedbb88d91b0bcdf061edfbf1b30600360009054906101000a900473ffffffffffffffffffffffffffffffffffffffff1660145485604051808573ffffffffffffffffffffffffffffffffffffffff1673ffffffffffffffffffffffffffffffffffffffff1681526020018473ffffffffffffffffffffffffffffffffffffffff1673ffffffffffffffffffffffffffffffffffffffff16815260200183815260200182815260200194505050505060405180910390a181601481905550600192505050919050565b600c5481565b8060188190555050565b60085481565b6000806000809054906101000a900473ffffffffffffffffffffffffffffffffffffffff1673ffffffffffffffffffffffffffffffffffffffff163373ffffffffffffffffffffffffffffffffffffffff16141515612b0e57600080fd5b600d54612b1961354b565b10151515612bb5576040517f08c379a00000000000000000000000000000000000000000000000000000000081526004018080602001828103825260338152602001807f63616e206f6e6c79206275726e20746f6b656e7320616674657220746f6b656e81526020017f2073616c652068617320636f6e636c756465640000000000000000000000000081525060400191505060405180910390fd5b600060116000601260019054906101000a900473ffffffffffffffffffffffffffffffffffffffff1673ffffffffffffffffffffffffffffffffffffffff1673ffffffffffffffffffffffffffffffffffffffff168152602001908152602001600020541115612d49576002549050612c9a60116000601260019054906101000a900473ffffffffffffffffffffffffffffffffffffffff1673ffffffffffffffffffffffffffffffffffffffff1673ffffffffffffffffffffffffffffffffffffffff168152602001908152602001600020546002546138bd90919063ffffffff16565b600281905550600060116000601260019054906101000a900473ffffffffffffffffffffffffffffffffffffffff1673ffffffffffffffffffffffffffffffffffffffff1673ffffffffffffffffffffffffffffffffffffffff168152602001908152602001600020819055507f8a96e7229e5b018dff0425d91c96d3f7d93cae0b891ff020eef8b1686e1a6a1081600254604051808381526020018281526020019250505060405180910390a15b600191505090565b600073ffffffffffffffffffffffffffffffffffffffff163373ffffffffffffffffffffffffffffffffffffffff1614151515612d8d57600080fd5b6000809054906101000a900473ffffffffffffffffffffffffffffffffffffffff1673ffffffffffffffffffffffffffffffffffffffff163373ffffffffffffffffffffffffffffffffffffffff161480612e355750600460009054906101000a900473ffffffffffffffffffffffffffffffffffffffff1673ffffffffffffffffffffffffffffffffffffffff163373ffffffffffffffffffffffffffffffffffffffff16145b1515612ea9576040517f08c379a00000000000000000000000000000000000000000000000000000000081526004018080602001828103825260138152602001807f556e617574686f72697a65642077616c6c65740000000000000000000000000081525060200191505060405180910390fd5b601060008273ffffffffffffffffffffffffffffffffffffffff1673ffffffffffffffffffffffffffffffffffffffff16815260200190815260200160002060006101000a81549060ff021916905550565b6000809054906101000a900473ffffffffffffffffffffffffffffffffffffffff1681565b60168054600181600116156101000203166002900480601f016020809104026020016040519081016040528092919081815260200182805460018160011615610100020316600290048015612fb65780601f10612f8b57610100808354040283529160200191612fb6565b820191906000526020600020905b815481529060010190602001808311612f9957829003601f168201915b505050505081565b601260019054906101000a900473ffffffffffffffffffffffffffffffffffffffff1681565b60008060008073ffffffffffffffffffffffffffffffffffffffff163373ffffffffffffffffffffffffffffffffffffffff161415151561302457600080fd5b6000809054906101000a900473ffffffffffffffffffffffffffffffffffffffff1673ffffffffffffffffffffffffffffffffffffffff163373ffffffffffffffffffffffffffffffffffffffff1614806130cc5750600460009054906101000a900473ffffffffffffffffffffffffffffffffffffffff1673ffffffffffffffffffffffffffffffffffffffff163373ffffffffffffffffffffffffffffffffffffffff16145b1515613140576040517f08c379a00000000000000000000000000000000000000000000000000000000081526004018080602001828103825260138152602001807f556e617574686f72697a65642077616c6c65740000000000000000000000000081525060200191505060405180910390fd5b600084141515156131b9576040517f08c379a000000000000000000000000000000000000000000000000000000000815260040180806020018281038252601d8152602001807f6e6577204554483d3e55534420726174652063616e6e6f74206265203000000081525060200191505060405180910390fd5b83600981905550600a54915064e8d4a510009050613209846131fb620f42406131ed6008548661386f90919063ffffffff16565b61386f90919063ffffffff16565b6138a790919063ffffffff16565b600a819055507fc8d1043f24843c0a1c9251fdc30017d84e87498fbcf232af9f86816b5e182bde82600a54604051808381526020018281526020019250505060405180910390a1600192505050919050565b600f8181548110151561326a57fe5b906000526020600020016000915054906101000a900473ffffffffffffffffffffffffffffffffffffffff1681565b600e5481565b60185481565b60008073ffffffffffffffffffffffffffffffffffffffff163373ffffffffffffffffffffffffffffffffffffffff16141515156132e257600080fd5b6000809054906101000a900473ffffffffffffffffffffffffffffffffffffffff1673ffffffffffffffffffffffffffffffffffffffff163373ffffffffffffffffffffffffffffffffffffffff16148061338a5750600460009054906101000a900473ffffffffffffffffffffffffffffffffffffffff1673ffffffffffffffffffffffffffffffffffffffff163373ffffffffffffffffffffffffffffffffffffffff16145b15156133fe576040517f08c379a00000000000000000000000000000000000000000000000000000000081526004018080602001828103825260138152602001807f556e617574686f72697a65642077616c6c65740000000000000000000000000081525060200191505060405180910390fd5b600090505b828290508167ffffffffffffffff1610156134b15760016010600085858567ffffffffffffffff16818110151561343657fe5b9050602002013573ffffffffffffffffffffffffffffffffffffffff1673ffffffffffffffffffffffffffffffffffffffff1673ffffffffffffffffffffffffffffffffffffffff16815260200190815260200160002060006101000a81548160ff0219169083151502179055508080600101915050613403565b505050565b600b5481565b60008060009054906101000a900473ffffffffffffffffffffffffffffffffffffffff1673ffffffffffffffffffffffffffffffffffffffff163373ffffffffffffffffffffffffffffffffffffffff1614151561351957600080fd5b600c5482118015613530575061352d61354b565b82115b151561353b57600080fd5b81600d8190555060019050919050565b6000601854905090565b600160009054906101000a900473ffffffffffffffffffffffffffffffffffffffff1681565b6000809054906101000a900473ffffffffffffffffffffffffffffffffffffffff1673ffffffffffffffffffffffffffffffffffffffff163373ffffffffffffffffffffffffffffffffffffffff161415156135d657600080fd5b80600160006101000a81548173ffffffffffffffffffffffffffffffffffffffff021916908373ffffffffffffffffffffffffffffffffffffffff16021790555080600360006101000a81548173ffffffffffffffffffffffffffffffffffffffff021916908373ffffffffffffffffffffffffffffffffffffffff16021790555050565b6000809054906101000a900473ffffffffffffffffffffffffffffffffffffffff1673ffffffffffffffffffffffffffffffffffffffff163373ffffffffffffffffffffffffffffffffffffffff161415156136b657600080fd5b600073ffffffffffffffffffffffffffffffffffffffff168173ffffffffffffffffffffffffffffffffffffffff16141515156136f257600080fd5b8073ffffffffffffffffffffffffffffffffffffffff166000809054906101000a900473ffffffffffffffffffffffffffffffffffffffff1673ffffffffffffffffffffffffffffffffffffffff167f8be0079c531659141344cd1fd0a4f28419497f9722a3daafe3b4186f6b6457e060405160405180910390a3806000806101000a81548173ffffffffffffffffffffffffffffffffffffffff021916908373ffffffffffffffffffffffffffffffffffffffff16021790555050565b60106020528060005260406000206000915054906101000a900460ff1681565b6000809054906101000a900473ffffffffffffffffffffffffffffffffffffffff1673ffffffffffffffffffffffffffffffffffffffff163373ffffffffffffffffffffffffffffffffffffffff1614151561382b57600080fd5b80600460006101000a81548173ffffffffffffffffffffffffffffffffffffffff021916908373ffffffffffffffffffffffffffffffffffffffff16021790555050565b60008083141561388257600090506138a1565b818302905081838281151561389357fe5b0414151561389d57fe5b8090505b92915050565b600081838115156138b457fe5b04905092915050565b60008282111515156138cb57fe5b818303905092915050565b600081830190508281101515156138e957fe5b809050929150505600a165627a7a723058208964ab5058b764d2efa4d77db5ddd5e8fa5c99e4862933c26551ec8c10d95c9b0029",
  "source": "pragma solidity ^0.4.23;\n\nimport \"./PVTSD.sol\";\n\ncontract PVTSDMock is PVTSD {\n    uint256 public _now;\n\n    constructor (\n        uint256 _currentTime,\n        uint256 _exchangeRate\n    ) PVTSD (_exchangeRate) public {\n        _now = _currentTime;\n    }\n\n    function currentTime() public view returns (uint256) {\n        return _now;\n    }\n\n    function changeTime(uint256 _newTime) public {\n        _now = _newTime;\n    }\n}\n",
  "sourcePath": "/Users/venkateshnamburi/Desktop/521 2/Projects/Transcendence/tsd_contracts/contracts/PVTSDMock.sol",
  "compiler": {
    "name": "solc",
    "version": "0.4.24+commit.e67f0147.Emscripten.clang"
  },
  "schemaVersion": "2.0.0",
  "updatedAt": "2018-11-06T11:09:20.229Z"
}