{
  "contractName": "PVTSD",
  "abi": [
    {
      "constant": true,
      "inputs": [],
      "name": "name",
      "outputs": [
        {
          "name": "",
          "type": "string"
        }
      ],
      "payable": false,
      "stateMutability": "view",
      "type": "function"
    },
    {
      "constant": true,
      "inputs": [],
      "name": "ethExchangeRate",
      "outputs": [
        {
          "name": "",
          "type": "uint256"
        }
      ],
      "payable": false,
      "stateMutability": "view",
      "type": "function"
    },
    {
      "constant": true,
      "inputs": [],
      "name": "totalSupply",
      "outputs": [
        {
          "name": "",
          "type": "uint256"
        }
      ],
      "payable": false,
      "stateMutability": "view",
      "type": "function"
    },
    {
      "constant": true,
      "inputs": [],
      "name": "decimalMultiplier",
      "outputs": [
        {
          "name": "",
          "type": "uint256"
        }
      ],
      "payable": false,
      "stateMutability": "view",
      "type": "function"
    },
    {
      "constant": true,
      "inputs": [],
      "name": "decimals",
      "outputs": [
        {
          "name": "",
          "type": "uint256"
        }
      ],
      "payable": false,
      "stateMutability": "view",
      "type": "function"
    },
    {
      "constant": true,
      "inputs": [],
      "name": "endTime",
      "outputs": [
        {
          "name": "",
          "type": "uint256"
        }
      ],
      "payable": false,
      "stateMutability": "view",
      "type": "function"
    },
    {
      "constant": true,
      "inputs": [],
      "name": "minPurchase",
      "outputs": [
        {
          "name": "",
          "type": "uint256"
        }
      ],
      "payable": false,
      "stateMutability": "view",
      "type": "function"
    },
    {
      "constant": true,
      "inputs": [],
      "name": "exchangeRate",
      "outputs": [
        {
          "name": "",
          "type": "uint256"
        }
      ],
      "payable": false,
      "stateMutability": "view",
      "type": "function"
    },
    {
      "constant": false,
      "inputs": [
        {
          "name": "_startTime",
          "type": "uint256"
        }
      ],
      "name": "setStartTime",
      "outputs": [
        {
          "name": "",
          "type": "bool"
        }
      ],
      "payable": false,
      "stateMutability": "nonpayable",
      "type": "function"
    },
    {
      "constant": true,
      "inputs": [],
      "name": "TSDContractAddress",
      "outputs": [
        {
          "name": "",
          "type": "address"
        }
      ],
      "payable": false,
      "stateMutability": "view",
      "type": "function"
    },
    {
      "constant": true,
      "inputs": [],
      "name": "million",
      "outputs": [
        {
          "name": "",
          "type": "uint256"
        }
      ],
      "payable": false,
      "stateMutability": "view",
      "type": "function"
    },
    {
      "constant": true,
      "inputs": [],
      "name": "tokensAvailable",
      "outputs": [
        {
          "name": "",
          "type": "bool"
        }
      ],
      "payable": false,
      "stateMutability": "view",
      "type": "function"
    },
    {
      "constant": true,
      "inputs": [
        {
          "name": "_address",
          "type": "address"
        }
      ],
      "name": "isWhiteListed",
      "outputs": [
        {
          "name": "",
          "type": "bool"
        }
      ],
      "payable": false,
      "stateMutability": "view",
      "type": "function"
    },
    {
      "constant": true,
      "inputs": [],
      "name": "currentDistributionIndex",
      "outputs": [
        {
          "name": "",
          "type": "uint256"
        }
      ],
      "payable": false,
      "stateMutability": "view",
      "type": "function"
    },
    {
      "constant": true,
      "inputs": [
        {
          "name": "_address",
          "type": "address"
        }
      ],
      "name": "balanceOf",
      "outputs": [
        {
          "name": "",
          "type": "uint256"
        }
      ],
      "payable": false,
      "stateMutability": "view",
      "type": "function"
    },
    {
      "constant": false,
      "inputs": [],
      "name": "renounceOwnership",
      "outputs": [],
      "payable": false,
      "stateMutability": "nonpayable",
      "type": "function"
    },
    {
      "constant": true,
      "inputs": [],
      "name": "startTime",
      "outputs": [
        {
          "name": "",
          "type": "uint256"
        }
      ],
      "payable": false,
      "stateMutability": "view",
      "type": "function"
    },
    {
      "constant": true,
      "inputs": [],
      "name": "tokenPrice",
      "outputs": [
        {
          "name": "",
          "type": "uint256"
        }
      ],
      "payable": false,
      "stateMutability": "view",
      "type": "function"
    },
    {
      "constant": false,
      "inputs": [
        {
          "name": "_address",
          "type": "address"
        }
      ],
      "name": "removeFromWhitelist",
      "outputs": [],
      "payable": false,
      "stateMutability": "nonpayable",
      "type": "function"
    },
    {
      "constant": true,
      "inputs": [],
      "name": "owner",
      "outputs": [
        {
          "name": "",
          "type": "address"
        }
      ],
      "payable": false,
      "stateMutability": "view",
      "type": "function"
    },
    {
      "constant": true,
      "inputs": [],
      "name": "symbol",
      "outputs": [
        {
          "name": "",
          "type": "string"
        }
      ],
      "payable": false,
      "stateMutability": "view",
      "type": "function"
    },
    {
      "constant": false,
      "inputs": [],
      "name": "selfDestruct",
      "outputs": [],
      "payable": false,
      "stateMutability": "nonpayable",
      "type": "function"
    },
    {
      "constant": false,
      "inputs": [
        {
          "name": "_newRate",
          "type": "uint256"
        }
      ],
      "name": "updateTheExchangeRate",
      "outputs": [
        {
          "name": "",
          "type": "bool"
        }
      ],
      "payable": false,
      "stateMutability": "nonpayable",
      "type": "function"
    },
    {
      "constant": true,
      "inputs": [
        {
          "name": "",
          "type": "uint256"
        }
      ],
      "name": "icoParticipants",
      "outputs": [
        {
          "name": "",
          "type": "address"
        }
      ],
      "payable": false,
      "stateMutability": "view",
      "type": "function"
    },
    {
      "constant": true,
      "inputs": [],
      "name": "tokensReleaseDate",
      "outputs": [
        {
          "name": "",
          "type": "uint256"
        }
      ],
      "payable": false,
      "stateMutability": "view",
      "type": "function"
    },
    {
      "constant": false,
      "inputs": [
        {
          "name": "_addresses",
          "type": "address[]"
        }
      ],
      "name": "createWhiteListedMapping",
      "outputs": [],
      "payable": false,
      "stateMutability": "nonpayable",
      "type": "function"
    },
    {
      "constant": true,
      "inputs": [],
      "name": "totalEthRaised",
      "outputs": [
        {
          "name": "",
          "type": "uint256"
        }
      ],
      "payable": false,
      "stateMutability": "view",
      "type": "function"
    },
    {
      "constant": false,
      "inputs": [
        {
          "name": "_endTime",
          "type": "uint256"
        }
      ],
      "name": "setEndTime",
      "outputs": [
        {
          "name": "",
          "type": "bool"
        }
      ],
      "payable": false,
      "stateMutability": "nonpayable",
      "type": "function"
    },
    {
      "constant": true,
      "inputs": [],
      "name": "currentTime",
      "outputs": [
        {
          "name": "",
          "type": "uint256"
        }
      ],
      "payable": false,
      "stateMutability": "view",
      "type": "function"
    },
    {
      "constant": true,
      "inputs": [],
      "name": "pvtFundsWallet",
      "outputs": [
        {
          "name": "",
          "type": "address"
        }
      ],
      "payable": false,
      "stateMutability": "view",
      "type": "function"
    },
    {
      "constant": true,
      "inputs": [],
      "name": "dc",
      "outputs": [
        {
          "name": "",
          "type": "address"
        }
      ],
      "payable": false,
      "stateMutability": "view",
      "type": "function"
    },
    {
      "constant": false,
      "inputs": [
        {
          "name": "_t",
          "type": "address"
        }
      ],
      "name": "setMainContractAddress",
      "outputs": [],
      "payable": false,
      "stateMutability": "nonpayable",
      "type": "function"
    },
    {
      "constant": false,
      "inputs": [
        {
          "name": "newOwner",
          "type": "address"
        }
      ],
      "name": "transferOwnership",
      "outputs": [],
      "payable": false,
      "stateMutability": "nonpayable",
      "type": "function"
    },
    {
      "constant": true,
      "inputs": [
        {
          "name": "",
          "type": "address"
        }
      ],
      "name": "whiteListed",
      "outputs": [
        {
          "name": "",
          "type": "bool"
        }
      ],
      "payable": false,
      "stateMutability": "view",
      "type": "function"
    },
    {
      "constant": false,
      "inputs": [
        {
          "name": "_newAddress",
          "type": "address"
        }
      ],
      "name": "changeOracleAddress",
      "outputs": [],
      "payable": false,
      "stateMutability": "nonpayable",
      "type": "function"
    },
    {
      "inputs": [
        {
          "name": "_ethExchangeRate",
          "type": "uint256"
        }
      ],
      "payable": false,
      "stateMutability": "nonpayable",
      "type": "constructor"
    },
    {
      "payable": true,
      "stateMutability": "payable",
      "type": "fallback"
    },
    {
      "anonymous": false,
      "inputs": [
        {
          "indexed": false,
          "name": "oldEthRaisedVal",
          "type": "uint256"
        },
        {
          "indexed": false,
          "name": "newEthRaisedVal",
          "type": "uint256"
        }
      ],
      "name": "EthRaisedUpdated",
      "type": "event"
    },
    {
      "anonymous": false,
      "inputs": [
        {
          "indexed": false,
          "name": "prevExchangeRate",
          "type": "uint256"
        },
        {
          "indexed": false,
          "name": "newExchangeRate",
          "type": "uint256"
        }
      ],
      "name": "ExchangeRateUpdated",
      "type": "event"
    },
    {
      "anonymous": false,
      "inputs": [
        {
          "indexed": false,
          "name": "_presd",
          "type": "address"
        },
        {
          "indexed": false,
          "name": "_tsd",
          "type": "address"
        }
      ],
      "name": "DistributedAllBalancesToTSDContract",
      "type": "event"
    },
    {
      "anonymous": false,
      "inputs": [
        {
          "indexed": false,
          "name": "from",
          "type": "address"
        },
        {
          "indexed": false,
          "name": "to",
          "type": "address"
        },
        {
          "indexed": false,
          "name": "value",
          "type": "uint256"
        }
      ],
      "name": "Transfer",
      "type": "event"
    },
    {
      "anonymous": false,
      "inputs": [
        {
          "indexed": false,
          "name": "oldSupply",
          "type": "uint256"
        },
        {
          "indexed": false,
          "name": "newSupply",
          "type": "uint256"
        }
      ],
      "name": "UpdatedTotalSupply",
      "type": "event"
    },
    {
      "anonymous": false,
      "inputs": [
        {
          "indexed": true,
          "name": "previousOwner",
          "type": "address"
        }
      ],
      "name": "OwnershipRenounced",
      "type": "event"
    },
    {
      "anonymous": false,
      "inputs": [
        {
          "indexed": true,
          "name": "previousOwner",
          "type": "address"
        },
        {
          "indexed": true,
          "name": "newOwner",
          "type": "address"
        }
      ],
      "name": "OwnershipTransferred",
      "type": "event"
    },
    {
      "constant": false,
      "inputs": [],
      "name": "buyTokens",
      "outputs": [],
      "payable": true,
      "stateMutability": "payable",
      "type": "function"
    },
    {
      "constant": false,
      "inputs": [],
      "name": "burnRemainingTokens",
      "outputs": [
        {
          "name": "",
          "type": "bool"
        }
      ],
      "payable": false,
      "stateMutability": "nonpayable",
      "type": "function"
    },
    {
      "constant": false,
      "inputs": [
        {
          "name": "_numberOfTransfers",
          "type": "uint256"
        }
      ],
      "name": "distributeTokens",
      "outputs": [
        {
          "name": "",
          "type": "bool"
        }
      ],
      "payable": false,
      "stateMutability": "nonpayable",
      "type": "function"
    }
  ],
  "bytecode": "0x60806040526012600455600454600a0a600555600554620f42400260065560326007556000600a55650163fe988b00600b5565016499175300600c5565016a1c25cb00600d556001601160006101000a81548160ff02191690831515021790555060006012556040805190810160405280601081526020017f505249564154452054534420434f494e0000000000000000000000000000000081525060139080519060200190620000b292919062000526565b506040805190810160405280600581526020017f5056545344000000000000000000000000000000000000000000000000000000815250601490805190602001906200010092919062000526565b506005546304ead9a002601555624c4b406016556032601755650163fe988b006018556501649917530060195565016a1c25cb00601a553480156200014457600080fd5b50604051602080620030a983398101806040528101908080519060200190929190505050336000806101000a81548173ffffffffffffffffffffffffffffffffffffffff021916908373ffffffffffffffffffffffffffffffffffffffff1602179055506000809054906101000a900473ffffffffffffffffffffffffffffffffffffffff16601b60006101000a81548173ffffffffffffffffffffffffffffffffffffffff021916908373ffffffffffffffffffffffffffffffffffffffff16021790555060155460106000601b60009054906101000a900473ffffffffffffffffffffffffffffffffffffffff1673ffffffffffffffffffffffffffffffffffffffff1673ffffffffffffffffffffffffffffffffffffffff168152602001908152602001600020819055507fddf252ad1be2c89b69c2b068fc378daa952ba7f163c4a11628f55a4df523b3ef6000601b60009054906101000a900473ffffffffffffffffffffffffffffffffffffffff16601554604051808473ffffffffffffffffffffffffffffffffffffffff1681526020018373ffffffffffffffffffffffffffffffffffffffff1673ffffffffffffffffffffffffffffffffffffffff168152602001828152602001935050505060405180910390a16200033a8162000342640100000000026401000000009004565b5050620005d5565b6000806000806000809054906101000a900473ffffffffffffffffffffffffffffffffffffffff1673ffffffffffffffffffffffffffffffffffffffff163373ffffffffffffffffffffffffffffffffffffffff161480620003f15750600360009054906101000a900473ffffffffffffffffffffffffffffffffffffffff1673ffffffffffffffffffffffffffffffffffffffff163373ffffffffffffffffffffffffffffffffffffffff16145b1515620003fd57600080fd5b84600881905550600954925064e8d4a5100091506200045b856200043e620f4240600754620004d36401000000000262002a15179091906401000000009004565b6200050f6401000000000262002a4d179091906401000000009004565b9050620004808183620004d36401000000000262002a15179091906401000000009004565b6009819055507fc8d1043f24843c0a1c9251fdc30017d84e87498fbcf232af9f86816b5e182bde83600954604051808381526020018281526020019250505060405180910390a160019350505050919050565b600080831415620004e8576000905062000509565b8183029050818382811515620004fa57fe5b041415156200050557fe5b8090505b92915050565b600081838115156200051d57fe5b04905092915050565b828054600181600116156101000203166002900490600052602060002090601f016020900481019282601f106200056957805160ff19168380011785556200059a565b828001600101855582156200059a579182015b82811115620005995782518255916020019190600101906200057c565b5b509050620005a99190620005ad565b5090565b620005d291905b80821115620005ce576000816000905550600101620005b4565b5090565b90565b612ac480620005e56000396000f3006080604052600436106101d8576000357c0100000000000000000000000000000000000000000000000000000000900463ffffffff16806306fdde03146101e25780630b961e481461027257806318160ddd1461029d5780633082538f146102c8578063313ce567146102f35780633197cbb61461031e57806333b5b62e146103495780633ba0b9a9146103745780633e0a322d1461039f5780634a54839d146103e45780634e9c6b1f1461043b57806360659a92146104665780636f9170f6146104955780636ff85ea9146104f057806370a082311461051b578063715018a6146105725780637366794e1461058957806378e97925146105ce5780637ff9b596146105f957806383408d73146106245780638ab1d681146106535780638da5cb5b1461069657806395d89b41146106ed5780639cb8a26a1461077d578063a229c61414610794578063a256ea3a146107d9578063afe07f5914610846578063b9cdd19b14610871578063c9e904be146108ac578063ccb98ffc146108d7578063d0febe4c1461091c578063d18e81b314610926578063d45d685014610951578063d8a531a6146109a8578063ec9da59e146109ff578063f2fde38b14610a42578063fa0fca8414610a85578063fb349dbd14610ae0575b6101e0610b23565b005b3480156101ee57600080fd5b506101f76114fa565b6040518080602001828103825283818151815260200191508051906020019080838360005b8381101561023757808201518184015260208101905061021c565b50505050905090810190601f1680156102645780820380516001836020036101000a031916815260200191505b509250505060405180910390f35b34801561027e57600080fd5b50610287611598565b6040518082815260200191505060405180910390f35b3480156102a957600080fd5b506102b261159e565b6040518082815260200191505060405180910390f35b3480156102d457600080fd5b506102dd6115a4565b6040518082815260200191505060405180910390f35b3480156102ff57600080fd5b506103086115aa565b6040518082815260200191505060405180910390f35b34801561032a57600080fd5b506103336115b0565b6040518082815260200191505060405180910390f35b34801561035557600080fd5b5061035e6115b6565b6040518082815260200191505060405180910390f35b34801561038057600080fd5b506103896115bc565b6040518082815260200191505060405180910390f35b3480156103ab57600080fd5b506103ca600480360381019080803590602001909291905050506115c2565b604051808215151515815260200191505060405180910390f35b3480156103f057600080fd5b506103f961163f565b604051808273ffffffffffffffffffffffffffffffffffffffff1673ffffffffffffffffffffffffffffffffffffffff16815260200191505060405180910390f35b34801561044757600080fd5b50610450611665565b6040518082815260200191505060405180910390f35b34801561047257600080fd5b5061047b61166b565b604051808215151515815260200191505060405180910390f35b3480156104a157600080fd5b506104d6600480360381019080803573ffffffffffffffffffffffffffffffffffffffff16906020019092919050505061167e565b604051808215151515815260200191505060405180910390f35b3480156104fc57600080fd5b506105056116d4565b6040518082815260200191505060405180910390f35b34801561052757600080fd5b5061055c600480360381019080803573ffffffffffffffffffffffffffffffffffffffff1690602001909291905050506116da565b6040518082815260200191505060405180910390f35b34801561057e57600080fd5b50610587611723565b005b34801561059557600080fd5b506105b460048036038101908080359060200190929190505050611825565b604051808215151515815260200191505060405180910390f35b3480156105da57600080fd5b506105e3611ea9565b6040518082815260200191505060405180910390f35b34801561060557600080fd5b5061060e611eaf565b6040518082815260200191505060405180910390f35b34801561063057600080fd5b50610639611eb5565b604051808215151515815260200191505060405180910390f35b34801561065f57600080fd5b50610694600480360381019080803573ffffffffffffffffffffffffffffffffffffffff1690602001909291905050506120c7565b005b3480156106a257600080fd5b506106ab6121cc565b604051808273ffffffffffffffffffffffffffffffffffffffff1673ffffffffffffffffffffffffffffffffffffffff16815260200191505060405180910390f35b3480156106f957600080fd5b506107026121f1565b6040518080602001828103825283818151815260200191508051906020019080838360005b83811015610742578082015181840152602081019050610727565b50505050905090810190601f16801561076f5780820380516001836020036101000a031916815260200191505b509250505060405180910390f35b34801561078957600080fd5b5061079261228f565b005b3480156107a057600080fd5b506107bf60048036038101908080359060200190929190505050612324565b604051808215151515815260200191505060405180910390f35b3480156107e557600080fd5b5061080460048036038101908080359060200190929190505050612483565b604051808273ffffffffffffffffffffffffffffffffffffffff1673ffffffffffffffffffffffffffffffffffffffff16815260200191505060405180910390f35b34801561085257600080fd5b5061085b6124c1565b6040518082815260200191505060405180910390f35b34801561087d57600080fd5b506108aa6004803603810190808035906020019082018035906020019190919293919293905050506124c7565b005b3480156108b857600080fd5b506108c1612634565b6040518082815260200191505060405180910390f35b3480156108e357600080fd5b506109026004803603810190808035906020019092919050505061263a565b604051808215151515815260200191505060405180910390f35b610924610b23565b005b34801561093257600080fd5b5061093b6126c9565b6040518082815260200191505060405180910390f35b34801561095d57600080fd5b506109666126d5565b604051808273ffffffffffffffffffffffffffffffffffffffff1673ffffffffffffffffffffffffffffffffffffffff16815260200191505060405180910390f35b3480156109b457600080fd5b506109bd6126fb565b604051808273ffffffffffffffffffffffffffffffffffffffff1673ffffffffffffffffffffffffffffffffffffffff16815260200191505060405180910390f35b348015610a0b57600080fd5b50610a40600480360381019080803573ffffffffffffffffffffffffffffffffffffffff169060200190929190505050612721565b005b348015610a4e57600080fd5b50610a83600480360381019080803573ffffffffffffffffffffffffffffffffffffffff169060200190929190505050612801565b005b348015610a9157600080fd5b50610ac6600480360381019080803573ffffffffffffffffffffffffffffffffffffffff169060200190929190505050612956565b604051808215151515815260200191505060405180910390f35b348015610aec57600080fd5b50610b21600480360381019080803573ffffffffffffffffffffffffffffffffffffffff169060200190929190505050612976565b005b6000806000806000806000806000610b396126c9565b9850610b66600854610b58600554601654612a1590919063ffffffff16565b612a4d90919063ffffffff16565b9750601160009054906101000a900460ff161515610b8357600080fd5b6018548910158015610b9757506019548911155b1515610ba257600080fd5b873410151515610bb157600080fd5b600f60003373ffffffffffffffffffffffffffffffffffffffff1673ffffffffffffffffffffffffffffffffffffffff16815260200190815260200160002060009054906101000a900460ff161515610c0957600080fd5b349650610c356064610c276046600954612a1590919063ffffffff16565b612a4d90919063ffffffff16565b9550610c5e86610c506005548a612a1590919063ffffffff16565b612a4d90919063ffffffff16565b945060106000601b60009054906101000a900473ffffffffffffffffffffffffffffffffffffffff1673ffffffffffffffffffffffffffffffffffffffff1673ffffffffffffffffffffffffffffffffffffffff168152602001908152602001600020549350600a549250600091508385111561113c57610ce88486612a6390919063ffffffff16565b9050610d11600554610d038884612a1590919063ffffffff16565b612a4d90919063ffffffff16565b9150610d268288612a6390919063ffffffff16565b9650610d9c8460106000601b60009054906101000a900473ffffffffffffffffffffffffffffffffffffffff1673ffffffffffffffffffffffffffffffffffffffff1673ffffffffffffffffffffffffffffffffffffffff16815260200190815260200160002054612a6390919063ffffffff16565b60106000601b60009054906101000a900473ffffffffffffffffffffffffffffffffffffffff1673ffffffffffffffffffffffffffffffffffffffff1673ffffffffffffffffffffffffffffffffffffffff168152602001908152602001600020819055506000601060003373ffffffffffffffffffffffffffffffffffffffff1673ffffffffffffffffffffffffffffffffffffffff168152602001908152602001600020541415610eb057600e3390806001815401808255809150509060018203906000526020600020016000909192909190916101000a81548173ffffffffffffffffffffffffffffffffffffffff021916908373ffffffffffffffffffffffffffffffffffffffff160217905550505b610f0284601060003373ffffffffffffffffffffffffffffffffffffffff1673ffffffffffffffffffffffffffffffffffffffff16815260200190815260200160002054612a7c90919063ffffffff16565b601060003373ffffffffffffffffffffffffffffffffffffffff1673ffffffffffffffffffffffffffffffffffffffff168152602001908152602001600020819055507fddf252ad1be2c89b69c2b068fc378daa952ba7f163c4a11628f55a4df523b3ef601b60009054906101000a900473ffffffffffffffffffffffffffffffffffffffff163386604051808473ffffffffffffffffffffffffffffffffffffffff1673ffffffffffffffffffffffffffffffffffffffff1681526020018373ffffffffffffffffffffffffffffffffffffffff1673ffffffffffffffffffffffffffffffffffffffff168152602001828152602001935050505060405180910390a16000821115611057573373ffffffffffffffffffffffffffffffffffffffff166108fc839081150290604051600060405180830381858888f19350505050158015611055573d6000803e3d6000fd5b505b601b60009054906101000a900473ffffffffffffffffffffffffffffffffffffffff1673ffffffffffffffffffffffffffffffffffffffff166108fc889081150290604051600060405180830381858888f193505050501580156110bf573d6000803e3d6000fd5b506110d587600a54612a7c90919063ffffffff16565b600a819055507f4014ce514c76bad08328a2a6046bac14007f7aad2c56c84c66acf8ca1c64bee883600a54604051808381526020018281526020019250505060405180910390a16000601160006101000a81548160ff0219169083151502179055506114ef565b83851115151561114b57600080fd5b6000601060003373ffffffffffffffffffffffffffffffffffffffff1673ffffffffffffffffffffffffffffffffffffffff1681526020019081526020016000205414156111fa57600e3390806001815401808255809150509060018203906000526020600020016000909192909190916101000a81548173ffffffffffffffffffffffffffffffffffffffff021916908373ffffffffffffffffffffffffffffffffffffffff160217905550505b61126e8560106000601b60009054906101000a900473ffffffffffffffffffffffffffffffffffffffff1673ffffffffffffffffffffffffffffffffffffffff1673ffffffffffffffffffffffffffffffffffffffff16815260200190815260200160002054612a6390919063ffffffff16565b60106000601b60009054906101000a900473ffffffffffffffffffffffffffffffffffffffff1673ffffffffffffffffffffffffffffffffffffffff1673ffffffffffffffffffffffffffffffffffffffff1681526020019081526020016000208190555061132585601060003373ffffffffffffffffffffffffffffffffffffffff1673ffffffffffffffffffffffffffffffffffffffff16815260200190815260200160002054612a7c90919063ffffffff16565b601060003373ffffffffffffffffffffffffffffffffffffffff1673ffffffffffffffffffffffffffffffffffffffff16815260200190815260200160002081905550601b60009054906101000a900473ffffffffffffffffffffffffffffffffffffffff1673ffffffffffffffffffffffffffffffffffffffff166108fc889081150290604051600060405180830381858888f193505050501580156113d0573d6000803e3d6000fd5b506113e687600a54612a7c90919063ffffffff16565b600a819055507fddf252ad1be2c89b69c2b068fc378daa952ba7f163c4a11628f55a4df523b3ef601b60009054906101000a900473ffffffffffffffffffffffffffffffffffffffff163387604051808473ffffffffffffffffffffffffffffffffffffffff1673ffffffffffffffffffffffffffffffffffffffff1681526020018373ffffffffffffffffffffffffffffffffffffffff1673ffffffffffffffffffffffffffffffffffffffff168152602001828152602001935050505060405180910390a17f4014ce514c76bad08328a2a6046bac14007f7aad2c56c84c66acf8ca1c64bee883600a54604051808381526020018281526020019250505060405180910390a15b505050505050505050565b60138054600181600116156101000203166002900480601f0160208091040260200160405190810160405280929190818152602001828054600181600116156101000203166002900480156115905780601f1061156557610100808354040283529160200191611590565b820191906000526020600020905b81548152906001019060200180831161157357829003601f168201915b505050505081565b60085481565b60155481565b60055481565b60045481565b60195481565b60165481565b60095481565b60008060009054906101000a900473ffffffffffffffffffffffffffffffffffffffff1673ffffffffffffffffffffffffffffffffffffffff163373ffffffffffffffffffffffffffffffffffffffff1614151561161f57600080fd5b600c548210151561162f57600080fd5b81600b8190555060019050919050565b600260009054906101000a900473ffffffffffffffffffffffffffffffffffffffff1681565b60065481565b601160009054906101000a900460ff1681565b6000600f60008373ffffffffffffffffffffffffffffffffffffffff1673ffffffffffffffffffffffffffffffffffffffff16815260200190815260200160002060009054906101000a900460ff169050919050565b60125481565b6000601060008373ffffffffffffffffffffffffffffffffffffffff1673ffffffffffffffffffffffffffffffffffffffff168152602001908152602001600020549050919050565b6000809054906101000a900473ffffffffffffffffffffffffffffffffffffffff1673ffffffffffffffffffffffffffffffffffffffff163373ffffffffffffffffffffffffffffffffffffffff1614151561177e57600080fd5b6000809054906101000a900473ffffffffffffffffffffffffffffffffffffffff1673ffffffffffffffffffffffffffffffffffffffff167ff8df31144d9c2f0f6b59d69b8b98abd5459d07f2742c4df920b25aae33c6482060405160405180910390a260008060006101000a81548173ffffffffffffffffffffffffffffffffffffffff021916908373ffffffffffffffffffffffffffffffffffffffff160217905550565b6000806000806000809054906101000a900473ffffffffffffffffffffffffffffffffffffffff1673ffffffffffffffffffffffffffffffffffffffff163373ffffffffffffffffffffffffffffffffffffffff1614151561188657600080fd5b601a546118916126c9565b1015151561189e57600080fd5b600160009054906101000a900473ffffffffffffffffffffffffffffffffffffffff1673ffffffffffffffffffffffffffffffffffffffff16638fb24c7d6040518163ffffffff167c0100000000000000000000000000000000000000000000000000000000028152600401602060405180830381600087803b15801561192457600080fd5b505af1158015611938573d6000803e3d6000fd5b505050506040513d602081101561194e57600080fd5b8101908080519060200190929190505050925061197685601254612a7c90919063ffffffff16565b915060125490505b81811015611ddc57600e8054905081141561199857611ea1565b600060106000600e848154811015156119ad57fe5b9060005260206000200160009054906101000a900473ffffffffffffffffffffffffffffffffffffffff1673ffffffffffffffffffffffffffffffffffffffff1673ffffffffffffffffffffffffffffffffffffffff16815260200190815260200160002054141515611dcf57600160009054906101000a900473ffffffffffffffffffffffffffffffffffffffff1673ffffffffffffffffffffffffffffffffffffffff166323b872dd84600e84815481101515611a6857fe5b9060005260206000200160009054906101000a900473ffffffffffffffffffffffffffffffffffffffff1660106000600e87815481101515611aa657fe5b9060005260206000200160009054906101000a900473ffffffffffffffffffffffffffffffffffffffff1673ffffffffffffffffffffffffffffffffffffffff1673ffffffffffffffffffffffffffffffffffffffff168152602001908152602001600020546040518463ffffffff167c0100000000000000000000000000000000000000000000000000000000028152600401808473ffffffffffffffffffffffffffffffffffffffff1673ffffffffffffffffffffffffffffffffffffffff1681526020018373ffffffffffffffffffffffffffffffffffffffff1673ffffffffffffffffffffffffffffffffffffffff1681526020018281526020019350505050602060405180830381600087803b158015611bc457600080fd5b505af1158015611bd8573d6000803e3d6000fd5b505050506040513d6020811015611bee57600080fd5b8101908080519060200190929190505050507fddf252ad1be2c89b69c2b068fc378daa952ba7f163c4a11628f55a4df523b3ef83600e83815481101515611c3157fe5b9060005260206000200160009054906101000a900473ffffffffffffffffffffffffffffffffffffffff1660106000600e86815481101515611c6f57fe5b9060005260206000200160009054906101000a900473ffffffffffffffffffffffffffffffffffffffff1673ffffffffffffffffffffffffffffffffffffffff1673ffffffffffffffffffffffffffffffffffffffff16815260200190815260200160002054604051808473ffffffffffffffffffffffffffffffffffffffff1673ffffffffffffffffffffffffffffffffffffffff1681526020018373ffffffffffffffffffffffffffffffffffffffff1673ffffffffffffffffffffffffffffffffffffffff168152602001828152602001935050505060405180910390a1600060106000600e84815481101515611d6557fe5b9060005260206000200160009054906101000a900473ffffffffffffffffffffffffffffffffffffffff1673ffffffffffffffffffffffffffffffffffffffff1673ffffffffffffffffffffffffffffffffffffffff168152602001908152602001600020819055505b808060010191505061197e565b816012819055507f5fc214609a6cb66e8182b2a4d291dda75b365e02c065872483a7a875e54d7e1830600260009054906101000a900473ffffffffffffffffffffffffffffffffffffffff16604051808373ffffffffffffffffffffffffffffffffffffffff1673ffffffffffffffffffffffffffffffffffffffff1681526020018273ffffffffffffffffffffffffffffffffffffffff1673ffffffffffffffffffffffffffffffffffffffff1681526020019250505060405180910390a1600193505b505050919050565b60185481565b60175481565b6000806000809054906101000a900473ffffffffffffffffffffffffffffffffffffffff1673ffffffffffffffffffffffffffffffffffffffff163373ffffffffffffffffffffffffffffffffffffffff16141515611f1357600080fd5b601954611f1e6126c9565b10151515611f2b57600080fd5b600060106000601b60009054906101000a900473ffffffffffffffffffffffffffffffffffffffff1673ffffffffffffffffffffffffffffffffffffffff1673ffffffffffffffffffffffffffffffffffffffff1681526020019081526020016000205411156120bf57601554905061201060106000601b60009054906101000a900473ffffffffffffffffffffffffffffffffffffffff1673ffffffffffffffffffffffffffffffffffffffff1673ffffffffffffffffffffffffffffffffffffffff16815260200190815260200160002054601554612a6390919063ffffffff16565b601581905550600060106000601b60009054906101000a900473ffffffffffffffffffffffffffffffffffffffff1673ffffffffffffffffffffffffffffffffffffffff1673ffffffffffffffffffffffffffffffffffffffff168152602001908152602001600020819055507f8a96e7229e5b018dff0425d91c96d3f7d93cae0b891ff020eef8b1686e1a6a1081601554604051808381526020018281526020019250505060405180910390a15b600191505090565b6000809054906101000a900473ffffffffffffffffffffffffffffffffffffffff1673ffffffffffffffffffffffffffffffffffffffff163373ffffffffffffffffffffffffffffffffffffffff16148061216f5750600360009054906101000a900473ffffffffffffffffffffffffffffffffffffffff1673ffffffffffffffffffffffffffffffffffffffff163373ffffffffffffffffffffffffffffffffffffffff16145b151561217a57600080fd5b600f60008273ffffffffffffffffffffffffffffffffffffffff1673ffffffffffffffffffffffffffffffffffffffff16815260200190815260200160002060006101000a81549060ff021916905550565b6000809054906101000a900473ffffffffffffffffffffffffffffffffffffffff1681565b60148054600181600116156101000203166002900480601f0160208091040260200160405190810160405280929190818152602001828054600181600116156101000203166002900480156122875780601f1061225c57610100808354040283529160200191612287565b820191906000526020600020905b81548152906001019060200180831161226a57829003601f168201915b505050505081565b6000809054906101000a900473ffffffffffffffffffffffffffffffffffffffff1673ffffffffffffffffffffffffffffffffffffffff163373ffffffffffffffffffffffffffffffffffffffff161415156122ea57600080fd5b6000809054906101000a900473ffffffffffffffffffffffffffffffffffffffff1673ffffffffffffffffffffffffffffffffffffffff16ff5b6000806000806000809054906101000a900473ffffffffffffffffffffffffffffffffffffffff1673ffffffffffffffffffffffffffffffffffffffff163373ffffffffffffffffffffffffffffffffffffffff1614806123d25750600360009054906101000a900473ffffffffffffffffffffffffffffffffffffffff1673ffffffffffffffffffffffffffffffffffffffff163373ffffffffffffffffffffffffffffffffffffffff16145b15156123dd57600080fd5b84600881905550600954925064e8d4a51000915061241b8561240d620f4240600754612a1590919063ffffffff16565b612a4d90919063ffffffff16565b90506124308183612a1590919063ffffffff16565b6009819055507fc8d1043f24843c0a1c9251fdc30017d84e87498fbcf232af9f86816b5e182bde83600954604051808381526020018281526020019250505060405180910390a160019350505050919050565b600e8181548110151561249257fe5b906000526020600020016000915054906101000a900473ffffffffffffffffffffffffffffffffffffffff1681565b601a5481565b60008060009054906101000a900473ffffffffffffffffffffffffffffffffffffffff1673ffffffffffffffffffffffffffffffffffffffff163373ffffffffffffffffffffffffffffffffffffffff1614806125715750600360009054906101000a900473ffffffffffffffffffffffffffffffffffffffff1673ffffffffffffffffffffffffffffffffffffffff163373ffffffffffffffffffffffffffffffffffffffff16145b151561257c57600080fd5b600090505b828290508167ffffffffffffffff16101561262f576001600f600085858567ffffffffffffffff1681811015156125b457fe5b9050602002013573ffffffffffffffffffffffffffffffffffffffff1673ffffffffffffffffffffffffffffffffffffffff1673ffffffffffffffffffffffffffffffffffffffff16815260200190815260200160002060006101000a81548160ff0219169083151502179055508080600101915050612581565b505050565b600a5481565b60008060009054906101000a900473ffffffffffffffffffffffffffffffffffffffff1673ffffffffffffffffffffffffffffffffffffffff163373ffffffffffffffffffffffffffffffffffffffff1614151561269757600080fd5b600b54821180156126ae57506126ab6126c9565b82115b15156126b957600080fd5b81600c8190555060019050919050565b60006103e84202905090565b601b60009054906101000a900473ffffffffffffffffffffffffffffffffffffffff1681565b600160009054906101000a900473ffffffffffffffffffffffffffffffffffffffff1681565b6000809054906101000a900473ffffffffffffffffffffffffffffffffffffffff1673ffffffffffffffffffffffffffffffffffffffff163373ffffffffffffffffffffffffffffffffffffffff1614151561277c57600080fd5b80600160006101000a81548173ffffffffffffffffffffffffffffffffffffffff021916908373ffffffffffffffffffffffffffffffffffffffff16021790555080600260006101000a81548173ffffffffffffffffffffffffffffffffffffffff021916908373ffffffffffffffffffffffffffffffffffffffff16021790555050565b6000809054906101000a900473ffffffffffffffffffffffffffffffffffffffff1673ffffffffffffffffffffffffffffffffffffffff163373ffffffffffffffffffffffffffffffffffffffff1614151561285c57600080fd5b600073ffffffffffffffffffffffffffffffffffffffff168173ffffffffffffffffffffffffffffffffffffffff161415151561289857600080fd5b8073ffffffffffffffffffffffffffffffffffffffff166000809054906101000a900473ffffffffffffffffffffffffffffffffffffffff1673ffffffffffffffffffffffffffffffffffffffff167f8be0079c531659141344cd1fd0a4f28419497f9722a3daafe3b4186f6b6457e060405160405180910390a3806000806101000a81548173ffffffffffffffffffffffffffffffffffffffff021916908373ffffffffffffffffffffffffffffffffffffffff16021790555050565b600f6020528060005260406000206000915054906101000a900460ff1681565b6000809054906101000a900473ffffffffffffffffffffffffffffffffffffffff1673ffffffffffffffffffffffffffffffffffffffff163373ffffffffffffffffffffffffffffffffffffffff161415156129d157600080fd5b80600360006101000a81548173ffffffffffffffffffffffffffffffffffffffff021916908373ffffffffffffffffffffffffffffffffffffffff16021790555050565b600080831415612a285760009050612a47565b8183029050818382811515612a3957fe5b04141515612a4357fe5b8090505b92915050565b60008183811515612a5a57fe5b04905092915050565b6000828211151515612a7157fe5b818303905092915050565b60008183019050828110151515612a8f57fe5b809050929150505600a165627a7a7230582015f936a3e106464d16cedb58a525aa8e74cf207571919fb73ba0cedc0e4b76650029",
  "source": "pragma solidity ^0.4.23;\n\nimport \"./FoundationContracts/SecondarySaleBaseContract.sol\";\n// import \"./FoundationContracts/Ownable.sol\";\n// import \"./TSD.sol\";\n\ncontract PVTSD is SecondarySaleBaseContract {\n\n    string public name = \"PRIVATE TSD COIN\";\n    string public symbol = \"PVTSD\";\n    uint256 public totalSupply = 82500000 * decimalMultiplier;\n    uint256 public minPurchase = 5000000; // 50,000.00 USD in cents\n    uint256 public tokenPrice = 50; // 50 cents (USD)\n    // Coordinated Universal Time (abbreviated to UTC) is the primary time standard by which the world regulates clocks and time.\n\n    // Start time \"Fri Jun 15 2018 00:00:00 GMT+1000 (AEST)\"\n    // new Date(1535724000000).toUTCString() => \"Thu, 14 Jun 2018 14:00:00 GMT\"\n    uint256 public startTime = 1528984800000;\n    // End time \"Fri Jul 15 2018 00:00:00 GMT+1000 (AEST)\"\n    // new Date(1531576800000).toUTCString() => \"Sat, 14 Jul 2018 14:00:00 GMT\"\n    uint256 public endTime = 1531576800000;\n    // Token release date 9 months post end date\n    // \"Mon April 15 2019 00:00:00 GMT+1000 (AEST)\"\n    // new Date(1555250400000).toUTCString() => \"Sun, 14 Apr 2019 14:00:00 GMT\"\n    uint256 public tokensReleaseDate = 1555250400000;\n\n    // Wallets\n    address public pvtFundsWallet;\n\n    constructor(\n        uint256 _ethExchangeRate\n    ) public {\n        pvtFundsWallet = owner;\n\n        // transfer suppy to the pvtFundsWallet\n        balances[pvtFundsWallet] = totalSupply;\n        emit Transfer(0x0, pvtFundsWallet, totalSupply);\n\n        // set up the exchangeRate\n        updateTheExchangeRate(_ethExchangeRate);\n    }\n\n    // Buy functions\n    // This is an un-named fallback function that is set to payable to accept ether.\n    function() payable public {\n        buyTokens();\n    }\n\n    function buyTokens() payable public {\n        uint256 _currentTime = currentTime();\n        uint256 _minPurchaseInWei = minPurchase.mul(decimalMultiplier).div(ethExchangeRate);\n        require(tokensAvailable);\n        require(_currentTime >= startTime && _currentTime <= endTime);\n        require(msg.value >= _minPurchaseInWei);\n        require(whiteListed[msg.sender]);\n\n        // ETH received by spender\n        uint256 ethAmount = msg.value;\n        // token amount based on ETH / exchangeRate result\n        // exchange rate is 1 TSD => x ETH\n        // with a 40% discount attached\n        uint256 discountedExchangeRate = exchangeRate.mul(70).div(100);\n        // totalTokenAmount is the total tokens offered including the discount\n        // Multiply with the decimalMultiplier to get total tokens (to 18 decimal place)\n        uint256 totalTokenAmount = ethAmount.mul(decimalMultiplier).div(discountedExchangeRate);\n        // tokens avaialble to sell are the remaining tokens in the pvtFundsWallet\n        uint256 availableTokens = balances[pvtFundsWallet];\n        uint256 currentEthRaised = totalEthRaised;\n        uint256 ethRefund = 0;\n        uint256 unavailableTokens;\n\n        if (totalTokenAmount > availableTokens) {\n            // additional tokens that aren't avaialble to be sold\n            // tokenAmount is the tokens requested by buyer (not including the discount)\n            // availableTokens are all the tokens left in the supplying wallet i.e pvtFundsWallet\n            unavailableTokens = totalTokenAmount.sub(availableTokens);\n\n            // determine the unused ether amount by seeing how many tokens were surplus\n            // i.e 'availableTokens' and reverse calculating their ETH equivalent\n            // divide by decimalMultiplier as unavailableTokens are 10^18\n            ethRefund = unavailableTokens.mul(discountedExchangeRate).div(decimalMultiplier);\n            // subtract the refund amount from the eth amount received by the tx\n            ethAmount = ethAmount.sub(ethRefund);\n            // make the token purchase\n            // will equal to 0 after these substractions occur\n            balances[pvtFundsWallet] = balances[pvtFundsWallet].sub(availableTokens);\n\n            // adding the buyer to the icoParticipants ONLY if they haven't already bought before\n            if (balances[msg.sender] == 0) {\n                icoParticipants.push(msg.sender);\n            }\n\n            // add total tokens to the senders balances and Emit transfer event\n            balances[msg.sender] = balances[msg.sender].add(availableTokens);\n            emit Transfer(pvtFundsWallet, msg.sender, availableTokens);\n\n            // refund\n            if (ethRefund > 0) {\n                msg.sender.transfer(ethRefund);\n            }\n            // transfer ether to funds wallet\n            pvtFundsWallet.transfer(ethAmount);\n            totalEthRaised = totalEthRaised.add(ethAmount);\n            emit EthRaisedUpdated(currentEthRaised, totalEthRaised);\n            // close token sale as tokens are sold out\n            tokensAvailable = false;\n        } else {\n            require(totalTokenAmount <= availableTokens);\n\n            if (balances[msg.sender] == 0) {\n                icoParticipants.push(msg.sender);\n            }\n\n            // complete transfer and emit an event\n            balances[pvtFundsWallet] = balances[pvtFundsWallet].sub(totalTokenAmount);\n            balances[msg.sender] = balances[msg.sender].add(totalTokenAmount);\n\n            // transfer ether to the wallet and emit and event regarding eth raised\n            pvtFundsWallet.transfer(ethAmount);\n            totalEthRaised = totalEthRaised.add(ethAmount);\n            emit Transfer(pvtFundsWallet, msg.sender, totalTokenAmount);\n            emit EthRaisedUpdated(currentEthRaised, totalEthRaised);\n        }\n    }\n\n    // After close functions\n\n   // Burn any remaining tokens\n    function burnRemainingTokens() external onlyOwner returns (bool) {\n        require(currentTime() >= endTime);\n        if (balances[pvtFundsWallet] > 0) {\n            // Subtracting the unsold tokens from the total supply.\n            uint256 oldSupply = totalSupply;\n            totalSupply = totalSupply.sub(balances[pvtFundsWallet]);\n            balances[pvtFundsWallet] = 0;\n            emit UpdatedTotalSupply(oldSupply, totalSupply);\n        }\n\n        return true;\n    }\n\n    // This can only be called by the owner on or after the token release date.\n    // This will be a two step process.\n    // This function will be called by the pvtSaleTokenWallet\n    // This wallet will need to be approved in the main contract to make these distributions\n    // _numberOfTransfers states the number of transfers that can happen at one time\n    function distributeTokens(uint256 _numberOfTransfers) external onlyOwner returns (bool) {\n        require(currentTime() >= tokensReleaseDate);\n        address pvtSaleTokenWallet = dc.pvtSaleTokenWallet();\n        uint256 finalDistributionIndex = currentDistributionIndex.add(_numberOfTransfers);\n\n        for (uint256 i = currentDistributionIndex; i < finalDistributionIndex; i++) {\n            // end for loop when currentDistributionIndex reaches the length of the icoParticipants array\n            if (i == icoParticipants.length) {\n                return;\n            }\n            // skip transfer if balances are empty\n            if (balances[icoParticipants[i]] != 0) {\n                dc.transferFrom(pvtSaleTokenWallet, icoParticipants[i], balances[icoParticipants[i]]);\n                emit Transfer(pvtSaleTokenWallet, icoParticipants[i], balances[icoParticipants[i]]);\n\n                // set balances to 0 to prevent re-transfer\n                balances[icoParticipants[i]] = 0;\n            }\n        }\n        // after distribution is complete set the currentDistributionIndex to the latest finalDistributionIndex\n        currentDistributionIndex = finalDistributionIndex;\n\n        // Event to say distribution is complete\n        emit DistributedAllBalancesToTSDContract(address(this), TSDContractAddress);\n\n        // Boolean is returned to give us a success state.\n        return true;\n    }\n}\n",
  "sourcePath": "/Users/venkateshnamburi/Desktop/521/Projects/Transcendence/tsd_dapp/contracts/PVTSD.sol",
  "compiler": {
    "name": "solc",
    "version": "0.4.24+commit.e67f0147.Emscripten.clang"
  },
  "schemaVersion": "2.0.0",
  "updatedAt": "2018-06-27T16:44:40.281Z"
}