{
  "contractName": "PVTSD",
  "abi": [
    {
      "constant": true,
      "inputs": [],
      "name": "name",
      "outputs": [
        {
          "name": "",
          "type": "string"
        }
      ],
      "payable": false,
      "stateMutability": "view",
      "type": "function"
    },
    {
      "constant": true,
      "inputs": [],
      "name": "ethExchangeRate",
      "outputs": [
        {
          "name": "",
          "type": "uint256"
        }
      ],
      "payable": false,
      "stateMutability": "view",
      "type": "function"
    },
    {
      "constant": true,
      "inputs": [],
      "name": "totalSupply",
      "outputs": [
        {
          "name": "",
          "type": "uint256"
        }
      ],
      "payable": false,
      "stateMutability": "view",
      "type": "function"
    },
    {
      "constant": true,
      "inputs": [],
      "name": "decimalMultiplier",
      "outputs": [
        {
          "name": "",
          "type": "uint256"
        }
      ],
      "payable": false,
      "stateMutability": "view",
      "type": "function"
    },
    {
      "constant": true,
      "inputs": [],
      "name": "decimals",
      "outputs": [
        {
          "name": "",
          "type": "uint256"
        }
      ],
      "payable": false,
      "stateMutability": "view",
      "type": "function"
    },
    {
      "constant": true,
      "inputs": [],
      "name": "endTime",
      "outputs": [
        {
          "name": "",
          "type": "uint256"
        }
      ],
      "payable": false,
      "stateMutability": "view",
      "type": "function"
    },
    {
      "constant": true,
      "inputs": [],
      "name": "minPurchase",
      "outputs": [
        {
          "name": "",
          "type": "uint256"
        }
      ],
      "payable": false,
      "stateMutability": "view",
      "type": "function"
    },
    {
      "constant": true,
      "inputs": [],
      "name": "exchangeRate",
      "outputs": [
        {
          "name": "",
          "type": "uint256"
        }
      ],
      "payable": false,
      "stateMutability": "view",
      "type": "function"
    },
    {
      "constant": false,
      "inputs": [
        {
          "name": "_startTime",
          "type": "uint256"
        }
      ],
      "name": "setStartTime",
      "outputs": [
        {
          "name": "",
          "type": "bool"
        }
      ],
      "payable": false,
      "stateMutability": "nonpayable",
      "type": "function"
    },
    {
      "constant": false,
      "inputs": [
        {
          "name": "_to",
          "type": "address"
        },
        {
          "name": "_value",
          "type": "uint256"
        }
      ],
      "name": "safeTransfer",
      "outputs": [
        {
          "name": "",
          "type": "bool"
        }
      ],
      "payable": false,
      "stateMutability": "nonpayable",
      "type": "function"
    },
    {
      "constant": true,
      "inputs": [],
      "name": "TSDContractAddress",
      "outputs": [
        {
          "name": "",
          "type": "address"
        }
      ],
      "payable": false,
      "stateMutability": "view",
      "type": "function"
    },
    {
      "constant": true,
      "inputs": [],
      "name": "million",
      "outputs": [
        {
          "name": "",
          "type": "uint256"
        }
      ],
      "payable": false,
      "stateMutability": "view",
      "type": "function"
    },
    {
      "constant": true,
      "inputs": [],
      "name": "tokensAvailable",
      "outputs": [
        {
          "name": "",
          "type": "bool"
        }
      ],
      "payable": false,
      "stateMutability": "view",
      "type": "function"
    },
    {
      "constant": true,
      "inputs": [
        {
          "name": "_address",
          "type": "address"
        }
      ],
      "name": "isWhiteListed",
      "outputs": [
        {
          "name": "",
          "type": "bool"
        }
      ],
      "payable": false,
      "stateMutability": "view",
      "type": "function"
    },
    {
      "constant": true,
      "inputs": [],
      "name": "currentDistributionIndex",
      "outputs": [
        {
          "name": "",
          "type": "uint256"
        }
      ],
      "payable": false,
      "stateMutability": "view",
      "type": "function"
    },
    {
      "constant": true,
      "inputs": [
        {
          "name": "_address",
          "type": "address"
        }
      ],
      "name": "balanceOf",
      "outputs": [
        {
          "name": "",
          "type": "uint256"
        }
      ],
      "payable": false,
      "stateMutability": "view",
      "type": "function"
    },
    {
      "constant": false,
      "inputs": [],
      "name": "renounceOwnership",
      "outputs": [],
      "payable": false,
      "stateMutability": "nonpayable",
      "type": "function"
    },
    {
      "constant": true,
      "inputs": [],
      "name": "startTime",
      "outputs": [
        {
          "name": "",
          "type": "uint256"
        }
      ],
      "payable": false,
      "stateMutability": "view",
      "type": "function"
    },
    {
      "constant": true,
      "inputs": [],
      "name": "tokenPrice",
      "outputs": [
        {
          "name": "",
          "type": "uint256"
        }
      ],
      "payable": false,
      "stateMutability": "view",
      "type": "function"
    },
    {
      "constant": false,
      "inputs": [
        {
          "name": "_address",
          "type": "address"
        }
      ],
      "name": "removeFromWhitelist",
      "outputs": [],
      "payable": false,
      "stateMutability": "nonpayable",
      "type": "function"
    },
    {
      "constant": true,
      "inputs": [],
      "name": "owner",
      "outputs": [
        {
          "name": "",
          "type": "address"
        }
      ],
      "payable": false,
      "stateMutability": "view",
      "type": "function"
    },
    {
      "constant": true,
      "inputs": [],
      "name": "symbol",
      "outputs": [
        {
          "name": "",
          "type": "string"
        }
      ],
      "payable": false,
      "stateMutability": "view",
      "type": "function"
    },
    {
      "constant": false,
      "inputs": [],
      "name": "selfDestruct",
      "outputs": [],
      "payable": false,
      "stateMutability": "nonpayable",
      "type": "function"
    },
    {
      "constant": false,
      "inputs": [
        {
          "name": "_newRate",
          "type": "uint256"
        }
      ],
      "name": "updateTheExchangeRate",
      "outputs": [
        {
          "name": "",
          "type": "bool"
        }
      ],
      "payable": false,
      "stateMutability": "nonpayable",
      "type": "function"
    },
    {
      "constant": true,
      "inputs": [
        {
          "name": "",
          "type": "uint256"
        }
      ],
      "name": "icoParticipants",
      "outputs": [
        {
          "name": "",
          "type": "address"
        }
      ],
      "payable": false,
      "stateMutability": "view",
      "type": "function"
    },
    {
      "constant": true,
      "inputs": [],
      "name": "tokensReleaseDate",
      "outputs": [
        {
          "name": "",
          "type": "uint256"
        }
      ],
      "payable": false,
      "stateMutability": "view",
      "type": "function"
    },
    {
      "constant": false,
      "inputs": [
        {
          "name": "_addresses",
          "type": "address[]"
        }
      ],
      "name": "createWhiteListedMapping",
      "outputs": [],
      "payable": false,
      "stateMutability": "nonpayable",
      "type": "function"
    },
    {
      "constant": true,
      "inputs": [],
      "name": "totalEthRaised",
      "outputs": [
        {
          "name": "",
          "type": "uint256"
        }
      ],
      "payable": false,
      "stateMutability": "view",
      "type": "function"
    },
    {
      "constant": false,
      "inputs": [
        {
          "name": "_endTime",
          "type": "uint256"
        }
      ],
      "name": "setEndTime",
      "outputs": [
        {
          "name": "",
          "type": "bool"
        }
      ],
      "payable": false,
      "stateMutability": "nonpayable",
      "type": "function"
    },
    {
      "constant": true,
      "inputs": [],
      "name": "currentTime",
      "outputs": [
        {
          "name": "",
          "type": "uint256"
        }
      ],
      "payable": false,
      "stateMutability": "view",
      "type": "function"
    },
    {
      "constant": true,
      "inputs": [],
      "name": "pvtFundsWallet",
      "outputs": [
        {
          "name": "",
          "type": "address"
        }
      ],
      "payable": false,
      "stateMutability": "view",
      "type": "function"
    },
    {
      "constant": true,
      "inputs": [],
      "name": "dc",
      "outputs": [
        {
          "name": "",
          "type": "address"
        }
      ],
      "payable": false,
      "stateMutability": "view",
      "type": "function"
    },
    {
      "constant": false,
      "inputs": [
        {
          "name": "_t",
          "type": "address"
        }
      ],
      "name": "setMainContractAddress",
      "outputs": [],
      "payable": false,
      "stateMutability": "nonpayable",
      "type": "function"
    },
    {
      "constant": false,
      "inputs": [
        {
          "name": "newOwner",
          "type": "address"
        }
      ],
      "name": "transferOwnership",
      "outputs": [],
      "payable": false,
      "stateMutability": "nonpayable",
      "type": "function"
    },
    {
      "constant": true,
      "inputs": [
        {
          "name": "",
          "type": "address"
        }
      ],
      "name": "whiteListed",
      "outputs": [
        {
          "name": "",
          "type": "bool"
        }
      ],
      "payable": false,
      "stateMutability": "view",
      "type": "function"
    },
    {
      "constant": false,
      "inputs": [
        {
          "name": "_newAddress",
          "type": "address"
        }
      ],
      "name": "changeOracleAddress",
      "outputs": [],
      "payable": false,
      "stateMutability": "nonpayable",
      "type": "function"
    },
    {
      "inputs": [
        {
          "name": "_ethExchangeRate",
          "type": "uint256"
        }
      ],
      "payable": false,
      "stateMutability": "nonpayable",
      "type": "constructor"
    },
    {
      "payable": true,
      "stateMutability": "payable",
      "type": "fallback"
    },
    {
      "anonymous": false,
      "inputs": [
        {
          "indexed": false,
          "name": "oldEthRaisedVal",
          "type": "uint256"
        },
        {
          "indexed": false,
          "name": "newEthRaisedVal",
          "type": "uint256"
        }
      ],
      "name": "EthRaisedUpdated",
      "type": "event"
    },
    {
      "anonymous": false,
      "inputs": [
        {
          "indexed": false,
          "name": "prevExchangeRate",
          "type": "uint256"
        },
        {
          "indexed": false,
          "name": "newExchangeRate",
          "type": "uint256"
        }
      ],
      "name": "ExchangeRateUpdated",
      "type": "event"
    },
    {
      "anonymous": false,
      "inputs": [
        {
          "indexed": false,
          "name": "_presd",
          "type": "address"
        },
        {
          "indexed": false,
          "name": "_tsd",
          "type": "address"
        }
      ],
      "name": "DistributedAllBalancesToTSDContract",
      "type": "event"
    },
    {
      "anonymous": false,
      "inputs": [
        {
          "indexed": false,
          "name": "from",
          "type": "address"
        },
        {
          "indexed": false,
          "name": "to",
          "type": "address"
        },
        {
          "indexed": false,
          "name": "value",
          "type": "uint256"
        }
      ],
      "name": "Transfer",
      "type": "event"
    },
    {
      "anonymous": false,
      "inputs": [
        {
          "indexed": false,
          "name": "oldSupply",
          "type": "uint256"
        },
        {
          "indexed": false,
          "name": "newSupply",
          "type": "uint256"
        }
      ],
      "name": "UpdatedTotalSupply",
      "type": "event"
    },
    {
      "anonymous": false,
      "inputs": [
        {
          "indexed": true,
          "name": "previousOwner",
          "type": "address"
        }
      ],
      "name": "OwnershipRenounced",
      "type": "event"
    },
    {
      "anonymous": false,
      "inputs": [
        {
          "indexed": true,
          "name": "previousOwner",
          "type": "address"
        },
        {
          "indexed": true,
          "name": "newOwner",
          "type": "address"
        }
      ],
      "name": "OwnershipTransferred",
      "type": "event"
    },
    {
      "constant": false,
      "inputs": [],
      "name": "buyTokens",
      "outputs": [],
      "payable": true,
      "stateMutability": "payable",
      "type": "function"
    },
    {
      "constant": false,
      "inputs": [],
      "name": "burnRemainingTokens",
      "outputs": [
        {
          "name": "",
          "type": "bool"
        }
      ],
      "payable": false,
      "stateMutability": "nonpayable",
      "type": "function"
    },
    {
      "constant": false,
      "inputs": [
        {
          "name": "_numberOfTransfers",
          "type": "uint256"
        }
      ],
      "name": "distributeTokens",
      "outputs": [
        {
          "name": "",
          "type": "bool"
        }
      ],
      "payable": false,
      "stateMutability": "nonpayable",
      "type": "function"
    }
  ],
  "bytecode": "0x60806040526012600455600454600a0a600555600554620f42400260065560326007556000600a556001601160006101000a81548160ff02191690831515021790555060006012556040805190810160405280601081526020017f505249564154452054534420434f494e00000000000000000000000000000000815250601390805190602001906200009492919062000509565b506040805190810160405280600581526020017f505654534400000000000000000000000000000000000000000000000000000081525060149080519060200190620000e292919062000509565b50600654609002601555624c4b406016553480156200010057600080fd5b506040516020806200385a83398101806040528101908080519060200190929190505050336000806101000a81548173ffffffffffffffffffffffffffffffffffffffff021916908373ffffffffffffffffffffffffffffffffffffffff1602179055506000809054906101000a900473ffffffffffffffffffffffffffffffffffffffff16601760006101000a81548173ffffffffffffffffffffffffffffffffffffffff021916908373ffffffffffffffffffffffffffffffffffffffff16021790555060155460106000601760009054906101000a900473ffffffffffffffffffffffffffffffffffffffff1673ffffffffffffffffffffffffffffffffffffffff1673ffffffffffffffffffffffffffffffffffffffff168152602001908152602001600020819055507fddf252ad1be2c89b69c2b068fc378daa952ba7f163c4a11628f55a4df523b3ef6000601760009054906101000a900473ffffffffffffffffffffffffffffffffffffffff16601554604051808473ffffffffffffffffffffffffffffffffffffffff1681526020018373ffffffffffffffffffffffffffffffffffffffff1673ffffffffffffffffffffffffffffffffffffffff168152602001828152602001935050505060405180910390a1620002f68162000325640100000000026401000000009004565b50650163fe988b00600b8190555065016499175300600c8190555065016a1c25cb00600d8190555050620005b8565b6000806000806000809054906101000a900473ffffffffffffffffffffffffffffffffffffffff1673ffffffffffffffffffffffffffffffffffffffff163373ffffffffffffffffffffffffffffffffffffffff161480620003d45750600360009054906101000a900473ffffffffffffffffffffffffffffffffffffffff1673ffffffffffffffffffffffffffffffffffffffff163373ffffffffffffffffffffffffffffffffffffffff16145b1515620003e057600080fd5b84600881905550600954925064e8d4a5100091506200043e8562000421620f4240600754620004b664010000000002620031e3179091906401000000009004565b620004f2640100000000026200321b179091906401000000009004565b9050620004638183620004b664010000000002620031e3179091906401000000009004565b6009819055507fc8d1043f24843c0a1c9251fdc30017d84e87498fbcf232af9f86816b5e182bde83600954604051808381526020018281526020019250505060405180910390a160019350505050919050565b600080831415620004cb5760009050620004ec565b8183029050818382811515620004dd57fe5b04141515620004e857fe5b8090505b92915050565b600081838115156200050057fe5b04905092915050565b828054600181600116156101000203166002900490600052602060002090601f016020900481019282601f106200054c57805160ff19168380011785556200057d565b828001600101855582156200057d579182015b828111156200057c5782518255916020019190600101906200055f565b5b5090506200058c919062000590565b5090565b620005b591905b80821115620005b157600081600090555060010162000597565b5090565b90565b61329280620005c86000396000f3006080604052600436106101e3576000357c0100000000000000000000000000000000000000000000000000000000900463ffffffff16806306fdde03146101ed5780630b961e481461027d57806318160ddd146102a85780633082538f146102d3578063313ce567146102fe5780633197cbb61461032957806333b5b62e146103545780633ba0b9a91461037f5780633e0a322d146103aa578063423f6cef146103ef5780634a54839d146104545780634e9c6b1f146104ab57806360659a92146104d65780636f9170f6146105055780636ff85ea91461056057806370a082311461058b578063715018a6146105e25780637366794e146105f957806378e979251461063e5780637ff9b5961461066957806383408d73146106945780638ab1d681146106c35780638da5cb5b1461070657806395d89b411461075d5780639cb8a26a146107ed578063a229c61414610804578063a256ea3a14610849578063afe07f59146108b6578063b9cdd19b146108e1578063c9e904be1461091c578063ccb98ffc14610947578063d0febe4c1461098c578063d18e81b314610996578063d45d6850146109c1578063d8a531a614610a18578063ec9da59e14610a6f578063f2fde38b14610ab2578063fa0fca8414610af5578063fb349dbd14610b50575b6101eb610b93565b005b3480156101f957600080fd5b506102026117e9565b6040518080602001828103825283818151815260200191508051906020019080838360005b83811015610242578082015181840152602081019050610227565b50505050905090810190601f16801561026f5780820380516001836020036101000a031916815260200191505b509250505060405180910390f35b34801561028957600080fd5b50610292611887565b6040518082815260200191505060405180910390f35b3480156102b457600080fd5b506102bd61188d565b6040518082815260200191505060405180910390f35b3480156102df57600080fd5b506102e8611893565b6040518082815260200191505060405180910390f35b34801561030a57600080fd5b50610313611899565b6040518082815260200191505060405180910390f35b34801561033557600080fd5b5061033e61189f565b6040518082815260200191505060405180910390f35b34801561036057600080fd5b506103696118a5565b6040518082815260200191505060405180910390f35b34801561038b57600080fd5b506103946118ab565b6040518082815260200191505060405180910390f35b3480156103b657600080fd5b506103d5600480360381019080803590602001909291905050506118b1565b604051808215151515815260200191505060405180910390f35b3480156103fb57600080fd5b5061043a600480360381019080803573ffffffffffffffffffffffffffffffffffffffff1690602001909291908035906020019092919050505061192e565b604051808215151515815260200191505060405180910390f35b34801561046057600080fd5b50610469611c97565b604051808273ffffffffffffffffffffffffffffffffffffffff1673ffffffffffffffffffffffffffffffffffffffff16815260200191505060405180910390f35b3480156104b757600080fd5b506104c0611cbd565b6040518082815260200191505060405180910390f35b3480156104e257600080fd5b506104eb611cc3565b604051808215151515815260200191505060405180910390f35b34801561051157600080fd5b50610546600480360381019080803573ffffffffffffffffffffffffffffffffffffffff169060200190929190505050611cd6565b604051808215151515815260200191505060405180910390f35b34801561056c57600080fd5b50610575611d2c565b6040518082815260200191505060405180910390f35b34801561059757600080fd5b506105cc600480360381019080803573ffffffffffffffffffffffffffffffffffffffff169060200190929190505050611d32565b6040518082815260200191505060405180910390f35b3480156105ee57600080fd5b506105f7611d7b565b005b34801561060557600080fd5b5061062460048036038101908080359060200190929190505050611e7d565b604051808215151515815260200191505060405180910390f35b34801561064a57600080fd5b506106536125e8565b6040518082815260200191505060405180910390f35b34801561067557600080fd5b5061067e6125ee565b6040518082815260200191505060405180910390f35b3480156106a057600080fd5b506106a96125f4565b604051808215151515815260200191505060405180910390f35b3480156106cf57600080fd5b50610704600480360381019080803573ffffffffffffffffffffffffffffffffffffffff169060200190929190505050612895565b005b34801561071257600080fd5b5061071b61299a565b604051808273ffffffffffffffffffffffffffffffffffffffff1673ffffffffffffffffffffffffffffffffffffffff16815260200191505060405180910390f35b34801561076957600080fd5b506107726129bf565b6040518080602001828103825283818151815260200191508051906020019080838360005b838110156107b2578082015181840152602081019050610797565b50505050905090810190601f1680156107df5780820380516001836020036101000a031916815260200191505b509250505060405180910390f35b3480156107f957600080fd5b50610802612a5d565b005b34801561081057600080fd5b5061082f60048036038101908080359060200190929190505050612af2565b604051808215151515815260200191505060405180910390f35b34801561085557600080fd5b5061087460048036038101908080359060200190929190505050612c51565b604051808273ffffffffffffffffffffffffffffffffffffffff1673ffffffffffffffffffffffffffffffffffffffff16815260200191505060405180910390f35b3480156108c257600080fd5b506108cb612c8f565b6040518082815260200191505060405180910390f35b3480156108ed57600080fd5b5061091a600480360381019080803590602001908201803590602001919091929391929390505050612c95565b005b34801561092857600080fd5b50610931612e02565b6040518082815260200191505060405180910390f35b34801561095357600080fd5b5061097260048036038101908080359060200190929190505050612e08565b604051808215151515815260200191505060405180910390f35b610994610b93565b005b3480156109a257600080fd5b506109ab612e97565b6040518082815260200191505060405180910390f35b3480156109cd57600080fd5b506109d6612ea3565b604051808273ffffffffffffffffffffffffffffffffffffffff1673ffffffffffffffffffffffffffffffffffffffff16815260200191505060405180910390f35b348015610a2457600080fd5b50610a2d612ec9565b604051808273ffffffffffffffffffffffffffffffffffffffff1673ffffffffffffffffffffffffffffffffffffffff16815260200191505060405180910390f35b348015610a7b57600080fd5b50610ab0600480360381019080803573ffffffffffffffffffffffffffffffffffffffff169060200190929190505050612eef565b005b348015610abe57600080fd5b50610af3600480360381019080803573ffffffffffffffffffffffffffffffffffffffff169060200190929190505050612fcf565b005b348015610b0157600080fd5b50610b36600480360381019080803573ffffffffffffffffffffffffffffffffffffffff169060200190929190505050613124565b604051808215151515815260200191505060405180910390f35b348015610b5c57600080fd5b50610b91600480360381019080803573ffffffffffffffffffffffffffffffffffffffff169060200190929190505050613144565b005b6000806000806000806000806000610ba9612e97565b9850610bd6600854610bc86005546016546131e390919063ffffffff16565b61321b90919063ffffffff16565b9750601160009054906101000a900460ff161515610c5c576040517f08c379a00000000000000000000000000000000000000000000000000000000081526004018080602001828103825260188152602001807f6e6f206d6f726520746f6b656e7320617661696c61626c65000000000000000081525060200191505060405180910390fd5b600b548910158015610c705750600c548911155b1515610d0a576040517f08c379a00000000000000000000000000000000000000000000000000000000081526004018080602001828103825260308152602001807f63757272656e742074696d65206973206e6f7420696e2074686520707572636881526020017f6173652077696e646f77206672616d650000000000000000000000000000000081525060400191505060405180910390fd5b600f60003373ffffffffffffffffffffffffffffffffffffffff1673ffffffffffffffffffffffffffffffffffffffff16815260200190815260200160002060009054906101000a900460ff161515610dcb576040517f08c379a00000000000000000000000000000000000000000000000000000000081526004018080602001828103825260178152602001807f75736572206973206e6f742077686974656c697374656400000000000000000081525060200191505060405180910390fd5b873410151515610e69576040517f08c379a00000000000000000000000000000000000000000000000000000000081526004018080602001828103825260258152602001807f616d6f756e742073656e742069732062656c6f77206d696e696d756d2070757281526020017f636861736500000000000000000000000000000000000000000000000000000081525060400191505060405180910390fd5b349650610e956064610e8760466009546131e390919063ffffffff16565b61321b90919063ffffffff16565b9550610ebe86610eb06005548a6131e390919063ffffffff16565b61321b90919063ffffffff16565b945060106000601760009054906101000a900473ffffffffffffffffffffffffffffffffffffffff1673ffffffffffffffffffffffffffffffffffffffff1673ffffffffffffffffffffffffffffffffffffffff168152602001908152602001600020549350600a549250600091508385111561139c57610f48848661323190919063ffffffff16565b9050610f71600554610f6388846131e390919063ffffffff16565b61321b90919063ffffffff16565b9150610f86828861323190919063ffffffff16565b9650610ffc8460106000601760009054906101000a900473ffffffffffffffffffffffffffffffffffffffff1673ffffffffffffffffffffffffffffffffffffffff1673ffffffffffffffffffffffffffffffffffffffff1681526020019081526020016000205461323190919063ffffffff16565b60106000601760009054906101000a900473ffffffffffffffffffffffffffffffffffffffff1673ffffffffffffffffffffffffffffffffffffffff1673ffffffffffffffffffffffffffffffffffffffff168152602001908152602001600020819055506000601060003373ffffffffffffffffffffffffffffffffffffffff1673ffffffffffffffffffffffffffffffffffffffff16815260200190815260200160002054141561111057600e3390806001815401808255809150509060018203906000526020600020016000909192909190916101000a81548173ffffffffffffffffffffffffffffffffffffffff021916908373ffffffffffffffffffffffffffffffffffffffff160217905550505b61116284601060003373ffffffffffffffffffffffffffffffffffffffff1673ffffffffffffffffffffffffffffffffffffffff1681526020019081526020016000205461324a90919063ffffffff16565b601060003373ffffffffffffffffffffffffffffffffffffffff1673ffffffffffffffffffffffffffffffffffffffff168152602001908152602001600020819055507fddf252ad1be2c89b69c2b068fc378daa952ba7f163c4a11628f55a4df523b3ef601760009054906101000a900473ffffffffffffffffffffffffffffffffffffffff163386604051808473ffffffffffffffffffffffffffffffffffffffff1673ffffffffffffffffffffffffffffffffffffffff1681526020018373ffffffffffffffffffffffffffffffffffffffff1673ffffffffffffffffffffffffffffffffffffffff168152602001828152602001935050505060405180910390a160008211156112b7573373ffffffffffffffffffffffffffffffffffffffff166108fc839081150290604051600060405180830381858888f193505050501580156112b5573d6000803e3d6000fd5b505b601760009054906101000a900473ffffffffffffffffffffffffffffffffffffffff1673ffffffffffffffffffffffffffffffffffffffff166108fc889081150290604051600060405180830381858888f1935050505015801561131f573d6000803e3d6000fd5b5061133587600a5461324a90919063ffffffff16565b600a819055507f4014ce514c76bad08328a2a6046bac14007f7aad2c56c84c66acf8ca1c64bee883600a54604051808381526020018281526020019250505060405180910390a16000601160006101000a81548160ff0219169083151502179055506117de565b83851115151561143a576040517f08c379a00000000000000000000000000000000000000000000000000000000081526004018080602001828103825260308152602001807f746f74616c546f6b656e416d6f756e742069732067726561746572207468616e81526020017f20617661696c61626c65546f6b656e730000000000000000000000000000000081525060400191505060405180910390fd5b6000601060003373ffffffffffffffffffffffffffffffffffffffff1673ffffffffffffffffffffffffffffffffffffffff1681526020019081526020016000205414156114e957600e3390806001815401808255809150509060018203906000526020600020016000909192909190916101000a81548173ffffffffffffffffffffffffffffffffffffffff021916908373ffffffffffffffffffffffffffffffffffffffff160217905550505b61155d8560106000601760009054906101000a900473ffffffffffffffffffffffffffffffffffffffff1673ffffffffffffffffffffffffffffffffffffffff1673ffffffffffffffffffffffffffffffffffffffff1681526020019081526020016000205461323190919063ffffffff16565b60106000601760009054906101000a900473ffffffffffffffffffffffffffffffffffffffff1673ffffffffffffffffffffffffffffffffffffffff1673ffffffffffffffffffffffffffffffffffffffff1681526020019081526020016000208190555061161485601060003373ffffffffffffffffffffffffffffffffffffffff1673ffffffffffffffffffffffffffffffffffffffff1681526020019081526020016000205461324a90919063ffffffff16565b601060003373ffffffffffffffffffffffffffffffffffffffff1673ffffffffffffffffffffffffffffffffffffffff16815260200190815260200160002081905550601760009054906101000a900473ffffffffffffffffffffffffffffffffffffffff1673ffffffffffffffffffffffffffffffffffffffff166108fc889081150290604051600060405180830381858888f193505050501580156116bf573d6000803e3d6000fd5b506116d587600a5461324a90919063ffffffff16565b600a819055507fddf252ad1be2c89b69c2b068fc378daa952ba7f163c4a11628f55a4df523b3ef601760009054906101000a900473ffffffffffffffffffffffffffffffffffffffff163387604051808473ffffffffffffffffffffffffffffffffffffffff1673ffffffffffffffffffffffffffffffffffffffff1681526020018373ffffffffffffffffffffffffffffffffffffffff1673ffffffffffffffffffffffffffffffffffffffff168152602001828152602001935050505060405180910390a17f4014ce514c76bad08328a2a6046bac14007f7aad2c56c84c66acf8ca1c64bee883600a54604051808381526020018281526020019250505060405180910390a15b505050505050505050565b60138054600181600116156101000203166002900480601f01602080910402602001604051908101604052809291908181526020018280546001816001161561010002031660029004801561187f5780601f106118545761010080835404028352916020019161187f565b820191906000526020600020905b81548152906001019060200180831161186257829003601f168201915b505050505081565b60085481565b60155481565b60055481565b60045481565b600c5481565b60165481565b60095481565b60008060009054906101000a900473ffffffffffffffffffffffffffffffffffffffff1673ffffffffffffffffffffffffffffffffffffffff163373ffffffffffffffffffffffffffffffffffffffff1614151561190e57600080fd5b600c548210151561191e57600080fd5b81600b8190555060019050919050565b60008060009054906101000a900473ffffffffffffffffffffffffffffffffffffffff1673ffffffffffffffffffffffffffffffffffffffff163373ffffffffffffffffffffffffffffffffffffffff1614151561198b57600080fd5b600073ffffffffffffffffffffffffffffffffffffffff168373ffffffffffffffffffffffffffffffffffffffff16141515156119c757600080fd5b601060003373ffffffffffffffffffffffffffffffffffffffff1673ffffffffffffffffffffffffffffffffffffffff168152602001908152602001600020548211151515611a1557600080fd5b6000601060003373ffffffffffffffffffffffffffffffffffffffff1673ffffffffffffffffffffffffffffffffffffffff168152602001908152602001600020541415611ac457600e3390806001815401808255809150509060018203906000526020600020016000909192909190916101000a81548173ffffffffffffffffffffffffffffffffffffffff021916908373ffffffffffffffffffffffffffffffffffffffff160217905550505b611b1682601060003373ffffffffffffffffffffffffffffffffffffffff1673ffffffffffffffffffffffffffffffffffffffff1681526020019081526020016000205461323190919063ffffffff16565b601060003373ffffffffffffffffffffffffffffffffffffffff1673ffffffffffffffffffffffffffffffffffffffff16815260200190815260200160002081905550611bab82601060008673ffffffffffffffffffffffffffffffffffffffff1673ffffffffffffffffffffffffffffffffffffffff1681526020019081526020016000205461324a90919063ffffffff16565b601060008573ffffffffffffffffffffffffffffffffffffffff1673ffffffffffffffffffffffffffffffffffffffff168152602001908152602001600020819055507fddf252ad1be2c89b69c2b068fc378daa952ba7f163c4a11628f55a4df523b3ef338484604051808473ffffffffffffffffffffffffffffffffffffffff1673ffffffffffffffffffffffffffffffffffffffff1681526020018373ffffffffffffffffffffffffffffffffffffffff1673ffffffffffffffffffffffffffffffffffffffff168152602001828152602001935050505060405180910390a16001905092915050565b600260009054906101000a900473ffffffffffffffffffffffffffffffffffffffff1681565b60065481565b601160009054906101000a900460ff1681565b6000600f60008373ffffffffffffffffffffffffffffffffffffffff1673ffffffffffffffffffffffffffffffffffffffff16815260200190815260200160002060009054906101000a900460ff169050919050565b60125481565b6000601060008373ffffffffffffffffffffffffffffffffffffffff1673ffffffffffffffffffffffffffffffffffffffff168152602001908152602001600020549050919050565b6000809054906101000a900473ffffffffffffffffffffffffffffffffffffffff1673ffffffffffffffffffffffffffffffffffffffff163373ffffffffffffffffffffffffffffffffffffffff16141515611dd657600080fd5b6000809054906101000a900473ffffffffffffffffffffffffffffffffffffffff1673ffffffffffffffffffffffffffffffffffffffff167ff8df31144d9c2f0f6b59d69b8b98abd5459d07f2742c4df920b25aae33c6482060405160405180910390a260008060006101000a81548173ffffffffffffffffffffffffffffffffffffffff021916908373ffffffffffffffffffffffffffffffffffffffff160217905550565b6000806000806000809054906101000a900473ffffffffffffffffffffffffffffffffffffffff1673ffffffffffffffffffffffffffffffffffffffff163373ffffffffffffffffffffffffffffffffffffffff161480611f2b5750600360009054906101000a900473ffffffffffffffffffffffffffffffffffffffff1673ffffffffffffffffffffffffffffffffffffffff163373ffffffffffffffffffffffffffffffffffffffff16145b1515611f3657600080fd5b600d54611f41612e97565b10151515611fdd576040517f08c379a000000000000000000000000000000000000000000000000000000000815260040180806020018281038252602b8152602001807f63616e206f6e6c79206469737472696275746520616674657220746f6b656e7381526020017f52656c656173654461746500000000000000000000000000000000000000000081525060400191505060405180910390fd5b600160009054906101000a900473ffffffffffffffffffffffffffffffffffffffff1673ffffffffffffffffffffffffffffffffffffffff16638fb24c7d6040518163ffffffff167c0100000000000000000000000000000000000000000000000000000000028152600401602060405180830381600087803b15801561206357600080fd5b505af1158015612077573d6000803e3d6000fd5b505050506040513d602081101561208d57600080fd5b810190808051906020019092919050505092506120b58560125461324a90919063ffffffff16565b915060125490505b8181101561251b57600e805490508114156120d7576125e0565b600060106000600e848154811015156120ec57fe5b9060005260206000200160009054906101000a900473ffffffffffffffffffffffffffffffffffffffff1673ffffffffffffffffffffffffffffffffffffffff1673ffffffffffffffffffffffffffffffffffffffff1681526020019081526020016000205414151561250e57600160009054906101000a900473ffffffffffffffffffffffffffffffffffffffff1673ffffffffffffffffffffffffffffffffffffffff166323b872dd84600e848154811015156121a757fe5b9060005260206000200160009054906101000a900473ffffffffffffffffffffffffffffffffffffffff1660106000600e878154811015156121e557fe5b9060005260206000200160009054906101000a900473ffffffffffffffffffffffffffffffffffffffff1673ffffffffffffffffffffffffffffffffffffffff1673ffffffffffffffffffffffffffffffffffffffff168152602001908152602001600020546040518463ffffffff167c0100000000000000000000000000000000000000000000000000000000028152600401808473ffffffffffffffffffffffffffffffffffffffff1673ffffffffffffffffffffffffffffffffffffffff1681526020018373ffffffffffffffffffffffffffffffffffffffff1673ffffffffffffffffffffffffffffffffffffffff1681526020018281526020019350505050602060405180830381600087803b15801561230357600080fd5b505af1158015612317573d6000803e3d6000fd5b505050506040513d602081101561232d57600080fd5b8101908080519060200190929190505050507fddf252ad1be2c89b69c2b068fc378daa952ba7f163c4a11628f55a4df523b3ef83600e8381548110151561237057fe5b9060005260206000200160009054906101000a900473ffffffffffffffffffffffffffffffffffffffff1660106000600e868154811015156123ae57fe5b9060005260206000200160009054906101000a900473ffffffffffffffffffffffffffffffffffffffff1673ffffffffffffffffffffffffffffffffffffffff1673ffffffffffffffffffffffffffffffffffffffff16815260200190815260200160002054604051808473ffffffffffffffffffffffffffffffffffffffff1673ffffffffffffffffffffffffffffffffffffffff1681526020018373ffffffffffffffffffffffffffffffffffffffff1673ffffffffffffffffffffffffffffffffffffffff168152602001828152602001935050505060405180910390a1600060106000600e848154811015156124a457fe5b9060005260206000200160009054906101000a900473ffffffffffffffffffffffffffffffffffffffff1673ffffffffffffffffffffffffffffffffffffffff1673ffffffffffffffffffffffffffffffffffffffff168152602001908152602001600020819055505b80806001019150506120bd565b816012819055507f5fc214609a6cb66e8182b2a4d291dda75b365e02c065872483a7a875e54d7e1830600260009054906101000a900473ffffffffffffffffffffffffffffffffffffffff16604051808373ffffffffffffffffffffffffffffffffffffffff1673ffffffffffffffffffffffffffffffffffffffff1681526020018273ffffffffffffffffffffffffffffffffffffffff1673ffffffffffffffffffffffffffffffffffffffff1681526020019250505060405180910390a1600193505b505050919050565b600b5481565b60075481565b6000806000809054906101000a900473ffffffffffffffffffffffffffffffffffffffff1673ffffffffffffffffffffffffffffffffffffffff163373ffffffffffffffffffffffffffffffffffffffff1614151561265257600080fd5b600c5461265d612e97565b101515156126f9576040517f08c379a00000000000000000000000000000000000000000000000000000000081526004018080602001828103825260338152602001807f63616e206f6e6c79206275726e20746f6b656e7320616674657220746f6b656e81526020017f2073616c652068617320636f6e636c756465640000000000000000000000000081525060400191505060405180910390fd5b600060106000601760009054906101000a900473ffffffffffffffffffffffffffffffffffffffff1673ffffffffffffffffffffffffffffffffffffffff1673ffffffffffffffffffffffffffffffffffffffff16815260200190815260200160002054111561288d5760155490506127de60106000601760009054906101000a900473ffffffffffffffffffffffffffffffffffffffff1673ffffffffffffffffffffffffffffffffffffffff1673ffffffffffffffffffffffffffffffffffffffff1681526020019081526020016000205460155461323190919063ffffffff16565b601581905550600060106000601760009054906101000a900473ffffffffffffffffffffffffffffffffffffffff1673ffffffffffffffffffffffffffffffffffffffff1673ffffffffffffffffffffffffffffffffffffffff168152602001908152602001600020819055507f8a96e7229e5b018dff0425d91c96d3f7d93cae0b891ff020eef8b1686e1a6a1081601554604051808381526020018281526020019250505060405180910390a15b600191505090565b6000809054906101000a900473ffffffffffffffffffffffffffffffffffffffff1673ffffffffffffffffffffffffffffffffffffffff163373ffffffffffffffffffffffffffffffffffffffff16148061293d5750600360009054906101000a900473ffffffffffffffffffffffffffffffffffffffff1673ffffffffffffffffffffffffffffffffffffffff163373ffffffffffffffffffffffffffffffffffffffff16145b151561294857600080fd5b600f60008273ffffffffffffffffffffffffffffffffffffffff1673ffffffffffffffffffffffffffffffffffffffff16815260200190815260200160002060006101000a81549060ff021916905550565b6000809054906101000a900473ffffffffffffffffffffffffffffffffffffffff1681565b60148054600181600116156101000203166002900480601f016020809104026020016040519081016040528092919081815260200182805460018160011615610100020316600290048015612a555780601f10612a2a57610100808354040283529160200191612a55565b820191906000526020600020905b815481529060010190602001808311612a3857829003601f168201915b505050505081565b6000809054906101000a900473ffffffffffffffffffffffffffffffffffffffff1673ffffffffffffffffffffffffffffffffffffffff163373ffffffffffffffffffffffffffffffffffffffff16141515612ab857600080fd5b6000809054906101000a900473ffffffffffffffffffffffffffffffffffffffff1673ffffffffffffffffffffffffffffffffffffffff16ff5b6000806000806000809054906101000a900473ffffffffffffffffffffffffffffffffffffffff1673ffffffffffffffffffffffffffffffffffffffff163373ffffffffffffffffffffffffffffffffffffffff161480612ba05750600360009054906101000a900473ffffffffffffffffffffffffffffffffffffffff1673ffffffffffffffffffffffffffffffffffffffff163373ffffffffffffffffffffffffffffffffffffffff16145b1515612bab57600080fd5b84600881905550600954925064e8d4a510009150612be985612bdb620f42406007546131e390919063ffffffff16565b61321b90919063ffffffff16565b9050612bfe81836131e390919063ffffffff16565b6009819055507fc8d1043f24843c0a1c9251fdc30017d84e87498fbcf232af9f86816b5e182bde83600954604051808381526020018281526020019250505060405180910390a160019350505050919050565b600e81815481101515612c6057fe5b906000526020600020016000915054906101000a900473ffffffffffffffffffffffffffffffffffffffff1681565b600d5481565b60008060009054906101000a900473ffffffffffffffffffffffffffffffffffffffff1673ffffffffffffffffffffffffffffffffffffffff163373ffffffffffffffffffffffffffffffffffffffff161480612d3f5750600360009054906101000a900473ffffffffffffffffffffffffffffffffffffffff1673ffffffffffffffffffffffffffffffffffffffff163373ffffffffffffffffffffffffffffffffffffffff16145b1515612d4a57600080fd5b600090505b828290508167ffffffffffffffff161015612dfd576001600f600085858567ffffffffffffffff168181101515612d8257fe5b9050602002013573ffffffffffffffffffffffffffffffffffffffff1673ffffffffffffffffffffffffffffffffffffffff1673ffffffffffffffffffffffffffffffffffffffff16815260200190815260200160002060006101000a81548160ff0219169083151502179055508080600101915050612d4f565b505050565b600a5481565b60008060009054906101000a900473ffffffffffffffffffffffffffffffffffffffff1673ffffffffffffffffffffffffffffffffffffffff163373ffffffffffffffffffffffffffffffffffffffff16141515612e6557600080fd5b600b5482118015612e7c5750612e79612e97565b82115b1515612e8757600080fd5b81600c8190555060019050919050565b60006103e84202905090565b601760009054906101000a900473ffffffffffffffffffffffffffffffffffffffff1681565b600160009054906101000a900473ffffffffffffffffffffffffffffffffffffffff1681565b6000809054906101000a900473ffffffffffffffffffffffffffffffffffffffff1673ffffffffffffffffffffffffffffffffffffffff163373ffffffffffffffffffffffffffffffffffffffff16141515612f4a57600080fd5b80600160006101000a81548173ffffffffffffffffffffffffffffffffffffffff021916908373ffffffffffffffffffffffffffffffffffffffff16021790555080600260006101000a81548173ffffffffffffffffffffffffffffffffffffffff021916908373ffffffffffffffffffffffffffffffffffffffff16021790555050565b6000809054906101000a900473ffffffffffffffffffffffffffffffffffffffff1673ffffffffffffffffffffffffffffffffffffffff163373ffffffffffffffffffffffffffffffffffffffff1614151561302a57600080fd5b600073ffffffffffffffffffffffffffffffffffffffff168173ffffffffffffffffffffffffffffffffffffffff161415151561306657600080fd5b8073ffffffffffffffffffffffffffffffffffffffff166000809054906101000a900473ffffffffffffffffffffffffffffffffffffffff1673ffffffffffffffffffffffffffffffffffffffff167f8be0079c531659141344cd1fd0a4f28419497f9722a3daafe3b4186f6b6457e060405160405180910390a3806000806101000a81548173ffffffffffffffffffffffffffffffffffffffff021916908373ffffffffffffffffffffffffffffffffffffffff16021790555050565b600f6020528060005260406000206000915054906101000a900460ff1681565b6000809054906101000a900473ffffffffffffffffffffffffffffffffffffffff1673ffffffffffffffffffffffffffffffffffffffff163373ffffffffffffffffffffffffffffffffffffffff1614151561319f57600080fd5b80600360006101000a81548173ffffffffffffffffffffffffffffffffffffffff021916908373ffffffffffffffffffffffffffffffffffffffff16021790555050565b6000808314156131f65760009050613215565b818302905081838281151561320757fe5b0414151561321157fe5b8090505b92915050565b6000818381151561322857fe5b04905092915050565b600082821115151561323f57fe5b818303905092915050565b6000818301905082811015151561325d57fe5b809050929150505600a165627a7a72305820f433a0c7d778fe4d5a377b84b87239a198d9c802fe23ba97007b99c338a848c60029",
  "source": "pragma solidity ^0.4.23;\n\nimport \"./FoundationContracts/SecondarySaleBaseContract.sol\";\n\ncontract PVTSD is SecondarySaleBaseContract {\n\n    string public name = \"PRIVATE TSD COIN\";\n    string public symbol = \"PVTSD\";\n    uint256 public totalSupply = 144 * million;\n    uint256 public minPurchase = 5000000; // 50,000.00 USD in cents\n\n    // Wallets\n    address public pvtFundsWallet;\n\n    // Coordinated Universal Time (abbreviated to UTC) is the primary time standard by which the world regulates clocks and time.\n\n    constructor(\n        uint256 _ethExchangeRate\n    ) public {\n        pvtFundsWallet = owner;\n\n        // transfer suppy to the pvtFundsWallet\n        balances[pvtFundsWallet] = totalSupply;\n        emit Transfer(0x0, pvtFundsWallet, totalSupply);\n\n        // set up the exchangeRate\n        updateTheExchangeRate(_ethExchangeRate);\n\n        // Start time \"Fri Jun 15 2018 00:00:00 GMT+1000 (AEST)\"\n        // new Date(1535724000000).toUTCString() => \"Thu, 14 Jun 2018 14:00:00 GMT\"\n        startTime = 1528984800000;\n        // End time \"Fri Jul 15 2018 00:00:00 GMT+1000 (AEST)\"\n        // new Date(1531576800000).toUTCString() => \"Sat, 14 Jul 2018 14:00:00 GMT\"\n        endTime = 1531576800000;\n        // Token release date 9 months post end date\n        // \"Mon April 15 2019 00:00:00 GMT+1000 (AEST)\"\n        // new Date(1555250400000).toUTCString() => \"Sun, 14 Apr 2019 14:00:00 GMT\"\n        tokensReleaseDate = 1555250400000;\n    }\n\n    // Buy functions\n    // This is an un-named fallback function that is set to payable to accept ether.\n    function() payable public {\n        buyTokens();\n    }\n\n    function buyTokens() payable public {\n        uint256 _currentTime = currentTime();\n        uint256 _minPurchaseInWei = minPurchase.mul(decimalMultiplier).div(ethExchangeRate);\n        require(tokensAvailable, \"no more tokens available\");\n        require(_currentTime >= startTime && _currentTime <= endTime, \"current time is not in the purchase window frame\");\n        require(whiteListed[msg.sender], \"user is not whitelisted\");\n        require(msg.value >= _minPurchaseInWei, \"amount sent is below minimum purchase\");\n\n        // ETH received by spender\n        uint256 ethAmount = msg.value;\n        // token amount based on ETH / exchangeRate result\n        // exchange rate is 1 TSD => x ETH\n        // with a 40% discount attached\n        uint256 discountedExchangeRate = exchangeRate.mul(70).div(100);\n        // totalTokenAmount is the total tokens offered including the discount\n        // Multiply with the decimalMultiplier to get total tokens (to 18 decimal place)\n        uint256 totalTokenAmount = ethAmount.mul(decimalMultiplier).div(discountedExchangeRate);\n        // tokens avaialble to sell are the remaining tokens in the pvtFundsWallet\n        uint256 availableTokens = balances[pvtFundsWallet];\n        uint256 currentEthRaised = totalEthRaised;\n        uint256 ethRefund = 0;\n        uint256 unavailableTokens;\n\n        if (totalTokenAmount > availableTokens) {\n            // additional tokens that aren't avaialble to be sold\n            // tokenAmount is the tokens requested by buyer (not including the discount)\n            // availableTokens are all the tokens left in the supplying wallet i.e pvtFundsWallet\n            unavailableTokens = totalTokenAmount.sub(availableTokens);\n\n            // determine the unused ether amount by seeing how many tokens were surplus\n            // i.e 'availableTokens' and reverse calculating their ETH equivalent\n            // divide by decimalMultiplier as unavailableTokens are 10^18\n            ethRefund = unavailableTokens.mul(discountedExchangeRate).div(decimalMultiplier);\n            // subtract the refund amount from the eth amount received by the tx\n            ethAmount = ethAmount.sub(ethRefund);\n            // make the token purchase\n            // will equal to 0 after these substractions occur\n            balances[pvtFundsWallet] = balances[pvtFundsWallet].sub(availableTokens);\n\n            // adding the buyer to the icoParticipants ONLY if they haven't already bought before\n            if (balances[msg.sender] == 0) {\n                icoParticipants.push(msg.sender);\n            }\n\n            // add total tokens to the senders balances and Emit transfer event\n            balances[msg.sender] = balances[msg.sender].add(availableTokens);\n            emit Transfer(pvtFundsWallet, msg.sender, availableTokens);\n\n            // refund\n            if (ethRefund > 0) {\n                msg.sender.transfer(ethRefund);\n            }\n            // transfer ether to funds wallet\n            pvtFundsWallet.transfer(ethAmount);\n            totalEthRaised = totalEthRaised.add(ethAmount);\n            emit EthRaisedUpdated(currentEthRaised, totalEthRaised);\n            // close token sale as tokens are sold out\n            tokensAvailable = false;\n        } else {\n            require(totalTokenAmount <= availableTokens, \"totalTokenAmount is greater than availableTokens\");\n\n            if (balances[msg.sender] == 0) {\n                icoParticipants.push(msg.sender);\n            }\n\n            // complete transfer and emit an event\n            balances[pvtFundsWallet] = balances[pvtFundsWallet].sub(totalTokenAmount);\n            balances[msg.sender] = balances[msg.sender].add(totalTokenAmount);\n\n            // transfer ether to the wallet and emit and event regarding eth raised\n            pvtFundsWallet.transfer(ethAmount);\n            totalEthRaised = totalEthRaised.add(ethAmount);\n            emit Transfer(pvtFundsWallet, msg.sender, totalTokenAmount);\n            emit EthRaisedUpdated(currentEthRaised, totalEthRaised);\n        }\n    }\n\n    // After close functions\n\n   // Burn any remaining tokens\n    function burnRemainingTokens() external onlyOwner returns (bool) {\n        require(currentTime() >= endTime, \"can only burn tokens after token sale has concluded\");\n        if (balances[pvtFundsWallet] > 0) {\n            // Subtracting the unsold tokens from the total supply.\n            uint256 oldSupply = totalSupply;\n            totalSupply = totalSupply.sub(balances[pvtFundsWallet]);\n            balances[pvtFundsWallet] = 0;\n            emit UpdatedTotalSupply(oldSupply, totalSupply);\n        }\n\n        return true;\n    }\n\n    // This can only be called by the owner on or after the token release date.\n    // This will be a two step process.\n    // This function will be called by the pvtSaleTokenWallet\n    // This wallet will need to be approved in the main contract to make these distributions\n    // _numberOfTransfers states the number of transfers that can happen at one time\n    function distributeTokens(uint256 _numberOfTransfers) external onlyRestricted returns (bool) {\n        require(currentTime() >= tokensReleaseDate, \"can only distribute after tokensReleaseDate\");\n        address pvtSaleTokenWallet = dc.pvtSaleTokenWallet();\n        uint256 finalDistributionIndex = currentDistributionIndex.add(_numberOfTransfers);\n\n        for (uint256 i = currentDistributionIndex; i < finalDistributionIndex; i++) {\n            // end for loop when currentDistributionIndex reaches the length of the icoParticipants array\n            if (i == icoParticipants.length) {\n                return;\n            }\n            // skip transfer if balances are empty\n            if (balances[icoParticipants[i]] != 0) {\n                dc.transferFrom(pvtSaleTokenWallet, icoParticipants[i], balances[icoParticipants[i]]);\n                emit Transfer(pvtSaleTokenWallet, icoParticipants[i], balances[icoParticipants[i]]);\n\n                // set balances to 0 to prevent re-transfer\n                balances[icoParticipants[i]] = 0;\n            }\n        }\n        // after distribution is complete set the currentDistributionIndex to the latest finalDistributionIndex\n        currentDistributionIndex = finalDistributionIndex;\n\n        // Event to say distribution is complete\n        emit DistributedAllBalancesToTSDContract(address(this), TSDContractAddress);\n\n        // Boolean is returned to give us a success state.\n        return true;\n    }\n}\n",
  "sourcePath": "/Users/venkateshnamburi/Desktop/521/Projects/Transcendence/tsd_dapp/contracts/PVTSD.sol",
  "compiler": {
    "name": "solc",
    "version": "0.4.24+commit.e67f0147.Emscripten.clang"
  },
  "schemaVersion": "2.0.0",
  "updatedAt": "2018-07-02T15:34:25.199Z"
}