{
  "contractName": "PVTSD",
  "abi": [
    {
      "constant": true,
      "inputs": [],
      "name": "name",
      "outputs": [
        {
          "name": "",
          "type": "string"
        }
      ],
      "payable": false,
      "stateMutability": "view",
      "type": "function"
    },
    {
      "constant": true,
      "inputs": [],
      "name": "totalSupply",
      "outputs": [
        {
          "name": "",
          "type": "uint256"
        }
      ],
      "payable": false,
      "stateMutability": "view",
      "type": "function"
    },
    {
      "constant": true,
      "inputs": [],
      "name": "decimalMultiplier",
      "outputs": [
        {
          "name": "",
          "type": "uint256"
        }
      ],
      "payable": false,
      "stateMutability": "view",
      "type": "function"
    },
    {
      "constant": true,
      "inputs": [],
      "name": "decimals",
      "outputs": [
        {
          "name": "",
          "type": "uint256"
        }
      ],
      "payable": false,
      "stateMutability": "view",
      "type": "function"
    },
    {
      "constant": true,
      "inputs": [],
      "name": "endTime",
      "outputs": [
        {
          "name": "",
          "type": "uint256"
        }
      ],
      "payable": false,
      "stateMutability": "view",
      "type": "function"
    },
    {
      "constant": true,
      "inputs": [],
      "name": "minPurchase",
      "outputs": [
        {
          "name": "",
          "type": "uint256"
        }
      ],
      "payable": false,
      "stateMutability": "view",
      "type": "function"
    },
    {
      "constant": true,
      "inputs": [],
      "name": "exchangeRate",
      "outputs": [
        {
          "name": "",
          "type": "uint256"
        }
      ],
      "payable": false,
      "stateMutability": "view",
      "type": "function"
    },
    {
      "constant": true,
      "inputs": [],
      "name": "TSDContractAddress",
      "outputs": [
        {
          "name": "",
          "type": "address"
        }
      ],
      "payable": false,
      "stateMutability": "view",
      "type": "function"
    },
    {
      "constant": true,
      "inputs": [],
      "name": "million",
      "outputs": [
        {
          "name": "",
          "type": "uint256"
        }
      ],
      "payable": false,
      "stateMutability": "view",
      "type": "function"
    },
    {
      "constant": false,
      "inputs": [],
      "name": "renounceOwnership",
      "outputs": [],
      "payable": false,
      "stateMutability": "nonpayable",
      "type": "function"
    },
    {
      "constant": true,
      "inputs": [],
      "name": "startTime",
      "outputs": [
        {
          "name": "",
          "type": "uint256"
        }
      ],
      "payable": false,
      "stateMutability": "view",
      "type": "function"
    },
    {
      "constant": true,
      "inputs": [],
      "name": "owner",
      "outputs": [
        {
          "name": "",
          "type": "address"
        }
      ],
      "payable": false,
      "stateMutability": "view",
      "type": "function"
    },
    {
      "constant": true,
      "inputs": [],
      "name": "icoOpen",
      "outputs": [
        {
          "name": "",
          "type": "bool"
        }
      ],
      "payable": false,
      "stateMutability": "view",
      "type": "function"
    },
    {
      "constant": true,
      "inputs": [],
      "name": "symbol",
      "outputs": [
        {
          "name": "",
          "type": "string"
        }
      ],
      "payable": false,
      "stateMutability": "view",
      "type": "function"
    },
    {
      "constant": true,
      "inputs": [
        {
          "name": "",
          "type": "uint256"
        }
      ],
      "name": "icoParticipants",
      "outputs": [
        {
          "name": "",
          "type": "address"
        }
      ],
      "payable": false,
      "stateMutability": "view",
      "type": "function"
    },
    {
      "constant": true,
      "inputs": [],
      "name": "tokensReleaseDate",
      "outputs": [
        {
          "name": "",
          "type": "uint256"
        }
      ],
      "payable": false,
      "stateMutability": "view",
      "type": "function"
    },
    {
      "constant": true,
      "inputs": [],
      "name": "totalEthRaised",
      "outputs": [
        {
          "name": "",
          "type": "uint256"
        }
      ],
      "payable": false,
      "stateMutability": "view",
      "type": "function"
    },
    {
      "constant": true,
      "inputs": [],
      "name": "pvtFundsWallet",
      "outputs": [
        {
          "name": "",
          "type": "address"
        }
      ],
      "payable": false,
      "stateMutability": "view",
      "type": "function"
    },
    {
      "constant": true,
      "inputs": [],
      "name": "dc",
      "outputs": [
        {
          "name": "",
          "type": "address"
        }
      ],
      "payable": false,
      "stateMutability": "view",
      "type": "function"
    },
    {
      "constant": false,
      "inputs": [
        {
          "name": "newOwner",
          "type": "address"
        }
      ],
      "name": "transferOwnership",
      "outputs": [],
      "payable": false,
      "stateMutability": "nonpayable",
      "type": "function"
    },
    {
      "constant": true,
      "inputs": [
        {
          "name": "",
          "type": "address"
        }
      ],
      "name": "whiteListed",
      "outputs": [
        {
          "name": "",
          "type": "bool"
        }
      ],
      "payable": false,
      "stateMutability": "view",
      "type": "function"
    },
    {
      "inputs": [
        {
          "name": "_exchangeRate",
          "type": "uint256"
        },
        {
          "name": "_whitelistAddresses",
          "type": "address[]"
        }
      ],
      "payable": false,
      "stateMutability": "nonpayable",
      "type": "constructor"
    },
    {
      "payable": true,
      "stateMutability": "payable",
      "type": "fallback"
    },
    {
      "anonymous": false,
      "inputs": [
        {
          "indexed": false,
          "name": "oldEthRaisedVal",
          "type": "uint256"
        },
        {
          "indexed": false,
          "name": "newEthRaisedVal",
          "type": "uint256"
        }
      ],
      "name": "EthRaisedUpdated",
      "type": "event"
    },
    {
      "anonymous": false,
      "inputs": [
        {
          "indexed": false,
          "name": "prevExchangeRate",
          "type": "uint256"
        },
        {
          "indexed": false,
          "name": "newExchangeRate",
          "type": "uint256"
        }
      ],
      "name": "ExhangeRateUpdated",
      "type": "event"
    },
    {
      "anonymous": false,
      "inputs": [
        {
          "indexed": false,
          "name": "_presd",
          "type": "address"
        },
        {
          "indexed": false,
          "name": "_tsd",
          "type": "address"
        }
      ],
      "name": "DistributedAllBalancesToTSDContract",
      "type": "event"
    },
    {
      "anonymous": false,
      "inputs": [
        {
          "indexed": false,
          "name": "from",
          "type": "address"
        },
        {
          "indexed": false,
          "name": "to",
          "type": "address"
        },
        {
          "indexed": false,
          "name": "value",
          "type": "uint256"
        }
      ],
      "name": "Transfer",
      "type": "event"
    },
    {
      "anonymous": false,
      "inputs": [
        {
          "indexed": false,
          "name": "variable",
          "type": "string"
        }
      ],
      "name": "DebuggingStrings",
      "type": "event"
    },
    {
      "anonymous": false,
      "inputs": [
        {
          "indexed": false,
          "name": "variable",
          "type": "string"
        },
        {
          "indexed": false,
          "name": "value",
          "type": "address"
        }
      ],
      "name": "DebuggingAddresses",
      "type": "event"
    },
    {
      "anonymous": false,
      "inputs": [
        {
          "indexed": false,
          "name": "variable",
          "type": "string"
        },
        {
          "indexed": false,
          "name": "value",
          "type": "uint256"
        }
      ],
      "name": "DebuggingAmts",
      "type": "event"
    },
    {
      "anonymous": false,
      "inputs": [
        {
          "indexed": true,
          "name": "previousOwner",
          "type": "address"
        }
      ],
      "name": "OwnershipRenounced",
      "type": "event"
    },
    {
      "anonymous": false,
      "inputs": [
        {
          "indexed": true,
          "name": "previousOwner",
          "type": "address"
        },
        {
          "indexed": true,
          "name": "newOwner",
          "type": "address"
        }
      ],
      "name": "OwnershipTransferred",
      "type": "event"
    },
    {
      "constant": true,
      "inputs": [],
      "name": "currentTime",
      "outputs": [
        {
          "name": "",
          "type": "uint256"
        }
      ],
      "payable": false,
      "stateMutability": "view",
      "type": "function"
    },
    {
      "constant": true,
      "inputs": [
        {
          "name": "_owner",
          "type": "address"
        }
      ],
      "name": "balanceOf",
      "outputs": [
        {
          "name": "",
          "type": "uint256"
        }
      ],
      "payable": false,
      "stateMutability": "view",
      "type": "function"
    },
    {
      "constant": false,
      "inputs": [
        {
          "name": "_addresses",
          "type": "address[]"
        }
      ],
      "name": "createWhiteListedMapping",
      "outputs": [],
      "payable": false,
      "stateMutability": "nonpayable",
      "type": "function"
    },
    {
      "constant": false,
      "inputs": [
        {
          "name": "_newAddress",
          "type": "address"
        }
      ],
      "name": "changeOracleAddress",
      "outputs": [],
      "payable": false,
      "stateMutability": "nonpayable",
      "type": "function"
    },
    {
      "constant": false,
      "inputs": [
        {
          "name": "_newRate",
          "type": "uint256"
        }
      ],
      "name": "updateTheExchangeRate",
      "outputs": [
        {
          "name": "",
          "type": "bool"
        }
      ],
      "payable": false,
      "stateMutability": "nonpayable",
      "type": "function"
    },
    {
      "constant": true,
      "inputs": [
        {
          "name": "_address",
          "type": "address"
        }
      ],
      "name": "isWhiteListed",
      "outputs": [
        {
          "name": "",
          "type": "bool"
        }
      ],
      "payable": false,
      "stateMutability": "view",
      "type": "function"
    },
    {
      "constant": false,
      "inputs": [],
      "name": "buyTokens",
      "outputs": [],
      "payable": true,
      "stateMutability": "payable",
      "type": "function"
    },
    {
      "constant": false,
      "inputs": [
        {
          "name": "_t",
          "type": "address"
        }
      ],
      "name": "setMainContractAddress",
      "outputs": [],
      "payable": false,
      "stateMutability": "nonpayable",
      "type": "function"
    },
    {
      "constant": false,
      "inputs": [],
      "name": "burnRemainingTokens",
      "outputs": [
        {
          "name": "",
          "type": "bool"
        }
      ],
      "payable": false,
      "stateMutability": "nonpayable",
      "type": "function"
    },
    {
      "constant": false,
      "inputs": [],
      "name": "distributeTokens",
      "outputs": [
        {
          "name": "",
          "type": "bool"
        }
      ],
      "payable": false,
      "stateMutability": "nonpayable",
      "type": "function"
    }
  ],
  "bytecode": "0x60806040526040805190810160405280601081526020017f505249564154452054534420434f494e000000000000000000000000000000008152506004908051906020019062000051929190620005a5565b506040805190810160405280600581526020017f5056545344000000000000000000000000000000000000000000000000000000815250600590805190602001906200009f929190620005a5565b506012600655600654600a0a600755600754620f4240026008556008546037026009556802b5e3af16b1880000600a556000600c55650163fe988b00600d5565016499175300600e5565016a1c25cb00600f556001601460006101000a81548160ff0219169083151502179055503480156200011a57600080fd5b5060405162002979380380620029798339810180604052810190808051906020019092919080518201929190505050336000806101000a81548173ffffffffffffffffffffffffffffffffffffffff021916908373ffffffffffffffffffffffffffffffffffffffff1602179055506000809054906101000a900473ffffffffffffffffffffffffffffffffffffffff16601060006101000a81548173ffffffffffffffffffffffffffffffffffffffff021916908373ffffffffffffffffffffffffffffffffffffffff16021790555060095460136000601060009054906101000a900473ffffffffffffffffffffffffffffffffffffffff1673ffffffffffffffffffffffffffffffffffffffff1673ffffffffffffffffffffffffffffffffffffffff168152602001908152602001600020819055507fddf252ad1be2c89b69c2b068fc378daa952ba7f163c4a11628f55a4df523b3ef6000601060009054906101000a900473ffffffffffffffffffffffffffffffffffffffff16600954604051808473ffffffffffffffffffffffffffffffffffffffff1681526020018373ffffffffffffffffffffffffffffffffffffffff1673ffffffffffffffffffffffffffffffffffffffff168152602001828152602001935050505060405180910390a16200031b816200033e640100000000026401000000009004565b62000335826200042d640100000000026401000000009004565b50505062000654565b60008060009054906101000a900473ffffffffffffffffffffffffffffffffffffffff1673ffffffffffffffffffffffffffffffffffffffff163373ffffffffffffffffffffffffffffffffffffffff161415156200039c57600080fd5b600090505b815181101562000429576001601260008484815181101515620003c057fe5b9060200190602002015173ffffffffffffffffffffffffffffffffffffffff1673ffffffffffffffffffffffffffffffffffffffff16815260200190815260200160002060006101000a81548160ff0219169083151502179055508080600101915050620003a1565b5050565b60008060008060009054906101000a900473ffffffffffffffffffffffffffffffffffffffff1673ffffffffffffffffffffffffffffffffffffffff163373ffffffffffffffffffffffffffffffffffffffff161480620004db5750600360009054906101000a900473ffffffffffffffffffffffffffffffffffffffff1673ffffffffffffffffffffffffffffffffffffffff163373ffffffffffffffffffffffffffffffffffffffff16145b1515620004e757600080fd5b600b54915064e8d4a510009050620005178482620005696401000000000262002266179091906401000000009004565b600b819055507f9a4a0b4ec1a5f7ce40f0bbb5afddc8a88ed1279508f5d92b5056dcffdff438d982600b54604051808381526020018281526020019250505060405180910390a1600192505050919050565b6000808314156200057e57600090506200059f565b81830290508183828115156200059057fe5b041415156200059b57fe5b8090505b92915050565b828054600181600116156101000203166002900490600052602060002090601f016020900481019282601f10620005e857805160ff191683800117855562000619565b8280016001018555821562000619579182015b8281111562000618578251825591602001919060010190620005fb565b5b5090506200062891906200062c565b5090565b6200065191905b808211156200064d57600081600090555060010162000633565b5090565b90565b61231580620006646000396000f30060806040526004361061018b576000357c0100000000000000000000000000000000000000000000000000000000900463ffffffff16806306fdde031461019557806318160ddd146102255780633082538f14610250578063313ce5671461027b5780633197cbb6146102a657806333b5b62e146102d15780633ba0b9a9146102fc5780634a54839d146103275780634e9c6b1f1461037e5780636f9170f6146103a957806370a0823114610404578063715018a61461045b57806378e979251461047257806383408d731461049d5780638da5cb5b146104cc578063927a90da1461052357806395d89b41146105525780639ab1b484146105e2578063a229c61414610611578063a256ea3a14610656578063afe07f59146106c3578063b9cdd19b146106ee578063c9e904be14610754578063d0febe4c1461077f578063d18e81b314610789578063d45d6850146107b4578063d8a531a61461080b578063ec9da59e14610862578063f2fde38b146108a5578063fa0fca84146108e8578063fb349dbd14610943575b610193610986565b005b3480156101a157600080fd5b506101aa61129f565b6040518080602001828103825283818151815260200191508051906020019080838360005b838110156101ea5780820151818401526020810190506101cf565b50505050905090810190601f1680156102175780820380516001836020036101000a031916815260200191505b509250505060405180910390f35b34801561023157600080fd5b5061023a61133d565b6040518082815260200191505060405180910390f35b34801561025c57600080fd5b50610265611343565b6040518082815260200191505060405180910390f35b34801561028757600080fd5b50610290611349565b6040518082815260200191505060405180910390f35b3480156102b257600080fd5b506102bb61134f565b6040518082815260200191505060405180910390f35b3480156102dd57600080fd5b506102e6611355565b6040518082815260200191505060405180910390f35b34801561030857600080fd5b5061031161135b565b6040518082815260200191505060405180910390f35b34801561033357600080fd5b5061033c611361565b604051808273ffffffffffffffffffffffffffffffffffffffff1673ffffffffffffffffffffffffffffffffffffffff16815260200191505060405180910390f35b34801561038a57600080fd5b50610393611387565b6040518082815260200191505060405180910390f35b3480156103b557600080fd5b506103ea600480360381019080803573ffffffffffffffffffffffffffffffffffffffff16906020019092919050505061138d565b604051808215151515815260200191505060405180910390f35b34801561041057600080fd5b50610445600480360381019080803573ffffffffffffffffffffffffffffffffffffffff1690602001909291905050506113f4565b6040518082815260200191505060405180910390f35b34801561046757600080fd5b5061047061143d565b005b34801561047e57600080fd5b5061048761153f565b6040518082815260200191505060405180910390f35b3480156104a957600080fd5b506104b2611545565b604051808215151515815260200191505060405180910390f35b3480156104d857600080fd5b506104e1611693565b604051808273ffffffffffffffffffffffffffffffffffffffff1673ffffffffffffffffffffffffffffffffffffffff16815260200191505060405180910390f35b34801561052f57600080fd5b506105386116b8565b604051808215151515815260200191505060405180910390f35b34801561055e57600080fd5b506105676116cb565b6040518080602001828103825283818151815260200191508051906020019080838360005b838110156105a757808201518184015260208101905061058c565b50505050905090810190601f1680156105d45780820380516001836020036101000a031916815260200191505b509250505060405180910390f35b3480156105ee57600080fd5b506105f7611769565b604051808215151515815260200191505060405180910390f35b34801561061d57600080fd5b5061063c60048036038101908080359060200190929190505050611cbb565b604051808215151515815260200191505060405180910390f35b34801561066257600080fd5b5061068160048036038101908080359060200190929190505050611de5565b604051808273ffffffffffffffffffffffffffffffffffffffff1673ffffffffffffffffffffffffffffffffffffffff16815260200191505060405180910390f35b3480156106cf57600080fd5b506106d8611e23565b6040518082815260200191505060405180910390f35b3480156106fa57600080fd5b5061075260048036038101908080359060200190820180359060200190808060200260200160405190810160405280939291908181526020018383602002808284378201915050505050509192919290505050611e29565b005b34801561076057600080fd5b50610769611f14565b6040518082815260200191505060405180910390f35b610787610986565b005b34801561079557600080fd5b5061079e611f1a565b6040518082815260200191505060405180910390f35b3480156107c057600080fd5b506107c9611f26565b604051808273ffffffffffffffffffffffffffffffffffffffff1673ffffffffffffffffffffffffffffffffffffffff16815260200191505060405180910390f35b34801561081757600080fd5b50610820611f4c565b604051808273ffffffffffffffffffffffffffffffffffffffff1673ffffffffffffffffffffffffffffffffffffffff16815260200191505060405180910390f35b34801561086e57600080fd5b506108a3600480360381019080803573ffffffffffffffffffffffffffffffffffffffff169060200190929190505050611f72565b005b3480156108b157600080fd5b506108e6600480360381019080803573ffffffffffffffffffffffffffffffffffffffff169060200190929190505050612052565b005b3480156108f457600080fd5b50610929600480360381019080803573ffffffffffffffffffffffffffffffffffffffff1690602001909291905050506121a7565b604051808215151515815260200191505060405180910390f35b34801561094f57600080fd5b50610984600480360381019080803573ffffffffffffffffffffffffffffffffffffffff1690602001909291905050506121c7565b005b6000806000806000806000601460009054906101000a900460ff1615156109ac57600080fd5b600d546109b7611f1a565b101580156109ce5750600e546109cb611f1a565b11155b15156109d957600080fd5b600a5434101515156109ea57600080fd5b601260003373ffffffffffffffffffffffffffffffffffffffff1673ffffffffffffffffffffffffffffffffffffffff16815260200190815260200160002060009054906101000a900460ff161515610a4257600080fd5b349650610a6e6064610a60603c600b5461226690919063ffffffff16565b61229e90919063ffffffff16565b9550610a97600754610a89888a61229e90919063ffffffff16565b61226690919063ffffffff16565b945060136000601060009054906101000a900473ffffffffffffffffffffffffffffffffffffffff1673ffffffffffffffffffffffffffffffffffffffff1673ffffffffffffffffffffffffffffffffffffffff168152602001908152602001600020549350600c5492506000915083851115610f2c57610b2184866122b490919063ffffffff16565b9050610b4a600754610b3c888461226690919063ffffffff16565b61229e90919063ffffffff16565b9150610b5f82886122b490919063ffffffff16565b9650610bd58460136000601060009054906101000a900473ffffffffffffffffffffffffffffffffffffffff1673ffffffffffffffffffffffffffffffffffffffff1673ffffffffffffffffffffffffffffffffffffffff168152602001908152602001600020546122b490919063ffffffff16565b60136000601060009054906101000a900473ffffffffffffffffffffffffffffffffffffffff1673ffffffffffffffffffffffffffffffffffffffff1673ffffffffffffffffffffffffffffffffffffffff16815260200190815260200160002081905550610c8c84601360003373ffffffffffffffffffffffffffffffffffffffff1673ffffffffffffffffffffffffffffffffffffffff168152602001908152602001600020546122cd90919063ffffffff16565b601360003373ffffffffffffffffffffffffffffffffffffffff1673ffffffffffffffffffffffffffffffffffffffff168152602001908152602001600020819055507fddf252ad1be2c89b69c2b068fc378daa952ba7f163c4a11628f55a4df523b3ef601060009054906101000a900473ffffffffffffffffffffffffffffffffffffffff163386604051808473ffffffffffffffffffffffffffffffffffffffff1673ffffffffffffffffffffffffffffffffffffffff1681526020018373ffffffffffffffffffffffffffffffffffffffff1673ffffffffffffffffffffffffffffffffffffffff168152602001828152602001935050505060405180910390a160113390806001815401808255809150509060018203906000526020600020016000909192909190916101000a81548173ffffffffffffffffffffffffffffffffffffffff021916908373ffffffffffffffffffffffffffffffffffffffff160217905550506000821115610e47573373ffffffffffffffffffffffffffffffffffffffff166108fc839081150290604051600060405180830381858888f19350505050158015610e45573d6000803e3d6000fd5b505b601060009054906101000a900473ffffffffffffffffffffffffffffffffffffffff1673ffffffffffffffffffffffffffffffffffffffff166108fc889081150290604051600060405180830381858888f19350505050158015610eaf573d6000803e3d6000fd5b50610ec587600c546122cd90919063ffffffff16565b600c819055507f4014ce514c76bad08328a2a6046bac14007f7aad2c56c84c66acf8ca1c64bee883600c54604051808381526020018281526020019250505060405180910390a16000601460006101000a81548160ff021916908315150217905550611296565b848410151515610f3b57600080fd5b610faf8560136000601060009054906101000a900473ffffffffffffffffffffffffffffffffffffffff1673ffffffffffffffffffffffffffffffffffffffff1673ffffffffffffffffffffffffffffffffffffffff168152602001908152602001600020546122b490919063ffffffff16565b60136000601060009054906101000a900473ffffffffffffffffffffffffffffffffffffffff1673ffffffffffffffffffffffffffffffffffffffff1673ffffffffffffffffffffffffffffffffffffffff1681526020019081526020016000208190555061106685601360003373ffffffffffffffffffffffffffffffffffffffff1673ffffffffffffffffffffffffffffffffffffffff168152602001908152602001600020546122cd90919063ffffffff16565b601360003373ffffffffffffffffffffffffffffffffffffffff1673ffffffffffffffffffffffffffffffffffffffff1681526020019081526020016000208190555060113390806001815401808255809150509060018203906000526020600020016000909192909190916101000a81548173ffffffffffffffffffffffffffffffffffffffff021916908373ffffffffffffffffffffffffffffffffffffffff16021790555050601060009054906101000a900473ffffffffffffffffffffffffffffffffffffffff1673ffffffffffffffffffffffffffffffffffffffff166108fc889081150290604051600060405180830381858888f19350505050158015611177573d6000803e3d6000fd5b5061118d87600c546122cd90919063ffffffff16565b600c819055507fddf252ad1be2c89b69c2b068fc378daa952ba7f163c4a11628f55a4df523b3ef601060009054906101000a900473ffffffffffffffffffffffffffffffffffffffff163387604051808473ffffffffffffffffffffffffffffffffffffffff1673ffffffffffffffffffffffffffffffffffffffff1681526020018373ffffffffffffffffffffffffffffffffffffffff1673ffffffffffffffffffffffffffffffffffffffff168152602001828152602001935050505060405180910390a17f4014ce514c76bad08328a2a6046bac14007f7aad2c56c84c66acf8ca1c64bee883600c54604051808381526020018281526020019250505060405180910390a15b50505050505050565b60048054600181600116156101000203166002900480601f0160208091040260200160405190810160405280929190818152602001828054600181600116156101000203166002900480156113355780601f1061130a57610100808354040283529160200191611335565b820191906000526020600020905b81548152906001019060200180831161131857829003601f168201915b505050505081565b60095481565b60075481565b60065481565b600e5481565b600a5481565b600b5481565b600260009054906101000a900473ffffffffffffffffffffffffffffffffffffffff1681565b60085481565b6000601260008373ffffffffffffffffffffffffffffffffffffffff1673ffffffffffffffffffffffffffffffffffffffff16815260200190815260200160002060009054906101000a900460ff16156113ea57600190506113ef565b600090505b919050565b6000601360008373ffffffffffffffffffffffffffffffffffffffff1673ffffffffffffffffffffffffffffffffffffffff168152602001908152602001600020549050919050565b6000809054906101000a900473ffffffffffffffffffffffffffffffffffffffff1673ffffffffffffffffffffffffffffffffffffffff163373ffffffffffffffffffffffffffffffffffffffff1614151561149857600080fd5b6000809054906101000a900473ffffffffffffffffffffffffffffffffffffffff1673ffffffffffffffffffffffffffffffffffffffff167ff8df31144d9c2f0f6b59d69b8b98abd5459d07f2742c4df920b25aae33c6482060405160405180910390a260008060006101000a81548173ffffffffffffffffffffffffffffffffffffffff021916908373ffffffffffffffffffffffffffffffffffffffff160217905550565b600d5481565b60008060009054906101000a900473ffffffffffffffffffffffffffffffffffffffff1673ffffffffffffffffffffffffffffffffffffffff163373ffffffffffffffffffffffffffffffffffffffff161415156115a257600080fd5b600e546115ad611f1a565b101515156115ba57600080fd5b600060136000601060009054906101000a900473ffffffffffffffffffffffffffffffffffffffff1673ffffffffffffffffffffffffffffffffffffffff1673ffffffffffffffffffffffffffffffffffffffff16815260200190815260200160002054111561168c57600060136000601060009054906101000a900473ffffffffffffffffffffffffffffffffffffffff1673ffffffffffffffffffffffffffffffffffffffff1673ffffffffffffffffffffffffffffffffffffffff168152602001908152602001600020819055505b6001905090565b6000809054906101000a900473ffffffffffffffffffffffffffffffffffffffff1681565b601460009054906101000a900460ff1681565b60058054600181600116156101000203166002900480601f0160208091040260200160405190810160405280929190818152602001828054600181600116156101000203166002900480156117615780601f1061173657610100808354040283529160200191611761565b820191906000526020600020905b81548152906001019060200180831161174457829003601f168201915b505050505081565b60008060008060009054906101000a900473ffffffffffffffffffffffffffffffffffffffff1673ffffffffffffffffffffffffffffffffffffffff163373ffffffffffffffffffffffffffffffffffffffff161415156117c957600080fd5b600f546117d4611f1a565b101515156117e157600080fd5b600160009054906101000a900473ffffffffffffffffffffffffffffffffffffffff1673ffffffffffffffffffffffffffffffffffffffff16638fb24c7d6040518163ffffffff167c0100000000000000000000000000000000000000000000000000000000028152600401602060405180830381600087803b15801561186757600080fd5b505af115801561187b573d6000803e3d6000fd5b505050506040513d602081101561189157600080fd5b81019080805190602001909291905050509150600090505b601180549050811015611bf957600160009054906101000a900473ffffffffffffffffffffffffffffffffffffffff1673ffffffffffffffffffffffffffffffffffffffff166323b872dd8360118481548110151561190457fe5b9060005260206000200160009054906101000a900473ffffffffffffffffffffffffffffffffffffffff166013600060118781548110151561194257fe5b9060005260206000200160009054906101000a900473ffffffffffffffffffffffffffffffffffffffff1673ffffffffffffffffffffffffffffffffffffffff1673ffffffffffffffffffffffffffffffffffffffff168152602001908152602001600020546040518463ffffffff167c0100000000000000000000000000000000000000000000000000000000028152600401808473ffffffffffffffffffffffffffffffffffffffff1673ffffffffffffffffffffffffffffffffffffffff1681526020018373ffffffffffffffffffffffffffffffffffffffff1673ffffffffffffffffffffffffffffffffffffffff1681526020018281526020019350505050602060405180830381600087803b158015611a6057600080fd5b505af1158015611a74573d6000803e3d6000fd5b505050506040513d6020811015611a8a57600080fd5b8101908080519060200190929190505050507fddf252ad1be2c89b69c2b068fc378daa952ba7f163c4a11628f55a4df523b3ef82601183815481101515611acd57fe5b9060005260206000200160009054906101000a900473ffffffffffffffffffffffffffffffffffffffff1660136000601186815481101515611b0b57fe5b9060005260206000200160009054906101000a900473ffffffffffffffffffffffffffffffffffffffff1673ffffffffffffffffffffffffffffffffffffffff1673ffffffffffffffffffffffffffffffffffffffff16815260200190815260200160002054604051808473ffffffffffffffffffffffffffffffffffffffff1673ffffffffffffffffffffffffffffffffffffffff1681526020018373ffffffffffffffffffffffffffffffffffffffff1673ffffffffffffffffffffffffffffffffffffffff168152602001828152602001935050505060405180910390a180806001019150506118a9565b7f5fc214609a6cb66e8182b2a4d291dda75b365e02c065872483a7a875e54d7e1830600260009054906101000a900473ffffffffffffffffffffffffffffffffffffffff16604051808373ffffffffffffffffffffffffffffffffffffffff1673ffffffffffffffffffffffffffffffffffffffff1681526020018273ffffffffffffffffffffffffffffffffffffffff1673ffffffffffffffffffffffffffffffffffffffff1681526020019250505060405180910390a160019250505090565b60008060008060009054906101000a900473ffffffffffffffffffffffffffffffffffffffff1673ffffffffffffffffffffffffffffffffffffffff163373ffffffffffffffffffffffffffffffffffffffff161480611d685750600360009054906101000a900473ffffffffffffffffffffffffffffffffffffffff1673ffffffffffffffffffffffffffffffffffffffff163373ffffffffffffffffffffffffffffffffffffffff16145b1515611d7357600080fd5b600b54915064e8d4a510009050611d93848261226690919063ffffffff16565b600b819055507f9a4a0b4ec1a5f7ce40f0bbb5afddc8a88ed1279508f5d92b5056dcffdff438d982600b54604051808381526020018281526020019250505060405180910390a1600192505050919050565b601181815481101515611df457fe5b906000526020600020016000915054906101000a900473ffffffffffffffffffffffffffffffffffffffff1681565b600f5481565b60008060009054906101000a900473ffffffffffffffffffffffffffffffffffffffff1673ffffffffffffffffffffffffffffffffffffffff163373ffffffffffffffffffffffffffffffffffffffff16141515611e8657600080fd5b600090505b8151811015611f10576001601260008484815181101515611ea857fe5b9060200190602002015173ffffffffffffffffffffffffffffffffffffffff1673ffffffffffffffffffffffffffffffffffffffff16815260200190815260200160002060006101000a81548160ff0219169083151502179055508080600101915050611e8b565b5050565b600c5481565b60006103e84202905090565b601060009054906101000a900473ffffffffffffffffffffffffffffffffffffffff1681565b600160009054906101000a900473ffffffffffffffffffffffffffffffffffffffff1681565b6000809054906101000a900473ffffffffffffffffffffffffffffffffffffffff1673ffffffffffffffffffffffffffffffffffffffff163373ffffffffffffffffffffffffffffffffffffffff16141515611fcd57600080fd5b80600160006101000a81548173ffffffffffffffffffffffffffffffffffffffff021916908373ffffffffffffffffffffffffffffffffffffffff16021790555080600260006101000a81548173ffffffffffffffffffffffffffffffffffffffff021916908373ffffffffffffffffffffffffffffffffffffffff16021790555050565b6000809054906101000a900473ffffffffffffffffffffffffffffffffffffffff1673ffffffffffffffffffffffffffffffffffffffff163373ffffffffffffffffffffffffffffffffffffffff161415156120ad57600080fd5b600073ffffffffffffffffffffffffffffffffffffffff168173ffffffffffffffffffffffffffffffffffffffff16141515156120e957600080fd5b8073ffffffffffffffffffffffffffffffffffffffff166000809054906101000a900473ffffffffffffffffffffffffffffffffffffffff1673ffffffffffffffffffffffffffffffffffffffff167f8be0079c531659141344cd1fd0a4f28419497f9722a3daafe3b4186f6b6457e060405160405180910390a3806000806101000a81548173ffffffffffffffffffffffffffffffffffffffff021916908373ffffffffffffffffffffffffffffffffffffffff16021790555050565b60126020528060005260406000206000915054906101000a900460ff1681565b6000809054906101000a900473ffffffffffffffffffffffffffffffffffffffff1673ffffffffffffffffffffffffffffffffffffffff163373ffffffffffffffffffffffffffffffffffffffff1614151561222257600080fd5b80600360006101000a81548173ffffffffffffffffffffffffffffffffffffffff021916908373ffffffffffffffffffffffffffffffffffffffff16021790555050565b6000808314156122795760009050612298565b818302905081838281151561228a57fe5b0414151561229457fe5b8090505b92915050565b600081838115156122ab57fe5b04905092915050565b60008282111515156122c257fe5b818303905092915050565b600081830190508281101515156122e057fe5b809050929150505600a165627a7a72305820da22863b4b2ee4ca0f8d5bedc28c29e3d9c711f51dca84fd29455483a430915d0029",
  "source": "pragma solidity ^0.4.23;\n\n// import \"./FoundationContracts/BaseToken.sol\";\nimport \"./FoundationContracts/Ownable.sol\";\nimport \"./TSD.sol\";\n\ncontract PVTSD is Ownable {\n    using SafeMath for uint256;\n    // set up access to main contract for the future distribution\n    TSD public dc;\n    // when the connection is set to the main contract, save a reference for event purposes\n    address public TSDContractAddress;\n    address private oracleAddress;\n\n    string public name = \"PRIVATE TSD COIN\";\n    string public symbol = \"PVTSD\";\n    uint256 public decimals = 18;\n    uint256 public decimalMultiplier = uint256(10) ** decimals;\n    uint256 public million = 1000000 * decimalMultiplier;\n    uint256 public totalSupply = 55 * million;\n    // CHANGE TO 50 ETH\n    uint256 public minPurchase = 50 ether;\n    // 1 TSD = x ETH\n    // Unit convertsions https://github.com/ethereum/web3.js/blob/0.15.0/lib/utils/utils.js#L40\n    uint256 public exchangeRate;\n    uint256 public totalEthRaised = 0;\n\n    // Coordinated Universal Time (abbreviated to UTC) is the primary time standard by which the world regulates clocks and time.\n\n    // Start time \"Fri Jun 15 2018 00:00:00 GMT+1000 (AEST)\"\n    // new Date(1535724000000).toUTCString() => \"Thu, 14 Jun 2018 14:00:00 GMT\"\n    uint256 public startTime = 1528984800000;\n    // End time \"Fri Jul 15 2018 00:00:00 GMT+1000 (AEST)\"\n    // new Date(1531576800000).toUTCString() => \"Sat, 14 Jul 2018 14:00:00 GMT\"\n    uint256 public endTime = 1531576800000;\n    // Token release date 9 months post end date\n    // \"Mon April 15 2019 00:00:00 GMT+1000 (AEST)\"\n    // new Date(1555250400000).toUTCString() => \"Sun, 14 Apr 2019 14:00:00 GMT\"\n    uint256 public tokensReleaseDate = 1555250400000;\n\n    // Wallets\n    address public pvtFundsWallet;\n\n    // Array of participants used when distributing tokens to main contract\n    address[] public icoParticipants;\n\n    // whitelisted addresses\n    mapping (address => bool) public whiteListed;\n\n    // balances\n    mapping(address => uint256) balances;\n\n    // ico concluded due to all tokens sold\n    bool public icoOpen = true;\n\n    // Events\n    event EthRaisedUpdated(uint256 oldEthRaisedVal, uint256 newEthRaisedVal);\n    event ExhangeRateUpdated(uint256 prevExchangeRate, uint256 newExchangeRate);\n    event DistributedAllBalancesToTSDContract(address _presd, address _tsd);\n    event Transfer(address from, address to, uint256 value);\n    event DebuggingStrings(string variable);\n    event DebuggingAddresses(string variable, address value);\n    event DebuggingAmts(string variable, uint value);\n\n    constructor(\n        uint256 _exchangeRate,\n        address[] _whitelistAddresses\n    ) public {\n        pvtFundsWallet = owner;\n\n        // transfer suppy to the pvtFundsWallet\n        balances[pvtFundsWallet] = totalSupply;\n        emit Transfer(0x0, pvtFundsWallet, totalSupply);\n\n        // set up the white listing mapping\n        createWhiteListedMapping(_whitelistAddresses);\n\n        // set up the exchangeRate\n        updateTheExchangeRate(_exchangeRate);\n    }\n\n    // Contract utility functions\n    function currentTime() public view returns (uint256) {\n        return now * 1000;\n    }\n\n    function balanceOf(address _owner) public view returns (uint256) {\n        return balances[_owner];\n    }\n\n    function createWhiteListedMapping(address[] _addresses) public onlyOwner {\n        for (uint256 i = 0; i < _addresses.length; i++) {\n            whiteListed[_addresses[i]] = true;\n        }\n    }\n\n    function changeOracleAddress(address _newAddress) external onlyOwner {\n      oracleAddress = _newAddress;\n    }\n\n    // Updates the ETH => TSD exchange rate\n    function updateTheExchangeRate(uint256 _newRate) public onlyRestricted returns (bool) {\n        uint256 currentRate = exchangeRate;\n        // 0.000001 ETHER\n        uint256 oneSzabo = 1 szabo;\n        // 0.00001 ETH OTHERWISE 0.000001\n        exchangeRate = (oneSzabo).mul(_newRate);\n        emit ExhangeRateUpdated(currentRate, exchangeRate);\n        return true;\n    }\n\n    // Can check to see if an address is whitelisted\n    function isWhiteListed(address _address) public view returns (bool) {\n        if (whiteListed[_address]) {\n            return true;\n        } else {\n            return false;\n        }\n    }\n\n    // Buy functions\n    function() payable public {\n        buyTokens();\n    }\n\n    function buyTokens() payable public {\n        require(icoOpen);\n        require(currentTime() >= startTime && currentTime() <= endTime);\n        require(msg.value >= minPurchase);\n        require(whiteListed[msg.sender]);\n\n        // ETH received by spender\n        uint256 ethAmount = msg.value;\n        // token amount based on ETH / exchangeRate result\n        // exchange rate is 1 TSD => x ETH\n        // with a 40% discount attached\n        uint256 discountedExchangeRate = exchangeRate.mul(60).div(100);\n        // totalTokenAmount is the total tokens offered including the discount\n        // Multiply with the decimalMultiplier to get total tokens (to 18 decimal place)\n        uint256 totalTokenAmount = ethAmount.div(discountedExchangeRate).mul(decimalMultiplier);\n        // tokens avaialble to sell are the remaining tokens in the pvtFundsWallet\n        uint256 availableTokens = balances[pvtFundsWallet];\n        uint256 currentEthRaised = totalEthRaised;\n        uint256 ethRefund = 0;\n        uint256 unavailableTokens;\n\n        if (totalTokenAmount > availableTokens) {\n            // additional tokens that aren't avaialble to be sold\n            // tokenAmount is the tokens requested by buyer (not including the discount)\n            // availableTokens are all the tokens left in the supplying wallet i.e pvtFundsWallet\n            unavailableTokens = totalTokenAmount.sub(availableTokens);\n\n            // determine the unused ether amount by seeing how many tokens were surplus\n            // i.e 'availableTokens' and reverse calculating their ETH equivalent\n            // divide by decimalMultiplier as unavailableTokens are 10^18\n            ethRefund = unavailableTokens.mul(discountedExchangeRate).div(decimalMultiplier);\n            // subtract the refund amount from the eth amount received by the tx\n            ethAmount = ethAmount.sub(ethRefund);\n            // make the token purchase\n            // will equal to 0 after these substractions occur\n            balances[pvtFundsWallet] = balances[pvtFundsWallet].sub(availableTokens);\n\n            // add total tokens to the senders balances and Emit transfer event\n            balances[msg.sender] = balances[msg.sender].add(availableTokens);\n            emit Transfer(pvtFundsWallet, msg.sender, availableTokens);\n            icoParticipants.push(msg.sender);\n            // refund\n            if (ethRefund > 0) {\n                msg.sender.transfer(ethRefund);\n            }\n            // transfer ether to funds wallet\n            pvtFundsWallet.transfer(ethAmount);\n            totalEthRaised = totalEthRaised.add(ethAmount);\n            emit EthRaisedUpdated(currentEthRaised, totalEthRaised);\n            // close token sale as tokens are sold out\n            icoOpen = false;\n        } else {\n            require(availableTokens >= totalTokenAmount);\n            // complete transfer and emit an event\n            balances[pvtFundsWallet] = balances[pvtFundsWallet].sub(totalTokenAmount);\n            balances[msg.sender] = balances[msg.sender].add(totalTokenAmount);\n            icoParticipants.push(msg.sender);\n\n            // transfer ether to the wallet and emit and event regarding eth raised\n            pvtFundsWallet.transfer(ethAmount);\n            totalEthRaised = totalEthRaised.add(ethAmount);\n            emit Transfer(pvtFundsWallet, msg.sender, totalTokenAmount);\n            emit EthRaisedUpdated(currentEthRaised, totalEthRaised);\n        }\n    }\n\n    // After close functions\n\n    // Create an instance of the main contract\n    function setMainContractAddress(address _t) onlyOwner public {\n        dc = TSD(_t);\n        TSDContractAddress = _t;\n    }\n\n   // Burn any remaining tokens\n    function burnRemainingTokens() onlyOwner public returns (bool) {\n        require(currentTime() >= endTime);\n        if (balances[pvtFundsWallet] > 0) {\n            balances[pvtFundsWallet] = 0;\n        }\n\n        return true;\n    }\n\n    // This can only be called by the owner on or after the token release date.\n    // This will be a two step process.\n    // This function will be called by the pvtSaleTokenWallet\n    // This wallet will need to be approved in the main contract to make these distributions\n\n    function distributeTokens() public onlyOwner returns (bool) {\n        require(currentTime() >= tokensReleaseDate);\n        address pvtSaleTokenWallet = dc.pvtSaleTokenWallet();\n        for (uint256 i = 0; i < icoParticipants.length; i++) {\n            dc.transferFrom(pvtSaleTokenWallet, icoParticipants[i], balances[icoParticipants[i]]);\n            emit Transfer(pvtSaleTokenWallet, icoParticipants[i], balances[icoParticipants[i]]);\n        }\n\n        // NOTE: What to do with any unsold tokens in the main contracts allocation???\n\n        // Event to say distribution is complete\n        emit DistributedAllBalancesToTSDContract(address(this), TSDContractAddress);\n\n        return true;\n    }\n\n    modifier onlyRestricted () {\n      require(msg.sender == owner || msg.sender == oracleAddress);\n      _;\n    }\n}\n",
  "sourcePath": "/Users/spencerdezartsmith/Documents/five2one/tsd_dapp/contracts/PVTSD.sol",
  "compiler": {
    "name": "solc",
    "version": "0.4.23+commit.124ca40d.Emscripten.clang"
  },
  "schemaVersion": "2.0.0",
  "updatedAt": "2018-06-11T23:16:33.614Z"
}