{
  "contractName": "SecondarySaleBaseContract",
  "abi": [
    {
      "constant": true,
      "inputs": [],
      "name": "ethExchangeRate",
      "outputs": [
        {
          "name": "",
          "type": "uint256"
        }
      ],
      "payable": false,
      "stateMutability": "view",
      "type": "function"
    },
    {
      "constant": true,
      "inputs": [],
      "name": "decimalMultiplier",
      "outputs": [
        {
          "name": "",
          "type": "uint256"
        }
      ],
      "payable": false,
      "stateMutability": "view",
      "type": "function"
    },
    {
      "constant": true,
      "inputs": [],
      "name": "decimals",
      "outputs": [
        {
          "name": "",
          "type": "uint256"
        }
      ],
      "payable": false,
      "stateMutability": "view",
      "type": "function"
    },
    {
      "constant": true,
      "inputs": [],
      "name": "endTime",
      "outputs": [
        {
          "name": "",
          "type": "uint256"
        }
      ],
      "payable": false,
      "stateMutability": "view",
      "type": "function"
    },
    {
      "constant": true,
      "inputs": [],
      "name": "exchangeRate",
      "outputs": [
        {
          "name": "",
          "type": "uint256"
        }
      ],
      "payable": false,
      "stateMutability": "view",
      "type": "function"
    },
    {
      "constant": true,
      "inputs": [],
      "name": "TSDContractAddress",
      "outputs": [
        {
          "name": "",
          "type": "address"
        }
      ],
      "payable": false,
      "stateMutability": "view",
      "type": "function"
    },
    {
      "constant": true,
      "inputs": [],
      "name": "million",
      "outputs": [
        {
          "name": "",
          "type": "uint256"
        }
      ],
      "payable": false,
      "stateMutability": "view",
      "type": "function"
    },
    {
      "constant": true,
      "inputs": [],
      "name": "tokensAvailable",
      "outputs": [
        {
          "name": "",
          "type": "bool"
        }
      ],
      "payable": false,
      "stateMutability": "view",
      "type": "function"
    },
    {
      "constant": true,
      "inputs": [],
      "name": "currentDistributionIndex",
      "outputs": [
        {
          "name": "",
          "type": "uint256"
        }
      ],
      "payable": false,
      "stateMutability": "view",
      "type": "function"
    },
    {
      "constant": false,
      "inputs": [],
      "name": "renounceOwnership",
      "outputs": [],
      "payable": false,
      "stateMutability": "nonpayable",
      "type": "function"
    },
    {
      "constant": true,
      "inputs": [],
      "name": "startTime",
      "outputs": [
        {
          "name": "",
          "type": "uint256"
        }
      ],
      "payable": false,
      "stateMutability": "view",
      "type": "function"
    },
    {
      "constant": true,
      "inputs": [],
      "name": "tokenPrice",
      "outputs": [
        {
          "name": "",
          "type": "uint256"
        }
      ],
      "payable": false,
      "stateMutability": "view",
      "type": "function"
    },
    {
      "constant": true,
      "inputs": [],
      "name": "owner",
      "outputs": [
        {
          "name": "",
          "type": "address"
        }
      ],
      "payable": false,
      "stateMutability": "view",
      "type": "function"
    },
    {
      "constant": true,
      "inputs": [
        {
          "name": "",
          "type": "uint256"
        }
      ],
      "name": "icoParticipants",
      "outputs": [
        {
          "name": "",
          "type": "address"
        }
      ],
      "payable": false,
      "stateMutability": "view",
      "type": "function"
    },
    {
      "constant": true,
      "inputs": [],
      "name": "tokensReleaseDate",
      "outputs": [
        {
          "name": "",
          "type": "uint256"
        }
      ],
      "payable": false,
      "stateMutability": "view",
      "type": "function"
    },
    {
      "constant": true,
      "inputs": [],
      "name": "totalEthRaised",
      "outputs": [
        {
          "name": "",
          "type": "uint256"
        }
      ],
      "payable": false,
      "stateMutability": "view",
      "type": "function"
    },
    {
      "constant": true,
      "inputs": [],
      "name": "dc",
      "outputs": [
        {
          "name": "",
          "type": "address"
        }
      ],
      "payable": false,
      "stateMutability": "view",
      "type": "function"
    },
    {
      "constant": false,
      "inputs": [
        {
          "name": "newOwner",
          "type": "address"
        }
      ],
      "name": "transferOwnership",
      "outputs": [],
      "payable": false,
      "stateMutability": "nonpayable",
      "type": "function"
    },
    {
      "constant": true,
      "inputs": [
        {
          "name": "",
          "type": "address"
        }
      ],
      "name": "whiteListed",
      "outputs": [
        {
          "name": "",
          "type": "bool"
        }
      ],
      "payable": false,
      "stateMutability": "view",
      "type": "function"
    },
    {
      "anonymous": false,
      "inputs": [
        {
          "indexed": false,
          "name": "oldEthRaisedVal",
          "type": "uint256"
        },
        {
          "indexed": false,
          "name": "newEthRaisedVal",
          "type": "uint256"
        }
      ],
      "name": "EthRaisedUpdated",
      "type": "event"
    },
    {
      "anonymous": false,
      "inputs": [
        {
          "indexed": false,
          "name": "prevExchangeRate",
          "type": "uint256"
        },
        {
          "indexed": false,
          "name": "newExchangeRate",
          "type": "uint256"
        }
      ],
      "name": "ExchangeRateUpdated",
      "type": "event"
    },
    {
      "anonymous": false,
      "inputs": [
        {
          "indexed": false,
          "name": "_presd",
          "type": "address"
        },
        {
          "indexed": false,
          "name": "_tsd",
          "type": "address"
        }
      ],
      "name": "DistributedAllBalancesToTSDContract",
      "type": "event"
    },
    {
      "anonymous": false,
      "inputs": [
        {
          "indexed": false,
          "name": "from",
          "type": "address"
        },
        {
          "indexed": false,
          "name": "to",
          "type": "address"
        },
        {
          "indexed": false,
          "name": "value",
          "type": "uint256"
        }
      ],
      "name": "Transfer",
      "type": "event"
    },
    {
      "anonymous": false,
      "inputs": [
        {
          "indexed": false,
          "name": "oldSupply",
          "type": "uint256"
        },
        {
          "indexed": false,
          "name": "newSupply",
          "type": "uint256"
        }
      ],
      "name": "UpdatedTotalSupply",
      "type": "event"
    },
    {
      "anonymous": false,
      "inputs": [
        {
          "indexed": true,
          "name": "previousOwner",
          "type": "address"
        }
      ],
      "name": "OwnershipRenounced",
      "type": "event"
    },
    {
      "anonymous": false,
      "inputs": [
        {
          "indexed": true,
          "name": "previousOwner",
          "type": "address"
        },
        {
          "indexed": true,
          "name": "newOwner",
          "type": "address"
        }
      ],
      "name": "OwnershipTransferred",
      "type": "event"
    },
    {
      "constant": true,
      "inputs": [],
      "name": "currentTime",
      "outputs": [
        {
          "name": "",
          "type": "uint256"
        }
      ],
      "payable": false,
      "stateMutability": "view",
      "type": "function"
    },
    {
      "constant": true,
      "inputs": [
        {
          "name": "_address",
          "type": "address"
        }
      ],
      "name": "balanceOf",
      "outputs": [
        {
          "name": "",
          "type": "uint256"
        }
      ],
      "payable": false,
      "stateMutability": "view",
      "type": "function"
    },
    {
      "constant": false,
      "inputs": [
        {
          "name": "_addresses",
          "type": "address[]"
        }
      ],
      "name": "createWhiteListedMapping",
      "outputs": [],
      "payable": false,
      "stateMutability": "nonpayable",
      "type": "function"
    },
    {
      "constant": false,
      "inputs": [
        {
          "name": "_address",
          "type": "address"
        }
      ],
      "name": "removeFromWhitelist",
      "outputs": [],
      "payable": false,
      "stateMutability": "nonpayable",
      "type": "function"
    },
    {
      "constant": false,
      "inputs": [
        {
          "name": "_newAddress",
          "type": "address"
        }
      ],
      "name": "changeOracleAddress",
      "outputs": [],
      "payable": false,
      "stateMutability": "nonpayable",
      "type": "function"
    },
    {
      "constant": false,
      "inputs": [
        {
          "name": "_newRate",
          "type": "uint256"
        }
      ],
      "name": "updateTheExchangeRate",
      "outputs": [
        {
          "name": "",
          "type": "bool"
        }
      ],
      "payable": false,
      "stateMutability": "nonpayable",
      "type": "function"
    },
    {
      "constant": true,
      "inputs": [
        {
          "name": "_address",
          "type": "address"
        }
      ],
      "name": "isWhiteListed",
      "outputs": [
        {
          "name": "",
          "type": "bool"
        }
      ],
      "payable": false,
      "stateMutability": "view",
      "type": "function"
    },
    {
      "constant": false,
      "inputs": [
        {
          "name": "_t",
          "type": "address"
        }
      ],
      "name": "setMainContractAddress",
      "outputs": [],
      "payable": false,
      "stateMutability": "nonpayable",
      "type": "function"
    },
    {
      "constant": false,
      "inputs": [
        {
          "name": "_startTime",
          "type": "uint256"
        }
      ],
      "name": "setStartTime",
      "outputs": [
        {
          "name": "",
          "type": "bool"
        }
      ],
      "payable": false,
      "stateMutability": "nonpayable",
      "type": "function"
    },
    {
      "constant": false,
      "inputs": [
        {
          "name": "_endTime",
          "type": "uint256"
        }
      ],
      "name": "setEndTime",
      "outputs": [
        {
          "name": "",
          "type": "bool"
        }
      ],
      "payable": false,
      "stateMutability": "nonpayable",
      "type": "function"
    },
    {
      "constant": false,
      "inputs": [],
      "name": "selfDestruct",
      "outputs": [],
      "payable": false,
      "stateMutability": "nonpayable",
      "type": "function"
    }
  ],
  "bytecode": "0x60806040526012600455600454600a0a600555600554620f42400260065560326007556000600a55650163fe988b00600b5565016499175300600c5565016a1c25cb00600d556001601160006101000a81548160ff0219169083151502179055506000601255336000806101000a81548173ffffffffffffffffffffffffffffffffffffffff021916908373ffffffffffffffffffffffffffffffffffffffff16021790555061140c806100b46000396000f300608060405260043610610180576000357c0100000000000000000000000000000000000000000000000000000000900463ffffffff1680630b961e48146101855780633082538f146101b0578063313ce567146101db5780633197cbb6146102065780633ba0b9a9146102315780633e0a322d1461025c5780634a54839d146102a15780634e9c6b1f146102f857806360659a92146103235780636f9170f6146103525780636ff85ea9146103ad57806370a08231146103d8578063715018a61461042f57806378e97925146104465780637ff9b596146104715780638ab1d6811461049c5780638da5cb5b146104df5780639cb8a26a14610536578063a229c6141461054d578063a256ea3a14610592578063afe07f59146105ff578063b9cdd19b1461062a578063c9e904be14610665578063ccb98ffc14610690578063d18e81b3146106d5578063d8a531a614610700578063ec9da59e14610757578063f2fde38b1461079a578063fa0fca84146107dd578063fb349dbd14610838575b600080fd5b34801561019157600080fd5b5061019a61087b565b6040518082815260200191505060405180910390f35b3480156101bc57600080fd5b506101c5610881565b6040518082815260200191505060405180910390f35b3480156101e757600080fd5b506101f0610887565b6040518082815260200191505060405180910390f35b34801561021257600080fd5b5061021b61088d565b6040518082815260200191505060405180910390f35b34801561023d57600080fd5b50610246610893565b6040518082815260200191505060405180910390f35b34801561026857600080fd5b5061028760048036038101908080359060200190929190505050610899565b604051808215151515815260200191505060405180910390f35b3480156102ad57600080fd5b506102b6610916565b604051808273ffffffffffffffffffffffffffffffffffffffff1673ffffffffffffffffffffffffffffffffffffffff16815260200191505060405180910390f35b34801561030457600080fd5b5061030d61093c565b6040518082815260200191505060405180910390f35b34801561032f57600080fd5b50610338610942565b604051808215151515815260200191505060405180910390f35b34801561035e57600080fd5b50610393600480360381019080803573ffffffffffffffffffffffffffffffffffffffff169060200190929190505050610955565b604051808215151515815260200191505060405180910390f35b3480156103b957600080fd5b506103c26109ab565b6040518082815260200191505060405180910390f35b3480156103e457600080fd5b50610419600480360381019080803573ffffffffffffffffffffffffffffffffffffffff1690602001909291905050506109b1565b6040518082815260200191505060405180910390f35b34801561043b57600080fd5b506104446109fa565b005b34801561045257600080fd5b5061045b610afc565b6040518082815260200191505060405180910390f35b34801561047d57600080fd5b50610486610b02565b6040518082815260200191505060405180910390f35b3480156104a857600080fd5b506104dd600480360381019080803573ffffffffffffffffffffffffffffffffffffffff169060200190929190505050610b08565b005b3480156104eb57600080fd5b506104f4610c0d565b604051808273ffffffffffffffffffffffffffffffffffffffff1673ffffffffffffffffffffffffffffffffffffffff16815260200191505060405180910390f35b34801561054257600080fd5b5061054b610c32565b005b34801561055957600080fd5b5061057860048036038101908080359060200190929190505050610cc7565b604051808215151515815260200191505060405180910390f35b34801561059e57600080fd5b506105bd60048036038101908080359060200190929190505050610e26565b604051808273ffffffffffffffffffffffffffffffffffffffff1673ffffffffffffffffffffffffffffffffffffffff16815260200191505060405180910390f35b34801561060b57600080fd5b50610614610e64565b6040518082815260200191505060405180910390f35b34801561063657600080fd5b50610663600480360381019080803590602001908201803590602001919091929391929390505050610e6a565b005b34801561067157600080fd5b5061067a610fd7565b6040518082815260200191505060405180910390f35b34801561069c57600080fd5b506106bb60048036038101908080359060200190929190505050610fdd565b604051808215151515815260200191505060405180910390f35b3480156106e157600080fd5b506106ea61106c565b6040518082815260200191505060405180910390f35b34801561070c57600080fd5b50610715611078565b604051808273ffffffffffffffffffffffffffffffffffffffff1673ffffffffffffffffffffffffffffffffffffffff16815260200191505060405180910390f35b34801561076357600080fd5b50610798600480360381019080803573ffffffffffffffffffffffffffffffffffffffff16906020019092919050505061109e565b005b3480156107a657600080fd5b506107db600480360381019080803573ffffffffffffffffffffffffffffffffffffffff16906020019092919050505061117e565b005b3480156107e957600080fd5b5061081e600480360381019080803573ffffffffffffffffffffffffffffffffffffffff1690602001909291905050506112d3565b604051808215151515815260200191505060405180910390f35b34801561084457600080fd5b50610879600480360381019080803573ffffffffffffffffffffffffffffffffffffffff1690602001909291905050506112f3565b005b60085481565b60055481565b60045481565b600c5481565b60095481565b60008060009054906101000a900473ffffffffffffffffffffffffffffffffffffffff1673ffffffffffffffffffffffffffffffffffffffff163373ffffffffffffffffffffffffffffffffffffffff161415156108f657600080fd5b600c548210151561090657600080fd5b81600b8190555060019050919050565b600260009054906101000a900473ffffffffffffffffffffffffffffffffffffffff1681565b60065481565b601160009054906101000a900460ff1681565b6000600f60008373ffffffffffffffffffffffffffffffffffffffff1673ffffffffffffffffffffffffffffffffffffffff16815260200190815260200160002060009054906101000a900460ff169050919050565b60125481565b6000601060008373ffffffffffffffffffffffffffffffffffffffff1673ffffffffffffffffffffffffffffffffffffffff168152602001908152602001600020549050919050565b6000809054906101000a900473ffffffffffffffffffffffffffffffffffffffff1673ffffffffffffffffffffffffffffffffffffffff163373ffffffffffffffffffffffffffffffffffffffff16141515610a5557600080fd5b6000809054906101000a900473ffffffffffffffffffffffffffffffffffffffff1673ffffffffffffffffffffffffffffffffffffffff167ff8df31144d9c2f0f6b59d69b8b98abd5459d07f2742c4df920b25aae33c6482060405160405180910390a260008060006101000a81548173ffffffffffffffffffffffffffffffffffffffff021916908373ffffffffffffffffffffffffffffffffffffffff160217905550565b600b5481565b60075481565b6000809054906101000a900473ffffffffffffffffffffffffffffffffffffffff1673ffffffffffffffffffffffffffffffffffffffff163373ffffffffffffffffffffffffffffffffffffffff161480610bb05750600360009054906101000a900473ffffffffffffffffffffffffffffffffffffffff1673ffffffffffffffffffffffffffffffffffffffff163373ffffffffffffffffffffffffffffffffffffffff16145b1515610bbb57600080fd5b600f60008273ffffffffffffffffffffffffffffffffffffffff1673ffffffffffffffffffffffffffffffffffffffff16815260200190815260200160002060006101000a81549060ff021916905550565b6000809054906101000a900473ffffffffffffffffffffffffffffffffffffffff1681565b6000809054906101000a900473ffffffffffffffffffffffffffffffffffffffff1673ffffffffffffffffffffffffffffffffffffffff163373ffffffffffffffffffffffffffffffffffffffff16141515610c8d57600080fd5b6000809054906101000a900473ffffffffffffffffffffffffffffffffffffffff1673ffffffffffffffffffffffffffffffffffffffff16ff5b6000806000806000809054906101000a900473ffffffffffffffffffffffffffffffffffffffff1673ffffffffffffffffffffffffffffffffffffffff163373ffffffffffffffffffffffffffffffffffffffff161480610d755750600360009054906101000a900473ffffffffffffffffffffffffffffffffffffffff1673ffffffffffffffffffffffffffffffffffffffff163373ffffffffffffffffffffffffffffffffffffffff16145b1515610d8057600080fd5b84600881905550600954925064e8d4a510009150610dbe85610db0620f424060075461139290919063ffffffff16565b6113ca90919063ffffffff16565b9050610dd3818361139290919063ffffffff16565b6009819055507fc8d1043f24843c0a1c9251fdc30017d84e87498fbcf232af9f86816b5e182bde83600954604051808381526020018281526020019250505060405180910390a160019350505050919050565b600e81815481101515610e3557fe5b906000526020600020016000915054906101000a900473ffffffffffffffffffffffffffffffffffffffff1681565b600d5481565b60008060009054906101000a900473ffffffffffffffffffffffffffffffffffffffff1673ffffffffffffffffffffffffffffffffffffffff163373ffffffffffffffffffffffffffffffffffffffff161480610f145750600360009054906101000a900473ffffffffffffffffffffffffffffffffffffffff1673ffffffffffffffffffffffffffffffffffffffff163373ffffffffffffffffffffffffffffffffffffffff16145b1515610f1f57600080fd5b600090505b828290508167ffffffffffffffff161015610fd2576001600f600085858567ffffffffffffffff168181101515610f5757fe5b9050602002013573ffffffffffffffffffffffffffffffffffffffff1673ffffffffffffffffffffffffffffffffffffffff1673ffffffffffffffffffffffffffffffffffffffff16815260200190815260200160002060006101000a81548160ff0219169083151502179055508080600101915050610f24565b505050565b600a5481565b60008060009054906101000a900473ffffffffffffffffffffffffffffffffffffffff1673ffffffffffffffffffffffffffffffffffffffff163373ffffffffffffffffffffffffffffffffffffffff1614151561103a57600080fd5b600b5482118015611051575061104e61106c565b82115b151561105c57600080fd5b81600c8190555060019050919050565b60006103e84202905090565b600160009054906101000a900473ffffffffffffffffffffffffffffffffffffffff1681565b6000809054906101000a900473ffffffffffffffffffffffffffffffffffffffff1673ffffffffffffffffffffffffffffffffffffffff163373ffffffffffffffffffffffffffffffffffffffff161415156110f957600080fd5b80600160006101000a81548173ffffffffffffffffffffffffffffffffffffffff021916908373ffffffffffffffffffffffffffffffffffffffff16021790555080600260006101000a81548173ffffffffffffffffffffffffffffffffffffffff021916908373ffffffffffffffffffffffffffffffffffffffff16021790555050565b6000809054906101000a900473ffffffffffffffffffffffffffffffffffffffff1673ffffffffffffffffffffffffffffffffffffffff163373ffffffffffffffffffffffffffffffffffffffff161415156111d957600080fd5b600073ffffffffffffffffffffffffffffffffffffffff168173ffffffffffffffffffffffffffffffffffffffff161415151561121557600080fd5b8073ffffffffffffffffffffffffffffffffffffffff166000809054906101000a900473ffffffffffffffffffffffffffffffffffffffff1673ffffffffffffffffffffffffffffffffffffffff167f8be0079c531659141344cd1fd0a4f28419497f9722a3daafe3b4186f6b6457e060405160405180910390a3806000806101000a81548173ffffffffffffffffffffffffffffffffffffffff021916908373ffffffffffffffffffffffffffffffffffffffff16021790555050565b600f6020528060005260406000206000915054906101000a900460ff1681565b6000809054906101000a900473ffffffffffffffffffffffffffffffffffffffff1673ffffffffffffffffffffffffffffffffffffffff163373ffffffffffffffffffffffffffffffffffffffff1614151561134e57600080fd5b80600360006101000a81548173ffffffffffffffffffffffffffffffffffffffff021916908373ffffffffffffffffffffffffffffffffffffffff16021790555050565b6000808314156113a557600090506113c4565b81830290508183828115156113b657fe5b041415156113c057fe5b8090505b92915050565b600081838115156113d757fe5b049050929150505600a165627a7a72305820bdb073209abbd56135478fef15797afd3ca225b7be5e9411fad9017894c217100029",
  "source": "pragma solidity ^0.4.23;\n\n// import \"./FoundationContracts/BaseToken.sol\";\nimport \"./Ownable.sol\";\nimport \"../TSD.sol\";\n\ncontract SecondarySaleBaseContract is Ownable {\n    using SafeMath for uint256;\n    // set up access to main contract for the future distribution\n    TSD public dc;\n    // when the connection is set to the main contract, save a reference for event purposes\n    address public TSDContractAddress;\n    address private oracleAddress;\n\n    uint256 public decimals = 18;\n    uint256 public decimalMultiplier = uint256(10) ** decimals;\n    uint256 public million = 1000000 * decimalMultiplier;\n    uint256 public tokenPrice = 50; // 50 cents (USD) - this is discounted accordingly\n    uint256 public ethExchangeRate;\n    uint256 public exchangeRate;\n    uint256 public totalEthRaised = 0;\n\n    // Coordinated Universal Time (abbreviated to UTC) is the primary time standard by which the world regulates clocks and time.\n\n    // Start time \"Fri Jun 15 2018 00:00:00 GMT+1000 (AEST)\"\n    // new Date(1535724000000).toUTCString() => \"Thu, 14 Jun 2018 14:00:00 GMT\"\n    uint256 public startTime = 1528984800000;\n    // End time \"Fri Jul 15 2018 00:00:00 GMT+1000 (AEST)\"\n    // new Date(1531576800000).toUTCString() => \"Sat, 14 Jul 2018 14:00:00 GMT\"\n    uint256 public endTime = 1531576800000;\n    // Token release date 9 months post end date\n    // \"Mon April 15 2019 00:00:00 GMT+1000 (AEST)\"\n    // new Date(1555250400000).toUTCString() => \"Sun, 14 Apr 2019 14:00:00 GMT\"\n    uint256 public tokensReleaseDate = 1555250400000;\n\n    // Array of participants used when distributing tokens to main contract\n    address[] public icoParticipants;\n\n    // whitelisted addresses\n    mapping (address => bool) public whiteListed;\n\n    // balances\n    mapping(address => uint256) balances;\n\n    // When all tokens are sold this value will be set to false\n    bool public tokensAvailable = true;\n\n    // current distribution Index\n    uint256 public currentDistributionIndex = 0;\n\n    // Events\n    event EthRaisedUpdated(uint256 oldEthRaisedVal, uint256 newEthRaisedVal);\n    event ExchangeRateUpdated(uint256 prevExchangeRate, uint256 newExchangeRate);\n    event DistributedAllBalancesToTSDContract(address _presd, address _tsd);\n    event Transfer(address from, address to, uint256 value);\n    event UpdatedTotalSupply(uint256 oldSupply, uint256 newSupply);\n\n    // Contract utility functions\n    function currentTime() public view returns (uint256) {\n        return now * 1000;\n    }\n\n    // Checks the balance of the address. ERC20 standard.\n    function balanceOf(address _address) public view returns (uint256) {\n        return balances[_address];\n    }\n\n    // Called externally to create whitelist for  sale.\n    // Only whitelisted addresses can participate in the ico.\n    function createWhiteListedMapping(address[] _addresses) external onlyRestricted {\n        for (uint64 i = 0; i < _addresses.length; i++) {\n            whiteListed[_addresses[i]] = true;\n        }\n    }\n\n    // Called to remove addresses from whitelist\n    function removeFromWhitelist(address _address) external onlyRestricted {\n        delete whiteListed[_address];\n    }\n\n    // Called externally to change the address of the oracle.\n    // The oracle updates the exchange rate based on the current ETH value.\n    function changeOracleAddress(address _newAddress) external onlyOwner {\n        oracleAddress = _newAddress;\n    }\n\n    // Updates the ETH => TSD exchange rate\n    // This is called when the contract is constructed and by the oracle to update the rate periodically\n    function updateTheExchangeRate(uint256 _newRate) public onlyRestricted returns (bool) {\n        ethExchangeRate = _newRate;\n        uint256 currentRate = exchangeRate;\n        uint256 oneSzabo = 1 szabo;\n        uint256 tokenPriceInSzabo = tokenPrice.mul(1000000).div(_newRate);\n        // The exchangerate is saved in Szabo.\n        exchangeRate = oneSzabo.mul(tokenPriceInSzabo);\n        emit ExchangeRateUpdated(currentRate, exchangeRate);\n        return true;\n    }\n\n    // Can check to see if an address is whitelisted\n    function isWhiteListed(address _address) external view returns (bool) {\n        return whiteListed[_address];\n    }\n\n    // After close functions\n\n    // Create an instance of the main contract\n    function setMainContractAddress(address _t) external onlyOwner{\n        dc = TSD(_t);\n        TSDContractAddress = _t;\n    }\n\n    // sets start and end times\n    function setStartTime(uint256 _startTime) external onlyOwner returns (bool) {\n        // ensure the start time is before the end time\n        require(_startTime < endTime);\n        startTime = _startTime;\n        return true;\n    }\n\n    function setEndTime(uint256 _endTime) external onlyOwner returns (bool) {\n        // ensure the end time is after the start time\n        // and that is after the current time\n        require(_endTime > startTime && _endTime > currentTime());\n        endTime = _endTime;\n        return true;\n    }\n\n    // Destroys the contract\n    function selfDestruct() external onlyOwner {\n        selfdestruct(owner);\n    }\n\n    modifier onlyRestricted () {\n        require(msg.sender == owner || msg.sender == oracleAddress);\n        _;\n    }\n}\n",
  "sourcePath": "/Users/venkateshnamburi/Desktop/521/Projects/Transcendence/tsd_dapp/contracts/FoundationContracts/SecondarySaleBaseContract.sol",
  "compiler": {
    "name": "solc",
    "version": "0.4.24+commit.e67f0147.Emscripten.clang"
  },
  "schemaVersion": "2.0.0",
  "updatedAt": "2018-06-27T16:44:40.254Z"
}