{
  "contractName": "TSD",
  "abi": [
    {
      "constant": true,
      "inputs": [],
      "name": "name",
      "outputs": [
        {
          "name": "",
          "type": "string"
        }
      ],
      "payable": false,
      "stateMutability": "view",
      "type": "function"
    },
    {
      "constant": false,
      "inputs": [
        {
          "name": "_spender",
          "type": "address"
        },
        {
          "name": "_value",
          "type": "uint256"
        }
      ],
      "name": "approve",
      "outputs": [
        {
          "name": "",
          "type": "bool"
        }
      ],
      "payable": false,
      "stateMutability": "nonpayable",
      "type": "function"
    },
    {
      "constant": true,
      "inputs": [],
      "name": "foundersAndAdvisors",
      "outputs": [
        {
          "name": "",
          "type": "address"
        }
      ],
      "payable": false,
      "stateMutability": "view",
      "type": "function"
    },
    {
      "constant": true,
      "inputs": [],
      "name": "totalSupply",
      "outputs": [
        {
          "name": "",
          "type": "uint256"
        }
      ],
      "payable": false,
      "stateMutability": "view",
      "type": "function"
    },
    {
      "constant": true,
      "inputs": [],
      "name": "fundsWallet",
      "outputs": [
        {
          "name": "",
          "type": "address"
        }
      ],
      "payable": false,
      "stateMutability": "view",
      "type": "function"
    },
    {
      "constant": true,
      "inputs": [
        {
          "name": "",
          "type": "address"
        }
      ],
      "name": "balances",
      "outputs": [
        {
          "name": "",
          "type": "uint256"
        }
      ],
      "payable": false,
      "stateMutability": "view",
      "type": "function"
    },
    {
      "constant": true,
      "inputs": [],
      "name": "preSaleSupply",
      "outputs": [
        {
          "name": "",
          "type": "uint256"
        }
      ],
      "payable": false,
      "stateMutability": "view",
      "type": "function"
    },
    {
      "constant": true,
      "inputs": [],
      "name": "decimals",
      "outputs": [
        {
          "name": "",
          "type": "uint256"
        }
      ],
      "payable": false,
      "stateMutability": "view",
      "type": "function"
    },
    {
      "constant": true,
      "inputs": [],
      "name": "endTime",
      "outputs": [
        {
          "name": "",
          "type": "uint256"
        }
      ],
      "payable": false,
      "stateMutability": "view",
      "type": "function"
    },
    {
      "constant": true,
      "inputs": [],
      "name": "exchangeRate",
      "outputs": [
        {
          "name": "",
          "type": "uint256"
        }
      ],
      "payable": false,
      "stateMutability": "view",
      "type": "function"
    },
    {
      "constant": true,
      "inputs": [],
      "name": "foundersAndAdvisorsAllocation",
      "outputs": [
        {
          "name": "",
          "type": "uint256"
        }
      ],
      "payable": false,
      "stateMutability": "view",
      "type": "function"
    },
    {
      "constant": true,
      "inputs": [],
      "name": "million",
      "outputs": [
        {
          "name": "",
          "type": "uint256"
        }
      ],
      "payable": false,
      "stateMutability": "view",
      "type": "function"
    },
    {
      "constant": true,
      "inputs": [],
      "name": "thousand",
      "outputs": [
        {
          "name": "",
          "type": "uint256"
        }
      ],
      "payable": false,
      "stateMutability": "view",
      "type": "function"
    },
    {
      "constant": false,
      "inputs": [
        {
          "name": "_spender",
          "type": "address"
        },
        {
          "name": "_subtractedValue",
          "type": "uint256"
        }
      ],
      "name": "decreaseApproval",
      "outputs": [
        {
          "name": "",
          "type": "bool"
        }
      ],
      "payable": false,
      "stateMutability": "nonpayable",
      "type": "function"
    },
    {
      "constant": true,
      "inputs": [
        {
          "name": "_owner",
          "type": "address"
        }
      ],
      "name": "balanceOf",
      "outputs": [
        {
          "name": "",
          "type": "uint256"
        }
      ],
      "payable": false,
      "stateMutability": "view",
      "type": "function"
    },
    {
      "constant": true,
      "inputs": [],
      "name": "startTime",
      "outputs": [
        {
          "name": "",
          "type": "uint256"
        }
      ],
      "payable": false,
      "stateMutability": "view",
      "type": "function"
    },
    {
      "constant": true,
      "inputs": [],
      "name": "liquidityProgramAllocation",
      "outputs": [
        {
          "name": "",
          "type": "uint256"
        }
      ],
      "payable": false,
      "stateMutability": "view",
      "type": "function"
    },
    {
      "constant": true,
      "inputs": [],
      "name": "owner",
      "outputs": [
        {
          "name": "",
          "type": "address"
        }
      ],
      "payable": false,
      "stateMutability": "view",
      "type": "function"
    },
    {
      "constant": true,
      "inputs": [],
      "name": "pvtSaleTokenWallet",
      "outputs": [
        {
          "name": "",
          "type": "address"
        }
      ],
      "payable": false,
      "stateMutability": "view",
      "type": "function"
    },
    {
      "constant": true,
      "inputs": [],
      "name": "symbol",
      "outputs": [
        {
          "name": "",
          "type": "string"
        }
      ],
      "payable": false,
      "stateMutability": "view",
      "type": "function"
    },
    {
      "constant": true,
      "inputs": [],
      "name": "bountyCommunityIncentives",
      "outputs": [
        {
          "name": "",
          "type": "address"
        }
      ],
      "payable": false,
      "stateMutability": "view",
      "type": "function"
    },
    {
      "constant": true,
      "inputs": [],
      "name": "bountyCommunityIncentivesAllocation",
      "outputs": [
        {
          "name": "",
          "type": "uint256"
        }
      ],
      "payable": false,
      "stateMutability": "view",
      "type": "function"
    },
    {
      "constant": true,
      "inputs": [],
      "name": "minimumPurchase",
      "outputs": [
        {
          "name": "",
          "type": "uint256"
        }
      ],
      "payable": false,
      "stateMutability": "view",
      "type": "function"
    },
    {
      "constant": true,
      "inputs": [],
      "name": "liquidityProgram",
      "outputs": [
        {
          "name": "",
          "type": "address"
        }
      ],
      "payable": false,
      "stateMutability": "view",
      "type": "function"
    },
    {
      "constant": true,
      "inputs": [],
      "name": "totalEthRaised",
      "outputs": [
        {
          "name": "",
          "type": "uint256"
        }
      ],
      "payable": false,
      "stateMutability": "view",
      "type": "function"
    },
    {
      "constant": false,
      "inputs": [
        {
          "name": "_spender",
          "type": "address"
        },
        {
          "name": "_addedValue",
          "type": "uint256"
        }
      ],
      "name": "increaseApproval",
      "outputs": [
        {
          "name": "",
          "type": "bool"
        }
      ],
      "payable": false,
      "stateMutability": "nonpayable",
      "type": "function"
    },
    {
      "constant": true,
      "inputs": [],
      "name": "preSaleTokenWallet",
      "outputs": [
        {
          "name": "",
          "type": "address"
        }
      ],
      "payable": false,
      "stateMutability": "view",
      "type": "function"
    },
    {
      "constant": true,
      "inputs": [
        {
          "name": "_owner",
          "type": "address"
        },
        {
          "name": "_spender",
          "type": "address"
        }
      ],
      "name": "allowance",
      "outputs": [
        {
          "name": "",
          "type": "uint256"
        }
      ],
      "payable": false,
      "stateMutability": "view",
      "type": "function"
    },
    {
      "constant": true,
      "inputs": [],
      "name": "pvtSaleSupply",
      "outputs": [
        {
          "name": "",
          "type": "uint256"
        }
      ],
      "payable": false,
      "stateMutability": "view",
      "type": "function"
    },
    {
      "constant": false,
      "inputs": [
        {
          "name": "newOwner",
          "type": "address"
        }
      ],
      "name": "transferOwnership",
      "outputs": [],
      "payable": false,
      "stateMutability": "nonpayable",
      "type": "function"
    },
    {
      "constant": true,
      "inputs": [
        {
          "name": "",
          "type": "address"
        }
      ],
      "name": "whiteListed",
      "outputs": [
        {
          "name": "",
          "type": "bool"
        }
      ],
      "payable": false,
      "stateMutability": "view",
      "type": "function"
    },
    {
      "inputs": [
        {
          "name": "_exchangeRate",
          "type": "uint256"
        },
        {
          "name": "_whitelistAddresses",
          "type": "address[]"
        },
        {
          "name": "_pvtSaleTokenWallet",
          "type": "address"
        },
        {
          "name": "_preSaleTokenWallet",
          "type": "address"
        },
        {
          "name": "_foundersAndAdvisors",
          "type": "address"
        },
        {
          "name": "_bountyCommunityIncentives",
          "type": "address"
        },
        {
          "name": "_liquidityProgram",
          "type": "address"
        }
      ],
      "payable": false,
      "stateMutability": "nonpayable",
      "type": "constructor"
    },
    {
      "payable": true,
      "stateMutability": "payable",
      "type": "fallback"
    },
    {
      "anonymous": false,
      "inputs": [
        {
          "indexed": false,
          "name": "oldEthRaisedVal",
          "type": "uint256"
        },
        {
          "indexed": false,
          "name": "newEthRaisedVal",
          "type": "uint256"
        }
      ],
      "name": "EthRaisedUpdated",
      "type": "event"
    },
    {
      "anonymous": false,
      "inputs": [
        {
          "indexed": false,
          "name": "prevExchangeRate",
          "type": "uint256"
        },
        {
          "indexed": false,
          "name": "newExchangeRate",
          "type": "uint256"
        }
      ],
      "name": "ExhangeRateUpdated",
      "type": "event"
    },
    {
      "anonymous": false,
      "inputs": [
        {
          "indexed": true,
          "name": "previousOwner",
          "type": "address"
        },
        {
          "indexed": true,
          "name": "newOwner",
          "type": "address"
        }
      ],
      "name": "OwnershipTransferred",
      "type": "event"
    },
    {
      "anonymous": false,
      "inputs": [
        {
          "indexed": true,
          "name": "owner",
          "type": "address"
        },
        {
          "indexed": true,
          "name": "spender",
          "type": "address"
        },
        {
          "indexed": false,
          "name": "value",
          "type": "uint256"
        }
      ],
      "name": "Approval",
      "type": "event"
    },
    {
      "anonymous": false,
      "inputs": [
        {
          "indexed": true,
          "name": "from",
          "type": "address"
        },
        {
          "indexed": true,
          "name": "to",
          "type": "address"
        },
        {
          "indexed": false,
          "name": "value",
          "type": "uint256"
        }
      ],
      "name": "Transfer",
      "type": "event"
    },
    {
      "constant": true,
      "inputs": [],
      "name": "currentTime",
      "outputs": [
        {
          "name": "",
          "type": "uint256"
        }
      ],
      "payable": false,
      "stateMutability": "view",
      "type": "function"
    },
    {
      "constant": false,
      "inputs": [
        {
          "name": "_newRate",
          "type": "uint256"
        }
      ],
      "name": "updateTheExchangeRate",
      "outputs": [
        {
          "name": "",
          "type": "bool"
        }
      ],
      "payable": false,
      "stateMutability": "nonpayable",
      "type": "function"
    },
    {
      "constant": false,
      "inputs": [],
      "name": "burnRemainingTokensAfterClose",
      "outputs": [
        {
          "name": "",
          "type": "bool"
        }
      ],
      "payable": false,
      "stateMutability": "nonpayable",
      "type": "function"
    },
    {
      "constant": false,
      "inputs": [],
      "name": "buyTokens",
      "outputs": [],
      "payable": true,
      "stateMutability": "payable",
      "type": "function"
    },
    {
      "constant": false,
      "inputs": [
        {
          "name": "_newTokensWallet",
          "type": "address"
        },
        {
          "name": "_amount",
          "type": "uint256"
        }
      ],
      "name": "increaseTotalSupplyAndAllocateTokens",
      "outputs": [],
      "payable": false,
      "stateMutability": "nonpayable",
      "type": "function"
    },
    {
      "constant": false,
      "inputs": [
        {
          "name": "_amount",
          "type": "uint256"
        }
      ],
      "name": "increaseEthRaisedBySubsequentSale",
      "outputs": [],
      "payable": false,
      "stateMutability": "nonpayable",
      "type": "function"
    },
    {
      "constant": false,
      "inputs": [
        {
          "name": "_to",
          "type": "address"
        },
        {
          "name": "_tokens",
          "type": "uint256"
        }
      ],
      "name": "transfer",
      "outputs": [
        {
          "name": "success",
          "type": "bool"
        }
      ],
      "payable": false,
      "stateMutability": "nonpayable",
      "type": "function"
    },
    {
      "constant": false,
      "inputs": [
        {
          "name": "_from",
          "type": "address"
        },
        {
          "name": "_to",
          "type": "address"
        },
        {
          "name": "_tokens",
          "type": "uint256"
        }
      ],
      "name": "transferFrom",
      "outputs": [
        {
          "name": "success",
          "type": "bool"
        }
      ],
      "payable": false,
      "stateMutability": "nonpayable",
      "type": "function"
    },
    {
      "constant": false,
      "inputs": [
        {
          "name": "_from",
          "type": "address"
        },
        {
          "name": "_to",
          "type": "address"
        },
        {
          "name": "_tokens",
          "type": "uint256"
        }
      ],
      "name": "transferRemainingTokensFromPriorSales",
      "outputs": [
        {
          "name": "success",
          "type": "bool"
        }
      ],
      "payable": false,
      "stateMutability": "nonpayable",
      "type": "function"
    }
  ],
  "bytecode": "0x60806040526040805190810160405280600881526020017f54534420434f494e000000000000000000000000000000000000000000000000815250600490805190602001906200005192919062000e35565b506040805190810160405280600381526020017f5453440000000000000000000000000000000000000000000000000000000000815250600590805190602001906200009f92919062000e35565b506012600655600654600a0a620f424002600755600654600a0a6103e80260085560075461022602600955600754603702600a55600754604102600b55600754602c02600c55620001136008546101f40260075460100262000d6c6401000000000262002384179091906401000000009004565b600d55620001446008546101f40260075460100262000d6c6401000000000262002384179091906401000000009004565b600e55662386f26fc10000600f556000601155650165904893006012556501662ac75b006013553480156200017857600080fd5b5060405162003899380380620038998339810180604052810190808051906020019092919080518201929190602001805190602001909291908051906020019092919080519060200190929190805190602001909291908051906020019092919050505033600360006101000a81548173ffffffffffffffffffffffffffffffffffffffff021916908373ffffffffffffffffffffffffffffffffffffffff160217905550600360009054906101000a900473ffffffffffffffffffffffffffffffffffffffff16601460006101000a81548173ffffffffffffffffffffffffffffffffffffffff021916908373ffffffffffffffffffffffffffffffffffffffff16021790555084601560006101000a81548173ffffffffffffffffffffffffffffffffffffffff021916908373ffffffffffffffffffffffffffffffffffffffff16021790555083601660006101000a81548173ffffffffffffffffffffffffffffffffffffffff021916908373ffffffffffffffffffffffffffffffffffffffff1602179055508660108190555082601760006101000a81548173ffffffffffffffffffffffffffffffffffffffff021916908373ffffffffffffffffffffffffffffffffffffffff16021790555081601860006101000a81548173ffffffffffffffffffffffffffffffffffffffff021916908373ffffffffffffffffffffffffffffffffffffffff16021790555080601960006101000a81548173ffffffffffffffffffffffffffffffffffffffff021916908373ffffffffffffffffffffffffffffffffffffffff160217905550600954601b6000601460009054906101000a900473ffffffffffffffffffffffffffffffffffffffff1673ffffffffffffffffffffffffffffffffffffffff1673ffffffffffffffffffffffffffffffffffffffff16815260200190815260200160002081905550601460009054906101000a900473ffffffffffffffffffffffffffffffffffffffff1673ffffffffffffffffffffffffffffffffffffffff1660007fddf252ad1be2c89b69c2b068fc378daa952ba7f163c4a11628f55a4df523b3ef6009546040518082815260200191505060405180910390a36200052e600a54601b6000601460009054906101000a900473ffffffffffffffffffffffffffffffffffffffff1673ffffffffffffffffffffffffffffffffffffffff1673ffffffffffffffffffffffffffffffffffffffff1681526020019081526020016000205462000d896401000000000262002355179091906401000000009004565b50620005b5600a54601b6000601560009054906101000a900473ffffffffffffffffffffffffffffffffffffffff1673ffffffffffffffffffffffffffffffffffffffff1673ffffffffffffffffffffffffffffffffffffffff1681526020019081526020016000205462000d6c6401000000000262002384179091906401000000009004565b50601560009054906101000a900473ffffffffffffffffffffffffffffffffffffffff1673ffffffffffffffffffffffffffffffffffffffff16601460009054906101000a900473ffffffffffffffffffffffffffffffffffffffff1673ffffffffffffffffffffffffffffffffffffffff167fddf252ad1be2c89b69c2b068fc378daa952ba7f163c4a11628f55a4df523b3ef600a546040518082815260200191505060405180910390a3620006e7600b54601b6000601460009054906101000a900473ffffffffffffffffffffffffffffffffffffffff1673ffffffffffffffffffffffffffffffffffffffff1673ffffffffffffffffffffffffffffffffffffffff1681526020019081526020016000205462000d896401000000000262002355179091906401000000009004565b506200076e600b54601b6000601660009054906101000a900473ffffffffffffffffffffffffffffffffffffffff1673ffffffffffffffffffffffffffffffffffffffff1673ffffffffffffffffffffffffffffffffffffffff1681526020019081526020016000205462000d6c6401000000000262002384179091906401000000009004565b50601660009054906101000a900473ffffffffffffffffffffffffffffffffffffffff1673ffffffffffffffffffffffffffffffffffffffff16601460009054906101000a900473ffffffffffffffffffffffffffffffffffffffff1673ffffffffffffffffffffffffffffffffffffffff167fddf252ad1be2c89b69c2b068fc378daa952ba7f163c4a11628f55a4df523b3ef600b546040518082815260200191505060405180910390a3620008a0600c54601b6000601460009054906101000a900473ffffffffffffffffffffffffffffffffffffffff1673ffffffffffffffffffffffffffffffffffffffff1673ffffffffffffffffffffffffffffffffffffffff1681526020019081526020016000205462000d896401000000000262002355179091906401000000009004565b5062000927600c54601b6000601760009054906101000a900473ffffffffffffffffffffffffffffffffffffffff1673ffffffffffffffffffffffffffffffffffffffff1673ffffffffffffffffffffffffffffffffffffffff1681526020019081526020016000205462000d6c6401000000000262002384179091906401000000009004565b50601760009054906101000a900473ffffffffffffffffffffffffffffffffffffffff1673ffffffffffffffffffffffffffffffffffffffff16601460009054906101000a900473ffffffffffffffffffffffffffffffffffffffff1673ffffffffffffffffffffffffffffffffffffffff167fddf252ad1be2c89b69c2b068fc378daa952ba7f163c4a11628f55a4df523b3ef600c546040518082815260200191505060405180910390a362000a59600d54601b6000601460009054906101000a900473ffffffffffffffffffffffffffffffffffffffff1673ffffffffffffffffffffffffffffffffffffffff1673ffffffffffffffffffffffffffffffffffffffff1681526020019081526020016000205462000d896401000000000262002355179091906401000000009004565b5062000ae0600d54601b6000601860009054906101000a900473ffffffffffffffffffffffffffffffffffffffff1673ffffffffffffffffffffffffffffffffffffffff1673ffffffffffffffffffffffffffffffffffffffff1681526020019081526020016000205462000d6c6401000000000262002384179091906401000000009004565b50601860009054906101000a900473ffffffffffffffffffffffffffffffffffffffff1673ffffffffffffffffffffffffffffffffffffffff16601460009054906101000a900473ffffffffffffffffffffffffffffffffffffffff1673ffffffffffffffffffffffffffffffffffffffff167fddf252ad1be2c89b69c2b068fc378daa952ba7f163c4a11628f55a4df523b3ef600d546040518082815260200191505060405180910390a362000c12600e54601b6000601460009054906101000a900473ffffffffffffffffffffffffffffffffffffffff1673ffffffffffffffffffffffffffffffffffffffff1673ffffffffffffffffffffffffffffffffffffffff1681526020019081526020016000205462000d896401000000000262002355179091906401000000009004565b5062000c99600e54601b6000601960009054906101000a900473ffffffffffffffffffffffffffffffffffffffff1673ffffffffffffffffffffffffffffffffffffffff1673ffffffffffffffffffffffffffffffffffffffff1681526020019081526020016000205462000d6c6401000000000262002384179091906401000000009004565b50601960009054906101000a900473ffffffffffffffffffffffffffffffffffffffff1673ffffffffffffffffffffffffffffffffffffffff16601460009054906101000a900473ffffffffffffffffffffffffffffffffffffffff1673ffffffffffffffffffffffffffffffffffffffff167fddf252ad1be2c89b69c2b068fc378daa952ba7f163c4a11628f55a4df523b3ef600e546040518082815260200191505060405180910390a362000d5f8662000da3640100000000026401000000009004565b5050505050505062000ee4565b6000818301905082811015151562000d8057fe5b80905092915050565b600082821115151562000d9857fe5b818303905092915050565b60008090505b815181101562000e31576001601a6000848481518110151562000dc857fe5b9060200190602002015173ffffffffffffffffffffffffffffffffffffffff1673ffffffffffffffffffffffffffffffffffffffff16815260200190815260200160002060006101000a81548160ff021916908315150217905550808060010191505062000da9565b5050565b828054600181600116156101000203166002900490600052602060002090601f016020900481019282601f1062000e7857805160ff191683800117855562000ea9565b8280016001018555821562000ea9579182015b8281111562000ea857825182559160200191906001019062000e8b565b5b50905062000eb8919062000ebc565b5090565b62000ee191905b8082111562000edd57600081600090555060010162000ec3565b5090565b90565b6129a58062000ef46000396000f3006080604052600436106101ee576000357c0100000000000000000000000000000000000000000000000000000000900463ffffffff16806304c4e1a2146101f857806306fdde031461027d578063095ea7b31461030d5780630ff50d111461037257806318160ddd146103c95780632194f3a2146103f457806323b872dd1461044b57806327e235e3146104d05780632e055bcc14610527578063313ce567146105525780633197cbb61461057d5780633ba0b9a9146105a857806347e92315146105d35780634e9c6b1f146105fe5780635db1347614610629578063661884631461065457806370a08231146106b957806378e97925146107105780637af307481461073b578063822fd6cd146107665780638da5cb5b146107935780638fb24c7d146107ea57806395d89b41146108415780639fc97273146108d1578063a1d34d2d14610928578063a229c61414610953578063a9059cbb14610998578063aa2de6c3146109fd578063acfa7c5f14610a28578063c9e904be14610a7f578063d05636e714610aaa578063d0d7344e14610af7578063d0febe4c14610b26578063d18e81b314610b30578063d73dd62314610b5b578063dadf172914610bc0578063dd62ed3e14610c17578063f2323f7e14610c8e578063f2fde38b14610cb9578063fa0fca8414610cfc575b6101f6610d57565b005b34801561020457600080fd5b50610263600480360381019080803573ffffffffffffffffffffffffffffffffffffffff169060200190929190803573ffffffffffffffffffffffffffffffffffffffff1690602001909291908035906020019092919050505061156d565b604051808215151515815260200191505060405180910390f35b34801561028957600080fd5b50610292611583565b6040518080602001828103825283818151815260200191508051906020019080838360005b838110156102d25780820151818401526020810190506102b7565b50505050905090810190601f1680156102ff5780820380516001836020036101000a031916815260200191505b509250505060405180910390f35b34801561031957600080fd5b50610358600480360381019080803573ffffffffffffffffffffffffffffffffffffffff16906020019092919080359060200190929190505050611621565b604051808215151515815260200191505060405180910390f35b34801561037e57600080fd5b50610387611713565b604051808273ffffffffffffffffffffffffffffffffffffffff1673ffffffffffffffffffffffffffffffffffffffff16815260200191505060405180910390f35b3480156103d557600080fd5b506103de611739565b6040518082815260200191505060405180910390f35b34801561040057600080fd5b5061040961173f565b604051808273ffffffffffffffffffffffffffffffffffffffff1673ffffffffffffffffffffffffffffffffffffffff16815260200191505060405180910390f35b34801561045757600080fd5b506104b6600480360381019080803573ffffffffffffffffffffffffffffffffffffffff169060200190929190803573ffffffffffffffffffffffffffffffffffffffff16906020019092919080359060200190929190505050611765565b604051808215151515815260200191505060405180910390f35b3480156104dc57600080fd5b50610511600480360381019080803573ffffffffffffffffffffffffffffffffffffffff169060200190929190505050611793565b6040518082815260200191505060405180910390f35b34801561053357600080fd5b5061053c6117ab565b6040518082815260200191505060405180910390f35b34801561055e57600080fd5b506105676117b1565b6040518082815260200191505060405180910390f35b34801561058957600080fd5b506105926117b7565b6040518082815260200191505060405180910390f35b3480156105b457600080fd5b506105bd6117bd565b6040518082815260200191505060405180910390f35b3480156105df57600080fd5b506105e86117c3565b6040518082815260200191505060405180910390f35b34801561060a57600080fd5b506106136117c9565b6040518082815260200191505060405180910390f35b34801561063557600080fd5b5061063e6117cf565b6040518082815260200191505060405180910390f35b34801561066057600080fd5b5061069f600480360381019080803573ffffffffffffffffffffffffffffffffffffffff169060200190929190803590602001909291905050506117d5565b604051808215151515815260200191505060405180910390f35b3480156106c557600080fd5b506106fa600480360381019080803573ffffffffffffffffffffffffffffffffffffffff169060200190929190505050611a66565b6040518082815260200191505060405180910390f35b34801561071c57600080fd5b50610725611aae565b6040518082815260200191505060405180910390f35b34801561074757600080fd5b50610750611ab4565b6040518082815260200191505060405180910390f35b34801561077257600080fd5b5061079160048036038101908080359060200190929190505050611aba565b005b34801561079f57600080fd5b506107a8611ac8565b604051808273ffffffffffffffffffffffffffffffffffffffff1673ffffffffffffffffffffffffffffffffffffffff16815260200191505060405180910390f35b3480156107f657600080fd5b506107ff611aee565b604051808273ffffffffffffffffffffffffffffffffffffffff1673ffffffffffffffffffffffffffffffffffffffff16815260200191505060405180910390f35b34801561084d57600080fd5b50610856611b14565b6040518080602001828103825283818151815260200191508051906020019080838360005b8381101561089657808201518184015260208101905061087b565b50505050905090810190601f1680156108c35780820380516001836020036101000a031916815260200191505b509250505060405180910390f35b3480156108dd57600080fd5b506108e6611bb2565b604051808273ffffffffffffffffffffffffffffffffffffffff1673ffffffffffffffffffffffffffffffffffffffff16815260200191505060405180910390f35b34801561093457600080fd5b5061093d611bd8565b6040518082815260200191505060405180910390f35b34801561095f57600080fd5b5061097e60048036038101908080359060200190929190505050611bde565b604051808215151515815260200191505060405180910390f35b3480156109a457600080fd5b506109e3600480360381019080803573ffffffffffffffffffffffffffffffffffffffff16906020019092919080359060200190929190505050611c8e565b604051808215151515815260200191505060405180910390f35b348015610a0957600080fd5b50610a12611cba565b6040518082815260200191505060405180910390f35b348015610a3457600080fd5b50610a3d611cc0565b604051808273ffffffffffffffffffffffffffffffffffffffff1673ffffffffffffffffffffffffffffffffffffffff16815260200191505060405180910390f35b348015610a8b57600080fd5b50610a94611ce6565b6040518082815260200191505060405180910390f35b348015610ab657600080fd5b50610af5600480360381019080803573ffffffffffffffffffffffffffffffffffffffff16906020019092919080359060200190929190505050611cec565b005b348015610b0357600080fd5b50610b0c611d9b565b604051808215151515815260200191505060405180910390f35b610b2e610d57565b005b348015610b3c57600080fd5b50610b45611eea565b6040518082815260200191505060405180910390f35b348015610b6757600080fd5b50610ba6600480360381019080803573ffffffffffffffffffffffffffffffffffffffff16906020019092919080359060200190929190505050611ef6565b604051808215151515815260200191505060405180910390f35b348015610bcc57600080fd5b50610bd56120f2565b604051808273ffffffffffffffffffffffffffffffffffffffff1673ffffffffffffffffffffffffffffffffffffffff16815260200191505060405180910390f35b348015610c2357600080fd5b50610c78600480360381019080803573ffffffffffffffffffffffffffffffffffffffff169060200190929190803573ffffffffffffffffffffffffffffffffffffffff169060200190929190505050612118565b6040518082815260200191505060405180910390f35b348015610c9a57600080fd5b50610ca361219f565b6040518082815260200191505060405180910390f35b348015610cc557600080fd5b50610cfa600480360381019080803573ffffffffffffffffffffffffffffffffffffffff1690602001909291905050506121a5565b005b348015610d0857600080fd5b50610d3d600480360381019080803573ffffffffffffffffffffffffffffffffffffffff1690602001909291905050506122fd565b604051808215151515815260200191505060405180910390f35b6000806000806000601254610d6a611eea565b10158015610d815750601354610d7e611eea565b11155b1515610d8c57600080fd5b600f543410151515610d9d57600080fd5b601a60003373ffffffffffffffffffffffffffffffffffffffff1673ffffffffffffffffffffffffffffffffffffffff16815260200190815260200160002060009054906101000a900460ff161515610df557600080fd5b349450610e0d6010543461231d90919063ffffffff16565b9350601154915060009050601b6000601460009054906101000a900473ffffffffffffffffffffffffffffffffffffffff1673ffffffffffffffffffffffffffffffffffffffff1673ffffffffffffffffffffffffffffffffffffffff1681526020019081526020016000205484111561124057610ef5601b6000601460009054906101000a900473ffffffffffffffffffffffffffffffffffffffff1673ffffffffffffffffffffffffffffffffffffffff1673ffffffffffffffffffffffffffffffffffffffff168152602001908152602001600020548561235590919063ffffffff16565b9250610f1e601054610f10858761235590919063ffffffff16565b61236e90919063ffffffff16565b9050610f33818661235590919063ffffffff16565b9450610fa983601b6000601460009054906101000a900473ffffffffffffffffffffffffffffffffffffffff1673ffffffffffffffffffffffffffffffffffffffff1673ffffffffffffffffffffffffffffffffffffffff1681526020019081526020016000205461235590919063ffffffff16565b601b6000601460009054906101000a900473ffffffffffffffffffffffffffffffffffffffff1673ffffffffffffffffffffffffffffffffffffffff1673ffffffffffffffffffffffffffffffffffffffff1681526020019081526020016000208190555061106083601b60003373ffffffffffffffffffffffffffffffffffffffff1673ffffffffffffffffffffffffffffffffffffffff1681526020019081526020016000205461238490919063ffffffff16565b601b60003373ffffffffffffffffffffffffffffffffffffffff1673ffffffffffffffffffffffffffffffffffffffff168152602001908152602001600020819055503373ffffffffffffffffffffffffffffffffffffffff16601460009054906101000a900473ffffffffffffffffffffffffffffffffffffffff1673ffffffffffffffffffffffffffffffffffffffff167fddf252ad1be2c89b69c2b068fc378daa952ba7f163c4a11628f55a4df523b3ef866040518082815260200191505060405180910390a3600081111561117b573373ffffffffffffffffffffffffffffffffffffffff166108fc829081150290604051600060405180830381858888f19350505050158015611179573d6000803e3d6000fd5b505b601460009054906101000a900473ffffffffffffffffffffffffffffffffffffffff1673ffffffffffffffffffffffffffffffffffffffff166108fc869081150290604051600060405180830381858888f193505050501580156111e3573d6000803e3d6000fd5b506111f98560115461238490919063ffffffff16565b507f4014ce514c76bad08328a2a6046bac14007f7aad2c56c84c66acf8ca1c64bee882601154604051808381526020018281526020019250505060405180910390a1611566565b83601b6000601460009054906101000a900473ffffffffffffffffffffffffffffffffffffffff1673ffffffffffffffffffffffffffffffffffffffff1673ffffffffffffffffffffffffffffffffffffffff16815260200190815260200160002054101515156112b057600080fd5b61132484601b6000601460009054906101000a900473ffffffffffffffffffffffffffffffffffffffff1673ffffffffffffffffffffffffffffffffffffffff1673ffffffffffffffffffffffffffffffffffffffff1681526020019081526020016000205461235590919063ffffffff16565b601b6000601460009054906101000a900473ffffffffffffffffffffffffffffffffffffffff1673ffffffffffffffffffffffffffffffffffffffff1673ffffffffffffffffffffffffffffffffffffffff168152602001908152602001600020819055506113db84601b60003373ffffffffffffffffffffffffffffffffffffffff1673ffffffffffffffffffffffffffffffffffffffff1681526020019081526020016000205461238490919063ffffffff16565b601b60003373ffffffffffffffffffffffffffffffffffffffff1673ffffffffffffffffffffffffffffffffffffffff168152602001908152602001600020819055503373ffffffffffffffffffffffffffffffffffffffff16601460009054906101000a900473ffffffffffffffffffffffffffffffffffffffff1673ffffffffffffffffffffffffffffffffffffffff167fddf252ad1be2c89b69c2b068fc378daa952ba7f163c4a11628f55a4df523b3ef866040518082815260200191505060405180910390a3601460009054906101000a900473ffffffffffffffffffffffffffffffffffffffff1673ffffffffffffffffffffffffffffffffffffffff166108fc349081150290604051600060405180830381858888f1935050505015801561150d573d6000803e3d6000fd5b506115233460115461238490919063ffffffff16565b507f4014ce514c76bad08328a2a6046bac14007f7aad2c56c84c66acf8ca1c64bee882601154604051808381526020018281526020019250505060405180910390a15b5050505050565b600061157a8484846123a0565b90509392505050565b60048054600181600116156101000203166002900480601f0160208091040260200160405190810160405280929190818152602001828054600181600116156101000203166002900480156116195780601f106115ee57610100808354040283529160200191611619565b820191906000526020600020905b8154815290600101906020018083116115fc57829003601f168201915b505050505081565b600081600260003373ffffffffffffffffffffffffffffffffffffffff1673ffffffffffffffffffffffffffffffffffffffff16815260200190815260200160002060008573ffffffffffffffffffffffffffffffffffffffff1673ffffffffffffffffffffffffffffffffffffffff168152602001908152602001600020819055508273ffffffffffffffffffffffffffffffffffffffff163373ffffffffffffffffffffffffffffffffffffffff167f8c5be1e5ebec7d5bd14f71427d1e84f3dd0314c0f7b2291e5b200ac8c7c3b925846040518082815260200191505060405180910390a36001905092915050565b601760009054906101000a900473ffffffffffffffffffffffffffffffffffffffff1681565b60095481565b601460009054906101000a900473ffffffffffffffffffffffffffffffffffffffff1681565b6000601354611772611eea565b1015151561177f57600080fd5b61178a8484846123a0565b90509392505050565b601b6020528060005260406000206000915090505481565b600b5481565b60065481565b60135481565b60105481565b600c5481565b60075481565b60085481565b600080600260003373ffffffffffffffffffffffffffffffffffffffff1673ffffffffffffffffffffffffffffffffffffffff16815260200190815260200160002060008573ffffffffffffffffffffffffffffffffffffffff1673ffffffffffffffffffffffffffffffffffffffff168152602001908152602001600020549050808311156118e6576000600260003373ffffffffffffffffffffffffffffffffffffffff1673ffffffffffffffffffffffffffffffffffffffff16815260200190815260200160002060008673ffffffffffffffffffffffffffffffffffffffff1673ffffffffffffffffffffffffffffffffffffffff1681526020019081526020016000208190555061197a565b6118f9838261235590919063ffffffff16565b600260003373ffffffffffffffffffffffffffffffffffffffff1673ffffffffffffffffffffffffffffffffffffffff16815260200190815260200160002060008673ffffffffffffffffffffffffffffffffffffffff1673ffffffffffffffffffffffffffffffffffffffff168152602001908152602001600020819055505b8373ffffffffffffffffffffffffffffffffffffffff163373ffffffffffffffffffffffffffffffffffffffff167f8c5be1e5ebec7d5bd14f71427d1e84f3dd0314c0f7b2291e5b200ac8c7c3b925600260003373ffffffffffffffffffffffffffffffffffffffff1673ffffffffffffffffffffffffffffffffffffffff16815260200190815260200160002060008873ffffffffffffffffffffffffffffffffffffffff1673ffffffffffffffffffffffffffffffffffffffff168152602001908152602001600020546040518082815260200191505060405180910390a3600191505092915050565b60008060008373ffffffffffffffffffffffffffffffffffffffff1673ffffffffffffffffffffffffffffffffffffffff168152602001908152602001600020549050919050565b60125481565b600e5481565b806011540160118190555050565b600360009054906101000a900473ffffffffffffffffffffffffffffffffffffffff1681565b601560009054906101000a900473ffffffffffffffffffffffffffffffffffffffff1681565b60058054600181600116156101000203166002900480601f016020809104026020016040519081016040528092919081815260200182805460018160011615610100020316600290048015611baa5780601f10611b7f57610100808354040283529160200191611baa565b820191906000526020600020905b815481529060010190602001808311611b8d57829003601f168201915b505050505081565b601860009054906101000a900473ffffffffffffffffffffffffffffffffffffffff1681565b600d5481565b600080600360009054906101000a900473ffffffffffffffffffffffffffffffffffffffff1673ffffffffffffffffffffffffffffffffffffffff163373ffffffffffffffffffffffffffffffffffffffff16141515611c3d57600080fd5b6010549050826010819055507f9a4a0b4ec1a5f7ce40f0bbb5afddc8a88ed1279508f5d92b5056dcffdff438d98184604051808381526020018281526020019250505060405180910390a150919050565b6000601354611c9b611eea565b10151515611ca857600080fd5b611cb2838361275a565b905092915050565b600f5481565b601960009054906101000a900473ffffffffffffffffffffffffffffffffffffffff1681565b60115481565b600360009054906101000a900473ffffffffffffffffffffffffffffffffffffffff1673ffffffffffffffffffffffffffffffffffffffff163373ffffffffffffffffffffffffffffffffffffffff16141515611d4857600080fd5b806009540160098190555080601b60008473ffffffffffffffffffffffffffffffffffffffff1673ffffffffffffffffffffffffffffffffffffffff168152602001908152602001600020819055505050565b6000600360009054906101000a900473ffffffffffffffffffffffffffffffffffffffff1673ffffffffffffffffffffffffffffffffffffffff163373ffffffffffffffffffffffffffffffffffffffff16141515611df957600080fd5b601354611e04611eea565b10151515611e1157600080fd5b6000601b6000601460009054906101000a900473ffffffffffffffffffffffffffffffffffffffff1673ffffffffffffffffffffffffffffffffffffffff1673ffffffffffffffffffffffffffffffffffffffff168152602001908152602001600020541115611ee3576000601b6000601460009054906101000a900473ffffffffffffffffffffffffffffffffffffffff1673ffffffffffffffffffffffffffffffffffffffff1673ffffffffffffffffffffffffffffffffffffffff168152602001908152602001600020819055505b6001905090565b60006103e84202905090565b6000611f8782600260003373ffffffffffffffffffffffffffffffffffffffff1673ffffffffffffffffffffffffffffffffffffffff16815260200190815260200160002060008673ffffffffffffffffffffffffffffffffffffffff1673ffffffffffffffffffffffffffffffffffffffff1681526020019081526020016000205461238490919063ffffffff16565b600260003373ffffffffffffffffffffffffffffffffffffffff1673ffffffffffffffffffffffffffffffffffffffff16815260200190815260200160002060008573ffffffffffffffffffffffffffffffffffffffff1673ffffffffffffffffffffffffffffffffffffffff168152602001908152602001600020819055508273ffffffffffffffffffffffffffffffffffffffff163373ffffffffffffffffffffffffffffffffffffffff167f8c5be1e5ebec7d5bd14f71427d1e84f3dd0314c0f7b2291e5b200ac8c7c3b925600260003373ffffffffffffffffffffffffffffffffffffffff1673ffffffffffffffffffffffffffffffffffffffff16815260200190815260200160002060008773ffffffffffffffffffffffffffffffffffffffff1673ffffffffffffffffffffffffffffffffffffffff168152602001908152602001600020546040518082815260200191505060405180910390a36001905092915050565b601660009054906101000a900473ffffffffffffffffffffffffffffffffffffffff1681565b6000600260008473ffffffffffffffffffffffffffffffffffffffff1673ffffffffffffffffffffffffffffffffffffffff16815260200190815260200160002060008373ffffffffffffffffffffffffffffffffffffffff1673ffffffffffffffffffffffffffffffffffffffff16815260200190815260200160002054905092915050565b600a5481565b600360009054906101000a900473ffffffffffffffffffffffffffffffffffffffff1673ffffffffffffffffffffffffffffffffffffffff163373ffffffffffffffffffffffffffffffffffffffff1614151561220157600080fd5b600073ffffffffffffffffffffffffffffffffffffffff168173ffffffffffffffffffffffffffffffffffffffff161415151561223d57600080fd5b8073ffffffffffffffffffffffffffffffffffffffff16600360009054906101000a900473ffffffffffffffffffffffffffffffffffffffff1673ffffffffffffffffffffffffffffffffffffffff167f8be0079c531659141344cd1fd0a4f28419497f9722a3daafe3b4186f6b6457e060405160405180910390a380600360006101000a81548173ffffffffffffffffffffffffffffffffffffffff021916908373ffffffffffffffffffffffffffffffffffffffff16021790555050565b601a6020528060005260406000206000915054906101000a900460ff1681565b600080831415612330576000905061234f565b818302905081838281151561234157fe5b0414151561234b57fe5b8090505b92915050565b600082821115151561236357fe5b818303905092915050565b6000818381151561237b57fe5b04905092915050565b6000818301905082811015151561239757fe5b80905092915050565b60008073ffffffffffffffffffffffffffffffffffffffff168373ffffffffffffffffffffffffffffffffffffffff16141515156123dd57600080fd5b6000808573ffffffffffffffffffffffffffffffffffffffff1673ffffffffffffffffffffffffffffffffffffffff16815260200190815260200160002054821115151561242a57600080fd5b600260008573ffffffffffffffffffffffffffffffffffffffff1673ffffffffffffffffffffffffffffffffffffffff16815260200190815260200160002060003373ffffffffffffffffffffffffffffffffffffffff1673ffffffffffffffffffffffffffffffffffffffff1681526020019081526020016000205482111515156124b557600080fd5b612506826000808773ffffffffffffffffffffffffffffffffffffffff1673ffffffffffffffffffffffffffffffffffffffff1681526020019081526020016000205461235590919063ffffffff16565b6000808673ffffffffffffffffffffffffffffffffffffffff1673ffffffffffffffffffffffffffffffffffffffff16815260200190815260200160002081905550612599826000808673ffffffffffffffffffffffffffffffffffffffff1673ffffffffffffffffffffffffffffffffffffffff1681526020019081526020016000205461238490919063ffffffff16565b6000808573ffffffffffffffffffffffffffffffffffffffff1673ffffffffffffffffffffffffffffffffffffffff1681526020019081526020016000208190555061266a82600260008773ffffffffffffffffffffffffffffffffffffffff1673ffffffffffffffffffffffffffffffffffffffff16815260200190815260200160002060003373ffffffffffffffffffffffffffffffffffffffff1673ffffffffffffffffffffffffffffffffffffffff1681526020019081526020016000205461235590919063ffffffff16565b600260008673ffffffffffffffffffffffffffffffffffffffff1673ffffffffffffffffffffffffffffffffffffffff16815260200190815260200160002060003373ffffffffffffffffffffffffffffffffffffffff1673ffffffffffffffffffffffffffffffffffffffff168152602001908152602001600020819055508273ffffffffffffffffffffffffffffffffffffffff168473ffffffffffffffffffffffffffffffffffffffff167fddf252ad1be2c89b69c2b068fc378daa952ba7f163c4a11628f55a4df523b3ef846040518082815260200191505060405180910390a3600190509392505050565b60008073ffffffffffffffffffffffffffffffffffffffff168373ffffffffffffffffffffffffffffffffffffffff161415151561279757600080fd5b6000803373ffffffffffffffffffffffffffffffffffffffff1673ffffffffffffffffffffffffffffffffffffffff1681526020019081526020016000205482111515156127e457600080fd5b612835826000803373ffffffffffffffffffffffffffffffffffffffff1673ffffffffffffffffffffffffffffffffffffffff1681526020019081526020016000205461235590919063ffffffff16565b6000803373ffffffffffffffffffffffffffffffffffffffff1673ffffffffffffffffffffffffffffffffffffffff168152602001908152602001600020819055506128c8826000808673ffffffffffffffffffffffffffffffffffffffff1673ffffffffffffffffffffffffffffffffffffffff1681526020019081526020016000205461238490919063ffffffff16565b6000808573ffffffffffffffffffffffffffffffffffffffff1673ffffffffffffffffffffffffffffffffffffffff168152602001908152602001600020819055508273ffffffffffffffffffffffffffffffffffffffff163373ffffffffffffffffffffffffffffffffffffffff167fddf252ad1be2c89b69c2b068fc378daa952ba7f163c4a11628f55a4df523b3ef846040518082815260200191505060405180910390a360019050929150505600a165627a7a723058209934f5b7e8677687b7e7a4134043847dd41cf7fc82f049988b7b7dba5451688c0029",
  "source": "pragma solidity ^0.4.23;\n\nimport \"../node_modules/openzeppelin-solidity/contracts/ownership/Ownable.sol\";\nimport \"../node_modules/openzeppelin-solidity/contracts/token/ERC20/StandardToken.sol\";\n\ncontract TSD is StandardToken, Ownable {\n    using SafeMath for uint256;\n    \n    string public name = \"TSD COIN\";\n    string public symbol = \"TSD\";\n    uint256 public decimals = 18;\n\n    // Helper value from 1 million and 1 thousand\n    uint256 public million = 1000000 * (uint256(10) ** decimals);\n    uint256 public thousand = 1000 * (uint256(10) ** decimals);\n\n    // Allocations\n    uint256 public totalSupply = 550 * million;\n    uint256 public pvtSaleSupply = 55 * million;\n    uint256 public preSaleSupply = 65 * million;\n    uint256 public foundersAndAdvisorsAllocation = 44 * million;\n    uint256 public bountyCommunityIncentivesAllocation = (16 * million).add(500 * thousand);\n    uint256 public liquidityProgramAllocation = (16 * million).add(500 * thousand);\n    uint256 public minimumPurchase = 0.01 ether;\n    // 1 ETH = exchangeRate TSD\n    uint256 public exchangeRate;\n    uint256 public totalEthRaised = 0;\n\n    // Coordinated Universal Time (abbreviated to UTC) is the primary time standard by which the world regulates clocks and time.\n\n    // Start time \"Sat Sep 01 2018 00:00:00 GMT+1000 (AEST)\"\n    // new Date(1535724000000).toUTCString() => \"Fri, 31 Aug 2018 14:00:00 GMT\"\n    uint256 public startTime = 1535724000000;\n    // End time \"Mon Oct 01 2018 00:00:00 GMT+1000 (AEST)\"\n    // new Date(1538316000000).toUTCString() => \"Sun, 30 Sep 2018 14:00:00 GMT\"\n    uint256 public endTime = 1538316000000;\n\n    // Wallets\n    address public fundsWallet;\n    address public pvtSaleTokenWallet;\n    address public preSaleTokenWallet;\n\n    // Addresses for services and founders\n    address public foundersAndAdvisors;\n    address public bountyCommunityIncentives;\n    address public liquidityProgram;\n    \n    // whitelisted addresses\n    mapping (address => bool) public whiteListed;\n\n    // token balances\n    mapping (address => uint256) public balances;\n    \n    // events\n    event EthRaisedUpdated(uint256 oldEthRaisedVal, uint256 newEthRaisedVal);\n    event ExhangeRateUpdated(uint256 prevExchangeRate, uint256 newExchangeRate);\n    \n    constructor(\n        uint256 _exchangeRate,\n        address[] _whitelistAddresses,\n        address _pvtSaleTokenWallet,\n        address _preSaleTokenWallet,\n        address _foundersAndAdvisors,\n        address _bountyCommunityIncentives,\n        address _liquidityProgram\n    ) public {\n        fundsWallet = owner;\n        pvtSaleTokenWallet = _pvtSaleTokenWallet;\n        preSaleTokenWallet = _preSaleTokenWallet;\n        exchangeRate = _exchangeRate;\n        foundersAndAdvisors = _foundersAndAdvisors;\n        bountyCommunityIncentives = _bountyCommunityIncentives;\n        liquidityProgram = _liquidityProgram;\n        \n        // transfer suppy to the funds wallet\n        balances[fundsWallet] = totalSupply;\n        emit Transfer(0x0, fundsWallet, totalSupply);\n        \n        // transfer tokens to account for the private sale\n        balances[fundsWallet].sub(pvtSaleSupply);\n        balances[pvtSaleTokenWallet].add(pvtSaleSupply);\n        emit Transfer(fundsWallet, pvtSaleTokenWallet, pvtSaleSupply);\n        \n        // transfer tokens to account for the pre sale\n        balances[fundsWallet].sub(preSaleSupply);\n        balances[preSaleTokenWallet].add(preSaleSupply);\n        emit Transfer(fundsWallet, preSaleTokenWallet, preSaleSupply);\n\n        // transfer tokens to founders account\n        balances[fundsWallet].sub(foundersAndAdvisorsAllocation);\n        balances[foundersAndAdvisors].add(foundersAndAdvisorsAllocation);\n        emit Transfer(fundsWallet, foundersAndAdvisors, foundersAndAdvisorsAllocation);\n\n        // transfer tokens to bounty and community incentives account\n        balances[fundsWallet].sub(bountyCommunityIncentivesAllocation);\n        balances[bountyCommunityIncentives].add(bountyCommunityIncentivesAllocation);\n        emit Transfer(fundsWallet, bountyCommunityIncentives, bountyCommunityIncentivesAllocation);\n\n        // transfer tokens to the liquidity program account\n        balances[fundsWallet].sub(liquidityProgramAllocation);\n        balances[liquidityProgram].add(liquidityProgramAllocation);\n        emit Transfer(fundsWallet, liquidityProgram, liquidityProgramAllocation);\n        \n        // Set up the list of whitelisted addresses\n        createWhiteListedMapping(_whitelistAddresses);\n    }\n    \n    function currentTime() public view returns (uint256) {\n        return now * 1000;\n    }\n\n    // Utility functions \n    \n    function createWhiteListedMapping(address[] _addresses) private {\n        for (uint256 i = 0; i < _addresses.length; i++) {\n            whiteListed[_addresses[i]] = true;\n        }\n    }\n\n    // Updates the ETH => TSD exchange rate\n    function updateTheExchangeRate(uint256 _newRate) public onlyOwner returns (bool) {\n        uint256 currentRate = exchangeRate;\n        exchangeRate = _newRate;\n        emit ExhangeRateUpdated(currentRate, _newRate);\n    }\n\n    function burnRemainingTokensAfterClose() public onlyOwner returns (bool) {\n        require(currentTime() >= endTime);\n        if (balances[fundsWallet] > 0) {\n            // burn unsold tokens\n            balances[fundsWallet] = 0;\n        }\n\n        return true;\n    }\n\n    // Buy functions\n    \n    function() payable public {\n        buyTokens();\n    }\n    \n    function buyTokens() payable public {\n        require(currentTime() >= startTime && currentTime() <= endTime);\n        require(msg.value >= minimumPurchase);\n        require(whiteListed[msg.sender]);\n        uint256 ethAmount = msg.value;\n        uint256 tokenAmount = msg.value.mul(exchangeRate);\n        uint256 availableTokens;\n        uint256 currentEthRaised = totalEthRaised;\n        uint256 ethRefund = 0;\n        \n        \n        if (tokenAmount > balances[fundsWallet]) {\n            // subtract the remaining bal from the original token amount\n            availableTokens = tokenAmount.sub(balances[fundsWallet]);\n            // determine the unused ether amount by seeing how many tokens where\n            // unavailable and dividing by the exchange rate\n            ethRefund = tokenAmount.sub(availableTokens).div(exchangeRate);\n            // subtract the refund amount from the eth amount received by the tx\n            ethAmount = ethAmount.sub(ethRefund);\n            // make the token purchase\n            balances[fundsWallet] = balances[fundsWallet].sub(availableTokens);\n            balances[msg.sender] = balances[msg.sender].add(availableTokens);\n            emit Transfer(fundsWallet, msg.sender, tokenAmount);\n\n            // refund\n            if (ethRefund > 0) {\n                msg.sender.transfer(ethRefund);\n            }\n\n            // transfer ether to funds wallet\n            fundsWallet.transfer(ethAmount);\n            totalEthRaised.add(ethAmount);\n            emit EthRaisedUpdated(currentEthRaised, totalEthRaised);\n        } else {\n            require(balances[fundsWallet] >= tokenAmount);\n            balances[fundsWallet] = balances[fundsWallet].sub(tokenAmount);\n            balances[msg.sender] = balances[msg.sender].add(tokenAmount);\n            emit Transfer(fundsWallet, msg.sender, tokenAmount);\n            \n            fundsWallet.transfer(msg.value);\n            totalEthRaised.add(msg.value);\n            emit EthRaisedUpdated(currentEthRaised, totalEthRaised);\n        }\n    }\n    \n    // Subsequent supply functions\n\n    function increaseTotalSupplyAndAllocateTokens(address _newTokensWallet, uint256 _amount) onlyOwner public {\n        totalSupply = totalSupply + _amount;\n        balances[_newTokensWallet] = _amount;\n    }\n    \n    function increaseEthRaisedBySubsequentSale(uint256 _amount) public {\n        totalEthRaised = totalEthRaised + _amount;\n    }\n    \n    // ERC20 function wrappers\n    \n    function transfer(address _to, uint256 _tokens) public returns (bool success) {\n        require(currentTime() >= endTime);\n        return super.transfer(_to, _tokens);\n    }\n    \n    function transferFrom(address _from, address _to, uint256 _tokens) public returns (bool success) {\n        require(currentTime() >= endTime);\n        return super.transferFrom(_from, _to, _tokens);\n    }\n\n    function transferRemainingTokensFromPriorSales(address _from, address _to, uint256 _tokens) public  returns (bool success) {\n        return super.transferFrom(_from, _to, _tokens);\n    }\n}",
  "sourcePath": "/Users/spencerdezartsmith/Documents/five2one/tsd_dapp/contracts/TSD.sol",
  "compiler": {
    "name": "solc",
    "version": "0.4.23+commit.124ca40d.Emscripten.clang"
  },
  "schemaVersion": "2.0.0",
  "updatedAt": "2018-05-24T07:28:25.239Z"
}