{
  "contractName": "TSD",
  "abi": [
    {
      "constant": true,
      "inputs": [],
      "name": "name",
      "outputs": [
        {
          "name": "",
          "type": "string"
        }
      ],
      "payable": false,
      "stateMutability": "view",
      "type": "function"
    },
    {
      "constant": false,
      "inputs": [
        {
          "name": "_spender",
          "type": "address"
        },
        {
          "name": "_value",
          "type": "uint256"
        }
      ],
      "name": "approve",
      "outputs": [
        {
          "name": "",
          "type": "bool"
        }
      ],
      "payable": false,
      "stateMutability": "nonpayable",
      "type": "function"
    },
    {
      "constant": true,
      "inputs": [],
      "name": "foundersAndAdvisors",
      "outputs": [
        {
          "name": "",
          "type": "address"
        }
      ],
      "payable": false,
      "stateMutability": "view",
      "type": "function"
    },
    {
      "constant": true,
      "inputs": [],
      "name": "totalSupply",
      "outputs": [
        {
          "name": "",
          "type": "uint256"
        }
      ],
      "payable": false,
      "stateMutability": "view",
      "type": "function"
    },
    {
      "constant": true,
      "inputs": [],
      "name": "fundsWallet",
      "outputs": [
        {
          "name": "",
          "type": "address"
        }
      ],
      "payable": false,
      "stateMutability": "view",
      "type": "function"
    },
    {
      "constant": true,
      "inputs": [],
      "name": "preSaleSupply",
      "outputs": [
        {
          "name": "",
          "type": "uint256"
        }
      ],
      "payable": false,
      "stateMutability": "view",
      "type": "function"
    },
    {
      "constant": true,
      "inputs": [],
      "name": "canTrade",
      "outputs": [
        {
          "name": "",
          "type": "bool"
        }
      ],
      "payable": false,
      "stateMutability": "view",
      "type": "function"
    },
    {
      "constant": true,
      "inputs": [],
      "name": "decimalMultiplier",
      "outputs": [
        {
          "name": "",
          "type": "uint256"
        }
      ],
      "payable": false,
      "stateMutability": "view",
      "type": "function"
    },
    {
      "constant": true,
      "inputs": [],
      "name": "decimals",
      "outputs": [
        {
          "name": "",
          "type": "uint256"
        }
      ],
      "payable": false,
      "stateMutability": "view",
      "type": "function"
    },
    {
      "constant": true,
      "inputs": [],
      "name": "foundersAndAdvisorsAllocation",
      "outputs": [
        {
          "name": "",
          "type": "uint256"
        }
      ],
      "payable": false,
      "stateMutability": "view",
      "type": "function"
    },
    {
      "constant": true,
      "inputs": [],
      "name": "million",
      "outputs": [
        {
          "name": "",
          "type": "uint256"
        }
      ],
      "payable": false,
      "stateMutability": "view",
      "type": "function"
    },
    {
      "constant": true,
      "inputs": [],
      "name": "thousand",
      "outputs": [
        {
          "name": "",
          "type": "uint256"
        }
      ],
      "payable": false,
      "stateMutability": "view",
      "type": "function"
    },
    {
      "constant": false,
      "inputs": [
        {
          "name": "_spender",
          "type": "address"
        },
        {
          "name": "_subtractedValue",
          "type": "uint256"
        }
      ],
      "name": "decreaseApproval",
      "outputs": [
        {
          "name": "",
          "type": "bool"
        }
      ],
      "payable": false,
      "stateMutability": "nonpayable",
      "type": "function"
    },
    {
      "constant": true,
      "inputs": [
        {
          "name": "_owner",
          "type": "address"
        }
      ],
      "name": "balanceOf",
      "outputs": [
        {
          "name": "",
          "type": "uint256"
        }
      ],
      "payable": false,
      "stateMutability": "view",
      "type": "function"
    },
    {
      "constant": false,
      "inputs": [],
      "name": "renounceOwnership",
      "outputs": [],
      "payable": false,
      "stateMutability": "nonpayable",
      "type": "function"
    },
    {
      "constant": true,
      "inputs": [],
      "name": "liquidityProgramAllocation",
      "outputs": [
        {
          "name": "",
          "type": "uint256"
        }
      ],
      "payable": false,
      "stateMutability": "view",
      "type": "function"
    },
    {
      "constant": true,
      "inputs": [],
      "name": "owner",
      "outputs": [
        {
          "name": "",
          "type": "address"
        }
      ],
      "payable": false,
      "stateMutability": "view",
      "type": "function"
    },
    {
      "constant": true,
      "inputs": [],
      "name": "pvtSaleTokenWallet",
      "outputs": [
        {
          "name": "",
          "type": "address"
        }
      ],
      "payable": false,
      "stateMutability": "view",
      "type": "function"
    },
    {
      "constant": true,
      "inputs": [],
      "name": "authorisedContract",
      "outputs": [
        {
          "name": "",
          "type": "address"
        }
      ],
      "payable": false,
      "stateMutability": "view",
      "type": "function"
    },
    {
      "constant": true,
      "inputs": [],
      "name": "projectImplementationServices",
      "outputs": [
        {
          "name": "",
          "type": "address"
        }
      ],
      "payable": false,
      "stateMutability": "view",
      "type": "function"
    },
    {
      "constant": true,
      "inputs": [],
      "name": "symbol",
      "outputs": [
        {
          "name": "",
          "type": "string"
        }
      ],
      "payable": false,
      "stateMutability": "view",
      "type": "function"
    },
    {
      "constant": true,
      "inputs": [],
      "name": "bountyCommunityIncentives",
      "outputs": [
        {
          "name": "",
          "type": "address"
        }
      ],
      "payable": false,
      "stateMutability": "view",
      "type": "function"
    },
    {
      "constant": true,
      "inputs": [],
      "name": "bountyCommunityIncentivesAllocation",
      "outputs": [
        {
          "name": "",
          "type": "uint256"
        }
      ],
      "payable": false,
      "stateMutability": "view",
      "type": "function"
    },
    {
      "constant": true,
      "inputs": [],
      "name": "liquidityProgram",
      "outputs": [
        {
          "name": "",
          "type": "address"
        }
      ],
      "payable": false,
      "stateMutability": "view",
      "type": "function"
    },
    {
      "constant": true,
      "inputs": [],
      "name": "mainTokenSupply",
      "outputs": [
        {
          "name": "",
          "type": "uint256"
        }
      ],
      "payable": false,
      "stateMutability": "view",
      "type": "function"
    },
    {
      "constant": true,
      "inputs": [],
      "name": "totalEthRaised",
      "outputs": [
        {
          "name": "",
          "type": "uint256"
        }
      ],
      "payable": false,
      "stateMutability": "view",
      "type": "function"
    },
    {
      "constant": true,
      "inputs": [],
      "name": "subsequentContract",
      "outputs": [
        {
          "name": "",
          "type": "address"
        }
      ],
      "payable": false,
      "stateMutability": "view",
      "type": "function"
    },
    {
      "constant": false,
      "inputs": [
        {
          "name": "_spender",
          "type": "address"
        },
        {
          "name": "_addedValue",
          "type": "uint256"
        }
      ],
      "name": "increaseApproval",
      "outputs": [
        {
          "name": "",
          "type": "bool"
        }
      ],
      "payable": false,
      "stateMutability": "nonpayable",
      "type": "function"
    },
    {
      "constant": true,
      "inputs": [],
      "name": "preSaleTokenWallet",
      "outputs": [
        {
          "name": "",
          "type": "address"
        }
      ],
      "payable": false,
      "stateMutability": "view",
      "type": "function"
    },
    {
      "constant": true,
      "inputs": [
        {
          "name": "_owner",
          "type": "address"
        },
        {
          "name": "_spender",
          "type": "address"
        }
      ],
      "name": "allowance",
      "outputs": [
        {
          "name": "",
          "type": "uint256"
        }
      ],
      "payable": false,
      "stateMutability": "view",
      "type": "function"
    },
    {
      "constant": true,
      "inputs": [],
      "name": "projectImplementationServicesAllocation",
      "outputs": [
        {
          "name": "",
          "type": "uint256"
        }
      ],
      "payable": false,
      "stateMutability": "view",
      "type": "function"
    },
    {
      "constant": true,
      "inputs": [],
      "name": "pvtSaleSupply",
      "outputs": [
        {
          "name": "",
          "type": "uint256"
        }
      ],
      "payable": false,
      "stateMutability": "view",
      "type": "function"
    },
    {
      "constant": false,
      "inputs": [
        {
          "name": "newOwner",
          "type": "address"
        }
      ],
      "name": "transferOwnership",
      "outputs": [],
      "payable": false,
      "stateMutability": "nonpayable",
      "type": "function"
    },
    {
      "inputs": [
        {
          "name": "_pvtSaleTokenWallet",
          "type": "address"
        },
        {
          "name": "_preSaleTokenWallet",
          "type": "address"
        },
        {
          "name": "_foundersAndAdvisors",
          "type": "address"
        },
        {
          "name": "_bountyCommunityIncentives",
          "type": "address"
        },
        {
          "name": "_liquidityProgram",
          "type": "address"
        },
        {
          "name": "_projectImplementationServices",
          "type": "address"
        }
      ],
      "payable": false,
      "stateMutability": "nonpayable",
      "type": "constructor"
    },
    {
      "anonymous": false,
      "inputs": [
        {
          "indexed": false,
          "name": "oldEthRaisedVal",
          "type": "uint256"
        },
        {
          "indexed": false,
          "name": "newEthRaisedVal",
          "type": "uint256"
        }
      ],
      "name": "EthRaisedUpdated",
      "type": "event"
    },
    {
      "anonymous": false,
      "inputs": [
        {
          "indexed": false,
          "name": "oldSupply",
          "type": "uint256"
        },
        {
          "indexed": false,
          "name": "newSupply",
          "type": "uint256"
        }
      ],
      "name": "UpdatedTotalSupply",
      "type": "event"
    },
    {
      "anonymous": false,
      "inputs": [
        {
          "indexed": false,
          "name": "status",
          "type": "bool"
        }
      ],
      "name": "TradingStatus",
      "type": "event"
    },
    {
      "anonymous": false,
      "inputs": [
        {
          "indexed": false,
          "name": "allocationStatus",
          "type": "bool"
        }
      ],
      "name": "InitalTokenAllocation",
      "type": "event"
    },
    {
      "anonymous": false,
      "inputs": [
        {
          "indexed": false,
          "name": "additionalSupply",
          "type": "uint256"
        },
        {
          "indexed": false,
          "name": "_newMintedTokensWallet",
          "type": "address"
        }
      ],
      "name": "IncreaseTotalSupply",
      "type": "event"
    },
    {
      "anonymous": false,
      "inputs": [
        {
          "indexed": true,
          "name": "previousOwner",
          "type": "address"
        }
      ],
      "name": "OwnershipRenounced",
      "type": "event"
    },
    {
      "anonymous": false,
      "inputs": [
        {
          "indexed": true,
          "name": "previousOwner",
          "type": "address"
        },
        {
          "indexed": true,
          "name": "newOwner",
          "type": "address"
        }
      ],
      "name": "OwnershipTransferred",
      "type": "event"
    },
    {
      "anonymous": false,
      "inputs": [
        {
          "indexed": true,
          "name": "owner",
          "type": "address"
        },
        {
          "indexed": true,
          "name": "spender",
          "type": "address"
        },
        {
          "indexed": false,
          "name": "value",
          "type": "uint256"
        }
      ],
      "name": "Approval",
      "type": "event"
    },
    {
      "anonymous": false,
      "inputs": [
        {
          "indexed": false,
          "name": "from",
          "type": "address"
        },
        {
          "indexed": false,
          "name": "to",
          "type": "address"
        },
        {
          "indexed": false,
          "name": "value",
          "type": "uint256"
        }
      ],
      "name": "Transfer",
      "type": "event"
    },
    {
      "constant": false,
      "inputs": [],
      "name": "contractInitialAllocation",
      "outputs": [],
      "payable": false,
      "stateMutability": "nonpayable",
      "type": "function"
    },
    {
      "constant": false,
      "inputs": [],
      "name": "withdrawFromEscrow",
      "outputs": [],
      "payable": false,
      "stateMutability": "nonpayable",
      "type": "function"
    },
    {
      "constant": true,
      "inputs": [],
      "name": "currentTime",
      "outputs": [
        {
          "name": "",
          "type": "uint256"
        }
      ],
      "payable": false,
      "stateMutability": "view",
      "type": "function"
    },
    {
      "constant": false,
      "inputs": [],
      "name": "toggleTrading",
      "outputs": [],
      "payable": false,
      "stateMutability": "nonpayable",
      "type": "function"
    },
    {
      "constant": false,
      "inputs": [
        {
          "name": "_address",
          "type": "address"
        }
      ],
      "name": "burnRemainingTokensAfterClose",
      "outputs": [
        {
          "name": "",
          "type": "bool"
        }
      ],
      "payable": false,
      "stateMutability": "nonpayable",
      "type": "function"
    },
    {
      "constant": false,
      "inputs": [
        {
          "name": "_to",
          "type": "address"
        },
        {
          "name": "_tokens",
          "type": "uint256"
        }
      ],
      "name": "transfer",
      "outputs": [
        {
          "name": "",
          "type": "bool"
        }
      ],
      "payable": false,
      "stateMutability": "nonpayable",
      "type": "function"
    },
    {
      "constant": false,
      "inputs": [
        {
          "name": "_from",
          "type": "address"
        },
        {
          "name": "_to",
          "type": "address"
        },
        {
          "name": "_value",
          "type": "uint256"
        }
      ],
      "name": "transferFrom",
      "outputs": [
        {
          "name": "",
          "type": "bool"
        }
      ],
      "payable": false,
      "stateMutability": "nonpayable",
      "type": "function"
    },
    {
      "constant": false,
      "inputs": [
        {
          "name": "_contractAddress",
          "type": "address"
        }
      ],
      "name": "setAuthorisedContractAddress",
      "outputs": [
        {
          "name": "",
          "type": "bool"
        }
      ],
      "payable": false,
      "stateMutability": "nonpayable",
      "type": "function"
    },
    {
      "constant": false,
      "inputs": [
        {
          "name": "_from",
          "type": "address"
        },
        {
          "name": "_to",
          "type": "address"
        },
        {
          "name": "_value",
          "type": "uint256"
        }
      ],
      "name": "safeTransferFrom",
      "outputs": [
        {
          "name": "",
          "type": "bool"
        }
      ],
      "payable": false,
      "stateMutability": "nonpayable",
      "type": "function"
    },
    {
      "constant": false,
      "inputs": [
        {
          "name": "_contractAddress",
          "type": "address"
        }
      ],
      "name": "setSubsequentContract",
      "outputs": [
        {
          "name": "",
          "type": "bool"
        }
      ],
      "payable": false,
      "stateMutability": "nonpayable",
      "type": "function"
    },
    {
      "constant": false,
      "inputs": [
        {
          "name": "_newTokensWallet",
          "type": "address"
        },
        {
          "name": "_amount",
          "type": "uint256"
        }
      ],
      "name": "increaseTotalSupplyAndAllocateTokens",
      "outputs": [
        {
          "name": "",
          "type": "bool"
        }
      ],
      "payable": false,
      "stateMutability": "nonpayable",
      "type": "function"
    },
    {
      "constant": false,
      "inputs": [
        {
          "name": "_amount",
          "type": "uint256"
        }
      ],
      "name": "increaseEthRaisedBySubsequentSale",
      "outputs": [],
      "payable": false,
      "stateMutability": "nonpayable",
      "type": "function"
    }
  ],
  "bytecode": "0x60806040526040805190810160405280600881526020017f54534420434f494e0000000000000000000000000000000000000000000000008152506003908051906020019062000051929190620006f1565b506040805190810160405280600381526020017f5453440000000000000000000000000000000000000000000000000000000000815250600490805190602001906200009f929190620006f1565b506012600555600554600a0a600655600654620f4240026007556006546103e80260085560075461025802600955600754606002600a55600754609002600b5560075460f002600c55600754603002600d55600754600c02600e55600754602a02600f5560075460120260105560006011556200015c600b546200013f600c54600a54620006a364010000000002620038ee179091906401000000009004565b620006a364010000000002620038ee179091906401000000009004565b601255620001f1620001896002600e54620006c06401000000000262003800179091906401000000009004565b620001d4601054620001b7601254600954620006d7640100000000026200354e179091906401000000009004565b620006d7640100000000026200354e179091906401000000009004565b620006d7640100000000026200354e179091906401000000009004565b6013556000601c60146101000a81548160ff0219169083151502179055506000601c60156101000a81548160ff0219169083151502179055503480156200023757600080fd5b5060405160c0806200410083398101806040528101908080519060200190929190805190602001909291908051906020019092919080519060200190929190805190602001909291908051906020019092919050505033600260006101000a81548173ffffffffffffffffffffffffffffffffffffffff021916908373ffffffffffffffffffffffffffffffffffffffff160217905550600260009054906101000a900473ffffffffffffffffffffffffffffffffffffffff16601460006101000a81548173ffffffffffffffffffffffffffffffffffffffff021916908373ffffffffffffffffffffffffffffffffffffffff16021790555085601560006101000a81548173ffffffffffffffffffffffffffffffffffffffff021916908373ffffffffffffffffffffffffffffffffffffffff16021790555084601660006101000a81548173ffffffffffffffffffffffffffffffffffffffff021916908373ffffffffffffffffffffffffffffffffffffffff16021790555083601760006101000a81548173ffffffffffffffffffffffffffffffffffffffff021916908373ffffffffffffffffffffffffffffffffffffffff16021790555082601860006101000a81548173ffffffffffffffffffffffffffffffffffffffff021916908373ffffffffffffffffffffffffffffffffffffffff16021790555081601960006101000a81548173ffffffffffffffffffffffffffffffffffffffff021916908373ffffffffffffffffffffffffffffffffffffffff16021790555080601a60006101000a81548173ffffffffffffffffffffffffffffffffffffffff021916908373ffffffffffffffffffffffffffffffffffffffff16021790555062000525620004e16002600e54620006c06401000000000262003800179091906401000000009004565b62000508601054601254620006a364010000000002620038ee179091906401000000009004565b620006a364010000000002620038ee179091906401000000009004565b60016000601460009054906101000a900473ffffffffffffffffffffffffffffffffffffffff1673ffffffffffffffffffffffffffffffffffffffff1673ffffffffffffffffffffffffffffffffffffffff168152602001908152602001600020819055507fddf252ad1be2c89b69c2b068fc378daa952ba7f163c4a11628f55a4df523b3ef6000601460009054906101000a900473ffffffffffffffffffffffffffffffffffffffff1660016000601460009054906101000a900473ffffffffffffffffffffffffffffffffffffffff1673ffffffffffffffffffffffffffffffffffffffff1673ffffffffffffffffffffffffffffffffffffffff16815260200190815260200160002054604051808473ffffffffffffffffffffffffffffffffffffffff1681526020018373ffffffffffffffffffffffffffffffffffffffff1673ffffffffffffffffffffffffffffffffffffffff168152602001828152602001935050505060405180910390a1505050505050620007a0565b60008183019050828110151515620006b757fe5b80905092915050565b60008183811515620006ce57fe5b04905092915050565b6000828211151515620006e657fe5b818303905092915050565b828054600181600116156101000203166002900490600052602060002090601f016020900481019282601f106200073457805160ff191683800117855562000765565b8280016001018555821562000765579182015b828111156200076457825182559160200191906001019062000747565b5b50905062000774919062000778565b5090565b6200079d91905b80821115620007995760008160009055506001016200077f565b5090565b90565b61395080620007b06000396000f300608060405260043610610225576000357c0100000000000000000000000000000000000000000000000000000000900463ffffffff16806306fdde031461022a578063095ea7b3146102ba5780630f120fc31461031f5780630ff50d111461033657806318160ddd1461038d5780632194f3a2146103b857806323b872dd1461040f5780632e055bcc146104945780632f05205c146104bf5780633082538f146104ee578063313ce5671461051957806342842e0e1461054457806347e92315146105c95780634e9c6b1f146105f45780635db134761461061f578063661884631461064a57806367545f10146106af57806370a082311461070a578063715018a614610761578063772b44aa1461077857806378ae40691461078f5780637af30748146107ea5780638025c87514610815578063822fd6cd146108705780638da5cb5b1461089d5780638fb24c7d146108f457806391ab0ca01461094b57806391f675ce146109a257806395d89b41146109f95780639fc9727314610a89578063a1d34d2d14610ae0578063a9059cbb14610b0b578063acfa7c5f14610b70578063b725d67214610bc7578063c91d0b8114610bde578063c9e904be14610c09578063c9f73f5a14610c34578063d05636e714610c8b578063d18e81b314610cf0578063d73dd62314610d1b578063dadf172914610d80578063dd62ed3e14610dd7578063e984811e14610e4e578063f2323f7e14610e79578063f2fde38b14610ea4575b600080fd5b34801561023657600080fd5b5061023f610ee7565b6040518080602001828103825283818151815260200191508051906020019080838360005b8381101561027f578082015181840152602081019050610264565b50505050905090810190601f1680156102ac5780820380516001836020036101000a031916815260200191505b509250505060405180910390f35b3480156102c657600080fd5b50610305600480360381019080803573ffffffffffffffffffffffffffffffffffffffff16906020019092919080359060200190929190505050610f85565b604051808215151515815260200191505060405180910390f35b34801561032b57600080fd5b50610334611076565b005b34801561034257600080fd5b5061034b611148565b604051808273ffffffffffffffffffffffffffffffffffffffff1673ffffffffffffffffffffffffffffffffffffffff16815260200191505060405180910390f35b34801561039957600080fd5b506103a261116e565b6040518082815260200191505060405180910390f35b3480156103c457600080fd5b506103cd611174565b604051808273ffffffffffffffffffffffffffffffffffffffff1673ffffffffffffffffffffffffffffffffffffffff16815260200191505060405180910390f35b34801561041b57600080fd5b5061047a600480360381019080803573ffffffffffffffffffffffffffffffffffffffff169060200190929190803573ffffffffffffffffffffffffffffffffffffffff1690602001909291908035906020019092919050505061119a565b604051808215151515815260200191505060405180910390f35b3480156104a057600080fd5b506104a9611234565b6040518082815260200191505060405180910390f35b3480156104cb57600080fd5b506104d461123a565b604051808215151515815260200191505060405180910390f35b3480156104fa57600080fd5b5061050361124d565b6040518082815260200191505060405180910390f35b34801561052557600080fd5b5061052e611253565b6040518082815260200191505060405180910390f35b34801561055057600080fd5b506105af600480360381019080803573ffffffffffffffffffffffffffffffffffffffff169060200190929190803573ffffffffffffffffffffffffffffffffffffffff16906020019092919080359060200190929190505050611259565b604051808215151515815260200191505060405180910390f35b3480156105d557600080fd5b506105de61140b565b6040518082815260200191505060405180910390f35b34801561060057600080fd5b50610609611411565b6040518082815260200191505060405180910390f35b34801561062b57600080fd5b50610634611417565b6040518082815260200191505060405180910390f35b34801561065657600080fd5b50610695600480360381019080803573ffffffffffffffffffffffffffffffffffffffff1690602001909291908035906020019092919050505061141d565b604051808215151515815260200191505060405180910390f35b3480156106bb57600080fd5b506106f0600480360381019080803573ffffffffffffffffffffffffffffffffffffffff1690602001909291905050506116aa565b604051808215151515815260200191505060405180910390f35b34801561071657600080fd5b5061074b600480360381019080803573ffffffffffffffffffffffffffffffffffffffff169060200190929190505050611ba2565b6040518082815260200191505060405180910390f35b34801561076d57600080fd5b50610776611beb565b005b34801561078457600080fd5b5061078d611cf0565b005b34801561079b57600080fd5b506107d0600480360381019080803573ffffffffffffffffffffffffffffffffffffffff169060200190929190505050611fdf565b604051808215151515815260200191505060405180910390f35b3480156107f657600080fd5b506107ff612087565b6040518082815260200191505060405180910390f35b34801561082157600080fd5b50610856600480360381019080803573ffffffffffffffffffffffffffffffffffffffff16906020019092919050505061208d565b604051808215151515815260200191505060405180910390f35b34801561087c57600080fd5b5061089b60048036038101908080359060200190929190505050612135565b005b3480156108a957600080fd5b506108b2612295565b604051808273ffffffffffffffffffffffffffffffffffffffff1673ffffffffffffffffffffffffffffffffffffffff16815260200191505060405180910390f35b34801561090057600080fd5b506109096122bb565b604051808273ffffffffffffffffffffffffffffffffffffffff1673ffffffffffffffffffffffffffffffffffffffff16815260200191505060405180910390f35b34801561095757600080fd5b506109606122e1565b604051808273ffffffffffffffffffffffffffffffffffffffff1673ffffffffffffffffffffffffffffffffffffffff16815260200191505060405180910390f35b3480156109ae57600080fd5b506109b7612307565b604051808273ffffffffffffffffffffffffffffffffffffffff1673ffffffffffffffffffffffffffffffffffffffff16815260200191505060405180910390f35b348015610a0557600080fd5b50610a0e61232d565b6040518080602001828103825283818151815260200191508051906020019080838360005b83811015610a4e578082015181840152602081019050610a33565b50505050905090810190601f168015610a7b5780820380516001836020036101000a031916815260200191505b509250505060405180910390f35b348015610a9557600080fd5b50610a9e6123cb565b604051808273ffffffffffffffffffffffffffffffffffffffff1673ffffffffffffffffffffffffffffffffffffffff16815260200191505060405180910390f35b348015610aec57600080fd5b50610af56123f1565b6040518082815260200191505060405180910390f35b348015610b1757600080fd5b50610b56600480360381019080803573ffffffffffffffffffffffffffffffffffffffff169060200190929190803590602001909291905050506123f7565b604051808215151515815260200191505060405180910390f35b348015610b7c57600080fd5b50610b8561248f565b604051808273ffffffffffffffffffffffffffffffffffffffff1673ffffffffffffffffffffffffffffffffffffffff16815260200191505060405180910390f35b348015610bd357600080fd5b50610bdc6124b5565b005b348015610bea57600080fd5b50610bf3612aaf565b6040518082815260200191505060405180910390f35b348015610c1557600080fd5b50610c1e612ab5565b6040518082815260200191505060405180910390f35b348015610c4057600080fd5b50610c49612abb565b604051808273ffffffffffffffffffffffffffffffffffffffff1673ffffffffffffffffffffffffffffffffffffffff16815260200191505060405180910390f35b348015610c9757600080fd5b50610cd6600480360381019080803573ffffffffffffffffffffffffffffffffffffffff16906020019092919080359060200190929190505050612ae1565b604051808215151515815260200191505060405180910390f35b348015610cfc57600080fd5b50610d05612d08565b6040518082815260200191505060405180910390f35b348015610d2757600080fd5b50610d66600480360381019080803573ffffffffffffffffffffffffffffffffffffffff16906020019092919080359060200190929190505050612d14565b604051808215151515815260200191505060405180910390f35b348015610d8c57600080fd5b50610d95612f0d565b604051808273ffffffffffffffffffffffffffffffffffffffff1673ffffffffffffffffffffffffffffffffffffffff16815260200191505060405180910390f35b348015610de357600080fd5b50610e38600480360381019080803573ffffffffffffffffffffffffffffffffffffffff169060200190929190803573ffffffffffffffffffffffffffffffffffffffff169060200190929190505050612f33565b6040518082815260200191505060405180910390f35b348015610e5a57600080fd5b50610e63612fb9565b6040518082815260200191505060405180910390f35b348015610e8557600080fd5b50610e8e612fbf565b6040518082815260200191505060405180910390f35b348015610eb057600080fd5b50610ee5600480360381019080803573ffffffffffffffffffffffffffffffffffffffff169060200190929190505050612fc5565b005b60038054600181600116156101000203166002900480601f016020809104026020016040519081016040528092919081815260200182805460018160011615610100020316600290048015610f7d5780601f10610f5257610100808354040283529160200191610f7d565b820191906000526020600020905b815481529060010190602001808311610f6057829003601f168201915b505050505081565b6000816000803373ffffffffffffffffffffffffffffffffffffffff1673ffffffffffffffffffffffffffffffffffffffff16815260200190815260200160002060008573ffffffffffffffffffffffffffffffffffffffff1673ffffffffffffffffffffffffffffffffffffffff168152602001908152602001600020819055508273ffffffffffffffffffffffffffffffffffffffff163373ffffffffffffffffffffffffffffffffffffffff167f8c5be1e5ebec7d5bd14f71427d1e84f3dd0314c0f7b2291e5b200ac8c7c3b925846040518082815260200191505060405180910390a36001905092915050565b600260009054906101000a900473ffffffffffffffffffffffffffffffffffffffff1673ffffffffffffffffffffffffffffffffffffffff163373ffffffffffffffffffffffffffffffffffffffff161415156110d257600080fd5b601c60149054906101000a900460ff1615601c60146101000a81548160ff0219169083151502179055507f6481faded63842e4c5bb4367bf33ac32b141cd941b0160d448a61af7a7361ff3601c60149054906101000a900460ff16604051808215151515815260200191505060405180910390a1565b601760009054906101000a900473ffffffffffffffffffffffffffffffffffffffff1681565b60095481565b601460009054906101000a900473ffffffffffffffffffffffffffffffffffffffff1681565b6000601c60149054906101000a900460ff161515611220576040517f08c379a000000000000000000000000000000000000000000000000000000000815260040180806020018281038252601b8152602001807f63616e54726164652069732063757272656e746c792066616c7365000000000081525060200191505060405180910390fd5b61122b84848461311d565b90509392505050565b600c5481565b601c60149054906101000a900460ff1681565b60065481565b60055481565b60008073ffffffffffffffffffffffffffffffffffffffff163373ffffffffffffffffffffffffffffffffffffffff161415151561129657600080fd5b601c60009054906101000a900473ffffffffffffffffffffffffffffffffffffffff1673ffffffffffffffffffffffffffffffffffffffff163373ffffffffffffffffffffffffffffffffffffffff1614151561135b576040517f08c379a00000000000000000000000000000000000000000000000000000000081526004018080602001828103825260208152602001807f73656e646572206973206e6f7420617574686f7269736564436f6e747261637481525060200191505060405180910390fd5b61136684848461311d565b1515611400576040517f08c379a00000000000000000000000000000000000000000000000000000000081526004018080602001828103825260328152602001807f636f756c64206e6f7420736166656c79207472616e736665722066726f6d206181526020017f7574686f726973656420636f6e7472616374000000000000000000000000000081525060400191505060405180910390fd5b600190509392505050565b600d5481565b60075481565b60085481565b6000806000803373ffffffffffffffffffffffffffffffffffffffff1673ffffffffffffffffffffffffffffffffffffffff16815260200190815260200160002060008573ffffffffffffffffffffffffffffffffffffffff1673ffffffffffffffffffffffffffffffffffffffff1681526020019081526020016000205490508083111561152c5760008060003373ffffffffffffffffffffffffffffffffffffffff1673ffffffffffffffffffffffffffffffffffffffff16815260200190815260200160002060008673ffffffffffffffffffffffffffffffffffffffff1673ffffffffffffffffffffffffffffffffffffffff168152602001908152602001600020819055506115bf565b61153f838261354e90919063ffffffff16565b6000803373ffffffffffffffffffffffffffffffffffffffff1673ffffffffffffffffffffffffffffffffffffffff16815260200190815260200160002060008673ffffffffffffffffffffffffffffffffffffffff1673ffffffffffffffffffffffffffffffffffffffff168152602001908152602001600020819055505b8373ffffffffffffffffffffffffffffffffffffffff163373ffffffffffffffffffffffffffffffffffffffff167f8c5be1e5ebec7d5bd14f71427d1e84f3dd0314c0f7b2291e5b200ac8c7c3b9256000803373ffffffffffffffffffffffffffffffffffffffff1673ffffffffffffffffffffffffffffffffffffffff16815260200190815260200160002060008873ffffffffffffffffffffffffffffffffffffffff1673ffffffffffffffffffffffffffffffffffffffff168152602001908152602001600020546040518082815260200191505060405180910390a3600191505092915050565b600080600080600260009054906101000a900473ffffffffffffffffffffffffffffffffffffffff1673ffffffffffffffffffffffffffffffffffffffff163373ffffffffffffffffffffffffffffffffffffffff1614151561170c57600080fd5b601560009054906101000a900473ffffffffffffffffffffffffffffffffffffffff1673ffffffffffffffffffffffffffffffffffffffff168573ffffffffffffffffffffffffffffffffffffffff1614806117b55750601660009054906101000a900473ffffffffffffffffffffffffffffffffffffffff1673ffffffffffffffffffffffffffffffffffffffff168573ffffffffffffffffffffffffffffffffffffffff16145b8061180d5750601460009054906101000a900473ffffffffffffffffffffffffffffffffffffffff1673ffffffffffffffffffffffffffffffffffffffff168573ffffffffffffffffffffffffffffffffffffffff16145b15156118a7576040517f08c379a00000000000000000000000000000000000000000000000000000000081526004018080602001828103825260318152602001807f6f6e6c792074686520707269766174652c20707265206f72206d61696e20776181526020017f6c6c6574732061726520616c6c6f77656400000000000000000000000000000081525060400191505060405180910390fd5b6009549250601560009054906101000a900473ffffffffffffffffffffffffffffffffffffffff1673ffffffffffffffffffffffffffffffffffffffff168573ffffffffffffffffffffffffffffffffffffffff1614156119b15765016a1c25cb00915081611914612d08565b101515156119b0576040517f08c379a000000000000000000000000000000000000000000000000000000000815260040180806020018281038252602b8152602001807f63757272656e742074696d65206973206265666f72652074686520707674207281526020017f656c65617365206461746500000000000000000000000000000000000000000081525060400191505060405180910390fd5b5b601660009054906101000a900473ffffffffffffffffffffffffffffffffffffffff1673ffffffffffffffffffffffffffffffffffffffff168573ffffffffffffffffffffffffffffffffffffffff161415611ab65765016a1c25cb00905080611a19612d08565b10151515611ab5576040517f08c379a000000000000000000000000000000000000000000000000000000000815260040180806020018281038252602b8152602001807f63757272656e742074696d65206973206265666f72652074686520707265207281526020017f656c65617365206461746500000000000000000000000000000000000000000081525060400191505060405180910390fd5b5b611b0a600160008773ffffffffffffffffffffffffffffffffffffffff1673ffffffffffffffffffffffffffffffffffffffff1681526020019081526020016000205460095461354e90919063ffffffff16565b6009819055506000600160008773ffffffffffffffffffffffffffffffffffffffff1673ffffffffffffffffffffffffffffffffffffffff168152602001908152602001600020819055507f8a96e7229e5b018dff0425d91c96d3f7d93cae0b891ff020eef8b1686e1a6a1083600954604051808381526020018281526020019250505060405180910390a160019350505050919050565b6000600160008373ffffffffffffffffffffffffffffffffffffffff1673ffffffffffffffffffffffffffffffffffffffff168152602001908152602001600020549050919050565b600260009054906101000a900473ffffffffffffffffffffffffffffffffffffffff1673ffffffffffffffffffffffffffffffffffffffff163373ffffffffffffffffffffffffffffffffffffffff16141515611c4757600080fd5b600260009054906101000a900473ffffffffffffffffffffffffffffffffffffffff1673ffffffffffffffffffffffffffffffffffffffff167ff8df31144d9c2f0f6b59d69b8b98abd5459d07f2742c4df920b25aae33c6482060405160405180910390a26000600260006101000a81548173ffffffffffffffffffffffffffffffffffffffff021916908373ffffffffffffffffffffffffffffffffffffffff160217905550565b600260009054906101000a900473ffffffffffffffffffffffffffffffffffffffff1673ffffffffffffffffffffffffffffffffffffffff163373ffffffffffffffffffffffffffffffffffffffff16141515611d4c57600080fd5b601c60159054906101000a900460ff16151515611df7576040517f08c379a00000000000000000000000000000000000000000000000000000000081526004018080602001828103825260288152602001807f496e697469616c20616c6c6f636174696f6e2068617320616c7265616479206381526020017f6f6d706c6574656400000000000000000000000000000000000000000000000081525060400191505060405180910390fd5b611e25601560009054906101000a900473ffffffffffffffffffffffffffffffffffffffff16600b54613567565b50611e54601660009054906101000a900473ffffffffffffffffffffffffffffffffffffffff16600c54613567565b50611e96601a60009054906101000a900473ffffffffffffffffffffffffffffffffffffffff16611e916002600e5461380090919063ffffffff16565b613567565b50611ec5601960009054906101000a900473ffffffffffffffffffffffffffffffffffffffff16601054613567565b50611f0e601a60009054906101000a900473ffffffffffffffffffffffffffffffffffffffff16611f026002600e5461380090919063ffffffff16565b6501645a9573ab613816565b611f43601760009054906101000a900473ffffffffffffffffffffffffffffffffffffffff16600d546501645a9573ab613816565b611f78601860009054906101000a900473ffffffffffffffffffffffffffffffffffffffff16600f546501645ae1beeb613816565b6001601c60156101000a81548160ff0219169083151502179055507faefd3111c022c5b52cf1945083683f54633693d1b798b04c4631e4d5534f3d9a601c60159054906101000a900460ff16604051808215151515815260200191505060405180910390a1565b6000600260009054906101000a900473ffffffffffffffffffffffffffffffffffffffff1673ffffffffffffffffffffffffffffffffffffffff163373ffffffffffffffffffffffffffffffffffffffff1614151561203d57600080fd5b81601b60006101000a81548173ffffffffffffffffffffffffffffffffffffffff021916908373ffffffffffffffffffffffffffffffffffffffff16021790555060019050919050565b60105481565b6000600260009054906101000a900473ffffffffffffffffffffffffffffffffffffffff1673ffffffffffffffffffffffffffffffffffffffff163373ffffffffffffffffffffffffffffffffffffffff161415156120eb57600080fd5b81601c60006101000a81548173ffffffffffffffffffffffffffffffffffffffff021916908373ffffffffffffffffffffffffffffffffffffffff16021790555060019050919050565b600073ffffffffffffffffffffffffffffffffffffffff163373ffffffffffffffffffffffffffffffffffffffff161415151561217157600080fd5b601b60009054906101000a900473ffffffffffffffffffffffffffffffffffffffff1673ffffffffffffffffffffffffffffffffffffffff163373ffffffffffffffffffffffffffffffffffffffff16141515612236576040517f08c379a00000000000000000000000000000000000000000000000000000000081526004018080602001828103825260208152602001807f73656e646572206973206e6f742073756273657175656e74436f6e747261637481525060200191505060405180910390fd5b61224b816011546138ee90919063ffffffff16565b6011819055507f4014ce514c76bad08328a2a6046bac14007f7aad2c56c84c66acf8ca1c64bee860115482604051808381526020018281526020019250505060405180910390a150565b600260009054906101000a900473ffffffffffffffffffffffffffffffffffffffff1681565b601560009054906101000a900473ffffffffffffffffffffffffffffffffffffffff1681565b601c60009054906101000a900473ffffffffffffffffffffffffffffffffffffffff1681565b601a60009054906101000a900473ffffffffffffffffffffffffffffffffffffffff1681565b60048054600181600116156101000203166002900480601f0160208091040260200160405190810160405280929190818152602001828054600181600116156101000203166002900480156123c35780601f10612398576101008083540402835291602001916123c3565b820191906000526020600020905b8154815290600101906020018083116123a657829003601f168201915b505050505081565b601860009054906101000a900473ffffffffffffffffffffffffffffffffffffffff1681565b600f5481565b6000601c60149054906101000a900460ff16151561247d576040517f08c379a000000000000000000000000000000000000000000000000000000000815260040180806020018281038252601b8152602001807f63616e54726164652069732063757272656e746c792066616c7365000000000081525060200191505060405180910390fd5b6124878383613567565b905092915050565b601960009054906101000a900473ffffffffffffffffffffffffffffffffffffffff1681565b60008073ffffffffffffffffffffffffffffffffffffffff163373ffffffffffffffffffffffffffffffffffffffff16141515156124f257600080fd5b601760009054906101000a900473ffffffffffffffffffffffffffffffffffffffff1673ffffffffffffffffffffffffffffffffffffffff163373ffffffffffffffffffffffffffffffffffffffff16148061259b5750601860009054906101000a900473ffffffffffffffffffffffffffffffffffffffff1673ffffffffffffffffffffffffffffffffffffffff163373ffffffffffffffffffffffffffffffffffffffff16145b806125f35750601a60009054906101000a900473ffffffffffffffffffffffffffffffffffffffff1673ffffffffffffffffffffffffffffffffffffffff163373ffffffffffffffffffffffffffffffffffffffff16145b151561268d576040517f08c379a00000000000000000000000000000000000000000000000000000000081526004018080602001828103825260308152602001807f416e20756e617574686f72697365642077616c6c657420747269656420746f2081526020017f63616c6c2074686973206d6574686f640000000000000000000000000000000081525060400191505060405180910390fd5b601d60003373ffffffffffffffffffffffffffffffffffffffff1673ffffffffffffffffffffffffffffffffffffffff168152602001908152602001600020600101546126d8612d08565b10151515612774576040517f08c379a00000000000000000000000000000000000000000000000000000000081526004018080602001828103825260328152602001807f5468652063757272656e742077616c6c65747320657363726f7720706572696f81526020017f64206861732079657420746f206c61707365000000000000000000000000000081525060400191505060405180910390fd5b601d60003373ffffffffffffffffffffffffffffffffffffffff1673ffffffffffffffffffffffffffffffffffffffff1681526020019081526020016000206000015490506000601d60003373ffffffffffffffffffffffffffffffffffffffff1673ffffffffffffffffffffffffffffffffffffffff16815260200190815260200160002060000154111515612899576040517f08c379a000000000000000000000000000000000000000000000000000000000815260040180806020018281038252602e8152602001807f546869732077616c6c65747320657363726f772062616c616e6365206973206e81526020017f6f74206d6f7265207468616e203000000000000000000000000000000000000081525060400191505060405180910390fd5b601d60003373ffffffffffffffffffffffffffffffffffffffff1673ffffffffffffffffffffffffffffffffffffffff168152602001908152602001600020600001546013541015151561297b576040517f08c379a00000000000000000000000000000000000000000000000000000000081526004018080602001828103825260298152602001807f74686520616d6f756e7420696e20657363726f77206973206d6f72652074686181526020017f6e20616c6c6f776564000000000000000000000000000000000000000000000081525060400191505060405180910390fd5b6000601d60003373ffffffffffffffffffffffffffffffffffffffff1673ffffffffffffffffffffffffffffffffffffffff168152602001908152602001600020600001819055506129d88160135461354e90919063ffffffff16565b60138190555080600160003373ffffffffffffffffffffffffffffffffffffffff1673ffffffffffffffffffffffffffffffffffffffff168152602001908152602001600020819055507fddf252ad1be2c89b69c2b068fc378daa952ba7f163c4a11628f55a4df523b3ef60003383604051808473ffffffffffffffffffffffffffffffffffffffff1681526020018373ffffffffffffffffffffffffffffffffffffffff1673ffffffffffffffffffffffffffffffffffffffff168152602001828152602001935050505060405180910390a150565b600a5481565b60115481565b601b60009054906101000a900473ffffffffffffffffffffffffffffffffffffffff1681565b60008073ffffffffffffffffffffffffffffffffffffffff163373ffffffffffffffffffffffffffffffffffffffff1614151515612b1e57600080fd5b601b60009054906101000a900473ffffffffffffffffffffffffffffffffffffffff1673ffffffffffffffffffffffffffffffffffffffff163373ffffffffffffffffffffffffffffffffffffffff16141515612be3576040517f08c379a00000000000000000000000000000000000000000000000000000000081526004018080602001828103825260208152602001807f73656e646572206973206e6f742073756273657175656e74436f6e747261637481525060200191505060405180910390fd5b612bf8826009546138ee90919063ffffffff16565b600981905550612c5082600160008673ffffffffffffffffffffffffffffffffffffffff1673ffffffffffffffffffffffffffffffffffffffff168152602001908152602001600020546138ee90919063ffffffff16565b600160008573ffffffffffffffffffffffffffffffffffffffff1673ffffffffffffffffffffffffffffffffffffffff168152602001908152602001600020819055507f1c05c5a0f14825979ec88d9c7fa06bdf74c193719fc4d013ebbbbf9183622bdf8284604051808381526020018273ffffffffffffffffffffffffffffffffffffffff1673ffffffffffffffffffffffffffffffffffffffff1681526020019250505060405180910390a16001905092915050565b60006103e84202905090565b6000612da4826000803373ffffffffffffffffffffffffffffffffffffffff1673ffffffffffffffffffffffffffffffffffffffff16815260200190815260200160002060008673ffffffffffffffffffffffffffffffffffffffff1673ffffffffffffffffffffffffffffffffffffffff168152602001908152602001600020546138ee90919063ffffffff16565b6000803373ffffffffffffffffffffffffffffffffffffffff1673ffffffffffffffffffffffffffffffffffffffff16815260200190815260200160002060008573ffffffffffffffffffffffffffffffffffffffff1673ffffffffffffffffffffffffffffffffffffffff168152602001908152602001600020819055508273ffffffffffffffffffffffffffffffffffffffff163373ffffffffffffffffffffffffffffffffffffffff167f8c5be1e5ebec7d5bd14f71427d1e84f3dd0314c0f7b2291e5b200ac8c7c3b9256000803373ffffffffffffffffffffffffffffffffffffffff1673ffffffffffffffffffffffffffffffffffffffff16815260200190815260200160002060008773ffffffffffffffffffffffffffffffffffffffff1673ffffffffffffffffffffffffffffffffffffffff168152602001908152602001600020546040518082815260200191505060405180910390a36001905092915050565b601660009054906101000a900473ffffffffffffffffffffffffffffffffffffffff1681565b60008060008473ffffffffffffffffffffffffffffffffffffffff1673ffffffffffffffffffffffffffffffffffffffff16815260200190815260200160002060008373ffffffffffffffffffffffffffffffffffffffff1673ffffffffffffffffffffffffffffffffffffffff16815260200190815260200160002054905092915050565b600e5481565b600b5481565b600260009054906101000a900473ffffffffffffffffffffffffffffffffffffffff1673ffffffffffffffffffffffffffffffffffffffff163373ffffffffffffffffffffffffffffffffffffffff1614151561302157600080fd5b600073ffffffffffffffffffffffffffffffffffffffff168173ffffffffffffffffffffffffffffffffffffffff161415151561305d57600080fd5b8073ffffffffffffffffffffffffffffffffffffffff16600260009054906101000a900473ffffffffffffffffffffffffffffffffffffffff1673ffffffffffffffffffffffffffffffffffffffff167f8be0079c531659141344cd1fd0a4f28419497f9722a3daafe3b4186f6b6457e060405160405180910390a380600260006101000a81548173ffffffffffffffffffffffffffffffffffffffff021916908373ffffffffffffffffffffffffffffffffffffffff16021790555050565b60008073ffffffffffffffffffffffffffffffffffffffff168373ffffffffffffffffffffffffffffffffffffffff161415151561315a57600080fd5b3073ffffffffffffffffffffffffffffffffffffffff168373ffffffffffffffffffffffffffffffffffffffff161415151561319557600080fd5b600160008573ffffffffffffffffffffffffffffffffffffffff1673ffffffffffffffffffffffffffffffffffffffff1681526020019081526020016000205482111515156131e357600080fd5b6000808573ffffffffffffffffffffffffffffffffffffffff1673ffffffffffffffffffffffffffffffffffffffff16815260200190815260200160002060003373ffffffffffffffffffffffffffffffffffffffff1673ffffffffffffffffffffffffffffffffffffffff16815260200190815260200160002054821115151561326d57600080fd5b6132bf82600160008773ffffffffffffffffffffffffffffffffffffffff1673ffffffffffffffffffffffffffffffffffffffff1681526020019081526020016000205461354e90919063ffffffff16565b600160008673ffffffffffffffffffffffffffffffffffffffff1673ffffffffffffffffffffffffffffffffffffffff1681526020019081526020016000208190555061335482600160008673ffffffffffffffffffffffffffffffffffffffff1673ffffffffffffffffffffffffffffffffffffffff168152602001908152602001600020546138ee90919063ffffffff16565b600160008573ffffffffffffffffffffffffffffffffffffffff1673ffffffffffffffffffffffffffffffffffffffff16815260200190815260200160002081905550613425826000808773ffffffffffffffffffffffffffffffffffffffff1673ffffffffffffffffffffffffffffffffffffffff16815260200190815260200160002060003373ffffffffffffffffffffffffffffffffffffffff1673ffffffffffffffffffffffffffffffffffffffff1681526020019081526020016000205461354e90919063ffffffff16565b6000808673ffffffffffffffffffffffffffffffffffffffff1673ffffffffffffffffffffffffffffffffffffffff16815260200190815260200160002060003373ffffffffffffffffffffffffffffffffffffffff1673ffffffffffffffffffffffffffffffffffffffff168152602001908152602001600020819055507fddf252ad1be2c89b69c2b068fc378daa952ba7f163c4a11628f55a4df523b3ef848484604051808473ffffffffffffffffffffffffffffffffffffffff1673ffffffffffffffffffffffffffffffffffffffff1681526020018373ffffffffffffffffffffffffffffffffffffffff1673ffffffffffffffffffffffffffffffffffffffff168152602001828152602001935050505060405180910390a1600190509392505050565b600082821115151561355c57fe5b818303905092915050565b60008073ffffffffffffffffffffffffffffffffffffffff168373ffffffffffffffffffffffffffffffffffffffff16141515156135a457600080fd5b3073ffffffffffffffffffffffffffffffffffffffff168373ffffffffffffffffffffffffffffffffffffffff16141515156135df57600080fd5b600160003373ffffffffffffffffffffffffffffffffffffffff1673ffffffffffffffffffffffffffffffffffffffff16815260200190815260200160002054821115151561362d57600080fd5b61367f82600160003373ffffffffffffffffffffffffffffffffffffffff1673ffffffffffffffffffffffffffffffffffffffff1681526020019081526020016000205461354e90919063ffffffff16565b600160003373ffffffffffffffffffffffffffffffffffffffff1673ffffffffffffffffffffffffffffffffffffffff1681526020019081526020016000208190555061371482600160008673ffffffffffffffffffffffffffffffffffffffff1673ffffffffffffffffffffffffffffffffffffffff168152602001908152602001600020546138ee90919063ffffffff16565b600160008573ffffffffffffffffffffffffffffffffffffffff1673ffffffffffffffffffffffffffffffffffffffff168152602001908152602001600020819055507fddf252ad1be2c89b69c2b068fc378daa952ba7f163c4a11628f55a4df523b3ef338484604051808473ffffffffffffffffffffffffffffffffffffffff1673ffffffffffffffffffffffffffffffffffffffff1681526020018373ffffffffffffffffffffffffffffffffffffffff1673ffffffffffffffffffffffffffffffffffffffff168152602001828152602001935050505060405180910390a16001905092915050565b6000818381151561380d57fe5b04905092915050565b61381e61390a565b600260009054906101000a900473ffffffffffffffffffffffffffffffffffffffff1673ffffffffffffffffffffffffffffffffffffffff163373ffffffffffffffffffffffffffffffffffffffff1614151561387a57600080fd5b604080519081016040528084815260200183815250905080601d60008673ffffffffffffffffffffffffffffffffffffffff1673ffffffffffffffffffffffffffffffffffffffff168152602001908152602001600020600082015181600001556020820151816001015590505050505050565b6000818301905082811015151561390157fe5b80905092915050565b6040805190810160405280600081526020016000815250905600a165627a7a723058203b2d0f9886100ef1cad07e6173f456eb847b235aac97460910883617f20cee090029",
  "source": "pragma solidity ^0.4.23;\n\nimport \"./FoundationContracts/BaseToken.sol\";\nimport \"./FoundationContracts/Ownable.sol\";\n\ncontract TSD is BaseToken, Ownable {\n    using SafeMath for uint256;\n\n    string public name = \"TSD COIN\";\n    string public symbol = \"TSD\";\n    uint256 public decimals = 18;\n\n    // Helper value from 1 million and 1 thousand\n    uint256 public decimalMultiplier = uint256(10) ** decimals;\n    uint256 public million = 1000000 * decimalMultiplier;\n    uint256 public thousand = 1000 * decimalMultiplier;\n\n    // Allocations\n    uint256 public totalSupply = 600 * million;\n    uint256 public mainTokenSupply = 96 * million;\n    uint256 public pvtSaleSupply = 144 * million;\n    uint256 public preSaleSupply = 240 * million;\n    uint256 public foundersAndAdvisorsAllocation = 48 * million;\n    uint256 public projectImplementationServicesAllocation = 12 * million;\n    uint256 public bountyCommunityIncentivesAllocation = 42 * million;\n    uint256 public liquidityProgramAllocation = 18 * million;\n    uint256 public totalEthRaised = 0;\n\n    // distributions\n    uint256 private distributionAllocation = mainTokenSupply.add(preSaleSupply).add(pvtSaleSupply);\n    uint256 private remainingDistributionAfterInitAllocation = totalSupply.sub(distributionAllocation).sub(liquidityProgramAllocation).sub(projectImplementationServicesAllocation.div(2));\n\n    // Wallets\n    address public fundsWallet;\n    address public pvtSaleTokenWallet;\n    address public preSaleTokenWallet;\n\n    // Addresses for services and founders\n    address public foundersAndAdvisors;\n    address public bountyCommunityIncentives;\n    address public liquidityProgram;\n    address public projectImplementationServices;\n\n    // SubsequentContract Address\n    address public subsequentContract;\n\n    // authorisedContract Address\n    address public authorisedContract;\n\n    // Token tradability toggle\n    bool public canTrade = false;\n\n    // initializationCall\n    bool private isInitialAllocationDone = false;\n\n    // team wallets escrow structs\n    struct TokenGrant {\n        uint256 amount;\n        uint256 cliffTime;\n    }\n\n    // team wallets escrow mapping\n    mapping (address => TokenGrant) internal escrowBalances;\n\n    // events\n    event EthRaisedUpdated(uint256 oldEthRaisedVal, uint256 newEthRaisedVal);\n    event UpdatedTotalSupply(uint256 oldSupply, uint256 newSupply);\n    event TradingStatus(bool status);\n    event InitalTokenAllocation(bool allocationStatus);\n    event IncreaseTotalSupply(uint256 additionalSupply, address _newMintedTokensWallet);\n\n    constructor(\n        address _pvtSaleTokenWallet,\n        address _preSaleTokenWallet,\n        address _foundersAndAdvisors,\n        address _bountyCommunityIncentives,\n        address _liquidityProgram,\n        address _projectImplementationServices\n    ) public {\n        fundsWallet = owner;\n        pvtSaleTokenWallet = _pvtSaleTokenWallet;\n        preSaleTokenWallet = _preSaleTokenWallet;\n        foundersAndAdvisors = _foundersAndAdvisors;\n        bountyCommunityIncentives = _bountyCommunityIncentives;\n        liquidityProgram = _liquidityProgram;\n        projectImplementationServices = _projectImplementationServices;\n\n        // transfer total tradeable suppy to the funds wallet\n        // Private, Presale and Mainsale token amount\n        // + liquidityProgram + projectImplementationServices/2\n        // = 504 M tokens\n        balances[fundsWallet] = distributionAllocation.add(liquidityProgramAllocation).add(projectImplementationServicesAllocation.div(2));\n        emit Transfer(0x0, fundsWallet, balances[fundsWallet]);\n    }\n\n    function contractInitialAllocation() external onlyOwner {\n        // require the initialAllocationDone to be false, as it can only be called once \n        require(!isInitialAllocationDone, \"Initial allocation has already completed\");\n\n        // Transfer all of the allocations\n        // The inherited transfer method from the BaseToken\n        // emits Transfer events and subtracts/adds respective\n        // amounts to respective accounts\n        // transfer tokens to account for the private sale\n        super.transfer(pvtSaleTokenWallet, pvtSaleSupply);\n\n        // transfer tokens to account for the pre sale\n        super.transfer(preSaleTokenWallet, preSaleSupply);\n\n        // tranfer tokens to the projectImplementationServices wallet\n        super.transfer(projectImplementationServices, projectImplementationServicesAllocation.div(2));\n\n        // transfer tokens to the liquidity program account\n        super.transfer(liquidityProgram, liquidityProgramAllocation);\n\n        // escrow tokens to projectImplementationServices account\n        escrowAccountAllocation(projectImplementationServices, projectImplementationServicesAllocation.div(2), 1530528101291);\n\n        // escrow tokens to founders account\n        escrowAccountAllocation(foundersAndAdvisors, foundersAndAdvisorsAllocation, 1530528101291);\n\n        // escrow tokens to bounty and community incentives account\n        escrowAccountAllocation(bountyCommunityIncentives, bountyCommunityIncentivesAllocation, 1530533101291);\n\n        // set the initialAllocationDone value to true\n        isInitialAllocationDone = true;\n        emit InitalTokenAllocation(isInitialAllocationDone);\n    }\n\n    function escrowAccountAllocation(address _targetAddress, uint256 _amount, uint256 _cliffTime) internal onlyOwner {\n        TokenGrant memory newGrant = TokenGrant({\n            amount: _amount,\n            cliffTime: _cliffTime\n        });\n\n        escrowBalances[_targetAddress] = newGrant;\n    }\n\n    function withdrawFromEscrow() external isEscrowedWallet {\n        // ensure that the calling wallet is calling at/after its elasped cliffTime\n        require(currentTime() >= escrowBalances[msg.sender].cliffTime, \"The current wallets escrow period has yet to lapse\");\n        uint256 amountToWithdraw = escrowBalances[msg.sender].amount;\n        \n        // ensure the sender has not already withdrawn\n        require(escrowBalances[msg.sender].amount > 0, \"This wallets escrow balance is not more than 0\");\n        // ensure no more than the initial supply is ever allocated\n        // remainingDistribution should at maximum ever be the sum of distributionAllocation + foundersAndAdvisorsAllocation + bountyCommunityIncentivesAllocation\n        require(remainingDistributionAfterInitAllocation >= escrowBalances[msg.sender].amount, \"the amount in escrow is more than allowed\");\n\n        // set the senders escrow to 0\n        escrowBalances[msg.sender].amount = 0;\n\n        // reduce the remainingDistributionAfterInitAllocation by the amount in escrow for the caller wallet\n        remainingDistributionAfterInitAllocation = remainingDistributionAfterInitAllocation.sub(amountToWithdraw);\n\n        // allocate the sender with their respective escrowed amount\n        balances[msg.sender] = amountToWithdraw;\n        emit Transfer(0x0, msg.sender, amountToWithdraw);\n    }\n \n    // Contract utility functions\n    function currentTime() public view returns (uint256) {\n        return now * 1000;\n    }\n\n    // Toggles the trading ability of TSD\n    function toggleTrading() external onlyOwner {\n      canTrade = !canTrade;\n      emit TradingStatus(canTrade);\n    }\n\n    // Ability to burn tokens but only from the private pre or main sale contracts\n    function burnRemainingTokensAfterClose(address _address) external onlyOwner returns (bool) {\n        require(_address == pvtSaleTokenWallet || _address == preSaleTokenWallet || _address == fundsWallet, \"only the private, pre or main wallets are allowed\");\n\n        uint256 oldSupply = totalSupply;\n\n        if(_address == pvtSaleTokenWallet){\n          // TODO: end time needs to be decided.\n          // PVT escrow ends 6 months after main tsd ico closes\n          uint256 pvtReleaseDate = 1555250400000;\n          require(currentTime() >= pvtReleaseDate, \"current time is before the pvt release date\");\n        }\n        if(_address == preSaleTokenWallet){\n          // TODO: end time needs to be decided.\n          // PRE escrow ends 12 months after main tsd ico closes\n          uint256 preReleaseDate = 1555250400000;\n          require(currentTime() >= preReleaseDate, \"current time is before the pre release date\");\n        }\n        // burn unsold tokens and reduce total supply for TSD\n        totalSupply = totalSupply.sub(balances[_address]);\n        balances[_address] = 0;\n        emit UpdatedTotalSupply(oldSupply, totalSupply);\n\n        return true;\n    }\n\n    // ERC20 function wrappers\n    function transfer(address _to, uint256 _tokens) public returns (bool) {\n        // canTrade ensures trading can only occur when approved by TSD owners\n        require(canTrade, \"canTrade is currently false\");\n        return (super.transfer(_to, _tokens));\n    }\n\n    function transferFrom(address _from, address _to, uint256 _value) public returns (bool) {\n        require(canTrade, \"canTrade is currently false\");\n        return (super.transferFrom(_from, _to, _value));\n    }\n\n    // crowdsale functions\n    // sets the crowndsale contract address or airdrop / designed to be used by any one external contract\n    function setAuthorisedContractAddress(address _contractAddress) external onlyOwner returns (bool) {\n        authorisedContract = _contractAddress;\n        return true;\n    }\n\n    // ERC20 function only called by crowdsale\n    // transfer & transferFrom used in this contract have a `canTrade` restriction\n    function safeTransferFrom(address _from, address _to, uint256 _value) external isAuthorisedContract returns (bool) {\n        // make transferFrom a safe method - reverting failed transfers\n        require(super.transferFrom(_from, _to, _value), \"could not safely transfer from authorised contract\");\n        return true;\n    }\n\n    // Subsequent supply functions\n    function setSubsequentContract(address _contractAddress) external onlyOwner returns (bool) {\n        subsequentContract = _contractAddress;\n        return true;\n    }\n\n    function increaseTotalSupplyAndAllocateTokens(address _newTokensWallet, uint256 _amount) external isSubsequentContract returns (bool) {\n        totalSupply = totalSupply.add(_amount);\n        balances[_newTokensWallet] = balances[_newTokensWallet].add(_amount);\n        emit IncreaseTotalSupply(_amount, _newTokensWallet);\n        return true;\n    }\n\n    function increaseEthRaisedBySubsequentSale(uint256 _amount) external isSubsequentContract {\n        totalEthRaised = totalEthRaised.add(_amount);\n        emit EthRaisedUpdated(totalEthRaised, _amount);\n    }\n\n     // modifiers\n    modifier isSubsequentContract() {\n        require(msg.sender != address(0));\n        require(msg.sender == subsequentContract, \"sender is not subsequentContract\");\n        _;\n    }\n\n    modifier isAuthorisedContract() {\n        require(msg.sender != address(0));\n        require(msg.sender == authorisedContract, \"sender is not authorisedContract\");\n        _;\n    }\n\n    modifier isEscrowedWallet() {\n        require(msg.sender != address(0));\n        // ensure it is only called by the two escrowed wallets\n        require(msg.sender == foundersAndAdvisors || msg.sender == bountyCommunityIncentives || msg.sender == projectImplementationServices, \"An unauthorised wallet tried to call this method\");\n        _;\n    }\n}\n",
  "sourcePath": "/Users/venkateshnamburi/Desktop/521 2/Projects/Transcendence/tsd_contracts/contracts/TSD.sol",
  "compiler": {
    "name": "solc",
    "version": "0.4.24+commit.e67f0147.Emscripten.clang"
  },
  "schemaVersion": "2.0.0",
  "updatedAt": "2018-11-06T11:09:20.230Z"
}