{
  "contractName": "TSD",
  "abi": [
    {
      "constant": true,
      "inputs": [],
      "name": "name",
      "outputs": [
        {
          "name": "",
          "type": "string"
        }
      ],
      "payable": false,
      "stateMutability": "view",
      "type": "function"
    },
    {
      "constant": false,
      "inputs": [
        {
          "name": "_spender",
          "type": "address"
        },
        {
          "name": "_value",
          "type": "uint256"
        }
      ],
      "name": "approve",
      "outputs": [
        {
          "name": "",
          "type": "bool"
        }
      ],
      "payable": false,
      "stateMutability": "nonpayable",
      "type": "function"
    },
    {
      "constant": true,
      "inputs": [],
      "name": "foundersAndAdvisors",
      "outputs": [
        {
          "name": "",
          "type": "address"
        }
      ],
      "payable": false,
      "stateMutability": "view",
      "type": "function"
    },
    {
      "constant": true,
      "inputs": [],
      "name": "totalSupply",
      "outputs": [
        {
          "name": "",
          "type": "uint256"
        }
      ],
      "payable": false,
      "stateMutability": "view",
      "type": "function"
    },
    {
      "constant": true,
      "inputs": [],
      "name": "fundsWallet",
      "outputs": [
        {
          "name": "",
          "type": "address"
        }
      ],
      "payable": false,
      "stateMutability": "view",
      "type": "function"
    },
    {
      "constant": true,
      "inputs": [],
      "name": "preSaleSupply",
      "outputs": [
        {
          "name": "",
          "type": "uint256"
        }
      ],
      "payable": false,
      "stateMutability": "view",
      "type": "function"
    },
    {
      "constant": true,
      "inputs": [],
      "name": "decimalMultiplier",
      "outputs": [
        {
          "name": "",
          "type": "uint256"
        }
      ],
      "payable": false,
      "stateMutability": "view",
      "type": "function"
    },
    {
      "constant": true,
      "inputs": [],
      "name": "decimals",
      "outputs": [
        {
          "name": "",
          "type": "uint256"
        }
      ],
      "payable": false,
      "stateMutability": "view",
      "type": "function"
    },
    {
      "constant": true,
      "inputs": [],
      "name": "endTime",
      "outputs": [
        {
          "name": "",
          "type": "uint256"
        }
      ],
      "payable": false,
      "stateMutability": "view",
      "type": "function"
    },
    {
      "constant": true,
      "inputs": [],
      "name": "minPurchase",
      "outputs": [
        {
          "name": "",
          "type": "uint256"
        }
      ],
      "payable": false,
      "stateMutability": "view",
      "type": "function"
    },
    {
      "constant": true,
      "inputs": [],
      "name": "exchangeRate",
      "outputs": [
        {
          "name": "",
          "type": "uint256"
        }
      ],
      "payable": false,
      "stateMutability": "view",
      "type": "function"
    },
    {
      "constant": true,
      "inputs": [],
      "name": "foundersAndAdvisorsAllocation",
      "outputs": [
        {
          "name": "",
          "type": "uint256"
        }
      ],
      "payable": false,
      "stateMutability": "view",
      "type": "function"
    },
    {
      "constant": true,
      "inputs": [],
      "name": "million",
      "outputs": [
        {
          "name": "",
          "type": "uint256"
        }
      ],
      "payable": false,
      "stateMutability": "view",
      "type": "function"
    },
    {
      "constant": true,
      "inputs": [],
      "name": "thousand",
      "outputs": [
        {
          "name": "",
          "type": "uint256"
        }
      ],
      "payable": false,
      "stateMutability": "view",
      "type": "function"
    },
    {
      "constant": false,
      "inputs": [
        {
          "name": "_spender",
          "type": "address"
        },
        {
          "name": "_subtractedValue",
          "type": "uint256"
        }
      ],
      "name": "decreaseApproval",
      "outputs": [
        {
          "name": "",
          "type": "bool"
        }
      ],
      "payable": false,
      "stateMutability": "nonpayable",
      "type": "function"
    },
    {
      "constant": true,
      "inputs": [
        {
          "name": "_owner",
          "type": "address"
        }
      ],
      "name": "balanceOf",
      "outputs": [
        {
          "name": "",
          "type": "uint256"
        }
      ],
      "payable": false,
      "stateMutability": "view",
      "type": "function"
    },
    {
      "constant": false,
      "inputs": [],
      "name": "renounceOwnership",
      "outputs": [],
      "payable": false,
      "stateMutability": "nonpayable",
      "type": "function"
    },
    {
      "constant": true,
      "inputs": [],
      "name": "startTime",
      "outputs": [
        {
          "name": "",
          "type": "uint256"
        }
      ],
      "payable": false,
      "stateMutability": "view",
      "type": "function"
    },
    {
      "constant": true,
      "inputs": [],
      "name": "liquidityProgramAllocation",
      "outputs": [
        {
          "name": "",
          "type": "uint256"
        }
      ],
      "payable": false,
      "stateMutability": "view",
      "type": "function"
    },
    {
      "constant": true,
      "inputs": [],
      "name": "owner",
      "outputs": [
        {
          "name": "",
          "type": "address"
        }
      ],
      "payable": false,
      "stateMutability": "view",
      "type": "function"
    },
    {
      "constant": true,
      "inputs": [],
      "name": "pvtSaleTokenWallet",
      "outputs": [
        {
          "name": "",
          "type": "address"
        }
      ],
      "payable": false,
      "stateMutability": "view",
      "type": "function"
    },
    {
      "constant": true,
      "inputs": [],
      "name": "icoOpen",
      "outputs": [
        {
          "name": "",
          "type": "bool"
        }
      ],
      "payable": false,
      "stateMutability": "view",
      "type": "function"
    },
    {
      "constant": true,
      "inputs": [],
      "name": "symbol",
      "outputs": [
        {
          "name": "",
          "type": "string"
        }
      ],
      "payable": false,
      "stateMutability": "view",
      "type": "function"
    },
    {
      "constant": true,
      "inputs": [],
      "name": "bountyCommunityIncentives",
      "outputs": [
        {
          "name": "",
          "type": "address"
        }
      ],
      "payable": false,
      "stateMutability": "view",
      "type": "function"
    },
    {
      "constant": true,
      "inputs": [],
      "name": "bountyCommunityIncentivesAllocation",
      "outputs": [
        {
          "name": "",
          "type": "uint256"
        }
      ],
      "payable": false,
      "stateMutability": "view",
      "type": "function"
    },
    {
      "constant": true,
      "inputs": [],
      "name": "liquidityProgram",
      "outputs": [
        {
          "name": "",
          "type": "address"
        }
      ],
      "payable": false,
      "stateMutability": "view",
      "type": "function"
    },
    {
      "constant": true,
      "inputs": [],
      "name": "totalEthRaised",
      "outputs": [
        {
          "name": "",
          "type": "uint256"
        }
      ],
      "payable": false,
      "stateMutability": "view",
      "type": "function"
    },
    {
      "constant": true,
      "inputs": [],
      "name": "subsequentContract",
      "outputs": [
        {
          "name": "",
          "type": "address"
        }
      ],
      "payable": false,
      "stateMutability": "view",
      "type": "function"
    },
    {
      "constant": false,
      "inputs": [
        {
          "name": "_spender",
          "type": "address"
        },
        {
          "name": "_addedValue",
          "type": "uint256"
        }
      ],
      "name": "increaseApproval",
      "outputs": [
        {
          "name": "",
          "type": "bool"
        }
      ],
      "payable": false,
      "stateMutability": "nonpayable",
      "type": "function"
    },
    {
      "constant": true,
      "inputs": [],
      "name": "preSaleTokenWallet",
      "outputs": [
        {
          "name": "",
          "type": "address"
        }
      ],
      "payable": false,
      "stateMutability": "view",
      "type": "function"
    },
    {
      "constant": true,
      "inputs": [
        {
          "name": "_owner",
          "type": "address"
        },
        {
          "name": "_spender",
          "type": "address"
        }
      ],
      "name": "allowance",
      "outputs": [
        {
          "name": "",
          "type": "uint256"
        }
      ],
      "payable": false,
      "stateMutability": "view",
      "type": "function"
    },
    {
      "constant": true,
      "inputs": [],
      "name": "pvtSaleSupply",
      "outputs": [
        {
          "name": "",
          "type": "uint256"
        }
      ],
      "payable": false,
      "stateMutability": "view",
      "type": "function"
    },
    {
      "constant": false,
      "inputs": [
        {
          "name": "newOwner",
          "type": "address"
        }
      ],
      "name": "transferOwnership",
      "outputs": [],
      "payable": false,
      "stateMutability": "nonpayable",
      "type": "function"
    },
    {
      "constant": true,
      "inputs": [
        {
          "name": "",
          "type": "address"
        }
      ],
      "name": "whiteListed",
      "outputs": [
        {
          "name": "",
          "type": "bool"
        }
      ],
      "payable": false,
      "stateMutability": "view",
      "type": "function"
    },
    {
      "inputs": [
        {
          "name": "_exchangeRate",
          "type": "uint256"
        },
        {
          "name": "_whitelistAddresses",
          "type": "address[]"
        },
        {
          "name": "_pvtSaleTokenWallet",
          "type": "address"
        },
        {
          "name": "_preSaleTokenWallet",
          "type": "address"
        },
        {
          "name": "_foundersAndAdvisors",
          "type": "address"
        },
        {
          "name": "_bountyCommunityIncentives",
          "type": "address"
        },
        {
          "name": "_liquidityProgram",
          "type": "address"
        }
      ],
      "payable": false,
      "stateMutability": "nonpayable",
      "type": "constructor"
    },
    {
      "payable": true,
      "stateMutability": "payable",
      "type": "fallback"
    },
    {
      "anonymous": false,
      "inputs": [
        {
          "indexed": false,
          "name": "oldEthRaisedVal",
          "type": "uint256"
        },
        {
          "indexed": false,
          "name": "newEthRaisedVal",
          "type": "uint256"
        }
      ],
      "name": "EthRaisedUpdated",
      "type": "event"
    },
    {
      "anonymous": false,
      "inputs": [
        {
          "indexed": false,
          "name": "prevExchangeRate",
          "type": "uint256"
        },
        {
          "indexed": false,
          "name": "newExchangeRate",
          "type": "uint256"
        }
      ],
      "name": "ExhangeRateUpdated",
      "type": "event"
    },
    {
      "anonymous": false,
      "inputs": [
        {
          "indexed": false,
          "name": "variable",
          "type": "string"
        },
        {
          "indexed": false,
          "name": "value",
          "type": "uint256"
        }
      ],
      "name": "Debugger",
      "type": "event"
    },
    {
      "anonymous": false,
      "inputs": [
        {
          "indexed": false,
          "name": "variable",
          "type": "string"
        }
      ],
      "name": "DebugStrings",
      "type": "event"
    },
    {
      "anonymous": false,
      "inputs": [
        {
          "indexed": false,
          "name": "name",
          "type": "string"
        },
        {
          "indexed": false,
          "name": "_address",
          "type": "address"
        }
      ],
      "name": "DebugAddress",
      "type": "event"
    },
    {
      "anonymous": false,
      "inputs": [
        {
          "indexed": true,
          "name": "previousOwner",
          "type": "address"
        }
      ],
      "name": "OwnershipRenounced",
      "type": "event"
    },
    {
      "anonymous": false,
      "inputs": [
        {
          "indexed": true,
          "name": "previousOwner",
          "type": "address"
        },
        {
          "indexed": true,
          "name": "newOwner",
          "type": "address"
        }
      ],
      "name": "OwnershipTransferred",
      "type": "event"
    },
    {
      "anonymous": false,
      "inputs": [
        {
          "indexed": true,
          "name": "owner",
          "type": "address"
        },
        {
          "indexed": true,
          "name": "spender",
          "type": "address"
        },
        {
          "indexed": false,
          "name": "value",
          "type": "uint256"
        }
      ],
      "name": "Approval",
      "type": "event"
    },
    {
      "anonymous": false,
      "inputs": [
        {
          "indexed": false,
          "name": "from",
          "type": "address"
        },
        {
          "indexed": false,
          "name": "to",
          "type": "address"
        },
        {
          "indexed": false,
          "name": "value",
          "type": "uint256"
        }
      ],
      "name": "Transfer",
      "type": "event"
    },
    {
      "anonymous": false,
      "inputs": [
        {
          "indexed": false,
          "name": "variable",
          "type": "string"
        },
        {
          "indexed": false,
          "name": "value",
          "type": "uint256"
        }
      ],
      "name": "DebuggingAmts",
      "type": "event"
    },
    {
      "anonymous": false,
      "inputs": [
        {
          "indexed": false,
          "name": "variable",
          "type": "string"
        }
      ],
      "name": "DebuggingStrings",
      "type": "event"
    },
    {
      "anonymous": false,
      "inputs": [
        {
          "indexed": false,
          "name": "variable",
          "type": "string"
        },
        {
          "indexed": false,
          "name": "value",
          "type": "address"
        }
      ],
      "name": "DebuggingAddresses",
      "type": "event"
    },
    {
      "constant": true,
      "inputs": [],
      "name": "currentTime",
      "outputs": [
        {
          "name": "",
          "type": "uint256"
        }
      ],
      "payable": false,
      "stateMutability": "view",
      "type": "function"
    },
    {
      "constant": false,
      "inputs": [
        {
          "name": "_addresses",
          "type": "address[]"
        }
      ],
      "name": "createWhiteListedMapping",
      "outputs": [],
      "payable": false,
      "stateMutability": "nonpayable",
      "type": "function"
    },
    {
      "constant": true,
      "inputs": [
        {
          "name": "_address",
          "type": "address"
        }
      ],
      "name": "isWhiteListed",
      "outputs": [
        {
          "name": "",
          "type": "bool"
        }
      ],
      "payable": false,
      "stateMutability": "view",
      "type": "function"
    },
    {
      "constant": false,
      "inputs": [
        {
          "name": "_newAddress",
          "type": "address"
        }
      ],
      "name": "changeOracleAddress",
      "outputs": [],
      "payable": false,
      "stateMutability": "nonpayable",
      "type": "function"
    },
    {
      "constant": false,
      "inputs": [
        {
          "name": "_newRate",
          "type": "uint256"
        }
      ],
      "name": "updateTheExchangeRate",
      "outputs": [
        {
          "name": "",
          "type": "bool"
        }
      ],
      "payable": false,
      "stateMutability": "nonpayable",
      "type": "function"
    },
    {
      "constant": false,
      "inputs": [],
      "name": "buyTokens",
      "outputs": [],
      "payable": true,
      "stateMutability": "payable",
      "type": "function"
    },
    {
      "constant": false,
      "inputs": [],
      "name": "burnRemainingTokensAfterClose",
      "outputs": [
        {
          "name": "",
          "type": "bool"
        }
      ],
      "payable": false,
      "stateMutability": "nonpayable",
      "type": "function"
    },
    {
      "constant": false,
      "inputs": [
        {
          "name": "_to",
          "type": "address"
        },
        {
          "name": "_tokens",
          "type": "uint256"
        }
      ],
      "name": "transfer",
      "outputs": [
        {
          "name": "",
          "type": "bool"
        }
      ],
      "payable": false,
      "stateMutability": "nonpayable",
      "type": "function"
    },
    {
      "constant": false,
      "inputs": [
        {
          "name": "_from",
          "type": "address"
        },
        {
          "name": "_to",
          "type": "address"
        },
        {
          "name": "_value",
          "type": "uint256"
        }
      ],
      "name": "transferFrom",
      "outputs": [
        {
          "name": "",
          "type": "bool"
        }
      ],
      "payable": false,
      "stateMutability": "nonpayable",
      "type": "function"
    },
    {
      "constant": false,
      "inputs": [
        {
          "name": "_contractAddress",
          "type": "address"
        }
      ],
      "name": "setSubsequentContract",
      "outputs": [
        {
          "name": "",
          "type": "bool"
        }
      ],
      "payable": false,
      "stateMutability": "nonpayable",
      "type": "function"
    },
    {
      "constant": false,
      "inputs": [
        {
          "name": "_newTokensWallet",
          "type": "address"
        },
        {
          "name": "_amount",
          "type": "uint256"
        }
      ],
      "name": "increaseTotalSupplyAndAllocateTokens",
      "outputs": [
        {
          "name": "",
          "type": "bool"
        }
      ],
      "payable": false,
      "stateMutability": "nonpayable",
      "type": "function"
    },
    {
      "constant": false,
      "inputs": [
        {
          "name": "_amount",
          "type": "uint256"
        }
      ],
      "name": "increaseEthRaisedBySubsequentSale",
      "outputs": [],
      "payable": false,
      "stateMutability": "nonpayable",
      "type": "function"
    }
  ],
  "bytecode": "0x60806040526040805190810160405280600881526020017f54534420434f494e000000000000000000000000000000000000000000000000815250600390805190602001906200005192919062000bb3565b506040805190810160405280600381526020017f5453440000000000000000000000000000000000000000000000000000000000815250600490805190602001906200009f92919062000bb3565b506012600555600554600a0a600655600654620f4240026007556006546103e80260085560075461022602600955600754603702600a5560075460a502600b55600754602c02600c55620001166008546101f402600754601002620006956401000000000262002a1c179091906401000000009004565b600d55620001476008546101f402600754601002620006956401000000000262002a1c179091906401000000009004565b600e55670136dcc951d8c000600f556000601155650165904893006012556501662ac75b006013556001601d60006101000a81548160ff0219169083151502179055503480156200019757600080fd5b5060405162003d2a38038062003d2a8339810180604052810190808051906020019092919080518201929190602001805190602001909291908051906020019092919080519060200190929190805190602001909291908051906020019092919050505033600260006101000a81548173ffffffffffffffffffffffffffffffffffffffff021916908373ffffffffffffffffffffffffffffffffffffffff160217905550600260009054906101000a900473ffffffffffffffffffffffffffffffffffffffff16601460006101000a81548173ffffffffffffffffffffffffffffffffffffffff021916908373ffffffffffffffffffffffffffffffffffffffff16021790555084601560006101000a81548173ffffffffffffffffffffffffffffffffffffffff021916908373ffffffffffffffffffffffffffffffffffffffff16021790555083601660006101000a81548173ffffffffffffffffffffffffffffffffffffffff021916908373ffffffffffffffffffffffffffffffffffffffff16021790555082601760006101000a81548173ffffffffffffffffffffffffffffffffffffffff021916908373ffffffffffffffffffffffffffffffffffffffff16021790555081601860006101000a81548173ffffffffffffffffffffffffffffffffffffffff021916908373ffffffffffffffffffffffffffffffffffffffff16021790555080601960006101000a81548173ffffffffffffffffffffffffffffffffffffffff021916908373ffffffffffffffffffffffffffffffffffffffff16021790555060095460016000601460009054906101000a900473ffffffffffffffffffffffffffffffffffffffff1673ffffffffffffffffffffffffffffffffffffffff1673ffffffffffffffffffffffffffffffffffffffff168152602001908152602001600020819055507fddf252ad1be2c89b69c2b068fc378daa952ba7f163c4a11628f55a4df523b3ef6000601460009054906101000a900473ffffffffffffffffffffffffffffffffffffffff16600954604051808473ffffffffffffffffffffffffffffffffffffffff1681526020018373ffffffffffffffffffffffffffffffffffffffff1673ffffffffffffffffffffffffffffffffffffffff168152602001828152602001935050505060405180910390a16200053e601560009054906101000a900473ffffffffffffffffffffffffffffffffffffffff16600a54620006b26401000000000262002e2e176401000000009004565b5062000583601660009054906101000a900473ffffffffffffffffffffffffffffffffffffffff16600b54620006b26401000000000262002e2e176401000000009004565b50620005c8601760009054906101000a900473ffffffffffffffffffffffffffffffffffffffff16600c54620006b26401000000000262002e2e176401000000009004565b506200060d601860009054906101000a900473ffffffffffffffffffffffffffffffffffffffff16600d54620006b26401000000000262002e2e176401000000009004565b5062000652601960009054906101000a900473ffffffffffffffffffffffffffffffffffffffff16600e54620006b26401000000000262002e2e176401000000009004565b506200066d8662000932640100000000026401000000009004565b620006878762000a22640100000000026401000000009004565b505050505050505062000c62565b60008183019050828110151515620006a957fe5b80905092915050565b60008073ffffffffffffffffffffffffffffffffffffffff168373ffffffffffffffffffffffffffffffffffffffff1614151515620006f057600080fd5b600160003373ffffffffffffffffffffffffffffffffffffffff1673ffffffffffffffffffffffffffffffffffffffff1681526020019081526020016000205482111515156200073f57600080fd5b620007a182600160003373ffffffffffffffffffffffffffffffffffffffff1673ffffffffffffffffffffffffffffffffffffffff1681526020019081526020016000205462000b5d6401000000000262002a03179091906401000000009004565b600160003373ffffffffffffffffffffffffffffffffffffffff1673ffffffffffffffffffffffffffffffffffffffff168152602001908152602001600020819055506200084682600160008673ffffffffffffffffffffffffffffffffffffffff1673ffffffffffffffffffffffffffffffffffffffff16815260200190815260200160002054620006956401000000000262002a1c179091906401000000009004565b600160008573ffffffffffffffffffffffffffffffffffffffff1673ffffffffffffffffffffffffffffffffffffffff168152602001908152602001600020819055507fddf252ad1be2c89b69c2b068fc378daa952ba7f163c4a11628f55a4df523b3ef338484604051808473ffffffffffffffffffffffffffffffffffffffff1673ffffffffffffffffffffffffffffffffffffffff1681526020018373ffffffffffffffffffffffffffffffffffffffff1673ffffffffffffffffffffffffffffffffffffffff168152602001828152602001935050505060405180910390a16001905092915050565b6000600260009054906101000a900473ffffffffffffffffffffffffffffffffffffffff1673ffffffffffffffffffffffffffffffffffffffff163373ffffffffffffffffffffffffffffffffffffffff161415156200099157600080fd5b600090505b815181101562000a1e576001601c60008484815181101515620009b557fe5b9060200190602002015173ffffffffffffffffffffffffffffffffffffffff1673ffffffffffffffffffffffffffffffffffffffff16815260200190815260200160002060006101000a81548160ff021916908315150217905550808060010191505062000996565b5050565b6000806000600260009054906101000a900473ffffffffffffffffffffffffffffffffffffffff1673ffffffffffffffffffffffffffffffffffffffff163373ffffffffffffffffffffffffffffffffffffffff16148062000ad15750601a60009054906101000a900473ffffffffffffffffffffffffffffffffffffffff1673ffffffffffffffffffffffffffffffffffffffff163373ffffffffffffffffffffffffffffffffffffffff16145b151562000add57600080fd5b601054915064e8d4a51000905062000b0d848262000b7764010000000002620029cb179091906401000000009004565b6010819055507f9a4a0b4ec1a5f7ce40f0bbb5afddc8a88ed1279508f5d92b5056dcffdff438d98285604051808381526020018281526020019250505060405180910390a1600192505050919050565b600082821115151562000b6c57fe5b818303905092915050565b60008083141562000b8c576000905062000bad565b818302905081838281151562000b9e57fe5b0414151562000ba957fe5b8090505b92915050565b828054600181600116156101000203166002900490600052602060002090601f016020900481019282601f1062000bf657805160ff191683800117855562000c27565b8280016001018555821562000c27579182015b8281111562000c2657825182559160200191906001019062000c09565b5b50905062000c36919062000c3a565b5090565b62000c5f91905b8082111562000c5b57600081600090555060010162000c41565b5090565b90565b6130b88062000c726000396000f300608060405260043610610230576000357c0100000000000000000000000000000000000000000000000000000000900463ffffffff16806306fdde031461023a578063095ea7b3146102ca5780630ff50d111461032f57806318160ddd146103865780632194f3a2146103b157806323b872dd146104085780632e055bcc1461048d5780633082538f146104b8578063313ce567146104e35780633197cbb61461050e57806333b5b62e146105395780633ba0b9a91461056457806347e923151461058f5780634e9c6b1f146105ba5780635db13476146105e557806366188463146106105780636f9170f61461067557806370a08231146106d0578063715018a61461072757806378ae40691461073e57806378e97925146107995780637af30748146107c4578063822fd6cd146107ef5780638da5cb5b1461081c5780638fb24c7d14610873578063927a90da146108ca57806395d89b41146108f95780639fc9727314610989578063a1d34d2d146109e0578063a229c61414610a0b578063a9059cbb14610a50578063acfa7c5f14610ab5578063b9cdd19b14610b0c578063c9e904be14610b72578063c9f73f5a14610b9d578063d05636e714610bf4578063d0d7344e14610c59578063d0febe4c14610c88578063d18e81b314610c92578063d73dd62314610cbd578063dadf172914610d22578063dd62ed3e14610d79578063f2323f7e14610df0578063f2fde38b14610e1b578063fa0fca8414610e5e578063fb349dbd14610eb9575b610238610efc565b005b34801561024657600080fd5b5061024f61171f565b6040518080602001828103825283818151815260200191508051906020019080838360005b8381101561028f578082015181840152602081019050610274565b50505050905090810190601f1680156102bc5780820380516001836020036101000a031916815260200191505b509250505060405180910390f35b3480156102d657600080fd5b50610315600480360381019080803573ffffffffffffffffffffffffffffffffffffffff169060200190929190803590602001909291905050506117bd565b604051808215151515815260200191505060405180910390f35b34801561033b57600080fd5b506103446118ae565b604051808273ffffffffffffffffffffffffffffffffffffffff1673ffffffffffffffffffffffffffffffffffffffff16815260200191505060405180910390f35b34801561039257600080fd5b5061039b6118d4565b6040518082815260200191505060405180910390f35b3480156103bd57600080fd5b506103c66118da565b604051808273ffffffffffffffffffffffffffffffffffffffff1673ffffffffffffffffffffffffffffffffffffffff16815260200191505060405180910390f35b34801561041457600080fd5b50610473600480360381019080803573ffffffffffffffffffffffffffffffffffffffff169060200190929190803573ffffffffffffffffffffffffffffffffffffffff16906020019092919080359060200190929190505050611900565b604051808215151515815260200191505060405180910390f35b34801561049957600080fd5b506104a261192e565b6040518082815260200191505060405180910390f35b3480156104c457600080fd5b506104cd611934565b6040518082815260200191505060405180910390f35b3480156104ef57600080fd5b506104f861193a565b6040518082815260200191505060405180910390f35b34801561051a57600080fd5b50610523611940565b6040518082815260200191505060405180910390f35b34801561054557600080fd5b5061054e611946565b6040518082815260200191505060405180910390f35b34801561057057600080fd5b5061057961194c565b6040518082815260200191505060405180910390f35b34801561059b57600080fd5b506105a4611952565b6040518082815260200191505060405180910390f35b3480156105c657600080fd5b506105cf611958565b6040518082815260200191505060405180910390f35b3480156105f157600080fd5b506105fa61195e565b6040518082815260200191505060405180910390f35b34801561061c57600080fd5b5061065b600480360381019080803573ffffffffffffffffffffffffffffffffffffffff16906020019092919080359060200190929190505050611964565b604051808215151515815260200191505060405180910390f35b34801561068157600080fd5b506106b6600480360381019080803573ffffffffffffffffffffffffffffffffffffffff169060200190929190505050611bf1565b604051808215151515815260200191505060405180910390f35b3480156106dc57600080fd5b50610711600480360381019080803573ffffffffffffffffffffffffffffffffffffffff169060200190929190505050611c58565b6040518082815260200191505060405180910390f35b34801561073357600080fd5b5061073c611ca1565b005b34801561074a57600080fd5b5061077f600480360381019080803573ffffffffffffffffffffffffffffffffffffffff169060200190929190505050611da6565b604051808215151515815260200191505060405180910390f35b3480156107a557600080fd5b506107ae611e4e565b6040518082815260200191505060405180910390f35b3480156107d057600080fd5b506107d9611e54565b6040518082815260200191505060405180910390f35b3480156107fb57600080fd5b5061081a60048036038101908080359060200190929190505050611e5a565b005b34801561082857600080fd5b50610831611f14565b604051808273ffffffffffffffffffffffffffffffffffffffff1673ffffffffffffffffffffffffffffffffffffffff16815260200191505060405180910390f35b34801561087f57600080fd5b50610888611f3a565b604051808273ffffffffffffffffffffffffffffffffffffffff1673ffffffffffffffffffffffffffffffffffffffff16815260200191505060405180910390f35b3480156108d657600080fd5b506108df611f60565b604051808215151515815260200191505060405180910390f35b34801561090557600080fd5b5061090e611f73565b6040518080602001828103825283818151815260200191508051906020019080838360005b8381101561094e578082015181840152602081019050610933565b50505050905090810190601f16801561097b5780820380516001836020036101000a031916815260200191505b509250505060405180910390f35b34801561099557600080fd5b5061099e612011565b604051808273ffffffffffffffffffffffffffffffffffffffff1673ffffffffffffffffffffffffffffffffffffffff16815260200191505060405180910390f35b3480156109ec57600080fd5b506109f5612037565b6040518082815260200191505060405180910390f35b348015610a1757600080fd5b50610a366004803603810190808035906020019092919050505061203d565b604051808215151515815260200191505060405180910390f35b348015610a5c57600080fd5b50610a9b600480360381019080803573ffffffffffffffffffffffffffffffffffffffff16906020019092919080359060200190929190505050612166565b604051808215151515815260200191505060405180910390f35b348015610ac157600080fd5b50610aca612192565b604051808273ffffffffffffffffffffffffffffffffffffffff1673ffffffffffffffffffffffffffffffffffffffff16815260200191505060405180910390f35b348015610b1857600080fd5b50610b70600480360381019080803590602001908201803590602001908080602002602001604051908101604052809392919081815260200183836020028082843782019150505050505091929192905050506121b8565b005b348015610b7e57600080fd5b50610b876122a4565b6040518082815260200191505060405180910390f35b348015610ba957600080fd5b50610bb26122aa565b604051808273ffffffffffffffffffffffffffffffffffffffff1673ffffffffffffffffffffffffffffffffffffffff16815260200191505060405180910390f35b348015610c0057600080fd5b50610c3f600480360381019080803573ffffffffffffffffffffffffffffffffffffffff169060200190929190803590602001909291905050506122d0565b604051808215151515815260200191505060405180910390f35b348015610c6557600080fd5b50610c6e612397565b604051808215151515815260200191505060405180910390f35b610c90610efc565b005b348015610c9e57600080fd5b50610ca76124e6565b6040518082815260200191505060405180910390f35b348015610cc957600080fd5b50610d08600480360381019080803573ffffffffffffffffffffffffffffffffffffffff169060200190929190803590602001909291905050506124f2565b604051808215151515815260200191505060405180910390f35b348015610d2e57600080fd5b50610d376126eb565b604051808273ffffffffffffffffffffffffffffffffffffffff1673ffffffffffffffffffffffffffffffffffffffff16815260200191505060405180910390f35b348015610d8557600080fd5b50610dda600480360381019080803573ffffffffffffffffffffffffffffffffffffffff169060200190929190803573ffffffffffffffffffffffffffffffffffffffff169060200190929190505050612711565b6040518082815260200191505060405180910390f35b348015610dfc57600080fd5b50610e05612797565b6040518082815260200191505060405180910390f35b348015610e2757600080fd5b50610e5c600480360381019080803573ffffffffffffffffffffffffffffffffffffffff16906020019092919050505061279d565b005b348015610e6a57600080fd5b50610e9f600480360381019080803573ffffffffffffffffffffffffffffffffffffffff1690602001909291905050506128f5565b604051808215151515815260200191505060405180910390f35b348015610ec557600080fd5b50610efa600480360381019080803573ffffffffffffffffffffffffffffffffffffffff169060200190929190505050612915565b005b600080600080600080601d60009054906101000a900460ff161515610f2057600080fd5b601254610f2b6124e6565b10158015610f425750601354610f3f6124e6565b11155b1515610f4d57600080fd5b600f543410151515610f5e57600080fd5b601c60003373ffffffffffffffffffffffffffffffffffffffff1673ffffffffffffffffffffffffffffffffffffffff16815260200190815260200160002060009054906101000a900460ff161515610fb657600080fd5b349550610fe2600654610fd4601054896129b590919063ffffffff16565b6129cb90919063ffffffff16565b945060016000601460009054906101000a900473ffffffffffffffffffffffffffffffffffffffff1673ffffffffffffffffffffffffffffffffffffffff1673ffffffffffffffffffffffffffffffffffffffff168152602001908152602001600020549350601154925060009150838511156114135761106c8486612a0390919063ffffffff16565b9050611097600654611089601054846129cb90919063ffffffff16565b6129b590919063ffffffff16565b91506110ac8287612a0390919063ffffffff16565b95506111228460016000601460009054906101000a900473ffffffffffffffffffffffffffffffffffffffff1673ffffffffffffffffffffffffffffffffffffffff1673ffffffffffffffffffffffffffffffffffffffff16815260200190815260200160002054612a0390919063ffffffff16565b60016000601460009054906101000a900473ffffffffffffffffffffffffffffffffffffffff1673ffffffffffffffffffffffffffffffffffffffff1673ffffffffffffffffffffffffffffffffffffffff168152602001908152602001600020819055506111d984600160003373ffffffffffffffffffffffffffffffffffffffff1673ffffffffffffffffffffffffffffffffffffffff16815260200190815260200160002054612a1c90919063ffffffff16565b600160003373ffffffffffffffffffffffffffffffffffffffff1673ffffffffffffffffffffffffffffffffffffffff168152602001908152602001600020819055507fddf252ad1be2c89b69c2b068fc378daa952ba7f163c4a11628f55a4df523b3ef601460009054906101000a900473ffffffffffffffffffffffffffffffffffffffff163386604051808473ffffffffffffffffffffffffffffffffffffffff1673ffffffffffffffffffffffffffffffffffffffff1681526020018373ffffffffffffffffffffffffffffffffffffffff1673ffffffffffffffffffffffffffffffffffffffff168152602001828152602001935050505060405180910390a1600082111561132e573373ffffffffffffffffffffffffffffffffffffffff166108fc839081150290604051600060405180830381858888f1935050505015801561132c573d6000803e3d6000fd5b505b601460009054906101000a900473ffffffffffffffffffffffffffffffffffffffff1673ffffffffffffffffffffffffffffffffffffffff166108fc879081150290604051600060405180830381858888f19350505050158015611396573d6000803e3d6000fd5b506113ac86601154612a1c90919063ffffffff16565b6011819055507f4014ce514c76bad08328a2a6046bac14007f7aad2c56c84c66acf8ca1c64bee883601154604051808381526020018281526020019250505060405180910390a16000601d60006101000a81548160ff021916908315150217905550611717565b84841015151561142257600080fd5b6114968560016000601460009054906101000a900473ffffffffffffffffffffffffffffffffffffffff1673ffffffffffffffffffffffffffffffffffffffff1673ffffffffffffffffffffffffffffffffffffffff16815260200190815260200160002054612a0390919063ffffffff16565b60016000601460009054906101000a900473ffffffffffffffffffffffffffffffffffffffff1673ffffffffffffffffffffffffffffffffffffffff1673ffffffffffffffffffffffffffffffffffffffff1681526020019081526020016000208190555061154d85600160003373ffffffffffffffffffffffffffffffffffffffff1673ffffffffffffffffffffffffffffffffffffffff16815260200190815260200160002054612a1c90919063ffffffff16565b600160003373ffffffffffffffffffffffffffffffffffffffff1673ffffffffffffffffffffffffffffffffffffffff16815260200190815260200160002081905550601460009054906101000a900473ffffffffffffffffffffffffffffffffffffffff1673ffffffffffffffffffffffffffffffffffffffff166108fc879081150290604051600060405180830381858888f193505050501580156115f8573d6000803e3d6000fd5b5061160e86601154612a1c90919063ffffffff16565b6011819055507fddf252ad1be2c89b69c2b068fc378daa952ba7f163c4a11628f55a4df523b3ef601460009054906101000a900473ffffffffffffffffffffffffffffffffffffffff163387604051808473ffffffffffffffffffffffffffffffffffffffff1673ffffffffffffffffffffffffffffffffffffffff1681526020018373ffffffffffffffffffffffffffffffffffffffff1673ffffffffffffffffffffffffffffffffffffffff168152602001828152602001935050505060405180910390a17f4014ce514c76bad08328a2a6046bac14007f7aad2c56c84c66acf8ca1c64bee883601154604051808381526020018281526020019250505060405180910390a15b505050505050565b60038054600181600116156101000203166002900480601f0160208091040260200160405190810160405280929190818152602001828054600181600116156101000203166002900480156117b55780601f1061178a576101008083540402835291602001916117b5565b820191906000526020600020905b81548152906001019060200180831161179857829003601f168201915b505050505081565b6000816000803373ffffffffffffffffffffffffffffffffffffffff1673ffffffffffffffffffffffffffffffffffffffff16815260200190815260200160002060008573ffffffffffffffffffffffffffffffffffffffff1673ffffffffffffffffffffffffffffffffffffffff168152602001908152602001600020819055508273ffffffffffffffffffffffffffffffffffffffff163373ffffffffffffffffffffffffffffffffffffffff167f8c5be1e5ebec7d5bd14f71427d1e84f3dd0314c0f7b2291e5b200ac8c7c3b925846040518082815260200191505060405180910390a36001905092915050565b601760009054906101000a900473ffffffffffffffffffffffffffffffffffffffff1681565b60095481565b601460009054906101000a900473ffffffffffffffffffffffffffffffffffffffff1681565b600060135461190d6124e6565b1015151561191a57600080fd5b611925848484612a38565b90509392505050565b600b5481565b60065481565b60055481565b60135481565b600f5481565b60105481565b600c5481565b60075481565b60085481565b6000806000803373ffffffffffffffffffffffffffffffffffffffff1673ffffffffffffffffffffffffffffffffffffffff16815260200190815260200160002060008573ffffffffffffffffffffffffffffffffffffffff1673ffffffffffffffffffffffffffffffffffffffff16815260200190815260200160002054905080831115611a735760008060003373ffffffffffffffffffffffffffffffffffffffff1673ffffffffffffffffffffffffffffffffffffffff16815260200190815260200160002060008673ffffffffffffffffffffffffffffffffffffffff1673ffffffffffffffffffffffffffffffffffffffff16815260200190815260200160002081905550611b06565b611a868382612a0390919063ffffffff16565b6000803373ffffffffffffffffffffffffffffffffffffffff1673ffffffffffffffffffffffffffffffffffffffff16815260200190815260200160002060008673ffffffffffffffffffffffffffffffffffffffff1673ffffffffffffffffffffffffffffffffffffffff168152602001908152602001600020819055505b8373ffffffffffffffffffffffffffffffffffffffff163373ffffffffffffffffffffffffffffffffffffffff167f8c5be1e5ebec7d5bd14f71427d1e84f3dd0314c0f7b2291e5b200ac8c7c3b9256000803373ffffffffffffffffffffffffffffffffffffffff1673ffffffffffffffffffffffffffffffffffffffff16815260200190815260200160002060008873ffffffffffffffffffffffffffffffffffffffff1673ffffffffffffffffffffffffffffffffffffffff168152602001908152602001600020546040518082815260200191505060405180910390a3600191505092915050565b6000601c60008373ffffffffffffffffffffffffffffffffffffffff1673ffffffffffffffffffffffffffffffffffffffff16815260200190815260200160002060009054906101000a900460ff1615611c4e5760019050611c53565b600090505b919050565b6000600160008373ffffffffffffffffffffffffffffffffffffffff1673ffffffffffffffffffffffffffffffffffffffff168152602001908152602001600020549050919050565b600260009054906101000a900473ffffffffffffffffffffffffffffffffffffffff1673ffffffffffffffffffffffffffffffffffffffff163373ffffffffffffffffffffffffffffffffffffffff16141515611cfd57600080fd5b600260009054906101000a900473ffffffffffffffffffffffffffffffffffffffff1673ffffffffffffffffffffffffffffffffffffffff167ff8df31144d9c2f0f6b59d69b8b98abd5459d07f2742c4df920b25aae33c6482060405160405180910390a26000600260006101000a81548173ffffffffffffffffffffffffffffffffffffffff021916908373ffffffffffffffffffffffffffffffffffffffff160217905550565b6000600260009054906101000a900473ffffffffffffffffffffffffffffffffffffffff1673ffffffffffffffffffffffffffffffffffffffff163373ffffffffffffffffffffffffffffffffffffffff16141515611e0457600080fd5b81601b60006101000a81548173ffffffffffffffffffffffffffffffffffffffff021916908373ffffffffffffffffffffffffffffffffffffffff16021790555060019050919050565b60125481565b600e5481565b6000601b60009054906101000a900473ffffffffffffffffffffffffffffffffffffffff1673ffffffffffffffffffffffffffffffffffffffff163373ffffffffffffffffffffffffffffffffffffffff16141515611eb857600080fd5b611ecd82601154612a1c90919063ffffffff16565b90507f4014ce514c76bad08328a2a6046bac14007f7aad2c56c84c66acf8ca1c64bee860115482604051808381526020018281526020019250505060405180910390a15050565b600260009054906101000a900473ffffffffffffffffffffffffffffffffffffffff1681565b601560009054906101000a900473ffffffffffffffffffffffffffffffffffffffff1681565b601d60009054906101000a900460ff1681565b60048054600181600116156101000203166002900480601f0160208091040260200160405190810160405280929190818152602001828054600181600116156101000203166002900480156120095780601f10611fde57610100808354040283529160200191612009565b820191906000526020600020905b815481529060010190602001808311611fec57829003601f168201915b505050505081565b601860009054906101000a900473ffffffffffffffffffffffffffffffffffffffff1681565b600d5481565b6000806000600260009054906101000a900473ffffffffffffffffffffffffffffffffffffffff1673ffffffffffffffffffffffffffffffffffffffff163373ffffffffffffffffffffffffffffffffffffffff1614806120eb5750601a60009054906101000a900473ffffffffffffffffffffffffffffffffffffffff1673ffffffffffffffffffffffffffffffffffffffff163373ffffffffffffffffffffffffffffffffffffffff16145b15156120f657600080fd5b601054915064e8d4a51000905061211684826129cb90919063ffffffff16565b6010819055507f9a4a0b4ec1a5f7ce40f0bbb5afddc8a88ed1279508f5d92b5056dcffdff438d98285604051808381526020018281526020019250505060405180910390a1600192505050919050565b60006013546121736124e6565b1015151561218057600080fd5b61218a8383612e2e565b905092915050565b601960009054906101000a900473ffffffffffffffffffffffffffffffffffffffff1681565b6000600260009054906101000a900473ffffffffffffffffffffffffffffffffffffffff1673ffffffffffffffffffffffffffffffffffffffff163373ffffffffffffffffffffffffffffffffffffffff1614151561221657600080fd5b600090505b81518110156122a0576001601c6000848481518110151561223857fe5b9060200190602002015173ffffffffffffffffffffffffffffffffffffffff1673ffffffffffffffffffffffffffffffffffffffff16815260200190815260200160002060006101000a81548160ff021916908315150217905550808060010191505061221b565b5050565b60115481565b601b60009054906101000a900473ffffffffffffffffffffffffffffffffffffffff1681565b6000601b60009054906101000a900473ffffffffffffffffffffffffffffffffffffffff1673ffffffffffffffffffffffffffffffffffffffff163373ffffffffffffffffffffffffffffffffffffffff1614151561232e57600080fd5b61234382600954612a1c90919063ffffffff16565b60098190555081600160008573ffffffffffffffffffffffffffffffffffffffff1673ffffffffffffffffffffffffffffffffffffffff168152602001908152602001600020819055506001905092915050565b6000600260009054906101000a900473ffffffffffffffffffffffffffffffffffffffff1673ffffffffffffffffffffffffffffffffffffffff163373ffffffffffffffffffffffffffffffffffffffff161415156123f557600080fd5b6013546124006124e6565b1015151561240d57600080fd5b600060016000601460009054906101000a900473ffffffffffffffffffffffffffffffffffffffff1673ffffffffffffffffffffffffffffffffffffffff1673ffffffffffffffffffffffffffffffffffffffff1681526020019081526020016000205411156124df57600060016000601460009054906101000a900473ffffffffffffffffffffffffffffffffffffffff1673ffffffffffffffffffffffffffffffffffffffff1673ffffffffffffffffffffffffffffffffffffffff168152602001908152602001600020819055505b6001905090565b60006103e84202905090565b6000612582826000803373ffffffffffffffffffffffffffffffffffffffff1673ffffffffffffffffffffffffffffffffffffffff16815260200190815260200160002060008673ffffffffffffffffffffffffffffffffffffffff1673ffffffffffffffffffffffffffffffffffffffff16815260200190815260200160002054612a1c90919063ffffffff16565b6000803373ffffffffffffffffffffffffffffffffffffffff1673ffffffffffffffffffffffffffffffffffffffff16815260200190815260200160002060008573ffffffffffffffffffffffffffffffffffffffff1673ffffffffffffffffffffffffffffffffffffffff168152602001908152602001600020819055508273ffffffffffffffffffffffffffffffffffffffff163373ffffffffffffffffffffffffffffffffffffffff167f8c5be1e5ebec7d5bd14f71427d1e84f3dd0314c0f7b2291e5b200ac8c7c3b9256000803373ffffffffffffffffffffffffffffffffffffffff1673ffffffffffffffffffffffffffffffffffffffff16815260200190815260200160002060008773ffffffffffffffffffffffffffffffffffffffff1673ffffffffffffffffffffffffffffffffffffffff168152602001908152602001600020546040518082815260200191505060405180910390a36001905092915050565b601660009054906101000a900473ffffffffffffffffffffffffffffffffffffffff1681565b60008060008473ffffffffffffffffffffffffffffffffffffffff1673ffffffffffffffffffffffffffffffffffffffff16815260200190815260200160002060008373ffffffffffffffffffffffffffffffffffffffff1673ffffffffffffffffffffffffffffffffffffffff16815260200190815260200160002054905092915050565b600a5481565b600260009054906101000a900473ffffffffffffffffffffffffffffffffffffffff1673ffffffffffffffffffffffffffffffffffffffff163373ffffffffffffffffffffffffffffffffffffffff161415156127f957600080fd5b600073ffffffffffffffffffffffffffffffffffffffff168173ffffffffffffffffffffffffffffffffffffffff161415151561283557600080fd5b8073ffffffffffffffffffffffffffffffffffffffff16600260009054906101000a900473ffffffffffffffffffffffffffffffffffffffff1673ffffffffffffffffffffffffffffffffffffffff167f8be0079c531659141344cd1fd0a4f28419497f9722a3daafe3b4186f6b6457e060405160405180910390a380600260006101000a81548173ffffffffffffffffffffffffffffffffffffffff021916908373ffffffffffffffffffffffffffffffffffffffff16021790555050565b601c6020528060005260406000206000915054906101000a900460ff1681565b600260009054906101000a900473ffffffffffffffffffffffffffffffffffffffff1673ffffffffffffffffffffffffffffffffffffffff163373ffffffffffffffffffffffffffffffffffffffff1614151561297157600080fd5b80601a60006101000a81548173ffffffffffffffffffffffffffffffffffffffff021916908373ffffffffffffffffffffffffffffffffffffffff16021790555050565b600081838115156129c257fe5b04905092915050565b6000808314156129de57600090506129fd565b81830290508183828115156129ef57fe5b041415156129f957fe5b8090505b92915050565b6000828211151515612a1157fe5b818303905092915050565b60008183019050828110151515612a2f57fe5b80905092915050565b60008073ffffffffffffffffffffffffffffffffffffffff168373ffffffffffffffffffffffffffffffffffffffff1614151515612a7557600080fd5b600160008573ffffffffffffffffffffffffffffffffffffffff1673ffffffffffffffffffffffffffffffffffffffff168152602001908152602001600020548211151515612ac357600080fd5b6000808573ffffffffffffffffffffffffffffffffffffffff1673ffffffffffffffffffffffffffffffffffffffff16815260200190815260200160002060003373ffffffffffffffffffffffffffffffffffffffff1673ffffffffffffffffffffffffffffffffffffffff168152602001908152602001600020548211151515612b4d57600080fd5b612b9f82600160008773ffffffffffffffffffffffffffffffffffffffff1673ffffffffffffffffffffffffffffffffffffffff16815260200190815260200160002054612a0390919063ffffffff16565b600160008673ffffffffffffffffffffffffffffffffffffffff1673ffffffffffffffffffffffffffffffffffffffff16815260200190815260200160002081905550612c3482600160008673ffffffffffffffffffffffffffffffffffffffff1673ffffffffffffffffffffffffffffffffffffffff16815260200190815260200160002054612a1c90919063ffffffff16565b600160008573ffffffffffffffffffffffffffffffffffffffff1673ffffffffffffffffffffffffffffffffffffffff16815260200190815260200160002081905550612d05826000808773ffffffffffffffffffffffffffffffffffffffff1673ffffffffffffffffffffffffffffffffffffffff16815260200190815260200160002060003373ffffffffffffffffffffffffffffffffffffffff1673ffffffffffffffffffffffffffffffffffffffff16815260200190815260200160002054612a0390919063ffffffff16565b6000808673ffffffffffffffffffffffffffffffffffffffff1673ffffffffffffffffffffffffffffffffffffffff16815260200190815260200160002060003373ffffffffffffffffffffffffffffffffffffffff1673ffffffffffffffffffffffffffffffffffffffff168152602001908152602001600020819055507fddf252ad1be2c89b69c2b068fc378daa952ba7f163c4a11628f55a4df523b3ef848484604051808473ffffffffffffffffffffffffffffffffffffffff1673ffffffffffffffffffffffffffffffffffffffff1681526020018373ffffffffffffffffffffffffffffffffffffffff1673ffffffffffffffffffffffffffffffffffffffff168152602001828152602001935050505060405180910390a1600190509392505050565b60008073ffffffffffffffffffffffffffffffffffffffff168373ffffffffffffffffffffffffffffffffffffffff1614151515612e6b57600080fd5b600160003373ffffffffffffffffffffffffffffffffffffffff1673ffffffffffffffffffffffffffffffffffffffff168152602001908152602001600020548211151515612eb957600080fd5b612f0b82600160003373ffffffffffffffffffffffffffffffffffffffff1673ffffffffffffffffffffffffffffffffffffffff16815260200190815260200160002054612a0390919063ffffffff16565b600160003373ffffffffffffffffffffffffffffffffffffffff1673ffffffffffffffffffffffffffffffffffffffff16815260200190815260200160002081905550612fa082600160008673ffffffffffffffffffffffffffffffffffffffff1673ffffffffffffffffffffffffffffffffffffffff16815260200190815260200160002054612a1c90919063ffffffff16565b600160008573ffffffffffffffffffffffffffffffffffffffff1673ffffffffffffffffffffffffffffffffffffffff168152602001908152602001600020819055507fddf252ad1be2c89b69c2b068fc378daa952ba7f163c4a11628f55a4df523b3ef338484604051808473ffffffffffffffffffffffffffffffffffffffff1673ffffffffffffffffffffffffffffffffffffffff1681526020018373ffffffffffffffffffffffffffffffffffffffff1673ffffffffffffffffffffffffffffffffffffffff168152602001828152602001935050505060405180910390a160019050929150505600a165627a7a72305820afe8f6ed7efd30b6503d6a3968abfb8ac288bca2e5b5ac93fa0f1f458547c34c0029",
  "source": "pragma solidity ^0.4.23;\n\nimport \"./FoundationContracts/BaseToken.sol\";\nimport \"./FoundationContracts/Ownable.sol\";\n\ncontract TSD is BaseToken, Ownable {\n    string public name = \"TSD COIN\";\n    string public symbol = \"TSD\";\n    uint256 public decimals = 18;\n\n    // Helper value from 1 million and 1 thousand\n    uint256 public decimalMultiplier = uint256(10) ** decimals;\n    uint256 public million = 1000000 * decimalMultiplier;\n    uint256 public thousand = 1000 * decimalMultiplier;\n\n    // Allocations\n    uint256 public totalSupply = 550 * million;\n    uint256 public pvtSaleSupply = 55 * million;\n    uint256 public preSaleSupply = 165 * million;\n    uint256 public foundersAndAdvisorsAllocation = 44 * million;\n    uint256 public bountyCommunityIncentivesAllocation = (16 * million).add(500 * thousand);\n    uint256 public liquidityProgramAllocation = (16 * million).add(500 * thousand);\n    // approx $50 USD\n    // 0.0875 ETH\n    uint256 public minPurchase = 87500000000000000;\n    // 1 TSD = x ETH\n    // Unit convertsions https://github.com/ethereum/web3.js/blob/0.15.0/lib/utils/utils.js#L40\n    uint256 public exchangeRate;\n    uint256 public totalEthRaised = 0;\n\n    // Coordinated Universal Time (abbreviated to UTC) is the primary time standard by which the world regulates clocks and time.\n\n    // Start time \"Sat Sep 01 2018 00:00:00 GMT+1000 (AEST)\"\n    // new Date(1535724000000).toUTCString() => \"Fri, 31 Aug 2018 14:00:00 GMT\"\n    uint256 public startTime = 1535724000000;\n    // End time \"Mon Oct 01 2018 00:00:00 GMT+1000 (AEST)\"\n    // new Date(1538316000000).toUTCString() => \"Sun, 30 Sep 2018 14:00:00 GMT\"\n    uint256 public endTime = 1538316000000;\n\n    // Wallets\n    address public fundsWallet;\n    address public pvtSaleTokenWallet;\n    address public preSaleTokenWallet;\n\n    // Addresses for services and founders\n    address public foundersAndAdvisors;\n    address public bountyCommunityIncentives;\n    address public liquidityProgram;\n\n    // Addresses for external helpers\n    address private oracleAddress;\n\n    // SubsequentContract Address\n    address public subsequentContract;\n\n    // whitelisted addresses\n    mapping (address => bool) public whiteListed;\n\n    // ico concluded due to all tokens sold\n    bool public icoOpen = true;\n\n    // events\n    event EthRaisedUpdated(uint256 oldEthRaisedVal, uint256 newEthRaisedVal);\n    event ExhangeRateUpdated(uint256 prevExchangeRate, uint256 newExchangeRate);\n    event Debugger(string variable, uint256 value);\n    event DebugStrings(string variable);\n    event DebugAddress(string name, address _address);\n\n    constructor(\n        uint256 _exchangeRate,\n        address[] _whitelistAddresses,\n        address _pvtSaleTokenWallet,\n        address _preSaleTokenWallet,\n        address _foundersAndAdvisors,\n        address _bountyCommunityIncentives,\n        address _liquidityProgram\n    ) public {\n        fundsWallet = owner;\n        pvtSaleTokenWallet = _pvtSaleTokenWallet;\n        preSaleTokenWallet = _preSaleTokenWallet;\n        foundersAndAdvisors = _foundersAndAdvisors;\n        bountyCommunityIncentives = _bountyCommunityIncentives;\n        liquidityProgram = _liquidityProgram;\n\n        // transfer suppy to the funds wallet\n        balances[fundsWallet] = totalSupply;\n        emit Transfer(0x0, fundsWallet, totalSupply);\n\n        // Transfer all of the allocations\n        // The inherited transfer method from the StandardToken which inherits\n        // from BasicToken emits Transfer events and subtracts/adds respective\n        // amounts to respective accounts\n        // transfer tokens to account for the private sale\n        super.transfer(pvtSaleTokenWallet, pvtSaleSupply);\n\n        // transfer tokens to account for the pre sale\n        super.transfer(preSaleTokenWallet, preSaleSupply);\n\n        // transfer tokens to founders account\n        super.transfer(foundersAndAdvisors, foundersAndAdvisorsAllocation);\n\n        // transfer tokens to bounty and community incentives account\n        super.transfer(bountyCommunityIncentives, bountyCommunityIncentivesAllocation);\n\n        // transfer tokens to the liquidity program account\n        super.transfer(liquidityProgram, liquidityProgramAllocation);\n\n        // Set up the list of whitelisted addresses\n        createWhiteListedMapping(_whitelistAddresses);\n\n        // set up the exchangeRate\n        updateTheExchangeRate(_exchangeRate);\n    }\n\n    function currentTime() public view returns (uint256) {\n        return now * 1000;\n    }\n\n    // Utility functions\n\n    function createWhiteListedMapping(address[] _addresses) public onlyOwner {\n        for (uint256 i = 0; i < _addresses.length; i++) {\n            whiteListed[_addresses[i]] = true;\n        }\n    }\n\n    function isWhiteListed(address _address) external view returns (bool) {\n        if (whiteListed[_address]) {\n            return true;\n        } else {\n            return false;\n        }\n    }\n\n    function changeOracleAddress(address _newAddress) external onlyOwner {\n        oracleAddress = _newAddress;\n    }\n\n    // Updates the ETH => TSD exchange rate\n    function updateTheExchangeRate(uint256 _newRate) public onlyRestricted returns (bool) {\n        uint256 currentRate = exchangeRate;\n        // 0.000001 ETHER\n        uint256 oneSzabo = 1 szabo;\n        // 0.00001 ETH OTHERWISE 0.000001\n        exchangeRate = (oneSzabo).mul(_newRate);\n        emit ExhangeRateUpdated(currentRate, _newRate);\n        return true;\n    }\n\n    // Buy functions\n\n    function() payable public {\n        buyTokens();\n    }\n\n    function buyTokens() payable public {\n        require(icoOpen);\n        require(currentTime() >= startTime && currentTime() <= endTime);\n        require(msg.value >= minPurchase);\n        require(whiteListed[msg.sender]);\n\n        // ETH received by spender\n        uint256 ethAmount = msg.value;\n        // token amount based on ETH / exchangeRate result\n        // Multiply with the decimalMultiplier to get total tokens (to 18 decimal place)\n        uint256 totalTokenAmount = ethAmount.div(exchangeRate).mul(decimalMultiplier);\n        // tokens avaialble to sell are the remaining tokens in the pvtFundsWallet\n        uint256 availableTokens = balances[fundsWallet];\n        uint256 currentEthRaised = totalEthRaised;\n        uint256 ethRefund = 0;\n        uint256 unavailableTokens;\n\n        if (totalTokenAmount > availableTokens) {\n            // additional tokens that aren't avaialble to be sold\n            // tokenAmount is the tokens requested by buyer (not including the discount)\n            // availableTokens are all the tokens left in the supplying wallet i.e pvtFundsWallet\n            unavailableTokens = totalTokenAmount.sub(availableTokens);\n\n            // determine the unused ether amount by seeing how many tokens were surplus\n            // i.e 'availableTokens' and reverse calculating their ETH equivalent\n            // divide by decimalMultiplier as unavailableTokens are 10^18\n            ethRefund = unavailableTokens.mul(exchangeRate).div(decimalMultiplier);\n            // subtract the refund amount from the eth amount received by the tx\n            ethAmount = ethAmount.sub(ethRefund);\n            // make the token purchase\n            // will equal to 0 after these substractions occur\n            balances[fundsWallet] = balances[fundsWallet].sub(availableTokens);\n\n            // add total tokens to the senders balances and Emit transfer event\n            balances[msg.sender] = balances[msg.sender].add(availableTokens);\n            emit Transfer(fundsWallet, msg.sender, availableTokens);\n            // refund\n            if (ethRefund > 0) {\n                msg.sender.transfer(ethRefund);\n            }\n            // transfer ether to funds wallet\n            fundsWallet.transfer(ethAmount);\n            totalEthRaised = totalEthRaised.add(ethAmount);\n            emit EthRaisedUpdated(currentEthRaised, totalEthRaised);\n            // close token sale as tokens are sold out\n            icoOpen = false;\n        } else {\n            require(availableTokens >= totalTokenAmount);\n            // complete transfer and emit an event\n            balances[fundsWallet] = balances[fundsWallet].sub(totalTokenAmount);\n            balances[msg.sender] = balances[msg.sender].add(totalTokenAmount);\n\n            // transfer ether to the wallet and emit and event regarding eth raised\n            fundsWallet.transfer(ethAmount);\n            totalEthRaised = totalEthRaised.add(ethAmount);\n            emit Transfer(fundsWallet, msg.sender, totalTokenAmount);\n            emit EthRaisedUpdated(currentEthRaised, totalEthRaised);\n        }\n    }\n\n    // After close\n    function burnRemainingTokensAfterClose() external onlyOwner returns (bool) {\n        require(currentTime() >= endTime);\n        if (balances[fundsWallet] > 0) {\n            // burn unsold tokens\n            balances[fundsWallet] = 0;\n        }\n\n        return true;\n    }\n\n    // ERC20 function wrappers\n    function transfer(address _to, uint256 _tokens) public returns (bool) {\n        require(currentTime() >= endTime);\n        return super.transfer(_to, _tokens);\n    }\n\n    function transferFrom(address _from, address _to, uint256 _value) public returns (bool) {\n        require(currentTime() >= endTime);\n        return super.transferFrom(_from, _to, _value);\n    }\n\n    // Subsequent supply functions\n    function setSubsequentContract(address _contractAddress) public onlyOwner returns (bool) {\n        subsequentContract = _contractAddress;\n        return true;\n    }\n\n    function increaseTotalSupplyAndAllocateTokens(address _newTokensWallet, uint256 _amount) public isSubsequentContract returns (bool) {\n        totalSupply = totalSupply.add(_amount);\n        balances[_newTokensWallet] = _amount;\n        return true;\n    }\n\n    function increaseEthRaisedBySubsequentSale(uint256 _amount) public isSubsequentContract {\n        uint256 newEthAmount = totalEthRaised.add(_amount);\n        emit EthRaisedUpdated(totalEthRaised, newEthAmount);\n    }\n\n    // modifier\n    modifier isSubsequentContract() {\n        require(msg.sender == subsequentContract);\n        _;\n    }\n\n    modifier onlyRestricted () {\n      require(msg.sender == owner || msg.sender == oracleAddress);\n      _;\n    }\n}\n",
  "sourcePath": "/Users/spencerdezartsmith/Documents/five2one/tsd_dapp/contracts/TSD.sol",
  "compiler": {
    "name": "solc",
    "version": "0.4.23+commit.124ca40d.Emscripten.clang"
  },
  "schemaVersion": "2.0.0",
  "updatedAt": "2018-06-11T23:16:33.625Z"
}