{
  "contractName": "TSDSubsequentSupply",
  "abi": [
    {
      "constant": true,
      "inputs": [],
      "name": "ethExchangeRate",
      "outputs": [
        {
          "name": "",
          "type": "uint256"
        }
      ],
      "payable": false,
      "stateMutability": "view",
      "type": "function"
    },
    {
      "constant": true,
      "inputs": [],
      "name": "decimalMultiplier",
      "outputs": [
        {
          "name": "",
          "type": "uint256"
        }
      ],
      "payable": false,
      "stateMutability": "view",
      "type": "function"
    },
    {
      "constant": true,
      "inputs": [],
      "name": "decimals",
      "outputs": [
        {
          "name": "",
          "type": "uint256"
        }
      ],
      "payable": false,
      "stateMutability": "view",
      "type": "function"
    },
    {
      "constant": true,
      "inputs": [],
      "name": "exchangeRate",
      "outputs": [
        {
          "name": "",
          "type": "uint256"
        }
      ],
      "payable": false,
      "stateMutability": "view",
      "type": "function"
    },
    {
      "constant": true,
      "inputs": [],
      "name": "isOpen",
      "outputs": [
        {
          "name": "",
          "type": "bool"
        }
      ],
      "payable": false,
      "stateMutability": "view",
      "type": "function"
    },
    {
      "constant": false,
      "inputs": [],
      "name": "renounceOwnership",
      "outputs": [],
      "payable": false,
      "stateMutability": "nonpayable",
      "type": "function"
    },
    {
      "constant": true,
      "inputs": [],
      "name": "tokenPrice",
      "outputs": [
        {
          "name": "",
          "type": "uint256"
        }
      ],
      "payable": false,
      "stateMutability": "view",
      "type": "function"
    },
    {
      "constant": true,
      "inputs": [],
      "name": "newFundsWallet",
      "outputs": [
        {
          "name": "",
          "type": "address"
        }
      ],
      "payable": false,
      "stateMutability": "view",
      "type": "function"
    },
    {
      "constant": true,
      "inputs": [],
      "name": "owner",
      "outputs": [
        {
          "name": "",
          "type": "address"
        }
      ],
      "payable": false,
      "stateMutability": "view",
      "type": "function"
    },
    {
      "constant": true,
      "inputs": [],
      "name": "newTokensWallet",
      "outputs": [
        {
          "name": "",
          "type": "address"
        }
      ],
      "payable": false,
      "stateMutability": "view",
      "type": "function"
    },
    {
      "constant": true,
      "inputs": [],
      "name": "subsequentTotalSupply",
      "outputs": [
        {
          "name": "",
          "type": "uint256"
        }
      ],
      "payable": false,
      "stateMutability": "view",
      "type": "function"
    },
    {
      "constant": true,
      "inputs": [],
      "name": "dc",
      "outputs": [
        {
          "name": "",
          "type": "address"
        }
      ],
      "payable": false,
      "stateMutability": "view",
      "type": "function"
    },
    {
      "constant": false,
      "inputs": [
        {
          "name": "newOwner",
          "type": "address"
        }
      ],
      "name": "transferOwnership",
      "outputs": [],
      "payable": false,
      "stateMutability": "nonpayable",
      "type": "function"
    },
    {
      "inputs": [
        {
          "name": "_contractAddress",
          "type": "address"
        }
      ],
      "payable": false,
      "stateMutability": "nonpayable",
      "type": "constructor"
    },
    {
      "payable": true,
      "stateMutability": "payable",
      "type": "fallback"
    },
    {
      "anonymous": false,
      "inputs": [
        {
          "indexed": false,
          "name": "_newSupplyAdded",
          "type": "uint256"
        }
      ],
      "name": "IncreaseSupplyOfTSD",
      "type": "event"
    },
    {
      "anonymous": false,
      "inputs": [
        {
          "indexed": false,
          "name": "_totalSupply",
          "type": "uint256"
        }
      ],
      "name": "NewTotalSupplyOfTSD",
      "type": "event"
    },
    {
      "anonymous": false,
      "inputs": [
        {
          "indexed": false,
          "name": "_from",
          "type": "address"
        },
        {
          "indexed": false,
          "name": "_to",
          "type": "address"
        },
        {
          "indexed": false,
          "name": "_amount",
          "type": "uint256"
        }
      ],
      "name": "Transfer",
      "type": "event"
    },
    {
      "anonymous": false,
      "inputs": [
        {
          "indexed": false,
          "name": "_previousTotal",
          "type": "uint256"
        },
        {
          "indexed": false,
          "name": "_newTotal",
          "type": "uint256"
        }
      ],
      "name": "EthRaisedUpdated",
      "type": "event"
    },
    {
      "anonymous": false,
      "inputs": [
        {
          "indexed": false,
          "name": "prevExchangeRate",
          "type": "uint256"
        },
        {
          "indexed": false,
          "name": "newExchangeRate",
          "type": "uint256"
        }
      ],
      "name": "ExhangeRateUpdated",
      "type": "event"
    },
    {
      "anonymous": false,
      "inputs": [
        {
          "indexed": false,
          "name": "_contract",
          "type": "address"
        },
        {
          "indexed": false,
          "name": "_isOpen",
          "type": "bool"
        }
      ],
      "name": "SubsequentContractOpened",
      "type": "event"
    },
    {
      "anonymous": false,
      "inputs": [
        {
          "indexed": false,
          "name": "variable",
          "type": "string"
        },
        {
          "indexed": false,
          "name": "value",
          "type": "uint256"
        }
      ],
      "name": "Debugger",
      "type": "event"
    },
    {
      "anonymous": false,
      "inputs": [
        {
          "indexed": false,
          "name": "variable",
          "type": "string"
        }
      ],
      "name": "DebugStrings",
      "type": "event"
    },
    {
      "anonymous": false,
      "inputs": [
        {
          "indexed": false,
          "name": "name",
          "type": "string"
        },
        {
          "indexed": false,
          "name": "_address",
          "type": "address"
        }
      ],
      "name": "DebugAddress",
      "type": "event"
    },
    {
      "anonymous": false,
      "inputs": [
        {
          "indexed": true,
          "name": "previousOwner",
          "type": "address"
        }
      ],
      "name": "OwnershipRenounced",
      "type": "event"
    },
    {
      "anonymous": false,
      "inputs": [
        {
          "indexed": true,
          "name": "previousOwner",
          "type": "address"
        },
        {
          "indexed": true,
          "name": "newOwner",
          "type": "address"
        }
      ],
      "name": "OwnershipTransferred",
      "type": "event"
    },
    {
      "constant": false,
      "inputs": [
        {
          "name": "_newRate",
          "type": "uint256"
        }
      ],
      "name": "updateTheExchangeRate",
      "outputs": [
        {
          "name": "",
          "type": "bool"
        }
      ],
      "payable": false,
      "stateMutability": "nonpayable",
      "type": "function"
    },
    {
      "constant": false,
      "inputs": [
        {
          "name": "_newAddress",
          "type": "address"
        }
      ],
      "name": "changeOracleAddress",
      "outputs": [],
      "payable": false,
      "stateMutability": "nonpayable",
      "type": "function"
    },
    {
      "constant": false,
      "inputs": [
        {
          "name": "_addresses",
          "type": "address[]"
        }
      ],
      "name": "createWhiteListedMapping",
      "outputs": [],
      "payable": false,
      "stateMutability": "nonpayable",
      "type": "function"
    },
    {
      "constant": true,
      "inputs": [
        {
          "name": "_address",
          "type": "address"
        }
      ],
      "name": "isWhiteListed",
      "outputs": [
        {
          "name": "",
          "type": "bool"
        }
      ],
      "payable": false,
      "stateMutability": "view",
      "type": "function"
    },
    {
      "constant": false,
      "inputs": [],
      "name": "openSubsequentSale",
      "outputs": [
        {
          "name": "",
          "type": "bool"
        }
      ],
      "payable": false,
      "stateMutability": "nonpayable",
      "type": "function"
    },
    {
      "constant": false,
      "inputs": [],
      "name": "closeSubsequentSale",
      "outputs": [
        {
          "name": "",
          "type": "bool"
        }
      ],
      "payable": false,
      "stateMutability": "nonpayable",
      "type": "function"
    },
    {
      "constant": false,
      "inputs": [
        {
          "name": "_newTokensWallet",
          "type": "address"
        },
        {
          "name": "_newFundsWallet",
          "type": "address"
        },
        {
          "name": "_rate",
          "type": "uint256"
        }
      ],
      "name": "setTokenWalletAddressAndExchangeRate",
      "outputs": [],
      "payable": false,
      "stateMutability": "nonpayable",
      "type": "function"
    },
    {
      "constant": false,
      "inputs": [
        {
          "name": "_amount",
          "type": "uint256"
        }
      ],
      "name": "increaseTotalSupplyAndAllocateTokens",
      "outputs": [],
      "payable": false,
      "stateMutability": "nonpayable",
      "type": "function"
    },
    {
      "constant": false,
      "inputs": [],
      "name": "buySubsequentTokens",
      "outputs": [],
      "payable": true,
      "stateMutability": "payable",
      "type": "function"
    }
  ],
  "bytecode": "0x608060405260326005556012600655600654600a0a6007556000600a60146101000a81548160ff02191690831515021790555034801561003e57600080fd5b50604051602080611fb383398101806040528101908080519060200190929190505050336000806101000a81548173ffffffffffffffffffffffffffffffffffffffff021916908373ffffffffffffffffffffffffffffffffffffffff16021790555080600160006101000a81548173ffffffffffffffffffffffffffffffffffffffff021916908373ffffffffffffffffffffffffffffffffffffffff16021790555050611ec1806100f26000396000f300608060405260043610610128576000357c0100000000000000000000000000000000000000000000000000000000900463ffffffff1680630568f811146101325780630b961e48146101615780630c8278721461018c5780633082538f146101bb578063313ce567146101e65780633ba0b9a91461021157806347535d7b1461023c5780636f9170f61461026b578063715018a6146102c65780637b78a9eb146102dd5780637ff9b596146102e75780638cd4bfeb146103125780638da5cb5b1461036957806394933572146103c0578063a229c61414610417578063a583d4f41461045c578063b9cdd19b146104c9578063ba5e02171461052f578063d8a531a61461055a578063e426efe0146105b1578063f2fde38b146105de578063fb349dbd14610621575b610130610664565b005b34801561013e57600080fd5b506101476110ec565b604051808215151515815260200191505060405180910390f35b34801561016d57600080fd5b506101766111db565b6040518082815260200191505060405180910390f35b34801561019857600080fd5b506101a16111e1565b604051808215151515815260200191505060405180910390f35b3480156101c757600080fd5b506101d061132a565b6040518082815260200191505060405180910390f35b3480156101f257600080fd5b506101fb611330565b6040518082815260200191505060405180910390f35b34801561021d57600080fd5b50610226611336565b6040518082815260200191505060405180910390f35b34801561024857600080fd5b5061025161133c565b604051808215151515815260200191505060405180910390f35b34801561027757600080fd5b506102ac600480360381019080803573ffffffffffffffffffffffffffffffffffffffff16906020019092919050505061134f565b604051808215151515815260200191505060405180910390f35b3480156102d257600080fd5b506102db6113b6565b005b6102e5610664565b005b3480156102f357600080fd5b506102fc6114b8565b6040518082815260200191505060405180910390f35b34801561031e57600080fd5b506103276114be565b604051808273ffffffffffffffffffffffffffffffffffffffff1673ffffffffffffffffffffffffffffffffffffffff16815260200191505060405180910390f35b34801561037557600080fd5b5061037e6114e4565b604051808273ffffffffffffffffffffffffffffffffffffffff1673ffffffffffffffffffffffffffffffffffffffff16815260200191505060405180910390f35b3480156103cc57600080fd5b506103d5611509565b604051808273ffffffffffffffffffffffffffffffffffffffff1673ffffffffffffffffffffffffffffffffffffffff16815260200191505060405180910390f35b34801561042357600080fd5b506104426004803603810190808035906020019092919050505061152f565b604051808215151515815260200191505060405180910390f35b34801561046857600080fd5b506104c7600480360381019080803573ffffffffffffffffffffffffffffffffffffffff169060200190929190803573ffffffffffffffffffffffffffffffffffffffff1690602001909291908035906020019092919050505061168e565b005b3480156104d557600080fd5b5061052d6004803603810190808035906020019082018035906020019080806020026020016040519081016040528093929190818152602001838360200280828437820191505050505050919291929050505061177a565b005b34801561053b57600080fd5b506105446118bd565b6040518082815260200191505060405180910390f35b34801561056657600080fd5b5061056f6118c3565b604051808273ffffffffffffffffffffffffffffffffffffffff1673ffffffffffffffffffffffffffffffffffffffff16815260200191505060405180910390f35b3480156105bd57600080fd5b506105dc600480360381019080803590602001909291905050506118e9565b005b3480156105ea57600080fd5b5061061f600480360381019080803573ffffffffffffffffffffffffffffffffffffffff169060200190929190505050611c1e565b005b34801561062d57600080fd5b50610662600480360381019080803573ffffffffffffffffffffffffffffffffffffffff169060200190929190505050611d73565b005b6000806000806000600a60149054906101000a900460ff16151561068757600080fd5b600b60003373ffffffffffffffffffffffffffffffffffffffff1673ffffffffffffffffffffffffffffffffffffffff16815260200190815260200160002060009054906101000a900460ff1615156106df57600080fd5b3494507f44ff65aad8a68a8c6633374775630786588ec2099787d7b6e539ffe885f95e14856040518080602001838152602001828103825260098152602001807f657468416d6f756e7400000000000000000000000000000000000000000000008152506020019250505060405180910390a161077b60075461076d60045488611e1290919063ffffffff16565b611e2890919063ffffffff16565b9350600160009054906101000a900473ffffffffffffffffffffffffffffffffffffffff1673ffffffffffffffffffffffffffffffffffffffff166370a08231600960009054906101000a900473ffffffffffffffffffffffffffffffffffffffff166040518263ffffffff167c0100000000000000000000000000000000000000000000000000000000028152600401808273ffffffffffffffffffffffffffffffffffffffff1673ffffffffffffffffffffffffffffffffffffffff168152602001915050602060405180830381600087803b15801561085c57600080fd5b505af1158015610870573d6000803e3d6000fd5b505050506040513d602081101561088657600080fd5b810190808051906020019092919050505092507f44ff65aad8a68a8c6633374775630786588ec2099787d7b6e539ffe885f95e148360405180806020018381526020018281038252600f8152602001807f617661696c61626c65546f6b656e7300000000000000000000000000000000008152506020019250505060405180910390a1600091507f44ff65aad8a68a8c6633374775630786588ec2099787d7b6e539ffe885f95e14846040518080602001838152602001828103825260108152602001807f746f74616c546f6b656e416d6f756e74000000000000000000000000000000008152506020019250505060405180910390a182841115610e6c577f060dfd1a5c12e859a8b6de5057fe0bd7e4b02a4dc6ff1ea5ad4e0a2b6073d67160405180806020018281038252600b8152602001807f697473206772656174657200000000000000000000000000000000000000000081525060200191505060405180910390a1610a008385611e6090919063ffffffff16565b90507f44ff65aad8a68a8c6633374775630786588ec2099787d7b6e539ffe885f95e14816040518080602001838152602001828103825260118152602001807f756e617661696c61626c65546f6b656e730000000000000000000000000000008152506020019250505060405180910390a1610a9b600754610a8d60045484611e2890919063ffffffff16565b611e1290919063ffffffff16565b91507f44ff65aad8a68a8c6633374775630786588ec2099787d7b6e539ffe885f95e14826040518080602001838152602001828103825260098152602001807f657468526566756e6400000000000000000000000000000000000000000000008152506020019250505060405180910390a1610b208286611e6090919063ffffffff16565b94507f44ff65aad8a68a8c6633374775630786588ec2099787d7b6e539ffe885f95e14856040518080602001838152602001828103825260098152602001807f657468416d6f756e7400000000000000000000000000000000000000000000008152506020019250505060405180910390a1600160009054906101000a900473ffffffffffffffffffffffffffffffffffffffff1673ffffffffffffffffffffffffffffffffffffffff166323b872dd600960009054906101000a900473ffffffffffffffffffffffffffffffffffffffff1633866040518463ffffffff167c0100000000000000000000000000000000000000000000000000000000028152600401808473ffffffffffffffffffffffffffffffffffffffff1673ffffffffffffffffffffffffffffffffffffffff1681526020018373ffffffffffffffffffffffffffffffffffffffff1673ffffffffffffffffffffffffffffffffffffffff1681526020018281526020019350505050602060405180830381600087803b158015610cad57600080fd5b505af1158015610cc1573d6000803e3d6000fd5b505050506040513d6020811015610cd757600080fd5b8101908080519060200190929190505050506000821115610d3a573373ffffffffffffffffffffffffffffffffffffffff166108fc839081150290604051600060405180830381858888f19350505050158015610d38573d6000803e3d6000fd5b505b600860009054906101000a900473ffffffffffffffffffffffffffffffffffffffff1673ffffffffffffffffffffffffffffffffffffffff166108fc869081150290604051600060405180830381858888f19350505050158015610da2573d6000803e3d6000fd5b50600160009054906101000a900473ffffffffffffffffffffffffffffffffffffffff1673ffffffffffffffffffffffffffffffffffffffff1663822fd6cd866040518263ffffffff167c010000000000000000000000000000000000000000000000000000000002815260040180828152602001915050600060405180830381600087803b158015610e3457600080fd5b505af1158015610e48573d6000803e3d6000fd5b505050506000600a60146101000a81548160ff0219169083151502179055506110e5565b838310151515610e7b57600080fd5b600160009054906101000a900473ffffffffffffffffffffffffffffffffffffffff1673ffffffffffffffffffffffffffffffffffffffff166323b872dd600960009054906101000a900473ffffffffffffffffffffffffffffffffffffffff1633876040518463ffffffff167c0100000000000000000000000000000000000000000000000000000000028152600401808473ffffffffffffffffffffffffffffffffffffffff1673ffffffffffffffffffffffffffffffffffffffff1681526020018373ffffffffffffffffffffffffffffffffffffffff1673ffffffffffffffffffffffffffffffffffffffff1681526020018281526020019350505050602060405180830381600087803b158015610f9657600080fd5b505af1158015610faa573d6000803e3d6000fd5b505050506040513d6020811015610fc057600080fd5b810190808051906020019092919050505050600860009054906101000a900473ffffffffffffffffffffffffffffffffffffffff1673ffffffffffffffffffffffffffffffffffffffff166108fc869081150290604051600060405180830381858888f1935050505015801561103a573d6000803e3d6000fd5b50600160009054906101000a900473ffffffffffffffffffffffffffffffffffffffff1673ffffffffffffffffffffffffffffffffffffffff1663822fd6cd866040518263ffffffff167c010000000000000000000000000000000000000000000000000000000002815260040180828152602001915050600060405180830381600087803b1580156110cc57600080fd5b505af11580156110e0573d6000803e3d6000fd5b505050505b5050505050565b60008060009054906101000a900473ffffffffffffffffffffffffffffffffffffffff1673ffffffffffffffffffffffffffffffffffffffff163373ffffffffffffffffffffffffffffffffffffffff1614151561114957600080fd5b6000600a60146101000a81548160ff0219169083151502179055507faf3f4f7b0ffb18ebec20432ed523bf9463ffd3e9911e56e09b6de12e24be851d306000604051808373ffffffffffffffffffffffffffffffffffffffff1673ffffffffffffffffffffffffffffffffffffffff168152602001821515151581526020019250505060405180910390a16001905090565b60035481565b60008060009054906101000a900473ffffffffffffffffffffffffffffffffffffffff1673ffffffffffffffffffffffffffffffffffffffff163373ffffffffffffffffffffffffffffffffffffffff1614151561123e57600080fd5b6000600960009054906101000a900473ffffffffffffffffffffffffffffffffffffffff1673ffffffffffffffffffffffffffffffffffffffff161415151561128657600080fd5b60006004541415151561129857600080fd5b6001600a60146101000a81548160ff0219169083151502179055507faf3f4f7b0ffb18ebec20432ed523bf9463ffd3e9911e56e09b6de12e24be851d306001604051808373ffffffffffffffffffffffffffffffffffffffff1673ffffffffffffffffffffffffffffffffffffffff168152602001821515151581526020019250505060405180910390a16001905090565b60075481565b60065481565b60045481565b600a60149054906101000a900460ff1681565b6000600b60008373ffffffffffffffffffffffffffffffffffffffff1673ffffffffffffffffffffffffffffffffffffffff16815260200190815260200160002060009054906101000a900460ff16156113ac57600190506113b1565b600090505b919050565b6000809054906101000a900473ffffffffffffffffffffffffffffffffffffffff1673ffffffffffffffffffffffffffffffffffffffff163373ffffffffffffffffffffffffffffffffffffffff1614151561141157600080fd5b6000809054906101000a900473ffffffffffffffffffffffffffffffffffffffff1673ffffffffffffffffffffffffffffffffffffffff167ff8df31144d9c2f0f6b59d69b8b98abd5459d07f2742c4df920b25aae33c6482060405160405180910390a260008060006101000a81548173ffffffffffffffffffffffffffffffffffffffff021916908373ffffffffffffffffffffffffffffffffffffffff160217905550565b60055481565b600860009054906101000a900473ffffffffffffffffffffffffffffffffffffffff1681565b6000809054906101000a900473ffffffffffffffffffffffffffffffffffffffff1681565b600960009054906101000a900473ffffffffffffffffffffffffffffffffffffffff1681565b6000806000806000809054906101000a900473ffffffffffffffffffffffffffffffffffffffff1673ffffffffffffffffffffffffffffffffffffffff163373ffffffffffffffffffffffffffffffffffffffff1614806115dd5750600a60009054906101000a900473ffffffffffffffffffffffffffffffffffffffff1673ffffffffffffffffffffffffffffffffffffffff163373ffffffffffffffffffffffffffffffffffffffff16145b15156115e857600080fd5b84600381905550600454925064e8d4a51000915061162685611618620f4240600554611e2890919063ffffffff16565b611e1290919063ffffffff16565b905061163b8183611e2890919063ffffffff16565b6004819055507f9a4a0b4ec1a5f7ce40f0bbb5afddc8a88ed1279508f5d92b5056dcffdff438d983600454604051808381526020018281526020019250505060405180910390a160019350505050919050565b6000809054906101000a900473ffffffffffffffffffffffffffffffffffffffff1673ffffffffffffffffffffffffffffffffffffffff163373ffffffffffffffffffffffffffffffffffffffff161415156116e957600080fd5b6116f28161152f565b5081600860006101000a81548173ffffffffffffffffffffffffffffffffffffffff021916908373ffffffffffffffffffffffffffffffffffffffff16021790555082600960006101000a81548173ffffffffffffffffffffffffffffffffffffffff021916908373ffffffffffffffffffffffffffffffffffffffff160217905550505050565b60008060009054906101000a900473ffffffffffffffffffffffffffffffffffffffff1673ffffffffffffffffffffffffffffffffffffffff163373ffffffffffffffffffffffffffffffffffffffff1614806118245750600a60009054906101000a900473ffffffffffffffffffffffffffffffffffffffff1673ffffffffffffffffffffffffffffffffffffffff163373ffffffffffffffffffffffffffffffffffffffff16145b151561182f57600080fd5b600090505b81518110156118b9576001600b6000848481518110151561185157fe5b9060200190602002015173ffffffffffffffffffffffffffffffffffffffff1673ffffffffffffffffffffffffffffffffffffffff16815260200190815260200160002060006101000a81548160ff0219169083151502179055508080600101915050611834565b5050565b60025481565b600160009054906101000a900473ffffffffffffffffffffffffffffffffffffffff1681565b60008060008060009054906101000a900473ffffffffffffffffffffffffffffffffffffffff1673ffffffffffffffffffffffffffffffffffffffff163373ffffffffffffffffffffffffffffffffffffffff1614151561194957600080fd5b6000600960009054906101000a900473ffffffffffffffffffffffffffffffffffffffff1673ffffffffffffffffffffffffffffffffffffffff161415151561199157600080fd5b6119a660075485611e2890919063ffffffff16565b9250600160009054906101000a900473ffffffffffffffffffffffffffffffffffffffff1673ffffffffffffffffffffffffffffffffffffffff166318160ddd6040518163ffffffff167c0100000000000000000000000000000000000000000000000000000000028152600401602060405180830381600087803b158015611a2e57600080fd5b505af1158015611a42573d6000803e3d6000fd5b505050506040513d6020811015611a5857600080fd5b81019080805190602001909291905050509150611a7e8383611e7990919063ffffffff16565b905082600281905550600160009054906101000a900473ffffffffffffffffffffffffffffffffffffffff1673ffffffffffffffffffffffffffffffffffffffff1663d05636e7600960009054906101000a900473ffffffffffffffffffffffffffffffffffffffff16856040518363ffffffff167c0100000000000000000000000000000000000000000000000000000000028152600401808373ffffffffffffffffffffffffffffffffffffffff1673ffffffffffffffffffffffffffffffffffffffff16815260200182815260200192505050602060405180830381600087803b158015611b6e57600080fd5b505af1158015611b82573d6000803e3d6000fd5b505050506040513d6020811015611b9857600080fd5b8101908080519060200190929190505050507f430d5260f09acb5101ae624d32ddd05d17db89e481131fa593de45f42fb2ba20846040518082815260200191505060405180910390a17f952a1875aa003fd2ebcc54a9d6b2a1a2ae65478646e82ac3aa13c75d23e8324b816040518082815260200191505060405180910390a150505050565b6000809054906101000a900473ffffffffffffffffffffffffffffffffffffffff1673ffffffffffffffffffffffffffffffffffffffff163373ffffffffffffffffffffffffffffffffffffffff16141515611c7957600080fd5b600073ffffffffffffffffffffffffffffffffffffffff168173ffffffffffffffffffffffffffffffffffffffff1614151515611cb557600080fd5b8073ffffffffffffffffffffffffffffffffffffffff166000809054906101000a900473ffffffffffffffffffffffffffffffffffffffff1673ffffffffffffffffffffffffffffffffffffffff167f8be0079c531659141344cd1fd0a4f28419497f9722a3daafe3b4186f6b6457e060405160405180910390a3806000806101000a81548173ffffffffffffffffffffffffffffffffffffffff021916908373ffffffffffffffffffffffffffffffffffffffff16021790555050565b6000809054906101000a900473ffffffffffffffffffffffffffffffffffffffff1673ffffffffffffffffffffffffffffffffffffffff163373ffffffffffffffffffffffffffffffffffffffff16141515611dce57600080fd5b80600a60006101000a81548173ffffffffffffffffffffffffffffffffffffffff021916908373ffffffffffffffffffffffffffffffffffffffff16021790555050565b60008183811515611e1f57fe5b04905092915050565b600080831415611e3b5760009050611e5a565b8183029050818382811515611e4c57fe5b04141515611e5657fe5b8090505b92915050565b6000828211151515611e6e57fe5b818303905092915050565b60008183019050828110151515611e8c57fe5b809050929150505600a165627a7a723058204772143a99daf84b0b6eda66d1f6e88c3a928b129ea0a431d6d82bd580879b4d0029",
  "source": "pragma solidity ^0.4.23;\n\nimport \"./FoundationContracts/Ownable.sol\";\nimport \"./TSD.sol\";\n\ncontract TSDSubsequentSupply is Ownable {\n    using SafeMath for uint256;\n\n    TSD public dc;\n\n    uint256 public subsequentTotalSupply;\n    uint256 public ethExchangeRate;\n    uint256 public exchangeRate;\n    uint256 public tokenPrice = 50; // 50 cents (USD)\n    uint256 public decimals = 18;\n    uint256 public decimalMultiplier = uint256(10) ** decimals;\n    // Wallet address that ether will be transferred to\n    address public newFundsWallet;\n    // Wallet address that will hold the new token amount in the main contract\n    address public newTokensWallet;\n    // Addresses for external helpers\n    address private oracleAddress;\n\n    bool public isOpen = false;\n\n    // whitelisted addresses\n    mapping(address => bool) whiteListed;\n\n    constructor(address _contractAddress) public {\n        dc = TSD(_contractAddress);\n    }\n\n    event IncreaseSupplyOfTSD(uint256 _newSupplyAdded);\n    event NewTotalSupplyOfTSD(uint256 _totalSupply);\n    event Transfer(address _from, address _to, uint256 _amount);\n    event EthRaisedUpdated(uint256 _previousTotal, uint256 _newTotal);\n    event ExhangeRateUpdated(uint256 prevExchangeRate, uint256 newExchangeRate);\n    event SubsequentContractOpened(address _contract, bool _isOpen);\n    event Debugger(string variable, uint256 value);\n    event DebugStrings(string variable);\n    event DebugAddress(string name, address _address);\n\n    // Updates the ETH => TSD exchange rate\n    function updateTheExchangeRate(uint256 _newRate) public onlyRestricted returns (bool) {\n        ethExchangeRate = _newRate;\n        uint256 currentRate = exchangeRate;\n        uint256 oneSzabo = 1 szabo;\n        uint256 tokenInSzabo = tokenPrice.mul(1000000).div(_newRate);\n        exchangeRate = oneSzabo.mul(tokenInSzabo);\n        emit ExhangeRateUpdated(currentRate, exchangeRate);\n        return true;\n    }\n\n    // Change the address of the oracle\n    function changeOracleAddress(address _newAddress) external onlyOwner {\n      oracleAddress = _newAddress;\n    }\n\n    // creates the whitelist mapping\n    function createWhiteListedMapping(address[] _addresses) public onlyRestricted {\n        for (uint256 i = 0; i < _addresses.length; i++) {\n            whiteListed[_addresses[i]] = true;\n        }\n    }\n\n    function isWhiteListed(address _address) external view returns (bool) {\n        if (whiteListed[_address]) {\n            return true;\n        } else {\n            return false;\n        }\n    }\n\n    // NOTE: when this contract is opened, the owner of the newTokensWallet\n    // needs to approve this wallet as the spender\n    // This will be done through the approve function in the main contract\n\n    function openSubsequentSale() onlyOwner external returns (bool) {\n        require(newTokensWallet != 0x0);\n        require(exchangeRate != 0);\n        isOpen = true;\n\n        emit SubsequentContractOpened(address(this), true);\n        return true;\n    }\n\n    function closeSubsequentSale() onlyOwner external returns (bool) {\n        isOpen = false;\n\n        emit SubsequentContractOpened(address(this), false);\n        return true;\n    }\n\n    function setTokenWalletAddressAndExchangeRate(address _newTokensWallet, address _newFundsWallet, uint256 _rate) onlyOwner external {\n        updateTheExchangeRate(_rate);\n        newFundsWallet = _newFundsWallet;\n        newTokensWallet = _newTokensWallet;\n    }\n\n    function increaseTotalSupplyAndAllocateTokens(uint256 _amount) onlyOwner public {\n        require(newTokensWallet != 0x0);\n        uint256 increaseAmount = _amount.mul(decimalMultiplier);\n        uint256 currentTotalSupply = dc.totalSupply();\n        uint256 newTotalSupply = currentTotalSupply.add(increaseAmount);\n        subsequentTotalSupply = increaseAmount;\n        dc.increaseTotalSupplyAndAllocateTokens(newTokensWallet, increaseAmount);\n        emit IncreaseSupplyOfTSD(_amount);\n        emit NewTotalSupplyOfTSD(newTotalSupply);\n    }\n\n    function () payable public {\n        buySubsequentTokens();\n    }\n\n    function buySubsequentTokens() payable public {\n        require(isOpen);\n        require(whiteListed[msg.sender]);\n        // ETH received by spender\n        uint256 ethAmount = msg.value;\n        emit Debugger(\"ethAmount\", ethAmount);\n        // token amount based on ETH / exchangeRate result\n        // Multiply with the decimalMultiplier to get total tokens (to 18 decimal place)\n        uint256 totalTokenAmount = ethAmount.div(exchangeRate).mul(decimalMultiplier);\n        // tokens avaialble to sell are the remaining tokens in the newTokensWallet\n        // get a reference to the total eth raised from the main contract\n        uint256 availableTokens = dc.balanceOf(newTokensWallet);\n        emit Debugger(\"availableTokens\", availableTokens);\n        uint256 ethRefund = 0;\n        uint256 unavailableTokens;\n        emit Debugger(\"totalTokenAmount\", totalTokenAmount);\n\n        if (totalTokenAmount > availableTokens) {\n            emit DebugStrings(\"its greater\");\n            // additional tokens that aren't avaialble to be sold\n            // tokenAmount is the tokens requested by buyer\n            // availableTokens are all the tokens left in the supplying wallet i.e newTokensWallet\n            unavailableTokens = totalTokenAmount.sub(availableTokens);\n            emit Debugger(\"unavailableTokens\", unavailableTokens);\n            // determine the unused ether amount by seeing how many tokens were surplus\n            // i.e 'availableTokens' and reverse calculating their ETH equivalent\n            // divide by decimalMultiplier as unavailableTokens are 10^18\n            ethRefund = unavailableTokens.mul(exchangeRate).div(decimalMultiplier);\n            emit Debugger(\"ethRefund\", ethRefund);\n            // subtract the refund amount from the eth amount received by the tx\n            ethAmount = ethAmount.sub(ethRefund);\n            emit Debugger(\"ethAmount\", ethAmount);\n            // make the transfer\n            dc.transferFrom(newTokensWallet, msg.sender, availableTokens);\n            // issue refund\n            if (ethRefund > 0) {\n                msg.sender.transfer(ethRefund);\n            }\n            // transfer ether to our wallet\n            // inherited transfer function will emit a Transfer event\n            newFundsWallet.transfer(ethAmount);\n            // increase the amount of eth raised in the main contract\n            // event is emitted in main contract\n            dc.increaseEthRaisedBySubsequentSale(ethAmount);\n            // close sale as all tokens are sold\n            isOpen = false;\n        } else {\n            require(availableTokens >= totalTokenAmount);\n            // inherited transfer function will emit a Transfer event\n            dc.transferFrom(newTokensWallet, msg.sender, totalTokenAmount);\n            // transfer either to newFundsWallet\n            newFundsWallet.transfer(ethAmount);\n            // increase the amount of eth raised in the main contract\n            // event is emitted in main contract\n            dc.increaseEthRaisedBySubsequentSale(ethAmount);\n        }\n    }\n\n    modifier onlyRestricted () {\n      require(msg.sender == owner || msg.sender == oracleAddress);\n      _;\n    }\n}\n",
  "sourcePath": "/Users/dandrory521/Documents/01-projects/tsd_dapp/contracts/TSDSubsequentSupply.sol",
  "compiler": {
    "name": "solc",
    "version": "0.4.23+commit.124ca40d.Emscripten.clang"
  },
  "schemaVersion": "2.0.0",
  "updatedAt": "2018-06-13T08:07:29.681Z"
}