{
  "contractName": "TSDSubsequentSupply",
  "abi": [
    {
      "constant": true,
      "inputs": [],
      "name": "decimalMultiplier",
      "outputs": [
        {
          "name": "",
          "type": "uint256"
        }
      ],
      "payable": false,
      "stateMutability": "view",
      "type": "function"
    },
    {
      "constant": true,
      "inputs": [],
      "name": "decimals",
      "outputs": [
        {
          "name": "",
          "type": "uint256"
        }
      ],
      "payable": false,
      "stateMutability": "view",
      "type": "function"
    },
    {
      "constant": true,
      "inputs": [],
      "name": "exchangeRate",
      "outputs": [
        {
          "name": "",
          "type": "uint256"
        }
      ],
      "payable": false,
      "stateMutability": "view",
      "type": "function"
    },
    {
      "constant": true,
      "inputs": [],
      "name": "isOpen",
      "outputs": [
        {
          "name": "",
          "type": "bool"
        }
      ],
      "payable": false,
      "stateMutability": "view",
      "type": "function"
    },
    {
      "constant": false,
      "inputs": [],
      "name": "renounceOwnership",
      "outputs": [],
      "payable": false,
      "stateMutability": "nonpayable",
      "type": "function"
    },
    {
      "constant": true,
      "inputs": [],
      "name": "newFundsWallet",
      "outputs": [
        {
          "name": "",
          "type": "address"
        }
      ],
      "payable": false,
      "stateMutability": "view",
      "type": "function"
    },
    {
      "constant": true,
      "inputs": [],
      "name": "owner",
      "outputs": [
        {
          "name": "",
          "type": "address"
        }
      ],
      "payable": false,
      "stateMutability": "view",
      "type": "function"
    },
    {
      "constant": true,
      "inputs": [],
      "name": "newTokensWallet",
      "outputs": [
        {
          "name": "",
          "type": "address"
        }
      ],
      "payable": false,
      "stateMutability": "view",
      "type": "function"
    },
    {
      "constant": true,
      "inputs": [],
      "name": "subsequentTotalSupply",
      "outputs": [
        {
          "name": "",
          "type": "uint256"
        }
      ],
      "payable": false,
      "stateMutability": "view",
      "type": "function"
    },
    {
      "constant": true,
      "inputs": [],
      "name": "dc",
      "outputs": [
        {
          "name": "",
          "type": "address"
        }
      ],
      "payable": false,
      "stateMutability": "view",
      "type": "function"
    },
    {
      "constant": false,
      "inputs": [
        {
          "name": "newOwner",
          "type": "address"
        }
      ],
      "name": "transferOwnership",
      "outputs": [],
      "payable": false,
      "stateMutability": "nonpayable",
      "type": "function"
    },
    {
      "inputs": [
        {
          "name": "_contractAddress",
          "type": "address"
        }
      ],
      "payable": false,
      "stateMutability": "nonpayable",
      "type": "constructor"
    },
    {
      "payable": true,
      "stateMutability": "payable",
      "type": "fallback"
    },
    {
      "anonymous": false,
      "inputs": [
        {
          "indexed": false,
          "name": "_newSupplyAdded",
          "type": "uint256"
        }
      ],
      "name": "IncreaseSupplyOfTSD",
      "type": "event"
    },
    {
      "anonymous": false,
      "inputs": [
        {
          "indexed": false,
          "name": "_totalSupply",
          "type": "uint256"
        }
      ],
      "name": "NewTotalSupplyOfTSD",
      "type": "event"
    },
    {
      "anonymous": false,
      "inputs": [
        {
          "indexed": false,
          "name": "_from",
          "type": "address"
        },
        {
          "indexed": false,
          "name": "_to",
          "type": "address"
        },
        {
          "indexed": false,
          "name": "_amount",
          "type": "uint256"
        }
      ],
      "name": "Transfer",
      "type": "event"
    },
    {
      "anonymous": false,
      "inputs": [
        {
          "indexed": false,
          "name": "_previousTotal",
          "type": "uint256"
        },
        {
          "indexed": false,
          "name": "_newTotal",
          "type": "uint256"
        }
      ],
      "name": "EthRaisedUpdated",
      "type": "event"
    },
    {
      "anonymous": false,
      "inputs": [
        {
          "indexed": false,
          "name": "prevExchangeRate",
          "type": "uint256"
        },
        {
          "indexed": false,
          "name": "newExchangeRate",
          "type": "uint256"
        }
      ],
      "name": "ExhangeRateUpdated",
      "type": "event"
    },
    {
      "anonymous": false,
      "inputs": [
        {
          "indexed": false,
          "name": "_contract",
          "type": "address"
        },
        {
          "indexed": false,
          "name": "_isOpen",
          "type": "bool"
        }
      ],
      "name": "SubsequentContractOpened",
      "type": "event"
    },
    {
      "anonymous": false,
      "inputs": [
        {
          "indexed": false,
          "name": "variable",
          "type": "string"
        },
        {
          "indexed": false,
          "name": "value",
          "type": "uint256"
        }
      ],
      "name": "Debugger",
      "type": "event"
    },
    {
      "anonymous": false,
      "inputs": [
        {
          "indexed": false,
          "name": "variable",
          "type": "string"
        }
      ],
      "name": "DebugStrings",
      "type": "event"
    },
    {
      "anonymous": false,
      "inputs": [
        {
          "indexed": false,
          "name": "name",
          "type": "string"
        },
        {
          "indexed": false,
          "name": "_address",
          "type": "address"
        }
      ],
      "name": "DebugAddress",
      "type": "event"
    },
    {
      "anonymous": false,
      "inputs": [
        {
          "indexed": true,
          "name": "previousOwner",
          "type": "address"
        }
      ],
      "name": "OwnershipRenounced",
      "type": "event"
    },
    {
      "anonymous": false,
      "inputs": [
        {
          "indexed": true,
          "name": "previousOwner",
          "type": "address"
        },
        {
          "indexed": true,
          "name": "newOwner",
          "type": "address"
        }
      ],
      "name": "OwnershipTransferred",
      "type": "event"
    },
    {
      "constant": false,
      "inputs": [
        {
          "name": "_newRate",
          "type": "uint256"
        }
      ],
      "name": "updateTheExchangeRate",
      "outputs": [
        {
          "name": "",
          "type": "bool"
        }
      ],
      "payable": false,
      "stateMutability": "nonpayable",
      "type": "function"
    },
    {
      "constant": false,
      "inputs": [
        {
          "name": "_addresses",
          "type": "address[]"
        }
      ],
      "name": "createWhiteListedMapping",
      "outputs": [],
      "payable": false,
      "stateMutability": "nonpayable",
      "type": "function"
    },
    {
      "constant": true,
      "inputs": [
        {
          "name": "_address",
          "type": "address"
        }
      ],
      "name": "isWhiteListed",
      "outputs": [
        {
          "name": "",
          "type": "bool"
        }
      ],
      "payable": false,
      "stateMutability": "view",
      "type": "function"
    },
    {
      "constant": false,
      "inputs": [],
      "name": "openSubsequentSale",
      "outputs": [
        {
          "name": "",
          "type": "bool"
        }
      ],
      "payable": false,
      "stateMutability": "nonpayable",
      "type": "function"
    },
    {
      "constant": false,
      "inputs": [],
      "name": "closeSubsequentSale",
      "outputs": [
        {
          "name": "",
          "type": "bool"
        }
      ],
      "payable": false,
      "stateMutability": "nonpayable",
      "type": "function"
    },
    {
      "constant": false,
      "inputs": [
        {
          "name": "_newTokensWallet",
          "type": "address"
        },
        {
          "name": "_newFundsWallet",
          "type": "address"
        },
        {
          "name": "_rate",
          "type": "uint256"
        }
      ],
      "name": "setTokenWalletAddressAndExchangeRate",
      "outputs": [],
      "payable": false,
      "stateMutability": "nonpayable",
      "type": "function"
    },
    {
      "constant": false,
      "inputs": [
        {
          "name": "_amount",
          "type": "uint256"
        }
      ],
      "name": "increaseTotalSupplyAndAllocateTokens",
      "outputs": [],
      "payable": false,
      "stateMutability": "nonpayable",
      "type": "function"
    },
    {
      "constant": false,
      "inputs": [],
      "name": "buySubsequentTokens",
      "outputs": [],
      "payable": true,
      "stateMutability": "payable",
      "type": "function"
    }
  ],
  "bytecode": "0x60806040526012600455600454600a0a6005556000600760146101000a81548160ff02191690831515021790555034801561003957600080fd5b5060405160208061165283398101806040528101908080519060200190929190505050336000806101000a81548173ffffffffffffffffffffffffffffffffffffffff021916908373ffffffffffffffffffffffffffffffffffffffff16021790555080600160006101000a81548173ffffffffffffffffffffffffffffffffffffffff021916908373ffffffffffffffffffffffffffffffffffffffff16021790555050611565806100ed6000396000f300608060405260043610610107576000357c0100000000000000000000000000000000000000000000000000000000900463ffffffff1680630568f811146101115780630c827872146101405780633082538f1461016f578063313ce5671461019a5780633ba0b9a9146101c557806347535d7b146101f05780636f9170f61461021f578063715018a61461027a5780637b78a9eb146102915780638cd4bfeb1461029b5780638da5cb5b146102f25780639493357214610349578063a229c614146103a0578063a583d4f4146103e5578063b9cdd19b14610452578063ba5e0217146104b8578063d8a531a6146104e3578063e426efe01461053a578063f2fde38b14610567575b61010f6105aa565b005b34801561011d57600080fd5b5061012661093b565b604051808215151515815260200191505060405180910390f35b34801561014c57600080fd5b50610155610a2a565b604051808215151515815260200191505060405180910390f35b34801561017b57600080fd5b50610184610b73565b6040518082815260200191505060405180910390f35b3480156101a657600080fd5b506101af610b79565b6040518082815260200191505060405180910390f35b3480156101d157600080fd5b506101da610b7f565b6040518082815260200191505060405180910390f35b3480156101fc57600080fd5b50610205610b85565b604051808215151515815260200191505060405180910390f35b34801561022b57600080fd5b50610260600480360381019080803573ffffffffffffffffffffffffffffffffffffffff169060200190929190505050610b98565b604051808215151515815260200191505060405180910390f35b34801561028657600080fd5b5061028f610bff565b005b6102996105aa565b005b3480156102a757600080fd5b506102b0610d01565b604051808273ffffffffffffffffffffffffffffffffffffffff1673ffffffffffffffffffffffffffffffffffffffff16815260200191505060405180910390f35b3480156102fe57600080fd5b50610307610d27565b604051808273ffffffffffffffffffffffffffffffffffffffff1673ffffffffffffffffffffffffffffffffffffffff16815260200191505060405180910390f35b34801561035557600080fd5b5061035e610d4c565b604051808273ffffffffffffffffffffffffffffffffffffffff1673ffffffffffffffffffffffffffffffffffffffff16815260200191505060405180910390f35b3480156103ac57600080fd5b506103cb60048036038101908080359060200190929190505050610d72565b604051808215151515815260200191505060405180910390f35b3480156103f157600080fd5b50610450600480360381019080803573ffffffffffffffffffffffffffffffffffffffff169060200190929190803573ffffffffffffffffffffffffffffffffffffffff16906020019092919080359060200190929190505050610e42565b005b34801561045e57600080fd5b506104b660048036038101908080359060200190820180359060200190808060200260200160405190810160405280939291908181526020018383602002808284378201915050505050509192919290505050610f2e565b005b3480156104c457600080fd5b506104cd611019565b6040518082815260200191505060405180910390f35b3480156104ef57600080fd5b506104f861101f565b604051808273ffffffffffffffffffffffffffffffffffffffff1673ffffffffffffffffffffffffffffffffffffffff16815260200191505060405180910390f35b34801561054657600080fd5b5061056560048036038101908080359060200190929190505050611045565b005b34801561057357600080fd5b506105a8600480360381019080803573ffffffffffffffffffffffffffffffffffffffff16906020019092919050505061137a565b005b6000806000806000600760149054906101000a900460ff1615156105cd57600080fd5b600860003373ffffffffffffffffffffffffffffffffffffffff1673ffffffffffffffffffffffffffffffffffffffff16815260200190815260200160002060009054906101000a900460ff16151561062557600080fd5b3494507f44ff65aad8a68a8c6633374775630786588ec2099787d7b6e539ffe885f95e14856040518080602001838152602001828103825260098152602001807f657468416d6f756e7400000000000000000000000000000000000000000000008152506020019250505060405180910390a16106c16005546106b3600354886114cf90919063ffffffff16565b6114e590919063ffffffff16565b9350600160009054906101000a900473ffffffffffffffffffffffffffffffffffffffff1673ffffffffffffffffffffffffffffffffffffffff166370a08231600760009054906101000a900473ffffffffffffffffffffffffffffffffffffffff166040518263ffffffff167c0100000000000000000000000000000000000000000000000000000000028152600401808273ffffffffffffffffffffffffffffffffffffffff1673ffffffffffffffffffffffffffffffffffffffff168152602001915050602060405180830381600087803b1580156107a257600080fd5b505af11580156107b6573d6000803e3d6000fd5b505050506040513d60208110156107cc57600080fd5b810190808051906020019092919050505092507f44ff65aad8a68a8c6633374775630786588ec2099787d7b6e539ffe885f95e148360405180806020018381526020018281038252600f8152602001807f617661696c61626c65546f6b656e7300000000000000000000000000000000008152506020019250505060405180910390a1600091507f44ff65aad8a68a8c6633374775630786588ec2099787d7b6e539ffe885f95e14846040518080602001838152602001828103825260108152602001807f746f74616c546f6b656e416d6f756e74000000000000000000000000000000008152506020019250505060405180910390a182841115610934577f060dfd1a5c12e859a8b6de5057fe0bd7e4b02a4dc6ff1ea5ad4e0a2b6073d67160405180806020018281038252600b8152602001807f697473206772656174657200000000000000000000000000000000000000000081525060200191505060405180910390a15b5050505050565b60008060009054906101000a900473ffffffffffffffffffffffffffffffffffffffff1673ffffffffffffffffffffffffffffffffffffffff163373ffffffffffffffffffffffffffffffffffffffff1614151561099857600080fd5b6000600760146101000a81548160ff0219169083151502179055507faf3f4f7b0ffb18ebec20432ed523bf9463ffd3e9911e56e09b6de12e24be851d306000604051808373ffffffffffffffffffffffffffffffffffffffff1673ffffffffffffffffffffffffffffffffffffffff168152602001821515151581526020019250505060405180910390a16001905090565b60008060009054906101000a900473ffffffffffffffffffffffffffffffffffffffff1673ffffffffffffffffffffffffffffffffffffffff163373ffffffffffffffffffffffffffffffffffffffff16141515610a8757600080fd5b6000600760009054906101000a900473ffffffffffffffffffffffffffffffffffffffff1673ffffffffffffffffffffffffffffffffffffffff1614151515610acf57600080fd5b600060035414151515610ae157600080fd5b6001600760146101000a81548160ff0219169083151502179055507faf3f4f7b0ffb18ebec20432ed523bf9463ffd3e9911e56e09b6de12e24be851d306001604051808373ffffffffffffffffffffffffffffffffffffffff1673ffffffffffffffffffffffffffffffffffffffff168152602001821515151581526020019250505060405180910390a16001905090565b60055481565b60045481565b60035481565b600760149054906101000a900460ff1681565b6000600860008373ffffffffffffffffffffffffffffffffffffffff1673ffffffffffffffffffffffffffffffffffffffff16815260200190815260200160002060009054906101000a900460ff1615610bf55760019050610bfa565b600090505b919050565b6000809054906101000a900473ffffffffffffffffffffffffffffffffffffffff1673ffffffffffffffffffffffffffffffffffffffff163373ffffffffffffffffffffffffffffffffffffffff16141515610c5a57600080fd5b6000809054906101000a900473ffffffffffffffffffffffffffffffffffffffff1673ffffffffffffffffffffffffffffffffffffffff167ff8df31144d9c2f0f6b59d69b8b98abd5459d07f2742c4df920b25aae33c6482060405160405180910390a260008060006101000a81548173ffffffffffffffffffffffffffffffffffffffff021916908373ffffffffffffffffffffffffffffffffffffffff160217905550565b600660009054906101000a900473ffffffffffffffffffffffffffffffffffffffff1681565b6000809054906101000a900473ffffffffffffffffffffffffffffffffffffffff1681565b600760009054906101000a900473ffffffffffffffffffffffffffffffffffffffff1681565b60008060008060009054906101000a900473ffffffffffffffffffffffffffffffffffffffff1673ffffffffffffffffffffffffffffffffffffffff163373ffffffffffffffffffffffffffffffffffffffff16141515610dd257600080fd5b600354915064e8d4a510009050610df284826114e590919063ffffffff16565b6003819055507f9a4a0b4ec1a5f7ce40f0bbb5afddc8a88ed1279508f5d92b5056dcffdff438d98285604051808381526020018281526020019250505060405180910390a1600192505050919050565b6000809054906101000a900473ffffffffffffffffffffffffffffffffffffffff1673ffffffffffffffffffffffffffffffffffffffff163373ffffffffffffffffffffffffffffffffffffffff16141515610e9d57600080fd5b610ea681610d72565b5081600660006101000a81548173ffffffffffffffffffffffffffffffffffffffff021916908373ffffffffffffffffffffffffffffffffffffffff16021790555082600760006101000a81548173ffffffffffffffffffffffffffffffffffffffff021916908373ffffffffffffffffffffffffffffffffffffffff160217905550505050565b60008060009054906101000a900473ffffffffffffffffffffffffffffffffffffffff1673ffffffffffffffffffffffffffffffffffffffff163373ffffffffffffffffffffffffffffffffffffffff16141515610f8b57600080fd5b600090505b8151811015611015576001600860008484815181101515610fad57fe5b9060200190602002015173ffffffffffffffffffffffffffffffffffffffff1673ffffffffffffffffffffffffffffffffffffffff16815260200190815260200160002060006101000a81548160ff0219169083151502179055508080600101915050610f90565b5050565b60025481565b600160009054906101000a900473ffffffffffffffffffffffffffffffffffffffff1681565b60008060008060009054906101000a900473ffffffffffffffffffffffffffffffffffffffff1673ffffffffffffffffffffffffffffffffffffffff163373ffffffffffffffffffffffffffffffffffffffff161415156110a557600080fd5b6000600760009054906101000a900473ffffffffffffffffffffffffffffffffffffffff1673ffffffffffffffffffffffffffffffffffffffff16141515156110ed57600080fd5b611102600554856114e590919063ffffffff16565b9250600160009054906101000a900473ffffffffffffffffffffffffffffffffffffffff1673ffffffffffffffffffffffffffffffffffffffff166318160ddd6040518163ffffffff167c0100000000000000000000000000000000000000000000000000000000028152600401602060405180830381600087803b15801561118a57600080fd5b505af115801561119e573d6000803e3d6000fd5b505050506040513d60208110156111b457600080fd5b810190808051906020019092919050505091506111da838361151d90919063ffffffff16565b905082600281905550600160009054906101000a900473ffffffffffffffffffffffffffffffffffffffff1673ffffffffffffffffffffffffffffffffffffffff1663d05636e7600760009054906101000a900473ffffffffffffffffffffffffffffffffffffffff16856040518363ffffffff167c0100000000000000000000000000000000000000000000000000000000028152600401808373ffffffffffffffffffffffffffffffffffffffff1673ffffffffffffffffffffffffffffffffffffffff16815260200182815260200192505050602060405180830381600087803b1580156112ca57600080fd5b505af11580156112de573d6000803e3d6000fd5b505050506040513d60208110156112f457600080fd5b8101908080519060200190929190505050507f430d5260f09acb5101ae624d32ddd05d17db89e481131fa593de45f42fb2ba20846040518082815260200191505060405180910390a17f952a1875aa003fd2ebcc54a9d6b2a1a2ae65478646e82ac3aa13c75d23e8324b816040518082815260200191505060405180910390a150505050565b6000809054906101000a900473ffffffffffffffffffffffffffffffffffffffff1673ffffffffffffffffffffffffffffffffffffffff163373ffffffffffffffffffffffffffffffffffffffff161415156113d557600080fd5b600073ffffffffffffffffffffffffffffffffffffffff168173ffffffffffffffffffffffffffffffffffffffff161415151561141157600080fd5b8073ffffffffffffffffffffffffffffffffffffffff166000809054906101000a900473ffffffffffffffffffffffffffffffffffffffff1673ffffffffffffffffffffffffffffffffffffffff167f8be0079c531659141344cd1fd0a4f28419497f9722a3daafe3b4186f6b6457e060405160405180910390a3806000806101000a81548173ffffffffffffffffffffffffffffffffffffffff021916908373ffffffffffffffffffffffffffffffffffffffff16021790555050565b600081838115156114dc57fe5b04905092915050565b6000808314156114f85760009050611517565b818302905081838281151561150957fe5b0414151561151357fe5b8090505b92915050565b6000818301905082811015151561153057fe5b809050929150505600a165627a7a723058203e89bc8988cec51ea4f4385dd8be31f982c316f44773e0b1e998978fbad25b070029",
  "source": "pragma solidity ^0.4.23;\n\nimport \"./FoundationContracts/Ownable.sol\";\nimport \"./TSD.sol\";\n\ncontract TSDSubsequentSupply is Ownable {\n    using SafeMath for uint256;\n    \n    TSD public dc;\n\n    uint256 public subsequentTotalSupply;\n    uint256 public exchangeRate;\n    uint256 public decimals = 18;\n    uint256 public decimalMultiplier = uint256(10) ** decimals;\n    // Wallet address that ether will be transferred to\n    address public newFundsWallet;\n    // Wallet address that will hold the new token amount in the main contract \n    address public newTokensWallet;\n    bool public isOpen = false;\n\n    // whitelisted addresses\n    mapping(address => bool) whiteListed;\n    \n    constructor(address _contractAddress) public {\n        dc = TSD(_contractAddress);\n    }\n    \n    event IncreaseSupplyOfTSD(uint256 _newSupplyAdded);\n    event NewTotalSupplyOfTSD(uint256 _totalSupply);\n    event Transfer(address _from, address _to, uint256 _amount);\n    event EthRaisedUpdated(uint256 _previousTotal, uint256 _newTotal);\n    event ExhangeRateUpdated(uint256 prevExchangeRate, uint256 newExchangeRate);\n    event SubsequentContractOpened(address _contract, bool _isOpen);\n    event Debugger(string variable, uint256 value);\n    event DebugStrings(string variable);\n    event DebugAddress(string name, address _address);\n\n    // Updates the ETH => TSD exchange rate\n    function updateTheExchangeRate(uint256 _newRate) public onlyOwner returns (bool) {\n        uint256 currentRate = exchangeRate;\n        // 0.000001 ETHER\n        uint256 oneSzabo = 1 szabo;\n        // 0.00001 ETH OTHERWISE 0.000001\n        exchangeRate = (oneSzabo).mul(_newRate);\n        emit ExhangeRateUpdated(currentRate, _newRate);\n        return true;\n    }\n\n    // creates the whitelist mapping\n    function createWhiteListedMapping(address[] _addresses) public onlyOwner {\n        for (uint256 i = 0; i < _addresses.length; i++) {\n            whiteListed[_addresses[i]] = true;\n        }\n    }\n\n    function isWhiteListed(address _address) external view returns (bool) {\n        if (whiteListed[_address]) {\n            return true;\n        } else {\n            return false;\n        }\n    }\n\n    // NOTE: when this contract is opened, the owner of the newTokensWallet\n    // needs to approve this wallet as the spender\n    // This will be done through the approve function in the main contract \n\n    function openSubsequentSale() onlyOwner external returns (bool) {\n        require(newTokensWallet != 0x0);\n        require(exchangeRate != 0);\n        isOpen = true;\n\n        emit SubsequentContractOpened(address(this), true);\n        return true;\n    }\n    \n    function closeSubsequentSale() onlyOwner external returns (bool) {\n        isOpen = false;\n\n        emit SubsequentContractOpened(address(this), false);\n        return true;\n    }\n    \n    function setTokenWalletAddressAndExchangeRate(address _newTokensWallet, address _newFundsWallet, uint256 _rate) onlyOwner external {\n        updateTheExchangeRate(_rate);\n        newFundsWallet = _newFundsWallet;\n        newTokensWallet = _newTokensWallet;\n    }\n    \n    function increaseTotalSupplyAndAllocateTokens(uint256 _amount) onlyOwner public {\n        require(newTokensWallet != 0x0);\n        uint256 increaseAmount = _amount.mul(decimalMultiplier);\n        uint256 currentTotalSupply = dc.totalSupply();\n        uint256 newTotalSupply = currentTotalSupply.add(increaseAmount);\n        subsequentTotalSupply = increaseAmount;\n        dc.increaseTotalSupplyAndAllocateTokens(newTokensWallet, increaseAmount);\n        emit IncreaseSupplyOfTSD(_amount);\n        emit NewTotalSupplyOfTSD(newTotalSupply);\n    }\n\n    function () payable public {\n        buySubsequentTokens();\n    }\n    \n    function buySubsequentTokens() payable public {\n        require(isOpen);\n        require(whiteListed[msg.sender]);\n        // ETH received by spender\n        uint256 ethAmount = msg.value;\n        emit Debugger(\"ethAmount\", ethAmount);\n        // token amount based on ETH / exchangeRate result\n        // Multiply with the decimalMultiplier to get total tokens (to 18 decimal place)\n        uint256 totalTokenAmount = ethAmount.div(exchangeRate).mul(decimalMultiplier);\n        // tokens avaialble to sell are the remaining tokens in the newTokensWallet\n        // get a reference to the total eth raised from the main contract\n        uint256 availableTokens = dc.balanceOf(newTokensWallet);\n        emit Debugger(\"availableTokens\", availableTokens);\n        uint256 ethRefund = 0;\n        uint256 unavailableTokens;\n        emit Debugger(\"totalTokenAmount\", totalTokenAmount);\n    \n        if (totalTokenAmount > availableTokens) {\n            emit DebugStrings(\"its greater\");\n        //     // additional tokens that aren't avaialble to be sold\n        //     // tokenAmount is the tokens requested by buyer\n        //     // availableTokens are all the tokens left in the supplying wallet i.e newTokensWallet\n        //     unavailableTokens = totalTokenAmount.sub(availableTokens);\n        //     emit Debugger(\"unavailableTokens\", unavailableTokens);\n        //     // determine the unused ether amount by seeing how many tokens were surplus\n        //     // i.e 'availableTokens' and reverse calculating their ETH equivalent\n        //     // divide by decimalMultiplier as unavailableTokens are 10^18\n        //     ethRefund = unavailableTokens.mul(exchangeRate).div(decimalMultiplier);\n        //     // subtract the refund amount from the eth amount received by the tx\n        //     ethAmount = ethAmount.sub(ethRefund);\n        //     // make the transfer\n        //     dc.transferFrom(newTokensWallet, msg.sender, availableTokens);\n        //     isOpen = false;\n        //     // issue refund\n        //     if (ethRefund > 0) {\n        //         msg.sender.transfer(ethRefund);\n        //     }\n        //     // transfer ether to our wallet\n        //     // inherited transfer function will emit a Transfer event\n        //     newFundsWallet.transfer(ethAmount);\n        //     // increase the amount of eth raised in the main contract\n        //     // event is emitted in main contract\n        //     dc.increaseEthRaisedBySubsequentSale(ethAmount);\n        }\n        \n        // require(availableTokens >= totalTokenAmount);\n        // // inherited transfer function will emit a Transfer event\n        // dc.transferFrom(newTokensWallet, msg.sender, totalTokenAmount);\n        // // transfer either to newFundsWallet\n        // newFundsWallet.transfer(ethAmount);\n        // // increase the amount of eth raised in the main contract\n        // // event is emitted in main contract\n        // dc.increaseEthRaisedBySubsequentSale(ethAmount);\n        \n    }\n}",
  "sourcePath": "/Users/spencerdezartsmith/Documents/five2one/tsd_dapp/contracts/TSDSubsequentSupply.sol",
  "compiler": {
    "name": "solc",
    "version": "0.4.23+commit.124ca40d.Emscripten.clang"
  },
  "schemaVersion": "2.0.0",
  "updatedAt": "2018-06-01T00:18:49.857Z"
}