{
  "contractName": "TSDSubsequentSupply",
  "abi": [
    {
      "constant": false,
      "inputs": [],
      "name": "renounceOwnership",
      "outputs": [],
      "payable": false,
      "stateMutability": "nonpayable",
      "type": "function"
    },
    {
      "constant": true,
      "inputs": [],
      "name": "owner",
      "outputs": [
        {
          "name": "",
          "type": "address"
        }
      ],
      "payable": false,
      "stateMutability": "view",
      "type": "function"
    },
    {
      "constant": false,
      "inputs": [
        {
          "name": "newOwner",
          "type": "address"
        }
      ],
      "name": "transferOwnership",
      "outputs": [],
      "payable": false,
      "stateMutability": "nonpayable",
      "type": "function"
    },
    {
      "inputs": [
        {
          "name": "_contractAddress",
          "type": "address"
        }
      ],
      "payable": false,
      "stateMutability": "nonpayable",
      "type": "constructor"
    },
    {
      "payable": true,
      "stateMutability": "payable",
      "type": "fallback"
    },
    {
      "anonymous": false,
      "inputs": [
        {
          "indexed": false,
          "name": "_newSupplyAdded",
          "type": "uint256"
        }
      ],
      "name": "IncreaseSupplyOfTSD",
      "type": "event"
    },
    {
      "anonymous": false,
      "inputs": [
        {
          "indexed": false,
          "name": "_totalSupply",
          "type": "uint256"
        }
      ],
      "name": "NewTotalSupplyOfTSD",
      "type": "event"
    },
    {
      "anonymous": false,
      "inputs": [
        {
          "indexed": false,
          "name": "_from",
          "type": "address"
        },
        {
          "indexed": false,
          "name": "_to",
          "type": "address"
        },
        {
          "indexed": false,
          "name": "_amount",
          "type": "uint256"
        }
      ],
      "name": "Transfer",
      "type": "event"
    },
    {
      "anonymous": false,
      "inputs": [
        {
          "indexed": false,
          "name": "_previousTotal",
          "type": "uint256"
        },
        {
          "indexed": false,
          "name": "_newTotal",
          "type": "uint256"
        }
      ],
      "name": "EthRaisedUpdated",
      "type": "event"
    },
    {
      "anonymous": false,
      "inputs": [
        {
          "indexed": false,
          "name": "prevExchangeRate",
          "type": "uint256"
        },
        {
          "indexed": false,
          "name": "newExchangeRate",
          "type": "uint256"
        }
      ],
      "name": "ExhangeRateUpdated",
      "type": "event"
    },
    {
      "anonymous": false,
      "inputs": [
        {
          "indexed": false,
          "name": "_contract",
          "type": "address"
        },
        {
          "indexed": false,
          "name": "_isOpen",
          "type": "bool"
        }
      ],
      "name": "SubsequentContractOpened",
      "type": "event"
    },
    {
      "anonymous": false,
      "inputs": [
        {
          "indexed": true,
          "name": "previousOwner",
          "type": "address"
        }
      ],
      "name": "OwnershipRenounced",
      "type": "event"
    },
    {
      "anonymous": false,
      "inputs": [
        {
          "indexed": true,
          "name": "previousOwner",
          "type": "address"
        },
        {
          "indexed": true,
          "name": "newOwner",
          "type": "address"
        }
      ],
      "name": "OwnershipTransferred",
      "type": "event"
    },
    {
      "constant": false,
      "inputs": [
        {
          "name": "_newRate",
          "type": "uint256"
        }
      ],
      "name": "updateTheExchangeRate",
      "outputs": [
        {
          "name": "",
          "type": "bool"
        }
      ],
      "payable": false,
      "stateMutability": "nonpayable",
      "type": "function"
    },
    {
      "constant": false,
      "inputs": [
        {
          "name": "_newTokensWallet",
          "type": "address"
        },
        {
          "name": "_newFundsWallet",
          "type": "address"
        },
        {
          "name": "_rate",
          "type": "uint256"
        }
      ],
      "name": "setTokenWalletAddressAndExchangeRate",
      "outputs": [],
      "payable": false,
      "stateMutability": "nonpayable",
      "type": "function"
    },
    {
      "constant": false,
      "inputs": [
        {
          "name": "_amount",
          "type": "uint256"
        }
      ],
      "name": "increaseTotalSupplyAndAllocateTokens",
      "outputs": [],
      "payable": false,
      "stateMutability": "nonpayable",
      "type": "function"
    },
    {
      "constant": false,
      "inputs": [],
      "name": "openSubsequentSale",
      "outputs": [
        {
          "name": "",
          "type": "bool"
        }
      ],
      "payable": false,
      "stateMutability": "nonpayable",
      "type": "function"
    },
    {
      "constant": false,
      "inputs": [],
      "name": "closeSubsequentSale",
      "outputs": [
        {
          "name": "",
          "type": "bool"
        }
      ],
      "payable": false,
      "stateMutability": "nonpayable",
      "type": "function"
    },
    {
      "constant": false,
      "inputs": [],
      "name": "buySubsequentTokens",
      "outputs": [],
      "payable": true,
      "stateMutability": "payable",
      "type": "function"
    }
  ],
  "bytecode": "0x608060405234801561001057600080fd5b5060405160208061188b83398101806040528101908080519060200190929190505050336000806101000a81548173ffffffffffffffffffffffffffffffffffffffff021916908373ffffffffffffffffffffffffffffffffffffffff16021790555080600160006101000a81548173ffffffffffffffffffffffffffffffffffffffff021916908373ffffffffffffffffffffffffffffffffffffffff160217905550506117c7806100c46000396000f300608060405260043610610099576000357c0100000000000000000000000000000000000000000000000000000000900463ffffffff1680630568f811146100a35780630c827872146100d2578063715018a6146101015780637b78a9eb146101185780638da5cb5b14610122578063a229c61414610179578063a583d4f4146101be578063e426efe01461022b578063f2fde38b14610258575b6100a161029b565b005b3480156100af57600080fd5b506100b8610d94565b604051808215151515815260200191505060405180910390f35b3480156100de57600080fd5b506100e7610e83565b604051808215151515815260200191505060405180910390f35b34801561010d57600080fd5b50610116610fcc565b005b61012061029b565b005b34801561012e57600080fd5b506101376110ce565b604051808273ffffffffffffffffffffffffffffffffffffffff1673ffffffffffffffffffffffffffffffffffffffff16815260200191505060405180910390f35b34801561018557600080fd5b506101a4600480360381019080803590602001909291905050506110f3565b604051808215151515815260200191505060405180910390f35b3480156101ca57600080fd5b50610229600480360381019080803573ffffffffffffffffffffffffffffffffffffffff169060200190929190803573ffffffffffffffffffffffffffffffffffffffff169060200190929190803590602001909291905050506111c3565b005b34801561023757600080fd5b50610256600480360381019080803590602001909291905050506112af565b005b34801561026457600080fd5b50610299600480360381019080803573ffffffffffffffffffffffffffffffffffffffff1690602001909291905050506115c3565b005b600080600080600080600560149054906101000a900460ff1615156102bf57600080fd5b3495506102d76003543461171890919063ffffffff16565b9450600160009054906101000a900473ffffffffffffffffffffffffffffffffffffffff1673ffffffffffffffffffffffffffffffffffffffff1663c9e904be6040518163ffffffff167c0100000000000000000000000000000000000000000000000000000000028152600401602060405180830381600087803b15801561035f57600080fd5b505af1158015610373573d6000803e3d6000fd5b505050506040513d602081101561038957600080fd5b8101908080519060200190929190505050935060009150600160009054906101000a900473ffffffffffffffffffffffffffffffffffffffff1673ffffffffffffffffffffffffffffffffffffffff166370a08231600560009054906101000a900473ffffffffffffffffffffffffffffffffffffffff166040518263ffffffff167c0100000000000000000000000000000000000000000000000000000000028152600401808273ffffffffffffffffffffffffffffffffffffffff1673ffffffffffffffffffffffffffffffffffffffff168152602001915050602060405180830381600087803b15801561047f57600080fd5b505af1158015610493573d6000803e3d6000fd5b505050506040513d60208110156104a957600080fd5b8101908080519060200190929190505050905080851115610893576104d7818661175090919063ffffffff16565b92506105006003546104f2858861175090919063ffffffff16565b61176990919063ffffffff16565b9150610515828761175090919063ffffffff16565b9550600160009054906101000a900473ffffffffffffffffffffffffffffffffffffffff1673ffffffffffffffffffffffffffffffffffffffff166323b872dd600560009054906101000a900473ffffffffffffffffffffffffffffffffffffffff1633866040518463ffffffff167c0100000000000000000000000000000000000000000000000000000000028152600401808473ffffffffffffffffffffffffffffffffffffffff1673ffffffffffffffffffffffffffffffffffffffff1681526020018373ffffffffffffffffffffffffffffffffffffffff1673ffffffffffffffffffffffffffffffffffffffff1681526020018281526020019350505050602060405180830381600087803b15801561063257600080fd5b505af1158015610646573d6000803e3d6000fd5b505050506040513d602081101561065c57600080fd5b8101908080519060200190929190505050507fddf252ad1be2c89b69c2b068fc378daa952ba7f163c4a11628f55a4df523b3ef600560009054906101000a900473ffffffffffffffffffffffffffffffffffffffff163385604051808473ffffffffffffffffffffffffffffffffffffffff1673ffffffffffffffffffffffffffffffffffffffff1681526020018373ffffffffffffffffffffffffffffffffffffffff1673ffffffffffffffffffffffffffffffffffffffff168152602001828152602001935050505060405180910390a16000821115610780573373ffffffffffffffffffffffffffffffffffffffff166108fc839081150290604051600060405180830381858888f1935050505015801561077e573d6000803e3d6000fd5b505b600460009054906101000a900473ffffffffffffffffffffffffffffffffffffffff1673ffffffffffffffffffffffffffffffffffffffff166108fc879081150290604051600060405180830381858888f193505050501580156107e8573d6000803e3d6000fd5b50600160009054906101000a900473ffffffffffffffffffffffffffffffffffffffff1673ffffffffffffffffffffffffffffffffffffffff1663822fd6cd346040518263ffffffff167c010000000000000000000000000000000000000000000000000000000002815260040180828152602001915050600060405180830381600087803b15801561087a57600080fd5b505af115801561088e573d6000803e3d6000fd5b505050505b8481101515156108a257600080fd5b600160009054906101000a900473ffffffffffffffffffffffffffffffffffffffff1673ffffffffffffffffffffffffffffffffffffffff166323b872dd600560009054906101000a900473ffffffffffffffffffffffffffffffffffffffff1633886040518463ffffffff167c0100000000000000000000000000000000000000000000000000000000028152600401808473ffffffffffffffffffffffffffffffffffffffff1673ffffffffffffffffffffffffffffffffffffffff1681526020018373ffffffffffffffffffffffffffffffffffffffff1673ffffffffffffffffffffffffffffffffffffffff1681526020018281526020019350505050602060405180830381600087803b1580156109bd57600080fd5b505af11580156109d1573d6000803e3d6000fd5b505050506040513d60208110156109e757600080fd5b8101908080519060200190929190505050507fddf252ad1be2c89b69c2b068fc378daa952ba7f163c4a11628f55a4df523b3ef600560009054906101000a900473ffffffffffffffffffffffffffffffffffffffff163385604051808473ffffffffffffffffffffffffffffffffffffffff1673ffffffffffffffffffffffffffffffffffffffff1681526020018373ffffffffffffffffffffffffffffffffffffffff1673ffffffffffffffffffffffffffffffffffffffff168152602001828152602001935050505060405180910390a1600460009054906101000a900473ffffffffffffffffffffffffffffffffffffffff1673ffffffffffffffffffffffffffffffffffffffff166108fc349081150290604051600060405180830381858888f19350505050158015610b22573d6000803e3d6000fd5b50600160009054906101000a900473ffffffffffffffffffffffffffffffffffffffff1673ffffffffffffffffffffffffffffffffffffffff1663822fd6cd346040518263ffffffff167c010000000000000000000000000000000000000000000000000000000002815260040180828152602001915050600060405180830381600087803b158015610bb457600080fd5b505af1158015610bc8573d6000803e3d6000fd5b505050507fddf252ad1be2c89b69c2b068fc378daa952ba7f163c4a11628f55a4df523b3ef600560009054906101000a900473ffffffffffffffffffffffffffffffffffffffff163387604051808473ffffffffffffffffffffffffffffffffffffffff1673ffffffffffffffffffffffffffffffffffffffff1681526020018373ffffffffffffffffffffffffffffffffffffffff1673ffffffffffffffffffffffffffffffffffffffff168152602001828152602001935050505060405180910390a17f4014ce514c76bad08328a2a6046bac14007f7aad2c56c84c66acf8ca1c64bee884600160009054906101000a900473ffffffffffffffffffffffffffffffffffffffff1673ffffffffffffffffffffffffffffffffffffffff1663c9e904be6040518163ffffffff167c0100000000000000000000000000000000000000000000000000000000028152600401602060405180830381600087803b158015610d3557600080fd5b505af1158015610d49573d6000803e3d6000fd5b505050506040513d6020811015610d5f57600080fd5b8101908080519060200190929190505050604051808381526020018281526020019250505060405180910390a1505050505050565b60008060009054906101000a900473ffffffffffffffffffffffffffffffffffffffff1673ffffffffffffffffffffffffffffffffffffffff163373ffffffffffffffffffffffffffffffffffffffff16141515610df157600080fd5b6000600560146101000a81548160ff0219169083151502179055507faf3f4f7b0ffb18ebec20432ed523bf9463ffd3e9911e56e09b6de12e24be851d306000604051808373ffffffffffffffffffffffffffffffffffffffff1673ffffffffffffffffffffffffffffffffffffffff168152602001821515151581526020019250505060405180910390a16001905090565b60008060009054906101000a900473ffffffffffffffffffffffffffffffffffffffff1673ffffffffffffffffffffffffffffffffffffffff163373ffffffffffffffffffffffffffffffffffffffff16141515610ee057600080fd5b6000600560009054906101000a900473ffffffffffffffffffffffffffffffffffffffff1673ffffffffffffffffffffffffffffffffffffffff1614151515610f2857600080fd5b600060035414151515610f3a57600080fd5b6001600560146101000a81548160ff0219169083151502179055507faf3f4f7b0ffb18ebec20432ed523bf9463ffd3e9911e56e09b6de12e24be851d306001604051808373ffffffffffffffffffffffffffffffffffffffff1673ffffffffffffffffffffffffffffffffffffffff168152602001821515151581526020019250505060405180910390a16001905090565b6000809054906101000a900473ffffffffffffffffffffffffffffffffffffffff1673ffffffffffffffffffffffffffffffffffffffff163373ffffffffffffffffffffffffffffffffffffffff1614151561102757600080fd5b6000809054906101000a900473ffffffffffffffffffffffffffffffffffffffff1673ffffffffffffffffffffffffffffffffffffffff167ff8df31144d9c2f0f6b59d69b8b98abd5459d07f2742c4df920b25aae33c6482060405160405180910390a260008060006101000a81548173ffffffffffffffffffffffffffffffffffffffff021916908373ffffffffffffffffffffffffffffffffffffffff160217905550565b6000809054906101000a900473ffffffffffffffffffffffffffffffffffffffff1681565b60008060008060009054906101000a900473ffffffffffffffffffffffffffffffffffffffff1673ffffffffffffffffffffffffffffffffffffffff163373ffffffffffffffffffffffffffffffffffffffff1614151561115357600080fd5b600354915064e8d4a510009050611173848261171890919063ffffffff16565b6003819055507f9a4a0b4ec1a5f7ce40f0bbb5afddc8a88ed1279508f5d92b5056dcffdff438d98285604051808381526020018281526020019250505060405180910390a1600192505050919050565b6000809054906101000a900473ffffffffffffffffffffffffffffffffffffffff1673ffffffffffffffffffffffffffffffffffffffff163373ffffffffffffffffffffffffffffffffffffffff1614151561121e57600080fd5b611227816110f3565b5081600460006101000a81548173ffffffffffffffffffffffffffffffffffffffff021916908373ffffffffffffffffffffffffffffffffffffffff16021790555082600560006101000a81548173ffffffffffffffffffffffffffffffffffffffff021916908373ffffffffffffffffffffffffffffffffffffffff160217905550505050565b6000806000809054906101000a900473ffffffffffffffffffffffffffffffffffffffff1673ffffffffffffffffffffffffffffffffffffffff163373ffffffffffffffffffffffffffffffffffffffff1614151561130d57600080fd5b6000600560009054906101000a900473ffffffffffffffffffffffffffffffffffffffff1673ffffffffffffffffffffffffffffffffffffffff161415151561135557600080fd5b600160009054906101000a900473ffffffffffffffffffffffffffffffffffffffff1673ffffffffffffffffffffffffffffffffffffffff166318160ddd6040518163ffffffff167c0100000000000000000000000000000000000000000000000000000000028152600401602060405180830381600087803b1580156113db57600080fd5b505af11580156113ef573d6000803e3d6000fd5b505050506040513d602081101561140557600080fd5b8101908080519060200190929190505050915061142b838361177f90919063ffffffff16565b9050600160009054906101000a900473ffffffffffffffffffffffffffffffffffffffff1673ffffffffffffffffffffffffffffffffffffffff1663d05636e7600560009054906101000a900473ffffffffffffffffffffffffffffffffffffffff16856040518363ffffffff167c0100000000000000000000000000000000000000000000000000000000028152600401808373ffffffffffffffffffffffffffffffffffffffff1673ffffffffffffffffffffffffffffffffffffffff16815260200182815260200192505050602060405180830381600087803b15801561151457600080fd5b505af1158015611528573d6000803e3d6000fd5b505050506040513d602081101561153e57600080fd5b8101908080519060200190929190505050507f430d5260f09acb5101ae624d32ddd05d17db89e481131fa593de45f42fb2ba20836040518082815260200191505060405180910390a17f952a1875aa003fd2ebcc54a9d6b2a1a2ae65478646e82ac3aa13c75d23e8324b816040518082815260200191505060405180910390a1505050565b6000809054906101000a900473ffffffffffffffffffffffffffffffffffffffff1673ffffffffffffffffffffffffffffffffffffffff163373ffffffffffffffffffffffffffffffffffffffff1614151561161e57600080fd5b600073ffffffffffffffffffffffffffffffffffffffff168173ffffffffffffffffffffffffffffffffffffffff161415151561165a57600080fd5b8073ffffffffffffffffffffffffffffffffffffffff166000809054906101000a900473ffffffffffffffffffffffffffffffffffffffff1673ffffffffffffffffffffffffffffffffffffffff167f8be0079c531659141344cd1fd0a4f28419497f9722a3daafe3b4186f6b6457e060405160405180910390a3806000806101000a81548173ffffffffffffffffffffffffffffffffffffffff021916908373ffffffffffffffffffffffffffffffffffffffff16021790555050565b60008083141561172b576000905061174a565b818302905081838281151561173c57fe5b0414151561174657fe5b8090505b92915050565b600082821115151561175e57fe5b818303905092915050565b6000818381151561177657fe5b04905092915050565b6000818301905082811015151561179257fe5b809050929150505600a165627a7a72305820e3e7903216b333de43f4749e36f0f37455d8b8e5e9f2f8dc84fc5b4224635a880029",
  "source": "pragma solidity ^0.4.23;\n\nimport \"./FoundationContracts/Ownable.sol\";\nimport \"./TSD.sol\";\n\ncontract TSDSubsequentSupply is Ownable {\n    using SafeMath for uint256;\n    \n    TSD dc;\n\n    address TSDContractAddress;\n    uint256 exchangeRate;\n    // Wallet address that ether will be transferred to\n    address newFundsWallet;\n    // Wallet address that will hold the new token amount in the main contract \n    address newTokensWallet;\n    bool isOpen;\n    \n    constructor(address _contractAddress) public {\n        dc = TSD(_contractAddress);\n    }\n    \n    event IncreaseSupplyOfTSD(uint256 _newSupplyAdded);\n    event NewTotalSupplyOfTSD(uint256 _totalSupply);\n    event Transfer(address _from, address _to, uint256 _amount);\n    event EthRaisedUpdated(uint256 _previousTotal, uint256 _newTotal);\n    event ExhangeRateUpdated(uint256 prevExchangeRate, uint256 newExchangeRate);\n    event SubsequentContractOpened(address _contract, bool _isOpen);\n\n    // Updates the ETH => TSD exchange rate\n    function updateTheExchangeRate(uint256 _newRate) public onlyOwner returns (bool) {\n        uint256 currentRate = exchangeRate;\n        // 0.000001 ETHER\n        uint256 oneSzabo = 1 szabo;\n        // 0.00001 ETH OTHERWISE 0.000001\n        exchangeRate = (oneSzabo).mul(_newRate);\n        emit ExhangeRateUpdated(currentRate, _newRate);\n        return true;\n    }\n\n    // NOTE: when this contract is opened, the owner of the newTokensWallet\n    // needs to approve this wallet as the spender\n    // This will be done through the approve function in the main contract \n    \n    function setTokenWalletAddressAndExchangeRate(address _newTokensWallet, address _newFundsWallet, uint256 _rate) onlyOwner external {\n        updateTheExchangeRate(_rate);\n        newFundsWallet = _newFundsWallet;\n        newTokensWallet = _newTokensWallet;\n    }\n    \n    function increaseTotalSupplyAndAllocateTokens(uint256 _amount) onlyOwner external {\n        require(newTokensWallet != 0x0);\n        uint256 currentTotalSupply = dc.totalSupply();\n        uint256 newTotalSupply = currentTotalSupply.add(_amount);\n        dc.increaseTotalSupplyAndAllocateTokens(newTokensWallet, _amount);\n        emit IncreaseSupplyOfTSD(_amount);\n        emit NewTotalSupplyOfTSD(newTotalSupply);\n    }\n    \n    function openSubsequentSale() onlyOwner external returns (bool) {\n        require(newTokensWallet != 0x0);\n        require(exchangeRate != 0);\n        isOpen = true;\n\n        emit SubsequentContractOpened(address(this), true);\n        return true;\n    }\n    \n    function closeSubsequentSale() onlyOwner external returns (bool) {\n        isOpen = false;\n\n        emit SubsequentContractOpened(address(this), false);\n        return true;\n    }\n\n    function () payable public {\n        buySubsequentTokens();\n    }\n    \n    function buySubsequentTokens() payable public {\n        require(isOpen);\n        uint256 ethAmount = msg.value;\n        uint256 tokenAmount = msg.value.mul(exchangeRate);\n        uint256 currentEthRaised = dc.totalEthRaised();\n        uint256 availableTokens;\n        uint256 ethRefund = 0;\n        // get current amount available\n        uint256 currentAvailableTokens = dc.balanceOf(newTokensWallet);\n        if (tokenAmount > currentAvailableTokens) {\n            availableTokens = tokenAmount.sub(currentAvailableTokens);\n            ethRefund = tokenAmount.sub(availableTokens).div(exchangeRate);\n            ethAmount = ethAmount.sub(ethRefund);\n            // make the transfer\n            dc.transferFrom(newTokensWallet, msg.sender, availableTokens);\n            emit Transfer(newTokensWallet, msg.sender, availableTokens);\n            // issue refund\n            if (ethRefund > 0) {\n                msg.sender.transfer(ethRefund);\n            }\n            // transfer ether to our wallet\n            newFundsWallet.transfer(ethAmount);\n            dc.increaseEthRaisedBySubsequentSale(msg.value);\n        }\n        \n        require(currentAvailableTokens >= tokenAmount);\n        dc.transferFrom(newTokensWallet, msg.sender, tokenAmount);\n        emit Transfer(newTokensWallet, msg.sender, availableTokens);\n        // transfer either to newFundsWallet\n        newFundsWallet.transfer(msg.value);\n        dc.increaseEthRaisedBySubsequentSale(msg.value);\n        \n        emit Transfer(newTokensWallet, msg.sender, tokenAmount);\n        emit EthRaisedUpdated(currentEthRaised, dc.totalEthRaised());\n    }\n}",
  "sourcePath": "/Users/spencerdezartsmith/Documents/five2one/tsd_dapp/contracts/TSDSubsequentSupply.sol",
  "compiler": {
    "name": "solc",
    "version": "0.4.23+commit.124ca40d.Emscripten.clang"
  },
  "schemaVersion": "2.0.0",
  "updatedAt": "2018-05-31T05:00:52.130Z"
}