{
  "contractName": "TSDSubsequentSupply",
  "abi": [
    {
      "constant": true,
      "inputs": [],
      "name": "ethExchangeRate",
      "outputs": [
        {
          "name": "",
          "type": "uint256"
        }
      ],
      "payable": false,
      "stateMutability": "view",
      "type": "function"
    },
    {
      "constant": true,
      "inputs": [],
      "name": "decimalMultiplier",
      "outputs": [
        {
          "name": "",
          "type": "uint256"
        }
      ],
      "payable": false,
      "stateMutability": "view",
      "type": "function"
    },
    {
      "constant": true,
      "inputs": [],
      "name": "decimals",
      "outputs": [
        {
          "name": "",
          "type": "uint256"
        }
      ],
      "payable": false,
      "stateMutability": "view",
      "type": "function"
    },
    {
      "constant": true,
      "inputs": [],
      "name": "exchangeRate",
      "outputs": [
        {
          "name": "",
          "type": "uint256"
        }
      ],
      "payable": false,
      "stateMutability": "view",
      "type": "function"
    },
    {
      "constant": true,
      "inputs": [],
      "name": "isOpen",
      "outputs": [
        {
          "name": "",
          "type": "bool"
        }
      ],
      "payable": false,
      "stateMutability": "view",
      "type": "function"
    },
    {
      "constant": false,
      "inputs": [],
      "name": "renounceOwnership",
      "outputs": [],
      "payable": false,
      "stateMutability": "nonpayable",
      "type": "function"
    },
    {
      "constant": true,
      "inputs": [],
      "name": "tokenPrice",
      "outputs": [
        {
          "name": "",
          "type": "uint256"
        }
      ],
      "payable": false,
      "stateMutability": "view",
      "type": "function"
    },
    {
      "constant": true,
      "inputs": [],
      "name": "newFundsWallet",
      "outputs": [
        {
          "name": "",
          "type": "address"
        }
      ],
      "payable": false,
      "stateMutability": "view",
      "type": "function"
    },
    {
      "constant": true,
      "inputs": [],
      "name": "owner",
      "outputs": [
        {
          "name": "",
          "type": "address"
        }
      ],
      "payable": false,
      "stateMutability": "view",
      "type": "function"
    },
    {
      "constant": true,
      "inputs": [],
      "name": "newTokensWallet",
      "outputs": [
        {
          "name": "",
          "type": "address"
        }
      ],
      "payable": false,
      "stateMutability": "view",
      "type": "function"
    },
    {
      "constant": true,
      "inputs": [],
      "name": "subsequentTotalSupply",
      "outputs": [
        {
          "name": "",
          "type": "uint256"
        }
      ],
      "payable": false,
      "stateMutability": "view",
      "type": "function"
    },
    {
      "constant": true,
      "inputs": [],
      "name": "dc",
      "outputs": [
        {
          "name": "",
          "type": "address"
        }
      ],
      "payable": false,
      "stateMutability": "view",
      "type": "function"
    },
    {
      "constant": false,
      "inputs": [
        {
          "name": "newOwner",
          "type": "address"
        }
      ],
      "name": "transferOwnership",
      "outputs": [],
      "payable": false,
      "stateMutability": "nonpayable",
      "type": "function"
    },
    {
      "inputs": [
        {
          "name": "_contractAddress",
          "type": "address"
        }
      ],
      "payable": false,
      "stateMutability": "nonpayable",
      "type": "constructor"
    },
    {
      "payable": true,
      "stateMutability": "payable",
      "type": "fallback"
    },
    {
      "anonymous": false,
      "inputs": [
        {
          "indexed": false,
          "name": "_newSupplyAdded",
          "type": "uint256"
        }
      ],
      "name": "IncreaseSupplyOfTSD",
      "type": "event"
    },
    {
      "anonymous": false,
      "inputs": [
        {
          "indexed": false,
          "name": "_totalSupply",
          "type": "uint256"
        }
      ],
      "name": "NewTotalSupplyOfTSD",
      "type": "event"
    },
    {
      "anonymous": false,
      "inputs": [
        {
          "indexed": false,
          "name": "_from",
          "type": "address"
        },
        {
          "indexed": false,
          "name": "_to",
          "type": "address"
        },
        {
          "indexed": false,
          "name": "_amount",
          "type": "uint256"
        }
      ],
      "name": "Transfer",
      "type": "event"
    },
    {
      "anonymous": false,
      "inputs": [
        {
          "indexed": false,
          "name": "_previousTotal",
          "type": "uint256"
        },
        {
          "indexed": false,
          "name": "_newTotal",
          "type": "uint256"
        }
      ],
      "name": "EthRaisedUpdated",
      "type": "event"
    },
    {
      "anonymous": false,
      "inputs": [
        {
          "indexed": false,
          "name": "prevExchangeRate",
          "type": "uint256"
        },
        {
          "indexed": false,
          "name": "newExchangeRate",
          "type": "uint256"
        }
      ],
      "name": "ExchangeRateUpdated",
      "type": "event"
    },
    {
      "anonymous": false,
      "inputs": [
        {
          "indexed": false,
          "name": "_contract",
          "type": "address"
        },
        {
          "indexed": false,
          "name": "_isOpen",
          "type": "bool"
        }
      ],
      "name": "SubsequentContractOpened",
      "type": "event"
    },
    {
      "anonymous": false,
      "inputs": [
        {
          "indexed": false,
          "name": "_oldPrice",
          "type": "uint256"
        },
        {
          "indexed": false,
          "name": "_newPrice",
          "type": "uint256"
        }
      ],
      "name": "TokenPriceUpdated",
      "type": "event"
    },
    {
      "anonymous": false,
      "inputs": [
        {
          "indexed": true,
          "name": "previousOwner",
          "type": "address"
        }
      ],
      "name": "OwnershipRenounced",
      "type": "event"
    },
    {
      "anonymous": false,
      "inputs": [
        {
          "indexed": true,
          "name": "previousOwner",
          "type": "address"
        },
        {
          "indexed": true,
          "name": "newOwner",
          "type": "address"
        }
      ],
      "name": "OwnershipTransferred",
      "type": "event"
    },
    {
      "constant": false,
      "inputs": [
        {
          "name": "_newRate",
          "type": "uint256"
        }
      ],
      "name": "updateTheExchangeRate",
      "outputs": [
        {
          "name": "",
          "type": "bool"
        }
      ],
      "payable": false,
      "stateMutability": "nonpayable",
      "type": "function"
    },
    {
      "constant": false,
      "inputs": [
        {
          "name": "_newPrice",
          "type": "uint256"
        }
      ],
      "name": "updateTokenPrice",
      "outputs": [
        {
          "name": "",
          "type": "bool"
        }
      ],
      "payable": false,
      "stateMutability": "nonpayable",
      "type": "function"
    },
    {
      "constant": false,
      "inputs": [
        {
          "name": "_newAddress",
          "type": "address"
        }
      ],
      "name": "changeOracleAddress",
      "outputs": [],
      "payable": false,
      "stateMutability": "nonpayable",
      "type": "function"
    },
    {
      "constant": false,
      "inputs": [
        {
          "name": "_addresses",
          "type": "address[]"
        }
      ],
      "name": "createWhiteListedMapping",
      "outputs": [],
      "payable": false,
      "stateMutability": "nonpayable",
      "type": "function"
    },
    {
      "constant": true,
      "inputs": [
        {
          "name": "_address",
          "type": "address"
        }
      ],
      "name": "isWhiteListed",
      "outputs": [
        {
          "name": "",
          "type": "bool"
        }
      ],
      "payable": false,
      "stateMutability": "view",
      "type": "function"
    },
    {
      "constant": false,
      "inputs": [],
      "name": "openSubsequentSale",
      "outputs": [
        {
          "name": "",
          "type": "bool"
        }
      ],
      "payable": false,
      "stateMutability": "nonpayable",
      "type": "function"
    },
    {
      "constant": false,
      "inputs": [],
      "name": "closeSubsequentSale",
      "outputs": [
        {
          "name": "",
          "type": "bool"
        }
      ],
      "payable": false,
      "stateMutability": "nonpayable",
      "type": "function"
    },
    {
      "constant": false,
      "inputs": [
        {
          "name": "_newTokensWallet",
          "type": "address"
        },
        {
          "name": "_newFundsWallet",
          "type": "address"
        },
        {
          "name": "_rate",
          "type": "uint256"
        }
      ],
      "name": "setTokenWalletAddressAndExchangeRate",
      "outputs": [],
      "payable": false,
      "stateMutability": "nonpayable",
      "type": "function"
    },
    {
      "constant": false,
      "inputs": [
        {
          "name": "_amount",
          "type": "uint256"
        }
      ],
      "name": "increaseTotalSupplyAndAllocateTokens",
      "outputs": [],
      "payable": false,
      "stateMutability": "nonpayable",
      "type": "function"
    },
    {
      "constant": false,
      "inputs": [],
      "name": "buySubsequentTokens",
      "outputs": [],
      "payable": true,
      "stateMutability": "payable",
      "type": "function"
    }
  ],
  "bytecode": "0x608060405260326005556012600655600654600a0a6007556000600a60146101000a81548160ff02191690831515021790555034801561003e57600080fd5b50604051602080611dae83398101806040528101908080519060200190929190505050336000806101000a81548173ffffffffffffffffffffffffffffffffffffffff021916908373ffffffffffffffffffffffffffffffffffffffff16021790555080600160006101000a81548173ffffffffffffffffffffffffffffffffffffffff021916908373ffffffffffffffffffffffffffffffffffffffff16021790555050611cbc806100f26000396000f300608060405260043610610133576000357c0100000000000000000000000000000000000000000000000000000000900463ffffffff1680630568f8111461013d5780630b961e481461016c5780630c827872146101975780633082538f146101c6578063313ce567146101f15780633ba0b9a91461021c57806347535d7b14610247578063676c0d77146102765780636f9170f6146102bb578063715018a6146103165780637b78a9eb1461032d5780637ff9b596146103375780638cd4bfeb146103625780638da5cb5b146103b95780639493357214610410578063a229c61414610467578063a583d4f4146104ac578063b9cdd19b14610519578063ba5e02171461057f578063d8a531a6146105aa578063e426efe014610601578063f2fde38b1461062e578063fb349dbd14610671575b61013b6106b4565b005b34801561014957600080fd5b50610152610e34565b604051808215151515815260200191505060405180910390f35b34801561017857600080fd5b50610181610f23565b6040518082815260200191505060405180910390f35b3480156101a357600080fd5b506101ac610f29565b604051808215151515815260200191505060405180910390f35b3480156101d257600080fd5b506101db611072565b6040518082815260200191505060405180910390f35b3480156101fd57600080fd5b50610206611078565b6040518082815260200191505060405180910390f35b34801561022857600080fd5b5061023161107e565b6040518082815260200191505060405180910390f35b34801561025357600080fd5b5061025c611084565b604051808215151515815260200191505060405180910390f35b34801561028257600080fd5b506102a160048036038101908080359060200190929190505050611097565b604051808215151515815260200191505060405180910390f35b3480156102c757600080fd5b506102fc600480360381019080803573ffffffffffffffffffffffffffffffffffffffff16906020019092919050505061114a565b604051808215151515815260200191505060405180910390f35b34801561032257600080fd5b5061032b6111b1565b005b6103356106b4565b005b34801561034357600080fd5b5061034c6112b3565b6040518082815260200191505060405180910390f35b34801561036e57600080fd5b506103776112b9565b604051808273ffffffffffffffffffffffffffffffffffffffff1673ffffffffffffffffffffffffffffffffffffffff16815260200191505060405180910390f35b3480156103c557600080fd5b506103ce6112df565b604051808273ffffffffffffffffffffffffffffffffffffffff1673ffffffffffffffffffffffffffffffffffffffff16815260200191505060405180910390f35b34801561041c57600080fd5b50610425611304565b604051808273ffffffffffffffffffffffffffffffffffffffff1673ffffffffffffffffffffffffffffffffffffffff16815260200191505060405180910390f35b34801561047357600080fd5b506104926004803603810190808035906020019092919050505061132a565b604051808215151515815260200191505060405180910390f35b3480156104b857600080fd5b50610517600480360381019080803573ffffffffffffffffffffffffffffffffffffffff169060200190929190803573ffffffffffffffffffffffffffffffffffffffff16906020019092919080359060200190929190505050611489565b005b34801561052557600080fd5b5061057d60048036038101908080359060200190820180359060200190808060200260200160405190810160405280939291908181526020018383602002808284378201915050505050509192919290505050611575565b005b34801561058b57600080fd5b506105946116b8565b6040518082815260200191505060405180910390f35b3480156105b657600080fd5b506105bf6116be565b604051808273ffffffffffffffffffffffffffffffffffffffff1673ffffffffffffffffffffffffffffffffffffffff16815260200191505060405180910390f35b34801561060d57600080fd5b5061062c600480360381019080803590602001909291905050506116e4565b005b34801561063a57600080fd5b5061066f600480360381019080803573ffffffffffffffffffffffffffffffffffffffff169060200190929190505050611a19565b005b34801561067d57600080fd5b506106b2600480360381019080803573ffffffffffffffffffffffffffffffffffffffff169060200190929190505050611b6e565b005b6000806000806000600a60149054906101000a900460ff1615156106d757600080fd5b600b60003373ffffffffffffffffffffffffffffffffffffffff1673ffffffffffffffffffffffffffffffffffffffff16815260200190815260200160002060009054906101000a900460ff16151561072f57600080fd5b34945061075b60045461074d60075488611c0d90919063ffffffff16565b611c4590919063ffffffff16565b9350600160009054906101000a900473ffffffffffffffffffffffffffffffffffffffff1673ffffffffffffffffffffffffffffffffffffffff166370a08231600960009054906101000a900473ffffffffffffffffffffffffffffffffffffffff166040518263ffffffff167c0100000000000000000000000000000000000000000000000000000000028152600401808273ffffffffffffffffffffffffffffffffffffffff1673ffffffffffffffffffffffffffffffffffffffff168152602001915050602060405180830381600087803b15801561083c57600080fd5b505af1158015610850573d6000803e3d6000fd5b505050506040513d602081101561086657600080fd5b810190808051906020019092919050505092506000915082841115610bb4576108988385611c5b90919063ffffffff16565b90506108c36007546108b560045484611c0d90919063ffffffff16565b611c4590919063ffffffff16565b91506108d88286611c5b90919063ffffffff16565b9450600160009054906101000a900473ffffffffffffffffffffffffffffffffffffffff1673ffffffffffffffffffffffffffffffffffffffff166323b872dd600960009054906101000a900473ffffffffffffffffffffffffffffffffffffffff1633866040518463ffffffff167c0100000000000000000000000000000000000000000000000000000000028152600401808473ffffffffffffffffffffffffffffffffffffffff1673ffffffffffffffffffffffffffffffffffffffff1681526020018373ffffffffffffffffffffffffffffffffffffffff1673ffffffffffffffffffffffffffffffffffffffff1681526020018281526020019350505050602060405180830381600087803b1580156109f557600080fd5b505af1158015610a09573d6000803e3d6000fd5b505050506040513d6020811015610a1f57600080fd5b8101908080519060200190929190505050506000821115610a82573373ffffffffffffffffffffffffffffffffffffffff166108fc839081150290604051600060405180830381858888f19350505050158015610a80573d6000803e3d6000fd5b505b600860009054906101000a900473ffffffffffffffffffffffffffffffffffffffff1673ffffffffffffffffffffffffffffffffffffffff166108fc869081150290604051600060405180830381858888f19350505050158015610aea573d6000803e3d6000fd5b50600160009054906101000a900473ffffffffffffffffffffffffffffffffffffffff1673ffffffffffffffffffffffffffffffffffffffff1663822fd6cd866040518263ffffffff167c010000000000000000000000000000000000000000000000000000000002815260040180828152602001915050600060405180830381600087803b158015610b7c57600080fd5b505af1158015610b90573d6000803e3d6000fd5b505050506000600a60146101000a81548160ff021916908315150217905550610e2d565b828411151515610bc357600080fd5b600160009054906101000a900473ffffffffffffffffffffffffffffffffffffffff1673ffffffffffffffffffffffffffffffffffffffff166323b872dd600960009054906101000a900473ffffffffffffffffffffffffffffffffffffffff1633876040518463ffffffff167c0100000000000000000000000000000000000000000000000000000000028152600401808473ffffffffffffffffffffffffffffffffffffffff1673ffffffffffffffffffffffffffffffffffffffff1681526020018373ffffffffffffffffffffffffffffffffffffffff1673ffffffffffffffffffffffffffffffffffffffff1681526020018281526020019350505050602060405180830381600087803b158015610cde57600080fd5b505af1158015610cf2573d6000803e3d6000fd5b505050506040513d6020811015610d0857600080fd5b810190808051906020019092919050505050600860009054906101000a900473ffffffffffffffffffffffffffffffffffffffff1673ffffffffffffffffffffffffffffffffffffffff166108fc869081150290604051600060405180830381858888f19350505050158015610d82573d6000803e3d6000fd5b50600160009054906101000a900473ffffffffffffffffffffffffffffffffffffffff1673ffffffffffffffffffffffffffffffffffffffff1663822fd6cd866040518263ffffffff167c010000000000000000000000000000000000000000000000000000000002815260040180828152602001915050600060405180830381600087803b158015610e1457600080fd5b505af1158015610e28573d6000803e3d6000fd5b505050505b5050505050565b60008060009054906101000a900473ffffffffffffffffffffffffffffffffffffffff1673ffffffffffffffffffffffffffffffffffffffff163373ffffffffffffffffffffffffffffffffffffffff16141515610e9157600080fd5b6000600a60146101000a81548160ff0219169083151502179055507faf3f4f7b0ffb18ebec20432ed523bf9463ffd3e9911e56e09b6de12e24be851d306000604051808373ffffffffffffffffffffffffffffffffffffffff1673ffffffffffffffffffffffffffffffffffffffff168152602001821515151581526020019250505060405180910390a16001905090565b60035481565b60008060009054906101000a900473ffffffffffffffffffffffffffffffffffffffff1673ffffffffffffffffffffffffffffffffffffffff163373ffffffffffffffffffffffffffffffffffffffff16141515610f8657600080fd5b6000600960009054906101000a900473ffffffffffffffffffffffffffffffffffffffff1673ffffffffffffffffffffffffffffffffffffffff1614151515610fce57600080fd5b600060045414151515610fe057600080fd5b6001600a60146101000a81548160ff0219169083151502179055507faf3f4f7b0ffb18ebec20432ed523bf9463ffd3e9911e56e09b6de12e24be851d306001604051808373ffffffffffffffffffffffffffffffffffffffff1673ffffffffffffffffffffffffffffffffffffffff168152602001821515151581526020019250505060405180910390a16001905090565b60075481565b60065481565b60045481565b600a60149054906101000a900460ff1681565b6000806000809054906101000a900473ffffffffffffffffffffffffffffffffffffffff1673ffffffffffffffffffffffffffffffffffffffff163373ffffffffffffffffffffffffffffffffffffffff161415156110f557600080fd5b6005549050826005819055507fd9cc159fa79112d02593601db522a6696e6c5c82d9e9ca9332f89ec824935bb08184604051808381526020018281526020019250505060405180910390a16001915050919050565b6000600b60008373ffffffffffffffffffffffffffffffffffffffff1673ffffffffffffffffffffffffffffffffffffffff16815260200190815260200160002060009054906101000a900460ff16156111a757600190506111ac565b600090505b919050565b6000809054906101000a900473ffffffffffffffffffffffffffffffffffffffff1673ffffffffffffffffffffffffffffffffffffffff163373ffffffffffffffffffffffffffffffffffffffff1614151561120c57600080fd5b6000809054906101000a900473ffffffffffffffffffffffffffffffffffffffff1673ffffffffffffffffffffffffffffffffffffffff167ff8df31144d9c2f0f6b59d69b8b98abd5459d07f2742c4df920b25aae33c6482060405160405180910390a260008060006101000a81548173ffffffffffffffffffffffffffffffffffffffff021916908373ffffffffffffffffffffffffffffffffffffffff160217905550565b60055481565b600860009054906101000a900473ffffffffffffffffffffffffffffffffffffffff1681565b6000809054906101000a900473ffffffffffffffffffffffffffffffffffffffff1681565b600960009054906101000a900473ffffffffffffffffffffffffffffffffffffffff1681565b6000806000806000809054906101000a900473ffffffffffffffffffffffffffffffffffffffff1673ffffffffffffffffffffffffffffffffffffffff163373ffffffffffffffffffffffffffffffffffffffff1614806113d85750600a60009054906101000a900473ffffffffffffffffffffffffffffffffffffffff1673ffffffffffffffffffffffffffffffffffffffff163373ffffffffffffffffffffffffffffffffffffffff16145b15156113e357600080fd5b84600381905550600454925064e8d4a51000915061142185611413620f4240600554611c0d90919063ffffffff16565b611c4590919063ffffffff16565b90506114368183611c0d90919063ffffffff16565b6004819055507fc8d1043f24843c0a1c9251fdc30017d84e87498fbcf232af9f86816b5e182bde83600454604051808381526020018281526020019250505060405180910390a160019350505050919050565b6000809054906101000a900473ffffffffffffffffffffffffffffffffffffffff1673ffffffffffffffffffffffffffffffffffffffff163373ffffffffffffffffffffffffffffffffffffffff161415156114e457600080fd5b6114ed8161132a565b5081600860006101000a81548173ffffffffffffffffffffffffffffffffffffffff021916908373ffffffffffffffffffffffffffffffffffffffff16021790555082600960006101000a81548173ffffffffffffffffffffffffffffffffffffffff021916908373ffffffffffffffffffffffffffffffffffffffff160217905550505050565b60008060009054906101000a900473ffffffffffffffffffffffffffffffffffffffff1673ffffffffffffffffffffffffffffffffffffffff163373ffffffffffffffffffffffffffffffffffffffff16148061161f5750600a60009054906101000a900473ffffffffffffffffffffffffffffffffffffffff1673ffffffffffffffffffffffffffffffffffffffff163373ffffffffffffffffffffffffffffffffffffffff16145b151561162a57600080fd5b600090505b81518110156116b4576001600b6000848481518110151561164c57fe5b9060200190602002015173ffffffffffffffffffffffffffffffffffffffff1673ffffffffffffffffffffffffffffffffffffffff16815260200190815260200160002060006101000a81548160ff021916908315150217905550808060010191505061162f565b5050565b60025481565b600160009054906101000a900473ffffffffffffffffffffffffffffffffffffffff1681565b60008060008060009054906101000a900473ffffffffffffffffffffffffffffffffffffffff1673ffffffffffffffffffffffffffffffffffffffff163373ffffffffffffffffffffffffffffffffffffffff1614151561174457600080fd5b6000600960009054906101000a900473ffffffffffffffffffffffffffffffffffffffff1673ffffffffffffffffffffffffffffffffffffffff161415151561178c57600080fd5b6117a160075485611c0d90919063ffffffff16565b9250600160009054906101000a900473ffffffffffffffffffffffffffffffffffffffff1673ffffffffffffffffffffffffffffffffffffffff166318160ddd6040518163ffffffff167c0100000000000000000000000000000000000000000000000000000000028152600401602060405180830381600087803b15801561182957600080fd5b505af115801561183d573d6000803e3d6000fd5b505050506040513d602081101561185357600080fd5b810190808051906020019092919050505091506118798383611c7490919063ffffffff16565b905082600281905550600160009054906101000a900473ffffffffffffffffffffffffffffffffffffffff1673ffffffffffffffffffffffffffffffffffffffff1663d05636e7600960009054906101000a900473ffffffffffffffffffffffffffffffffffffffff16856040518363ffffffff167c0100000000000000000000000000000000000000000000000000000000028152600401808373ffffffffffffffffffffffffffffffffffffffff1673ffffffffffffffffffffffffffffffffffffffff16815260200182815260200192505050602060405180830381600087803b15801561196957600080fd5b505af115801561197d573d6000803e3d6000fd5b505050506040513d602081101561199357600080fd5b8101908080519060200190929190505050507f430d5260f09acb5101ae624d32ddd05d17db89e481131fa593de45f42fb2ba20846040518082815260200191505060405180910390a17f952a1875aa003fd2ebcc54a9d6b2a1a2ae65478646e82ac3aa13c75d23e8324b816040518082815260200191505060405180910390a150505050565b6000809054906101000a900473ffffffffffffffffffffffffffffffffffffffff1673ffffffffffffffffffffffffffffffffffffffff163373ffffffffffffffffffffffffffffffffffffffff16141515611a7457600080fd5b600073ffffffffffffffffffffffffffffffffffffffff168173ffffffffffffffffffffffffffffffffffffffff1614151515611ab057600080fd5b8073ffffffffffffffffffffffffffffffffffffffff166000809054906101000a900473ffffffffffffffffffffffffffffffffffffffff1673ffffffffffffffffffffffffffffffffffffffff167f8be0079c531659141344cd1fd0a4f28419497f9722a3daafe3b4186f6b6457e060405160405180910390a3806000806101000a81548173ffffffffffffffffffffffffffffffffffffffff021916908373ffffffffffffffffffffffffffffffffffffffff16021790555050565b6000809054906101000a900473ffffffffffffffffffffffffffffffffffffffff1673ffffffffffffffffffffffffffffffffffffffff163373ffffffffffffffffffffffffffffffffffffffff16141515611bc957600080fd5b80600a60006101000a81548173ffffffffffffffffffffffffffffffffffffffff021916908373ffffffffffffffffffffffffffffffffffffffff16021790555050565b600080831415611c205760009050611c3f565b8183029050818382811515611c3157fe5b04141515611c3b57fe5b8090505b92915050565b60008183811515611c5257fe5b04905092915050565b6000828211151515611c6957fe5b818303905092915050565b60008183019050828110151515611c8757fe5b809050929150505600a165627a7a723058208bfc3467e9b2a0382486618932cb70f8dd14d27d4c7b7bb182c54e1bb83463530029",
  "source": "pragma solidity ^0.4.23;\n\nimport \"./FoundationContracts/Ownable.sol\";\nimport \"./TSD.sol\";\n\ncontract TSDSubsequentSupply is Ownable {\n    using SafeMath for uint256;\n\n    TSD public dc;\n\n    uint256 public subsequentTotalSupply;\n    uint256 public ethExchangeRate;\n    uint256 public exchangeRate;\n    uint256 public tokenPrice = 50; // 50 cents (USD)\n    uint256 public decimals = 18;\n    uint256 public decimalMultiplier = uint256(10) ** decimals;\n    // Wallet address that ether will be transferred to\n    address public newFundsWallet;\n    // Wallet address that will hold the new token amount in the main contract\n    address public newTokensWallet;\n    // Addresses for external helpers\n    address private oracleAddress;\n\n    bool public isOpen = false;\n\n    // whitelisted addresses\n    mapping(address => bool) whiteListed;\n\n    constructor(address _contractAddress) public {\n        dc = TSD(_contractAddress);\n    }\n\n    event IncreaseSupplyOfTSD(uint256 _newSupplyAdded);\n    event NewTotalSupplyOfTSD(uint256 _totalSupply);\n    event Transfer(address _from, address _to, uint256 _amount);\n    event EthRaisedUpdated(uint256 _previousTotal, uint256 _newTotal);\n    event ExchangeRateUpdated(uint256 prevExchangeRate, uint256 newExchangeRate);\n    event SubsequentContractOpened(address _contract, bool _isOpen);\n    event TokenPriceUpdated(uint256 _oldPrice, uint256 _newPrice);\n\n    // Updates the ETH => TSD exchange rate\n    function updateTheExchangeRate(uint256 _newRate) public onlyRestricted returns (bool) {\n        ethExchangeRate = _newRate;\n        uint256 currentRate = exchangeRate;\n        uint256 oneSzabo = 1 szabo;\n        uint256 tokenInSzabo = tokenPrice.mul(1000000).div(_newRate);\n        exchangeRate = oneSzabo.mul(tokenInSzabo);\n        emit ExchangeRateUpdated(currentRate, exchangeRate);\n        return true;\n    }\n\n    // Updates the tokenPrice.\n    // @param _newprice: the token price in USD cents\n    function updateTokenPrice(uint256 _newPrice) external onlyOwner returns (bool) {\n        uint256 _oldPrice = tokenPrice;\n        tokenPrice = _newPrice;\n        emit TokenPriceUpdated(_oldPrice, _newPrice);\n        return true;\n    }\n\n    // Change the address of the oracle\n    function changeOracleAddress(address _newAddress) external onlyOwner {\n      oracleAddress = _newAddress;\n    }\n\n    // creates the whitelist mapping\n    function createWhiteListedMapping(address[] _addresses) public onlyRestricted {\n        for (uint256 i = 0; i < _addresses.length; i++) {\n            whiteListed[_addresses[i]] = true;\n        }\n    }\n\n    function isWhiteListed(address _address) external view returns (bool) {\n        if (whiteListed[_address]) {\n            return true;\n        } else {\n            return false;\n        }\n    }\n\n    // NOTE: when this contract is opened, the owner of the newTokensWallet\n    // needs to approve this wallet as the spender\n    // This will be done through the approve function in the main contract\n\n    function openSubsequentSale() external onlyOwner returns (bool) {\n        require(newTokensWallet != 0x0);\n        require(exchangeRate != 0);\n        isOpen = true;\n\n        emit SubsequentContractOpened(address(this), true);\n        return true;\n    }\n\n    function closeSubsequentSale() external onlyOwner returns (bool) {\n        isOpen = false;\n\n        emit SubsequentContractOpened(address(this), false);\n        return true;\n    }\n\n    function setTokenWalletAddressAndExchangeRate(address _newTokensWallet, address _newFundsWallet, uint256 _rate) external onlyOwner {\n        updateTheExchangeRate(_rate);\n        newFundsWallet = _newFundsWallet;\n        newTokensWallet = _newTokensWallet;\n    }\n\n    function increaseTotalSupplyAndAllocateTokens(uint256 _amount) public onlyOwner {\n        require(newTokensWallet != 0x0);\n        uint256 increaseAmount = _amount.mul(decimalMultiplier);\n        uint256 currentTotalSupply = dc.totalSupply();\n        uint256 newTotalSupply = currentTotalSupply.add(increaseAmount);\n        subsequentTotalSupply = increaseAmount;\n        dc.increaseTotalSupplyAndAllocateTokens(newTokensWallet, increaseAmount);\n        emit IncreaseSupplyOfTSD(_amount);\n        emit NewTotalSupplyOfTSD(newTotalSupply);\n    }\n\n    function () public payable {\n        buySubsequentTokens();\n    }\n\n    function buySubsequentTokens() public payable {\n        require(isOpen);\n        require(whiteListed[msg.sender]);\n        // ETH received by spender\n        uint256 ethAmount = msg.value;\n        // token amount based on ETH / exchangeRate result\n        // Multiply with the decimalMultiplier to get total tokens (to 18 decimal place)\n        uint256 totalTokenAmount = ethAmount.mul(decimalMultiplier).div(exchangeRate);\n        // tokens avaialble to sell are the remaining tokens in the newTokensWallet\n        // get a reference to the total eth raised from the main contract\n        uint256 availableTokens = dc.balanceOf(newTokensWallet);\n        uint256 ethRefund = 0;\n        uint256 unavailableTokens;\n\n        if (totalTokenAmount > availableTokens) {\n            // additional tokens that aren't avaialble to be sold\n            // tokenAmount is the tokens requested by buyer\n            // availableTokens are all the tokens left in the supplying wallet i.e newTokensWallet\n            unavailableTokens = totalTokenAmount.sub(availableTokens);\n            // determine the unused ether amount by seeing how many tokens were surplus\n            // i.e 'availableTokens' and reverse calculating their ETH equivalent\n            // divide by decimalMultiplier as unavailableTokens are 10^18\n            ethRefund = unavailableTokens.mul(exchangeRate).div(decimalMultiplier);\n            // subtract the refund amount from the eth amount received by the tx\n            ethAmount = ethAmount.sub(ethRefund);\n            // make the transfer\n            dc.transferFrom(newTokensWallet, msg.sender, availableTokens);\n            // issue refund\n            if (ethRefund > 0) {\n                msg.sender.transfer(ethRefund);\n            }\n            // transfer ether to our wallet\n            // inherited transfer function will emit a Transfer event\n            newFundsWallet.transfer(ethAmount);\n            // increase the amount of eth raised in the main contract\n            // event is emitted in main contract\n            dc.increaseEthRaisedBySubsequentSale(ethAmount);\n            // close sale as all tokens are sold\n            isOpen = false;\n        } else {\n            require(totalTokenAmount <= availableTokens);\n            // inherited transfer function will emit a Transfer event\n            dc.transferFrom(newTokensWallet, msg.sender, totalTokenAmount);\n            // transfer either to newFundsWallet\n            newFundsWallet.transfer(ethAmount);\n            // increase the amount of eth raised in the main contract\n            // event is emitted in main contract\n            dc.increaseEthRaisedBySubsequentSale(ethAmount);\n        }\n    }\n\n    modifier onlyRestricted () {\n      require(msg.sender == owner || msg.sender == oracleAddress);\n      _;\n    }\n}\n",
  "sourcePath": "/Users/venkateshnamburi/Desktop/521/Projects/Transcendence/tsd_dapp/contracts/TSDSubsequentSupply.sol",
  "compiler": {
    "name": "solc",
    "version": "0.4.24+commit.e67f0147.Emscripten.clang"
  },
  "schemaVersion": "2.0.0",
  "updatedAt": "2018-07-02T15:34:25.211Z"
}