{
  "contractName": "TSDSubsequentSupply",
  "abi": [
    {
      "constant": true,
      "inputs": [],
      "name": "owner",
      "outputs": [
        {
          "name": "",
          "type": "address"
        }
      ],
      "payable": false,
      "stateMutability": "view",
      "type": "function"
    },
    {
      "constant": false,
      "inputs": [
        {
          "name": "newOwner",
          "type": "address"
        }
      ],
      "name": "transferOwnership",
      "outputs": [],
      "payable": false,
      "stateMutability": "nonpayable",
      "type": "function"
    },
    {
      "inputs": [
        {
          "name": "_contractAddress",
          "type": "address"
        }
      ],
      "payable": false,
      "stateMutability": "nonpayable",
      "type": "constructor"
    },
    {
      "payable": true,
      "stateMutability": "payable",
      "type": "fallback"
    },
    {
      "anonymous": false,
      "inputs": [
        {
          "indexed": false,
          "name": "_newSupplyAdded",
          "type": "uint256"
        }
      ],
      "name": "IncreaseSupplyOfTSD",
      "type": "event"
    },
    {
      "anonymous": false,
      "inputs": [
        {
          "indexed": false,
          "name": "_totalSupply",
          "type": "uint256"
        }
      ],
      "name": "NewTotalSupplyOfTSD",
      "type": "event"
    },
    {
      "anonymous": false,
      "inputs": [
        {
          "indexed": false,
          "name": "_from",
          "type": "address"
        },
        {
          "indexed": false,
          "name": "_to",
          "type": "address"
        },
        {
          "indexed": false,
          "name": "_amount",
          "type": "uint256"
        }
      ],
      "name": "Transfer",
      "type": "event"
    },
    {
      "anonymous": false,
      "inputs": [
        {
          "indexed": false,
          "name": "_previousTotal",
          "type": "uint256"
        },
        {
          "indexed": false,
          "name": "_newTotal",
          "type": "uint256"
        }
      ],
      "name": "EthRaisedUpdated",
      "type": "event"
    },
    {
      "anonymous": false,
      "inputs": [
        {
          "indexed": false,
          "name": "_contract",
          "type": "address"
        },
        {
          "indexed": false,
          "name": "_isOpen",
          "type": "bool"
        }
      ],
      "name": "SubsequentContractOpened",
      "type": "event"
    },
    {
      "anonymous": false,
      "inputs": [
        {
          "indexed": true,
          "name": "previousOwner",
          "type": "address"
        },
        {
          "indexed": true,
          "name": "newOwner",
          "type": "address"
        }
      ],
      "name": "OwnershipTransferred",
      "type": "event"
    },
    {
      "constant": false,
      "inputs": [
        {
          "name": "_newTokensWallet",
          "type": "address"
        },
        {
          "name": "_newFundsWallet",
          "type": "address"
        },
        {
          "name": "_rate",
          "type": "uint256"
        }
      ],
      "name": "setTokenWalletAddressAndExchangeRate",
      "outputs": [],
      "payable": false,
      "stateMutability": "nonpayable",
      "type": "function"
    },
    {
      "constant": false,
      "inputs": [
        {
          "name": "_amount",
          "type": "uint256"
        }
      ],
      "name": "increaseTotalSupplyAndAllocateTokens",
      "outputs": [],
      "payable": false,
      "stateMutability": "nonpayable",
      "type": "function"
    },
    {
      "constant": false,
      "inputs": [],
      "name": "openSubsequentSale",
      "outputs": [
        {
          "name": "",
          "type": "bool"
        }
      ],
      "payable": false,
      "stateMutability": "nonpayable",
      "type": "function"
    },
    {
      "constant": false,
      "inputs": [],
      "name": "closeSubsequentSale",
      "outputs": [
        {
          "name": "",
          "type": "bool"
        }
      ],
      "payable": false,
      "stateMutability": "nonpayable",
      "type": "function"
    },
    {
      "constant": false,
      "inputs": [],
      "name": "buySubsequentTokens",
      "outputs": [],
      "payable": true,
      "stateMutability": "payable",
      "type": "function"
    }
  ],
  "bytecode": "0x608060405234801561001057600080fd5b5060405160208061162083398101806040528101908080519060200190929190505050336000806101000a81548173ffffffffffffffffffffffffffffffffffffffff021916908373ffffffffffffffffffffffffffffffffffffffff16021790555080600160006101000a81548173ffffffffffffffffffffffffffffffffffffffff021916908373ffffffffffffffffffffffffffffffffffffffff1602179055505061155c806100c46000396000f300608060405260043610610083576000357c0100000000000000000000000000000000000000000000000000000000900463ffffffff1680630568f8111461008d5780630c827872146100bc5780637b78a9eb146100eb5780638da5cb5b146100f5578063a583d4f41461014c578063e426efe0146101b9578063f2fde38b146101e6575b61008b610229565b005b34801561009957600080fd5b506100a2610d22565b604051808215151515815260200191505060405180910390f35b3480156100c857600080fd5b506100d1610e11565b604051808215151515815260200191505060405180910390f35b6100f3610229565b005b34801561010157600080fd5b5061010a610f5a565b604051808273ffffffffffffffffffffffffffffffffffffffff1673ffffffffffffffffffffffffffffffffffffffff16815260200191505060405180910390f35b34801561015857600080fd5b506101b7600480360381019080803573ffffffffffffffffffffffffffffffffffffffff169060200190929190803573ffffffffffffffffffffffffffffffffffffffff16906020019092919080359060200190929190505050610f7f565b005b3480156101c557600080fd5b506101e460048036038101908080359060200190929190505050611068565b005b3480156101f257600080fd5b50610227600480360381019080803573ffffffffffffffffffffffffffffffffffffffff169060200190929190505050611358565b005b600080600080600080600560149054906101000a900460ff16151561024d57600080fd5b349550610265600354346114ad90919063ffffffff16565b9450600160009054906101000a900473ffffffffffffffffffffffffffffffffffffffff1673ffffffffffffffffffffffffffffffffffffffff1663c9e904be6040518163ffffffff167c0100000000000000000000000000000000000000000000000000000000028152600401602060405180830381600087803b1580156102ed57600080fd5b505af1158015610301573d6000803e3d6000fd5b505050506040513d602081101561031757600080fd5b8101908080519060200190929190505050935060009150600160009054906101000a900473ffffffffffffffffffffffffffffffffffffffff1673ffffffffffffffffffffffffffffffffffffffff166370a08231600560009054906101000a900473ffffffffffffffffffffffffffffffffffffffff166040518263ffffffff167c0100000000000000000000000000000000000000000000000000000000028152600401808273ffffffffffffffffffffffffffffffffffffffff1673ffffffffffffffffffffffffffffffffffffffff168152602001915050602060405180830381600087803b15801561040d57600080fd5b505af1158015610421573d6000803e3d6000fd5b505050506040513d602081101561043757600080fd5b81019080805190602001909291905050509050808511156108215761046581866114e590919063ffffffff16565b925061048e60035461048085886114e590919063ffffffff16565b6114fe90919063ffffffff16565b91506104a382876114e590919063ffffffff16565b9550600160009054906101000a900473ffffffffffffffffffffffffffffffffffffffff1673ffffffffffffffffffffffffffffffffffffffff166323b872dd600560009054906101000a900473ffffffffffffffffffffffffffffffffffffffff1633866040518463ffffffff167c0100000000000000000000000000000000000000000000000000000000028152600401808473ffffffffffffffffffffffffffffffffffffffff1673ffffffffffffffffffffffffffffffffffffffff1681526020018373ffffffffffffffffffffffffffffffffffffffff1673ffffffffffffffffffffffffffffffffffffffff1681526020018281526020019350505050602060405180830381600087803b1580156105c057600080fd5b505af11580156105d4573d6000803e3d6000fd5b505050506040513d60208110156105ea57600080fd5b8101908080519060200190929190505050507fddf252ad1be2c89b69c2b068fc378daa952ba7f163c4a11628f55a4df523b3ef600560009054906101000a900473ffffffffffffffffffffffffffffffffffffffff163385604051808473ffffffffffffffffffffffffffffffffffffffff1673ffffffffffffffffffffffffffffffffffffffff1681526020018373ffffffffffffffffffffffffffffffffffffffff1673ffffffffffffffffffffffffffffffffffffffff168152602001828152602001935050505060405180910390a1600082111561070e573373ffffffffffffffffffffffffffffffffffffffff166108fc839081150290604051600060405180830381858888f1935050505015801561070c573d6000803e3d6000fd5b505b600460009054906101000a900473ffffffffffffffffffffffffffffffffffffffff1673ffffffffffffffffffffffffffffffffffffffff166108fc879081150290604051600060405180830381858888f19350505050158015610776573d6000803e3d6000fd5b50600160009054906101000a900473ffffffffffffffffffffffffffffffffffffffff1673ffffffffffffffffffffffffffffffffffffffff1663822fd6cd346040518263ffffffff167c010000000000000000000000000000000000000000000000000000000002815260040180828152602001915050600060405180830381600087803b15801561080857600080fd5b505af115801561081c573d6000803e3d6000fd5b505050505b84811015151561083057600080fd5b600160009054906101000a900473ffffffffffffffffffffffffffffffffffffffff1673ffffffffffffffffffffffffffffffffffffffff166323b872dd600560009054906101000a900473ffffffffffffffffffffffffffffffffffffffff1633886040518463ffffffff167c0100000000000000000000000000000000000000000000000000000000028152600401808473ffffffffffffffffffffffffffffffffffffffff1673ffffffffffffffffffffffffffffffffffffffff1681526020018373ffffffffffffffffffffffffffffffffffffffff1673ffffffffffffffffffffffffffffffffffffffff1681526020018281526020019350505050602060405180830381600087803b15801561094b57600080fd5b505af115801561095f573d6000803e3d6000fd5b505050506040513d602081101561097557600080fd5b8101908080519060200190929190505050507fddf252ad1be2c89b69c2b068fc378daa952ba7f163c4a11628f55a4df523b3ef600560009054906101000a900473ffffffffffffffffffffffffffffffffffffffff163385604051808473ffffffffffffffffffffffffffffffffffffffff1673ffffffffffffffffffffffffffffffffffffffff1681526020018373ffffffffffffffffffffffffffffffffffffffff1673ffffffffffffffffffffffffffffffffffffffff168152602001828152602001935050505060405180910390a1600460009054906101000a900473ffffffffffffffffffffffffffffffffffffffff1673ffffffffffffffffffffffffffffffffffffffff166108fc349081150290604051600060405180830381858888f19350505050158015610ab0573d6000803e3d6000fd5b50600160009054906101000a900473ffffffffffffffffffffffffffffffffffffffff1673ffffffffffffffffffffffffffffffffffffffff1663822fd6cd346040518263ffffffff167c010000000000000000000000000000000000000000000000000000000002815260040180828152602001915050600060405180830381600087803b158015610b4257600080fd5b505af1158015610b56573d6000803e3d6000fd5b505050507fddf252ad1be2c89b69c2b068fc378daa952ba7f163c4a11628f55a4df523b3ef600560009054906101000a900473ffffffffffffffffffffffffffffffffffffffff163387604051808473ffffffffffffffffffffffffffffffffffffffff1673ffffffffffffffffffffffffffffffffffffffff1681526020018373ffffffffffffffffffffffffffffffffffffffff1673ffffffffffffffffffffffffffffffffffffffff168152602001828152602001935050505060405180910390a17f4014ce514c76bad08328a2a6046bac14007f7aad2c56c84c66acf8ca1c64bee884600160009054906101000a900473ffffffffffffffffffffffffffffffffffffffff1673ffffffffffffffffffffffffffffffffffffffff1663c9e904be6040518163ffffffff167c0100000000000000000000000000000000000000000000000000000000028152600401602060405180830381600087803b158015610cc357600080fd5b505af1158015610cd7573d6000803e3d6000fd5b505050506040513d6020811015610ced57600080fd5b8101908080519060200190929190505050604051808381526020018281526020019250505060405180910390a1505050505050565b60008060009054906101000a900473ffffffffffffffffffffffffffffffffffffffff1673ffffffffffffffffffffffffffffffffffffffff163373ffffffffffffffffffffffffffffffffffffffff16141515610d7f57600080fd5b6000600560146101000a81548160ff0219169083151502179055507faf3f4f7b0ffb18ebec20432ed523bf9463ffd3e9911e56e09b6de12e24be851d306000604051808373ffffffffffffffffffffffffffffffffffffffff1673ffffffffffffffffffffffffffffffffffffffff168152602001821515151581526020019250505060405180910390a16001905090565b60008060009054906101000a900473ffffffffffffffffffffffffffffffffffffffff1673ffffffffffffffffffffffffffffffffffffffff163373ffffffffffffffffffffffffffffffffffffffff16141515610e6e57600080fd5b6000600560009054906101000a900473ffffffffffffffffffffffffffffffffffffffff1673ffffffffffffffffffffffffffffffffffffffff1614151515610eb657600080fd5b600060035414151515610ec857600080fd5b6001600560146101000a81548160ff0219169083151502179055507faf3f4f7b0ffb18ebec20432ed523bf9463ffd3e9911e56e09b6de12e24be851d306001604051808373ffffffffffffffffffffffffffffffffffffffff1673ffffffffffffffffffffffffffffffffffffffff168152602001821515151581526020019250505060405180910390a16001905090565b6000809054906101000a900473ffffffffffffffffffffffffffffffffffffffff1681565b6000809054906101000a900473ffffffffffffffffffffffffffffffffffffffff1673ffffffffffffffffffffffffffffffffffffffff163373ffffffffffffffffffffffffffffffffffffffff16141515610fda57600080fd5b8060038190555081600460006101000a81548173ffffffffffffffffffffffffffffffffffffffff021916908373ffffffffffffffffffffffffffffffffffffffff16021790555082600560006101000a81548173ffffffffffffffffffffffffffffffffffffffff021916908373ffffffffffffffffffffffffffffffffffffffff160217905550505050565b6000806000809054906101000a900473ffffffffffffffffffffffffffffffffffffffff1673ffffffffffffffffffffffffffffffffffffffff163373ffffffffffffffffffffffffffffffffffffffff161415156110c657600080fd5b6000600560009054906101000a900473ffffffffffffffffffffffffffffffffffffffff1673ffffffffffffffffffffffffffffffffffffffff161415151561110e57600080fd5b600160009054906101000a900473ffffffffffffffffffffffffffffffffffffffff1673ffffffffffffffffffffffffffffffffffffffff166318160ddd6040518163ffffffff167c0100000000000000000000000000000000000000000000000000000000028152600401602060405180830381600087803b15801561119457600080fd5b505af11580156111a8573d6000803e3d6000fd5b505050506040513d60208110156111be57600080fd5b810190808051906020019092919050505091506111e4838361151490919063ffffffff16565b9050600160009054906101000a900473ffffffffffffffffffffffffffffffffffffffff1673ffffffffffffffffffffffffffffffffffffffff1663d05636e7600560009054906101000a900473ffffffffffffffffffffffffffffffffffffffff16856040518363ffffffff167c0100000000000000000000000000000000000000000000000000000000028152600401808373ffffffffffffffffffffffffffffffffffffffff1673ffffffffffffffffffffffffffffffffffffffff16815260200182815260200192505050600060405180830381600087803b1580156112cd57600080fd5b505af11580156112e1573d6000803e3d6000fd5b505050507f430d5260f09acb5101ae624d32ddd05d17db89e481131fa593de45f42fb2ba20836040518082815260200191505060405180910390a17f952a1875aa003fd2ebcc54a9d6b2a1a2ae65478646e82ac3aa13c75d23e8324b816040518082815260200191505060405180910390a1505050565b6000809054906101000a900473ffffffffffffffffffffffffffffffffffffffff1673ffffffffffffffffffffffffffffffffffffffff163373ffffffffffffffffffffffffffffffffffffffff161415156113b357600080fd5b600073ffffffffffffffffffffffffffffffffffffffff168173ffffffffffffffffffffffffffffffffffffffff16141515156113ef57600080fd5b8073ffffffffffffffffffffffffffffffffffffffff166000809054906101000a900473ffffffffffffffffffffffffffffffffffffffff1673ffffffffffffffffffffffffffffffffffffffff167f8be0079c531659141344cd1fd0a4f28419497f9722a3daafe3b4186f6b6457e060405160405180910390a3806000806101000a81548173ffffffffffffffffffffffffffffffffffffffff021916908373ffffffffffffffffffffffffffffffffffffffff16021790555050565b6000808314156114c057600090506114df565b81830290508183828115156114d157fe5b041415156114db57fe5b8090505b92915050565b60008282111515156114f357fe5b818303905092915050565b6000818381151561150b57fe5b04905092915050565b6000818301905082811015151561152757fe5b809050929150505600a165627a7a72305820052da0d133a9f63906612249d9e62b929ce445986d9f19637c2711b6fb75cf2d0029",
  "source": "pragma solidity ^0.4.23;\n\nimport \"openzeppelin-solidity/contracts/ownership/Ownable.sol\";\nimport \"./TSD.sol\";\n\ncontract TSDSubsequentSupply is Ownable {\n    using SafeMath for uint256;\n    \n    TSD dc;\n\n    address TSDContractAddress;\n    uint256 exchangeRate;\n    // Wallet address that ether will be transferred to\n    address newFundsWallet;\n    // Wallet address that will hold the new token amount in the main contract \n    address newTokensWallet;\n    bool isOpen;\n    \n    constructor(address _contractAddress) public {\n        dc = TSD(_contractAddress);\n    }\n    \n    event IncreaseSupplyOfTSD(uint256 _newSupplyAdded);\n    event NewTotalSupplyOfTSD(uint256 _totalSupply);\n    event Transfer(address _from, address _to, uint256 _amount);\n    event EthRaisedUpdated(uint256 _previousTotal, uint256 _newTotal);\n    event SubsequentContractOpened(address _contract, bool _isOpen);\n\n    // NOTE: when this contract is opened, the owner of the newTokensWallet\n    // needs to approve this wallet as the spender\n    // This will be done through the approve function in the main contract \n    \n    function setTokenWalletAddressAndExchangeRate(address _newTokensWallet, address _newFundsWallet, uint256 _rate) onlyOwner public {\n        exchangeRate = _rate;\n        newFundsWallet = _newFundsWallet;\n        newTokensWallet = _newTokensWallet;\n    }\n    \n    function increaseTotalSupplyAndAllocateTokens(uint256 _amount) onlyOwner public {\n        require(newTokensWallet != 0x0);\n        uint256 currentTotalSupply = dc.totalSupply();\n        uint256 newTotalSupply = currentTotalSupply.add(_amount);\n        dc.increaseTotalSupplyAndAllocateTokens(newTokensWallet, _amount);\n        emit IncreaseSupplyOfTSD(_amount);\n        emit NewTotalSupplyOfTSD(newTotalSupply);\n    }\n    \n    function openSubsequentSale() onlyOwner public returns (bool) {\n        require(newTokensWallet != 0x0);\n        require(exchangeRate != 0);\n        isOpen = true;\n\n        emit SubsequentContractOpened(address(this), true);\n        return true;\n    }\n    \n    function closeSubsequentSale() onlyOwner public returns (bool) {\n        isOpen = false;\n\n        emit SubsequentContractOpened(address(this), false);\n        return true;\n    }\n\n    function () payable public {\n        buySubsequentTokens();\n    }\n    \n    function buySubsequentTokens() payable public {\n        require(isOpen);\n        uint256 ethAmount = msg.value;\n        uint256 tokenAmount = msg.value.mul(exchangeRate);\n        uint256 currentEthRaised = dc.totalEthRaised();\n        uint256 availableTokens;\n        uint256 ethRefund = 0;\n        // get current amount available\n        uint256 currentAvailableTokens = dc.balanceOf(newTokensWallet);\n        if (tokenAmount > currentAvailableTokens) {\n            availableTokens = tokenAmount.sub(currentAvailableTokens);\n            ethRefund = tokenAmount.sub(availableTokens).div(exchangeRate);\n            ethAmount = ethAmount.sub(ethRefund);\n            // make the transfer\n            dc.transferFrom(newTokensWallet, msg.sender, availableTokens);\n            emit Transfer(newTokensWallet, msg.sender, availableTokens);\n            // issue refund\n            if (ethRefund > 0) {\n                msg.sender.transfer(ethRefund);\n            }\n            // transfer ether to our wallet\n            newFundsWallet.transfer(ethAmount);\n            dc.increaseEthRaisedBySubsequentSale(msg.value);\n        }\n        \n        require(currentAvailableTokens >= tokenAmount);\n        dc.transferFrom(newTokensWallet, msg.sender, tokenAmount);\n        emit Transfer(newTokensWallet, msg.sender, availableTokens);\n        // transfer either to newFundsWallet\n        newFundsWallet.transfer(msg.value);\n        dc.increaseEthRaisedBySubsequentSale(msg.value);\n        \n        emit Transfer(newTokensWallet, msg.sender, tokenAmount);\n        emit EthRaisedUpdated(currentEthRaised, dc.totalEthRaised());\n    }\n}",
  "sourcePath": "/Users/spencerdezartsmith/Documents/five2one/tsd_dapp/contracts/TSDSubsequentSupply.sol",
  "compiler": {
    "name": "solc",
    "version": "0.4.23+commit.124ca40d.Emscripten.clang"
  },
  "schemaVersion": "2.0.0",
  "updatedAt": "2018-05-25T07:45:48.738Z"
}